{
	"data": {
		"bytecode": {
			"linkReferences": {
				"contracts/SignatureValidator.sol": {
					"SignatureValidator": [
						{
							"length": 20,
							"start": 4864
						},
						{
							"length": 20,
							"start": 11413
						}
					]
				}
			},
			"object": "60806040523480156200001157600080fd5b5061871480620000226000396000f3fe6080604052600436106101e75760003560e01c80639b56d6c911610102578063e830b69011610095578063f8b2cb4f11610064578063f8b2cb4f14610726578063fa88dcde14610763578063fb32c5081461078e578063fdc505a2146107b95761027e565b8063e830b69014610679578063ea85347e146106a4578063f2fde38b146106c0578063f691ceb2146106e95761027e565b8063bd5798c3116100d1578063bd5798c3146105f0578063c72131631461061b578063d0e30db014610646578063de51a249146106505761027e565b80639b56d6c91461053c5780639e81699914610579578063a0cd70fc14610583578063ac29d744146105c05761027e565b8063668dbd831161017a57806372cbf4e81161014957806372cbf4e814610482578063891f6055146104ab5780638da5cb5b146104e85780639023550c146105135761027e565b8063668dbd83146103da57806369652fcf146104175780636e2e8c701461042e578063715018a61461046b5761027e565b806334a7a864116101b657806334a7a8641461033f578063457385f21461034957806359c153be14610386578063644be07d1461039d5761027e565b80630a9cb4a7146102835780631b032188146102ae5780632e1a7d4d146102eb57806333f07ad3146103145761027e565b3661027e57606560009054906101000a900473ffffffffffffffffffffffffffffffffffffffff1673ffffffffffffffffffffffffffffffffffffffff163373ffffffffffffffffffffffffffffffffffffffff161461027c576040517f08c379a000000000000000000000000000000000000000000000000000000000815260040161027390614903565b60405180910390fd5b005b600080fd5b34801561028f57600080fd5b506102986107e9565b6040516102a5919061493c565b60405180910390f35b3480156102ba57600080fd5b506102d560048036038101906102d09190614ebc565b6107f3565b6040516102e29190614f1e565b60405180910390f35b3480156102f757600080fd5b50610312600480360381019061030d9190614f39565b610805565b005b34801561032057600080fd5b506103296109c6565b604051610336919061493c565b60405180910390f35b6103476109d0565b005b34801561035557600080fd5b50610370600480360381019061036b9190614f66565b610a24565b60405161037d9190614fa2565b60405180910390f35b34801561039257600080fd5b5061039b610a83565b005b3480156103a957600080fd5b506103c460048036038101906103bf9190614f66565b610d61565b6040516103d1919061493c565b60405180910390f35b3480156103e657600080fd5b5061040160048036038101906103fc9190615085565b610daa565b60405161040e919061531d565b60405180910390f35b34801561042357600080fd5b5061042c6110b1565b005b34801561043a57600080fd5b506104556004803603810190610450919061533f565b6111f8565b6040516104629190615443565b60405180910390f35b34801561047757600080fd5b50610480611d24565b005b34801561048e57600080fd5b506104a960048036038101906104a4919061545e565b611d38565b005b3480156104b757600080fd5b506104d260048036038101906104cd91906154ca565b611ea3565b6040516104df9190615513565b60405180910390f35b3480156104f457600080fd5b506104fd611ecd565b60405161050a919061553d565b60405180910390f35b34801561051f57600080fd5b5061053a60048036038101906105359190615558565b611ef7565b005b34801561054857600080fd5b50610563600480360381019061055e9190614f66565b61211d565b604051610570919061493c565b60405180910390f35b610581612166565b005b34801561058f57600080fd5b506105aa60048036038101906105a591906155e5565b61223f565b6040516105b7919061493c565b60405180910390f35b6105da60048036038101906105d59190614ebc565b61229d565b6040516105e79190614fa2565b60405180910390f35b3480156105fc57600080fd5b50610605612737565b604051610612919061493c565b60405180910390f35b34801561062757600080fd5b50610630612757565b60405161063d919061493c565b60405180910390f35b61064e612777565b005b34801561065c57600080fd5b50610677600480360381019061067291906158eb565b6127cb565b005b34801561068557600080fd5b5061068e612bef565b60405161069b919061493c565b60405180910390f35b6106be60048036038101906106b9919061599e565b612bf9565b005b3480156106cc57600080fd5b506106e760048036038101906106e29190614f66565b61309d565b005b3480156106f557600080fd5b50610710600480360381019061070b9190615a16565b613120565b60405161071d9190614f1e565b60405180910390f35b34801561073257600080fd5b5061074d60048036038101906107489190614f66565b613132565b60405161075a919061493c565b60405180910390f35b34801561076f57600080fd5b5061077861317b565b604051610785919061493c565b60405180910390f35b34801561079a57600080fd5b506107a3613185565b6040516107b0919061553d565b60405180910390f35b6107d360048036038101906107ce9190615b00565b6131af565b6040516107e0919061493c565b60405180910390f35b6000607054905090565b60006107fe826134e8565b9050919050565b80606660003373ffffffffffffffffffffffffffffffffffffffff1673ffffffffffffffffffffffffffffffffffffffff168152602001908152602001600020541015610887576040517f08c379a000000000000000000000000000000000000000000000000000000000815260040161087e90615c3a565b60405180910390fd5b80606660003373ffffffffffffffffffffffffffffffffffffffff1673ffffffffffffffffffffffffffffffffffffffff16815260200190815260200160002060008282546108d69190615c89565b9250508190555060003373ffffffffffffffffffffffffffffffffffffffff168260405161090390615cee565b60006040518083038185875af1925050503d8060008114610940576040519150601f19603f3d011682016040523d82523d6000602084013e610945565b606091505b5050905080610989576040517f08c379a000000000000000000000000000000000000000000000000000000000815260040161098090615d4f565b60405180910390fd5b7f7fcf532c15f0a6db0bd6d0e038bea71d30d808c7d98cb3bf7268a95bf5081b6533836040516109ba929190615d6f565b60405180910390a15050565b6000606f54905090565b6109d9336136f1565b610a18576040517f08c379a0000000000000000000000000000000000000000000000000000000008152600401610a0f90615de4565b60405180910390fd5b610a223334613787565b565b6000610a2f826136f1565b8015610a7c5750606c54606860008473ffffffffffffffffffffffffffffffffffffffff1673ffffffffffffffffffffffffffffffffffffffff1681526020019081526020016000205410155b9050919050565b6000606b60003373ffffffffffffffffffffffffffffffffffffffff1673ffffffffffffffffffffffffffffffffffffffff1681526020019081526020016000205411610b05576040517f08c379a0000000000000000000000000000000000000000000000000000000008152600401610afc90615e50565b60405180910390fd5b606e60049054906101000a900463ffffffff1663ffffffff16606b60003373ffffffffffffffffffffffffffffffffffffffff1673ffffffffffffffffffffffffffffffffffffffff1681526020019081526020016000205443610b699190615c89565b1015610baa576040517f08c379a0000000000000000000000000000000000000000000000000000000008152600401610ba190615ebc565b60405180910390fd5b6000606860003373ffffffffffffffffffffffffffffffffffffffff1673ffffffffffffffffffffffffffffffffffffffff1681526020019081526020016000205490506000606860003373ffffffffffffffffffffffffffffffffffffffff1673ffffffffffffffffffffffffffffffffffffffff168152602001908152602001600020819055506000606b60003373ffffffffffffffffffffffffffffffffffffffff1673ffffffffffffffffffffffffffffffffffffffff1681526020019081526020016000208190555060003373ffffffffffffffffffffffffffffffffffffffff1682604051610c9e90615cee565b60006040518083038185875af1925050503d8060008114610cdb576040519150601f19603f3d011682016040523d82523d6000602084013e610ce0565b606091505b5050905080610d24576040517f08c379a0000000000000000000000000000000000000000000000000000000008152600401610d1b90615d4f565b60405180910390fd5b7fa8e76b822fc682be77f3b1c822ea81f6bda5aed92ba82e6873bfd889f328d1d23383604051610d55929190615d6f565b60405180910390a15050565b6000606760008373ffffffffffffffffffffffffffffffffffffffff1673ffffffffffffffffffffffffffffffffffffffff168152602001908152602001600020549050919050565b60606000825167ffffffffffffffff811115610dc957610dc8614981565b5b604051908082528060200260200182016040528015610e0257816020015b610def61483b565b815260200190600190039081610de75790505b5090506000805b84518110156110a6576000858281518110610e2757610e26615edc565b5b60200260200101519050610e706069600083815260200190815260200160002060010160009054906101000a900473ffffffffffffffffffffffffffffffffffffffff166136f1565b15611092576069600082815260200190815260200160002060405180610140016040529081600082015481526020016001820160009054906101000a900473ffffffffffffffffffffffffffffffffffffffff1673ffffffffffffffffffffffffffffffffffffffff1673ffffffffffffffffffffffffffffffffffffffff168152602001600282018054610f0490615f3a565b80601f0160208091040260200160405190810160405280929190818152602001828054610f3090615f3a565b8015610f7d5780601f10610f5257610100808354040283529160200191610f7d565b820191906000526020600020905b815481529060010190602001808311610f6057829003601f168201915b505050505081526020016003820154815260200160048201548152602001600582015481526020016006820154815260200160078201548152602001600882018054610fc890615f3a565b80601f0160208091040260200160405190810160405280929190818152602001828054610ff490615f3a565b80156110415780601f1061101657610100808354040283529160200191611041565b820191906000526020600020905b81548152906001019060200180831161102457829003601f168201915b505050505081526020016009820160009054906101000a900460ff16151515158152505084848151811061107857611077615edc565b5b6020026020010181905250828061108e90615f6b565b9350505b50808061109e90615f6b565b915050610e09565b508192505050919050565b6110ba336136f1565b6110f9576040517f08c379a00000000000000000000000000000000000000000000000000000000081526004016110f090615de4565b60405180910390fd5b6000606b60003373ffffffffffffffffffffffffffffffffffffffff1673ffffffffffffffffffffffffffffffffffffffff168152602001908152602001600020541461117b576040517f08c379a000000000000000000000000000000000000000000000000000000000815260040161117290615fff565b60405180910390fd5b43606b60003373ffffffffffffffffffffffffffffffffffffffff1673ffffffffffffffffffffffffffffffffffffffff168152602001908152602001600020819055507fa6674aa33cd1b7435474751667707bf05fde99e537d67043ec5f907782577d86336040516111ee919061553d565b60405180910390a1565b6000607160009054906101000a900460ff161561124a576040517f08c379a00000000000000000000000000000000000000000000000000000000081526004016112419061606b565b60405180910390fd5b6001607160006101000a81548160ff0219169083151502179055506000611270876134e8565b9050600160ff166072600083815260200190815260200160002060009054906101000a900460ff1660ff1611156112dc576040517f08c379a00000000000000000000000000000000000000000000000000000000081526004016112d3906160d7565b60405180910390fd5b73__$a15b1ee43228f2a7b300d8dd4e3fc2a5c7$__631a86b550886040015183896040518463ffffffff1660e01b815260040161131b9392919061616a565b602060405180830381865af4158015611338573d6000803e3d6000fd5b505050506040513d601f19601f8201168201806040525081019061135c91906161bd565b61139b576040517f08c379a000000000000000000000000000000000000000000000000000000000815260040161139290616236565b60405180910390fd5b637fffffff63ffffffff1683106113e7576040517f08c379a00000000000000000000000000000000000000000000000000000000081526004016113de906162a2565b60405180910390fd5b60006113f6888787878661381a565b90507ffffffffffffffffffffffffffffffffffffffffffffffffffffffffffffffed160010b810361145d576040517f08c379a000000000000000000000000000000000000000000000000000000000815260040161145490616334565b60405180910390fd5b7ffffffffffffffffffffffffffffffffffffffffffffffffffffffffffffffed260010b81036114c2576040517f08c379a00000000000000000000000000000000000000000000000000000000081526004016114b9906163c6565b60405180910390fd5b7ffffffffffffffffffffffffffffffffffffffffffffffffffffffffffffffed060010b8103611527576040517f08c379a000000000000000000000000000000000000000000000000000000000815260040161151e90616458565b60405180910390fd5b7ffffffffffffffffffffffffffffffffffffffffffffffffffffffffffffffecf60010b810361158c576040517f08c379a0000000000000000000000000000000000000000000000000000000008152600401611583906164ea565b60405180910390fd5b7ffffffffffffffffffffffffffffffffffffffffffffffffffffffffffffffc7c60010b81036115f1576040517f08c379a00000000000000000000000000000000000000000000000000000000081526004016115e890616556565b60405180910390fd5b600081138061162257507fffffffffffffffffffffffffffffffffffffffffffffffffffffffffffffff3860010b81145b8061164f57507fffffffffffffffffffffffffffffffffffffffffffffffffffffffffffffff9c60010b81145b61168e576040517f08c379a0000000000000000000000000000000000000000000000000000000008152600401611685906165c2565b60405180910390fd5b6116c68882606a600086815260200190815260200160002060000160009054906101000a900463ffffffff1663ffffffff168761390a565b156117fa57600061171e8960e00151606860008c6040015173ffffffffffffffffffffffffffffffffffffffff1673ffffffffffffffffffffffffffffffffffffffff16815260200190815260200160002054613bce565b905080606860008b6040015173ffffffffffffffffffffffffffffffffffffffff1673ffffffffffffffffffffffffffffffffffffffff16815260200190815260200160002060008282546117739190615c89565b925050819055507f9685484093cc596fdaeab51abf645b1753dbb7d869bfd2eb21e2c646e47a36f4896040015182856040516117b1939291906165e2565b60405180910390a160006064606e60009054906101000a900463ffffffff1663ffffffff16836117e19190616619565b6117eb919061668a565b90506117f73382613be7565b50505b7fffffffffffffffffffffffffffffffffffffffffffffffffffffffffffffff3860010b81148061184d57507fffffffffffffffffffffffffffffffffffffffffffffffffffffffffffffff9c60010b81145b156119035760026072600084815260200190815260200160002060006101000a81548160ff021916908360ff160217905550606a6000838152602001908152602001600020600080820160006101000a81549063ffffffff02191690556000820160046101000a81549060ff021916905550507ffb209329d5ab5b7bcb2e92f45f4534814b6e68fa5ad1f171dabc1d17d26f0ebe82826040516118f19291906166bb565b60405180910390a18092505050611d00565b60008190506119128982613c7a565b6000606a600085815260200190815260200160002060000160009054906101000a900463ffffffff1663ffffffff161115611aa6576000606a600085815260200190815260200160002060000160049054906101000a900460ff161561199757611990828b60c001518c610180015161198b91906166e4565b613bce565b90506119a8565b6119a5828b60c00151613bce565b90505b6119b68a6040015182613be7565b600081836119c49190615c89565b9050606f54811115611a9f5760008b6080015173ffffffffffffffffffffffffffffffffffffffff166108fc61ffff1683604051611a0190615cee565b600060405180830381858888f193505050503d8060008114611a3f576040519150601f19603f3d011682016040523d82523d6000602084013e611a44565b606091505b505090507f3052ea2f7e0d74fdc1c1e1f858ff1ae3d91ab1609717c3efedb95db603b255f68c60800151838389604051611a819493929190616777565b60405180910390a180611a9d57611a9c8c6040015183613be7565b5b505b5050611c8b565b60008190508961022001518015611ac257508961018001518110155b15611bc45760008a610100015173ffffffffffffffffffffffffffffffffffffffff168b610140015163ffffffff168c61018001518d6101200151604051611b0a91906167ed565b600060405180830381858888f193505050503d8060008114611b48576040519150601f19603f3d011682016040523d82523d6000602084013e611b4d565b606091505b505090507fbfc7404e6fe464f0646fe2c6ab942b92d56be722bb39f8c6bc4830d2d32fb80d338c61010001518d61014001518e61018001518f6101200151868b604051611ba0979695949392919061687f565b60405180910390a18015611bc2578a610180015182611bbf9190615c89565b91505b505b606f54811115611c895760008a6080015173ffffffffffffffffffffffffffffffffffffffff166108fc61ffff1683604051611bff90615cee565b600060405180830381858888f193505050503d8060008114611c3d576040519150601f19603f3d011682016040523d82523d6000602084013e611c42565b606091505b505090507f3052ea2f7e0d74fdc1c1e1f858ff1ae3d91ab1609717c3efedb95db603b255f68b60800151838388604051611c7f9493929190616777565b60405180910390a1505b505b60026072600085815260200190815260200160002060006101000a81548160ff021916908360ff160217905550606a6000848152602001908152602001600020600080820160006101000a81549063ffffffff02191690556000820160046101000a81549060ff021916905550508193505050505b6000607160006101000a81548160ff02191690831515021790555095945050505050565b611d2c613cf9565b611d366000613d77565b565b81611d41611ecd565b73ffffffffffffffffffffffffffffffffffffffff163373ffffffffffffffffffffffffffffffffffffffff161480611ddb57506069600082815260200190815260200160002060010160009054906101000a900473ffffffffffffffffffffffffffffffffffffffff1673ffffffffffffffffffffffffffffffffffffffff163373ffffffffffffffffffffffffffffffffffffffff16145b611e1a576040517f08c379a0000000000000000000000000000000000000000000000000000000008152600401611e1190616941565b60405180910390fd5b600115158215151480611e31575060001515821515145b611e70576040517f08c379a0000000000000000000000000000000000000000000000000000000008152600401611e67906169ad565b60405180910390fd5b816069600085815260200190815260200160002060090160006101000a81548160ff021916908315150217905550505050565b60006073600083815260200190815260200160002060009054906101000a900460ff169050919050565b6000603360009054906101000a900473ffffffffffffffffffffffffffffffffffffffff16905090565b60008060019054906101000a900460ff16159050808015611f285750600160008054906101000a900460ff1660ff16105b80611f555750611f3730613e3d565b158015611f545750600160008054906101000a900460ff1660ff16145b5b611f94576040517f08c379a0000000000000000000000000000000000000000000000000000000008152600401611f8b90616a3f565b60405180910390fd5b60016000806101000a81548160ff021916908360ff1602179055508015611fd1576001600060016101000a81548160ff0219169083151502179055505b60648463ffffffff16111561201b576040517f08c379a000000000000000000000000000000000000000000000000000000000815260040161201290616aab565b60405180910390fd5b612023613e60565b86606560006101000a81548173ffffffffffffffffffffffffffffffffffffffff021916908373ffffffffffffffffffffffffffffffffffffffff16021790555085606c8190555084606d8190555083606e60006101000a81548163ffffffff021916908363ffffffff16021790555082606e60046101000a81548163ffffffff021916908363ffffffff16021790555081606f8190555080156121145760008060016101000a81548160ff0219169083151502179055507f7f26b83ff96e1f2b6a682f133852f6798a09c465da95921460cefb3847402498600160405161210b9190616b06565b60405180910390a15b50505050505050565b6000606860008373ffffffffffffffffffffffffffffffffffffffff1673ffffffffffffffffffffffffffffffffffffffff168152602001908152602001600020549050919050565b61216f336136f1565b6121ae576040517f08c379a00000000000000000000000000000000000000000000000000000000081526004016121a590615de4565b60405180910390fd5b34606860003373ffffffffffffffffffffffffffffffffffffffff1673ffffffffffffffffffffffffffffffffffffffff16815260200190815260200160002060008282546121fd91906166e4565b925050819055507f456e0f4ea86ac283092c750200e8c877f6ad8901ae575f90e02081acd455af843334604051612235929190615d6f565b60405180910390a1565b60006050825114612285576040517f08c379a000000000000000000000000000000000000000000000000000000000815260040161227c90616b6d565b60405180910390fd5b612290826044613ec1565b63ffffffff169050919050565b60006122a8336136f1565b6122e7576040517f08c379a00000000000000000000000000000000000000000000000000000000081526004016122de90615de4565b60405180910390fd5b607160009054906101000a900460ff1615612337576040517f08c379a000000000000000000000000000000000000000000000000000000000815260040161232e9061606b565b60405180910390fd5b6001607160006101000a81548160ff021916908315150217905550816040015173ffffffffffffffffffffffffffffffffffffffff163373ffffffffffffffffffffffffffffffffffffffff16146123c4576040517f08c379a00000000000000000000000000000000000000000000000000000000081526004016123bb90616bd9565b60405180910390fd5b8161018001513460666000856040015173ffffffffffffffffffffffffffffffffffffffff1673ffffffffffffffffffffffffffffffffffffffff1681526020019081526020016000205461241991906166e4565b101561245a576040517f08c379a000000000000000000000000000000000000000000000000000000000815260040161245190615c3a565b60405180910390fd5b6000612465836134e8565b9050600060ff166072600083815260200190815260200160002060009054906101000a900460ff1660ff16146124d0576040517f08c379a00000000000000000000000000000000000000000000000000000000081526004016124c790616c45565b60405180910390fd5b6124de836040015134613be7565b6188b861ffff168361014001516124f59190616c65565b63ffffffff165a101561253d576040517f08c379a000000000000000000000000000000000000000000000000000000000815260040161253490616ce9565b60405180910390fd5b600083610100015173ffffffffffffffffffffffffffffffffffffffff1684610140015163ffffffff1685610180015186610120015160405161258091906167ed565b600060405180830381858888f193505050503d80600081146125be576040519150601f19603f3d011682016040523d82523d6000602084013e6125c3565b606091505b5050905063ffffffff8016421115612610576040517f08c379a000000000000000000000000000000000000000000000000000000000815260040161260790616d55565b60405180910390fd5b42606a600084815260200190815260200160002060000160006101000a81548163ffffffff021916908363ffffffff160217905550801561268e576001606a600084815260200190815260200160002060000160046101000a81548160ff02191690831515021790555061268d8460400151856101800151613ff0565b5b7fbfc7404e6fe464f0646fe2c6ab942b92d56be722bb39f8c6bc4830d2d32fb80d3385610100015186610140015187610180015188610120015186886040516126dd979695949392919061687f565b60405180910390a160016072600084815260200190815260200160002060006101000a81548160ff021916908360ff16021790555080925050506000607160006101000a81548160ff021916908315150217905550919050565b6000606e60049054906101000a900463ffffffff1663ffffffff16905090565b6000606e60009054906101000a900463ffffffff1663ffffffff16905090565b612780336136f1565b6127bf576040517f08c379a00000000000000000000000000000000000000000000000000000000081526004016127b690615de4565b60405180910390fd5b6127c93334613be7565b565b607160009054906101000a900460ff161561281b576040517f08c379a00000000000000000000000000000000000000000000000000000000081526004016128129061606b565b60405180910390fd5b6001607160006101000a81548160ff021916908315150217905550600061284186614083565b905060026073600083815260200190815260200160002060009054906101000a900460ff1660ff16146128a9576040517f08c379a00000000000000000000000000000000000000000000000000000000081526004016128a090616dc1565b60405180910390fd5b85610200015163ffffffff164211156128f7576040517f08c379a00000000000000000000000000000000000000000000000000000000081526004016128ee90616e2d565b60405180910390fd5b85610220015163ffffffff16431115612945576040517f08c379a000000000000000000000000000000000000000000000000000000000815260040161293c90616e99565b60405180910390fd5b856020015173ffffffffffffffffffffffffffffffffffffffff163373ffffffffffffffffffffffffffffffffffffffff16146129b7576040517f08c379a00000000000000000000000000000000000000000000000000000000081526004016129ae90616f05565b60405180910390fd5b856101c0015161ffff16606560009054906101000a900473ffffffffffffffffffffffffffffffffffffffff1673ffffffffffffffffffffffffffffffffffffffff16635b644587878787876040518563ffffffff1660e01b8152600401612a229493929190616fe3565b602060405180830381865afa158015612a3f573d6000803e3d6000fd5b505050506040513d601f19601f82011682018060405250810190612a63919061705b565b1215612aa4576040517f08c379a0000000000000000000000000000000000000000000000000000000008152600401612a9b906170fa565b60405180910390fd5b612ae0868760c00151606a600085815260200190815260200160002060000160009054906101000a900463ffffffff1663ffffffff164261410e565b15612b96576000612b388760c00151606860008a6020015173ffffffffffffffffffffffffffffffffffffffff1673ffffffffffffffffffffffffffffffffffffffff16815260200190815260200160002054613bce565b90508060686000896020015173ffffffffffffffffffffffffffffffffffffffff1673ffffffffffffffffffffffffffffffffffffffff1681526020019081526020016000206000828254612b8d9190615c89565b92505081905550505b612ba98660600151876101400151613787565b6073600082815260200190815260200160002060006101000a81549060ff0219169055506000607160006101000a81548160ff0219169083151502179055505050505050565b6000606c54905090565b607160009054906101000a900460ff1615612c49576040517f08c379a0000000000000000000000000000000000000000000000000000000008152600401612c409061606b565b60405180910390fd5b6001607160006101000a81548160ff0219169083151502179055506000612c6f83614083565b905073__$a15b1ee43228f2a7b300d8dd4e3fc2a5c7$__631a86b550846020015183856040518463ffffffff1660e01b8152600401612cb09392919061616a565b602060405180830381865af4158015612ccd573d6000803e3d6000fd5b505050506040513d601f19601f82011682018060405250810190612cf191906161bd565b612d30576040517f08c379a0000000000000000000000000000000000000000000000000000000008152600401612d2790617166565b60405180910390fd5b4283610180015163ffffffff1610612d7d576040517f08c379a0000000000000000000000000000000000000000000000000000000008152600401612d74906171d2565b60405180910390fd5b60026073600083815260200190815260200160002060009054906101000a900460ff1660ff1603612de3576040517f08c379a0000000000000000000000000000000000000000000000000000000008152600401612dda9061723e565b60405180910390fd5b60008360a00151846101400151612dfa91906166e4565b9050803414612e3e576040517f08c379a0000000000000000000000000000000000000000000000000000000008152600401612e35906172d0565b60405180910390fd5b80471015612e81576040517f08c379a0000000000000000000000000000000000000000000000000000000008152600401612e789061733c565b60405180910390fd5b8060676000866020015173ffffffffffffffffffffffffffffffffffffffff1673ffffffffffffffffffffffffffffffffffffffff168152602001908152602001600020541015612f07576040517f08c379a0000000000000000000000000000000000000000000000000000000008152600401612efe906173ce565b60405180910390fd5b60026073600084815260200190815260200160002060006101000a81548160ff021916908360ff160217905550612f428460200151826143c3565b6000606560009054906101000a900473ffffffffffffffffffffffffffffffffffffffff1673ffffffffffffffffffffffffffffffffffffffff168286610120015163ffffffff1690604051612f9790615cee565b600060405180830381858888f193505050503d8060008114612fd5576040519150601f19603f3d011682016040523d82523d6000602084013e612fda565b606091505b505090508061301e576040517f08c379a000000000000000000000000000000000000000000000000000000000815260040161301590617460565b60405180910390fd5b7fed3e6789842b3369f529c844ab6575be53f29ffeabd4d8b84c04c8431535b1ec3383856073600088815260200190815260200160002060009054906101000a900460ff1660405161307394939291906174b1565b60405180910390a15050506000607160006101000a81548160ff0219169083151502179055505050565b6130a5613cf9565b600073ffffffffffffffffffffffffffffffffffffffff168173ffffffffffffffffffffffffffffffffffffffff1603613114576040517f08c379a000000000000000000000000000000000000000000000000000000000815260040161310b90617568565b60405180910390fd5b61311d81613d77565b50565b600061312b82614083565b9050919050565b6000606660008373ffffffffffffffffffffffffffffffffffffffff1673ffffffffffffffffffffffffffffffffffffffff168152602001908152602001600020549050919050565b6000606d54905090565b6000606560009054906101000a900473ffffffffffffffffffffffffffffffffffffffff16905090565b60003373ffffffffffffffffffffffffffffffffffffffff163273ffffffffffffffffffffffffffffffffffffffff161461321f576040517f08c379a0000000000000000000000000000000000000000000000000000000008152600401613216906175d4565b60405180910390fd5b61322e89898989898989614456565b606c54341015613273576040517f08c379a000000000000000000000000000000000000000000000000000000000815260040161326a90617640565b60405180910390fd5b6000606b60003373ffffffffffffffffffffffffffffffffffffffff1673ffffffffffffffffffffffffffffffffffffffff16815260200190815260200160002054146132f5576040517f08c379a00000000000000000000000000000000000000000000000000000000081526004016132ec906176ac565b60405180910390fd5b34606860003373ffffffffffffffffffffffffffffffffffffffff1673ffffffffffffffffffffffffffffffffffffffff168152602001908152602001600020819055506070600081548092919061334c90615f6b565b919050555060405180610140016040528060705481526020013373ffffffffffffffffffffffffffffffffffffffff1681526020018a81526020018981526020018881526020018781526020018681526020018581526020018481526020018315158152506069600060705481526020019081526020016000206000820151816000015560208201518160010160006101000a81548173ffffffffffffffffffffffffffffffffffffffff021916908373ffffffffffffffffffffffffffffffffffffffff160217905550604082015181600201908161342c919061786e565b50606082015181600301556080820151816004015560a0820151816005015560c0820151816006015560e08201518160070155610100820151816008019081613475919061786e565b506101208201518160090160006101000a81548160ff0219169083151502179055509050507fa9d44d6e13bb3fee938c3f66d1103e91f8dc6b12d4405a55eea558e8f275aa6e60705433346040516134cf93929190617940565b60405180910390a1607054905098975050505050505050565b6000816020015173ffffffffffffffffffffffffffffffffffffffff163073ffffffffffffffffffffffffffffffffffffffff161461355c576040517f08c379a0000000000000000000000000000000000000000000000000000000008152600401613553906179c3565b60405180910390fd5b81610100015173ffffffffffffffffffffffffffffffffffffffff16606560009054906101000a900473ffffffffffffffffffffffffffffffffffffffff1673ffffffffffffffffffffffffffffffffffffffff16036135f1576040517f08c379a00000000000000000000000000000000000000000000000000000000081526004016135e890617a55565b60405180910390fd5b601582606001515114613639576040517f08c379a000000000000000000000000000000000000000000000000000000000815260040161363090617ae7565b60405180910390fd5b60158260a001515114613681576040517f08c379a000000000000000000000000000000000000000000000000000000000815260040161367890617b79565b60405180910390fd5b606d548260c0015183610180015161369991906166e4565b10156136da576040517f08c379a00000000000000000000000000000000000000000000000000000000081526004016136d190617be5565b60405180910390fd5b6136e382614635565b805190602001209050919050565b600080606860008473ffffffffffffffffffffffffffffffffffffffff1673ffffffffffffffffffffffffffffffffffffffff1681526020019081526020016000205411801561378057506000606b60008473ffffffffffffffffffffffffffffffffffffffff1673ffffffffffffffffffffffffffffffffffffffff16815260200190815260200160002054145b9050919050565b80606760008473ffffffffffffffffffffffffffffffffffffffff1673ffffffffffffffffffffffffffffffffffffffff16815260200190815260200160002060008282546137d691906166e4565b925050819055507f7eb93adae7d5cfb024d663c84ccba97b3104e572bbe138ca323c854f666ae531828260405161380e929190615d6f565b60405180910390a15050565b6000606560009054906101000a900473ffffffffffffffffffffffffffffffffffffffff1673ffffffffffffffffffffffffffffffffffffffff16636adc0133868587868b60600151308d60a001516000606a60008d815260200190815260200160002060000160009054906101000a900463ffffffff1663ffffffff16116040518963ffffffff1660e01b81526004016138bc989796959493929190617c14565b6020604051808303816000875af11580156138db573d6000803e3d6000fd5b505050506040513d601f19601f820116820180604052508101906138ff919061705b565b905095945050505050565b6000808413801561392e57508460c0015185610180015161392b91906166e4565b84105b1561393c5760009050613bc6565b6000606560009054906101000a900473ffffffffffffffffffffffffffffffffffffffff1673ffffffffffffffffffffffffffffffffffffffff1663bd0c1fff846040518263ffffffff1660e01b8152600401613999919061493c565b600060405180830381865afa1580156139b6573d6000803e3d6000fd5b505050506040513d6000823e3d601f19601f820116820180604052508101906139df9190617d1e565b90506000815111613a25576040517f08c379a0000000000000000000000000000000000000000000000000000000008152600401613a1c90617db3565b60405180910390fd5b6000613a308261223f565b90506000876101c00151886101a00151613a4a9190616c65565b63ffffffff16905080821115613a665760009350505050613bc6565b60008603613a7a5760019350505050613bc6565b6000606560009054906101000a900473ffffffffffffffffffffffffffffffffffffffff1673ffffffffffffffffffffffffffffffffffffffff1663bd0c1fff60018b610200015161ffff1689613ad191906166e4565b613adb9190615c89565b6040518263ffffffff1660e01b8152600401613af7919061493c565b600060405180830381865afa158015613b14573d6000803e3d6000fd5b505050506040513d6000823e3d601f19601f82011682018060405250810190613b3d9190617d1e565b90506000815111613b83576040517f08c379a0000000000000000000000000000000000000000000000000000000008152600401613b7a90617db3565b60405180910390fd5b6000613b8e8261223f565b9050896101e0015163ffffffff1681613ba791906166e4565b881115613bbc57600195505050505050613bc6565b6000955050505050505b949350505050565b6000818310613bdd5781613bdf565b825b905092915050565b80606660008473ffffffffffffffffffffffffffffffffffffffff1673ffffffffffffffffffffffffffffffffffffffff1681526020019081526020016000206000828254613c3691906166e4565b925050819055507f42cfb81a915ac5a674852db250bf722637bee705a267633b68cab3a2dde06f538282604051613c6e929190615d6f565b60405180910390a15050565b60008260c00151836101800151613c9191906166e4565b9050600061271082613ca3919061668a565b90508082613cb19190615c89565b831015613cf3576040517f08c379a0000000000000000000000000000000000000000000000000000000008152600401613cea90617e1f565b60405180910390fd5b50505050565b613d01614670565b73ffffffffffffffffffffffffffffffffffffffff16613d1f611ecd565b73ffffffffffffffffffffffffffffffffffffffff1614613d75576040517f08c379a0000000000000000000000000000000000000000000000000000000008152600401613d6c90617e8b565b60405180910390fd5b565b6000603360009054906101000a900473ffffffffffffffffffffffffffffffffffffffff16905081603360006101000a81548173ffffffffffffffffffffffffffffffffffffffff021916908373ffffffffffffffffffffffffffffffffffffffff1602179055508173ffffffffffffffffffffffffffffffffffffffff168173ffffffffffffffffffffffffffffffffffffffff167f8be0079c531659141344cd1fd0a4f28419497f9722a3daafe3b4186f6b6457e060405160405180910390a35050565b6000808273ffffffffffffffffffffffffffffffffffffffff163b119050919050565b600060019054906101000a900460ff16613eaf576040517f08c379a0000000000000000000000000000000000000000000000000000000008152600401613ea690617f1d565b60405180910390fd5b613ebf613eba614670565b613d77565b565b6000600482613ed091906166e4565b83511015613f13576040517f08c379a0000000000000000000000000000000000000000000000000000000008152600401613f0a90617f89565b60405180910390fd5b601883600384613f2391906166e4565b81518110613f3457613f33615edc565b5b602001015160f81c60f81b60f81c60ff1663ffffffff16901b601084600285613f5d91906166e4565b81518110613f6e57613f6d615edc565b5b602001015160f81c60f81b60f81c60ff1663ffffffff16901b600885600186613f9791906166e4565b81518110613fa857613fa7615edc565b5b602001015160f81c60f81b60f81c60ff1663ffffffff16901b858581518110613fd457613fd3615edc565b5b602001015160f81c60f81b60f81c60ff16171717905092915050565b80606660008473ffffffffffffffffffffffffffffffffffffffff1673ffffffffffffffffffffffffffffffffffffffff168152602001908152602001600020600082825461403f9190615c89565b925050819055507f8e51a4493a6f66c76e13fd9e3b754eafbfe21343c04508deb61be8ccc00645878282604051614077929190615d6f565b60405180910390a15050565b6000816000015173ffffffffffffffffffffffffffffffffffffffff163073ffffffffffffffffffffffffffffffffffffffff16146140f7576040517f08c379a00000000000000000000000000000000000000000000000000000000081526004016140ee906179c3565b60405180910390fd5b61410082614678565b805190602001209050919050565b60008084118015614123575084610140015184105b1561413157600090506143bb565b6000606560009054906101000a900473ffffffffffffffffffffffffffffffffffffffff1673ffffffffffffffffffffffffffffffffffffffff1663bd0c1fff846040518263ffffffff1660e01b815260040161418e919061493c565b600060405180830381865afa1580156141ab573d6000803e3d6000fd5b505050506040513d6000823e3d601f19601f820116820180604052508101906141d49190617d1e565b9050600081511161421a576040517f08c379a000000000000000000000000000000000000000000000000000000000815260040161421190617ff5565b60405180910390fd5b60006142258261223f565b9050600087610180015188610160015161423f9190616c65565b63ffffffff1690508082111561425b57600093505050506143bb565b6000860361426f57600193505050506143bb565b6000606560009054906101000a900473ffffffffffffffffffffffffffffffffffffffff1673ffffffffffffffffffffffffffffffffffffffff1663bd0c1fff60018b6101a0015161ffff16896142c691906166e4565b6142d09190615c89565b6040518263ffffffff1660e01b81526004016142ec919061493c565b600060405180830381865afa158015614309573d6000803e3d6000fd5b505050506040513d6000823e3d601f19601f820116820180604052508101906143329190617d1e565b90506000815111614378576040517f08c379a000000000000000000000000000000000000000000000000000000000815260040161436f90618061565b60405180910390fd5b60006143838261223f565b9050896101e0015163ffffffff168161439c91906166e4565b8811156143b1576001955050505050506143bb565b6000955050505050505b949350505050565b80606760008473ffffffffffffffffffffffffffffffffffffffff1673ffffffffffffffffffffffffffffffffffffffff16815260200190815260200160002060008282546144129190615c89565b925050819055507f7862918831efd3b8f1079c5d7e9344c4a47c2940a11a6b449a03224c4fa38334828260405161444a929190615d6f565b60405180910390a15050565b600087511161449a576040517f08c379a0000000000000000000000000000000000000000000000000000000008152600401614491906180cd565b60405180910390fd5b600086116144dd576040517f08c379a00000000000000000000000000000000000000000000000000000000081526004016144d490618139565b60405180910390fd5b60008511614520576040517f08c379a0000000000000000000000000000000000000000000000000000000008152600401614517906181cb565b60405180910390fd5b60008411614563576040517f08c379a000000000000000000000000000000000000000000000000000000000815260040161455a9061825d565b60405180910390fd5b600083116145a6576040517f08c379a000000000000000000000000000000000000000000000000000000000815260040161459d906182ef565b60405180910390fd5b8282116145e8576040517f08c379a00000000000000000000000000000000000000000000000000000000081526004016145df90618381565b60405180910390fd5b600081511161462c576040517f08c379a0000000000000000000000000000000000000000000000000000000008152600401614623906183ed565b60405180910390fd5b50505050505050565b6060614640826146b3565b61464983614711565b60405160200161465a92919061840d565b6040516020818303038152906040529050919050565b600033905090565b606061468382614777565b61468c836147d5565b60405160200161469d92919061840d565b6040516020818303038152906040529050919050565b6060816000015182602001518360400151846060015185608001518660a001518760c001518860e001518961010001516040516020016146fb99989796959493929190618453565b6040516020818303038152906040529050919050565b6060816101200151826101400151836101600151846101800151856101a00151866101c00151876101e001518861020001518961022001516040516020016147619998979695949392919061851b565b6040516020818303038152906040529050919050565b6060816000015182602001518360400151846060015185608001518660a001518760c001518860e001518961010001516040516020016147bf999897969594939291906185af565b6040516020818303038152906040529050919050565b6060816101200151826101400151836101600151846101800151856101a00151866101c00151876101e0015188610200015189610220015160405160200161482599989796959493929190618651565b6040516020818303038152906040529050919050565b60405180610140016040528060008152602001600073ffffffffffffffffffffffffffffffffffffffff168152602001606081526020016000815260200160008152602001600081526020016000815260200160008152602001606081526020016000151581525090565b600082825260208201905092915050565b7f4e6f7420616c6c6f776564000000000000000000000000000000000000000000600082015250565b60006148ed600b836148a6565b91506148f8826148b7565b602082019050919050565b6000602082019050818103600083015261491c816148e0565b9050919050565b6000819050919050565b61493681614923565b82525050565b6000602082019050614951600083018461492d565b92915050565b6000604051905090565b600080fd5b600080fd5b600080fd5b6000601f19601f8301169050919050565b7f4e487b7100000000000000000000000000000000000000000000000000000000600052604160045260246000fd5b6149b982614970565b810181811067ffffffffffffffff821117156149d8576149d7614981565b5b80604052505050565b60006149eb614957565b90506149f782826149b0565b919050565b600080fd5b60007fffffffffffffffffffffffffffffffffffffffff00000000000000000000000082169050919050565b614a3681614a01565b8114614a4157600080fd5b50565b600081359050614a5381614a2d565b92915050565b600073ffffffffffffffffffffffffffffffffffffffff82169050919050565b6000614a8482614a59565b9050919050565b614a9481614a79565b8114614a9f57600080fd5b50565b600081359050614ab181614a8b565b92915050565b600080fd5b600080fd5b600067ffffffffffffffff821115614adc57614adb614981565b5b614ae582614970565b9050602081019050919050565b82818337600083830152505050565b6000614b14614b0f84614ac1565b6149e1565b905082815260208101848484011115614b3057614b2f614abc565b5b614b3b848285614af2565b509392505050565b600082601f830112614b5857614b57614ab7565b5b8135614b68848260208601614b01565b91505092915050565b6000614b7c82614a59565b9050919050565b614b8c81614b71565b8114614b9757600080fd5b50565b600081359050614ba981614b83565b92915050565b614bb881614923565b8114614bc357600080fd5b50565b600081359050614bd581614baf565b92915050565b600063ffffffff82169050919050565b614bf481614bdb565b8114614bff57600080fd5b50565b600081359050614c1181614beb565b92915050565b60008160070b9050919050565b614c2d81614c17565b8114614c3857600080fd5b50565b600081359050614c4a81614c24565b92915050565b600061ffff82169050919050565b614c6781614c50565b8114614c7257600080fd5b50565b600081359050614c8481614c5e565b92915050565b60008115159050919050565b614c9f81614c8a565b8114614caa57600080fd5b50565b600081359050614cbc81614c96565b92915050565b60006102408284031215614cd957614cd861496b565b5b614ce46102406149e1565b90506000614cf484828501614a44565b6000830152506020614d0884828501614aa2565b6020830152506040614d1c84828501614aa2565b604083015250606082013567ffffffffffffffff811115614d4057614d3f6149fc565b5b614d4c84828501614b43565b6060830152506080614d6084828501614b9a565b60808301525060a082013567ffffffffffffffff811115614d8457614d836149fc565b5b614d9084828501614b43565b60a08301525060c0614da484828501614bc6565b60c08301525060e0614db884828501614bc6565b60e083015250610100614dcd84828501614aa2565b6101008301525061012082013567ffffffffffffffff811115614df357614df26149fc565b5b614dff84828501614b43565b61012083015250610140614e1584828501614c02565b61014083015250610160614e2b84828501614c3b565b61016083015250610180614e4184828501614bc6565b610180830152506101a0614e5784828501614c02565b6101a0830152506101c0614e6d84828501614c02565b6101c0830152506101e0614e8384828501614c02565b6101e083015250610200614e9984828501614c75565b61020083015250610220614eaf84828501614cad565b6102208301525092915050565b600060208284031215614ed257614ed1614961565b5b600082013567ffffffffffffffff811115614ef057614eef614966565b5b614efc84828501614cc2565b91505092915050565b6000819050919050565b614f1881614f05565b82525050565b6000602082019050614f336000830184614f0f565b92915050565b600060208284031215614f4f57614f4e614961565b5b6000614f5d84828501614bc6565b91505092915050565b600060208284031215614f7c57614f7b614961565b5b6000614f8a84828501614aa2565b91505092915050565b614f9c81614c8a565b82525050565b6000602082019050614fb76000830184614f93565b92915050565b600067ffffffffffffffff821115614fd857614fd7614981565b5b602082029050602081019050919050565b600080fd5b6000615001614ffc84614fbd565b6149e1565b9050808382526020820190506020840283018581111561502457615023614fe9565b5b835b8181101561504d57806150398882614bc6565b845260208401935050602081019050615026565b5050509392505050565b600082601f83011261506c5761506b614ab7565b5b813561507c848260208601614fee565b91505092915050565b60006020828403121561509b5761509a614961565b5b600082013567ffffffffffffffff8111156150b9576150b8614966565b5b6150c584828501615057565b91505092915050565b600081519050919050565b600082825260208201905092915050565b6000819050602082019050919050565b61510381614923565b82525050565b61511281614a79565b82525050565b600081519050919050565b600082825260208201905092915050565b60005b83811015615152578082015181840152602081019050615137565b60008484015250505050565b600061516982615118565b6151738185615123565b9350615183818560208601615134565b61518c81614970565b840191505092915050565b6151a081614c8a565b82525050565b6000610140830160008301516151bf60008601826150fa565b5060208301516151d26020860182615109565b50604083015184820360408601526151ea828261515e565b91505060608301516151ff60608601826150fa565b50608083015161521260808601826150fa565b5060a083015161522560a08601826150fa565b5060c083015161523860c08601826150fa565b5060e083015161524b60e08601826150fa565b50610100830151848203610100860152615265828261515e565b91505061012083015161527c610120860182615197565b508091505092915050565b600061529383836151a6565b905092915050565b6000602082019050919050565b60006152b3826150ce565b6152bd81856150d9565b9350836020820285016152cf856150ea565b8060005b8581101561530b57848403895281516152ec8582615287565b94506152f78361529b565b925060208a019950506001810190506152d3565b50829750879550505050505092915050565b6000602082019050818103600083015261533781846152a8565b905092915050565b600080600080600060a0868803121561535b5761535a614961565b5b600086013567ffffffffffffffff81111561537957615378614966565b5b61538588828901614cc2565b955050602086013567ffffffffffffffff8111156153a6576153a5614966565b5b6153b288828901614b43565b945050604086013567ffffffffffffffff8111156153d3576153d2614966565b5b6153df88828901614b43565b935050606086013567ffffffffffffffff811115615400576153ff614966565b5b61540c88828901614b43565b925050608061541d88828901614bc6565b9150509295509295909350565b6000819050919050565b61543d8161542a565b82525050565b60006020820190506154586000830184615434565b92915050565b6000806040838503121561547557615474614961565b5b600061548385828601614bc6565b925050602061549485828601614cad565b9150509250929050565b6154a781614f05565b81146154b257600080fd5b50565b6000813590506154c48161549e565b92915050565b6000602082840312156154e0576154df614961565b5b60006154ee848285016154b5565b91505092915050565b600060ff82169050919050565b61550d816154f7565b82525050565b60006020820190506155286000830184615504565b92915050565b61553781614a79565b82525050565b6000602082019050615552600083018461552e565b92915050565b60008060008060008060c0878903121561557557615574614961565b5b600061558389828a01614b9a565b965050602061559489828a01614bc6565b95505060406155a589828a01614bc6565b94505060606155b689828a01614c02565b93505060806155c789828a01614c02565b92505060a06155d889828a01614bc6565b9150509295509295509295565b6000602082840312156155fb576155fa614961565b5b600082013567ffffffffffffffff81111561561957615618614966565b5b61562584828501614b43565b91505092915050565b600061024082840312156156455761564461496b565b5b6156506102406149e1565b9050600061566084828501614aa2565b600083015250602061567484828501614aa2565b602083015250604082013567ffffffffffffffff811115615698576156976149fc565b5b6156a484828501614b43565b60408301525060606156b884828501614aa2565b606083015250608082013567ffffffffffffffff8111156156dc576156db6149fc565b5b6156e884828501614b43565b60808301525060a06156fc84828501614bc6565b60a08301525060c061571084828501614bc6565b60c08301525060e061572484828501614c3b565b60e08301525061010082013567ffffffffffffffff811115615749576157486149fc565b5b61575584828501614b43565b6101008301525061012061576b84828501614c02565b6101208301525061014061578184828501614bc6565b6101408301525061016061579784828501614c02565b610160830152506101806157ad84828501614c02565b610180830152506101a06157c384828501614c75565b6101a0830152506101c06157d984828501614c75565b6101c0830152506101e06157ef84828501614c02565b6101e08301525061020061580584828501614c02565b6102008301525061022061581b84828501614c02565b6102208301525092915050565b600067ffffffffffffffff82111561584357615842614981565b5b602082029050602081019050919050565b600061586761586284615828565b6149e1565b9050808382526020820190506020840283018581111561588a57615889614fe9565b5b835b818110156158b3578061589f88826154b5565b84526020840193505060208101905061588c565b5050509392505050565b600082601f8301126158d2576158d1614ab7565b5b81356158e2848260208601615854565b91505092915050565b600080600080600060a0868803121561590757615906614961565b5b600086013567ffffffffffffffff81111561592557615924614966565b5b6159318882890161562e565b9550506020615942888289016154b5565b9450506040615953888289016154b5565b935050606061596488828901614bc6565b925050608086013567ffffffffffffffff81111561598557615984614966565b5b615991888289016158bd565b9150509295509295909350565b600080604083850312156159b5576159b4614961565b5b600083013567ffffffffffffffff8111156159d3576159d2614966565b5b6159df8582860161562e565b925050602083013567ffffffffffffffff811115615a00576159ff614966565b5b615a0c85828601614b43565b9150509250929050565b600060208284031215615a2c57615a2b614961565b5b600082013567ffffffffffffffff811115615a4a57615a49614966565b5b615a568482850161562e565b91505092915050565b600067ffffffffffffffff821115615a7a57615a79614981565b5b615a8382614970565b9050602081019050919050565b6000615aa3615a9e84615a5f565b6149e1565b905082815260208101848484011115615abf57615abe614abc565b5b615aca848285614af2565b509392505050565b600082601f830112615ae757615ae6614ab7565b5b8135615af7848260208601615a90565b91505092915050565b600080600080600080600080610100898b031215615b2157615b20614961565b5b600089013567ffffffffffffffff811115615b3f57615b3e614966565b5b615b4b8b828c01615ad2565b9850506020615b5c8b828c01614bc6565b9750506040615b6d8b828c01614bc6565b9650506060615b7e8b828c01614bc6565b9550506080615b8f8b828c01614bc6565b94505060a0615ba08b828c01614bc6565b93505060c089013567ffffffffffffffff811115615bc157615bc0614966565b5b615bcd8b828c01615ad2565b92505060e0615bde8b828c01614cad565b9150509295985092959890939650565b7f496e73756666696369656e742066756e64730000000000000000000000000000600082015250565b6000615c246012836148a6565b9150615c2f82615bee565b602082019050919050565b60006020820190508181036000830152615c5381615c17565b9050919050565b7f4e487b7100000000000000000000000000000000000000000000000000000000600052601160045260246000fd5b6000615c9482614923565b9150615c9f83614923565b9250828203905081811115615cb757615cb6615c5a565b5b92915050565b600081905092915050565b50565b6000615cd8600083615cbd565b9150615ce382615cc8565b600082019050919050565b6000615cf982615ccb565b9150819050919050565b7f53656e64696e672066756e6473206661696c6564000000000000000000000000600082015250565b6000615d396014836148a6565b9150615d4482615d03565b602082019050919050565b60006020820190508181036000830152615d6881615d2c565b9050919050565b6000604082019050615d84600083018561552e565b615d91602083018461492d565b9392505050565b7f4e6f742072656769737465726564000000000000000000000000000000000000600082015250565b6000615dce600e836148a6565b9150615dd982615d98565b602082019050919050565b60006020820190508181036000830152615dfd81615dc1565b9050919050565b7f4e65656420746f2072657369676e206669727374000000000000000000000000600082015250565b6000615e3a6014836148a6565b9150615e4582615e04565b602082019050919050565b60006020820190508181036000830152615e6981615e2d565b9050919050565b7f4e6f7420656e6f75676820626c6f636b73000000000000000000000000000000600082015250565b6000615ea66011836148a6565b9150615eb182615e70565b602082019050919050565b60006020820190508181036000830152615ed581615e99565b9050919050565b7f4e487b7100000000000000000000000000000000000000000000000000000000600052603260045260246000fd5b7f4e487b7100000000000000000000000000000000000000000000000000000000600052602260045260246000fd5b60006002820490506001821680615f5257607f821691505b602082108103615f6557615f64615f0b565b5b50919050565b6000615f7682614923565b91507fffffffffffffffffffffffffffffffffffffffffffffffffffffffffffffffff8203615fa857615fa7615c5a565b5b600182019050919050565b7f416c72656164792072657369676e656400000000000000000000000000000000600082015250565b6000615fe96010836148a6565b9150615ff482615fb3565b602082019050919050565b6000602082019050818103600083015261601881615fdc565b9050919050565b7f5265656e7472616e742063616c6c000000000000000000000000000000000000600082015250565b6000616055600e836148a6565b91506160608261601f565b602082019050919050565b6000602082019050818103600083015261608481616048565b9050919050565b7f51756f746520616c726561647920726567697374657265640000000000000000600082015250565b60006160c16018836148a6565b91506160cc8261608b565b602082019050919050565b600060208201905081810360008301526160f0816160b4565b9050919050565b61610081614a79565b82525050565b61610f81614f05565b82525050565b600081519050919050565b600082825260208201905092915050565b600061613c82616115565b6161468185616120565b9350616156818560208601615134565b61615f81614970565b840191505092915050565b600060608201905061617f60008301866160f7565b61618c6020830185616106565b818103604083015261619e8184616131565b9050949350505050565b6000815190506161b781614c96565b92915050565b6000602082840312156161d3576161d2614961565b5b60006161e1848285016161a8565b91505092915050565b7f496e76616c6964207369676e6174757265000000000000000000000000000000600082015250565b60006162206011836148a6565b915061622b826161ea565b602082019050919050565b6000602082019050818103600083015261624f81616213565b9050919050565b7f486569676874206d757374206265206c6f776572207468616e20325e33310000600082015250565b600061628c601e836148a6565b915061629782616256565b602082019050919050565b600060208201905081810360008301526162bb8161627f565b9050919050565b7f4572726f72202d3330333a204661696c656420746f2076616c6964617465204260008201527f5443207472616e73616374696f6e000000000000000000000000000000000000602082015250565b600061631e602e836148a6565b9150616329826162c2565b604082019050919050565b6000602082019050818103600083015261634d81616311565b9050919050565b7f4572726f72202d3330323a205472616e73616374696f6e20616c72656164792060008201527f70726f6365737365640000000000000000000000000000000000000000000000602082015250565b60006163b06029836148a6565b91506163bb82616354565b604082019050919050565b600060208201905081810360008301526163df816163a3565b9050919050565b7f4572726f72202d3330343a205472616e73616374696f6e2076616c756520697360008201527f207a65726f000000000000000000000000000000000000000000000000000000602082015250565b60006164426025836148a6565b915061644d826163e6565b604082019050919050565b6000602082019050818103600083015261647181616435565b9050919050565b7f4572726f72202d3330353a205472616e73616374696f6e205554584f2076616c60008201527f75652069732062656c6f7720746865206d696e696d756d000000000000000000602082015250565b60006164d46037836148a6565b91506164df82616478565b604082019050919050565b60006020820190508181036000830152616503816164c7565b9050919050565b7f4572726f72202d3930303a20427269646765206572726f720000000000000000600082015250565b60006165406018836148a6565b915061654b8261650a565b602082019050919050565b6000602082019050818103600083015261656f81616533565b9050919050565b7f556e6b6e6f776e20427269646765206572726f72000000000000000000000000600082015250565b60006165ac6014836148a6565b91506165b782616576565b602082019050919050565b600060208201905081810360008301526165db8161659f565b9050919050565b60006060820190506165f7600083018661552e565b616604602083018561492d565b6166116040830184614f0f565b949350505050565b600061662482614923565b915061662f83614923565b925082820261663d81614923565b9150828204841483151761665457616653615c5a565b5b5092915050565b7f4e487b7100000000000000000000000000000000000000000000000000000000600052601260045260246000fd5b600061669582614923565b91506166a083614923565b9250826166b0576166af61665b565b5b828204905092915050565b60006040820190506166d06000830185614f0f565b6166dd6020830184615434565b9392505050565b60006166ef82614923565b91506166fa83614923565b925082820190508082111561671257616711615c5a565b5b92915050565b6000819050919050565b600061673d61673861673384614a59565b616718565b614a59565b9050919050565b600061674f82616722565b9050919050565b600061676182616744565b9050919050565b61677181616756565b82525050565b600060808201905061678c6000830187616768565b616799602083018661492d565b6167a66040830185614f93565b6167b36060830184614f0f565b95945050505050565b60006167c782616115565b6167d18185615cbd565b93506167e1818560208601615134565b80840191505092915050565b60006167f982846167bc565b915081905092915050565b600061681f61681a61681584614bdb565b616718565b614923565b9050919050565b61682f81616804565b82525050565b600082825260208201905092915050565b600061685182616115565b61685b8185616835565b935061686b818560208601615134565b61687481614970565b840191505092915050565b600060e082019050616894600083018a61552e565b6168a1602083018961552e565b6168ae6040830188616826565b6168bb606083018761492d565b81810360808301526168cd8186616846565b90506168dc60a0830185614f93565b6168e960c0830184614f0f565b98975050505050505050565b7f4e6f74206f776e6572206f722070726f76696465720000000000000000000000600082015250565b600061692b6015836148a6565b9150616936826168f5565b602082019050919050565b6000602082019050818103600083015261695a8161691e565b9050919050565b7f496e76616c696420537461747573000000000000000000000000000000000000600082015250565b6000616997600e836148a6565b91506169a282616961565b602082019050919050565b600060208201905081810360008301526169c68161698a565b9050919050565b7f496e697469616c697a61626c653a20636f6e747261637420697320616c72656160008201527f647920696e697469616c697a6564000000000000000000000000000000000000602082015250565b6000616a29602e836148a6565b9150616a34826169cd565b604082019050919050565b60006020820190508181036000830152616a5881616a1c565b9050919050565b7f496e76616c6964207265776172642070657263656e7461676500000000000000600082015250565b6000616a956019836148a6565b9150616aa082616a5f565b602082019050919050565b60006020820190508181036000830152616ac481616a88565b9050919050565b6000819050919050565b6000616af0616aeb616ae684616acb565b616718565b6154f7565b9050919050565b616b0081616ad5565b82525050565b6000602082019050616b1b6000830184616af7565b92915050565b7f696e76616c696420686561646572206c656e6774680000000000000000000000600082015250565b6000616b576015836148a6565b9150616b6282616b21565b602082019050919050565b60006020820190508181036000830152616b8681616b4a565b9050919050565b7f556e617574686f72697a65640000000000000000000000000000000000000000600082015250565b6000616bc3600c836148a6565b9150616bce82616b8d565b602082019050919050565b60006020820190508181036000830152616bf281616bb6565b9050919050565b7f51756f746520616c72656164792070726f636573736564000000000000000000600082015250565b6000616c2f6017836148a6565b9150616c3a82616bf9565b602082019050919050565b60006020820190508181036000830152616c5e81616c22565b9050919050565b6000616c7082614bdb565b9150616c7b83614bdb565b9250828201905063ffffffff811115616c9757616c96615c5a565b5b92915050565b7f496e73756666696369656e742067617300000000000000000000000000000000600082015250565b6000616cd36010836148a6565b9150616cde82616c9d565b602082019050919050565b60006020820190508181036000830152616d0281616cc6565b9050919050565b7f426c6f636b2074696d657374616d70206f766572666c6f770000000000000000600082015250565b6000616d3f6018836148a6565b9150616d4a82616d09565b602082019050919050565b60006020820190508181036000830152616d6e81616d32565b9050919050565b7f4c42433a2051756f7465206e6f742070726f6365737365640000000000000000600082015250565b6000616dab6018836148a6565b9150616db682616d75565b602082019050919050565b60006020820190508181036000830152616dda81616d9e565b9050919050565b7f4c42433a2051756f746520657870697265642062792064617465000000000000600082015250565b6000616e17601a836148a6565b9150616e2282616de1565b602082019050919050565b60006020820190508181036000830152616e4681616e0a565b9050919050565b7f4c42433a2051756f7465206578706972656420627920626c6f636b7300000000600082015250565b6000616e83601c836148a6565b9150616e8e82616e4d565b602082019050919050565b60006020820190508181036000830152616eb281616e76565b9050919050565b7f4c42433a2057726f6e672073656e646572000000000000000000000000000000600082015250565b6000616eef6011836148a6565b9150616efa82616eb9565b602082019050919050565b60006020820190508181036000830152616f1e81616ee2565b9050919050565b600081519050919050565b600082825260208201905092915050565b6000819050602082019050919050565b616f5a81614f05565b82525050565b6000616f6c8383616f51565b60208301905092915050565b6000602082019050919050565b6000616f9082616f25565b616f9a8185616f30565b9350616fa583616f41565b8060005b83811015616fd6578151616fbd8882616f60565b9750616fc883616f78565b925050600181019050616fa9565b5085935050505092915050565b6000608082019050616ff86000830187614f0f565b6170056020830186614f0f565b617012604083018561492d565b81810360608301526170248184616f85565b905095945050505050565b6170388161542a565b811461704357600080fd5b50565b6000815190506170558161702f565b92915050565b60006020828403121561707157617070614961565b5b600061707f84828501617046565b91505092915050565b7f4c42433a20446f6e2774206861766520726571756972656420636f6e6669726d60008201527f6174696f6e730000000000000000000000000000000000000000000000000000602082015250565b60006170e46026836148a6565b91506170ef82617088565b604082019050919050565b60006020820190508181036000830152617113816170d7565b9050919050565b7f4c42433a20496e76616c6964207369676e617475726500000000000000000000600082015250565b60006171506016836148a6565b915061715b8261711a565b602082019050919050565b6000602082019050818103600083015261717f81617143565b9050919050565b7f4c42433a20426c6f636b20686569676874206f766572666c6f776e0000000000600082015250565b60006171bc601b836148a6565b91506171c782617186565b602082019050919050565b600060208201905081810360008301526171eb816171af565b9050919050565b7f4c42433a2051756f746520616c726561647920706567676564206f7574000000600082015250565b6000617228601d836148a6565b9150617233826171f2565b602082019050919050565b600060208201905081810360008301526172578161721b565b9050919050565b7f4c42433a206d73672076616c756520646f65736e74206d617463682071756f7460008201527f6500000000000000000000000000000000000000000000000000000000000000602082015250565b60006172ba6021836148a6565b91506172c58261725e565b604082019050919050565b600060208201905081810360008301526172e9816172ad565b9050919050565b7f4c42433a204e6f7420656e6f7567682066756e64730000000000000000000000600082015250565b60006173266015836148a6565b9150617331826172f0565b602082019050919050565b6000602082019050818103600083015261735581617319565b9050919050565b7f4c42433a2050726f766964657220646f65736e2774206861766520656e6f756760008201527f682062616c616e63650000000000000000000000000000000000000000000000602082015250565b60006173b86029836148a6565b91506173c38261735c565b604082019050919050565b600060208201905081810360008301526173e7816173ab565b9050919050565b7f4572726f722073656e64696e6720616d6f756e7420746f20746865206272696460008201527f6765000000000000000000000000000000000000000000000000000000000000602082015250565b600061744a6022836148a6565b9150617455826173ee565b604082019050919050565b600060208201905081810360008301526174798161743d565b9050919050565b600061749b617496617491846154f7565b616718565b614923565b9050919050565b6174ab81617480565b82525050565b60006080820190506174c6600083018761552e565b6174d3602083018661492d565b6174e06040830185614f0f565b6174ed60608301846174a2565b95945050505050565b7f4f776e61626c653a206e6577206f776e657220697320746865207a65726f206160008201527f6464726573730000000000000000000000000000000000000000000000000000602082015250565b60006175526026836148a6565b915061755d826174f6565b604082019050919050565b6000602082019050818103600083015261758181617545565b9050919050565b7f4e6f7420454f4100000000000000000000000000000000000000000000000000600082015250565b60006175be6007836148a6565b91506175c982617588565b602082019050919050565b600060208201905081810360008301526175ed816175b1565b9050919050565b7f4e6f7420656e6f75676820636f6c6c61746572616c0000000000000000000000600082015250565b600061762a6015836148a6565b9150617635826175f4565b602082019050919050565b600060208201905081810360008301526176598161761d565b9050919050565b7f576974686472617720636f6c6c61746572616c20666972737400000000000000600082015250565b60006176966019836148a6565b91506176a182617660565b602082019050919050565b600060208201905081810360008301526176c581617689565b9050919050565b60008190508160005260206000209050919050565b60006020601f8301049050919050565b600082821b905092915050565b60006008830261772e7fffffffffffffffffffffffffffffffffffffffffffffffffffffffffffffffff826176f1565b61773886836176f1565b95508019841693508086168417925050509392505050565b600061776b61776661776184614923565b616718565b614923565b9050919050565b6000819050919050565b61778583617750565b61779961779182617772565b8484546176fe565b825550505050565b600090565b6177ae6177a1565b6177b981848461777c565b505050565b5b818110156177dd576177d26000826177a6565b6001810190506177bf565b5050565b601f821115617822576177f3816176cc565b6177fc846176e1565b8101602085101561780b578190505b61781f617817856176e1565b8301826177be565b50505b505050565b600082821c905092915050565b600061784560001984600802617827565b1980831691505092915050565b600061785e8383617834565b9150826002028217905092915050565b61787782615118565b67ffffffffffffffff8111156178905761788f614981565b5b61789a8254615f3a565b6178a58282856177e1565b600060209050601f8311600181146178d857600084156178c6578287015190505b6178d08582617852565b865550617938565b601f1984166178e6866176cc565b60005b8281101561790e578489015182556001820191506020850194506020810190506178e9565b8683101561792b5784890151617927601f891682617834565b8355505b6001600288020188555050505b505050505050565b6000606082019050617955600083018661492d565b617962602083018561552e565b61796f604083018461492d565b949350505050565b7f57726f6e67204c42432061646472657373000000000000000000000000000000600082015250565b60006179ad6011836148a6565b91506179b882617977565b602082019050919050565b600060208201905081810360008301526179dc816179a0565b9050919050565b7f427269646765206973206e6f7420616e20616363657074656420636f6e74726160008201527f6374206164647265737300000000000000000000000000000000000000000000602082015250565b6000617a3f602a836148a6565b9150617a4a826179e3565b604082019050919050565b60006020820190508181036000830152617a6e81617a32565b9050919050565b7f42544320726566756e642061646472657373206d75737420626520323120627960008201527f746573206c6f6e67000000000000000000000000000000000000000000000000602082015250565b6000617ad16028836148a6565b9150617adc82617a75565b604082019050919050565b60006020820190508181036000830152617b0081617ac4565b9050919050565b7f425443204c502061646472657373206d7573742062652032312062797465732060008201527f6c6f6e6700000000000000000000000000000000000000000000000000000000602082015250565b6000617b636024836148a6565b9150617b6e82617b07565b604082019050919050565b60006020820190508181036000830152617b9281617b56565b9050919050565b7f546f6f206c6f772061677265656420616d6f756e740000000000000000000000600082015250565b6000617bcf6015836148a6565b9150617bda82617b99565b602082019050919050565b60006020820190508181036000830152617bfe81617bc2565b9050919050565b617c0e81614b71565b82525050565b6000610100820190508181036000830152617c2f818b616846565b9050617c3e602083018a61492d565b8181036040830152617c508189616846565b9050617c5f6060830188614f0f565b8181036080830152617c718187616846565b9050617c8060a0830186617c05565b81810360c0830152617c928185616846565b9050617ca160e0830184614f93565b9998505050505050505050565b6000617cc1617cbc84614ac1565b6149e1565b905082815260208101848484011115617cdd57617cdc614abc565b5b617ce8848285615134565b509392505050565b600082601f830112617d0557617d04614ab7565b5b8151617d15848260208601617cae565b91505092915050565b600060208284031215617d3457617d33614961565b5b600082015167ffffffffffffffff811115617d5257617d51614966565b5b617d5e84828501617cf0565b91505092915050565b7f496e76616c696420626c6f636b20686569676874000000000000000000000000600082015250565b6000617d9d6014836148a6565b9150617da882617d67565b602082019050919050565b60006020820190508181036000830152617dcc81617d90565b9050919050565b7f546f6f206c6f77207472616e7366657272656420616d6f756e74000000000000600082015250565b6000617e09601a836148a6565b9150617e1482617dd3565b602082019050919050565b60006020820190508181036000830152617e3881617dfc565b9050919050565b7f4f776e61626c653a2063616c6c6572206973206e6f7420746865206f776e6572600082015250565b6000617e756020836148a6565b9150617e8082617e3f565b602082019050919050565b60006020820190508181036000830152617ea481617e68565b9050919050565b7f496e697469616c697a61626c653a20636f6e7472616374206973206e6f74206960008201527f6e697469616c697a696e67000000000000000000000000000000000000000000602082015250565b6000617f07602b836148a6565b9150617f1282617eab565b604082019050919050565b60006020820190508181036000830152617f3681617efa565b9050919050565b7f736c6963696e67206f7574206f662072616e6765000000000000000000000000600082015250565b6000617f736014836148a6565b9150617f7e82617f3d565b602082019050919050565b60006020820190508181036000830152617fa281617f66565b9050919050565b7f31737420626c6f636b2068656967687420696e76616c69640000000000000000600082015250565b6000617fdf6018836148a6565b9150617fea82617fa9565b602082019050919050565b6000602082019050818103600083015261800e81617fd2565b9050919050565b7f4e20626c6f636b2068656967687420696e76616c696400000000000000000000600082015250565b600061804b6016836148a6565b915061805682618015565b602082019050919050565b6000602082019050818103600083015261807a8161803e565b9050919050565b7f4e616d65206d757374206e6f7420626520656d70747900000000000000000000600082015250565b60006180b76016836148a6565b91506180c282618081565b602082019050919050565b600060208201905081810360008301526180e6816180aa565b9050919050565b7f466565206d7573742062652067726561746572207468616e2030000000000000600082015250565b6000618123601a836148a6565b915061812e826180ed565b602082019050919050565b6000602082019050818103600083015261815281618116565b9050919050565b7f51756f74652065787069726174696f6e206d757374206265206772656174657260008201527f207468616e203000000000000000000000000000000000000000000000000000602082015250565b60006181b56027836148a6565b91506181c082618159565b604082019050919050565b600060208201905081810360008301526181e4816181a8565b9050919050565b7f41636365707465642071756f74652065787069726174696f6e206d757374206260008201527f652067726561746572207468616e203000000000000000000000000000000000602082015250565b60006182476030836148a6565b9150618252826181eb565b604082019050919050565b600060208201905081810360008301526182768161823a565b9050919050565b7f4d696e207472616e73616374696f6e2076616c7565206d75737420626520677260008201527f6561746572207468616e20300000000000000000000000000000000000000000602082015250565b60006182d9602c836148a6565b91506182e48261827d565b604082019050919050565b60006020820190508181036000830152618308816182cc565b9050919050565b7f4d6178207472616e73616374696f6e2076616c7565206d75737420626520677260008201527f6561746572207468616e206d696e207472616e73616374696f6e2076616c7565602082015250565b600061836b6040836148a6565b91506183768261830f565b604082019050919050565b6000602082019050818103600083015261839a8161835e565b9050919050565b7f41504920626173652055524c206d757374206e6f7420626520656d7074790000600082015250565b60006183d7601e836148a6565b91506183e2826183a1565b602082019050919050565b60006020820190508181036000830152618406816183ca565b9050919050565b600060408201905081810360008301526184278185616846565b9050818103602083015261843b8184616846565b90509392505050565b61844d81614a01565b82525050565b600061012082019050618469600083018c618444565b618476602083018b61552e565b618483604083018a61552e565b81810360608301526184958189616846565b90506184a46080830188617c05565b81810360a08301526184b68187616846565b90506184c560c083018661492d565b6184d260e083018561492d565b6184e061010083018461552e565b9a9950505050505050505050565b6184f781614bdb565b82525050565b61850681614c17565b82525050565b61851581614c50565b82525050565b6000610120820190508181036000830152618536818c616846565b9050618545602083018b6184ee565b618552604083018a6184fd565b61855f606083018961492d565b61856c60808301886184ee565b61857960a08301876184ee565b61858660c08301866184ee565b61859360e083018561850c565b6185a1610100830184614f93565b9a9950505050505050505050565b6000610120820190506185c5600083018c61552e565b6185d2602083018b61552e565b81810360408301526185e4818a616846565b90506185f3606083018961552e565b81810360808301526186058188616846565b905061861460a083018761492d565b61862160c083018661492d565b61862e60e08301856184fd565b8181036101008301526186418184616846565b90509a9950505050505050505050565b600061012082019050618667600083018c6184ee565b618674602083018b61492d565b618681604083018a6184ee565b61868e60608301896184ee565b61869b608083018861850c565b6186a860a083018761850c565b6186b560c08301866184ee565b6186c260e08301856184ee565b6186d06101008301846184ee565b9a995050505050505050505056fea264697066735822122095aa0c8f8d2c62c7e22b6f373dc0aacf18957cd7a143c6f155ba96e04042700164736f6c63430008120033",
			"opcodes": "PUSH1 0x80 PUSH1 0x40 MSTORE CALLVALUE DUP1 ISZERO PUSH3 0x11 JUMPI PUSH1 0x0 DUP1 REVERT JUMPDEST POP PUSH2 0x8714 DUP1 PUSH3 0x22 PUSH1 0x0 CODECOPY PUSH1 0x0 RETURN INVALID PUSH1 0x80 PUSH1 0x40 MSTORE PUSH1 0x4 CALLDATASIZE LT PUSH2 0x1E7 JUMPI PUSH1 0x0 CALLDATALOAD PUSH1 0xE0 SHR DUP1 PUSH4 0x9B56D6C9 GT PUSH2 0x102 JUMPI DUP1 PUSH4 0xE830B690 GT PUSH2 0x95 JUMPI DUP1 PUSH4 0xF8B2CB4F GT PUSH2 0x64 JUMPI DUP1 PUSH4 0xF8B2CB4F EQ PUSH2 0x726 JUMPI DUP1 PUSH4 0xFA88DCDE EQ PUSH2 0x763 JUMPI DUP1 PUSH4 0xFB32C508 EQ PUSH2 0x78E JUMPI DUP1 PUSH4 0xFDC505A2 EQ PUSH2 0x7B9 JUMPI PUSH2 0x27E JUMP JUMPDEST DUP1 PUSH4 0xE830B690 EQ PUSH2 0x679 JUMPI DUP1 PUSH4 0xEA85347E EQ PUSH2 0x6A4 JUMPI DUP1 PUSH4 0xF2FDE38B EQ PUSH2 0x6C0 JUMPI DUP1 PUSH4 0xF691CEB2 EQ PUSH2 0x6E9 JUMPI PUSH2 0x27E JUMP JUMPDEST DUP1 PUSH4 0xBD5798C3 GT PUSH2 0xD1 JUMPI DUP1 PUSH4 0xBD5798C3 EQ PUSH2 0x5F0 JUMPI DUP1 PUSH4 0xC7213163 EQ PUSH2 0x61B JUMPI DUP1 PUSH4 0xD0E30DB0 EQ PUSH2 0x646 JUMPI DUP1 PUSH4 0xDE51A249 EQ PUSH2 0x650 JUMPI PUSH2 0x27E JUMP JUMPDEST DUP1 PUSH4 0x9B56D6C9 EQ PUSH2 0x53C JUMPI DUP1 PUSH4 0x9E816999 EQ PUSH2 0x579 JUMPI DUP1 PUSH4 0xA0CD70FC EQ PUSH2 0x583 JUMPI DUP1 PUSH4 0xAC29D744 EQ PUSH2 0x5C0 JUMPI PUSH2 0x27E JUMP JUMPDEST DUP1 PUSH4 0x668DBD83 GT PUSH2 0x17A JUMPI DUP1 PUSH4 0x72CBF4E8 GT PUSH2 0x149 JUMPI DUP1 PUSH4 0x72CBF4E8 EQ PUSH2 0x482 JUMPI DUP1 PUSH4 0x891F6055 EQ PUSH2 0x4AB JUMPI DUP1 PUSH4 0x8DA5CB5B EQ PUSH2 0x4E8 JUMPI DUP1 PUSH4 0x9023550C EQ PUSH2 0x513 JUMPI PUSH2 0x27E JUMP JUMPDEST DUP1 PUSH4 0x668DBD83 EQ PUSH2 0x3DA JUMPI DUP1 PUSH4 0x69652FCF EQ PUSH2 0x417 JUMPI DUP1 PUSH4 0x6E2E8C70 EQ PUSH2 0x42E JUMPI DUP1 PUSH4 0x715018A6 EQ PUSH2 0x46B JUMPI PUSH2 0x27E JUMP JUMPDEST DUP1 PUSH4 0x34A7A864 GT PUSH2 0x1B6 JUMPI DUP1 PUSH4 0x34A7A864 EQ PUSH2 0x33F JUMPI DUP1 PUSH4 0x457385F2 EQ PUSH2 0x349 JUMPI DUP1 PUSH4 0x59C153BE EQ PUSH2 0x386 JUMPI DUP1 PUSH4 0x644BE07D EQ PUSH2 0x39D JUMPI PUSH2 0x27E JUMP JUMPDEST DUP1 PUSH4 0xA9CB4A7 EQ PUSH2 0x283 JUMPI DUP1 PUSH4 0x1B032188 EQ PUSH2 0x2AE JUMPI DUP1 PUSH4 0x2E1A7D4D EQ PUSH2 0x2EB JUMPI DUP1 PUSH4 0x33F07AD3 EQ PUSH2 0x314 JUMPI PUSH2 0x27E JUMP JUMPDEST CALLDATASIZE PUSH2 0x27E JUMPI PUSH1 0x65 PUSH1 0x0 SWAP1 SLOAD SWAP1 PUSH2 0x100 EXP SWAP1 DIV PUSH20 0xFFFFFFFFFFFFFFFFFFFFFFFFFFFFFFFFFFFFFFFF AND PUSH20 0xFFFFFFFFFFFFFFFFFFFFFFFFFFFFFFFFFFFFFFFF AND CALLER PUSH20 0xFFFFFFFFFFFFFFFFFFFFFFFFFFFFFFFFFFFFFFFF AND EQ PUSH2 0x27C JUMPI PUSH1 0x40 MLOAD PUSH32 0x8C379A000000000000000000000000000000000000000000000000000000000 DUP2 MSTORE PUSH1 0x4 ADD PUSH2 0x273 SWAP1 PUSH2 0x4903 JUMP JUMPDEST PUSH1 0x40 MLOAD DUP1 SWAP2 SUB SWAP1 REVERT JUMPDEST STOP JUMPDEST PUSH1 0x0 DUP1 REVERT JUMPDEST CALLVALUE DUP1 ISZERO PUSH2 0x28F JUMPI PUSH1 0x0 DUP1 REVERT JUMPDEST POP PUSH2 0x298 PUSH2 0x7E9 JUMP JUMPDEST PUSH1 0x40 MLOAD PUSH2 0x2A5 SWAP2 SWAP1 PUSH2 0x493C JUMP JUMPDEST PUSH1 0x40 MLOAD DUP1 SWAP2 SUB SWAP1 RETURN JUMPDEST CALLVALUE DUP1 ISZERO PUSH2 0x2BA JUMPI PUSH1 0x0 DUP1 REVERT JUMPDEST POP PUSH2 0x2D5 PUSH1 0x4 DUP1 CALLDATASIZE SUB DUP2 ADD SWAP1 PUSH2 0x2D0 SWAP2 SWAP1 PUSH2 0x4EBC JUMP JUMPDEST PUSH2 0x7F3 JUMP JUMPDEST PUSH1 0x40 MLOAD PUSH2 0x2E2 SWAP2 SWAP1 PUSH2 0x4F1E JUMP JUMPDEST PUSH1 0x40 MLOAD DUP1 SWAP2 SUB SWAP1 RETURN JUMPDEST CALLVALUE DUP1 ISZERO PUSH2 0x2F7 JUMPI PUSH1 0x0 DUP1 REVERT JUMPDEST POP PUSH2 0x312 PUSH1 0x4 DUP1 CALLDATASIZE SUB DUP2 ADD SWAP1 PUSH2 0x30D SWAP2 SWAP1 PUSH2 0x4F39 JUMP JUMPDEST PUSH2 0x805 JUMP JUMPDEST STOP JUMPDEST CALLVALUE DUP1 ISZERO PUSH2 0x320 JUMPI PUSH1 0x0 DUP1 REVERT JUMPDEST POP PUSH2 0x329 PUSH2 0x9C6 JUMP JUMPDEST PUSH1 0x40 MLOAD PUSH2 0x336 SWAP2 SWAP1 PUSH2 0x493C JUMP JUMPDEST PUSH1 0x40 MLOAD DUP1 SWAP2 SUB SWAP1 RETURN JUMPDEST PUSH2 0x347 PUSH2 0x9D0 JUMP JUMPDEST STOP JUMPDEST CALLVALUE DUP1 ISZERO PUSH2 0x355 JUMPI PUSH1 0x0 DUP1 REVERT JUMPDEST POP PUSH2 0x370 PUSH1 0x4 DUP1 CALLDATASIZE SUB DUP2 ADD SWAP1 PUSH2 0x36B SWAP2 SWAP1 PUSH2 0x4F66 JUMP JUMPDEST PUSH2 0xA24 JUMP JUMPDEST PUSH1 0x40 MLOAD PUSH2 0x37D SWAP2 SWAP1 PUSH2 0x4FA2 JUMP JUMPDEST PUSH1 0x40 MLOAD DUP1 SWAP2 SUB SWAP1 RETURN JUMPDEST CALLVALUE DUP1 ISZERO PUSH2 0x392 JUMPI PUSH1 0x0 DUP1 REVERT JUMPDEST POP PUSH2 0x39B PUSH2 0xA83 JUMP JUMPDEST STOP JUMPDEST CALLVALUE DUP1 ISZERO PUSH2 0x3A9 JUMPI PUSH1 0x0 DUP1 REVERT JUMPDEST POP PUSH2 0x3C4 PUSH1 0x4 DUP1 CALLDATASIZE SUB DUP2 ADD SWAP1 PUSH2 0x3BF SWAP2 SWAP1 PUSH2 0x4F66 JUMP JUMPDEST PUSH2 0xD61 JUMP JUMPDEST PUSH1 0x40 MLOAD PUSH2 0x3D1 SWAP2 SWAP1 PUSH2 0x493C JUMP JUMPDEST PUSH1 0x40 MLOAD DUP1 SWAP2 SUB SWAP1 RETURN JUMPDEST CALLVALUE DUP1 ISZERO PUSH2 0x3E6 JUMPI PUSH1 0x0 DUP1 REVERT JUMPDEST POP PUSH2 0x401 PUSH1 0x4 DUP1 CALLDATASIZE SUB DUP2 ADD SWAP1 PUSH2 0x3FC SWAP2 SWAP1 PUSH2 0x5085 JUMP JUMPDEST PUSH2 0xDAA JUMP JUMPDEST PUSH1 0x40 MLOAD PUSH2 0x40E SWAP2 SWAP1 PUSH2 0x531D JUMP JUMPDEST PUSH1 0x40 MLOAD DUP1 SWAP2 SUB SWAP1 RETURN JUMPDEST CALLVALUE DUP1 ISZERO PUSH2 0x423 JUMPI PUSH1 0x0 DUP1 REVERT JUMPDEST POP PUSH2 0x42C PUSH2 0x10B1 JUMP JUMPDEST STOP JUMPDEST CALLVALUE DUP1 ISZERO PUSH2 0x43A JUMPI PUSH1 0x0 DUP1 REVERT JUMPDEST POP PUSH2 0x455 PUSH1 0x4 DUP1 CALLDATASIZE SUB DUP2 ADD SWAP1 PUSH2 0x450 SWAP2 SWAP1 PUSH2 0x533F JUMP JUMPDEST PUSH2 0x11F8 JUMP JUMPDEST PUSH1 0x40 MLOAD PUSH2 0x462 SWAP2 SWAP1 PUSH2 0x5443 JUMP JUMPDEST PUSH1 0x40 MLOAD DUP1 SWAP2 SUB SWAP1 RETURN JUMPDEST CALLVALUE DUP1 ISZERO PUSH2 0x477 JUMPI PUSH1 0x0 DUP1 REVERT JUMPDEST POP PUSH2 0x480 PUSH2 0x1D24 JUMP JUMPDEST STOP JUMPDEST CALLVALUE DUP1 ISZERO PUSH2 0x48E JUMPI PUSH1 0x0 DUP1 REVERT JUMPDEST POP PUSH2 0x4A9 PUSH1 0x4 DUP1 CALLDATASIZE SUB DUP2 ADD SWAP1 PUSH2 0x4A4 SWAP2 SWAP1 PUSH2 0x545E JUMP JUMPDEST PUSH2 0x1D38 JUMP JUMPDEST STOP JUMPDEST CALLVALUE DUP1 ISZERO PUSH2 0x4B7 JUMPI PUSH1 0x0 DUP1 REVERT JUMPDEST POP PUSH2 0x4D2 PUSH1 0x4 DUP1 CALLDATASIZE SUB DUP2 ADD SWAP1 PUSH2 0x4CD SWAP2 SWAP1 PUSH2 0x54CA JUMP JUMPDEST PUSH2 0x1EA3 JUMP JUMPDEST PUSH1 0x40 MLOAD PUSH2 0x4DF SWAP2 SWAP1 PUSH2 0x5513 JUMP JUMPDEST PUSH1 0x40 MLOAD DUP1 SWAP2 SUB SWAP1 RETURN JUMPDEST CALLVALUE DUP1 ISZERO PUSH2 0x4F4 JUMPI PUSH1 0x0 DUP1 REVERT JUMPDEST POP PUSH2 0x4FD PUSH2 0x1ECD JUMP JUMPDEST PUSH1 0x40 MLOAD PUSH2 0x50A SWAP2 SWAP1 PUSH2 0x553D JUMP JUMPDEST PUSH1 0x40 MLOAD DUP1 SWAP2 SUB SWAP1 RETURN JUMPDEST CALLVALUE DUP1 ISZERO PUSH2 0x51F JUMPI PUSH1 0x0 DUP1 REVERT JUMPDEST POP PUSH2 0x53A PUSH1 0x4 DUP1 CALLDATASIZE SUB DUP2 ADD SWAP1 PUSH2 0x535 SWAP2 SWAP1 PUSH2 0x5558 JUMP JUMPDEST PUSH2 0x1EF7 JUMP JUMPDEST STOP JUMPDEST CALLVALUE DUP1 ISZERO PUSH2 0x548 JUMPI PUSH1 0x0 DUP1 REVERT JUMPDEST POP PUSH2 0x563 PUSH1 0x4 DUP1 CALLDATASIZE SUB DUP2 ADD SWAP1 PUSH2 0x55E SWAP2 SWAP1 PUSH2 0x4F66 JUMP JUMPDEST PUSH2 0x211D JUMP JUMPDEST PUSH1 0x40 MLOAD PUSH2 0x570 SWAP2 SWAP1 PUSH2 0x493C JUMP JUMPDEST PUSH1 0x40 MLOAD DUP1 SWAP2 SUB SWAP1 RETURN JUMPDEST PUSH2 0x581 PUSH2 0x2166 JUMP JUMPDEST STOP JUMPDEST CALLVALUE DUP1 ISZERO PUSH2 0x58F JUMPI PUSH1 0x0 DUP1 REVERT JUMPDEST POP PUSH2 0x5AA PUSH1 0x4 DUP1 CALLDATASIZE SUB DUP2 ADD SWAP1 PUSH2 0x5A5 SWAP2 SWAP1 PUSH2 0x55E5 JUMP JUMPDEST PUSH2 0x223F JUMP JUMPDEST PUSH1 0x40 MLOAD PUSH2 0x5B7 SWAP2 SWAP1 PUSH2 0x493C JUMP JUMPDEST PUSH1 0x40 MLOAD DUP1 SWAP2 SUB SWAP1 RETURN JUMPDEST PUSH2 0x5DA PUSH1 0x4 DUP1 CALLDATASIZE SUB DUP2 ADD SWAP1 PUSH2 0x5D5 SWAP2 SWAP1 PUSH2 0x4EBC JUMP JUMPDEST PUSH2 0x229D JUMP JUMPDEST PUSH1 0x40 MLOAD PUSH2 0x5E7 SWAP2 SWAP1 PUSH2 0x4FA2 JUMP JUMPDEST PUSH1 0x40 MLOAD DUP1 SWAP2 SUB SWAP1 RETURN JUMPDEST CALLVALUE DUP1 ISZERO PUSH2 0x5FC JUMPI PUSH1 0x0 DUP1 REVERT JUMPDEST POP PUSH2 0x605 PUSH2 0x2737 JUMP JUMPDEST PUSH1 0x40 MLOAD PUSH2 0x612 SWAP2 SWAP1 PUSH2 0x493C JUMP JUMPDEST PUSH1 0x40 MLOAD DUP1 SWAP2 SUB SWAP1 RETURN JUMPDEST CALLVALUE DUP1 ISZERO PUSH2 0x627 JUMPI PUSH1 0x0 DUP1 REVERT JUMPDEST POP PUSH2 0x630 PUSH2 0x2757 JUMP JUMPDEST PUSH1 0x40 MLOAD PUSH2 0x63D SWAP2 SWAP1 PUSH2 0x493C JUMP JUMPDEST PUSH1 0x40 MLOAD DUP1 SWAP2 SUB SWAP1 RETURN JUMPDEST PUSH2 0x64E PUSH2 0x2777 JUMP JUMPDEST STOP JUMPDEST CALLVALUE DUP1 ISZERO PUSH2 0x65C JUMPI PUSH1 0x0 DUP1 REVERT JUMPDEST POP PUSH2 0x677 PUSH1 0x4 DUP1 CALLDATASIZE SUB DUP2 ADD SWAP1 PUSH2 0x672 SWAP2 SWAP1 PUSH2 0x58EB JUMP JUMPDEST PUSH2 0x27CB JUMP JUMPDEST STOP JUMPDEST CALLVALUE DUP1 ISZERO PUSH2 0x685 JUMPI PUSH1 0x0 DUP1 REVERT JUMPDEST POP PUSH2 0x68E PUSH2 0x2BEF JUMP JUMPDEST PUSH1 0x40 MLOAD PUSH2 0x69B SWAP2 SWAP1 PUSH2 0x493C JUMP JUMPDEST PUSH1 0x40 MLOAD DUP1 SWAP2 SUB SWAP1 RETURN JUMPDEST PUSH2 0x6BE PUSH1 0x4 DUP1 CALLDATASIZE SUB DUP2 ADD SWAP1 PUSH2 0x6B9 SWAP2 SWAP1 PUSH2 0x599E JUMP JUMPDEST PUSH2 0x2BF9 JUMP JUMPDEST STOP JUMPDEST CALLVALUE DUP1 ISZERO PUSH2 0x6CC JUMPI PUSH1 0x0 DUP1 REVERT JUMPDEST POP PUSH2 0x6E7 PUSH1 0x4 DUP1 CALLDATASIZE SUB DUP2 ADD SWAP1 PUSH2 0x6E2 SWAP2 SWAP1 PUSH2 0x4F66 JUMP JUMPDEST PUSH2 0x309D JUMP JUMPDEST STOP JUMPDEST CALLVALUE DUP1 ISZERO PUSH2 0x6F5 JUMPI PUSH1 0x0 DUP1 REVERT JUMPDEST POP PUSH2 0x710 PUSH1 0x4 DUP1 CALLDATASIZE SUB DUP2 ADD SWAP1 PUSH2 0x70B SWAP2 SWAP1 PUSH2 0x5A16 JUMP JUMPDEST PUSH2 0x3120 JUMP JUMPDEST PUSH1 0x40 MLOAD PUSH2 0x71D SWAP2 SWAP1 PUSH2 0x4F1E JUMP JUMPDEST PUSH1 0x40 MLOAD DUP1 SWAP2 SUB SWAP1 RETURN JUMPDEST CALLVALUE DUP1 ISZERO PUSH2 0x732 JUMPI PUSH1 0x0 DUP1 REVERT JUMPDEST POP PUSH2 0x74D PUSH1 0x4 DUP1 CALLDATASIZE SUB DUP2 ADD SWAP1 PUSH2 0x748 SWAP2 SWAP1 PUSH2 0x4F66 JUMP JUMPDEST PUSH2 0x3132 JUMP JUMPDEST PUSH1 0x40 MLOAD PUSH2 0x75A SWAP2 SWAP1 PUSH2 0x493C JUMP JUMPDEST PUSH1 0x40 MLOAD DUP1 SWAP2 SUB SWAP1 RETURN JUMPDEST CALLVALUE DUP1 ISZERO PUSH2 0x76F JUMPI PUSH1 0x0 DUP1 REVERT JUMPDEST POP PUSH2 0x778 PUSH2 0x317B JUMP JUMPDEST PUSH1 0x40 MLOAD PUSH2 0x785 SWAP2 SWAP1 PUSH2 0x493C JUMP JUMPDEST PUSH1 0x40 MLOAD DUP1 SWAP2 SUB SWAP1 RETURN JUMPDEST CALLVALUE DUP1 ISZERO PUSH2 0x79A JUMPI PUSH1 0x0 DUP1 REVERT JUMPDEST POP PUSH2 0x7A3 PUSH2 0x3185 JUMP JUMPDEST PUSH1 0x40 MLOAD PUSH2 0x7B0 SWAP2 SWAP1 PUSH2 0x553D JUMP JUMPDEST PUSH1 0x40 MLOAD DUP1 SWAP2 SUB SWAP1 RETURN JUMPDEST PUSH2 0x7D3 PUSH1 0x4 DUP1 CALLDATASIZE SUB DUP2 ADD SWAP1 PUSH2 0x7CE SWAP2 SWAP1 PUSH2 0x5B00 JUMP JUMPDEST PUSH2 0x31AF JUMP JUMPDEST PUSH1 0x40 MLOAD PUSH2 0x7E0 SWAP2 SWAP1 PUSH2 0x493C JUMP JUMPDEST PUSH1 0x40 MLOAD DUP1 SWAP2 SUB SWAP1 RETURN JUMPDEST PUSH1 0x0 PUSH1 0x70 SLOAD SWAP1 POP SWAP1 JUMP JUMPDEST PUSH1 0x0 PUSH2 0x7FE DUP3 PUSH2 0x34E8 JUMP JUMPDEST SWAP1 POP SWAP2 SWAP1 POP JUMP JUMPDEST DUP1 PUSH1 0x66 PUSH1 0x0 CALLER PUSH20 0xFFFFFFFFFFFFFFFFFFFFFFFFFFFFFFFFFFFFFFFF AND PUSH20 0xFFFFFFFFFFFFFFFFFFFFFFFFFFFFFFFFFFFFFFFF AND DUP2 MSTORE PUSH1 0x20 ADD SWAP1 DUP2 MSTORE PUSH1 0x20 ADD PUSH1 0x0 KECCAK256 SLOAD LT ISZERO PUSH2 0x887 JUMPI PUSH1 0x40 MLOAD PUSH32 0x8C379A000000000000000000000000000000000000000000000000000000000 DUP2 MSTORE PUSH1 0x4 ADD PUSH2 0x87E SWAP1 PUSH2 0x5C3A JUMP JUMPDEST PUSH1 0x40 MLOAD DUP1 SWAP2 SUB SWAP1 REVERT JUMPDEST DUP1 PUSH1 0x66 PUSH1 0x0 CALLER PUSH20 0xFFFFFFFFFFFFFFFFFFFFFFFFFFFFFFFFFFFFFFFF AND PUSH20 0xFFFFFFFFFFFFFFFFFFFFFFFFFFFFFFFFFFFFFFFF AND DUP2 MSTORE PUSH1 0x20 ADD SWAP1 DUP2 MSTORE PUSH1 0x20 ADD PUSH1 0x0 KECCAK256 PUSH1 0x0 DUP3 DUP3 SLOAD PUSH2 0x8D6 SWAP2 SWAP1 PUSH2 0x5C89 JUMP JUMPDEST SWAP3 POP POP DUP2 SWAP1 SSTORE POP PUSH1 0x0 CALLER PUSH20 0xFFFFFFFFFFFFFFFFFFFFFFFFFFFFFFFFFFFFFFFF AND DUP3 PUSH1 0x40 MLOAD PUSH2 0x903 SWAP1 PUSH2 0x5CEE JUMP JUMPDEST PUSH1 0x0 PUSH1 0x40 MLOAD DUP1 DUP4 SUB DUP2 DUP6 DUP8 GAS CALL SWAP3 POP POP POP RETURNDATASIZE DUP1 PUSH1 0x0 DUP2 EQ PUSH2 0x940 JUMPI PUSH1 0x40 MLOAD SWAP2 POP PUSH1 0x1F NOT PUSH1 0x3F RETURNDATASIZE ADD AND DUP3 ADD PUSH1 0x40 MSTORE RETURNDATASIZE DUP3 MSTORE RETURNDATASIZE PUSH1 0x0 PUSH1 0x20 DUP5 ADD RETURNDATACOPY PUSH2 0x945 JUMP JUMPDEST PUSH1 0x60 SWAP2 POP JUMPDEST POP POP SWAP1 POP DUP1 PUSH2 0x989 JUMPI PUSH1 0x40 MLOAD PUSH32 0x8C379A000000000000000000000000000000000000000000000000000000000 DUP2 MSTORE PUSH1 0x4 ADD PUSH2 0x980 SWAP1 PUSH2 0x5D4F JUMP JUMPDEST PUSH1 0x40 MLOAD DUP1 SWAP2 SUB SWAP1 REVERT JUMPDEST PUSH32 0x7FCF532C15F0A6DB0BD6D0E038BEA71D30D808C7D98CB3BF7268A95BF5081B65 CALLER DUP4 PUSH1 0x40 MLOAD PUSH2 0x9BA SWAP3 SWAP2 SWAP1 PUSH2 0x5D6F JUMP JUMPDEST PUSH1 0x40 MLOAD DUP1 SWAP2 SUB SWAP1 LOG1 POP POP JUMP JUMPDEST PUSH1 0x0 PUSH1 0x6F SLOAD SWAP1 POP SWAP1 JUMP JUMPDEST PUSH2 0x9D9 CALLER PUSH2 0x36F1 JUMP JUMPDEST PUSH2 0xA18 JUMPI PUSH1 0x40 MLOAD PUSH32 0x8C379A000000000000000000000000000000000000000000000000000000000 DUP2 MSTORE PUSH1 0x4 ADD PUSH2 0xA0F SWAP1 PUSH2 0x5DE4 JUMP JUMPDEST PUSH1 0x40 MLOAD DUP1 SWAP2 SUB SWAP1 REVERT JUMPDEST PUSH2 0xA22 CALLER CALLVALUE PUSH2 0x3787 JUMP JUMPDEST JUMP JUMPDEST PUSH1 0x0 PUSH2 0xA2F DUP3 PUSH2 0x36F1 JUMP JUMPDEST DUP1 ISZERO PUSH2 0xA7C JUMPI POP PUSH1 0x6C SLOAD PUSH1 0x68 PUSH1 0x0 DUP5 PUSH20 0xFFFFFFFFFFFFFFFFFFFFFFFFFFFFFFFFFFFFFFFF AND PUSH20 0xFFFFFFFFFFFFFFFFFFFFFFFFFFFFFFFFFFFFFFFF AND DUP2 MSTORE PUSH1 0x20 ADD SWAP1 DUP2 MSTORE PUSH1 0x20 ADD PUSH1 0x0 KECCAK256 SLOAD LT ISZERO JUMPDEST SWAP1 POP SWAP2 SWAP1 POP JUMP JUMPDEST PUSH1 0x0 PUSH1 0x6B PUSH1 0x0 CALLER PUSH20 0xFFFFFFFFFFFFFFFFFFFFFFFFFFFFFFFFFFFFFFFF AND PUSH20 0xFFFFFFFFFFFFFFFFFFFFFFFFFFFFFFFFFFFFFFFF AND DUP2 MSTORE PUSH1 0x20 ADD SWAP1 DUP2 MSTORE PUSH1 0x20 ADD PUSH1 0x0 KECCAK256 SLOAD GT PUSH2 0xB05 JUMPI PUSH1 0x40 MLOAD PUSH32 0x8C379A000000000000000000000000000000000000000000000000000000000 DUP2 MSTORE PUSH1 0x4 ADD PUSH2 0xAFC SWAP1 PUSH2 0x5E50 JUMP JUMPDEST PUSH1 0x40 MLOAD DUP1 SWAP2 SUB SWAP1 REVERT JUMPDEST PUSH1 0x6E PUSH1 0x4 SWAP1 SLOAD SWAP1 PUSH2 0x100 EXP SWAP1 DIV PUSH4 0xFFFFFFFF AND PUSH4 0xFFFFFFFF AND PUSH1 0x6B PUSH1 0x0 CALLER PUSH20 0xFFFFFFFFFFFFFFFFFFFFFFFFFFFFFFFFFFFFFFFF AND PUSH20 0xFFFFFFFFFFFFFFFFFFFFFFFFFFFFFFFFFFFFFFFF AND DUP2 MSTORE PUSH1 0x20 ADD SWAP1 DUP2 MSTORE PUSH1 0x20 ADD PUSH1 0x0 KECCAK256 SLOAD NUMBER PUSH2 0xB69 SWAP2 SWAP1 PUSH2 0x5C89 JUMP JUMPDEST LT ISZERO PUSH2 0xBAA JUMPI PUSH1 0x40 MLOAD PUSH32 0x8C379A000000000000000000000000000000000000000000000000000000000 DUP2 MSTORE PUSH1 0x4 ADD PUSH2 0xBA1 SWAP1 PUSH2 0x5EBC JUMP JUMPDEST PUSH1 0x40 MLOAD DUP1 SWAP2 SUB SWAP1 REVERT JUMPDEST PUSH1 0x0 PUSH1 0x68 PUSH1 0x0 CALLER PUSH20 0xFFFFFFFFFFFFFFFFFFFFFFFFFFFFFFFFFFFFFFFF AND PUSH20 0xFFFFFFFFFFFFFFFFFFFFFFFFFFFFFFFFFFFFFFFF AND DUP2 MSTORE PUSH1 0x20 ADD SWAP1 DUP2 MSTORE PUSH1 0x20 ADD PUSH1 0x0 KECCAK256 SLOAD SWAP1 POP PUSH1 0x0 PUSH1 0x68 PUSH1 0x0 CALLER PUSH20 0xFFFFFFFFFFFFFFFFFFFFFFFFFFFFFFFFFFFFFFFF AND PUSH20 0xFFFFFFFFFFFFFFFFFFFFFFFFFFFFFFFFFFFFFFFF AND DUP2 MSTORE PUSH1 0x20 ADD SWAP1 DUP2 MSTORE PUSH1 0x20 ADD PUSH1 0x0 KECCAK256 DUP2 SWAP1 SSTORE POP PUSH1 0x0 PUSH1 0x6B PUSH1 0x0 CALLER PUSH20 0xFFFFFFFFFFFFFFFFFFFFFFFFFFFFFFFFFFFFFFFF AND PUSH20 0xFFFFFFFFFFFFFFFFFFFFFFFFFFFFFFFFFFFFFFFF AND DUP2 MSTORE PUSH1 0x20 ADD SWAP1 DUP2 MSTORE PUSH1 0x20 ADD PUSH1 0x0 KECCAK256 DUP2 SWAP1 SSTORE POP PUSH1 0x0 CALLER PUSH20 0xFFFFFFFFFFFFFFFFFFFFFFFFFFFFFFFFFFFFFFFF AND DUP3 PUSH1 0x40 MLOAD PUSH2 0xC9E SWAP1 PUSH2 0x5CEE JUMP JUMPDEST PUSH1 0x0 PUSH1 0x40 MLOAD DUP1 DUP4 SUB DUP2 DUP6 DUP8 GAS CALL SWAP3 POP POP POP RETURNDATASIZE DUP1 PUSH1 0x0 DUP2 EQ PUSH2 0xCDB JUMPI PUSH1 0x40 MLOAD SWAP2 POP PUSH1 0x1F NOT PUSH1 0x3F RETURNDATASIZE ADD AND DUP3 ADD PUSH1 0x40 MSTORE RETURNDATASIZE DUP3 MSTORE RETURNDATASIZE PUSH1 0x0 PUSH1 0x20 DUP5 ADD RETURNDATACOPY PUSH2 0xCE0 JUMP JUMPDEST PUSH1 0x60 SWAP2 POP JUMPDEST POP POP SWAP1 POP DUP1 PUSH2 0xD24 JUMPI PUSH1 0x40 MLOAD PUSH32 0x8C379A000000000000000000000000000000000000000000000000000000000 DUP2 MSTORE PUSH1 0x4 ADD PUSH2 0xD1B SWAP1 PUSH2 0x5D4F JUMP JUMPDEST PUSH1 0x40 MLOAD DUP1 SWAP2 SUB SWAP1 REVERT JUMPDEST PUSH32 0xA8E76B822FC682BE77F3B1C822EA81F6BDA5AED92BA82E6873BFD889F328D1D2 CALLER DUP4 PUSH1 0x40 MLOAD PUSH2 0xD55 SWAP3 SWAP2 SWAP1 PUSH2 0x5D6F JUMP JUMPDEST PUSH1 0x40 MLOAD DUP1 SWAP2 SUB SWAP1 LOG1 POP POP JUMP JUMPDEST PUSH1 0x0 PUSH1 0x67 PUSH1 0x0 DUP4 PUSH20 0xFFFFFFFFFFFFFFFFFFFFFFFFFFFFFFFFFFFFFFFF AND PUSH20 0xFFFFFFFFFFFFFFFFFFFFFFFFFFFFFFFFFFFFFFFF AND DUP2 MSTORE PUSH1 0x20 ADD SWAP1 DUP2 MSTORE PUSH1 0x20 ADD PUSH1 0x0 KECCAK256 SLOAD SWAP1 POP SWAP2 SWAP1 POP JUMP JUMPDEST PUSH1 0x60 PUSH1 0x0 DUP3 MLOAD PUSH8 0xFFFFFFFFFFFFFFFF DUP2 GT ISZERO PUSH2 0xDC9 JUMPI PUSH2 0xDC8 PUSH2 0x4981 JUMP JUMPDEST JUMPDEST PUSH1 0x40 MLOAD SWAP1 DUP1 DUP3 MSTORE DUP1 PUSH1 0x20 MUL PUSH1 0x20 ADD DUP3 ADD PUSH1 0x40 MSTORE DUP1 ISZERO PUSH2 0xE02 JUMPI DUP2 PUSH1 0x20 ADD JUMPDEST PUSH2 0xDEF PUSH2 0x483B JUMP JUMPDEST DUP2 MSTORE PUSH1 0x20 ADD SWAP1 PUSH1 0x1 SWAP1 SUB SWAP1 DUP2 PUSH2 0xDE7 JUMPI SWAP1 POP JUMPDEST POP SWAP1 POP PUSH1 0x0 DUP1 JUMPDEST DUP5 MLOAD DUP2 LT ISZERO PUSH2 0x10A6 JUMPI PUSH1 0x0 DUP6 DUP3 DUP2 MLOAD DUP2 LT PUSH2 0xE27 JUMPI PUSH2 0xE26 PUSH2 0x5EDC JUMP JUMPDEST JUMPDEST PUSH1 0x20 MUL PUSH1 0x20 ADD ADD MLOAD SWAP1 POP PUSH2 0xE70 PUSH1 0x69 PUSH1 0x0 DUP4 DUP2 MSTORE PUSH1 0x20 ADD SWAP1 DUP2 MSTORE PUSH1 0x20 ADD PUSH1 0x0 KECCAK256 PUSH1 0x1 ADD PUSH1 0x0 SWAP1 SLOAD SWAP1 PUSH2 0x100 EXP SWAP1 DIV PUSH20 0xFFFFFFFFFFFFFFFFFFFFFFFFFFFFFFFFFFFFFFFF AND PUSH2 0x36F1 JUMP JUMPDEST ISZERO PUSH2 0x1092 JUMPI PUSH1 0x69 PUSH1 0x0 DUP3 DUP2 MSTORE PUSH1 0x20 ADD SWAP1 DUP2 MSTORE PUSH1 0x20 ADD PUSH1 0x0 KECCAK256 PUSH1 0x40 MLOAD DUP1 PUSH2 0x140 ADD PUSH1 0x40 MSTORE SWAP1 DUP2 PUSH1 0x0 DUP3 ADD SLOAD DUP2 MSTORE PUSH1 0x20 ADD PUSH1 0x1 DUP3 ADD PUSH1 0x0 SWAP1 SLOAD SWAP1 PUSH2 0x100 EXP SWAP1 DIV PUSH20 0xFFFFFFFFFFFFFFFFFFFFFFFFFFFFFFFFFFFFFFFF AND PUSH20 0xFFFFFFFFFFFFFFFFFFFFFFFFFFFFFFFFFFFFFFFF AND PUSH20 0xFFFFFFFFFFFFFFFFFFFFFFFFFFFFFFFFFFFFFFFF AND DUP2 MSTORE PUSH1 0x20 ADD PUSH1 0x2 DUP3 ADD DUP1 SLOAD PUSH2 0xF04 SWAP1 PUSH2 0x5F3A JUMP JUMPDEST DUP1 PUSH1 0x1F ADD PUSH1 0x20 DUP1 SWAP2 DIV MUL PUSH1 0x20 ADD PUSH1 0x40 MLOAD SWAP1 DUP2 ADD PUSH1 0x40 MSTORE DUP1 SWAP3 SWAP2 SWAP1 DUP2 DUP2 MSTORE PUSH1 0x20 ADD DUP3 DUP1 SLOAD PUSH2 0xF30 SWAP1 PUSH2 0x5F3A JUMP JUMPDEST DUP1 ISZERO PUSH2 0xF7D JUMPI DUP1 PUSH1 0x1F LT PUSH2 0xF52 JUMPI PUSH2 0x100 DUP1 DUP4 SLOAD DIV MUL DUP4 MSTORE SWAP2 PUSH1 0x20 ADD SWAP2 PUSH2 0xF7D JUMP JUMPDEST DUP3 ADD SWAP2 SWAP1 PUSH1 0x0 MSTORE PUSH1 0x20 PUSH1 0x0 KECCAK256 SWAP1 JUMPDEST DUP2 SLOAD DUP2 MSTORE SWAP1 PUSH1 0x1 ADD SWAP1 PUSH1 0x20 ADD DUP1 DUP4 GT PUSH2 0xF60 JUMPI DUP3 SWAP1 SUB PUSH1 0x1F AND DUP3 ADD SWAP2 JUMPDEST POP POP POP POP POP DUP2 MSTORE PUSH1 0x20 ADD PUSH1 0x3 DUP3 ADD SLOAD DUP2 MSTORE PUSH1 0x20 ADD PUSH1 0x4 DUP3 ADD SLOAD DUP2 MSTORE PUSH1 0x20 ADD PUSH1 0x5 DUP3 ADD SLOAD DUP2 MSTORE PUSH1 0x20 ADD PUSH1 0x6 DUP3 ADD SLOAD DUP2 MSTORE PUSH1 0x20 ADD PUSH1 0x7 DUP3 ADD SLOAD DUP2 MSTORE PUSH1 0x20 ADD PUSH1 0x8 DUP3 ADD DUP1 SLOAD PUSH2 0xFC8 SWAP1 PUSH2 0x5F3A JUMP JUMPDEST DUP1 PUSH1 0x1F ADD PUSH1 0x20 DUP1 SWAP2 DIV MUL PUSH1 0x20 ADD PUSH1 0x40 MLOAD SWAP1 DUP2 ADD PUSH1 0x40 MSTORE DUP1 SWAP3 SWAP2 SWAP1 DUP2 DUP2 MSTORE PUSH1 0x20 ADD DUP3 DUP1 SLOAD PUSH2 0xFF4 SWAP1 PUSH2 0x5F3A JUMP JUMPDEST DUP1 ISZERO PUSH2 0x1041 JUMPI DUP1 PUSH1 0x1F LT PUSH2 0x1016 JUMPI PUSH2 0x100 DUP1 DUP4 SLOAD DIV MUL DUP4 MSTORE SWAP2 PUSH1 0x20 ADD SWAP2 PUSH2 0x1041 JUMP JUMPDEST DUP3 ADD SWAP2 SWAP1 PUSH1 0x0 MSTORE PUSH1 0x20 PUSH1 0x0 KECCAK256 SWAP1 JUMPDEST DUP2 SLOAD DUP2 MSTORE SWAP1 PUSH1 0x1 ADD SWAP1 PUSH1 0x20 ADD DUP1 DUP4 GT PUSH2 0x1024 JUMPI DUP3 SWAP1 SUB PUSH1 0x1F AND DUP3 ADD SWAP2 JUMPDEST POP POP POP POP POP DUP2 MSTORE PUSH1 0x20 ADD PUSH1 0x9 DUP3 ADD PUSH1 0x0 SWAP1 SLOAD SWAP1 PUSH2 0x100 EXP SWAP1 DIV PUSH1 0xFF AND ISZERO ISZERO ISZERO ISZERO DUP2 MSTORE POP POP DUP5 DUP5 DUP2 MLOAD DUP2 LT PUSH2 0x1078 JUMPI PUSH2 0x1077 PUSH2 0x5EDC JUMP JUMPDEST JUMPDEST PUSH1 0x20 MUL PUSH1 0x20 ADD ADD DUP2 SWAP1 MSTORE POP DUP3 DUP1 PUSH2 0x108E SWAP1 PUSH2 0x5F6B JUMP JUMPDEST SWAP4 POP POP JUMPDEST POP DUP1 DUP1 PUSH2 0x109E SWAP1 PUSH2 0x5F6B JUMP JUMPDEST SWAP2 POP POP PUSH2 0xE09 JUMP JUMPDEST POP DUP2 SWAP3 POP POP POP SWAP2 SWAP1 POP JUMP JUMPDEST PUSH2 0x10BA CALLER PUSH2 0x36F1 JUMP JUMPDEST PUSH2 0x10F9 JUMPI PUSH1 0x40 MLOAD PUSH32 0x8C379A000000000000000000000000000000000000000000000000000000000 DUP2 MSTORE PUSH1 0x4 ADD PUSH2 0x10F0 SWAP1 PUSH2 0x5DE4 JUMP JUMPDEST PUSH1 0x40 MLOAD DUP1 SWAP2 SUB SWAP1 REVERT JUMPDEST PUSH1 0x0 PUSH1 0x6B PUSH1 0x0 CALLER PUSH20 0xFFFFFFFFFFFFFFFFFFFFFFFFFFFFFFFFFFFFFFFF AND PUSH20 0xFFFFFFFFFFFFFFFFFFFFFFFFFFFFFFFFFFFFFFFF AND DUP2 MSTORE PUSH1 0x20 ADD SWAP1 DUP2 MSTORE PUSH1 0x20 ADD PUSH1 0x0 KECCAK256 SLOAD EQ PUSH2 0x117B JUMPI PUSH1 0x40 MLOAD PUSH32 0x8C379A000000000000000000000000000000000000000000000000000000000 DUP2 MSTORE PUSH1 0x4 ADD PUSH2 0x1172 SWAP1 PUSH2 0x5FFF JUMP JUMPDEST PUSH1 0x40 MLOAD DUP1 SWAP2 SUB SWAP1 REVERT JUMPDEST NUMBER PUSH1 0x6B PUSH1 0x0 CALLER PUSH20 0xFFFFFFFFFFFFFFFFFFFFFFFFFFFFFFFFFFFFFFFF AND PUSH20 0xFFFFFFFFFFFFFFFFFFFFFFFFFFFFFFFFFFFFFFFF AND DUP2 MSTORE PUSH1 0x20 ADD SWAP1 DUP2 MSTORE PUSH1 0x20 ADD PUSH1 0x0 KECCAK256 DUP2 SWAP1 SSTORE POP PUSH32 0xA6674AA33CD1B7435474751667707BF05FDE99E537D67043EC5F907782577D86 CALLER PUSH1 0x40 MLOAD PUSH2 0x11EE SWAP2 SWAP1 PUSH2 0x553D JUMP JUMPDEST PUSH1 0x40 MLOAD DUP1 SWAP2 SUB SWAP1 LOG1 JUMP JUMPDEST PUSH1 0x0 PUSH1 0x71 PUSH1 0x0 SWAP1 SLOAD SWAP1 PUSH2 0x100 EXP SWAP1 DIV PUSH1 0xFF AND ISZERO PUSH2 0x124A JUMPI PUSH1 0x40 MLOAD PUSH32 0x8C379A000000000000000000000000000000000000000000000000000000000 DUP2 MSTORE PUSH1 0x4 ADD PUSH2 0x1241 SWAP1 PUSH2 0x606B JUMP JUMPDEST PUSH1 0x40 MLOAD DUP1 SWAP2 SUB SWAP1 REVERT JUMPDEST PUSH1 0x1 PUSH1 0x71 PUSH1 0x0 PUSH2 0x100 EXP DUP2 SLOAD DUP2 PUSH1 0xFF MUL NOT AND SWAP1 DUP4 ISZERO ISZERO MUL OR SWAP1 SSTORE POP PUSH1 0x0 PUSH2 0x1270 DUP8 PUSH2 0x34E8 JUMP JUMPDEST SWAP1 POP PUSH1 0x1 PUSH1 0xFF AND PUSH1 0x72 PUSH1 0x0 DUP4 DUP2 MSTORE PUSH1 0x20 ADD SWAP1 DUP2 MSTORE PUSH1 0x20 ADD PUSH1 0x0 KECCAK256 PUSH1 0x0 SWAP1 SLOAD SWAP1 PUSH2 0x100 EXP SWAP1 DIV PUSH1 0xFF AND PUSH1 0xFF AND GT ISZERO PUSH2 0x12DC JUMPI PUSH1 0x40 MLOAD PUSH32 0x8C379A000000000000000000000000000000000000000000000000000000000 DUP2 MSTORE PUSH1 0x4 ADD PUSH2 0x12D3 SWAP1 PUSH2 0x60D7 JUMP JUMPDEST PUSH1 0x40 MLOAD DUP1 SWAP2 SUB SWAP1 REVERT JUMPDEST PUSH20 0x0 PUSH4 0x1A86B550 DUP9 PUSH1 0x40 ADD MLOAD DUP4 DUP10 PUSH1 0x40 MLOAD DUP5 PUSH4 0xFFFFFFFF AND PUSH1 0xE0 SHL DUP2 MSTORE PUSH1 0x4 ADD PUSH2 0x131B SWAP4 SWAP3 SWAP2 SWAP1 PUSH2 0x616A JUMP JUMPDEST PUSH1 0x20 PUSH1 0x40 MLOAD DUP1 DUP4 SUB DUP2 DUP7 GAS DELEGATECALL ISZERO DUP1 ISZERO PUSH2 0x1338 JUMPI RETURNDATASIZE PUSH1 0x0 DUP1 RETURNDATACOPY RETURNDATASIZE PUSH1 0x0 REVERT JUMPDEST POP POP POP POP PUSH1 0x40 MLOAD RETURNDATASIZE PUSH1 0x1F NOT PUSH1 0x1F DUP3 ADD AND DUP3 ADD DUP1 PUSH1 0x40 MSTORE POP DUP2 ADD SWAP1 PUSH2 0x135C SWAP2 SWAP1 PUSH2 0x61BD JUMP JUMPDEST PUSH2 0x139B JUMPI PUSH1 0x40 MLOAD PUSH32 0x8C379A000000000000000000000000000000000000000000000000000000000 DUP2 MSTORE PUSH1 0x4 ADD PUSH2 0x1392 SWAP1 PUSH2 0x6236 JUMP JUMPDEST PUSH1 0x40 MLOAD DUP1 SWAP2 SUB SWAP1 REVERT JUMPDEST PUSH4 0x7FFFFFFF PUSH4 0xFFFFFFFF AND DUP4 LT PUSH2 0x13E7 JUMPI PUSH1 0x40 MLOAD PUSH32 0x8C379A000000000000000000000000000000000000000000000000000000000 DUP2 MSTORE PUSH1 0x4 ADD PUSH2 0x13DE SWAP1 PUSH2 0x62A2 JUMP JUMPDEST PUSH1 0x40 MLOAD DUP1 SWAP2 SUB SWAP1 REVERT JUMPDEST PUSH1 0x0 PUSH2 0x13F6 DUP9 DUP8 DUP8 DUP8 DUP7 PUSH2 0x381A JUMP JUMPDEST SWAP1 POP PUSH32 0xFFFFFFFFFFFFFFFFFFFFFFFFFFFFFFFFFFFFFFFFFFFFFFFFFFFFFFFFFFFFFED1 PUSH1 0x1 SIGNEXTEND DUP2 SUB PUSH2 0x145D JUMPI PUSH1 0x40 MLOAD PUSH32 0x8C379A000000000000000000000000000000000000000000000000000000000 DUP2 MSTORE PUSH1 0x4 ADD PUSH2 0x1454 SWAP1 PUSH2 0x6334 JUMP JUMPDEST PUSH1 0x40 MLOAD DUP1 SWAP2 SUB SWAP1 REVERT JUMPDEST PUSH32 0xFFFFFFFFFFFFFFFFFFFFFFFFFFFFFFFFFFFFFFFFFFFFFFFFFFFFFFFFFFFFFED2 PUSH1 0x1 SIGNEXTEND DUP2 SUB PUSH2 0x14C2 JUMPI PUSH1 0x40 MLOAD PUSH32 0x8C379A000000000000000000000000000000000000000000000000000000000 DUP2 MSTORE PUSH1 0x4 ADD PUSH2 0x14B9 SWAP1 PUSH2 0x63C6 JUMP JUMPDEST PUSH1 0x40 MLOAD DUP1 SWAP2 SUB SWAP1 REVERT JUMPDEST PUSH32 0xFFFFFFFFFFFFFFFFFFFFFFFFFFFFFFFFFFFFFFFFFFFFFFFFFFFFFFFFFFFFFED0 PUSH1 0x1 SIGNEXTEND DUP2 SUB PUSH2 0x1527 JUMPI PUSH1 0x40 MLOAD PUSH32 0x8C379A000000000000000000000000000000000000000000000000000000000 DUP2 MSTORE PUSH1 0x4 ADD PUSH2 0x151E SWAP1 PUSH2 0x6458 JUMP JUMPDEST PUSH1 0x40 MLOAD DUP1 SWAP2 SUB SWAP1 REVERT JUMPDEST PUSH32 0xFFFFFFFFFFFFFFFFFFFFFFFFFFFFFFFFFFFFFFFFFFFFFFFFFFFFFFFFFFFFFECF PUSH1 0x1 SIGNEXTEND DUP2 SUB PUSH2 0x158C JUMPI PUSH1 0x40 MLOAD PUSH32 0x8C379A000000000000000000000000000000000000000000000000000000000 DUP2 MSTORE PUSH1 0x4 ADD PUSH2 0x1583 SWAP1 PUSH2 0x64EA JUMP JUMPDEST PUSH1 0x40 MLOAD DUP1 SWAP2 SUB SWAP1 REVERT JUMPDEST PUSH32 0xFFFFFFFFFFFFFFFFFFFFFFFFFFFFFFFFFFFFFFFFFFFFFFFFFFFFFFFFFFFFFC7C PUSH1 0x1 SIGNEXTEND DUP2 SUB PUSH2 0x15F1 JUMPI PUSH1 0x40 MLOAD PUSH32 0x8C379A000000000000000000000000000000000000000000000000000000000 DUP2 MSTORE PUSH1 0x4 ADD PUSH2 0x15E8 SWAP1 PUSH2 0x6556 JUMP JUMPDEST PUSH1 0x40 MLOAD DUP1 SWAP2 SUB SWAP1 REVERT JUMPDEST PUSH1 0x0 DUP2 SGT DUP1 PUSH2 0x1622 JUMPI POP PUSH32 0xFFFFFFFFFFFFFFFFFFFFFFFFFFFFFFFFFFFFFFFFFFFFFFFFFFFFFFFFFFFFFF38 PUSH1 0x1 SIGNEXTEND DUP2 EQ JUMPDEST DUP1 PUSH2 0x164F JUMPI POP PUSH32 0xFFFFFFFFFFFFFFFFFFFFFFFFFFFFFFFFFFFFFFFFFFFFFFFFFFFFFFFFFFFFFF9C PUSH1 0x1 SIGNEXTEND DUP2 EQ JUMPDEST PUSH2 0x168E JUMPI PUSH1 0x40 MLOAD PUSH32 0x8C379A000000000000000000000000000000000000000000000000000000000 DUP2 MSTORE PUSH1 0x4 ADD PUSH2 0x1685 SWAP1 PUSH2 0x65C2 JUMP JUMPDEST PUSH1 0x40 MLOAD DUP1 SWAP2 SUB SWAP1 REVERT JUMPDEST PUSH2 0x16C6 DUP9 DUP3 PUSH1 0x6A PUSH1 0x0 DUP7 DUP2 MSTORE PUSH1 0x20 ADD SWAP1 DUP2 MSTORE PUSH1 0x20 ADD PUSH1 0x0 KECCAK256 PUSH1 0x0 ADD PUSH1 0x0 SWAP1 SLOAD SWAP1 PUSH2 0x100 EXP SWAP1 DIV PUSH4 0xFFFFFFFF AND PUSH4 0xFFFFFFFF AND DUP8 PUSH2 0x390A JUMP JUMPDEST ISZERO PUSH2 0x17FA JUMPI PUSH1 0x0 PUSH2 0x171E DUP10 PUSH1 0xE0 ADD MLOAD PUSH1 0x68 PUSH1 0x0 DUP13 PUSH1 0x40 ADD MLOAD PUSH20 0xFFFFFFFFFFFFFFFFFFFFFFFFFFFFFFFFFFFFFFFF AND PUSH20 0xFFFFFFFFFFFFFFFFFFFFFFFFFFFFFFFFFFFFFFFF AND DUP2 MSTORE PUSH1 0x20 ADD SWAP1 DUP2 MSTORE PUSH1 0x20 ADD PUSH1 0x0 KECCAK256 SLOAD PUSH2 0x3BCE JUMP JUMPDEST SWAP1 POP DUP1 PUSH1 0x68 PUSH1 0x0 DUP12 PUSH1 0x40 ADD MLOAD PUSH20 0xFFFFFFFFFFFFFFFFFFFFFFFFFFFFFFFFFFFFFFFF AND PUSH20 0xFFFFFFFFFFFFFFFFFFFFFFFFFFFFFFFFFFFFFFFF AND DUP2 MSTORE PUSH1 0x20 ADD SWAP1 DUP2 MSTORE PUSH1 0x20 ADD PUSH1 0x0 KECCAK256 PUSH1 0x0 DUP3 DUP3 SLOAD PUSH2 0x1773 SWAP2 SWAP1 PUSH2 0x5C89 JUMP JUMPDEST SWAP3 POP POP DUP2 SWAP1 SSTORE POP PUSH32 0x9685484093CC596FDAEAB51ABF645B1753DBB7D869BFD2EB21E2C646E47A36F4 DUP10 PUSH1 0x40 ADD MLOAD DUP3 DUP6 PUSH1 0x40 MLOAD PUSH2 0x17B1 SWAP4 SWAP3 SWAP2 SWAP1 PUSH2 0x65E2 JUMP JUMPDEST PUSH1 0x40 MLOAD DUP1 SWAP2 SUB SWAP1 LOG1 PUSH1 0x0 PUSH1 0x64 PUSH1 0x6E PUSH1 0x0 SWAP1 SLOAD SWAP1 PUSH2 0x100 EXP SWAP1 DIV PUSH4 0xFFFFFFFF AND PUSH4 0xFFFFFFFF AND DUP4 PUSH2 0x17E1 SWAP2 SWAP1 PUSH2 0x6619 JUMP JUMPDEST PUSH2 0x17EB SWAP2 SWAP1 PUSH2 0x668A JUMP JUMPDEST SWAP1 POP PUSH2 0x17F7 CALLER DUP3 PUSH2 0x3BE7 JUMP JUMPDEST POP POP JUMPDEST PUSH32 0xFFFFFFFFFFFFFFFFFFFFFFFFFFFFFFFFFFFFFFFFFFFFFFFFFFFFFFFFFFFFFF38 PUSH1 0x1 SIGNEXTEND DUP2 EQ DUP1 PUSH2 0x184D JUMPI POP PUSH32 0xFFFFFFFFFFFFFFFFFFFFFFFFFFFFFFFFFFFFFFFFFFFFFFFFFFFFFFFFFFFFFF9C PUSH1 0x1 SIGNEXTEND DUP2 EQ JUMPDEST ISZERO PUSH2 0x1903 JUMPI PUSH1 0x2 PUSH1 0x72 PUSH1 0x0 DUP5 DUP2 MSTORE PUSH1 0x20 ADD SWAP1 DUP2 MSTORE PUSH1 0x20 ADD PUSH1 0x0 KECCAK256 PUSH1 0x0 PUSH2 0x100 EXP DUP2 SLOAD DUP2 PUSH1 0xFF MUL NOT AND SWAP1 DUP4 PUSH1 0xFF AND MUL OR SWAP1 SSTORE POP PUSH1 0x6A PUSH1 0x0 DUP4 DUP2 MSTORE PUSH1 0x20 ADD SWAP1 DUP2 MSTORE PUSH1 0x20 ADD PUSH1 0x0 KECCAK256 PUSH1 0x0 DUP1 DUP3 ADD PUSH1 0x0 PUSH2 0x100 EXP DUP2 SLOAD SWAP1 PUSH4 0xFFFFFFFF MUL NOT AND SWAP1 SSTORE PUSH1 0x0 DUP3 ADD PUSH1 0x4 PUSH2 0x100 EXP DUP2 SLOAD SWAP1 PUSH1 0xFF MUL NOT AND SWAP1 SSTORE POP POP PUSH32 0xFB209329D5AB5B7BCB2E92F45F4534814B6E68FA5AD1F171DABC1D17D26F0EBE DUP3 DUP3 PUSH1 0x40 MLOAD PUSH2 0x18F1 SWAP3 SWAP2 SWAP1 PUSH2 0x66BB JUMP JUMPDEST PUSH1 0x40 MLOAD DUP1 SWAP2 SUB SWAP1 LOG1 DUP1 SWAP3 POP POP POP PUSH2 0x1D00 JUMP JUMPDEST PUSH1 0x0 DUP2 SWAP1 POP PUSH2 0x1912 DUP10 DUP3 PUSH2 0x3C7A JUMP JUMPDEST PUSH1 0x0 PUSH1 0x6A PUSH1 0x0 DUP6 DUP2 MSTORE PUSH1 0x20 ADD SWAP1 DUP2 MSTORE PUSH1 0x20 ADD PUSH1 0x0 KECCAK256 PUSH1 0x0 ADD PUSH1 0x0 SWAP1 SLOAD SWAP1 PUSH2 0x100 EXP SWAP1 DIV PUSH4 0xFFFFFFFF AND PUSH4 0xFFFFFFFF AND GT ISZERO PUSH2 0x1AA6 JUMPI PUSH1 0x0 PUSH1 0x6A PUSH1 0x0 DUP6 DUP2 MSTORE PUSH1 0x20 ADD SWAP1 DUP2 MSTORE PUSH1 0x20 ADD PUSH1 0x0 KECCAK256 PUSH1 0x0 ADD PUSH1 0x4 SWAP1 SLOAD SWAP1 PUSH2 0x100 EXP SWAP1 DIV PUSH1 0xFF AND ISZERO PUSH2 0x1997 JUMPI PUSH2 0x1990 DUP3 DUP12 PUSH1 0xC0 ADD MLOAD DUP13 PUSH2 0x180 ADD MLOAD PUSH2 0x198B SWAP2 SWAP1 PUSH2 0x66E4 JUMP JUMPDEST PUSH2 0x3BCE JUMP JUMPDEST SWAP1 POP PUSH2 0x19A8 JUMP JUMPDEST PUSH2 0x19A5 DUP3 DUP12 PUSH1 0xC0 ADD MLOAD PUSH2 0x3BCE JUMP JUMPDEST SWAP1 POP JUMPDEST PUSH2 0x19B6 DUP11 PUSH1 0x40 ADD MLOAD DUP3 PUSH2 0x3BE7 JUMP JUMPDEST PUSH1 0x0 DUP2 DUP4 PUSH2 0x19C4 SWAP2 SWAP1 PUSH2 0x5C89 JUMP JUMPDEST SWAP1 POP PUSH1 0x6F SLOAD DUP2 GT ISZERO PUSH2 0x1A9F JUMPI PUSH1 0x0 DUP12 PUSH1 0x80 ADD MLOAD PUSH20 0xFFFFFFFFFFFFFFFFFFFFFFFFFFFFFFFFFFFFFFFF AND PUSH2 0x8FC PUSH2 0xFFFF AND DUP4 PUSH1 0x40 MLOAD PUSH2 0x1A01 SWAP1 PUSH2 0x5CEE JUMP JUMPDEST PUSH1 0x0 PUSH1 0x40 MLOAD DUP1 DUP4 SUB DUP2 DUP6 DUP9 DUP9 CALL SWAP4 POP POP POP POP RETURNDATASIZE DUP1 PUSH1 0x0 DUP2 EQ PUSH2 0x1A3F JUMPI PUSH1 0x40 MLOAD SWAP2 POP PUSH1 0x1F NOT PUSH1 0x3F RETURNDATASIZE ADD AND DUP3 ADD PUSH1 0x40 MSTORE RETURNDATASIZE DUP3 MSTORE RETURNDATASIZE PUSH1 0x0 PUSH1 0x20 DUP5 ADD RETURNDATACOPY PUSH2 0x1A44 JUMP JUMPDEST PUSH1 0x60 SWAP2 POP JUMPDEST POP POP SWAP1 POP PUSH32 0x3052EA2F7E0D74FDC1C1E1F858FF1AE3D91AB1609717C3EFEDB95DB603B255F6 DUP13 PUSH1 0x80 ADD MLOAD DUP4 DUP4 DUP10 PUSH1 0x40 MLOAD PUSH2 0x1A81 SWAP5 SWAP4 SWAP3 SWAP2 SWAP1 PUSH2 0x6777 JUMP JUMPDEST PUSH1 0x40 MLOAD DUP1 SWAP2 SUB SWAP1 LOG1 DUP1 PUSH2 0x1A9D JUMPI PUSH2 0x1A9C DUP13 PUSH1 0x40 ADD MLOAD DUP4 PUSH2 0x3BE7 JUMP JUMPDEST JUMPDEST POP JUMPDEST POP POP PUSH2 0x1C8B JUMP JUMPDEST PUSH1 0x0 DUP2 SWAP1 POP DUP10 PUSH2 0x220 ADD MLOAD DUP1 ISZERO PUSH2 0x1AC2 JUMPI POP DUP10 PUSH2 0x180 ADD MLOAD DUP2 LT ISZERO JUMPDEST ISZERO PUSH2 0x1BC4 JUMPI PUSH1 0x0 DUP11 PUSH2 0x100 ADD MLOAD PUSH20 0xFFFFFFFFFFFFFFFFFFFFFFFFFFFFFFFFFFFFFFFF AND DUP12 PUSH2 0x140 ADD MLOAD PUSH4 0xFFFFFFFF AND DUP13 PUSH2 0x180 ADD MLOAD DUP14 PUSH2 0x120 ADD MLOAD PUSH1 0x40 MLOAD PUSH2 0x1B0A SWAP2 SWAP1 PUSH2 0x67ED JUMP JUMPDEST PUSH1 0x0 PUSH1 0x40 MLOAD DUP1 DUP4 SUB DUP2 DUP6 DUP9 DUP9 CALL SWAP4 POP POP POP POP RETURNDATASIZE DUP1 PUSH1 0x0 DUP2 EQ PUSH2 0x1B48 JUMPI PUSH1 0x40 MLOAD SWAP2 POP PUSH1 0x1F NOT PUSH1 0x3F RETURNDATASIZE ADD AND DUP3 ADD PUSH1 0x40 MSTORE RETURNDATASIZE DUP3 MSTORE RETURNDATASIZE PUSH1 0x0 PUSH1 0x20 DUP5 ADD RETURNDATACOPY PUSH2 0x1B4D JUMP JUMPDEST PUSH1 0x60 SWAP2 POP JUMPDEST POP POP SWAP1 POP PUSH32 0xBFC7404E6FE464F0646FE2C6AB942B92D56BE722BB39F8C6BC4830D2D32FB80D CALLER DUP13 PUSH2 0x100 ADD MLOAD DUP14 PUSH2 0x140 ADD MLOAD DUP15 PUSH2 0x180 ADD MLOAD DUP16 PUSH2 0x120 ADD MLOAD DUP7 DUP12 PUSH1 0x40 MLOAD PUSH2 0x1BA0 SWAP8 SWAP7 SWAP6 SWAP5 SWAP4 SWAP3 SWAP2 SWAP1 PUSH2 0x687F JUMP JUMPDEST PUSH1 0x40 MLOAD DUP1 SWAP2 SUB SWAP1 LOG1 DUP1 ISZERO PUSH2 0x1BC2 JUMPI DUP11 PUSH2 0x180 ADD MLOAD DUP3 PUSH2 0x1BBF SWAP2 SWAP1 PUSH2 0x5C89 JUMP JUMPDEST SWAP2 POP JUMPDEST POP JUMPDEST PUSH1 0x6F SLOAD DUP2 GT ISZERO PUSH2 0x1C89 JUMPI PUSH1 0x0 DUP11 PUSH1 0x80 ADD MLOAD PUSH20 0xFFFFFFFFFFFFFFFFFFFFFFFFFFFFFFFFFFFFFFFF AND PUSH2 0x8FC PUSH2 0xFFFF AND DUP4 PUSH1 0x40 MLOAD PUSH2 0x1BFF SWAP1 PUSH2 0x5CEE JUMP JUMPDEST PUSH1 0x0 PUSH1 0x40 MLOAD DUP1 DUP4 SUB DUP2 DUP6 DUP9 DUP9 CALL SWAP4 POP POP POP POP RETURNDATASIZE DUP1 PUSH1 0x0 DUP2 EQ PUSH2 0x1C3D JUMPI PUSH1 0x40 MLOAD SWAP2 POP PUSH1 0x1F NOT PUSH1 0x3F RETURNDATASIZE ADD AND DUP3 ADD PUSH1 0x40 MSTORE RETURNDATASIZE DUP3 MSTORE RETURNDATASIZE PUSH1 0x0 PUSH1 0x20 DUP5 ADD RETURNDATACOPY PUSH2 0x1C42 JUMP JUMPDEST PUSH1 0x60 SWAP2 POP JUMPDEST POP POP SWAP1 POP PUSH32 0x3052EA2F7E0D74FDC1C1E1F858FF1AE3D91AB1609717C3EFEDB95DB603B255F6 DUP12 PUSH1 0x80 ADD MLOAD DUP4 DUP4 DUP9 PUSH1 0x40 MLOAD PUSH2 0x1C7F SWAP5 SWAP4 SWAP3 SWAP2 SWAP1 PUSH2 0x6777 JUMP JUMPDEST PUSH1 0x40 MLOAD DUP1 SWAP2 SUB SWAP1 LOG1 POP JUMPDEST POP JUMPDEST PUSH1 0x2 PUSH1 0x72 PUSH1 0x0 DUP6 DUP2 MSTORE PUSH1 0x20 ADD SWAP1 DUP2 MSTORE PUSH1 0x20 ADD PUSH1 0x0 KECCAK256 PUSH1 0x0 PUSH2 0x100 EXP DUP2 SLOAD DUP2 PUSH1 0xFF MUL NOT AND SWAP1 DUP4 PUSH1 0xFF AND MUL OR SWAP1 SSTORE POP PUSH1 0x6A PUSH1 0x0 DUP5 DUP2 MSTORE PUSH1 0x20 ADD SWAP1 DUP2 MSTORE PUSH1 0x20 ADD PUSH1 0x0 KECCAK256 PUSH1 0x0 DUP1 DUP3 ADD PUSH1 0x0 PUSH2 0x100 EXP DUP2 SLOAD SWAP1 PUSH4 0xFFFFFFFF MUL NOT AND SWAP1 SSTORE PUSH1 0x0 DUP3 ADD PUSH1 0x4 PUSH2 0x100 EXP DUP2 SLOAD SWAP1 PUSH1 0xFF MUL NOT AND SWAP1 SSTORE POP POP DUP2 SWAP4 POP POP POP POP JUMPDEST PUSH1 0x0 PUSH1 0x71 PUSH1 0x0 PUSH2 0x100 EXP DUP2 SLOAD DUP2 PUSH1 0xFF MUL NOT AND SWAP1 DUP4 ISZERO ISZERO MUL OR SWAP1 SSTORE POP SWAP6 SWAP5 POP POP POP POP POP JUMP JUMPDEST PUSH2 0x1D2C PUSH2 0x3CF9 JUMP JUMPDEST PUSH2 0x1D36 PUSH1 0x0 PUSH2 0x3D77 JUMP JUMPDEST JUMP JUMPDEST DUP2 PUSH2 0x1D41 PUSH2 0x1ECD JUMP JUMPDEST PUSH20 0xFFFFFFFFFFFFFFFFFFFFFFFFFFFFFFFFFFFFFFFF AND CALLER PUSH20 0xFFFFFFFFFFFFFFFFFFFFFFFFFFFFFFFFFFFFFFFF AND EQ DUP1 PUSH2 0x1DDB JUMPI POP PUSH1 0x69 PUSH1 0x0 DUP3 DUP2 MSTORE PUSH1 0x20 ADD SWAP1 DUP2 MSTORE PUSH1 0x20 ADD PUSH1 0x0 KECCAK256 PUSH1 0x1 ADD PUSH1 0x0 SWAP1 SLOAD SWAP1 PUSH2 0x100 EXP SWAP1 DIV PUSH20 0xFFFFFFFFFFFFFFFFFFFFFFFFFFFFFFFFFFFFFFFF AND PUSH20 0xFFFFFFFFFFFFFFFFFFFFFFFFFFFFFFFFFFFFFFFF AND CALLER PUSH20 0xFFFFFFFFFFFFFFFFFFFFFFFFFFFFFFFFFFFFFFFF AND EQ JUMPDEST PUSH2 0x1E1A JUMPI PUSH1 0x40 MLOAD PUSH32 0x8C379A000000000000000000000000000000000000000000000000000000000 DUP2 MSTORE PUSH1 0x4 ADD PUSH2 0x1E11 SWAP1 PUSH2 0x6941 JUMP JUMPDEST PUSH1 0x40 MLOAD DUP1 SWAP2 SUB SWAP1 REVERT JUMPDEST PUSH1 0x1 ISZERO ISZERO DUP3 ISZERO ISZERO EQ DUP1 PUSH2 0x1E31 JUMPI POP PUSH1 0x0 ISZERO ISZERO DUP3 ISZERO ISZERO EQ JUMPDEST PUSH2 0x1E70 JUMPI PUSH1 0x40 MLOAD PUSH32 0x8C379A000000000000000000000000000000000000000000000000000000000 DUP2 MSTORE PUSH1 0x4 ADD PUSH2 0x1E67 SWAP1 PUSH2 0x69AD JUMP JUMPDEST PUSH1 0x40 MLOAD DUP1 SWAP2 SUB SWAP1 REVERT JUMPDEST DUP2 PUSH1 0x69 PUSH1 0x0 DUP6 DUP2 MSTORE PUSH1 0x20 ADD SWAP1 DUP2 MSTORE PUSH1 0x20 ADD PUSH1 0x0 KECCAK256 PUSH1 0x9 ADD PUSH1 0x0 PUSH2 0x100 EXP DUP2 SLOAD DUP2 PUSH1 0xFF MUL NOT AND SWAP1 DUP4 ISZERO ISZERO MUL OR SWAP1 SSTORE POP POP POP POP JUMP JUMPDEST PUSH1 0x0 PUSH1 0x73 PUSH1 0x0 DUP4 DUP2 MSTORE PUSH1 0x20 ADD SWAP1 DUP2 MSTORE PUSH1 0x20 ADD PUSH1 0x0 KECCAK256 PUSH1 0x0 SWAP1 SLOAD SWAP1 PUSH2 0x100 EXP SWAP1 DIV PUSH1 0xFF AND SWAP1 POP SWAP2 SWAP1 POP JUMP JUMPDEST PUSH1 0x0 PUSH1 0x33 PUSH1 0x0 SWAP1 SLOAD SWAP1 PUSH2 0x100 EXP SWAP1 DIV PUSH20 0xFFFFFFFFFFFFFFFFFFFFFFFFFFFFFFFFFFFFFFFF AND SWAP1 POP SWAP1 JUMP JUMPDEST PUSH1 0x0 DUP1 PUSH1 0x1 SWAP1 SLOAD SWAP1 PUSH2 0x100 EXP SWAP1 DIV PUSH1 0xFF AND ISZERO SWAP1 POP DUP1 DUP1 ISZERO PUSH2 0x1F28 JUMPI POP PUSH1 0x1 PUSH1 0x0 DUP1 SLOAD SWAP1 PUSH2 0x100 EXP SWAP1 DIV PUSH1 0xFF AND PUSH1 0xFF AND LT JUMPDEST DUP1 PUSH2 0x1F55 JUMPI POP PUSH2 0x1F37 ADDRESS PUSH2 0x3E3D JUMP JUMPDEST ISZERO DUP1 ISZERO PUSH2 0x1F54 JUMPI POP PUSH1 0x1 PUSH1 0x0 DUP1 SLOAD SWAP1 PUSH2 0x100 EXP SWAP1 DIV PUSH1 0xFF AND PUSH1 0xFF AND EQ JUMPDEST JUMPDEST PUSH2 0x1F94 JUMPI PUSH1 0x40 MLOAD PUSH32 0x8C379A000000000000000000000000000000000000000000000000000000000 DUP2 MSTORE PUSH1 0x4 ADD PUSH2 0x1F8B SWAP1 PUSH2 0x6A3F JUMP JUMPDEST PUSH1 0x40 MLOAD DUP1 SWAP2 SUB SWAP1 REVERT JUMPDEST PUSH1 0x1 PUSH1 0x0 DUP1 PUSH2 0x100 EXP DUP2 SLOAD DUP2 PUSH1 0xFF MUL NOT AND SWAP1 DUP4 PUSH1 0xFF AND MUL OR SWAP1 SSTORE POP DUP1 ISZERO PUSH2 0x1FD1 JUMPI PUSH1 0x1 PUSH1 0x0 PUSH1 0x1 PUSH2 0x100 EXP DUP2 SLOAD DUP2 PUSH1 0xFF MUL NOT AND SWAP1 DUP4 ISZERO ISZERO MUL OR SWAP1 SSTORE POP JUMPDEST PUSH1 0x64 DUP5 PUSH4 0xFFFFFFFF AND GT ISZERO PUSH2 0x201B JUMPI PUSH1 0x40 MLOAD PUSH32 0x8C379A000000000000000000000000000000000000000000000000000000000 DUP2 MSTORE PUSH1 0x4 ADD PUSH2 0x2012 SWAP1 PUSH2 0x6AAB JUMP JUMPDEST PUSH1 0x40 MLOAD DUP1 SWAP2 SUB SWAP1 REVERT JUMPDEST PUSH2 0x2023 PUSH2 0x3E60 JUMP JUMPDEST DUP7 PUSH1 0x65 PUSH1 0x0 PUSH2 0x100 EXP DUP2 SLOAD DUP2 PUSH20 0xFFFFFFFFFFFFFFFFFFFFFFFFFFFFFFFFFFFFFFFF MUL NOT AND SWAP1 DUP4 PUSH20 0xFFFFFFFFFFFFFFFFFFFFFFFFFFFFFFFFFFFFFFFF AND MUL OR SWAP1 SSTORE POP DUP6 PUSH1 0x6C DUP2 SWAP1 SSTORE POP DUP5 PUSH1 0x6D DUP2 SWAP1 SSTORE POP DUP4 PUSH1 0x6E PUSH1 0x0 PUSH2 0x100 EXP DUP2 SLOAD DUP2 PUSH4 0xFFFFFFFF MUL NOT AND SWAP1 DUP4 PUSH4 0xFFFFFFFF AND MUL OR SWAP1 SSTORE POP DUP3 PUSH1 0x6E PUSH1 0x4 PUSH2 0x100 EXP DUP2 SLOAD DUP2 PUSH4 0xFFFFFFFF MUL NOT AND SWAP1 DUP4 PUSH4 0xFFFFFFFF AND MUL OR SWAP1 SSTORE POP DUP2 PUSH1 0x6F DUP2 SWAP1 SSTORE POP DUP1 ISZERO PUSH2 0x2114 JUMPI PUSH1 0x0 DUP1 PUSH1 0x1 PUSH2 0x100 EXP DUP2 SLOAD DUP2 PUSH1 0xFF MUL NOT AND SWAP1 DUP4 ISZERO ISZERO MUL OR SWAP1 SSTORE POP PUSH32 0x7F26B83FF96E1F2B6A682F133852F6798A09C465DA95921460CEFB3847402498 PUSH1 0x1 PUSH1 0x40 MLOAD PUSH2 0x210B SWAP2 SWAP1 PUSH2 0x6B06 JUMP JUMPDEST PUSH1 0x40 MLOAD DUP1 SWAP2 SUB SWAP1 LOG1 JUMPDEST POP POP POP POP POP POP POP JUMP JUMPDEST PUSH1 0x0 PUSH1 0x68 PUSH1 0x0 DUP4 PUSH20 0xFFFFFFFFFFFFFFFFFFFFFFFFFFFFFFFFFFFFFFFF AND PUSH20 0xFFFFFFFFFFFFFFFFFFFFFFFFFFFFFFFFFFFFFFFF AND DUP2 MSTORE PUSH1 0x20 ADD SWAP1 DUP2 MSTORE PUSH1 0x20 ADD PUSH1 0x0 KECCAK256 SLOAD SWAP1 POP SWAP2 SWAP1 POP JUMP JUMPDEST PUSH2 0x216F CALLER PUSH2 0x36F1 JUMP JUMPDEST PUSH2 0x21AE JUMPI PUSH1 0x40 MLOAD PUSH32 0x8C379A000000000000000000000000000000000000000000000000000000000 DUP2 MSTORE PUSH1 0x4 ADD PUSH2 0x21A5 SWAP1 PUSH2 0x5DE4 JUMP JUMPDEST PUSH1 0x40 MLOAD DUP1 SWAP2 SUB SWAP1 REVERT JUMPDEST CALLVALUE PUSH1 0x68 PUSH1 0x0 CALLER PUSH20 0xFFFFFFFFFFFFFFFFFFFFFFFFFFFFFFFFFFFFFFFF AND PUSH20 0xFFFFFFFFFFFFFFFFFFFFFFFFFFFFFFFFFFFFFFFF AND DUP2 MSTORE PUSH1 0x20 ADD SWAP1 DUP2 MSTORE PUSH1 0x20 ADD PUSH1 0x0 KECCAK256 PUSH1 0x0 DUP3 DUP3 SLOAD PUSH2 0x21FD SWAP2 SWAP1 PUSH2 0x66E4 JUMP JUMPDEST SWAP3 POP POP DUP2 SWAP1 SSTORE POP PUSH32 0x456E0F4EA86AC283092C750200E8C877F6AD8901AE575F90E02081ACD455AF84 CALLER CALLVALUE PUSH1 0x40 MLOAD PUSH2 0x2235 SWAP3 SWAP2 SWAP1 PUSH2 0x5D6F JUMP JUMPDEST PUSH1 0x40 MLOAD DUP1 SWAP2 SUB SWAP1 LOG1 JUMP JUMPDEST PUSH1 0x0 PUSH1 0x50 DUP3 MLOAD EQ PUSH2 0x2285 JUMPI PUSH1 0x40 MLOAD PUSH32 0x8C379A000000000000000000000000000000000000000000000000000000000 DUP2 MSTORE PUSH1 0x4 ADD PUSH2 0x227C SWAP1 PUSH2 0x6B6D JUMP JUMPDEST PUSH1 0x40 MLOAD DUP1 SWAP2 SUB SWAP1 REVERT JUMPDEST PUSH2 0x2290 DUP3 PUSH1 0x44 PUSH2 0x3EC1 JUMP JUMPDEST PUSH4 0xFFFFFFFF AND SWAP1 POP SWAP2 SWAP1 POP JUMP JUMPDEST PUSH1 0x0 PUSH2 0x22A8 CALLER PUSH2 0x36F1 JUMP JUMPDEST PUSH2 0x22E7 JUMPI PUSH1 0x40 MLOAD PUSH32 0x8C379A000000000000000000000000000000000000000000000000000000000 DUP2 MSTORE PUSH1 0x4 ADD PUSH2 0x22DE SWAP1 PUSH2 0x5DE4 JUMP JUMPDEST PUSH1 0x40 MLOAD DUP1 SWAP2 SUB SWAP1 REVERT JUMPDEST PUSH1 0x71 PUSH1 0x0 SWAP1 SLOAD SWAP1 PUSH2 0x100 EXP SWAP1 DIV PUSH1 0xFF AND ISZERO PUSH2 0x2337 JUMPI PUSH1 0x40 MLOAD PUSH32 0x8C379A000000000000000000000000000000000000000000000000000000000 DUP2 MSTORE PUSH1 0x4 ADD PUSH2 0x232E SWAP1 PUSH2 0x606B JUMP JUMPDEST PUSH1 0x40 MLOAD DUP1 SWAP2 SUB SWAP1 REVERT JUMPDEST PUSH1 0x1 PUSH1 0x71 PUSH1 0x0 PUSH2 0x100 EXP DUP2 SLOAD DUP2 PUSH1 0xFF MUL NOT AND SWAP1 DUP4 ISZERO ISZERO MUL OR SWAP1 SSTORE POP DUP2 PUSH1 0x40 ADD MLOAD PUSH20 0xFFFFFFFFFFFFFFFFFFFFFFFFFFFFFFFFFFFFFFFF AND CALLER PUSH20 0xFFFFFFFFFFFFFFFFFFFFFFFFFFFFFFFFFFFFFFFF AND EQ PUSH2 0x23C4 JUMPI PUSH1 0x40 MLOAD PUSH32 0x8C379A000000000000000000000000000000000000000000000000000000000 DUP2 MSTORE PUSH1 0x4 ADD PUSH2 0x23BB SWAP1 PUSH2 0x6BD9 JUMP JUMPDEST PUSH1 0x40 MLOAD DUP1 SWAP2 SUB SWAP1 REVERT JUMPDEST DUP2 PUSH2 0x180 ADD MLOAD CALLVALUE PUSH1 0x66 PUSH1 0x0 DUP6 PUSH1 0x40 ADD MLOAD PUSH20 0xFFFFFFFFFFFFFFFFFFFFFFFFFFFFFFFFFFFFFFFF AND PUSH20 0xFFFFFFFFFFFFFFFFFFFFFFFFFFFFFFFFFFFFFFFF AND DUP2 MSTORE PUSH1 0x20 ADD SWAP1 DUP2 MSTORE PUSH1 0x20 ADD PUSH1 0x0 KECCAK256 SLOAD PUSH2 0x2419 SWAP2 SWAP1 PUSH2 0x66E4 JUMP JUMPDEST LT ISZERO PUSH2 0x245A JUMPI PUSH1 0x40 MLOAD PUSH32 0x8C379A000000000000000000000000000000000000000000000000000000000 DUP2 MSTORE PUSH1 0x4 ADD PUSH2 0x2451 SWAP1 PUSH2 0x5C3A JUMP JUMPDEST PUSH1 0x40 MLOAD DUP1 SWAP2 SUB SWAP1 REVERT JUMPDEST PUSH1 0x0 PUSH2 0x2465 DUP4 PUSH2 0x34E8 JUMP JUMPDEST SWAP1 POP PUSH1 0x0 PUSH1 0xFF AND PUSH1 0x72 PUSH1 0x0 DUP4 DUP2 MSTORE PUSH1 0x20 ADD SWAP1 DUP2 MSTORE PUSH1 0x20 ADD PUSH1 0x0 KECCAK256 PUSH1 0x0 SWAP1 SLOAD SWAP1 PUSH2 0x100 EXP SWAP1 DIV PUSH1 0xFF AND PUSH1 0xFF AND EQ PUSH2 0x24D0 JUMPI PUSH1 0x40 MLOAD PUSH32 0x8C379A000000000000000000000000000000000000000000000000000000000 DUP2 MSTORE PUSH1 0x4 ADD PUSH2 0x24C7 SWAP1 PUSH2 0x6C45 JUMP JUMPDEST PUSH1 0x40 MLOAD DUP1 SWAP2 SUB SWAP1 REVERT JUMPDEST PUSH2 0x24DE DUP4 PUSH1 0x40 ADD MLOAD CALLVALUE PUSH2 0x3BE7 JUMP JUMPDEST PUSH2 0x88B8 PUSH2 0xFFFF AND DUP4 PUSH2 0x140 ADD MLOAD PUSH2 0x24F5 SWAP2 SWAP1 PUSH2 0x6C65 JUMP JUMPDEST PUSH4 0xFFFFFFFF AND GAS LT ISZERO PUSH2 0x253D JUMPI PUSH1 0x40 MLOAD PUSH32 0x8C379A000000000000000000000000000000000000000000000000000000000 DUP2 MSTORE PUSH1 0x4 ADD PUSH2 0x2534 SWAP1 PUSH2 0x6CE9 JUMP JUMPDEST PUSH1 0x40 MLOAD DUP1 SWAP2 SUB SWAP1 REVERT JUMPDEST PUSH1 0x0 DUP4 PUSH2 0x100 ADD MLOAD PUSH20 0xFFFFFFFFFFFFFFFFFFFFFFFFFFFFFFFFFFFFFFFF AND DUP5 PUSH2 0x140 ADD MLOAD PUSH4 0xFFFFFFFF AND DUP6 PUSH2 0x180 ADD MLOAD DUP7 PUSH2 0x120 ADD MLOAD PUSH1 0x40 MLOAD PUSH2 0x2580 SWAP2 SWAP1 PUSH2 0x67ED JUMP JUMPDEST PUSH1 0x0 PUSH1 0x40 MLOAD DUP1 DUP4 SUB DUP2 DUP6 DUP9 DUP9 CALL SWAP4 POP POP POP POP RETURNDATASIZE DUP1 PUSH1 0x0 DUP2 EQ PUSH2 0x25BE JUMPI PUSH1 0x40 MLOAD SWAP2 POP PUSH1 0x1F NOT PUSH1 0x3F RETURNDATASIZE ADD AND DUP3 ADD PUSH1 0x40 MSTORE RETURNDATASIZE DUP3 MSTORE RETURNDATASIZE PUSH1 0x0 PUSH1 0x20 DUP5 ADD RETURNDATACOPY PUSH2 0x25C3 JUMP JUMPDEST PUSH1 0x60 SWAP2 POP JUMPDEST POP POP SWAP1 POP PUSH4 0xFFFFFFFF DUP1 AND TIMESTAMP GT ISZERO PUSH2 0x2610 JUMPI PUSH1 0x40 MLOAD PUSH32 0x8C379A000000000000000000000000000000000000000000000000000000000 DUP2 MSTORE PUSH1 0x4 ADD PUSH2 0x2607 SWAP1 PUSH2 0x6D55 JUMP JUMPDEST PUSH1 0x40 MLOAD DUP1 SWAP2 SUB SWAP1 REVERT JUMPDEST TIMESTAMP PUSH1 0x6A PUSH1 0x0 DUP5 DUP2 MSTORE PUSH1 0x20 ADD SWAP1 DUP2 MSTORE PUSH1 0x20 ADD PUSH1 0x0 KECCAK256 PUSH1 0x0 ADD PUSH1 0x0 PUSH2 0x100 EXP DUP2 SLOAD DUP2 PUSH4 0xFFFFFFFF MUL NOT AND SWAP1 DUP4 PUSH4 0xFFFFFFFF AND MUL OR SWAP1 SSTORE POP DUP1 ISZERO PUSH2 0x268E JUMPI PUSH1 0x1 PUSH1 0x6A PUSH1 0x0 DUP5 DUP2 MSTORE PUSH1 0x20 ADD SWAP1 DUP2 MSTORE PUSH1 0x20 ADD PUSH1 0x0 KECCAK256 PUSH1 0x0 ADD PUSH1 0x4 PUSH2 0x100 EXP DUP2 SLOAD DUP2 PUSH1 0xFF MUL NOT AND SWAP1 DUP4 ISZERO ISZERO MUL OR SWAP1 SSTORE POP PUSH2 0x268D DUP5 PUSH1 0x40 ADD MLOAD DUP6 PUSH2 0x180 ADD MLOAD PUSH2 0x3FF0 JUMP JUMPDEST JUMPDEST PUSH32 0xBFC7404E6FE464F0646FE2C6AB942B92D56BE722BB39F8C6BC4830D2D32FB80D CALLER DUP6 PUSH2 0x100 ADD MLOAD DUP7 PUSH2 0x140 ADD MLOAD DUP8 PUSH2 0x180 ADD MLOAD DUP9 PUSH2 0x120 ADD MLOAD DUP7 DUP9 PUSH1 0x40 MLOAD PUSH2 0x26DD SWAP8 SWAP7 SWAP6 SWAP5 SWAP4 SWAP3 SWAP2 SWAP1 PUSH2 0x687F JUMP JUMPDEST PUSH1 0x40 MLOAD DUP1 SWAP2 SUB SWAP1 LOG1 PUSH1 0x1 PUSH1 0x72 PUSH1 0x0 DUP5 DUP2 MSTORE PUSH1 0x20 ADD SWAP1 DUP2 MSTORE PUSH1 0x20 ADD PUSH1 0x0 KECCAK256 PUSH1 0x0 PUSH2 0x100 EXP DUP2 SLOAD DUP2 PUSH1 0xFF MUL NOT AND SWAP1 DUP4 PUSH1 0xFF AND MUL OR SWAP1 SSTORE POP DUP1 SWAP3 POP POP POP PUSH1 0x0 PUSH1 0x71 PUSH1 0x0 PUSH2 0x100 EXP DUP2 SLOAD DUP2 PUSH1 0xFF MUL NOT AND SWAP1 DUP4 ISZERO ISZERO MUL OR SWAP1 SSTORE POP SWAP2 SWAP1 POP JUMP JUMPDEST PUSH1 0x0 PUSH1 0x6E PUSH1 0x4 SWAP1 SLOAD SWAP1 PUSH2 0x100 EXP SWAP1 DIV PUSH4 0xFFFFFFFF AND PUSH4 0xFFFFFFFF AND SWAP1 POP SWAP1 JUMP JUMPDEST PUSH1 0x0 PUSH1 0x6E PUSH1 0x0 SWAP1 SLOAD SWAP1 PUSH2 0x100 EXP SWAP1 DIV PUSH4 0xFFFFFFFF AND PUSH4 0xFFFFFFFF AND SWAP1 POP SWAP1 JUMP JUMPDEST PUSH2 0x2780 CALLER PUSH2 0x36F1 JUMP JUMPDEST PUSH2 0x27BF JUMPI PUSH1 0x40 MLOAD PUSH32 0x8C379A000000000000000000000000000000000000000000000000000000000 DUP2 MSTORE PUSH1 0x4 ADD PUSH2 0x27B6 SWAP1 PUSH2 0x5DE4 JUMP JUMPDEST PUSH1 0x40 MLOAD DUP1 SWAP2 SUB SWAP1 REVERT JUMPDEST PUSH2 0x27C9 CALLER CALLVALUE PUSH2 0x3BE7 JUMP JUMPDEST JUMP JUMPDEST PUSH1 0x71 PUSH1 0x0 SWAP1 SLOAD SWAP1 PUSH2 0x100 EXP SWAP1 DIV PUSH1 0xFF AND ISZERO PUSH2 0x281B JUMPI PUSH1 0x40 MLOAD PUSH32 0x8C379A000000000000000000000000000000000000000000000000000000000 DUP2 MSTORE PUSH1 0x4 ADD PUSH2 0x2812 SWAP1 PUSH2 0x606B JUMP JUMPDEST PUSH1 0x40 MLOAD DUP1 SWAP2 SUB SWAP1 REVERT JUMPDEST PUSH1 0x1 PUSH1 0x71 PUSH1 0x0 PUSH2 0x100 EXP DUP2 SLOAD DUP2 PUSH1 0xFF MUL NOT AND SWAP1 DUP4 ISZERO ISZERO MUL OR SWAP1 SSTORE POP PUSH1 0x0 PUSH2 0x2841 DUP7 PUSH2 0x4083 JUMP JUMPDEST SWAP1 POP PUSH1 0x2 PUSH1 0x73 PUSH1 0x0 DUP4 DUP2 MSTORE PUSH1 0x20 ADD SWAP1 DUP2 MSTORE PUSH1 0x20 ADD PUSH1 0x0 KECCAK256 PUSH1 0x0 SWAP1 SLOAD SWAP1 PUSH2 0x100 EXP SWAP1 DIV PUSH1 0xFF AND PUSH1 0xFF AND EQ PUSH2 0x28A9 JUMPI PUSH1 0x40 MLOAD PUSH32 0x8C379A000000000000000000000000000000000000000000000000000000000 DUP2 MSTORE PUSH1 0x4 ADD PUSH2 0x28A0 SWAP1 PUSH2 0x6DC1 JUMP JUMPDEST PUSH1 0x40 MLOAD DUP1 SWAP2 SUB SWAP1 REVERT JUMPDEST DUP6 PUSH2 0x200 ADD MLOAD PUSH4 0xFFFFFFFF AND TIMESTAMP GT ISZERO PUSH2 0x28F7 JUMPI PUSH1 0x40 MLOAD PUSH32 0x8C379A000000000000000000000000000000000000000000000000000000000 DUP2 MSTORE PUSH1 0x4 ADD PUSH2 0x28EE SWAP1 PUSH2 0x6E2D JUMP JUMPDEST PUSH1 0x40 MLOAD DUP1 SWAP2 SUB SWAP1 REVERT JUMPDEST DUP6 PUSH2 0x220 ADD MLOAD PUSH4 0xFFFFFFFF AND NUMBER GT ISZERO PUSH2 0x2945 JUMPI PUSH1 0x40 MLOAD PUSH32 0x8C379A000000000000000000000000000000000000000000000000000000000 DUP2 MSTORE PUSH1 0x4 ADD PUSH2 0x293C SWAP1 PUSH2 0x6E99 JUMP JUMPDEST PUSH1 0x40 MLOAD DUP1 SWAP2 SUB SWAP1 REVERT JUMPDEST DUP6 PUSH1 0x20 ADD MLOAD PUSH20 0xFFFFFFFFFFFFFFFFFFFFFFFFFFFFFFFFFFFFFFFF AND CALLER PUSH20 0xFFFFFFFFFFFFFFFFFFFFFFFFFFFFFFFFFFFFFFFF AND EQ PUSH2 0x29B7 JUMPI PUSH1 0x40 MLOAD PUSH32 0x8C379A000000000000000000000000000000000000000000000000000000000 DUP2 MSTORE PUSH1 0x4 ADD PUSH2 0x29AE SWAP1 PUSH2 0x6F05 JUMP JUMPDEST PUSH1 0x40 MLOAD DUP1 SWAP2 SUB SWAP1 REVERT JUMPDEST DUP6 PUSH2 0x1C0 ADD MLOAD PUSH2 0xFFFF AND PUSH1 0x65 PUSH1 0x0 SWAP1 SLOAD SWAP1 PUSH2 0x100 EXP SWAP1 DIV PUSH20 0xFFFFFFFFFFFFFFFFFFFFFFFFFFFFFFFFFFFFFFFF AND PUSH20 0xFFFFFFFFFFFFFFFFFFFFFFFFFFFFFFFFFFFFFFFF AND PUSH4 0x5B644587 DUP8 DUP8 DUP8 DUP8 PUSH1 0x40 MLOAD DUP6 PUSH4 0xFFFFFFFF AND PUSH1 0xE0 SHL DUP2 MSTORE PUSH1 0x4 ADD PUSH2 0x2A22 SWAP5 SWAP4 SWAP3 SWAP2 SWAP1 PUSH2 0x6FE3 JUMP JUMPDEST PUSH1 0x20 PUSH1 0x40 MLOAD DUP1 DUP4 SUB DUP2 DUP7 GAS STATICCALL ISZERO DUP1 ISZERO PUSH2 0x2A3F JUMPI RETURNDATASIZE PUSH1 0x0 DUP1 RETURNDATACOPY RETURNDATASIZE PUSH1 0x0 REVERT JUMPDEST POP POP POP POP PUSH1 0x40 MLOAD RETURNDATASIZE PUSH1 0x1F NOT PUSH1 0x1F DUP3 ADD AND DUP3 ADD DUP1 PUSH1 0x40 MSTORE POP DUP2 ADD SWAP1 PUSH2 0x2A63 SWAP2 SWAP1 PUSH2 0x705B JUMP JUMPDEST SLT ISZERO PUSH2 0x2AA4 JUMPI PUSH1 0x40 MLOAD PUSH32 0x8C379A000000000000000000000000000000000000000000000000000000000 DUP2 MSTORE PUSH1 0x4 ADD PUSH2 0x2A9B SWAP1 PUSH2 0x70FA JUMP JUMPDEST PUSH1 0x40 MLOAD DUP1 SWAP2 SUB SWAP1 REVERT JUMPDEST PUSH2 0x2AE0 DUP7 DUP8 PUSH1 0xC0 ADD MLOAD PUSH1 0x6A PUSH1 0x0 DUP6 DUP2 MSTORE PUSH1 0x20 ADD SWAP1 DUP2 MSTORE PUSH1 0x20 ADD PUSH1 0x0 KECCAK256 PUSH1 0x0 ADD PUSH1 0x0 SWAP1 SLOAD SWAP1 PUSH2 0x100 EXP SWAP1 DIV PUSH4 0xFFFFFFFF AND PUSH4 0xFFFFFFFF AND TIMESTAMP PUSH2 0x410E JUMP JUMPDEST ISZERO PUSH2 0x2B96 JUMPI PUSH1 0x0 PUSH2 0x2B38 DUP8 PUSH1 0xC0 ADD MLOAD PUSH1 0x68 PUSH1 0x0 DUP11 PUSH1 0x20 ADD MLOAD PUSH20 0xFFFFFFFFFFFFFFFFFFFFFFFFFFFFFFFFFFFFFFFF AND PUSH20 0xFFFFFFFFFFFFFFFFFFFFFFFFFFFFFFFFFFFFFFFF AND DUP2 MSTORE PUSH1 0x20 ADD SWAP1 DUP2 MSTORE PUSH1 0x20 ADD PUSH1 0x0 KECCAK256 SLOAD PUSH2 0x3BCE JUMP JUMPDEST SWAP1 POP DUP1 PUSH1 0x68 PUSH1 0x0 DUP10 PUSH1 0x20 ADD MLOAD PUSH20 0xFFFFFFFFFFFFFFFFFFFFFFFFFFFFFFFFFFFFFFFF AND PUSH20 0xFFFFFFFFFFFFFFFFFFFFFFFFFFFFFFFFFFFFFFFF AND DUP2 MSTORE PUSH1 0x20 ADD SWAP1 DUP2 MSTORE PUSH1 0x20 ADD PUSH1 0x0 KECCAK256 PUSH1 0x0 DUP3 DUP3 SLOAD PUSH2 0x2B8D SWAP2 SWAP1 PUSH2 0x5C89 JUMP JUMPDEST SWAP3 POP POP DUP2 SWAP1 SSTORE POP POP JUMPDEST PUSH2 0x2BA9 DUP7 PUSH1 0x60 ADD MLOAD DUP8 PUSH2 0x140 ADD MLOAD PUSH2 0x3787 JUMP JUMPDEST PUSH1 0x73 PUSH1 0x0 DUP3 DUP2 MSTORE PUSH1 0x20 ADD SWAP1 DUP2 MSTORE PUSH1 0x20 ADD PUSH1 0x0 KECCAK256 PUSH1 0x0 PUSH2 0x100 EXP DUP2 SLOAD SWAP1 PUSH1 0xFF MUL NOT AND SWAP1 SSTORE POP PUSH1 0x0 PUSH1 0x71 PUSH1 0x0 PUSH2 0x100 EXP DUP2 SLOAD DUP2 PUSH1 0xFF MUL NOT AND SWAP1 DUP4 ISZERO ISZERO MUL OR SWAP1 SSTORE POP POP POP POP POP POP JUMP JUMPDEST PUSH1 0x0 PUSH1 0x6C SLOAD SWAP1 POP SWAP1 JUMP JUMPDEST PUSH1 0x71 PUSH1 0x0 SWAP1 SLOAD SWAP1 PUSH2 0x100 EXP SWAP1 DIV PUSH1 0xFF AND ISZERO PUSH2 0x2C49 JUMPI PUSH1 0x40 MLOAD PUSH32 0x8C379A000000000000000000000000000000000000000000000000000000000 DUP2 MSTORE PUSH1 0x4 ADD PUSH2 0x2C40 SWAP1 PUSH2 0x606B JUMP JUMPDEST PUSH1 0x40 MLOAD DUP1 SWAP2 SUB SWAP1 REVERT JUMPDEST PUSH1 0x1 PUSH1 0x71 PUSH1 0x0 PUSH2 0x100 EXP DUP2 SLOAD DUP2 PUSH1 0xFF MUL NOT AND SWAP1 DUP4 ISZERO ISZERO MUL OR SWAP1 SSTORE POP PUSH1 0x0 PUSH2 0x2C6F DUP4 PUSH2 0x4083 JUMP JUMPDEST SWAP1 POP PUSH20 0x0 PUSH4 0x1A86B550 DUP5 PUSH1 0x20 ADD MLOAD DUP4 DUP6 PUSH1 0x40 MLOAD DUP5 PUSH4 0xFFFFFFFF AND PUSH1 0xE0 SHL DUP2 MSTORE PUSH1 0x4 ADD PUSH2 0x2CB0 SWAP4 SWAP3 SWAP2 SWAP1 PUSH2 0x616A JUMP JUMPDEST PUSH1 0x20 PUSH1 0x40 MLOAD DUP1 DUP4 SUB DUP2 DUP7 GAS DELEGATECALL ISZERO DUP1 ISZERO PUSH2 0x2CCD JUMPI RETURNDATASIZE PUSH1 0x0 DUP1 RETURNDATACOPY RETURNDATASIZE PUSH1 0x0 REVERT JUMPDEST POP POP POP POP PUSH1 0x40 MLOAD RETURNDATASIZE PUSH1 0x1F NOT PUSH1 0x1F DUP3 ADD AND DUP3 ADD DUP1 PUSH1 0x40 MSTORE POP DUP2 ADD SWAP1 PUSH2 0x2CF1 SWAP2 SWAP1 PUSH2 0x61BD JUMP JUMPDEST PUSH2 0x2D30 JUMPI PUSH1 0x40 MLOAD PUSH32 0x8C379A000000000000000000000000000000000000000000000000000000000 DUP2 MSTORE PUSH1 0x4 ADD PUSH2 0x2D27 SWAP1 PUSH2 0x7166 JUMP JUMPDEST PUSH1 0x40 MLOAD DUP1 SWAP2 SUB SWAP1 REVERT JUMPDEST TIMESTAMP DUP4 PUSH2 0x180 ADD MLOAD PUSH4 0xFFFFFFFF AND LT PUSH2 0x2D7D JUMPI PUSH1 0x40 MLOAD PUSH32 0x8C379A000000000000000000000000000000000000000000000000000000000 DUP2 MSTORE PUSH1 0x4 ADD PUSH2 0x2D74 SWAP1 PUSH2 0x71D2 JUMP JUMPDEST PUSH1 0x40 MLOAD DUP1 SWAP2 SUB SWAP1 REVERT JUMPDEST PUSH1 0x2 PUSH1 0x73 PUSH1 0x0 DUP4 DUP2 MSTORE PUSH1 0x20 ADD SWAP1 DUP2 MSTORE PUSH1 0x20 ADD PUSH1 0x0 KECCAK256 PUSH1 0x0 SWAP1 SLOAD SWAP1 PUSH2 0x100 EXP SWAP1 DIV PUSH1 0xFF AND PUSH1 0xFF AND SUB PUSH2 0x2DE3 JUMPI PUSH1 0x40 MLOAD PUSH32 0x8C379A000000000000000000000000000000000000000000000000000000000 DUP2 MSTORE PUSH1 0x4 ADD PUSH2 0x2DDA SWAP1 PUSH2 0x723E JUMP JUMPDEST PUSH1 0x40 MLOAD DUP1 SWAP2 SUB SWAP1 REVERT JUMPDEST PUSH1 0x0 DUP4 PUSH1 0xA0 ADD MLOAD DUP5 PUSH2 0x140 ADD MLOAD PUSH2 0x2DFA SWAP2 SWAP1 PUSH2 0x66E4 JUMP JUMPDEST SWAP1 POP DUP1 CALLVALUE EQ PUSH2 0x2E3E JUMPI PUSH1 0x40 MLOAD PUSH32 0x8C379A000000000000000000000000000000000000000000000000000000000 DUP2 MSTORE PUSH1 0x4 ADD PUSH2 0x2E35 SWAP1 PUSH2 0x72D0 JUMP JUMPDEST PUSH1 0x40 MLOAD DUP1 SWAP2 SUB SWAP1 REVERT JUMPDEST DUP1 SELFBALANCE LT ISZERO PUSH2 0x2E81 JUMPI PUSH1 0x40 MLOAD PUSH32 0x8C379A000000000000000000000000000000000000000000000000000000000 DUP2 MSTORE PUSH1 0x4 ADD PUSH2 0x2E78 SWAP1 PUSH2 0x733C JUMP JUMPDEST PUSH1 0x40 MLOAD DUP1 SWAP2 SUB SWAP1 REVERT JUMPDEST DUP1 PUSH1 0x67 PUSH1 0x0 DUP7 PUSH1 0x20 ADD MLOAD PUSH20 0xFFFFFFFFFFFFFFFFFFFFFFFFFFFFFFFFFFFFFFFF AND PUSH20 0xFFFFFFFFFFFFFFFFFFFFFFFFFFFFFFFFFFFFFFFF AND DUP2 MSTORE PUSH1 0x20 ADD SWAP1 DUP2 MSTORE PUSH1 0x20 ADD PUSH1 0x0 KECCAK256 SLOAD LT ISZERO PUSH2 0x2F07 JUMPI PUSH1 0x40 MLOAD PUSH32 0x8C379A000000000000000000000000000000000000000000000000000000000 DUP2 MSTORE PUSH1 0x4 ADD PUSH2 0x2EFE SWAP1 PUSH2 0x73CE JUMP JUMPDEST PUSH1 0x40 MLOAD DUP1 SWAP2 SUB SWAP1 REVERT JUMPDEST PUSH1 0x2 PUSH1 0x73 PUSH1 0x0 DUP5 DUP2 MSTORE PUSH1 0x20 ADD SWAP1 DUP2 MSTORE PUSH1 0x20 ADD PUSH1 0x0 KECCAK256 PUSH1 0x0 PUSH2 0x100 EXP DUP2 SLOAD DUP2 PUSH1 0xFF MUL NOT AND SWAP1 DUP4 PUSH1 0xFF AND MUL OR SWAP1 SSTORE POP PUSH2 0x2F42 DUP5 PUSH1 0x20 ADD MLOAD DUP3 PUSH2 0x43C3 JUMP JUMPDEST PUSH1 0x0 PUSH1 0x65 PUSH1 0x0 SWAP1 SLOAD SWAP1 PUSH2 0x100 EXP SWAP1 DIV PUSH20 0xFFFFFFFFFFFFFFFFFFFFFFFFFFFFFFFFFFFFFFFF AND PUSH20 0xFFFFFFFFFFFFFFFFFFFFFFFFFFFFFFFFFFFFFFFF AND DUP3 DUP7 PUSH2 0x120 ADD MLOAD PUSH4 0xFFFFFFFF AND SWAP1 PUSH1 0x40 MLOAD PUSH2 0x2F97 SWAP1 PUSH2 0x5CEE JUMP JUMPDEST PUSH1 0x0 PUSH1 0x40 MLOAD DUP1 DUP4 SUB DUP2 DUP6 DUP9 DUP9 CALL SWAP4 POP POP POP POP RETURNDATASIZE DUP1 PUSH1 0x0 DUP2 EQ PUSH2 0x2FD5 JUMPI PUSH1 0x40 MLOAD SWAP2 POP PUSH1 0x1F NOT PUSH1 0x3F RETURNDATASIZE ADD AND DUP3 ADD PUSH1 0x40 MSTORE RETURNDATASIZE DUP3 MSTORE RETURNDATASIZE PUSH1 0x0 PUSH1 0x20 DUP5 ADD RETURNDATACOPY PUSH2 0x2FDA JUMP JUMPDEST PUSH1 0x60 SWAP2 POP JUMPDEST POP POP SWAP1 POP DUP1 PUSH2 0x301E JUMPI PUSH1 0x40 MLOAD PUSH32 0x8C379A000000000000000000000000000000000000000000000000000000000 DUP2 MSTORE PUSH1 0x4 ADD PUSH2 0x3015 SWAP1 PUSH2 0x7460 JUMP JUMPDEST PUSH1 0x40 MLOAD DUP1 SWAP2 SUB SWAP1 REVERT JUMPDEST PUSH32 0xED3E6789842B3369F529C844AB6575BE53F29FFEABD4D8B84C04C8431535B1EC CALLER DUP4 DUP6 PUSH1 0x73 PUSH1 0x0 DUP9 DUP2 MSTORE PUSH1 0x20 ADD SWAP1 DUP2 MSTORE PUSH1 0x20 ADD PUSH1 0x0 KECCAK256 PUSH1 0x0 SWAP1 SLOAD SWAP1 PUSH2 0x100 EXP SWAP1 DIV PUSH1 0xFF AND PUSH1 0x40 MLOAD PUSH2 0x3073 SWAP5 SWAP4 SWAP3 SWAP2 SWAP1 PUSH2 0x74B1 JUMP JUMPDEST PUSH1 0x40 MLOAD DUP1 SWAP2 SUB SWAP1 LOG1 POP POP POP PUSH1 0x0 PUSH1 0x71 PUSH1 0x0 PUSH2 0x100 EXP DUP2 SLOAD DUP2 PUSH1 0xFF MUL NOT AND SWAP1 DUP4 ISZERO ISZERO MUL OR SWAP1 SSTORE POP POP POP JUMP JUMPDEST PUSH2 0x30A5 PUSH2 0x3CF9 JUMP JUMPDEST PUSH1 0x0 PUSH20 0xFFFFFFFFFFFFFFFFFFFFFFFFFFFFFFFFFFFFFFFF AND DUP2 PUSH20 0xFFFFFFFFFFFFFFFFFFFFFFFFFFFFFFFFFFFFFFFF AND SUB PUSH2 0x3114 JUMPI PUSH1 0x40 MLOAD PUSH32 0x8C379A000000000000000000000000000000000000000000000000000000000 DUP2 MSTORE PUSH1 0x4 ADD PUSH2 0x310B SWAP1 PUSH2 0x7568 JUMP JUMPDEST PUSH1 0x40 MLOAD DUP1 SWAP2 SUB SWAP1 REVERT JUMPDEST PUSH2 0x311D DUP2 PUSH2 0x3D77 JUMP JUMPDEST POP JUMP JUMPDEST PUSH1 0x0 PUSH2 0x312B DUP3 PUSH2 0x4083 JUMP JUMPDEST SWAP1 POP SWAP2 SWAP1 POP JUMP JUMPDEST PUSH1 0x0 PUSH1 0x66 PUSH1 0x0 DUP4 PUSH20 0xFFFFFFFFFFFFFFFFFFFFFFFFFFFFFFFFFFFFFFFF AND PUSH20 0xFFFFFFFFFFFFFFFFFFFFFFFFFFFFFFFFFFFFFFFF AND DUP2 MSTORE PUSH1 0x20 ADD SWAP1 DUP2 MSTORE PUSH1 0x20 ADD PUSH1 0x0 KECCAK256 SLOAD SWAP1 POP SWAP2 SWAP1 POP JUMP JUMPDEST PUSH1 0x0 PUSH1 0x6D SLOAD SWAP1 POP SWAP1 JUMP JUMPDEST PUSH1 0x0 PUSH1 0x65 PUSH1 0x0 SWAP1 SLOAD SWAP1 PUSH2 0x100 EXP SWAP1 DIV PUSH20 0xFFFFFFFFFFFFFFFFFFFFFFFFFFFFFFFFFFFFFFFF AND SWAP1 POP SWAP1 JUMP JUMPDEST PUSH1 0x0 CALLER PUSH20 0xFFFFFFFFFFFFFFFFFFFFFFFFFFFFFFFFFFFFFFFF AND ORIGIN PUSH20 0xFFFFFFFFFFFFFFFFFFFFFFFFFFFFFFFFFFFFFFFF AND EQ PUSH2 0x321F JUMPI PUSH1 0x40 MLOAD PUSH32 0x8C379A000000000000000000000000000000000000000000000000000000000 DUP2 MSTORE PUSH1 0x4 ADD PUSH2 0x3216 SWAP1 PUSH2 0x75D4 JUMP JUMPDEST PUSH1 0x40 MLOAD DUP1 SWAP2 SUB SWAP1 REVERT JUMPDEST PUSH2 0x322E DUP10 DUP10 DUP10 DUP10 DUP10 DUP10 DUP10 PUSH2 0x4456 JUMP JUMPDEST PUSH1 0x6C SLOAD CALLVALUE LT ISZERO PUSH2 0x3273 JUMPI PUSH1 0x40 MLOAD PUSH32 0x8C379A000000000000000000000000000000000000000000000000000000000 DUP2 MSTORE PUSH1 0x4 ADD PUSH2 0x326A SWAP1 PUSH2 0x7640 JUMP JUMPDEST PUSH1 0x40 MLOAD DUP1 SWAP2 SUB SWAP1 REVERT JUMPDEST PUSH1 0x0 PUSH1 0x6B PUSH1 0x0 CALLER PUSH20 0xFFFFFFFFFFFFFFFFFFFFFFFFFFFFFFFFFFFFFFFF AND PUSH20 0xFFFFFFFFFFFFFFFFFFFFFFFFFFFFFFFFFFFFFFFF AND DUP2 MSTORE PUSH1 0x20 ADD SWAP1 DUP2 MSTORE PUSH1 0x20 ADD PUSH1 0x0 KECCAK256 SLOAD EQ PUSH2 0x32F5 JUMPI PUSH1 0x40 MLOAD PUSH32 0x8C379A000000000000000000000000000000000000000000000000000000000 DUP2 MSTORE PUSH1 0x4 ADD PUSH2 0x32EC SWAP1 PUSH2 0x76AC JUMP JUMPDEST PUSH1 0x40 MLOAD DUP1 SWAP2 SUB SWAP1 REVERT JUMPDEST CALLVALUE PUSH1 0x68 PUSH1 0x0 CALLER PUSH20 0xFFFFFFFFFFFFFFFFFFFFFFFFFFFFFFFFFFFFFFFF AND PUSH20 0xFFFFFFFFFFFFFFFFFFFFFFFFFFFFFFFFFFFFFFFF AND DUP2 MSTORE PUSH1 0x20 ADD SWAP1 DUP2 MSTORE PUSH1 0x20 ADD PUSH1 0x0 KECCAK256 DUP2 SWAP1 SSTORE POP PUSH1 0x70 PUSH1 0x0 DUP2 SLOAD DUP1 SWAP3 SWAP2 SWAP1 PUSH2 0x334C SWAP1 PUSH2 0x5F6B JUMP JUMPDEST SWAP2 SWAP1 POP SSTORE POP PUSH1 0x40 MLOAD DUP1 PUSH2 0x140 ADD PUSH1 0x40 MSTORE DUP1 PUSH1 0x70 SLOAD DUP2 MSTORE PUSH1 0x20 ADD CALLER PUSH20 0xFFFFFFFFFFFFFFFFFFFFFFFFFFFFFFFFFFFFFFFF AND DUP2 MSTORE PUSH1 0x20 ADD DUP11 DUP2 MSTORE PUSH1 0x20 ADD DUP10 DUP2 MSTORE PUSH1 0x20 ADD DUP9 DUP2 MSTORE PUSH1 0x20 ADD DUP8 DUP2 MSTORE PUSH1 0x20 ADD DUP7 DUP2 MSTORE PUSH1 0x20 ADD DUP6 DUP2 MSTORE PUSH1 0x20 ADD DUP5 DUP2 MSTORE PUSH1 0x20 ADD DUP4 ISZERO ISZERO DUP2 MSTORE POP PUSH1 0x69 PUSH1 0x0 PUSH1 0x70 SLOAD DUP2 MSTORE PUSH1 0x20 ADD SWAP1 DUP2 MSTORE PUSH1 0x20 ADD PUSH1 0x0 KECCAK256 PUSH1 0x0 DUP3 ADD MLOAD DUP2 PUSH1 0x0 ADD SSTORE PUSH1 0x20 DUP3 ADD MLOAD DUP2 PUSH1 0x1 ADD PUSH1 0x0 PUSH2 0x100 EXP DUP2 SLOAD DUP2 PUSH20 0xFFFFFFFFFFFFFFFFFFFFFFFFFFFFFFFFFFFFFFFF MUL NOT AND SWAP1 DUP4 PUSH20 0xFFFFFFFFFFFFFFFFFFFFFFFFFFFFFFFFFFFFFFFF AND MUL OR SWAP1 SSTORE POP PUSH1 0x40 DUP3 ADD MLOAD DUP2 PUSH1 0x2 ADD SWAP1 DUP2 PUSH2 0x342C SWAP2 SWAP1 PUSH2 0x786E JUMP JUMPDEST POP PUSH1 0x60 DUP3 ADD MLOAD DUP2 PUSH1 0x3 ADD SSTORE PUSH1 0x80 DUP3 ADD MLOAD DUP2 PUSH1 0x4 ADD SSTORE PUSH1 0xA0 DUP3 ADD MLOAD DUP2 PUSH1 0x5 ADD SSTORE PUSH1 0xC0 DUP3 ADD MLOAD DUP2 PUSH1 0x6 ADD SSTORE PUSH1 0xE0 DUP3 ADD MLOAD DUP2 PUSH1 0x7 ADD SSTORE PUSH2 0x100 DUP3 ADD MLOAD DUP2 PUSH1 0x8 ADD SWAP1 DUP2 PUSH2 0x3475 SWAP2 SWAP1 PUSH2 0x786E JUMP JUMPDEST POP PUSH2 0x120 DUP3 ADD MLOAD DUP2 PUSH1 0x9 ADD PUSH1 0x0 PUSH2 0x100 EXP DUP2 SLOAD DUP2 PUSH1 0xFF MUL NOT AND SWAP1 DUP4 ISZERO ISZERO MUL OR SWAP1 SSTORE POP SWAP1 POP POP PUSH32 0xA9D44D6E13BB3FEE938C3F66D1103E91F8DC6B12D4405A55EEA558E8F275AA6E PUSH1 0x70 SLOAD CALLER CALLVALUE PUSH1 0x40 MLOAD PUSH2 0x34CF SWAP4 SWAP3 SWAP2 SWAP1 PUSH2 0x7940 JUMP JUMPDEST PUSH1 0x40 MLOAD DUP1 SWAP2 SUB SWAP1 LOG1 PUSH1 0x70 SLOAD SWAP1 POP SWAP9 SWAP8 POP POP POP POP POP POP POP POP JUMP JUMPDEST PUSH1 0x0 DUP2 PUSH1 0x20 ADD MLOAD PUSH20 0xFFFFFFFFFFFFFFFFFFFFFFFFFFFFFFFFFFFFFFFF AND ADDRESS PUSH20 0xFFFFFFFFFFFFFFFFFFFFFFFFFFFFFFFFFFFFFFFF AND EQ PUSH2 0x355C JUMPI PUSH1 0x40 MLOAD PUSH32 0x8C379A000000000000000000000000000000000000000000000000000000000 DUP2 MSTORE PUSH1 0x4 ADD PUSH2 0x3553 SWAP1 PUSH2 0x79C3 JUMP JUMPDEST PUSH1 0x40 MLOAD DUP1 SWAP2 SUB SWAP1 REVERT JUMPDEST DUP2 PUSH2 0x100 ADD MLOAD PUSH20 0xFFFFFFFFFFFFFFFFFFFFFFFFFFFFFFFFFFFFFFFF AND PUSH1 0x65 PUSH1 0x0 SWAP1 SLOAD SWAP1 PUSH2 0x100 EXP SWAP1 DIV PUSH20 0xFFFFFFFFFFFFFFFFFFFFFFFFFFFFFFFFFFFFFFFF AND PUSH20 0xFFFFFFFFFFFFFFFFFFFFFFFFFFFFFFFFFFFFFFFF AND SUB PUSH2 0x35F1 JUMPI PUSH1 0x40 MLOAD PUSH32 0x8C379A000000000000000000000000000000000000000000000000000000000 DUP2 MSTORE PUSH1 0x4 ADD PUSH2 0x35E8 SWAP1 PUSH2 0x7A55 JUMP JUMPDEST PUSH1 0x40 MLOAD DUP1 SWAP2 SUB SWAP1 REVERT JUMPDEST PUSH1 0x15 DUP3 PUSH1 0x60 ADD MLOAD MLOAD EQ PUSH2 0x3639 JUMPI PUSH1 0x40 MLOAD PUSH32 0x8C379A000000000000000000000000000000000000000000000000000000000 DUP2 MSTORE PUSH1 0x4 ADD PUSH2 0x3630 SWAP1 PUSH2 0x7AE7 JUMP JUMPDEST PUSH1 0x40 MLOAD DUP1 SWAP2 SUB SWAP1 REVERT JUMPDEST PUSH1 0x15 DUP3 PUSH1 0xA0 ADD MLOAD MLOAD EQ PUSH2 0x3681 JUMPI PUSH1 0x40 MLOAD PUSH32 0x8C379A000000000000000000000000000000000000000000000000000000000 DUP2 MSTORE PUSH1 0x4 ADD PUSH2 0x3678 SWAP1 PUSH2 0x7B79 JUMP JUMPDEST PUSH1 0x40 MLOAD DUP1 SWAP2 SUB SWAP1 REVERT JUMPDEST PUSH1 0x6D SLOAD DUP3 PUSH1 0xC0 ADD MLOAD DUP4 PUSH2 0x180 ADD MLOAD PUSH2 0x3699 SWAP2 SWAP1 PUSH2 0x66E4 JUMP JUMPDEST LT ISZERO PUSH2 0x36DA JUMPI PUSH1 0x40 MLOAD PUSH32 0x8C379A000000000000000000000000000000000000000000000000000000000 DUP2 MSTORE PUSH1 0x4 ADD PUSH2 0x36D1 SWAP1 PUSH2 0x7BE5 JUMP JUMPDEST PUSH1 0x40 MLOAD DUP1 SWAP2 SUB SWAP1 REVERT JUMPDEST PUSH2 0x36E3 DUP3 PUSH2 0x4635 JUMP JUMPDEST DUP1 MLOAD SWAP1 PUSH1 0x20 ADD KECCAK256 SWAP1 POP SWAP2 SWAP1 POP JUMP JUMPDEST PUSH1 0x0 DUP1 PUSH1 0x68 PUSH1 0x0 DUP5 PUSH20 0xFFFFFFFFFFFFFFFFFFFFFFFFFFFFFFFFFFFFFFFF AND PUSH20 0xFFFFFFFFFFFFFFFFFFFFFFFFFFFFFFFFFFFFFFFF AND DUP2 MSTORE PUSH1 0x20 ADD SWAP1 DUP2 MSTORE PUSH1 0x20 ADD PUSH1 0x0 KECCAK256 SLOAD GT DUP1 ISZERO PUSH2 0x3780 JUMPI POP PUSH1 0x0 PUSH1 0x6B PUSH1 0x0 DUP5 PUSH20 0xFFFFFFFFFFFFFFFFFFFFFFFFFFFFFFFFFFFFFFFF AND PUSH20 0xFFFFFFFFFFFFFFFFFFFFFFFFFFFFFFFFFFFFFFFF AND DUP2 MSTORE PUSH1 0x20 ADD SWAP1 DUP2 MSTORE PUSH1 0x20 ADD PUSH1 0x0 KECCAK256 SLOAD EQ JUMPDEST SWAP1 POP SWAP2 SWAP1 POP JUMP JUMPDEST DUP1 PUSH1 0x67 PUSH1 0x0 DUP5 PUSH20 0xFFFFFFFFFFFFFFFFFFFFFFFFFFFFFFFFFFFFFFFF AND PUSH20 0xFFFFFFFFFFFFFFFFFFFFFFFFFFFFFFFFFFFFFFFF AND DUP2 MSTORE PUSH1 0x20 ADD SWAP1 DUP2 MSTORE PUSH1 0x20 ADD PUSH1 0x0 KECCAK256 PUSH1 0x0 DUP3 DUP3 SLOAD PUSH2 0x37D6 SWAP2 SWAP1 PUSH2 0x66E4 JUMP JUMPDEST SWAP3 POP POP DUP2 SWAP1 SSTORE POP PUSH32 0x7EB93ADAE7D5CFB024D663C84CCBA97B3104E572BBE138CA323C854F666AE531 DUP3 DUP3 PUSH1 0x40 MLOAD PUSH2 0x380E SWAP3 SWAP2 SWAP1 PUSH2 0x5D6F JUMP JUMPDEST PUSH1 0x40 MLOAD DUP1 SWAP2 SUB SWAP1 LOG1 POP POP JUMP JUMPDEST PUSH1 0x0 PUSH1 0x65 PUSH1 0x0 SWAP1 SLOAD SWAP1 PUSH2 0x100 EXP SWAP1 DIV PUSH20 0xFFFFFFFFFFFFFFFFFFFFFFFFFFFFFFFFFFFFFFFF AND PUSH20 0xFFFFFFFFFFFFFFFFFFFFFFFFFFFFFFFFFFFFFFFF AND PUSH4 0x6ADC0133 DUP7 DUP6 DUP8 DUP7 DUP12 PUSH1 0x60 ADD MLOAD ADDRESS DUP14 PUSH1 0xA0 ADD MLOAD PUSH1 0x0 PUSH1 0x6A PUSH1 0x0 DUP14 DUP2 MSTORE PUSH1 0x20 ADD SWAP1 DUP2 MSTORE PUSH1 0x20 ADD PUSH1 0x0 KECCAK256 PUSH1 0x0 ADD PUSH1 0x0 SWAP1 SLOAD SWAP1 PUSH2 0x100 EXP SWAP1 DIV PUSH4 0xFFFFFFFF AND PUSH4 0xFFFFFFFF AND GT PUSH1 0x40 MLOAD DUP10 PUSH4 0xFFFFFFFF AND PUSH1 0xE0 SHL DUP2 MSTORE PUSH1 0x4 ADD PUSH2 0x38BC SWAP9 SWAP8 SWAP7 SWAP6 SWAP5 SWAP4 SWAP3 SWAP2 SWAP1 PUSH2 0x7C14 JUMP JUMPDEST PUSH1 0x20 PUSH1 0x40 MLOAD DUP1 DUP4 SUB DUP2 PUSH1 0x0 DUP8 GAS CALL ISZERO DUP1 ISZERO PUSH2 0x38DB JUMPI RETURNDATASIZE PUSH1 0x0 DUP1 RETURNDATACOPY RETURNDATASIZE PUSH1 0x0 REVERT JUMPDEST POP POP POP POP PUSH1 0x40 MLOAD RETURNDATASIZE PUSH1 0x1F NOT PUSH1 0x1F DUP3 ADD AND DUP3 ADD DUP1 PUSH1 0x40 MSTORE POP DUP2 ADD SWAP1 PUSH2 0x38FF SWAP2 SWAP1 PUSH2 0x705B JUMP JUMPDEST SWAP1 POP SWAP6 SWAP5 POP POP POP POP POP JUMP JUMPDEST PUSH1 0x0 DUP1 DUP5 SGT DUP1 ISZERO PUSH2 0x392E JUMPI POP DUP5 PUSH1 0xC0 ADD MLOAD DUP6 PUSH2 0x180 ADD MLOAD PUSH2 0x392B SWAP2 SWAP1 PUSH2 0x66E4 JUMP JUMPDEST DUP5 LT JUMPDEST ISZERO PUSH2 0x393C JUMPI PUSH1 0x0 SWAP1 POP PUSH2 0x3BC6 JUMP JUMPDEST PUSH1 0x0 PUSH1 0x65 PUSH1 0x0 SWAP1 SLOAD SWAP1 PUSH2 0x100 EXP SWAP1 DIV PUSH20 0xFFFFFFFFFFFFFFFFFFFFFFFFFFFFFFFFFFFFFFFF AND PUSH20 0xFFFFFFFFFFFFFFFFFFFFFFFFFFFFFFFFFFFFFFFF AND PUSH4 0xBD0C1FFF DUP5 PUSH1 0x40 MLOAD DUP3 PUSH4 0xFFFFFFFF AND PUSH1 0xE0 SHL DUP2 MSTORE PUSH1 0x4 ADD PUSH2 0x3999 SWAP2 SWAP1 PUSH2 0x493C JUMP JUMPDEST PUSH1 0x0 PUSH1 0x40 MLOAD DUP1 DUP4 SUB DUP2 DUP7 GAS STATICCALL ISZERO DUP1 ISZERO PUSH2 0x39B6 JUMPI RETURNDATASIZE PUSH1 0x0 DUP1 RETURNDATACOPY RETURNDATASIZE PUSH1 0x0 REVERT JUMPDEST POP POP POP POP PUSH1 0x40 MLOAD RETURNDATASIZE PUSH1 0x0 DUP3 RETURNDATACOPY RETURNDATASIZE PUSH1 0x1F NOT PUSH1 0x1F DUP3 ADD AND DUP3 ADD DUP1 PUSH1 0x40 MSTORE POP DUP2 ADD SWAP1 PUSH2 0x39DF SWAP2 SWAP1 PUSH2 0x7D1E JUMP JUMPDEST SWAP1 POP PUSH1 0x0 DUP2 MLOAD GT PUSH2 0x3A25 JUMPI PUSH1 0x40 MLOAD PUSH32 0x8C379A000000000000000000000000000000000000000000000000000000000 DUP2 MSTORE PUSH1 0x4 ADD PUSH2 0x3A1C SWAP1 PUSH2 0x7DB3 JUMP JUMPDEST PUSH1 0x40 MLOAD DUP1 SWAP2 SUB SWAP1 REVERT JUMPDEST PUSH1 0x0 PUSH2 0x3A30 DUP3 PUSH2 0x223F JUMP JUMPDEST SWAP1 POP PUSH1 0x0 DUP8 PUSH2 0x1C0 ADD MLOAD DUP9 PUSH2 0x1A0 ADD MLOAD PUSH2 0x3A4A SWAP2 SWAP1 PUSH2 0x6C65 JUMP JUMPDEST PUSH4 0xFFFFFFFF AND SWAP1 POP DUP1 DUP3 GT ISZERO PUSH2 0x3A66 JUMPI PUSH1 0x0 SWAP4 POP POP POP POP PUSH2 0x3BC6 JUMP JUMPDEST PUSH1 0x0 DUP7 SUB PUSH2 0x3A7A JUMPI PUSH1 0x1 SWAP4 POP POP POP POP PUSH2 0x3BC6 JUMP JUMPDEST PUSH1 0x0 PUSH1 0x65 PUSH1 0x0 SWAP1 SLOAD SWAP1 PUSH2 0x100 EXP SWAP1 DIV PUSH20 0xFFFFFFFFFFFFFFFFFFFFFFFFFFFFFFFFFFFFFFFF AND PUSH20 0xFFFFFFFFFFFFFFFFFFFFFFFFFFFFFFFFFFFFFFFF AND PUSH4 0xBD0C1FFF PUSH1 0x1 DUP12 PUSH2 0x200 ADD MLOAD PUSH2 0xFFFF AND DUP10 PUSH2 0x3AD1 SWAP2 SWAP1 PUSH2 0x66E4 JUMP JUMPDEST PUSH2 0x3ADB SWAP2 SWAP1 PUSH2 0x5C89 JUMP JUMPDEST PUSH1 0x40 MLOAD DUP3 PUSH4 0xFFFFFFFF AND PUSH1 0xE0 SHL DUP2 MSTORE PUSH1 0x4 ADD PUSH2 0x3AF7 SWAP2 SWAP1 PUSH2 0x493C JUMP JUMPDEST PUSH1 0x0 PUSH1 0x40 MLOAD DUP1 DUP4 SUB DUP2 DUP7 GAS STATICCALL ISZERO DUP1 ISZERO PUSH2 0x3B14 JUMPI RETURNDATASIZE PUSH1 0x0 DUP1 RETURNDATACOPY RETURNDATASIZE PUSH1 0x0 REVERT JUMPDEST POP POP POP POP PUSH1 0x40 MLOAD RETURNDATASIZE PUSH1 0x0 DUP3 RETURNDATACOPY RETURNDATASIZE PUSH1 0x1F NOT PUSH1 0x1F DUP3 ADD AND DUP3 ADD DUP1 PUSH1 0x40 MSTORE POP DUP2 ADD SWAP1 PUSH2 0x3B3D SWAP2 SWAP1 PUSH2 0x7D1E JUMP JUMPDEST SWAP1 POP PUSH1 0x0 DUP2 MLOAD GT PUSH2 0x3B83 JUMPI PUSH1 0x40 MLOAD PUSH32 0x8C379A000000000000000000000000000000000000000000000000000000000 DUP2 MSTORE PUSH1 0x4 ADD PUSH2 0x3B7A SWAP1 PUSH2 0x7DB3 JUMP JUMPDEST PUSH1 0x40 MLOAD DUP1 SWAP2 SUB SWAP1 REVERT JUMPDEST PUSH1 0x0 PUSH2 0x3B8E DUP3 PUSH2 0x223F JUMP JUMPDEST SWAP1 POP DUP10 PUSH2 0x1E0 ADD MLOAD PUSH4 0xFFFFFFFF AND DUP2 PUSH2 0x3BA7 SWAP2 SWAP1 PUSH2 0x66E4 JUMP JUMPDEST DUP9 GT ISZERO PUSH2 0x3BBC JUMPI PUSH1 0x1 SWAP6 POP POP POP POP POP POP PUSH2 0x3BC6 JUMP JUMPDEST PUSH1 0x0 SWAP6 POP POP POP POP POP POP JUMPDEST SWAP5 SWAP4 POP POP POP POP JUMP JUMPDEST PUSH1 0x0 DUP2 DUP4 LT PUSH2 0x3BDD JUMPI DUP2 PUSH2 0x3BDF JUMP JUMPDEST DUP3 JUMPDEST SWAP1 POP SWAP3 SWAP2 POP POP JUMP JUMPDEST DUP1 PUSH1 0x66 PUSH1 0x0 DUP5 PUSH20 0xFFFFFFFFFFFFFFFFFFFFFFFFFFFFFFFFFFFFFFFF AND PUSH20 0xFFFFFFFFFFFFFFFFFFFFFFFFFFFFFFFFFFFFFFFF AND DUP2 MSTORE PUSH1 0x20 ADD SWAP1 DUP2 MSTORE PUSH1 0x20 ADD PUSH1 0x0 KECCAK256 PUSH1 0x0 DUP3 DUP3 SLOAD PUSH2 0x3C36 SWAP2 SWAP1 PUSH2 0x66E4 JUMP JUMPDEST SWAP3 POP POP DUP2 SWAP1 SSTORE POP PUSH32 0x42CFB81A915AC5A674852DB250BF722637BEE705A267633B68CAB3A2DDE06F53 DUP3 DUP3 PUSH1 0x40 MLOAD PUSH2 0x3C6E SWAP3 SWAP2 SWAP1 PUSH2 0x5D6F JUMP JUMPDEST PUSH1 0x40 MLOAD DUP1 SWAP2 SUB SWAP1 LOG1 POP POP JUMP JUMPDEST PUSH1 0x0 DUP3 PUSH1 0xC0 ADD MLOAD DUP4 PUSH2 0x180 ADD MLOAD PUSH2 0x3C91 SWAP2 SWAP1 PUSH2 0x66E4 JUMP JUMPDEST SWAP1 POP PUSH1 0x0 PUSH2 0x2710 DUP3 PUSH2 0x3CA3 SWAP2 SWAP1 PUSH2 0x668A JUMP JUMPDEST SWAP1 POP DUP1 DUP3 PUSH2 0x3CB1 SWAP2 SWAP1 PUSH2 0x5C89 JUMP JUMPDEST DUP4 LT ISZERO PUSH2 0x3CF3 JUMPI PUSH1 0x40 MLOAD PUSH32 0x8C379A000000000000000000000000000000000000000000000000000000000 DUP2 MSTORE PUSH1 0x4 ADD PUSH2 0x3CEA SWAP1 PUSH2 0x7E1F JUMP JUMPDEST PUSH1 0x40 MLOAD DUP1 SWAP2 SUB SWAP1 REVERT JUMPDEST POP POP POP POP JUMP JUMPDEST PUSH2 0x3D01 PUSH2 0x4670 JUMP JUMPDEST PUSH20 0xFFFFFFFFFFFFFFFFFFFFFFFFFFFFFFFFFFFFFFFF AND PUSH2 0x3D1F PUSH2 0x1ECD JUMP JUMPDEST PUSH20 0xFFFFFFFFFFFFFFFFFFFFFFFFFFFFFFFFFFFFFFFF AND EQ PUSH2 0x3D75 JUMPI PUSH1 0x40 MLOAD PUSH32 0x8C379A000000000000000000000000000000000000000000000000000000000 DUP2 MSTORE PUSH1 0x4 ADD PUSH2 0x3D6C SWAP1 PUSH2 0x7E8B JUMP JUMPDEST PUSH1 0x40 MLOAD DUP1 SWAP2 SUB SWAP1 REVERT JUMPDEST JUMP JUMPDEST PUSH1 0x0 PUSH1 0x33 PUSH1 0x0 SWAP1 SLOAD SWAP1 PUSH2 0x100 EXP SWAP1 DIV PUSH20 0xFFFFFFFFFFFFFFFFFFFFFFFFFFFFFFFFFFFFFFFF AND SWAP1 POP DUP2 PUSH1 0x33 PUSH1 0x0 PUSH2 0x100 EXP DUP2 SLOAD DUP2 PUSH20 0xFFFFFFFFFFFFFFFFFFFFFFFFFFFFFFFFFFFFFFFF MUL NOT AND SWAP1 DUP4 PUSH20 0xFFFFFFFFFFFFFFFFFFFFFFFFFFFFFFFFFFFFFFFF AND MUL OR SWAP1 SSTORE POP DUP2 PUSH20 0xFFFFFFFFFFFFFFFFFFFFFFFFFFFFFFFFFFFFFFFF AND DUP2 PUSH20 0xFFFFFFFFFFFFFFFFFFFFFFFFFFFFFFFFFFFFFFFF AND PUSH32 0x8BE0079C531659141344CD1FD0A4F28419497F9722A3DAAFE3B4186F6B6457E0 PUSH1 0x40 MLOAD PUSH1 0x40 MLOAD DUP1 SWAP2 SUB SWAP1 LOG3 POP POP JUMP JUMPDEST PUSH1 0x0 DUP1 DUP3 PUSH20 0xFFFFFFFFFFFFFFFFFFFFFFFFFFFFFFFFFFFFFFFF AND EXTCODESIZE GT SWAP1 POP SWAP2 SWAP1 POP JUMP JUMPDEST PUSH1 0x0 PUSH1 0x1 SWAP1 SLOAD SWAP1 PUSH2 0x100 EXP SWAP1 DIV PUSH1 0xFF AND PUSH2 0x3EAF JUMPI PUSH1 0x40 MLOAD PUSH32 0x8C379A000000000000000000000000000000000000000000000000000000000 DUP2 MSTORE PUSH1 0x4 ADD PUSH2 0x3EA6 SWAP1 PUSH2 0x7F1D JUMP JUMPDEST PUSH1 0x40 MLOAD DUP1 SWAP2 SUB SWAP1 REVERT JUMPDEST PUSH2 0x3EBF PUSH2 0x3EBA PUSH2 0x4670 JUMP JUMPDEST PUSH2 0x3D77 JUMP JUMPDEST JUMP JUMPDEST PUSH1 0x0 PUSH1 0x4 DUP3 PUSH2 0x3ED0 SWAP2 SWAP1 PUSH2 0x66E4 JUMP JUMPDEST DUP4 MLOAD LT ISZERO PUSH2 0x3F13 JUMPI PUSH1 0x40 MLOAD PUSH32 0x8C379A000000000000000000000000000000000000000000000000000000000 DUP2 MSTORE PUSH1 0x4 ADD PUSH2 0x3F0A SWAP1 PUSH2 0x7F89 JUMP JUMPDEST PUSH1 0x40 MLOAD DUP1 SWAP2 SUB SWAP1 REVERT JUMPDEST PUSH1 0x18 DUP4 PUSH1 0x3 DUP5 PUSH2 0x3F23 SWAP2 SWAP1 PUSH2 0x66E4 JUMP JUMPDEST DUP2 MLOAD DUP2 LT PUSH2 0x3F34 JUMPI PUSH2 0x3F33 PUSH2 0x5EDC JUMP JUMPDEST JUMPDEST PUSH1 0x20 ADD ADD MLOAD PUSH1 0xF8 SHR PUSH1 0xF8 SHL PUSH1 0xF8 SHR PUSH1 0xFF AND PUSH4 0xFFFFFFFF AND SWAP1 SHL PUSH1 0x10 DUP5 PUSH1 0x2 DUP6 PUSH2 0x3F5D SWAP2 SWAP1 PUSH2 0x66E4 JUMP JUMPDEST DUP2 MLOAD DUP2 LT PUSH2 0x3F6E JUMPI PUSH2 0x3F6D PUSH2 0x5EDC JUMP JUMPDEST JUMPDEST PUSH1 0x20 ADD ADD MLOAD PUSH1 0xF8 SHR PUSH1 0xF8 SHL PUSH1 0xF8 SHR PUSH1 0xFF AND PUSH4 0xFFFFFFFF AND SWAP1 SHL PUSH1 0x8 DUP6 PUSH1 0x1 DUP7 PUSH2 0x3F97 SWAP2 SWAP1 PUSH2 0x66E4 JUMP JUMPDEST DUP2 MLOAD DUP2 LT PUSH2 0x3FA8 JUMPI PUSH2 0x3FA7 PUSH2 0x5EDC JUMP JUMPDEST JUMPDEST PUSH1 0x20 ADD ADD MLOAD PUSH1 0xF8 SHR PUSH1 0xF8 SHL PUSH1 0xF8 SHR PUSH1 0xFF AND PUSH4 0xFFFFFFFF AND SWAP1 SHL DUP6 DUP6 DUP2 MLOAD DUP2 LT PUSH2 0x3FD4 JUMPI PUSH2 0x3FD3 PUSH2 0x5EDC JUMP JUMPDEST JUMPDEST PUSH1 0x20 ADD ADD MLOAD PUSH1 0xF8 SHR PUSH1 0xF8 SHL PUSH1 0xF8 SHR PUSH1 0xFF AND OR OR OR SWAP1 POP SWAP3 SWAP2 POP POP JUMP JUMPDEST DUP1 PUSH1 0x66 PUSH1 0x0 DUP5 PUSH20 0xFFFFFFFFFFFFFFFFFFFFFFFFFFFFFFFFFFFFFFFF AND PUSH20 0xFFFFFFFFFFFFFFFFFFFFFFFFFFFFFFFFFFFFFFFF AND DUP2 MSTORE PUSH1 0x20 ADD SWAP1 DUP2 MSTORE PUSH1 0x20 ADD PUSH1 0x0 KECCAK256 PUSH1 0x0 DUP3 DUP3 SLOAD PUSH2 0x403F SWAP2 SWAP1 PUSH2 0x5C89 JUMP JUMPDEST SWAP3 POP POP DUP2 SWAP1 SSTORE POP PUSH32 0x8E51A4493A6F66C76E13FD9E3B754EAFBFE21343C04508DEB61BE8CCC0064587 DUP3 DUP3 PUSH1 0x40 MLOAD PUSH2 0x4077 SWAP3 SWAP2 SWAP1 PUSH2 0x5D6F JUMP JUMPDEST PUSH1 0x40 MLOAD DUP1 SWAP2 SUB SWAP1 LOG1 POP POP JUMP JUMPDEST PUSH1 0x0 DUP2 PUSH1 0x0 ADD MLOAD PUSH20 0xFFFFFFFFFFFFFFFFFFFFFFFFFFFFFFFFFFFFFFFF AND ADDRESS PUSH20 0xFFFFFFFFFFFFFFFFFFFFFFFFFFFFFFFFFFFFFFFF AND EQ PUSH2 0x40F7 JUMPI PUSH1 0x40 MLOAD PUSH32 0x8C379A000000000000000000000000000000000000000000000000000000000 DUP2 MSTORE PUSH1 0x4 ADD PUSH2 0x40EE SWAP1 PUSH2 0x79C3 JUMP JUMPDEST PUSH1 0x40 MLOAD DUP1 SWAP2 SUB SWAP1 REVERT JUMPDEST PUSH2 0x4100 DUP3 PUSH2 0x4678 JUMP JUMPDEST DUP1 MLOAD SWAP1 PUSH1 0x20 ADD KECCAK256 SWAP1 POP SWAP2 SWAP1 POP JUMP JUMPDEST PUSH1 0x0 DUP1 DUP5 GT DUP1 ISZERO PUSH2 0x4123 JUMPI POP DUP5 PUSH2 0x140 ADD MLOAD DUP5 LT JUMPDEST ISZERO PUSH2 0x4131 JUMPI PUSH1 0x0 SWAP1 POP PUSH2 0x43BB JUMP JUMPDEST PUSH1 0x0 PUSH1 0x65 PUSH1 0x0 SWAP1 SLOAD SWAP1 PUSH2 0x100 EXP SWAP1 DIV PUSH20 0xFFFFFFFFFFFFFFFFFFFFFFFFFFFFFFFFFFFFFFFF AND PUSH20 0xFFFFFFFFFFFFFFFFFFFFFFFFFFFFFFFFFFFFFFFF AND PUSH4 0xBD0C1FFF DUP5 PUSH1 0x40 MLOAD DUP3 PUSH4 0xFFFFFFFF AND PUSH1 0xE0 SHL DUP2 MSTORE PUSH1 0x4 ADD PUSH2 0x418E SWAP2 SWAP1 PUSH2 0x493C JUMP JUMPDEST PUSH1 0x0 PUSH1 0x40 MLOAD DUP1 DUP4 SUB DUP2 DUP7 GAS STATICCALL ISZERO DUP1 ISZERO PUSH2 0x41AB JUMPI RETURNDATASIZE PUSH1 0x0 DUP1 RETURNDATACOPY RETURNDATASIZE PUSH1 0x0 REVERT JUMPDEST POP POP POP POP PUSH1 0x40 MLOAD RETURNDATASIZE PUSH1 0x0 DUP3 RETURNDATACOPY RETURNDATASIZE PUSH1 0x1F NOT PUSH1 0x1F DUP3 ADD AND DUP3 ADD DUP1 PUSH1 0x40 MSTORE POP DUP2 ADD SWAP1 PUSH2 0x41D4 SWAP2 SWAP1 PUSH2 0x7D1E JUMP JUMPDEST SWAP1 POP PUSH1 0x0 DUP2 MLOAD GT PUSH2 0x421A JUMPI PUSH1 0x40 MLOAD PUSH32 0x8C379A000000000000000000000000000000000000000000000000000000000 DUP2 MSTORE PUSH1 0x4 ADD PUSH2 0x4211 SWAP1 PUSH2 0x7FF5 JUMP JUMPDEST PUSH1 0x40 MLOAD DUP1 SWAP2 SUB SWAP1 REVERT JUMPDEST PUSH1 0x0 PUSH2 0x4225 DUP3 PUSH2 0x223F JUMP JUMPDEST SWAP1 POP PUSH1 0x0 DUP8 PUSH2 0x180 ADD MLOAD DUP9 PUSH2 0x160 ADD MLOAD PUSH2 0x423F SWAP2 SWAP1 PUSH2 0x6C65 JUMP JUMPDEST PUSH4 0xFFFFFFFF AND SWAP1 POP DUP1 DUP3 GT ISZERO PUSH2 0x425B JUMPI PUSH1 0x0 SWAP4 POP POP POP POP PUSH2 0x43BB JUMP JUMPDEST PUSH1 0x0 DUP7 SUB PUSH2 0x426F JUMPI PUSH1 0x1 SWAP4 POP POP POP POP PUSH2 0x43BB JUMP JUMPDEST PUSH1 0x0 PUSH1 0x65 PUSH1 0x0 SWAP1 SLOAD SWAP1 PUSH2 0x100 EXP SWAP1 DIV PUSH20 0xFFFFFFFFFFFFFFFFFFFFFFFFFFFFFFFFFFFFFFFF AND PUSH20 0xFFFFFFFFFFFFFFFFFFFFFFFFFFFFFFFFFFFFFFFF AND PUSH4 0xBD0C1FFF PUSH1 0x1 DUP12 PUSH2 0x1A0 ADD MLOAD PUSH2 0xFFFF AND DUP10 PUSH2 0x42C6 SWAP2 SWAP1 PUSH2 0x66E4 JUMP JUMPDEST PUSH2 0x42D0 SWAP2 SWAP1 PUSH2 0x5C89 JUMP JUMPDEST PUSH1 0x40 MLOAD DUP3 PUSH4 0xFFFFFFFF AND PUSH1 0xE0 SHL DUP2 MSTORE PUSH1 0x4 ADD PUSH2 0x42EC SWAP2 SWAP1 PUSH2 0x493C JUMP JUMPDEST PUSH1 0x0 PUSH1 0x40 MLOAD DUP1 DUP4 SUB DUP2 DUP7 GAS STATICCALL ISZERO DUP1 ISZERO PUSH2 0x4309 JUMPI RETURNDATASIZE PUSH1 0x0 DUP1 RETURNDATACOPY RETURNDATASIZE PUSH1 0x0 REVERT JUMPDEST POP POP POP POP PUSH1 0x40 MLOAD RETURNDATASIZE PUSH1 0x0 DUP3 RETURNDATACOPY RETURNDATASIZE PUSH1 0x1F NOT PUSH1 0x1F DUP3 ADD AND DUP3 ADD DUP1 PUSH1 0x40 MSTORE POP DUP2 ADD SWAP1 PUSH2 0x4332 SWAP2 SWAP1 PUSH2 0x7D1E JUMP JUMPDEST SWAP1 POP PUSH1 0x0 DUP2 MLOAD GT PUSH2 0x4378 JUMPI PUSH1 0x40 MLOAD PUSH32 0x8C379A000000000000000000000000000000000000000000000000000000000 DUP2 MSTORE PUSH1 0x4 ADD PUSH2 0x436F SWAP1 PUSH2 0x8061 JUMP JUMPDEST PUSH1 0x40 MLOAD DUP1 SWAP2 SUB SWAP1 REVERT JUMPDEST PUSH1 0x0 PUSH2 0x4383 DUP3 PUSH2 0x223F JUMP JUMPDEST SWAP1 POP DUP10 PUSH2 0x1E0 ADD MLOAD PUSH4 0xFFFFFFFF AND DUP2 PUSH2 0x439C SWAP2 SWAP1 PUSH2 0x66E4 JUMP JUMPDEST DUP9 GT ISZERO PUSH2 0x43B1 JUMPI PUSH1 0x1 SWAP6 POP POP POP POP POP POP PUSH2 0x43BB JUMP JUMPDEST PUSH1 0x0 SWAP6 POP POP POP POP POP POP JUMPDEST SWAP5 SWAP4 POP POP POP POP JUMP JUMPDEST DUP1 PUSH1 0x67 PUSH1 0x0 DUP5 PUSH20 0xFFFFFFFFFFFFFFFFFFFFFFFFFFFFFFFFFFFFFFFF AND PUSH20 0xFFFFFFFFFFFFFFFFFFFFFFFFFFFFFFFFFFFFFFFF AND DUP2 MSTORE PUSH1 0x20 ADD SWAP1 DUP2 MSTORE PUSH1 0x20 ADD PUSH1 0x0 KECCAK256 PUSH1 0x0 DUP3 DUP3 SLOAD PUSH2 0x4412 SWAP2 SWAP1 PUSH2 0x5C89 JUMP JUMPDEST SWAP3 POP POP DUP2 SWAP1 SSTORE POP PUSH32 0x7862918831EFD3B8F1079C5D7E9344C4A47C2940A11A6B449A03224C4FA38334 DUP3 DUP3 PUSH1 0x40 MLOAD PUSH2 0x444A SWAP3 SWAP2 SWAP1 PUSH2 0x5D6F JUMP JUMPDEST PUSH1 0x40 MLOAD DUP1 SWAP2 SUB SWAP1 LOG1 POP POP JUMP JUMPDEST PUSH1 0x0 DUP8 MLOAD GT PUSH2 0x449A JUMPI PUSH1 0x40 MLOAD PUSH32 0x8C379A000000000000000000000000000000000000000000000000000000000 DUP2 MSTORE PUSH1 0x4 ADD PUSH2 0x4491 SWAP1 PUSH2 0x80CD JUMP JUMPDEST PUSH1 0x40 MLOAD DUP1 SWAP2 SUB SWAP1 REVERT JUMPDEST PUSH1 0x0 DUP7 GT PUSH2 0x44DD JUMPI PUSH1 0x40 MLOAD PUSH32 0x8C379A000000000000000000000000000000000000000000000000000000000 DUP2 MSTORE PUSH1 0x4 ADD PUSH2 0x44D4 SWAP1 PUSH2 0x8139 JUMP JUMPDEST PUSH1 0x40 MLOAD DUP1 SWAP2 SUB SWAP1 REVERT JUMPDEST PUSH1 0x0 DUP6 GT PUSH2 0x4520 JUMPI PUSH1 0x40 MLOAD PUSH32 0x8C379A000000000000000000000000000000000000000000000000000000000 DUP2 MSTORE PUSH1 0x4 ADD PUSH2 0x4517 SWAP1 PUSH2 0x81CB JUMP JUMPDEST PUSH1 0x40 MLOAD DUP1 SWAP2 SUB SWAP1 REVERT JUMPDEST PUSH1 0x0 DUP5 GT PUSH2 0x4563 JUMPI PUSH1 0x40 MLOAD PUSH32 0x8C379A000000000000000000000000000000000000000000000000000000000 DUP2 MSTORE PUSH1 0x4 ADD PUSH2 0x455A SWAP1 PUSH2 0x825D JUMP JUMPDEST PUSH1 0x40 MLOAD DUP1 SWAP2 SUB SWAP1 REVERT JUMPDEST PUSH1 0x0 DUP4 GT PUSH2 0x45A6 JUMPI PUSH1 0x40 MLOAD PUSH32 0x8C379A000000000000000000000000000000000000000000000000000000000 DUP2 MSTORE PUSH1 0x4 ADD PUSH2 0x459D SWAP1 PUSH2 0x82EF JUMP JUMPDEST PUSH1 0x40 MLOAD DUP1 SWAP2 SUB SWAP1 REVERT JUMPDEST DUP3 DUP3 GT PUSH2 0x45E8 JUMPI PUSH1 0x40 MLOAD PUSH32 0x8C379A000000000000000000000000000000000000000000000000000000000 DUP2 MSTORE PUSH1 0x4 ADD PUSH2 0x45DF SWAP1 PUSH2 0x8381 JUMP JUMPDEST PUSH1 0x40 MLOAD DUP1 SWAP2 SUB SWAP1 REVERT JUMPDEST PUSH1 0x0 DUP2 MLOAD GT PUSH2 0x462C JUMPI PUSH1 0x40 MLOAD PUSH32 0x8C379A000000000000000000000000000000000000000000000000000000000 DUP2 MSTORE PUSH1 0x4 ADD PUSH2 0x4623 SWAP1 PUSH2 0x83ED JUMP JUMPDEST PUSH1 0x40 MLOAD DUP1 SWAP2 SUB SWAP1 REVERT JUMPDEST POP POP POP POP POP POP POP JUMP JUMPDEST PUSH1 0x60 PUSH2 0x4640 DUP3 PUSH2 0x46B3 JUMP JUMPDEST PUSH2 0x4649 DUP4 PUSH2 0x4711 JUMP JUMPDEST PUSH1 0x40 MLOAD PUSH1 0x20 ADD PUSH2 0x465A SWAP3 SWAP2 SWAP1 PUSH2 0x840D JUMP JUMPDEST PUSH1 0x40 MLOAD PUSH1 0x20 DUP2 DUP4 SUB SUB DUP2 MSTORE SWAP1 PUSH1 0x40 MSTORE SWAP1 POP SWAP2 SWAP1 POP JUMP JUMPDEST PUSH1 0x0 CALLER SWAP1 POP SWAP1 JUMP JUMPDEST PUSH1 0x60 PUSH2 0x4683 DUP3 PUSH2 0x4777 JUMP JUMPDEST PUSH2 0x468C DUP4 PUSH2 0x47D5 JUMP JUMPDEST PUSH1 0x40 MLOAD PUSH1 0x20 ADD PUSH2 0x469D SWAP3 SWAP2 SWAP1 PUSH2 0x840D JUMP JUMPDEST PUSH1 0x40 MLOAD PUSH1 0x20 DUP2 DUP4 SUB SUB DUP2 MSTORE SWAP1 PUSH1 0x40 MSTORE SWAP1 POP SWAP2 SWAP1 POP JUMP JUMPDEST PUSH1 0x60 DUP2 PUSH1 0x0 ADD MLOAD DUP3 PUSH1 0x20 ADD MLOAD DUP4 PUSH1 0x40 ADD MLOAD DUP5 PUSH1 0x60 ADD MLOAD DUP6 PUSH1 0x80 ADD MLOAD DUP7 PUSH1 0xA0 ADD MLOAD DUP8 PUSH1 0xC0 ADD MLOAD DUP9 PUSH1 0xE0 ADD MLOAD DUP10 PUSH2 0x100 ADD MLOAD PUSH1 0x40 MLOAD PUSH1 0x20 ADD PUSH2 0x46FB SWAP10 SWAP9 SWAP8 SWAP7 SWAP6 SWAP5 SWAP4 SWAP3 SWAP2 SWAP1 PUSH2 0x8453 JUMP JUMPDEST PUSH1 0x40 MLOAD PUSH1 0x20 DUP2 DUP4 SUB SUB DUP2 MSTORE SWAP1 PUSH1 0x40 MSTORE SWAP1 POP SWAP2 SWAP1 POP JUMP JUMPDEST PUSH1 0x60 DUP2 PUSH2 0x120 ADD MLOAD DUP3 PUSH2 0x140 ADD MLOAD DUP4 PUSH2 0x160 ADD MLOAD DUP5 PUSH2 0x180 ADD MLOAD DUP6 PUSH2 0x1A0 ADD MLOAD DUP7 PUSH2 0x1C0 ADD MLOAD DUP8 PUSH2 0x1E0 ADD MLOAD DUP9 PUSH2 0x200 ADD MLOAD DUP10 PUSH2 0x220 ADD MLOAD PUSH1 0x40 MLOAD PUSH1 0x20 ADD PUSH2 0x4761 SWAP10 SWAP9 SWAP8 SWAP7 SWAP6 SWAP5 SWAP4 SWAP3 SWAP2 SWAP1 PUSH2 0x851B JUMP JUMPDEST PUSH1 0x40 MLOAD PUSH1 0x20 DUP2 DUP4 SUB SUB DUP2 MSTORE SWAP1 PUSH1 0x40 MSTORE SWAP1 POP SWAP2 SWAP1 POP JUMP JUMPDEST PUSH1 0x60 DUP2 PUSH1 0x0 ADD MLOAD DUP3 PUSH1 0x20 ADD MLOAD DUP4 PUSH1 0x40 ADD MLOAD DUP5 PUSH1 0x60 ADD MLOAD DUP6 PUSH1 0x80 ADD MLOAD DUP7 PUSH1 0xA0 ADD MLOAD DUP8 PUSH1 0xC0 ADD MLOAD DUP9 PUSH1 0xE0 ADD MLOAD DUP10 PUSH2 0x100 ADD MLOAD PUSH1 0x40 MLOAD PUSH1 0x20 ADD PUSH2 0x47BF SWAP10 SWAP9 SWAP8 SWAP7 SWAP6 SWAP5 SWAP4 SWAP3 SWAP2 SWAP1 PUSH2 0x85AF JUMP JUMPDEST PUSH1 0x40 MLOAD PUSH1 0x20 DUP2 DUP4 SUB SUB DUP2 MSTORE SWAP1 PUSH1 0x40 MSTORE SWAP1 POP SWAP2 SWAP1 POP JUMP JUMPDEST PUSH1 0x60 DUP2 PUSH2 0x120 ADD MLOAD DUP3 PUSH2 0x140 ADD MLOAD DUP4 PUSH2 0x160 ADD MLOAD DUP5 PUSH2 0x180 ADD MLOAD DUP6 PUSH2 0x1A0 ADD MLOAD DUP7 PUSH2 0x1C0 ADD MLOAD DUP8 PUSH2 0x1E0 ADD MLOAD DUP9 PUSH2 0x200 ADD MLOAD DUP10 PUSH2 0x220 ADD MLOAD PUSH1 0x40 MLOAD PUSH1 0x20 ADD PUSH2 0x4825 SWAP10 SWAP9 SWAP8 SWAP7 SWAP6 SWAP5 SWAP4 SWAP3 SWAP2 SWAP1 PUSH2 0x8651 JUMP JUMPDEST PUSH1 0x40 MLOAD PUSH1 0x20 DUP2 DUP4 SUB SUB DUP2 MSTORE SWAP1 PUSH1 0x40 MSTORE SWAP1 POP SWAP2 SWAP1 POP JUMP JUMPDEST PUSH1 0x40 MLOAD DUP1 PUSH2 0x140 ADD PUSH1 0x40 MSTORE DUP1 PUSH1 0x0 DUP2 MSTORE PUSH1 0x20 ADD PUSH1 0x0 PUSH20 0xFFFFFFFFFFFFFFFFFFFFFFFFFFFFFFFFFFFFFFFF AND DUP2 MSTORE PUSH1 0x20 ADD PUSH1 0x60 DUP2 MSTORE PUSH1 0x20 ADD PUSH1 0x0 DUP2 MSTORE PUSH1 0x20 ADD PUSH1 0x0 DUP2 MSTORE PUSH1 0x20 ADD PUSH1 0x0 DUP2 MSTORE PUSH1 0x20 ADD PUSH1 0x0 DUP2 MSTORE PUSH1 0x20 ADD PUSH1 0x0 DUP2 MSTORE PUSH1 0x20 ADD PUSH1 0x60 DUP2 MSTORE PUSH1 0x20 ADD PUSH1 0x0 ISZERO ISZERO DUP2 MSTORE POP SWAP1 JUMP JUMPDEST PUSH1 0x0 DUP3 DUP3 MSTORE PUSH1 0x20 DUP3 ADD SWAP1 POP SWAP3 SWAP2 POP POP JUMP JUMPDEST PUSH32 0x4E6F7420616C6C6F776564000000000000000000000000000000000000000000 PUSH1 0x0 DUP3 ADD MSTORE POP JUMP JUMPDEST PUSH1 0x0 PUSH2 0x48ED PUSH1 0xB DUP4 PUSH2 0x48A6 JUMP JUMPDEST SWAP2 POP PUSH2 0x48F8 DUP3 PUSH2 0x48B7 JUMP JUMPDEST PUSH1 0x20 DUP3 ADD SWAP1 POP SWAP2 SWAP1 POP JUMP JUMPDEST PUSH1 0x0 PUSH1 0x20 DUP3 ADD SWAP1 POP DUP2 DUP2 SUB PUSH1 0x0 DUP4 ADD MSTORE PUSH2 0x491C DUP2 PUSH2 0x48E0 JUMP JUMPDEST SWAP1 POP SWAP2 SWAP1 POP JUMP JUMPDEST PUSH1 0x0 DUP2 SWAP1 POP SWAP2 SWAP1 POP JUMP JUMPDEST PUSH2 0x4936 DUP2 PUSH2 0x4923 JUMP JUMPDEST DUP3 MSTORE POP POP JUMP JUMPDEST PUSH1 0x0 PUSH1 0x20 DUP3 ADD SWAP1 POP PUSH2 0x4951 PUSH1 0x0 DUP4 ADD DUP5 PUSH2 0x492D JUMP JUMPDEST SWAP3 SWAP2 POP POP JUMP JUMPDEST PUSH1 0x0 PUSH1 0x40 MLOAD SWAP1 POP SWAP1 JUMP JUMPDEST PUSH1 0x0 DUP1 REVERT JUMPDEST PUSH1 0x0 DUP1 REVERT JUMPDEST PUSH1 0x0 DUP1 REVERT JUMPDEST PUSH1 0x0 PUSH1 0x1F NOT PUSH1 0x1F DUP4 ADD AND SWAP1 POP SWAP2 SWAP1 POP JUMP JUMPDEST PUSH32 0x4E487B7100000000000000000000000000000000000000000000000000000000 PUSH1 0x0 MSTORE PUSH1 0x41 PUSH1 0x4 MSTORE PUSH1 0x24 PUSH1 0x0 REVERT JUMPDEST PUSH2 0x49B9 DUP3 PUSH2 0x4970 JUMP JUMPDEST DUP2 ADD DUP2 DUP2 LT PUSH8 0xFFFFFFFFFFFFFFFF DUP3 GT OR ISZERO PUSH2 0x49D8 JUMPI PUSH2 0x49D7 PUSH2 0x4981 JUMP JUMPDEST JUMPDEST DUP1 PUSH1 0x40 MSTORE POP POP POP JUMP JUMPDEST PUSH1 0x0 PUSH2 0x49EB PUSH2 0x4957 JUMP JUMPDEST SWAP1 POP PUSH2 0x49F7 DUP3 DUP3 PUSH2 0x49B0 JUMP JUMPDEST SWAP2 SWAP1 POP JUMP JUMPDEST PUSH1 0x0 DUP1 REVERT JUMPDEST PUSH1 0x0 PUSH32 0xFFFFFFFFFFFFFFFFFFFFFFFFFFFFFFFFFFFFFFFF000000000000000000000000 DUP3 AND SWAP1 POP SWAP2 SWAP1 POP JUMP JUMPDEST PUSH2 0x4A36 DUP2 PUSH2 0x4A01 JUMP JUMPDEST DUP2 EQ PUSH2 0x4A41 JUMPI PUSH1 0x0 DUP1 REVERT JUMPDEST POP JUMP JUMPDEST PUSH1 0x0 DUP2 CALLDATALOAD SWAP1 POP PUSH2 0x4A53 DUP2 PUSH2 0x4A2D JUMP JUMPDEST SWAP3 SWAP2 POP POP JUMP JUMPDEST PUSH1 0x0 PUSH20 0xFFFFFFFFFFFFFFFFFFFFFFFFFFFFFFFFFFFFFFFF DUP3 AND SWAP1 POP SWAP2 SWAP1 POP JUMP JUMPDEST PUSH1 0x0 PUSH2 0x4A84 DUP3 PUSH2 0x4A59 JUMP JUMPDEST SWAP1 POP SWAP2 SWAP1 POP JUMP JUMPDEST PUSH2 0x4A94 DUP2 PUSH2 0x4A79 JUMP JUMPDEST DUP2 EQ PUSH2 0x4A9F JUMPI PUSH1 0x0 DUP1 REVERT JUMPDEST POP JUMP JUMPDEST PUSH1 0x0 DUP2 CALLDATALOAD SWAP1 POP PUSH2 0x4AB1 DUP2 PUSH2 0x4A8B JUMP JUMPDEST SWAP3 SWAP2 POP POP JUMP JUMPDEST PUSH1 0x0 DUP1 REVERT JUMPDEST PUSH1 0x0 DUP1 REVERT JUMPDEST PUSH1 0x0 PUSH8 0xFFFFFFFFFFFFFFFF DUP3 GT ISZERO PUSH2 0x4ADC JUMPI PUSH2 0x4ADB PUSH2 0x4981 JUMP JUMPDEST JUMPDEST PUSH2 0x4AE5 DUP3 PUSH2 0x4970 JUMP JUMPDEST SWAP1 POP PUSH1 0x20 DUP2 ADD SWAP1 POP SWAP2 SWAP1 POP JUMP JUMPDEST DUP3 DUP2 DUP4 CALLDATACOPY PUSH1 0x0 DUP4 DUP4 ADD MSTORE POP POP POP JUMP JUMPDEST PUSH1 0x0 PUSH2 0x4B14 PUSH2 0x4B0F DUP5 PUSH2 0x4AC1 JUMP JUMPDEST PUSH2 0x49E1 JUMP JUMPDEST SWAP1 POP DUP3 DUP2 MSTORE PUSH1 0x20 DUP2 ADD DUP5 DUP5 DUP5 ADD GT ISZERO PUSH2 0x4B30 JUMPI PUSH2 0x4B2F PUSH2 0x4ABC JUMP JUMPDEST JUMPDEST PUSH2 0x4B3B DUP5 DUP3 DUP6 PUSH2 0x4AF2 JUMP JUMPDEST POP SWAP4 SWAP3 POP POP POP JUMP JUMPDEST PUSH1 0x0 DUP3 PUSH1 0x1F DUP4 ADD SLT PUSH2 0x4B58 JUMPI PUSH2 0x4B57 PUSH2 0x4AB7 JUMP JUMPDEST JUMPDEST DUP2 CALLDATALOAD PUSH2 0x4B68 DUP5 DUP3 PUSH1 0x20 DUP7 ADD PUSH2 0x4B01 JUMP JUMPDEST SWAP2 POP POP SWAP3 SWAP2 POP POP JUMP JUMPDEST PUSH1 0x0 PUSH2 0x4B7C DUP3 PUSH2 0x4A59 JUMP JUMPDEST SWAP1 POP SWAP2 SWAP1 POP JUMP JUMPDEST PUSH2 0x4B8C DUP2 PUSH2 0x4B71 JUMP JUMPDEST DUP2 EQ PUSH2 0x4B97 JUMPI PUSH1 0x0 DUP1 REVERT JUMPDEST POP JUMP JUMPDEST PUSH1 0x0 DUP2 CALLDATALOAD SWAP1 POP PUSH2 0x4BA9 DUP2 PUSH2 0x4B83 JUMP JUMPDEST SWAP3 SWAP2 POP POP JUMP JUMPDEST PUSH2 0x4BB8 DUP2 PUSH2 0x4923 JUMP JUMPDEST DUP2 EQ PUSH2 0x4BC3 JUMPI PUSH1 0x0 DUP1 REVERT JUMPDEST POP JUMP JUMPDEST PUSH1 0x0 DUP2 CALLDATALOAD SWAP1 POP PUSH2 0x4BD5 DUP2 PUSH2 0x4BAF JUMP JUMPDEST SWAP3 SWAP2 POP POP JUMP JUMPDEST PUSH1 0x0 PUSH4 0xFFFFFFFF DUP3 AND SWAP1 POP SWAP2 SWAP1 POP JUMP JUMPDEST PUSH2 0x4BF4 DUP2 PUSH2 0x4BDB JUMP JUMPDEST DUP2 EQ PUSH2 0x4BFF JUMPI PUSH1 0x0 DUP1 REVERT JUMPDEST POP JUMP JUMPDEST PUSH1 0x0 DUP2 CALLDATALOAD SWAP1 POP PUSH2 0x4C11 DUP2 PUSH2 0x4BEB JUMP JUMPDEST SWAP3 SWAP2 POP POP JUMP JUMPDEST PUSH1 0x0 DUP2 PUSH1 0x7 SIGNEXTEND SWAP1 POP SWAP2 SWAP1 POP JUMP JUMPDEST PUSH2 0x4C2D DUP2 PUSH2 0x4C17 JUMP JUMPDEST DUP2 EQ PUSH2 0x4C38 JUMPI PUSH1 0x0 DUP1 REVERT JUMPDEST POP JUMP JUMPDEST PUSH1 0x0 DUP2 CALLDATALOAD SWAP1 POP PUSH2 0x4C4A DUP2 PUSH2 0x4C24 JUMP JUMPDEST SWAP3 SWAP2 POP POP JUMP JUMPDEST PUSH1 0x0 PUSH2 0xFFFF DUP3 AND SWAP1 POP SWAP2 SWAP1 POP JUMP JUMPDEST PUSH2 0x4C67 DUP2 PUSH2 0x4C50 JUMP JUMPDEST DUP2 EQ PUSH2 0x4C72 JUMPI PUSH1 0x0 DUP1 REVERT JUMPDEST POP JUMP JUMPDEST PUSH1 0x0 DUP2 CALLDATALOAD SWAP1 POP PUSH2 0x4C84 DUP2 PUSH2 0x4C5E JUMP JUMPDEST SWAP3 SWAP2 POP POP JUMP JUMPDEST PUSH1 0x0 DUP2 ISZERO ISZERO SWAP1 POP SWAP2 SWAP1 POP JUMP JUMPDEST PUSH2 0x4C9F DUP2 PUSH2 0x4C8A JUMP JUMPDEST DUP2 EQ PUSH2 0x4CAA JUMPI PUSH1 0x0 DUP1 REVERT JUMPDEST POP JUMP JUMPDEST PUSH1 0x0 DUP2 CALLDATALOAD SWAP1 POP PUSH2 0x4CBC DUP2 PUSH2 0x4C96 JUMP JUMPDEST SWAP3 SWAP2 POP POP JUMP JUMPDEST PUSH1 0x0 PUSH2 0x240 DUP3 DUP5 SUB SLT ISZERO PUSH2 0x4CD9 JUMPI PUSH2 0x4CD8 PUSH2 0x496B JUMP JUMPDEST JUMPDEST PUSH2 0x4CE4 PUSH2 0x240 PUSH2 0x49E1 JUMP JUMPDEST SWAP1 POP PUSH1 0x0 PUSH2 0x4CF4 DUP5 DUP3 DUP6 ADD PUSH2 0x4A44 JUMP JUMPDEST PUSH1 0x0 DUP4 ADD MSTORE POP PUSH1 0x20 PUSH2 0x4D08 DUP5 DUP3 DUP6 ADD PUSH2 0x4AA2 JUMP JUMPDEST PUSH1 0x20 DUP4 ADD MSTORE POP PUSH1 0x40 PUSH2 0x4D1C DUP5 DUP3 DUP6 ADD PUSH2 0x4AA2 JUMP JUMPDEST PUSH1 0x40 DUP4 ADD MSTORE POP PUSH1 0x60 DUP3 ADD CALLDATALOAD PUSH8 0xFFFFFFFFFFFFFFFF DUP2 GT ISZERO PUSH2 0x4D40 JUMPI PUSH2 0x4D3F PUSH2 0x49FC JUMP JUMPDEST JUMPDEST PUSH2 0x4D4C DUP5 DUP3 DUP6 ADD PUSH2 0x4B43 JUMP JUMPDEST PUSH1 0x60 DUP4 ADD MSTORE POP PUSH1 0x80 PUSH2 0x4D60 DUP5 DUP3 DUP6 ADD PUSH2 0x4B9A JUMP JUMPDEST PUSH1 0x80 DUP4 ADD MSTORE POP PUSH1 0xA0 DUP3 ADD CALLDATALOAD PUSH8 0xFFFFFFFFFFFFFFFF DUP2 GT ISZERO PUSH2 0x4D84 JUMPI PUSH2 0x4D83 PUSH2 0x49FC JUMP JUMPDEST JUMPDEST PUSH2 0x4D90 DUP5 DUP3 DUP6 ADD PUSH2 0x4B43 JUMP JUMPDEST PUSH1 0xA0 DUP4 ADD MSTORE POP PUSH1 0xC0 PUSH2 0x4DA4 DUP5 DUP3 DUP6 ADD PUSH2 0x4BC6 JUMP JUMPDEST PUSH1 0xC0 DUP4 ADD MSTORE POP PUSH1 0xE0 PUSH2 0x4DB8 DUP5 DUP3 DUP6 ADD PUSH2 0x4BC6 JUMP JUMPDEST PUSH1 0xE0 DUP4 ADD MSTORE POP PUSH2 0x100 PUSH2 0x4DCD DUP5 DUP3 DUP6 ADD PUSH2 0x4AA2 JUMP JUMPDEST PUSH2 0x100 DUP4 ADD MSTORE POP PUSH2 0x120 DUP3 ADD CALLDATALOAD PUSH8 0xFFFFFFFFFFFFFFFF DUP2 GT ISZERO PUSH2 0x4DF3 JUMPI PUSH2 0x4DF2 PUSH2 0x49FC JUMP JUMPDEST JUMPDEST PUSH2 0x4DFF DUP5 DUP3 DUP6 ADD PUSH2 0x4B43 JUMP JUMPDEST PUSH2 0x120 DUP4 ADD MSTORE POP PUSH2 0x140 PUSH2 0x4E15 DUP5 DUP3 DUP6 ADD PUSH2 0x4C02 JUMP JUMPDEST PUSH2 0x140 DUP4 ADD MSTORE POP PUSH2 0x160 PUSH2 0x4E2B DUP5 DUP3 DUP6 ADD PUSH2 0x4C3B JUMP JUMPDEST PUSH2 0x160 DUP4 ADD MSTORE POP PUSH2 0x180 PUSH2 0x4E41 DUP5 DUP3 DUP6 ADD PUSH2 0x4BC6 JUMP JUMPDEST PUSH2 0x180 DUP4 ADD MSTORE POP PUSH2 0x1A0 PUSH2 0x4E57 DUP5 DUP3 DUP6 ADD PUSH2 0x4C02 JUMP JUMPDEST PUSH2 0x1A0 DUP4 ADD MSTORE POP PUSH2 0x1C0 PUSH2 0x4E6D DUP5 DUP3 DUP6 ADD PUSH2 0x4C02 JUMP JUMPDEST PUSH2 0x1C0 DUP4 ADD MSTORE POP PUSH2 0x1E0 PUSH2 0x4E83 DUP5 DUP3 DUP6 ADD PUSH2 0x4C02 JUMP JUMPDEST PUSH2 0x1E0 DUP4 ADD MSTORE POP PUSH2 0x200 PUSH2 0x4E99 DUP5 DUP3 DUP6 ADD PUSH2 0x4C75 JUMP JUMPDEST PUSH2 0x200 DUP4 ADD MSTORE POP PUSH2 0x220 PUSH2 0x4EAF DUP5 DUP3 DUP6 ADD PUSH2 0x4CAD JUMP JUMPDEST PUSH2 0x220 DUP4 ADD MSTORE POP SWAP3 SWAP2 POP POP JUMP JUMPDEST PUSH1 0x0 PUSH1 0x20 DUP3 DUP5 SUB SLT ISZERO PUSH2 0x4ED2 JUMPI PUSH2 0x4ED1 PUSH2 0x4961 JUMP JUMPDEST JUMPDEST PUSH1 0x0 DUP3 ADD CALLDATALOAD PUSH8 0xFFFFFFFFFFFFFFFF DUP2 GT ISZERO PUSH2 0x4EF0 JUMPI PUSH2 0x4EEF PUSH2 0x4966 JUMP JUMPDEST JUMPDEST PUSH2 0x4EFC DUP5 DUP3 DUP6 ADD PUSH2 0x4CC2 JUMP JUMPDEST SWAP2 POP POP SWAP3 SWAP2 POP POP JUMP JUMPDEST PUSH1 0x0 DUP2 SWAP1 POP SWAP2 SWAP1 POP JUMP JUMPDEST PUSH2 0x4F18 DUP2 PUSH2 0x4F05 JUMP JUMPDEST DUP3 MSTORE POP POP JUMP JUMPDEST PUSH1 0x0 PUSH1 0x20 DUP3 ADD SWAP1 POP PUSH2 0x4F33 PUSH1 0x0 DUP4 ADD DUP5 PUSH2 0x4F0F JUMP JUMPDEST SWAP3 SWAP2 POP POP JUMP JUMPDEST PUSH1 0x0 PUSH1 0x20 DUP3 DUP5 SUB SLT ISZERO PUSH2 0x4F4F JUMPI PUSH2 0x4F4E PUSH2 0x4961 JUMP JUMPDEST JUMPDEST PUSH1 0x0 PUSH2 0x4F5D DUP5 DUP3 DUP6 ADD PUSH2 0x4BC6 JUMP JUMPDEST SWAP2 POP POP SWAP3 SWAP2 POP POP JUMP JUMPDEST PUSH1 0x0 PUSH1 0x20 DUP3 DUP5 SUB SLT ISZERO PUSH2 0x4F7C JUMPI PUSH2 0x4F7B PUSH2 0x4961 JUMP JUMPDEST JUMPDEST PUSH1 0x0 PUSH2 0x4F8A DUP5 DUP3 DUP6 ADD PUSH2 0x4AA2 JUMP JUMPDEST SWAP2 POP POP SWAP3 SWAP2 POP POP JUMP JUMPDEST PUSH2 0x4F9C DUP2 PUSH2 0x4C8A JUMP JUMPDEST DUP3 MSTORE POP POP JUMP JUMPDEST PUSH1 0x0 PUSH1 0x20 DUP3 ADD SWAP1 POP PUSH2 0x4FB7 PUSH1 0x0 DUP4 ADD DUP5 PUSH2 0x4F93 JUMP JUMPDEST SWAP3 SWAP2 POP POP JUMP JUMPDEST PUSH1 0x0 PUSH8 0xFFFFFFFFFFFFFFFF DUP3 GT ISZERO PUSH2 0x4FD8 JUMPI PUSH2 0x4FD7 PUSH2 0x4981 JUMP JUMPDEST JUMPDEST PUSH1 0x20 DUP3 MUL SWAP1 POP PUSH1 0x20 DUP2 ADD SWAP1 POP SWAP2 SWAP1 POP JUMP JUMPDEST PUSH1 0x0 DUP1 REVERT JUMPDEST PUSH1 0x0 PUSH2 0x5001 PUSH2 0x4FFC DUP5 PUSH2 0x4FBD JUMP JUMPDEST PUSH2 0x49E1 JUMP JUMPDEST SWAP1 POP DUP1 DUP4 DUP3 MSTORE PUSH1 0x20 DUP3 ADD SWAP1 POP PUSH1 0x20 DUP5 MUL DUP4 ADD DUP6 DUP2 GT ISZERO PUSH2 0x5024 JUMPI PUSH2 0x5023 PUSH2 0x4FE9 JUMP JUMPDEST JUMPDEST DUP4 JUMPDEST DUP2 DUP2 LT ISZERO PUSH2 0x504D JUMPI DUP1 PUSH2 0x5039 DUP9 DUP3 PUSH2 0x4BC6 JUMP JUMPDEST DUP5 MSTORE PUSH1 0x20 DUP5 ADD SWAP4 POP POP PUSH1 0x20 DUP2 ADD SWAP1 POP PUSH2 0x5026 JUMP JUMPDEST POP POP POP SWAP4 SWAP3 POP POP POP JUMP JUMPDEST PUSH1 0x0 DUP3 PUSH1 0x1F DUP4 ADD SLT PUSH2 0x506C JUMPI PUSH2 0x506B PUSH2 0x4AB7 JUMP JUMPDEST JUMPDEST DUP2 CALLDATALOAD PUSH2 0x507C DUP5 DUP3 PUSH1 0x20 DUP7 ADD PUSH2 0x4FEE JUMP JUMPDEST SWAP2 POP POP SWAP3 SWAP2 POP POP JUMP JUMPDEST PUSH1 0x0 PUSH1 0x20 DUP3 DUP5 SUB SLT ISZERO PUSH2 0x509B JUMPI PUSH2 0x509A PUSH2 0x4961 JUMP JUMPDEST JUMPDEST PUSH1 0x0 DUP3 ADD CALLDATALOAD PUSH8 0xFFFFFFFFFFFFFFFF DUP2 GT ISZERO PUSH2 0x50B9 JUMPI PUSH2 0x50B8 PUSH2 0x4966 JUMP JUMPDEST JUMPDEST PUSH2 0x50C5 DUP5 DUP3 DUP6 ADD PUSH2 0x5057 JUMP JUMPDEST SWAP2 POP POP SWAP3 SWAP2 POP POP JUMP JUMPDEST PUSH1 0x0 DUP2 MLOAD SWAP1 POP SWAP2 SWAP1 POP JUMP JUMPDEST PUSH1 0x0 DUP3 DUP3 MSTORE PUSH1 0x20 DUP3 ADD SWAP1 POP SWAP3 SWAP2 POP POP JUMP JUMPDEST PUSH1 0x0 DUP2 SWAP1 POP PUSH1 0x20 DUP3 ADD SWAP1 POP SWAP2 SWAP1 POP JUMP JUMPDEST PUSH2 0x5103 DUP2 PUSH2 0x4923 JUMP JUMPDEST DUP3 MSTORE POP POP JUMP JUMPDEST PUSH2 0x5112 DUP2 PUSH2 0x4A79 JUMP JUMPDEST DUP3 MSTORE POP POP JUMP JUMPDEST PUSH1 0x0 DUP2 MLOAD SWAP1 POP SWAP2 SWAP1 POP JUMP JUMPDEST PUSH1 0x0 DUP3 DUP3 MSTORE PUSH1 0x20 DUP3 ADD SWAP1 POP SWAP3 SWAP2 POP POP JUMP JUMPDEST PUSH1 0x0 JUMPDEST DUP4 DUP2 LT ISZERO PUSH2 0x5152 JUMPI DUP1 DUP3 ADD MLOAD DUP2 DUP5 ADD MSTORE PUSH1 0x20 DUP2 ADD SWAP1 POP PUSH2 0x5137 JUMP JUMPDEST PUSH1 0x0 DUP5 DUP5 ADD MSTORE POP POP POP POP JUMP JUMPDEST PUSH1 0x0 PUSH2 0x5169 DUP3 PUSH2 0x5118 JUMP JUMPDEST PUSH2 0x5173 DUP2 DUP6 PUSH2 0x5123 JUMP JUMPDEST SWAP4 POP PUSH2 0x5183 DUP2 DUP6 PUSH1 0x20 DUP7 ADD PUSH2 0x5134 JUMP JUMPDEST PUSH2 0x518C DUP2 PUSH2 0x4970 JUMP JUMPDEST DUP5 ADD SWAP2 POP POP SWAP3 SWAP2 POP POP JUMP JUMPDEST PUSH2 0x51A0 DUP2 PUSH2 0x4C8A JUMP JUMPDEST DUP3 MSTORE POP POP JUMP JUMPDEST PUSH1 0x0 PUSH2 0x140 DUP4 ADD PUSH1 0x0 DUP4 ADD MLOAD PUSH2 0x51BF PUSH1 0x0 DUP7 ADD DUP3 PUSH2 0x50FA JUMP JUMPDEST POP PUSH1 0x20 DUP4 ADD MLOAD PUSH2 0x51D2 PUSH1 0x20 DUP7 ADD DUP3 PUSH2 0x5109 JUMP JUMPDEST POP PUSH1 0x40 DUP4 ADD MLOAD DUP5 DUP3 SUB PUSH1 0x40 DUP7 ADD MSTORE PUSH2 0x51EA DUP3 DUP3 PUSH2 0x515E JUMP JUMPDEST SWAP2 POP POP PUSH1 0x60 DUP4 ADD MLOAD PUSH2 0x51FF PUSH1 0x60 DUP7 ADD DUP3 PUSH2 0x50FA JUMP JUMPDEST POP PUSH1 0x80 DUP4 ADD MLOAD PUSH2 0x5212 PUSH1 0x80 DUP7 ADD DUP3 PUSH2 0x50FA JUMP JUMPDEST POP PUSH1 0xA0 DUP4 ADD MLOAD PUSH2 0x5225 PUSH1 0xA0 DUP7 ADD DUP3 PUSH2 0x50FA JUMP JUMPDEST POP PUSH1 0xC0 DUP4 ADD MLOAD PUSH2 0x5238 PUSH1 0xC0 DUP7 ADD DUP3 PUSH2 0x50FA JUMP JUMPDEST POP PUSH1 0xE0 DUP4 ADD MLOAD PUSH2 0x524B PUSH1 0xE0 DUP7 ADD DUP3 PUSH2 0x50FA JUMP JUMPDEST POP PUSH2 0x100 DUP4 ADD MLOAD DUP5 DUP3 SUB PUSH2 0x100 DUP7 ADD MSTORE PUSH2 0x5265 DUP3 DUP3 PUSH2 0x515E JUMP JUMPDEST SWAP2 POP POP PUSH2 0x120 DUP4 ADD MLOAD PUSH2 0x527C PUSH2 0x120 DUP7 ADD DUP3 PUSH2 0x5197 JUMP JUMPDEST POP DUP1 SWAP2 POP POP SWAP3 SWAP2 POP POP JUMP JUMPDEST PUSH1 0x0 PUSH2 0x5293 DUP4 DUP4 PUSH2 0x51A6 JUMP JUMPDEST SWAP1 POP SWAP3 SWAP2 POP POP JUMP JUMPDEST PUSH1 0x0 PUSH1 0x20 DUP3 ADD SWAP1 POP SWAP2 SWAP1 POP JUMP JUMPDEST PUSH1 0x0 PUSH2 0x52B3 DUP3 PUSH2 0x50CE JUMP JUMPDEST PUSH2 0x52BD DUP2 DUP6 PUSH2 0x50D9 JUMP JUMPDEST SWAP4 POP DUP4 PUSH1 0x20 DUP3 MUL DUP6 ADD PUSH2 0x52CF DUP6 PUSH2 0x50EA JUMP JUMPDEST DUP1 PUSH1 0x0 JUMPDEST DUP6 DUP2 LT ISZERO PUSH2 0x530B JUMPI DUP5 DUP5 SUB DUP10 MSTORE DUP2 MLOAD PUSH2 0x52EC DUP6 DUP3 PUSH2 0x5287 JUMP JUMPDEST SWAP5 POP PUSH2 0x52F7 DUP4 PUSH2 0x529B JUMP JUMPDEST SWAP3 POP PUSH1 0x20 DUP11 ADD SWAP10 POP POP PUSH1 0x1 DUP2 ADD SWAP1 POP PUSH2 0x52D3 JUMP JUMPDEST POP DUP3 SWAP8 POP DUP8 SWAP6 POP POP POP POP POP POP SWAP3 SWAP2 POP POP JUMP JUMPDEST PUSH1 0x0 PUSH1 0x20 DUP3 ADD SWAP1 POP DUP2 DUP2 SUB PUSH1 0x0 DUP4 ADD MSTORE PUSH2 0x5337 DUP2 DUP5 PUSH2 0x52A8 JUMP JUMPDEST SWAP1 POP SWAP3 SWAP2 POP POP JUMP JUMPDEST PUSH1 0x0 DUP1 PUSH1 0x0 DUP1 PUSH1 0x0 PUSH1 0xA0 DUP7 DUP9 SUB SLT ISZERO PUSH2 0x535B JUMPI PUSH2 0x535A PUSH2 0x4961 JUMP JUMPDEST JUMPDEST PUSH1 0x0 DUP7 ADD CALLDATALOAD PUSH8 0xFFFFFFFFFFFFFFFF DUP2 GT ISZERO PUSH2 0x5379 JUMPI PUSH2 0x5378 PUSH2 0x4966 JUMP JUMPDEST JUMPDEST PUSH2 0x5385 DUP9 DUP3 DUP10 ADD PUSH2 0x4CC2 JUMP JUMPDEST SWAP6 POP POP PUSH1 0x20 DUP7 ADD CALLDATALOAD PUSH8 0xFFFFFFFFFFFFFFFF DUP2 GT ISZERO PUSH2 0x53A6 JUMPI PUSH2 0x53A5 PUSH2 0x4966 JUMP JUMPDEST JUMPDEST PUSH2 0x53B2 DUP9 DUP3 DUP10 ADD PUSH2 0x4B43 JUMP JUMPDEST SWAP5 POP POP PUSH1 0x40 DUP7 ADD CALLDATALOAD PUSH8 0xFFFFFFFFFFFFFFFF DUP2 GT ISZERO PUSH2 0x53D3 JUMPI PUSH2 0x53D2 PUSH2 0x4966 JUMP JUMPDEST JUMPDEST PUSH2 0x53DF DUP9 DUP3 DUP10 ADD PUSH2 0x4B43 JUMP JUMPDEST SWAP4 POP POP PUSH1 0x60 DUP7 ADD CALLDATALOAD PUSH8 0xFFFFFFFFFFFFFFFF DUP2 GT ISZERO PUSH2 0x5400 JUMPI PUSH2 0x53FF PUSH2 0x4966 JUMP JUMPDEST JUMPDEST PUSH2 0x540C DUP9 DUP3 DUP10 ADD PUSH2 0x4B43 JUMP JUMPDEST SWAP3 POP POP PUSH1 0x80 PUSH2 0x541D DUP9 DUP3 DUP10 ADD PUSH2 0x4BC6 JUMP JUMPDEST SWAP2 POP POP SWAP3 SWAP6 POP SWAP3 SWAP6 SWAP1 SWAP4 POP JUMP JUMPDEST PUSH1 0x0 DUP2 SWAP1 POP SWAP2 SWAP1 POP JUMP JUMPDEST PUSH2 0x543D DUP2 PUSH2 0x542A JUMP JUMPDEST DUP3 MSTORE POP POP JUMP JUMPDEST PUSH1 0x0 PUSH1 0x20 DUP3 ADD SWAP1 POP PUSH2 0x5458 PUSH1 0x0 DUP4 ADD DUP5 PUSH2 0x5434 JUMP JUMPDEST SWAP3 SWAP2 POP POP JUMP JUMPDEST PUSH1 0x0 DUP1 PUSH1 0x40 DUP4 DUP6 SUB SLT ISZERO PUSH2 0x5475 JUMPI PUSH2 0x5474 PUSH2 0x4961 JUMP JUMPDEST JUMPDEST PUSH1 0x0 PUSH2 0x5483 DUP6 DUP3 DUP7 ADD PUSH2 0x4BC6 JUMP JUMPDEST SWAP3 POP POP PUSH1 0x20 PUSH2 0x5494 DUP6 DUP3 DUP7 ADD PUSH2 0x4CAD JUMP JUMPDEST SWAP2 POP POP SWAP3 POP SWAP3 SWAP1 POP JUMP JUMPDEST PUSH2 0x54A7 DUP2 PUSH2 0x4F05 JUMP JUMPDEST DUP2 EQ PUSH2 0x54B2 JUMPI PUSH1 0x0 DUP1 REVERT JUMPDEST POP JUMP JUMPDEST PUSH1 0x0 DUP2 CALLDATALOAD SWAP1 POP PUSH2 0x54C4 DUP2 PUSH2 0x549E JUMP JUMPDEST SWAP3 SWAP2 POP POP JUMP JUMPDEST PUSH1 0x0 PUSH1 0x20 DUP3 DUP5 SUB SLT ISZERO PUSH2 0x54E0 JUMPI PUSH2 0x54DF PUSH2 0x4961 JUMP JUMPDEST JUMPDEST PUSH1 0x0 PUSH2 0x54EE DUP5 DUP3 DUP6 ADD PUSH2 0x54B5 JUMP JUMPDEST SWAP2 POP POP SWAP3 SWAP2 POP POP JUMP JUMPDEST PUSH1 0x0 PUSH1 0xFF DUP3 AND SWAP1 POP SWAP2 SWAP1 POP JUMP JUMPDEST PUSH2 0x550D DUP2 PUSH2 0x54F7 JUMP JUMPDEST DUP3 MSTORE POP POP JUMP JUMPDEST PUSH1 0x0 PUSH1 0x20 DUP3 ADD SWAP1 POP PUSH2 0x5528 PUSH1 0x0 DUP4 ADD DUP5 PUSH2 0x5504 JUMP JUMPDEST SWAP3 SWAP2 POP POP JUMP JUMPDEST PUSH2 0x5537 DUP2 PUSH2 0x4A79 JUMP JUMPDEST DUP3 MSTORE POP POP JUMP JUMPDEST PUSH1 0x0 PUSH1 0x20 DUP3 ADD SWAP1 POP PUSH2 0x5552 PUSH1 0x0 DUP4 ADD DUP5 PUSH2 0x552E JUMP JUMPDEST SWAP3 SWAP2 POP POP JUMP JUMPDEST PUSH1 0x0 DUP1 PUSH1 0x0 DUP1 PUSH1 0x0 DUP1 PUSH1 0xC0 DUP8 DUP10 SUB SLT ISZERO PUSH2 0x5575 JUMPI PUSH2 0x5574 PUSH2 0x4961 JUMP JUMPDEST JUMPDEST PUSH1 0x0 PUSH2 0x5583 DUP10 DUP3 DUP11 ADD PUSH2 0x4B9A JUMP JUMPDEST SWAP7 POP POP PUSH1 0x20 PUSH2 0x5594 DUP10 DUP3 DUP11 ADD PUSH2 0x4BC6 JUMP JUMPDEST SWAP6 POP POP PUSH1 0x40 PUSH2 0x55A5 DUP10 DUP3 DUP11 ADD PUSH2 0x4BC6 JUMP JUMPDEST SWAP5 POP POP PUSH1 0x60 PUSH2 0x55B6 DUP10 DUP3 DUP11 ADD PUSH2 0x4C02 JUMP JUMPDEST SWAP4 POP POP PUSH1 0x80 PUSH2 0x55C7 DUP10 DUP3 DUP11 ADD PUSH2 0x4C02 JUMP JUMPDEST SWAP3 POP POP PUSH1 0xA0 PUSH2 0x55D8 DUP10 DUP3 DUP11 ADD PUSH2 0x4BC6 JUMP JUMPDEST SWAP2 POP POP SWAP3 SWAP6 POP SWAP3 SWAP6 POP SWAP3 SWAP6 JUMP JUMPDEST PUSH1 0x0 PUSH1 0x20 DUP3 DUP5 SUB SLT ISZERO PUSH2 0x55FB JUMPI PUSH2 0x55FA PUSH2 0x4961 JUMP JUMPDEST JUMPDEST PUSH1 0x0 DUP3 ADD CALLDATALOAD PUSH8 0xFFFFFFFFFFFFFFFF DUP2 GT ISZERO PUSH2 0x5619 JUMPI PUSH2 0x5618 PUSH2 0x4966 JUMP JUMPDEST JUMPDEST PUSH2 0x5625 DUP5 DUP3 DUP6 ADD PUSH2 0x4B43 JUMP JUMPDEST SWAP2 POP POP SWAP3 SWAP2 POP POP JUMP JUMPDEST PUSH1 0x0 PUSH2 0x240 DUP3 DUP5 SUB SLT ISZERO PUSH2 0x5645 JUMPI PUSH2 0x5644 PUSH2 0x496B JUMP JUMPDEST JUMPDEST PUSH2 0x5650 PUSH2 0x240 PUSH2 0x49E1 JUMP JUMPDEST SWAP1 POP PUSH1 0x0 PUSH2 0x5660 DUP5 DUP3 DUP6 ADD PUSH2 0x4AA2 JUMP JUMPDEST PUSH1 0x0 DUP4 ADD MSTORE POP PUSH1 0x20 PUSH2 0x5674 DUP5 DUP3 DUP6 ADD PUSH2 0x4AA2 JUMP JUMPDEST PUSH1 0x20 DUP4 ADD MSTORE POP PUSH1 0x40 DUP3 ADD CALLDATALOAD PUSH8 0xFFFFFFFFFFFFFFFF DUP2 GT ISZERO PUSH2 0x5698 JUMPI PUSH2 0x5697 PUSH2 0x49FC JUMP JUMPDEST JUMPDEST PUSH2 0x56A4 DUP5 DUP3 DUP6 ADD PUSH2 0x4B43 JUMP JUMPDEST PUSH1 0x40 DUP4 ADD MSTORE POP PUSH1 0x60 PUSH2 0x56B8 DUP5 DUP3 DUP6 ADD PUSH2 0x4AA2 JUMP JUMPDEST PUSH1 0x60 DUP4 ADD MSTORE POP PUSH1 0x80 DUP3 ADD CALLDATALOAD PUSH8 0xFFFFFFFFFFFFFFFF DUP2 GT ISZERO PUSH2 0x56DC JUMPI PUSH2 0x56DB PUSH2 0x49FC JUMP JUMPDEST JUMPDEST PUSH2 0x56E8 DUP5 DUP3 DUP6 ADD PUSH2 0x4B43 JUMP JUMPDEST PUSH1 0x80 DUP4 ADD MSTORE POP PUSH1 0xA0 PUSH2 0x56FC DUP5 DUP3 DUP6 ADD PUSH2 0x4BC6 JUMP JUMPDEST PUSH1 0xA0 DUP4 ADD MSTORE POP PUSH1 0xC0 PUSH2 0x5710 DUP5 DUP3 DUP6 ADD PUSH2 0x4BC6 JUMP JUMPDEST PUSH1 0xC0 DUP4 ADD MSTORE POP PUSH1 0xE0 PUSH2 0x5724 DUP5 DUP3 DUP6 ADD PUSH2 0x4C3B JUMP JUMPDEST PUSH1 0xE0 DUP4 ADD MSTORE POP PUSH2 0x100 DUP3 ADD CALLDATALOAD PUSH8 0xFFFFFFFFFFFFFFFF DUP2 GT ISZERO PUSH2 0x5749 JUMPI PUSH2 0x5748 PUSH2 0x49FC JUMP JUMPDEST JUMPDEST PUSH2 0x5755 DUP5 DUP3 DUP6 ADD PUSH2 0x4B43 JUMP JUMPDEST PUSH2 0x100 DUP4 ADD MSTORE POP PUSH2 0x120 PUSH2 0x576B DUP5 DUP3 DUP6 ADD PUSH2 0x4C02 JUMP JUMPDEST PUSH2 0x120 DUP4 ADD MSTORE POP PUSH2 0x140 PUSH2 0x5781 DUP5 DUP3 DUP6 ADD PUSH2 0x4BC6 JUMP JUMPDEST PUSH2 0x140 DUP4 ADD MSTORE POP PUSH2 0x160 PUSH2 0x5797 DUP5 DUP3 DUP6 ADD PUSH2 0x4C02 JUMP JUMPDEST PUSH2 0x160 DUP4 ADD MSTORE POP PUSH2 0x180 PUSH2 0x57AD DUP5 DUP3 DUP6 ADD PUSH2 0x4C02 JUMP JUMPDEST PUSH2 0x180 DUP4 ADD MSTORE POP PUSH2 0x1A0 PUSH2 0x57C3 DUP5 DUP3 DUP6 ADD PUSH2 0x4C75 JUMP JUMPDEST PUSH2 0x1A0 DUP4 ADD MSTORE POP PUSH2 0x1C0 PUSH2 0x57D9 DUP5 DUP3 DUP6 ADD PUSH2 0x4C75 JUMP JUMPDEST PUSH2 0x1C0 DUP4 ADD MSTORE POP PUSH2 0x1E0 PUSH2 0x57EF DUP5 DUP3 DUP6 ADD PUSH2 0x4C02 JUMP JUMPDEST PUSH2 0x1E0 DUP4 ADD MSTORE POP PUSH2 0x200 PUSH2 0x5805 DUP5 DUP3 DUP6 ADD PUSH2 0x4C02 JUMP JUMPDEST PUSH2 0x200 DUP4 ADD MSTORE POP PUSH2 0x220 PUSH2 0x581B DUP5 DUP3 DUP6 ADD PUSH2 0x4C02 JUMP JUMPDEST PUSH2 0x220 DUP4 ADD MSTORE POP SWAP3 SWAP2 POP POP JUMP JUMPDEST PUSH1 0x0 PUSH8 0xFFFFFFFFFFFFFFFF DUP3 GT ISZERO PUSH2 0x5843 JUMPI PUSH2 0x5842 PUSH2 0x4981 JUMP JUMPDEST JUMPDEST PUSH1 0x20 DUP3 MUL SWAP1 POP PUSH1 0x20 DUP2 ADD SWAP1 POP SWAP2 SWAP1 POP JUMP JUMPDEST PUSH1 0x0 PUSH2 0x5867 PUSH2 0x5862 DUP5 PUSH2 0x5828 JUMP JUMPDEST PUSH2 0x49E1 JUMP JUMPDEST SWAP1 POP DUP1 DUP4 DUP3 MSTORE PUSH1 0x20 DUP3 ADD SWAP1 POP PUSH1 0x20 DUP5 MUL DUP4 ADD DUP6 DUP2 GT ISZERO PUSH2 0x588A JUMPI PUSH2 0x5889 PUSH2 0x4FE9 JUMP JUMPDEST JUMPDEST DUP4 JUMPDEST DUP2 DUP2 LT ISZERO PUSH2 0x58B3 JUMPI DUP1 PUSH2 0x589F DUP9 DUP3 PUSH2 0x54B5 JUMP JUMPDEST DUP5 MSTORE PUSH1 0x20 DUP5 ADD SWAP4 POP POP PUSH1 0x20 DUP2 ADD SWAP1 POP PUSH2 0x588C JUMP JUMPDEST POP POP POP SWAP4 SWAP3 POP POP POP JUMP JUMPDEST PUSH1 0x0 DUP3 PUSH1 0x1F DUP4 ADD SLT PUSH2 0x58D2 JUMPI PUSH2 0x58D1 PUSH2 0x4AB7 JUMP JUMPDEST JUMPDEST DUP2 CALLDATALOAD PUSH2 0x58E2 DUP5 DUP3 PUSH1 0x20 DUP7 ADD PUSH2 0x5854 JUMP JUMPDEST SWAP2 POP POP SWAP3 SWAP2 POP POP JUMP JUMPDEST PUSH1 0x0 DUP1 PUSH1 0x0 DUP1 PUSH1 0x0 PUSH1 0xA0 DUP7 DUP9 SUB SLT ISZERO PUSH2 0x5907 JUMPI PUSH2 0x5906 PUSH2 0x4961 JUMP JUMPDEST JUMPDEST PUSH1 0x0 DUP7 ADD CALLDATALOAD PUSH8 0xFFFFFFFFFFFFFFFF DUP2 GT ISZERO PUSH2 0x5925 JUMPI PUSH2 0x5924 PUSH2 0x4966 JUMP JUMPDEST JUMPDEST PUSH2 0x5931 DUP9 DUP3 DUP10 ADD PUSH2 0x562E JUMP JUMPDEST SWAP6 POP POP PUSH1 0x20 PUSH2 0x5942 DUP9 DUP3 DUP10 ADD PUSH2 0x54B5 JUMP JUMPDEST SWAP5 POP POP PUSH1 0x40 PUSH2 0x5953 DUP9 DUP3 DUP10 ADD PUSH2 0x54B5 JUMP JUMPDEST SWAP4 POP POP PUSH1 0x60 PUSH2 0x5964 DUP9 DUP3 DUP10 ADD PUSH2 0x4BC6 JUMP JUMPDEST SWAP3 POP POP PUSH1 0x80 DUP7 ADD CALLDATALOAD PUSH8 0xFFFFFFFFFFFFFFFF DUP2 GT ISZERO PUSH2 0x5985 JUMPI PUSH2 0x5984 PUSH2 0x4966 JUMP JUMPDEST JUMPDEST PUSH2 0x5991 DUP9 DUP3 DUP10 ADD PUSH2 0x58BD JUMP JUMPDEST SWAP2 POP POP SWAP3 SWAP6 POP SWAP3 SWAP6 SWAP1 SWAP4 POP JUMP JUMPDEST PUSH1 0x0 DUP1 PUSH1 0x40 DUP4 DUP6 SUB SLT ISZERO PUSH2 0x59B5 JUMPI PUSH2 0x59B4 PUSH2 0x4961 JUMP JUMPDEST JUMPDEST PUSH1 0x0 DUP4 ADD CALLDATALOAD PUSH8 0xFFFFFFFFFFFFFFFF DUP2 GT ISZERO PUSH2 0x59D3 JUMPI PUSH2 0x59D2 PUSH2 0x4966 JUMP JUMPDEST JUMPDEST PUSH2 0x59DF DUP6 DUP3 DUP7 ADD PUSH2 0x562E JUMP JUMPDEST SWAP3 POP POP PUSH1 0x20 DUP4 ADD CALLDATALOAD PUSH8 0xFFFFFFFFFFFFFFFF DUP2 GT ISZERO PUSH2 0x5A00 JUMPI PUSH2 0x59FF PUSH2 0x4966 JUMP JUMPDEST JUMPDEST PUSH2 0x5A0C DUP6 DUP3 DUP7 ADD PUSH2 0x4B43 JUMP JUMPDEST SWAP2 POP POP SWAP3 POP SWAP3 SWAP1 POP JUMP JUMPDEST PUSH1 0x0 PUSH1 0x20 DUP3 DUP5 SUB SLT ISZERO PUSH2 0x5A2C JUMPI PUSH2 0x5A2B PUSH2 0x4961 JUMP JUMPDEST JUMPDEST PUSH1 0x0 DUP3 ADD CALLDATALOAD PUSH8 0xFFFFFFFFFFFFFFFF DUP2 GT ISZERO PUSH2 0x5A4A JUMPI PUSH2 0x5A49 PUSH2 0x4966 JUMP JUMPDEST JUMPDEST PUSH2 0x5A56 DUP5 DUP3 DUP6 ADD PUSH2 0x562E JUMP JUMPDEST SWAP2 POP POP SWAP3 SWAP2 POP POP JUMP JUMPDEST PUSH1 0x0 PUSH8 0xFFFFFFFFFFFFFFFF DUP3 GT ISZERO PUSH2 0x5A7A JUMPI PUSH2 0x5A79 PUSH2 0x4981 JUMP JUMPDEST JUMPDEST PUSH2 0x5A83 DUP3 PUSH2 0x4970 JUMP JUMPDEST SWAP1 POP PUSH1 0x20 DUP2 ADD SWAP1 POP SWAP2 SWAP1 POP JUMP JUMPDEST PUSH1 0x0 PUSH2 0x5AA3 PUSH2 0x5A9E DUP5 PUSH2 0x5A5F JUMP JUMPDEST PUSH2 0x49E1 JUMP JUMPDEST SWAP1 POP DUP3 DUP2 MSTORE PUSH1 0x20 DUP2 ADD DUP5 DUP5 DUP5 ADD GT ISZERO PUSH2 0x5ABF JUMPI PUSH2 0x5ABE PUSH2 0x4ABC JUMP JUMPDEST JUMPDEST PUSH2 0x5ACA DUP5 DUP3 DUP6 PUSH2 0x4AF2 JUMP JUMPDEST POP SWAP4 SWAP3 POP POP POP JUMP JUMPDEST PUSH1 0x0 DUP3 PUSH1 0x1F DUP4 ADD SLT PUSH2 0x5AE7 JUMPI PUSH2 0x5AE6 PUSH2 0x4AB7 JUMP JUMPDEST JUMPDEST DUP2 CALLDATALOAD PUSH2 0x5AF7 DUP5 DUP3 PUSH1 0x20 DUP7 ADD PUSH2 0x5A90 JUMP JUMPDEST SWAP2 POP POP SWAP3 SWAP2 POP POP JUMP JUMPDEST PUSH1 0x0 DUP1 PUSH1 0x0 DUP1 PUSH1 0x0 DUP1 PUSH1 0x0 DUP1 PUSH2 0x100 DUP10 DUP12 SUB SLT ISZERO PUSH2 0x5B21 JUMPI PUSH2 0x5B20 PUSH2 0x4961 JUMP JUMPDEST JUMPDEST PUSH1 0x0 DUP10 ADD CALLDATALOAD PUSH8 0xFFFFFFFFFFFFFFFF DUP2 GT ISZERO PUSH2 0x5B3F JUMPI PUSH2 0x5B3E PUSH2 0x4966 JUMP JUMPDEST JUMPDEST PUSH2 0x5B4B DUP12 DUP3 DUP13 ADD PUSH2 0x5AD2 JUMP JUMPDEST SWAP9 POP POP PUSH1 0x20 PUSH2 0x5B5C DUP12 DUP3 DUP13 ADD PUSH2 0x4BC6 JUMP JUMPDEST SWAP8 POP POP PUSH1 0x40 PUSH2 0x5B6D DUP12 DUP3 DUP13 ADD PUSH2 0x4BC6 JUMP JUMPDEST SWAP7 POP POP PUSH1 0x60 PUSH2 0x5B7E DUP12 DUP3 DUP13 ADD PUSH2 0x4BC6 JUMP JUMPDEST SWAP6 POP POP PUSH1 0x80 PUSH2 0x5B8F DUP12 DUP3 DUP13 ADD PUSH2 0x4BC6 JUMP JUMPDEST SWAP5 POP POP PUSH1 0xA0 PUSH2 0x5BA0 DUP12 DUP3 DUP13 ADD PUSH2 0x4BC6 JUMP JUMPDEST SWAP4 POP POP PUSH1 0xC0 DUP10 ADD CALLDATALOAD PUSH8 0xFFFFFFFFFFFFFFFF DUP2 GT ISZERO PUSH2 0x5BC1 JUMPI PUSH2 0x5BC0 PUSH2 0x4966 JUMP JUMPDEST JUMPDEST PUSH2 0x5BCD DUP12 DUP3 DUP13 ADD PUSH2 0x5AD2 JUMP JUMPDEST SWAP3 POP POP PUSH1 0xE0 PUSH2 0x5BDE DUP12 DUP3 DUP13 ADD PUSH2 0x4CAD JUMP JUMPDEST SWAP2 POP POP SWAP3 SWAP6 SWAP9 POP SWAP3 SWAP6 SWAP9 SWAP1 SWAP4 SWAP7 POP JUMP JUMPDEST PUSH32 0x496E73756666696369656E742066756E64730000000000000000000000000000 PUSH1 0x0 DUP3 ADD MSTORE POP JUMP JUMPDEST PUSH1 0x0 PUSH2 0x5C24 PUSH1 0x12 DUP4 PUSH2 0x48A6 JUMP JUMPDEST SWAP2 POP PUSH2 0x5C2F DUP3 PUSH2 0x5BEE JUMP JUMPDEST PUSH1 0x20 DUP3 ADD SWAP1 POP SWAP2 SWAP1 POP JUMP JUMPDEST PUSH1 0x0 PUSH1 0x20 DUP3 ADD SWAP1 POP DUP2 DUP2 SUB PUSH1 0x0 DUP4 ADD MSTORE PUSH2 0x5C53 DUP2 PUSH2 0x5C17 JUMP JUMPDEST SWAP1 POP SWAP2 SWAP1 POP JUMP JUMPDEST PUSH32 0x4E487B7100000000000000000000000000000000000000000000000000000000 PUSH1 0x0 MSTORE PUSH1 0x11 PUSH1 0x4 MSTORE PUSH1 0x24 PUSH1 0x0 REVERT JUMPDEST PUSH1 0x0 PUSH2 0x5C94 DUP3 PUSH2 0x4923 JUMP JUMPDEST SWAP2 POP PUSH2 0x5C9F DUP4 PUSH2 0x4923 JUMP JUMPDEST SWAP3 POP DUP3 DUP3 SUB SWAP1 POP DUP2 DUP2 GT ISZERO PUSH2 0x5CB7 JUMPI PUSH2 0x5CB6 PUSH2 0x5C5A JUMP JUMPDEST JUMPDEST SWAP3 SWAP2 POP POP JUMP JUMPDEST PUSH1 0x0 DUP2 SWAP1 POP SWAP3 SWAP2 POP POP JUMP JUMPDEST POP JUMP JUMPDEST PUSH1 0x0 PUSH2 0x5CD8 PUSH1 0x0 DUP4 PUSH2 0x5CBD JUMP JUMPDEST SWAP2 POP PUSH2 0x5CE3 DUP3 PUSH2 0x5CC8 JUMP JUMPDEST PUSH1 0x0 DUP3 ADD SWAP1 POP SWAP2 SWAP1 POP JUMP JUMPDEST PUSH1 0x0 PUSH2 0x5CF9 DUP3 PUSH2 0x5CCB JUMP JUMPDEST SWAP2 POP DUP2 SWAP1 POP SWAP2 SWAP1 POP JUMP JUMPDEST PUSH32 0x53656E64696E672066756E6473206661696C6564000000000000000000000000 PUSH1 0x0 DUP3 ADD MSTORE POP JUMP JUMPDEST PUSH1 0x0 PUSH2 0x5D39 PUSH1 0x14 DUP4 PUSH2 0x48A6 JUMP JUMPDEST SWAP2 POP PUSH2 0x5D44 DUP3 PUSH2 0x5D03 JUMP JUMPDEST PUSH1 0x20 DUP3 ADD SWAP1 POP SWAP2 SWAP1 POP JUMP JUMPDEST PUSH1 0x0 PUSH1 0x20 DUP3 ADD SWAP1 POP DUP2 DUP2 SUB PUSH1 0x0 DUP4 ADD MSTORE PUSH2 0x5D68 DUP2 PUSH2 0x5D2C JUMP JUMPDEST SWAP1 POP SWAP2 SWAP1 POP JUMP JUMPDEST PUSH1 0x0 PUSH1 0x40 DUP3 ADD SWAP1 POP PUSH2 0x5D84 PUSH1 0x0 DUP4 ADD DUP6 PUSH2 0x552E JUMP JUMPDEST PUSH2 0x5D91 PUSH1 0x20 DUP4 ADD DUP5 PUSH2 0x492D JUMP JUMPDEST SWAP4 SWAP3 POP POP POP JUMP JUMPDEST PUSH32 0x4E6F742072656769737465726564000000000000000000000000000000000000 PUSH1 0x0 DUP3 ADD MSTORE POP JUMP JUMPDEST PUSH1 0x0 PUSH2 0x5DCE PUSH1 0xE DUP4 PUSH2 0x48A6 JUMP JUMPDEST SWAP2 POP PUSH2 0x5DD9 DUP3 PUSH2 0x5D98 JUMP JUMPDEST PUSH1 0x20 DUP3 ADD SWAP1 POP SWAP2 SWAP1 POP JUMP JUMPDEST PUSH1 0x0 PUSH1 0x20 DUP3 ADD SWAP1 POP DUP2 DUP2 SUB PUSH1 0x0 DUP4 ADD MSTORE PUSH2 0x5DFD DUP2 PUSH2 0x5DC1 JUMP JUMPDEST SWAP1 POP SWAP2 SWAP1 POP JUMP JUMPDEST PUSH32 0x4E65656420746F2072657369676E206669727374000000000000000000000000 PUSH1 0x0 DUP3 ADD MSTORE POP JUMP JUMPDEST PUSH1 0x0 PUSH2 0x5E3A PUSH1 0x14 DUP4 PUSH2 0x48A6 JUMP JUMPDEST SWAP2 POP PUSH2 0x5E45 DUP3 PUSH2 0x5E04 JUMP JUMPDEST PUSH1 0x20 DUP3 ADD SWAP1 POP SWAP2 SWAP1 POP JUMP JUMPDEST PUSH1 0x0 PUSH1 0x20 DUP3 ADD SWAP1 POP DUP2 DUP2 SUB PUSH1 0x0 DUP4 ADD MSTORE PUSH2 0x5E69 DUP2 PUSH2 0x5E2D JUMP JUMPDEST SWAP1 POP SWAP2 SWAP1 POP JUMP JUMPDEST PUSH32 0x4E6F7420656E6F75676820626C6F636B73000000000000000000000000000000 PUSH1 0x0 DUP3 ADD MSTORE POP JUMP JUMPDEST PUSH1 0x0 PUSH2 0x5EA6 PUSH1 0x11 DUP4 PUSH2 0x48A6 JUMP JUMPDEST SWAP2 POP PUSH2 0x5EB1 DUP3 PUSH2 0x5E70 JUMP JUMPDEST PUSH1 0x20 DUP3 ADD SWAP1 POP SWAP2 SWAP1 POP JUMP JUMPDEST PUSH1 0x0 PUSH1 0x20 DUP3 ADD SWAP1 POP DUP2 DUP2 SUB PUSH1 0x0 DUP4 ADD MSTORE PUSH2 0x5ED5 DUP2 PUSH2 0x5E99 JUMP JUMPDEST SWAP1 POP SWAP2 SWAP1 POP JUMP JUMPDEST PUSH32 0x4E487B7100000000000000000000000000000000000000000000000000000000 PUSH1 0x0 MSTORE PUSH1 0x32 PUSH1 0x4 MSTORE PUSH1 0x24 PUSH1 0x0 REVERT JUMPDEST PUSH32 0x4E487B7100000000000000000000000000000000000000000000000000000000 PUSH1 0x0 MSTORE PUSH1 0x22 PUSH1 0x4 MSTORE PUSH1 0x24 PUSH1 0x0 REVERT JUMPDEST PUSH1 0x0 PUSH1 0x2 DUP3 DIV SWAP1 POP PUSH1 0x1 DUP3 AND DUP1 PUSH2 0x5F52 JUMPI PUSH1 0x7F DUP3 AND SWAP2 POP JUMPDEST PUSH1 0x20 DUP3 LT DUP2 SUB PUSH2 0x5F65 JUMPI PUSH2 0x5F64 PUSH2 0x5F0B JUMP JUMPDEST JUMPDEST POP SWAP2 SWAP1 POP JUMP JUMPDEST PUSH1 0x0 PUSH2 0x5F76 DUP3 PUSH2 0x4923 JUMP JUMPDEST SWAP2 POP PUSH32 0xFFFFFFFFFFFFFFFFFFFFFFFFFFFFFFFFFFFFFFFFFFFFFFFFFFFFFFFFFFFFFFFF DUP3 SUB PUSH2 0x5FA8 JUMPI PUSH2 0x5FA7 PUSH2 0x5C5A JUMP JUMPDEST JUMPDEST PUSH1 0x1 DUP3 ADD SWAP1 POP SWAP2 SWAP1 POP JUMP JUMPDEST PUSH32 0x416C72656164792072657369676E656400000000000000000000000000000000 PUSH1 0x0 DUP3 ADD MSTORE POP JUMP JUMPDEST PUSH1 0x0 PUSH2 0x5FE9 PUSH1 0x10 DUP4 PUSH2 0x48A6 JUMP JUMPDEST SWAP2 POP PUSH2 0x5FF4 DUP3 PUSH2 0x5FB3 JUMP JUMPDEST PUSH1 0x20 DUP3 ADD SWAP1 POP SWAP2 SWAP1 POP JUMP JUMPDEST PUSH1 0x0 PUSH1 0x20 DUP3 ADD SWAP1 POP DUP2 DUP2 SUB PUSH1 0x0 DUP4 ADD MSTORE PUSH2 0x6018 DUP2 PUSH2 0x5FDC JUMP JUMPDEST SWAP1 POP SWAP2 SWAP1 POP JUMP JUMPDEST PUSH32 0x5265656E7472616E742063616C6C000000000000000000000000000000000000 PUSH1 0x0 DUP3 ADD MSTORE POP JUMP JUMPDEST PUSH1 0x0 PUSH2 0x6055 PUSH1 0xE DUP4 PUSH2 0x48A6 JUMP JUMPDEST SWAP2 POP PUSH2 0x6060 DUP3 PUSH2 0x601F JUMP JUMPDEST PUSH1 0x20 DUP3 ADD SWAP1 POP SWAP2 SWAP1 POP JUMP JUMPDEST PUSH1 0x0 PUSH1 0x20 DUP3 ADD SWAP1 POP DUP2 DUP2 SUB PUSH1 0x0 DUP4 ADD MSTORE PUSH2 0x6084 DUP2 PUSH2 0x6048 JUMP JUMPDEST SWAP1 POP SWAP2 SWAP1 POP JUMP JUMPDEST PUSH32 0x51756F746520616C726561647920726567697374657265640000000000000000 PUSH1 0x0 DUP3 ADD MSTORE POP JUMP JUMPDEST PUSH1 0x0 PUSH2 0x60C1 PUSH1 0x18 DUP4 PUSH2 0x48A6 JUMP JUMPDEST SWAP2 POP PUSH2 0x60CC DUP3 PUSH2 0x608B JUMP JUMPDEST PUSH1 0x20 DUP3 ADD SWAP1 POP SWAP2 SWAP1 POP JUMP JUMPDEST PUSH1 0x0 PUSH1 0x20 DUP3 ADD SWAP1 POP DUP2 DUP2 SUB PUSH1 0x0 DUP4 ADD MSTORE PUSH2 0x60F0 DUP2 PUSH2 0x60B4 JUMP JUMPDEST SWAP1 POP SWAP2 SWAP1 POP JUMP JUMPDEST PUSH2 0x6100 DUP2 PUSH2 0x4A79 JUMP JUMPDEST DUP3 MSTORE POP POP JUMP JUMPDEST PUSH2 0x610F DUP2 PUSH2 0x4F05 JUMP JUMPDEST DUP3 MSTORE POP POP JUMP JUMPDEST PUSH1 0x0 DUP2 MLOAD SWAP1 POP SWAP2 SWAP1 POP JUMP JUMPDEST PUSH1 0x0 DUP3 DUP3 MSTORE PUSH1 0x20 DUP3 ADD SWAP1 POP SWAP3 SWAP2 POP POP JUMP JUMPDEST PUSH1 0x0 PUSH2 0x613C DUP3 PUSH2 0x6115 JUMP JUMPDEST PUSH2 0x6146 DUP2 DUP6 PUSH2 0x6120 JUMP JUMPDEST SWAP4 POP PUSH2 0x6156 DUP2 DUP6 PUSH1 0x20 DUP7 ADD PUSH2 0x5134 JUMP JUMPDEST PUSH2 0x615F DUP2 PUSH2 0x4970 JUMP JUMPDEST DUP5 ADD SWAP2 POP POP SWAP3 SWAP2 POP POP JUMP JUMPDEST PUSH1 0x0 PUSH1 0x60 DUP3 ADD SWAP1 POP PUSH2 0x617F PUSH1 0x0 DUP4 ADD DUP7 PUSH2 0x60F7 JUMP JUMPDEST PUSH2 0x618C PUSH1 0x20 DUP4 ADD DUP6 PUSH2 0x6106 JUMP JUMPDEST DUP2 DUP2 SUB PUSH1 0x40 DUP4 ADD MSTORE PUSH2 0x619E DUP2 DUP5 PUSH2 0x6131 JUMP JUMPDEST SWAP1 POP SWAP5 SWAP4 POP POP POP POP JUMP JUMPDEST PUSH1 0x0 DUP2 MLOAD SWAP1 POP PUSH2 0x61B7 DUP2 PUSH2 0x4C96 JUMP JUMPDEST SWAP3 SWAP2 POP POP JUMP JUMPDEST PUSH1 0x0 PUSH1 0x20 DUP3 DUP5 SUB SLT ISZERO PUSH2 0x61D3 JUMPI PUSH2 0x61D2 PUSH2 0x4961 JUMP JUMPDEST JUMPDEST PUSH1 0x0 PUSH2 0x61E1 DUP5 DUP3 DUP6 ADD PUSH2 0x61A8 JUMP JUMPDEST SWAP2 POP POP SWAP3 SWAP2 POP POP JUMP JUMPDEST PUSH32 0x496E76616C6964207369676E6174757265000000000000000000000000000000 PUSH1 0x0 DUP3 ADD MSTORE POP JUMP JUMPDEST PUSH1 0x0 PUSH2 0x6220 PUSH1 0x11 DUP4 PUSH2 0x48A6 JUMP JUMPDEST SWAP2 POP PUSH2 0x622B DUP3 PUSH2 0x61EA JUMP JUMPDEST PUSH1 0x20 DUP3 ADD SWAP1 POP SWAP2 SWAP1 POP JUMP JUMPDEST PUSH1 0x0 PUSH1 0x20 DUP3 ADD SWAP1 POP DUP2 DUP2 SUB PUSH1 0x0 DUP4 ADD MSTORE PUSH2 0x624F DUP2 PUSH2 0x6213 JUMP JUMPDEST SWAP1 POP SWAP2 SWAP1 POP JUMP JUMPDEST PUSH32 0x486569676874206D757374206265206C6F776572207468616E20325E33310000 PUSH1 0x0 DUP3 ADD MSTORE POP JUMP JUMPDEST PUSH1 0x0 PUSH2 0x628C PUSH1 0x1E DUP4 PUSH2 0x48A6 JUMP JUMPDEST SWAP2 POP PUSH2 0x6297 DUP3 PUSH2 0x6256 JUMP JUMPDEST PUSH1 0x20 DUP3 ADD SWAP1 POP SWAP2 SWAP1 POP JUMP JUMPDEST PUSH1 0x0 PUSH1 0x20 DUP3 ADD SWAP1 POP DUP2 DUP2 SUB PUSH1 0x0 DUP4 ADD MSTORE PUSH2 0x62BB DUP2 PUSH2 0x627F JUMP JUMPDEST SWAP1 POP SWAP2 SWAP1 POP JUMP JUMPDEST PUSH32 0x4572726F72202D3330333A204661696C656420746F2076616C69646174652042 PUSH1 0x0 DUP3 ADD MSTORE PUSH32 0x5443207472616E73616374696F6E000000000000000000000000000000000000 PUSH1 0x20 DUP3 ADD MSTORE POP JUMP JUMPDEST PUSH1 0x0 PUSH2 0x631E PUSH1 0x2E DUP4 PUSH2 0x48A6 JUMP JUMPDEST SWAP2 POP PUSH2 0x6329 DUP3 PUSH2 0x62C2 JUMP JUMPDEST PUSH1 0x40 DUP3 ADD SWAP1 POP SWAP2 SWAP1 POP JUMP JUMPDEST PUSH1 0x0 PUSH1 0x20 DUP3 ADD SWAP1 POP DUP2 DUP2 SUB PUSH1 0x0 DUP4 ADD MSTORE PUSH2 0x634D DUP2 PUSH2 0x6311 JUMP JUMPDEST SWAP1 POP SWAP2 SWAP1 POP JUMP JUMPDEST PUSH32 0x4572726F72202D3330323A205472616E73616374696F6E20616C726561647920 PUSH1 0x0 DUP3 ADD MSTORE PUSH32 0x70726F6365737365640000000000000000000000000000000000000000000000 PUSH1 0x20 DUP3 ADD MSTORE POP JUMP JUMPDEST PUSH1 0x0 PUSH2 0x63B0 PUSH1 0x29 DUP4 PUSH2 0x48A6 JUMP JUMPDEST SWAP2 POP PUSH2 0x63BB DUP3 PUSH2 0x6354 JUMP JUMPDEST PUSH1 0x40 DUP3 ADD SWAP1 POP SWAP2 SWAP1 POP JUMP JUMPDEST PUSH1 0x0 PUSH1 0x20 DUP3 ADD SWAP1 POP DUP2 DUP2 SUB PUSH1 0x0 DUP4 ADD MSTORE PUSH2 0x63DF DUP2 PUSH2 0x63A3 JUMP JUMPDEST SWAP1 POP SWAP2 SWAP1 POP JUMP JUMPDEST PUSH32 0x4572726F72202D3330343A205472616E73616374696F6E2076616C7565206973 PUSH1 0x0 DUP3 ADD MSTORE PUSH32 0x207A65726F000000000000000000000000000000000000000000000000000000 PUSH1 0x20 DUP3 ADD MSTORE POP JUMP JUMPDEST PUSH1 0x0 PUSH2 0x6442 PUSH1 0x25 DUP4 PUSH2 0x48A6 JUMP JUMPDEST SWAP2 POP PUSH2 0x644D DUP3 PUSH2 0x63E6 JUMP JUMPDEST PUSH1 0x40 DUP3 ADD SWAP1 POP SWAP2 SWAP1 POP JUMP JUMPDEST PUSH1 0x0 PUSH1 0x20 DUP3 ADD SWAP1 POP DUP2 DUP2 SUB PUSH1 0x0 DUP4 ADD MSTORE PUSH2 0x6471 DUP2 PUSH2 0x6435 JUMP JUMPDEST SWAP1 POP SWAP2 SWAP1 POP JUMP JUMPDEST PUSH32 0x4572726F72202D3330353A205472616E73616374696F6E205554584F2076616C PUSH1 0x0 DUP3 ADD MSTORE PUSH32 0x75652069732062656C6F7720746865206D696E696D756D000000000000000000 PUSH1 0x20 DUP3 ADD MSTORE POP JUMP JUMPDEST PUSH1 0x0 PUSH2 0x64D4 PUSH1 0x37 DUP4 PUSH2 0x48A6 JUMP JUMPDEST SWAP2 POP PUSH2 0x64DF DUP3 PUSH2 0x6478 JUMP JUMPDEST PUSH1 0x40 DUP3 ADD SWAP1 POP SWAP2 SWAP1 POP JUMP JUMPDEST PUSH1 0x0 PUSH1 0x20 DUP3 ADD SWAP1 POP DUP2 DUP2 SUB PUSH1 0x0 DUP4 ADD MSTORE PUSH2 0x6503 DUP2 PUSH2 0x64C7 JUMP JUMPDEST SWAP1 POP SWAP2 SWAP1 POP JUMP JUMPDEST PUSH32 0x4572726F72202D3930303A20427269646765206572726F720000000000000000 PUSH1 0x0 DUP3 ADD MSTORE POP JUMP JUMPDEST PUSH1 0x0 PUSH2 0x6540 PUSH1 0x18 DUP4 PUSH2 0x48A6 JUMP JUMPDEST SWAP2 POP PUSH2 0x654B DUP3 PUSH2 0x650A JUMP JUMPDEST PUSH1 0x20 DUP3 ADD SWAP1 POP SWAP2 SWAP1 POP JUMP JUMPDEST PUSH1 0x0 PUSH1 0x20 DUP3 ADD SWAP1 POP DUP2 DUP2 SUB PUSH1 0x0 DUP4 ADD MSTORE PUSH2 0x656F DUP2 PUSH2 0x6533 JUMP JUMPDEST SWAP1 POP SWAP2 SWAP1 POP JUMP JUMPDEST PUSH32 0x556E6B6E6F776E20427269646765206572726F72000000000000000000000000 PUSH1 0x0 DUP3 ADD MSTORE POP JUMP JUMPDEST PUSH1 0x0 PUSH2 0x65AC PUSH1 0x14 DUP4 PUSH2 0x48A6 JUMP JUMPDEST SWAP2 POP PUSH2 0x65B7 DUP3 PUSH2 0x6576 JUMP JUMPDEST PUSH1 0x20 DUP3 ADD SWAP1 POP SWAP2 SWAP1 POP JUMP JUMPDEST PUSH1 0x0 PUSH1 0x20 DUP3 ADD SWAP1 POP DUP2 DUP2 SUB PUSH1 0x0 DUP4 ADD MSTORE PUSH2 0x65DB DUP2 PUSH2 0x659F JUMP JUMPDEST SWAP1 POP SWAP2 SWAP1 POP JUMP JUMPDEST PUSH1 0x0 PUSH1 0x60 DUP3 ADD SWAP1 POP PUSH2 0x65F7 PUSH1 0x0 DUP4 ADD DUP7 PUSH2 0x552E JUMP JUMPDEST PUSH2 0x6604 PUSH1 0x20 DUP4 ADD DUP6 PUSH2 0x492D JUMP JUMPDEST PUSH2 0x6611 PUSH1 0x40 DUP4 ADD DUP5 PUSH2 0x4F0F JUMP JUMPDEST SWAP5 SWAP4 POP POP POP POP JUMP JUMPDEST PUSH1 0x0 PUSH2 0x6624 DUP3 PUSH2 0x4923 JUMP JUMPDEST SWAP2 POP PUSH2 0x662F DUP4 PUSH2 0x4923 JUMP JUMPDEST SWAP3 POP DUP3 DUP3 MUL PUSH2 0x663D DUP2 PUSH2 0x4923 JUMP JUMPDEST SWAP2 POP DUP3 DUP3 DIV DUP5 EQ DUP4 ISZERO OR PUSH2 0x6654 JUMPI PUSH2 0x6653 PUSH2 0x5C5A JUMP JUMPDEST JUMPDEST POP SWAP3 SWAP2 POP POP JUMP JUMPDEST PUSH32 0x4E487B7100000000000000000000000000000000000000000000000000000000 PUSH1 0x0 MSTORE PUSH1 0x12 PUSH1 0x4 MSTORE PUSH1 0x24 PUSH1 0x0 REVERT JUMPDEST PUSH1 0x0 PUSH2 0x6695 DUP3 PUSH2 0x4923 JUMP JUMPDEST SWAP2 POP PUSH2 0x66A0 DUP4 PUSH2 0x4923 JUMP JUMPDEST SWAP3 POP DUP3 PUSH2 0x66B0 JUMPI PUSH2 0x66AF PUSH2 0x665B JUMP JUMPDEST JUMPDEST DUP3 DUP3 DIV SWAP1 POP SWAP3 SWAP2 POP POP JUMP JUMPDEST PUSH1 0x0 PUSH1 0x40 DUP3 ADD SWAP1 POP PUSH2 0x66D0 PUSH1 0x0 DUP4 ADD DUP6 PUSH2 0x4F0F JUMP JUMPDEST PUSH2 0x66DD PUSH1 0x20 DUP4 ADD DUP5 PUSH2 0x5434 JUMP JUMPDEST SWAP4 SWAP3 POP POP POP JUMP JUMPDEST PUSH1 0x0 PUSH2 0x66EF DUP3 PUSH2 0x4923 JUMP JUMPDEST SWAP2 POP PUSH2 0x66FA DUP4 PUSH2 0x4923 JUMP JUMPDEST SWAP3 POP DUP3 DUP3 ADD SWAP1 POP DUP1 DUP3 GT ISZERO PUSH2 0x6712 JUMPI PUSH2 0x6711 PUSH2 0x5C5A JUMP JUMPDEST JUMPDEST SWAP3 SWAP2 POP POP JUMP JUMPDEST PUSH1 0x0 DUP2 SWAP1 POP SWAP2 SWAP1 POP JUMP JUMPDEST PUSH1 0x0 PUSH2 0x673D PUSH2 0x6738 PUSH2 0x6733 DUP5 PUSH2 0x4A59 JUMP JUMPDEST PUSH2 0x6718 JUMP JUMPDEST PUSH2 0x4A59 JUMP JUMPDEST SWAP1 POP SWAP2 SWAP1 POP JUMP JUMPDEST PUSH1 0x0 PUSH2 0x674F DUP3 PUSH2 0x6722 JUMP JUMPDEST SWAP1 POP SWAP2 SWAP1 POP JUMP JUMPDEST PUSH1 0x0 PUSH2 0x6761 DUP3 PUSH2 0x6744 JUMP JUMPDEST SWAP1 POP SWAP2 SWAP1 POP JUMP JUMPDEST PUSH2 0x6771 DUP2 PUSH2 0x6756 JUMP JUMPDEST DUP3 MSTORE POP POP JUMP JUMPDEST PUSH1 0x0 PUSH1 0x80 DUP3 ADD SWAP1 POP PUSH2 0x678C PUSH1 0x0 DUP4 ADD DUP8 PUSH2 0x6768 JUMP JUMPDEST PUSH2 0x6799 PUSH1 0x20 DUP4 ADD DUP7 PUSH2 0x492D JUMP JUMPDEST PUSH2 0x67A6 PUSH1 0x40 DUP4 ADD DUP6 PUSH2 0x4F93 JUMP JUMPDEST PUSH2 0x67B3 PUSH1 0x60 DUP4 ADD DUP5 PUSH2 0x4F0F JUMP JUMPDEST SWAP6 SWAP5 POP POP POP POP POP JUMP JUMPDEST PUSH1 0x0 PUSH2 0x67C7 DUP3 PUSH2 0x6115 JUMP JUMPDEST PUSH2 0x67D1 DUP2 DUP6 PUSH2 0x5CBD JUMP JUMPDEST SWAP4 POP PUSH2 0x67E1 DUP2 DUP6 PUSH1 0x20 DUP7 ADD PUSH2 0x5134 JUMP JUMPDEST DUP1 DUP5 ADD SWAP2 POP POP SWAP3 SWAP2 POP POP JUMP JUMPDEST PUSH1 0x0 PUSH2 0x67F9 DUP3 DUP5 PUSH2 0x67BC JUMP JUMPDEST SWAP2 POP DUP2 SWAP1 POP SWAP3 SWAP2 POP POP JUMP JUMPDEST PUSH1 0x0 PUSH2 0x681F PUSH2 0x681A PUSH2 0x6815 DUP5 PUSH2 0x4BDB JUMP JUMPDEST PUSH2 0x6718 JUMP JUMPDEST PUSH2 0x4923 JUMP JUMPDEST SWAP1 POP SWAP2 SWAP1 POP JUMP JUMPDEST PUSH2 0x682F DUP2 PUSH2 0x6804 JUMP JUMPDEST DUP3 MSTORE POP POP JUMP JUMPDEST PUSH1 0x0 DUP3 DUP3 MSTORE PUSH1 0x20 DUP3 ADD SWAP1 POP SWAP3 SWAP2 POP POP JUMP JUMPDEST PUSH1 0x0 PUSH2 0x6851 DUP3 PUSH2 0x6115 JUMP JUMPDEST PUSH2 0x685B DUP2 DUP6 PUSH2 0x6835 JUMP JUMPDEST SWAP4 POP PUSH2 0x686B DUP2 DUP6 PUSH1 0x20 DUP7 ADD PUSH2 0x5134 JUMP JUMPDEST PUSH2 0x6874 DUP2 PUSH2 0x4970 JUMP JUMPDEST DUP5 ADD SWAP2 POP POP SWAP3 SWAP2 POP POP JUMP JUMPDEST PUSH1 0x0 PUSH1 0xE0 DUP3 ADD SWAP1 POP PUSH2 0x6894 PUSH1 0x0 DUP4 ADD DUP11 PUSH2 0x552E JUMP JUMPDEST PUSH2 0x68A1 PUSH1 0x20 DUP4 ADD DUP10 PUSH2 0x552E JUMP JUMPDEST PUSH2 0x68AE PUSH1 0x40 DUP4 ADD DUP9 PUSH2 0x6826 JUMP JUMPDEST PUSH2 0x68BB PUSH1 0x60 DUP4 ADD DUP8 PUSH2 0x492D JUMP JUMPDEST DUP2 DUP2 SUB PUSH1 0x80 DUP4 ADD MSTORE PUSH2 0x68CD DUP2 DUP7 PUSH2 0x6846 JUMP JUMPDEST SWAP1 POP PUSH2 0x68DC PUSH1 0xA0 DUP4 ADD DUP6 PUSH2 0x4F93 JUMP JUMPDEST PUSH2 0x68E9 PUSH1 0xC0 DUP4 ADD DUP5 PUSH2 0x4F0F JUMP JUMPDEST SWAP9 SWAP8 POP POP POP POP POP POP POP POP JUMP JUMPDEST PUSH32 0x4E6F74206F776E6572206F722070726F76696465720000000000000000000000 PUSH1 0x0 DUP3 ADD MSTORE POP JUMP JUMPDEST PUSH1 0x0 PUSH2 0x692B PUSH1 0x15 DUP4 PUSH2 0x48A6 JUMP JUMPDEST SWAP2 POP PUSH2 0x6936 DUP3 PUSH2 0x68F5 JUMP JUMPDEST PUSH1 0x20 DUP3 ADD SWAP1 POP SWAP2 SWAP1 POP JUMP JUMPDEST PUSH1 0x0 PUSH1 0x20 DUP3 ADD SWAP1 POP DUP2 DUP2 SUB PUSH1 0x0 DUP4 ADD MSTORE PUSH2 0x695A DUP2 PUSH2 0x691E JUMP JUMPDEST SWAP1 POP SWAP2 SWAP1 POP JUMP JUMPDEST PUSH32 0x496E76616C696420537461747573000000000000000000000000000000000000 PUSH1 0x0 DUP3 ADD MSTORE POP JUMP JUMPDEST PUSH1 0x0 PUSH2 0x6997 PUSH1 0xE DUP4 PUSH2 0x48A6 JUMP JUMPDEST SWAP2 POP PUSH2 0x69A2 DUP3 PUSH2 0x6961 JUMP JUMPDEST PUSH1 0x20 DUP3 ADD SWAP1 POP SWAP2 SWAP1 POP JUMP JUMPDEST PUSH1 0x0 PUSH1 0x20 DUP3 ADD SWAP1 POP DUP2 DUP2 SUB PUSH1 0x0 DUP4 ADD MSTORE PUSH2 0x69C6 DUP2 PUSH2 0x698A JUMP JUMPDEST SWAP1 POP SWAP2 SWAP1 POP JUMP JUMPDEST PUSH32 0x496E697469616C697A61626C653A20636F6E747261637420697320616C726561 PUSH1 0x0 DUP3 ADD MSTORE PUSH32 0x647920696E697469616C697A6564000000000000000000000000000000000000 PUSH1 0x20 DUP3 ADD MSTORE POP JUMP JUMPDEST PUSH1 0x0 PUSH2 0x6A29 PUSH1 0x2E DUP4 PUSH2 0x48A6 JUMP JUMPDEST SWAP2 POP PUSH2 0x6A34 DUP3 PUSH2 0x69CD JUMP JUMPDEST PUSH1 0x40 DUP3 ADD SWAP1 POP SWAP2 SWAP1 POP JUMP JUMPDEST PUSH1 0x0 PUSH1 0x20 DUP3 ADD SWAP1 POP DUP2 DUP2 SUB PUSH1 0x0 DUP4 ADD MSTORE PUSH2 0x6A58 DUP2 PUSH2 0x6A1C JUMP JUMPDEST SWAP1 POP SWAP2 SWAP1 POP JUMP JUMPDEST PUSH32 0x496E76616C6964207265776172642070657263656E7461676500000000000000 PUSH1 0x0 DUP3 ADD MSTORE POP JUMP JUMPDEST PUSH1 0x0 PUSH2 0x6A95 PUSH1 0x19 DUP4 PUSH2 0x48A6 JUMP JUMPDEST SWAP2 POP PUSH2 0x6AA0 DUP3 PUSH2 0x6A5F JUMP JUMPDEST PUSH1 0x20 DUP3 ADD SWAP1 POP SWAP2 SWAP1 POP JUMP JUMPDEST PUSH1 0x0 PUSH1 0x20 DUP3 ADD SWAP1 POP DUP2 DUP2 SUB PUSH1 0x0 DUP4 ADD MSTORE PUSH2 0x6AC4 DUP2 PUSH2 0x6A88 JUMP JUMPDEST SWAP1 POP SWAP2 SWAP1 POP JUMP JUMPDEST PUSH1 0x0 DUP2 SWAP1 POP SWAP2 SWAP1 POP JUMP JUMPDEST PUSH1 0x0 PUSH2 0x6AF0 PUSH2 0x6AEB PUSH2 0x6AE6 DUP5 PUSH2 0x6ACB JUMP JUMPDEST PUSH2 0x6718 JUMP JUMPDEST PUSH2 0x54F7 JUMP JUMPDEST SWAP1 POP SWAP2 SWAP1 POP JUMP JUMPDEST PUSH2 0x6B00 DUP2 PUSH2 0x6AD5 JUMP JUMPDEST DUP3 MSTORE POP POP JUMP JUMPDEST PUSH1 0x0 PUSH1 0x20 DUP3 ADD SWAP1 POP PUSH2 0x6B1B PUSH1 0x0 DUP4 ADD DUP5 PUSH2 0x6AF7 JUMP JUMPDEST SWAP3 SWAP2 POP POP JUMP JUMPDEST PUSH32 0x696E76616C696420686561646572206C656E6774680000000000000000000000 PUSH1 0x0 DUP3 ADD MSTORE POP JUMP JUMPDEST PUSH1 0x0 PUSH2 0x6B57 PUSH1 0x15 DUP4 PUSH2 0x48A6 JUMP JUMPDEST SWAP2 POP PUSH2 0x6B62 DUP3 PUSH2 0x6B21 JUMP JUMPDEST PUSH1 0x20 DUP3 ADD SWAP1 POP SWAP2 SWAP1 POP JUMP JUMPDEST PUSH1 0x0 PUSH1 0x20 DUP3 ADD SWAP1 POP DUP2 DUP2 SUB PUSH1 0x0 DUP4 ADD MSTORE PUSH2 0x6B86 DUP2 PUSH2 0x6B4A JUMP JUMPDEST SWAP1 POP SWAP2 SWAP1 POP JUMP JUMPDEST PUSH32 0x556E617574686F72697A65640000000000000000000000000000000000000000 PUSH1 0x0 DUP3 ADD MSTORE POP JUMP JUMPDEST PUSH1 0x0 PUSH2 0x6BC3 PUSH1 0xC DUP4 PUSH2 0x48A6 JUMP JUMPDEST SWAP2 POP PUSH2 0x6BCE DUP3 PUSH2 0x6B8D JUMP JUMPDEST PUSH1 0x20 DUP3 ADD SWAP1 POP SWAP2 SWAP1 POP JUMP JUMPDEST PUSH1 0x0 PUSH1 0x20 DUP3 ADD SWAP1 POP DUP2 DUP2 SUB PUSH1 0x0 DUP4 ADD MSTORE PUSH2 0x6BF2 DUP2 PUSH2 0x6BB6 JUMP JUMPDEST SWAP1 POP SWAP2 SWAP1 POP JUMP JUMPDEST PUSH32 0x51756F746520616C72656164792070726F636573736564000000000000000000 PUSH1 0x0 DUP3 ADD MSTORE POP JUMP JUMPDEST PUSH1 0x0 PUSH2 0x6C2F PUSH1 0x17 DUP4 PUSH2 0x48A6 JUMP JUMPDEST SWAP2 POP PUSH2 0x6C3A DUP3 PUSH2 0x6BF9 JUMP JUMPDEST PUSH1 0x20 DUP3 ADD SWAP1 POP SWAP2 SWAP1 POP JUMP JUMPDEST PUSH1 0x0 PUSH1 0x20 DUP3 ADD SWAP1 POP DUP2 DUP2 SUB PUSH1 0x0 DUP4 ADD MSTORE PUSH2 0x6C5E DUP2 PUSH2 0x6C22 JUMP JUMPDEST SWAP1 POP SWAP2 SWAP1 POP JUMP JUMPDEST PUSH1 0x0 PUSH2 0x6C70 DUP3 PUSH2 0x4BDB JUMP JUMPDEST SWAP2 POP PUSH2 0x6C7B DUP4 PUSH2 0x4BDB JUMP JUMPDEST SWAP3 POP DUP3 DUP3 ADD SWAP1 POP PUSH4 0xFFFFFFFF DUP2 GT ISZERO PUSH2 0x6C97 JUMPI PUSH2 0x6C96 PUSH2 0x5C5A JUMP JUMPDEST JUMPDEST SWAP3 SWAP2 POP POP JUMP JUMPDEST PUSH32 0x496E73756666696369656E742067617300000000000000000000000000000000 PUSH1 0x0 DUP3 ADD MSTORE POP JUMP JUMPDEST PUSH1 0x0 PUSH2 0x6CD3 PUSH1 0x10 DUP4 PUSH2 0x48A6 JUMP JUMPDEST SWAP2 POP PUSH2 0x6CDE DUP3 PUSH2 0x6C9D JUMP JUMPDEST PUSH1 0x20 DUP3 ADD SWAP1 POP SWAP2 SWAP1 POP JUMP JUMPDEST PUSH1 0x0 PUSH1 0x20 DUP3 ADD SWAP1 POP DUP2 DUP2 SUB PUSH1 0x0 DUP4 ADD MSTORE PUSH2 0x6D02 DUP2 PUSH2 0x6CC6 JUMP JUMPDEST SWAP1 POP SWAP2 SWAP1 POP JUMP JUMPDEST PUSH32 0x426C6F636B2074696D657374616D70206F766572666C6F770000000000000000 PUSH1 0x0 DUP3 ADD MSTORE POP JUMP JUMPDEST PUSH1 0x0 PUSH2 0x6D3F PUSH1 0x18 DUP4 PUSH2 0x48A6 JUMP JUMPDEST SWAP2 POP PUSH2 0x6D4A DUP3 PUSH2 0x6D09 JUMP JUMPDEST PUSH1 0x20 DUP3 ADD SWAP1 POP SWAP2 SWAP1 POP JUMP JUMPDEST PUSH1 0x0 PUSH1 0x20 DUP3 ADD SWAP1 POP DUP2 DUP2 SUB PUSH1 0x0 DUP4 ADD MSTORE PUSH2 0x6D6E DUP2 PUSH2 0x6D32 JUMP JUMPDEST SWAP1 POP SWAP2 SWAP1 POP JUMP JUMPDEST PUSH32 0x4C42433A2051756F7465206E6F742070726F6365737365640000000000000000 PUSH1 0x0 DUP3 ADD MSTORE POP JUMP JUMPDEST PUSH1 0x0 PUSH2 0x6DAB PUSH1 0x18 DUP4 PUSH2 0x48A6 JUMP JUMPDEST SWAP2 POP PUSH2 0x6DB6 DUP3 PUSH2 0x6D75 JUMP JUMPDEST PUSH1 0x20 DUP3 ADD SWAP1 POP SWAP2 SWAP1 POP JUMP JUMPDEST PUSH1 0x0 PUSH1 0x20 DUP3 ADD SWAP1 POP DUP2 DUP2 SUB PUSH1 0x0 DUP4 ADD MSTORE PUSH2 0x6DDA DUP2 PUSH2 0x6D9E JUMP JUMPDEST SWAP1 POP SWAP2 SWAP1 POP JUMP JUMPDEST PUSH32 0x4C42433A2051756F746520657870697265642062792064617465000000000000 PUSH1 0x0 DUP3 ADD MSTORE POP JUMP JUMPDEST PUSH1 0x0 PUSH2 0x6E17 PUSH1 0x1A DUP4 PUSH2 0x48A6 JUMP JUMPDEST SWAP2 POP PUSH2 0x6E22 DUP3 PUSH2 0x6DE1 JUMP JUMPDEST PUSH1 0x20 DUP3 ADD SWAP1 POP SWAP2 SWAP1 POP JUMP JUMPDEST PUSH1 0x0 PUSH1 0x20 DUP3 ADD SWAP1 POP DUP2 DUP2 SUB PUSH1 0x0 DUP4 ADD MSTORE PUSH2 0x6E46 DUP2 PUSH2 0x6E0A JUMP JUMPDEST SWAP1 POP SWAP2 SWAP1 POP JUMP JUMPDEST PUSH32 0x4C42433A2051756F7465206578706972656420627920626C6F636B7300000000 PUSH1 0x0 DUP3 ADD MSTORE POP JUMP JUMPDEST PUSH1 0x0 PUSH2 0x6E83 PUSH1 0x1C DUP4 PUSH2 0x48A6 JUMP JUMPDEST SWAP2 POP PUSH2 0x6E8E DUP3 PUSH2 0x6E4D JUMP JUMPDEST PUSH1 0x20 DUP3 ADD SWAP1 POP SWAP2 SWAP1 POP JUMP JUMPDEST PUSH1 0x0 PUSH1 0x20 DUP3 ADD SWAP1 POP DUP2 DUP2 SUB PUSH1 0x0 DUP4 ADD MSTORE PUSH2 0x6EB2 DUP2 PUSH2 0x6E76 JUMP JUMPDEST SWAP1 POP SWAP2 SWAP1 POP JUMP JUMPDEST PUSH32 0x4C42433A2057726F6E672073656E646572000000000000000000000000000000 PUSH1 0x0 DUP3 ADD MSTORE POP JUMP JUMPDEST PUSH1 0x0 PUSH2 0x6EEF PUSH1 0x11 DUP4 PUSH2 0x48A6 JUMP JUMPDEST SWAP2 POP PUSH2 0x6EFA DUP3 PUSH2 0x6EB9 JUMP JUMPDEST PUSH1 0x20 DUP3 ADD SWAP1 POP SWAP2 SWAP1 POP JUMP JUMPDEST PUSH1 0x0 PUSH1 0x20 DUP3 ADD SWAP1 POP DUP2 DUP2 SUB PUSH1 0x0 DUP4 ADD MSTORE PUSH2 0x6F1E DUP2 PUSH2 0x6EE2 JUMP JUMPDEST SWAP1 POP SWAP2 SWAP1 POP JUMP JUMPDEST PUSH1 0x0 DUP2 MLOAD SWAP1 POP SWAP2 SWAP1 POP JUMP JUMPDEST PUSH1 0x0 DUP3 DUP3 MSTORE PUSH1 0x20 DUP3 ADD SWAP1 POP SWAP3 SWAP2 POP POP JUMP JUMPDEST PUSH1 0x0 DUP2 SWAP1 POP PUSH1 0x20 DUP3 ADD SWAP1 POP SWAP2 SWAP1 POP JUMP JUMPDEST PUSH2 0x6F5A DUP2 PUSH2 0x4F05 JUMP JUMPDEST DUP3 MSTORE POP POP JUMP JUMPDEST PUSH1 0x0 PUSH2 0x6F6C DUP4 DUP4 PUSH2 0x6F51 JUMP JUMPDEST PUSH1 0x20 DUP4 ADD SWAP1 POP SWAP3 SWAP2 POP POP JUMP JUMPDEST PUSH1 0x0 PUSH1 0x20 DUP3 ADD SWAP1 POP SWAP2 SWAP1 POP JUMP JUMPDEST PUSH1 0x0 PUSH2 0x6F90 DUP3 PUSH2 0x6F25 JUMP JUMPDEST PUSH2 0x6F9A DUP2 DUP6 PUSH2 0x6F30 JUMP JUMPDEST SWAP4 POP PUSH2 0x6FA5 DUP4 PUSH2 0x6F41 JUMP JUMPDEST DUP1 PUSH1 0x0 JUMPDEST DUP4 DUP2 LT ISZERO PUSH2 0x6FD6 JUMPI DUP2 MLOAD PUSH2 0x6FBD DUP9 DUP3 PUSH2 0x6F60 JUMP JUMPDEST SWAP8 POP PUSH2 0x6FC8 DUP4 PUSH2 0x6F78 JUMP JUMPDEST SWAP3 POP POP PUSH1 0x1 DUP2 ADD SWAP1 POP PUSH2 0x6FA9 JUMP JUMPDEST POP DUP6 SWAP4 POP POP POP POP SWAP3 SWAP2 POP POP JUMP JUMPDEST PUSH1 0x0 PUSH1 0x80 DUP3 ADD SWAP1 POP PUSH2 0x6FF8 PUSH1 0x0 DUP4 ADD DUP8 PUSH2 0x4F0F JUMP JUMPDEST PUSH2 0x7005 PUSH1 0x20 DUP4 ADD DUP7 PUSH2 0x4F0F JUMP JUMPDEST PUSH2 0x7012 PUSH1 0x40 DUP4 ADD DUP6 PUSH2 0x492D JUMP JUMPDEST DUP2 DUP2 SUB PUSH1 0x60 DUP4 ADD MSTORE PUSH2 0x7024 DUP2 DUP5 PUSH2 0x6F85 JUMP JUMPDEST SWAP1 POP SWAP6 SWAP5 POP POP POP POP POP JUMP JUMPDEST PUSH2 0x7038 DUP2 PUSH2 0x542A JUMP JUMPDEST DUP2 EQ PUSH2 0x7043 JUMPI PUSH1 0x0 DUP1 REVERT JUMPDEST POP JUMP JUMPDEST PUSH1 0x0 DUP2 MLOAD SWAP1 POP PUSH2 0x7055 DUP2 PUSH2 0x702F JUMP JUMPDEST SWAP3 SWAP2 POP POP JUMP JUMPDEST PUSH1 0x0 PUSH1 0x20 DUP3 DUP5 SUB SLT ISZERO PUSH2 0x7071 JUMPI PUSH2 0x7070 PUSH2 0x4961 JUMP JUMPDEST JUMPDEST PUSH1 0x0 PUSH2 0x707F DUP5 DUP3 DUP6 ADD PUSH2 0x7046 JUMP JUMPDEST SWAP2 POP POP SWAP3 SWAP2 POP POP JUMP JUMPDEST PUSH32 0x4C42433A20446F6E2774206861766520726571756972656420636F6E6669726D PUSH1 0x0 DUP3 ADD MSTORE PUSH32 0x6174696F6E730000000000000000000000000000000000000000000000000000 PUSH1 0x20 DUP3 ADD MSTORE POP JUMP JUMPDEST PUSH1 0x0 PUSH2 0x70E4 PUSH1 0x26 DUP4 PUSH2 0x48A6 JUMP JUMPDEST SWAP2 POP PUSH2 0x70EF DUP3 PUSH2 0x7088 JUMP JUMPDEST PUSH1 0x40 DUP3 ADD SWAP1 POP SWAP2 SWAP1 POP JUMP JUMPDEST PUSH1 0x0 PUSH1 0x20 DUP3 ADD SWAP1 POP DUP2 DUP2 SUB PUSH1 0x0 DUP4 ADD MSTORE PUSH2 0x7113 DUP2 PUSH2 0x70D7 JUMP JUMPDEST SWAP1 POP SWAP2 SWAP1 POP JUMP JUMPDEST PUSH32 0x4C42433A20496E76616C6964207369676E617475726500000000000000000000 PUSH1 0x0 DUP3 ADD MSTORE POP JUMP JUMPDEST PUSH1 0x0 PUSH2 0x7150 PUSH1 0x16 DUP4 PUSH2 0x48A6 JUMP JUMPDEST SWAP2 POP PUSH2 0x715B DUP3 PUSH2 0x711A JUMP JUMPDEST PUSH1 0x20 DUP3 ADD SWAP1 POP SWAP2 SWAP1 POP JUMP JUMPDEST PUSH1 0x0 PUSH1 0x20 DUP3 ADD SWAP1 POP DUP2 DUP2 SUB PUSH1 0x0 DUP4 ADD MSTORE PUSH2 0x717F DUP2 PUSH2 0x7143 JUMP JUMPDEST SWAP1 POP SWAP2 SWAP1 POP JUMP JUMPDEST PUSH32 0x4C42433A20426C6F636B20686569676874206F766572666C6F776E0000000000 PUSH1 0x0 DUP3 ADD MSTORE POP JUMP JUMPDEST PUSH1 0x0 PUSH2 0x71BC PUSH1 0x1B DUP4 PUSH2 0x48A6 JUMP JUMPDEST SWAP2 POP PUSH2 0x71C7 DUP3 PUSH2 0x7186 JUMP JUMPDEST PUSH1 0x20 DUP3 ADD SWAP1 POP SWAP2 SWAP1 POP JUMP JUMPDEST PUSH1 0x0 PUSH1 0x20 DUP3 ADD SWAP1 POP DUP2 DUP2 SUB PUSH1 0x0 DUP4 ADD MSTORE PUSH2 0x71EB DUP2 PUSH2 0x71AF JUMP JUMPDEST SWAP1 POP SWAP2 SWAP1 POP JUMP JUMPDEST PUSH32 0x4C42433A2051756F746520616C726561647920706567676564206F7574000000 PUSH1 0x0 DUP3 ADD MSTORE POP JUMP JUMPDEST PUSH1 0x0 PUSH2 0x7228 PUSH1 0x1D DUP4 PUSH2 0x48A6 JUMP JUMPDEST SWAP2 POP PUSH2 0x7233 DUP3 PUSH2 0x71F2 JUMP JUMPDEST PUSH1 0x20 DUP3 ADD SWAP1 POP SWAP2 SWAP1 POP JUMP JUMPDEST PUSH1 0x0 PUSH1 0x20 DUP3 ADD SWAP1 POP DUP2 DUP2 SUB PUSH1 0x0 DUP4 ADD MSTORE PUSH2 0x7257 DUP2 PUSH2 0x721B JUMP JUMPDEST SWAP1 POP SWAP2 SWAP1 POP JUMP JUMPDEST PUSH32 0x4C42433A206D73672076616C756520646F65736E74206D617463682071756F74 PUSH1 0x0 DUP3 ADD MSTORE PUSH32 0x6500000000000000000000000000000000000000000000000000000000000000 PUSH1 0x20 DUP3 ADD MSTORE POP JUMP JUMPDEST PUSH1 0x0 PUSH2 0x72BA PUSH1 0x21 DUP4 PUSH2 0x48A6 JUMP JUMPDEST SWAP2 POP PUSH2 0x72C5 DUP3 PUSH2 0x725E JUMP JUMPDEST PUSH1 0x40 DUP3 ADD SWAP1 POP SWAP2 SWAP1 POP JUMP JUMPDEST PUSH1 0x0 PUSH1 0x20 DUP3 ADD SWAP1 POP DUP2 DUP2 SUB PUSH1 0x0 DUP4 ADD MSTORE PUSH2 0x72E9 DUP2 PUSH2 0x72AD JUMP JUMPDEST SWAP1 POP SWAP2 SWAP1 POP JUMP JUMPDEST PUSH32 0x4C42433A204E6F7420656E6F7567682066756E64730000000000000000000000 PUSH1 0x0 DUP3 ADD MSTORE POP JUMP JUMPDEST PUSH1 0x0 PUSH2 0x7326 PUSH1 0x15 DUP4 PUSH2 0x48A6 JUMP JUMPDEST SWAP2 POP PUSH2 0x7331 DUP3 PUSH2 0x72F0 JUMP JUMPDEST PUSH1 0x20 DUP3 ADD SWAP1 POP SWAP2 SWAP1 POP JUMP JUMPDEST PUSH1 0x0 PUSH1 0x20 DUP3 ADD SWAP1 POP DUP2 DUP2 SUB PUSH1 0x0 DUP4 ADD MSTORE PUSH2 0x7355 DUP2 PUSH2 0x7319 JUMP JUMPDEST SWAP1 POP SWAP2 SWAP1 POP JUMP JUMPDEST PUSH32 0x4C42433A2050726F766964657220646F65736E2774206861766520656E6F7567 PUSH1 0x0 DUP3 ADD MSTORE PUSH32 0x682062616C616E63650000000000000000000000000000000000000000000000 PUSH1 0x20 DUP3 ADD MSTORE POP JUMP JUMPDEST PUSH1 0x0 PUSH2 0x73B8 PUSH1 0x29 DUP4 PUSH2 0x48A6 JUMP JUMPDEST SWAP2 POP PUSH2 0x73C3 DUP3 PUSH2 0x735C JUMP JUMPDEST PUSH1 0x40 DUP3 ADD SWAP1 POP SWAP2 SWAP1 POP JUMP JUMPDEST PUSH1 0x0 PUSH1 0x20 DUP3 ADD SWAP1 POP DUP2 DUP2 SUB PUSH1 0x0 DUP4 ADD MSTORE PUSH2 0x73E7 DUP2 PUSH2 0x73AB JUMP JUMPDEST SWAP1 POP SWAP2 SWAP1 POP JUMP JUMPDEST PUSH32 0x4572726F722073656E64696E6720616D6F756E7420746F207468652062726964 PUSH1 0x0 DUP3 ADD MSTORE PUSH32 0x6765000000000000000000000000000000000000000000000000000000000000 PUSH1 0x20 DUP3 ADD MSTORE POP JUMP JUMPDEST PUSH1 0x0 PUSH2 0x744A PUSH1 0x22 DUP4 PUSH2 0x48A6 JUMP JUMPDEST SWAP2 POP PUSH2 0x7455 DUP3 PUSH2 0x73EE JUMP JUMPDEST PUSH1 0x40 DUP3 ADD SWAP1 POP SWAP2 SWAP1 POP JUMP JUMPDEST PUSH1 0x0 PUSH1 0x20 DUP3 ADD SWAP1 POP DUP2 DUP2 SUB PUSH1 0x0 DUP4 ADD MSTORE PUSH2 0x7479 DUP2 PUSH2 0x743D JUMP JUMPDEST SWAP1 POP SWAP2 SWAP1 POP JUMP JUMPDEST PUSH1 0x0 PUSH2 0x749B PUSH2 0x7496 PUSH2 0x7491 DUP5 PUSH2 0x54F7 JUMP JUMPDEST PUSH2 0x6718 JUMP JUMPDEST PUSH2 0x4923 JUMP JUMPDEST SWAP1 POP SWAP2 SWAP1 POP JUMP JUMPDEST PUSH2 0x74AB DUP2 PUSH2 0x7480 JUMP JUMPDEST DUP3 MSTORE POP POP JUMP JUMPDEST PUSH1 0x0 PUSH1 0x80 DUP3 ADD SWAP1 POP PUSH2 0x74C6 PUSH1 0x0 DUP4 ADD DUP8 PUSH2 0x552E JUMP JUMPDEST PUSH2 0x74D3 PUSH1 0x20 DUP4 ADD DUP7 PUSH2 0x492D JUMP JUMPDEST PUSH2 0x74E0 PUSH1 0x40 DUP4 ADD DUP6 PUSH2 0x4F0F JUMP JUMPDEST PUSH2 0x74ED PUSH1 0x60 DUP4 ADD DUP5 PUSH2 0x74A2 JUMP JUMPDEST SWAP6 SWAP5 POP POP POP POP POP JUMP JUMPDEST PUSH32 0x4F776E61626C653A206E6577206F776E657220697320746865207A65726F2061 PUSH1 0x0 DUP3 ADD MSTORE PUSH32 0x6464726573730000000000000000000000000000000000000000000000000000 PUSH1 0x20 DUP3 ADD MSTORE POP JUMP JUMPDEST PUSH1 0x0 PUSH2 0x7552 PUSH1 0x26 DUP4 PUSH2 0x48A6 JUMP JUMPDEST SWAP2 POP PUSH2 0x755D DUP3 PUSH2 0x74F6 JUMP JUMPDEST PUSH1 0x40 DUP3 ADD SWAP1 POP SWAP2 SWAP1 POP JUMP JUMPDEST PUSH1 0x0 PUSH1 0x20 DUP3 ADD SWAP1 POP DUP2 DUP2 SUB PUSH1 0x0 DUP4 ADD MSTORE PUSH2 0x7581 DUP2 PUSH2 0x7545 JUMP JUMPDEST SWAP1 POP SWAP2 SWAP1 POP JUMP JUMPDEST PUSH32 0x4E6F7420454F4100000000000000000000000000000000000000000000000000 PUSH1 0x0 DUP3 ADD MSTORE POP JUMP JUMPDEST PUSH1 0x0 PUSH2 0x75BE PUSH1 0x7 DUP4 PUSH2 0x48A6 JUMP JUMPDEST SWAP2 POP PUSH2 0x75C9 DUP3 PUSH2 0x7588 JUMP JUMPDEST PUSH1 0x20 DUP3 ADD SWAP1 POP SWAP2 SWAP1 POP JUMP JUMPDEST PUSH1 0x0 PUSH1 0x20 DUP3 ADD SWAP1 POP DUP2 DUP2 SUB PUSH1 0x0 DUP4 ADD MSTORE PUSH2 0x75ED DUP2 PUSH2 0x75B1 JUMP JUMPDEST SWAP1 POP SWAP2 SWAP1 POP JUMP JUMPDEST PUSH32 0x4E6F7420656E6F75676820636F6C6C61746572616C0000000000000000000000 PUSH1 0x0 DUP3 ADD MSTORE POP JUMP JUMPDEST PUSH1 0x0 PUSH2 0x762A PUSH1 0x15 DUP4 PUSH2 0x48A6 JUMP JUMPDEST SWAP2 POP PUSH2 0x7635 DUP3 PUSH2 0x75F4 JUMP JUMPDEST PUSH1 0x20 DUP3 ADD SWAP1 POP SWAP2 SWAP1 POP JUMP JUMPDEST PUSH1 0x0 PUSH1 0x20 DUP3 ADD SWAP1 POP DUP2 DUP2 SUB PUSH1 0x0 DUP4 ADD MSTORE PUSH2 0x7659 DUP2 PUSH2 0x761D JUMP JUMPDEST SWAP1 POP SWAP2 SWAP1 POP JUMP JUMPDEST PUSH32 0x576974686472617720636F6C6C61746572616C20666972737400000000000000 PUSH1 0x0 DUP3 ADD MSTORE POP JUMP JUMPDEST PUSH1 0x0 PUSH2 0x7696 PUSH1 0x19 DUP4 PUSH2 0x48A6 JUMP JUMPDEST SWAP2 POP PUSH2 0x76A1 DUP3 PUSH2 0x7660 JUMP JUMPDEST PUSH1 0x20 DUP3 ADD SWAP1 POP SWAP2 SWAP1 POP JUMP JUMPDEST PUSH1 0x0 PUSH1 0x20 DUP3 ADD SWAP1 POP DUP2 DUP2 SUB PUSH1 0x0 DUP4 ADD MSTORE PUSH2 0x76C5 DUP2 PUSH2 0x7689 JUMP JUMPDEST SWAP1 POP SWAP2 SWAP1 POP JUMP JUMPDEST PUSH1 0x0 DUP2 SWAP1 POP DUP2 PUSH1 0x0 MSTORE PUSH1 0x20 PUSH1 0x0 KECCAK256 SWAP1 POP SWAP2 SWAP1 POP JUMP JUMPDEST PUSH1 0x0 PUSH1 0x20 PUSH1 0x1F DUP4 ADD DIV SWAP1 POP SWAP2 SWAP1 POP JUMP JUMPDEST PUSH1 0x0 DUP3 DUP3 SHL SWAP1 POP SWAP3 SWAP2 POP POP JUMP JUMPDEST PUSH1 0x0 PUSH1 0x8 DUP4 MUL PUSH2 0x772E PUSH32 0xFFFFFFFFFFFFFFFFFFFFFFFFFFFFFFFFFFFFFFFFFFFFFFFFFFFFFFFFFFFFFFFF DUP3 PUSH2 0x76F1 JUMP JUMPDEST PUSH2 0x7738 DUP7 DUP4 PUSH2 0x76F1 JUMP JUMPDEST SWAP6 POP DUP1 NOT DUP5 AND SWAP4 POP DUP1 DUP7 AND DUP5 OR SWAP3 POP POP POP SWAP4 SWAP3 POP POP POP JUMP JUMPDEST PUSH1 0x0 PUSH2 0x776B PUSH2 0x7766 PUSH2 0x7761 DUP5 PUSH2 0x4923 JUMP JUMPDEST PUSH2 0x6718 JUMP JUMPDEST PUSH2 0x4923 JUMP JUMPDEST SWAP1 POP SWAP2 SWAP1 POP JUMP JUMPDEST PUSH1 0x0 DUP2 SWAP1 POP SWAP2 SWAP1 POP JUMP JUMPDEST PUSH2 0x7785 DUP4 PUSH2 0x7750 JUMP JUMPDEST PUSH2 0x7799 PUSH2 0x7791 DUP3 PUSH2 0x7772 JUMP JUMPDEST DUP5 DUP5 SLOAD PUSH2 0x76FE JUMP JUMPDEST DUP3 SSTORE POP POP POP POP JUMP JUMPDEST PUSH1 0x0 SWAP1 JUMP JUMPDEST PUSH2 0x77AE PUSH2 0x77A1 JUMP JUMPDEST PUSH2 0x77B9 DUP2 DUP5 DUP5 PUSH2 0x777C JUMP JUMPDEST POP POP POP JUMP JUMPDEST JUMPDEST DUP2 DUP2 LT ISZERO PUSH2 0x77DD JUMPI PUSH2 0x77D2 PUSH1 0x0 DUP3 PUSH2 0x77A6 JUMP JUMPDEST PUSH1 0x1 DUP2 ADD SWAP1 POP PUSH2 0x77BF JUMP JUMPDEST POP POP JUMP JUMPDEST PUSH1 0x1F DUP3 GT ISZERO PUSH2 0x7822 JUMPI PUSH2 0x77F3 DUP2 PUSH2 0x76CC JUMP JUMPDEST PUSH2 0x77FC DUP5 PUSH2 0x76E1 JUMP JUMPDEST DUP2 ADD PUSH1 0x20 DUP6 LT ISZERO PUSH2 0x780B JUMPI DUP2 SWAP1 POP JUMPDEST PUSH2 0x781F PUSH2 0x7817 DUP6 PUSH2 0x76E1 JUMP JUMPDEST DUP4 ADD DUP3 PUSH2 0x77BE JUMP JUMPDEST POP POP JUMPDEST POP POP POP JUMP JUMPDEST PUSH1 0x0 DUP3 DUP3 SHR SWAP1 POP SWAP3 SWAP2 POP POP JUMP JUMPDEST PUSH1 0x0 PUSH2 0x7845 PUSH1 0x0 NOT DUP5 PUSH1 0x8 MUL PUSH2 0x7827 JUMP JUMPDEST NOT DUP1 DUP4 AND SWAP2 POP POP SWAP3 SWAP2 POP POP JUMP JUMPDEST PUSH1 0x0 PUSH2 0x785E DUP4 DUP4 PUSH2 0x7834 JUMP JUMPDEST SWAP2 POP DUP3 PUSH1 0x2 MUL DUP3 OR SWAP1 POP SWAP3 SWAP2 POP POP JUMP JUMPDEST PUSH2 0x7877 DUP3 PUSH2 0x5118 JUMP JUMPDEST PUSH8 0xFFFFFFFFFFFFFFFF DUP2 GT ISZERO PUSH2 0x7890 JUMPI PUSH2 0x788F PUSH2 0x4981 JUMP JUMPDEST JUMPDEST PUSH2 0x789A DUP3 SLOAD PUSH2 0x5F3A JUMP JUMPDEST PUSH2 0x78A5 DUP3 DUP3 DUP6 PUSH2 0x77E1 JUMP JUMPDEST PUSH1 0x0 PUSH1 0x20 SWAP1 POP PUSH1 0x1F DUP4 GT PUSH1 0x1 DUP2 EQ PUSH2 0x78D8 JUMPI PUSH1 0x0 DUP5 ISZERO PUSH2 0x78C6 JUMPI DUP3 DUP8 ADD MLOAD SWAP1 POP JUMPDEST PUSH2 0x78D0 DUP6 DUP3 PUSH2 0x7852 JUMP JUMPDEST DUP7 SSTORE POP PUSH2 0x7938 JUMP JUMPDEST PUSH1 0x1F NOT DUP5 AND PUSH2 0x78E6 DUP7 PUSH2 0x76CC JUMP JUMPDEST PUSH1 0x0 JUMPDEST DUP3 DUP2 LT ISZERO PUSH2 0x790E JUMPI DUP5 DUP10 ADD MLOAD DUP3 SSTORE PUSH1 0x1 DUP3 ADD SWAP2 POP PUSH1 0x20 DUP6 ADD SWAP5 POP PUSH1 0x20 DUP2 ADD SWAP1 POP PUSH2 0x78E9 JUMP JUMPDEST DUP7 DUP4 LT ISZERO PUSH2 0x792B JUMPI DUP5 DUP10 ADD MLOAD PUSH2 0x7927 PUSH1 0x1F DUP10 AND DUP3 PUSH2 0x7834 JUMP JUMPDEST DUP4 SSTORE POP JUMPDEST PUSH1 0x1 PUSH1 0x2 DUP9 MUL ADD DUP9 SSTORE POP POP POP JUMPDEST POP POP POP POP POP POP JUMP JUMPDEST PUSH1 0x0 PUSH1 0x60 DUP3 ADD SWAP1 POP PUSH2 0x7955 PUSH1 0x0 DUP4 ADD DUP7 PUSH2 0x492D JUMP JUMPDEST PUSH2 0x7962 PUSH1 0x20 DUP4 ADD DUP6 PUSH2 0x552E JUMP JUMPDEST PUSH2 0x796F PUSH1 0x40 DUP4 ADD DUP5 PUSH2 0x492D JUMP JUMPDEST SWAP5 SWAP4 POP POP POP POP JUMP JUMPDEST PUSH32 0x57726F6E67204C42432061646472657373000000000000000000000000000000 PUSH1 0x0 DUP3 ADD MSTORE POP JUMP JUMPDEST PUSH1 0x0 PUSH2 0x79AD PUSH1 0x11 DUP4 PUSH2 0x48A6 JUMP JUMPDEST SWAP2 POP PUSH2 0x79B8 DUP3 PUSH2 0x7977 JUMP JUMPDEST PUSH1 0x20 DUP3 ADD SWAP1 POP SWAP2 SWAP1 POP JUMP JUMPDEST PUSH1 0x0 PUSH1 0x20 DUP3 ADD SWAP1 POP DUP2 DUP2 SUB PUSH1 0x0 DUP4 ADD MSTORE PUSH2 0x79DC DUP2 PUSH2 0x79A0 JUMP JUMPDEST SWAP1 POP SWAP2 SWAP1 POP JUMP JUMPDEST PUSH32 0x427269646765206973206E6F7420616E20616363657074656420636F6E747261 PUSH1 0x0 DUP3 ADD MSTORE PUSH32 0x6374206164647265737300000000000000000000000000000000000000000000 PUSH1 0x20 DUP3 ADD MSTORE POP JUMP JUMPDEST PUSH1 0x0 PUSH2 0x7A3F PUSH1 0x2A DUP4 PUSH2 0x48A6 JUMP JUMPDEST SWAP2 POP PUSH2 0x7A4A DUP3 PUSH2 0x79E3 JUMP JUMPDEST PUSH1 0x40 DUP3 ADD SWAP1 POP SWAP2 SWAP1 POP JUMP JUMPDEST PUSH1 0x0 PUSH1 0x20 DUP3 ADD SWAP1 POP DUP2 DUP2 SUB PUSH1 0x0 DUP4 ADD MSTORE PUSH2 0x7A6E DUP2 PUSH2 0x7A32 JUMP JUMPDEST SWAP1 POP SWAP2 SWAP1 POP JUMP JUMPDEST PUSH32 0x42544320726566756E642061646472657373206D757374206265203231206279 PUSH1 0x0 DUP3 ADD MSTORE PUSH32 0x746573206C6F6E67000000000000000000000000000000000000000000000000 PUSH1 0x20 DUP3 ADD MSTORE POP JUMP JUMPDEST PUSH1 0x0 PUSH2 0x7AD1 PUSH1 0x28 DUP4 PUSH2 0x48A6 JUMP JUMPDEST SWAP2 POP PUSH2 0x7ADC DUP3 PUSH2 0x7A75 JUMP JUMPDEST PUSH1 0x40 DUP3 ADD SWAP1 POP SWAP2 SWAP1 POP JUMP JUMPDEST PUSH1 0x0 PUSH1 0x20 DUP3 ADD SWAP1 POP DUP2 DUP2 SUB PUSH1 0x0 DUP4 ADD MSTORE PUSH2 0x7B00 DUP2 PUSH2 0x7AC4 JUMP JUMPDEST SWAP1 POP SWAP2 SWAP1 POP JUMP JUMPDEST PUSH32 0x425443204C502061646472657373206D75737420626520323120627974657320 PUSH1 0x0 DUP3 ADD MSTORE PUSH32 0x6C6F6E6700000000000000000000000000000000000000000000000000000000 PUSH1 0x20 DUP3 ADD MSTORE POP JUMP JUMPDEST PUSH1 0x0 PUSH2 0x7B63 PUSH1 0x24 DUP4 PUSH2 0x48A6 JUMP JUMPDEST SWAP2 POP PUSH2 0x7B6E DUP3 PUSH2 0x7B07 JUMP JUMPDEST PUSH1 0x40 DUP3 ADD SWAP1 POP SWAP2 SWAP1 POP JUMP JUMPDEST PUSH1 0x0 PUSH1 0x20 DUP3 ADD SWAP1 POP DUP2 DUP2 SUB PUSH1 0x0 DUP4 ADD MSTORE PUSH2 0x7B92 DUP2 PUSH2 0x7B56 JUMP JUMPDEST SWAP1 POP SWAP2 SWAP1 POP JUMP JUMPDEST PUSH32 0x546F6F206C6F772061677265656420616D6F756E740000000000000000000000 PUSH1 0x0 DUP3 ADD MSTORE POP JUMP JUMPDEST PUSH1 0x0 PUSH2 0x7BCF PUSH1 0x15 DUP4 PUSH2 0x48A6 JUMP JUMPDEST SWAP2 POP PUSH2 0x7BDA DUP3 PUSH2 0x7B99 JUMP JUMPDEST PUSH1 0x20 DUP3 ADD SWAP1 POP SWAP2 SWAP1 POP JUMP JUMPDEST PUSH1 0x0 PUSH1 0x20 DUP3 ADD SWAP1 POP DUP2 DUP2 SUB PUSH1 0x0 DUP4 ADD MSTORE PUSH2 0x7BFE DUP2 PUSH2 0x7BC2 JUMP JUMPDEST SWAP1 POP SWAP2 SWAP1 POP JUMP JUMPDEST PUSH2 0x7C0E DUP2 PUSH2 0x4B71 JUMP JUMPDEST DUP3 MSTORE POP POP JUMP JUMPDEST PUSH1 0x0 PUSH2 0x100 DUP3 ADD SWAP1 POP DUP2 DUP2 SUB PUSH1 0x0 DUP4 ADD MSTORE PUSH2 0x7C2F DUP2 DUP12 PUSH2 0x6846 JUMP JUMPDEST SWAP1 POP PUSH2 0x7C3E PUSH1 0x20 DUP4 ADD DUP11 PUSH2 0x492D JUMP JUMPDEST DUP2 DUP2 SUB PUSH1 0x40 DUP4 ADD MSTORE PUSH2 0x7C50 DUP2 DUP10 PUSH2 0x6846 JUMP JUMPDEST SWAP1 POP PUSH2 0x7C5F PUSH1 0x60 DUP4 ADD DUP9 PUSH2 0x4F0F JUMP JUMPDEST DUP2 DUP2 SUB PUSH1 0x80 DUP4 ADD MSTORE PUSH2 0x7C71 DUP2 DUP8 PUSH2 0x6846 JUMP JUMPDEST SWAP1 POP PUSH2 0x7C80 PUSH1 0xA0 DUP4 ADD DUP7 PUSH2 0x7C05 JUMP JUMPDEST DUP2 DUP2 SUB PUSH1 0xC0 DUP4 ADD MSTORE PUSH2 0x7C92 DUP2 DUP6 PUSH2 0x6846 JUMP JUMPDEST SWAP1 POP PUSH2 0x7CA1 PUSH1 0xE0 DUP4 ADD DUP5 PUSH2 0x4F93 JUMP JUMPDEST SWAP10 SWAP9 POP POP POP POP POP POP POP POP POP JUMP JUMPDEST PUSH1 0x0 PUSH2 0x7CC1 PUSH2 0x7CBC DUP5 PUSH2 0x4AC1 JUMP JUMPDEST PUSH2 0x49E1 JUMP JUMPDEST SWAP1 POP DUP3 DUP2 MSTORE PUSH1 0x20 DUP2 ADD DUP5 DUP5 DUP5 ADD GT ISZERO PUSH2 0x7CDD JUMPI PUSH2 0x7CDC PUSH2 0x4ABC JUMP JUMPDEST JUMPDEST PUSH2 0x7CE8 DUP5 DUP3 DUP6 PUSH2 0x5134 JUMP JUMPDEST POP SWAP4 SWAP3 POP POP POP JUMP JUMPDEST PUSH1 0x0 DUP3 PUSH1 0x1F DUP4 ADD SLT PUSH2 0x7D05 JUMPI PUSH2 0x7D04 PUSH2 0x4AB7 JUMP JUMPDEST JUMPDEST DUP2 MLOAD PUSH2 0x7D15 DUP5 DUP3 PUSH1 0x20 DUP7 ADD PUSH2 0x7CAE JUMP JUMPDEST SWAP2 POP POP SWAP3 SWAP2 POP POP JUMP JUMPDEST PUSH1 0x0 PUSH1 0x20 DUP3 DUP5 SUB SLT ISZERO PUSH2 0x7D34 JUMPI PUSH2 0x7D33 PUSH2 0x4961 JUMP JUMPDEST JUMPDEST PUSH1 0x0 DUP3 ADD MLOAD PUSH8 0xFFFFFFFFFFFFFFFF DUP2 GT ISZERO PUSH2 0x7D52 JUMPI PUSH2 0x7D51 PUSH2 0x4966 JUMP JUMPDEST JUMPDEST PUSH2 0x7D5E DUP5 DUP3 DUP6 ADD PUSH2 0x7CF0 JUMP JUMPDEST SWAP2 POP POP SWAP3 SWAP2 POP POP JUMP JUMPDEST PUSH32 0x496E76616C696420626C6F636B20686569676874000000000000000000000000 PUSH1 0x0 DUP3 ADD MSTORE POP JUMP JUMPDEST PUSH1 0x0 PUSH2 0x7D9D PUSH1 0x14 DUP4 PUSH2 0x48A6 JUMP JUMPDEST SWAP2 POP PUSH2 0x7DA8 DUP3 PUSH2 0x7D67 JUMP JUMPDEST PUSH1 0x20 DUP3 ADD SWAP1 POP SWAP2 SWAP1 POP JUMP JUMPDEST PUSH1 0x0 PUSH1 0x20 DUP3 ADD SWAP1 POP DUP2 DUP2 SUB PUSH1 0x0 DUP4 ADD MSTORE PUSH2 0x7DCC DUP2 PUSH2 0x7D90 JUMP JUMPDEST SWAP1 POP SWAP2 SWAP1 POP JUMP JUMPDEST PUSH32 0x546F6F206C6F77207472616E7366657272656420616D6F756E74000000000000 PUSH1 0x0 DUP3 ADD MSTORE POP JUMP JUMPDEST PUSH1 0x0 PUSH2 0x7E09 PUSH1 0x1A DUP4 PUSH2 0x48A6 JUMP JUMPDEST SWAP2 POP PUSH2 0x7E14 DUP3 PUSH2 0x7DD3 JUMP JUMPDEST PUSH1 0x20 DUP3 ADD SWAP1 POP SWAP2 SWAP1 POP JUMP JUMPDEST PUSH1 0x0 PUSH1 0x20 DUP3 ADD SWAP1 POP DUP2 DUP2 SUB PUSH1 0x0 DUP4 ADD MSTORE PUSH2 0x7E38 DUP2 PUSH2 0x7DFC JUMP JUMPDEST SWAP1 POP SWAP2 SWAP1 POP JUMP JUMPDEST PUSH32 0x4F776E61626C653A2063616C6C6572206973206E6F7420746865206F776E6572 PUSH1 0x0 DUP3 ADD MSTORE POP JUMP JUMPDEST PUSH1 0x0 PUSH2 0x7E75 PUSH1 0x20 DUP4 PUSH2 0x48A6 JUMP JUMPDEST SWAP2 POP PUSH2 0x7E80 DUP3 PUSH2 0x7E3F JUMP JUMPDEST PUSH1 0x20 DUP3 ADD SWAP1 POP SWAP2 SWAP1 POP JUMP JUMPDEST PUSH1 0x0 PUSH1 0x20 DUP3 ADD SWAP1 POP DUP2 DUP2 SUB PUSH1 0x0 DUP4 ADD MSTORE PUSH2 0x7EA4 DUP2 PUSH2 0x7E68 JUMP JUMPDEST SWAP1 POP SWAP2 SWAP1 POP JUMP JUMPDEST PUSH32 0x496E697469616C697A61626C653A20636F6E7472616374206973206E6F742069 PUSH1 0x0 DUP3 ADD MSTORE PUSH32 0x6E697469616C697A696E67000000000000000000000000000000000000000000 PUSH1 0x20 DUP3 ADD MSTORE POP JUMP JUMPDEST PUSH1 0x0 PUSH2 0x7F07 PUSH1 0x2B DUP4 PUSH2 0x48A6 JUMP JUMPDEST SWAP2 POP PUSH2 0x7F12 DUP3 PUSH2 0x7EAB JUMP JUMPDEST PUSH1 0x40 DUP3 ADD SWAP1 POP SWAP2 SWAP1 POP JUMP JUMPDEST PUSH1 0x0 PUSH1 0x20 DUP3 ADD SWAP1 POP DUP2 DUP2 SUB PUSH1 0x0 DUP4 ADD MSTORE PUSH2 0x7F36 DUP2 PUSH2 0x7EFA JUMP JUMPDEST SWAP1 POP SWAP2 SWAP1 POP JUMP JUMPDEST PUSH32 0x736C6963696E67206F7574206F662072616E6765000000000000000000000000 PUSH1 0x0 DUP3 ADD MSTORE POP JUMP JUMPDEST PUSH1 0x0 PUSH2 0x7F73 PUSH1 0x14 DUP4 PUSH2 0x48A6 JUMP JUMPDEST SWAP2 POP PUSH2 0x7F7E DUP3 PUSH2 0x7F3D JUMP JUMPDEST PUSH1 0x20 DUP3 ADD SWAP1 POP SWAP2 SWAP1 POP JUMP JUMPDEST PUSH1 0x0 PUSH1 0x20 DUP3 ADD SWAP1 POP DUP2 DUP2 SUB PUSH1 0x0 DUP4 ADD MSTORE PUSH2 0x7FA2 DUP2 PUSH2 0x7F66 JUMP JUMPDEST SWAP1 POP SWAP2 SWAP1 POP JUMP JUMPDEST PUSH32 0x31737420626C6F636B2068656967687420696E76616C69640000000000000000 PUSH1 0x0 DUP3 ADD MSTORE POP JUMP JUMPDEST PUSH1 0x0 PUSH2 0x7FDF PUSH1 0x18 DUP4 PUSH2 0x48A6 JUMP JUMPDEST SWAP2 POP PUSH2 0x7FEA DUP3 PUSH2 0x7FA9 JUMP JUMPDEST PUSH1 0x20 DUP3 ADD SWAP1 POP SWAP2 SWAP1 POP JUMP JUMPDEST PUSH1 0x0 PUSH1 0x20 DUP3 ADD SWAP1 POP DUP2 DUP2 SUB PUSH1 0x0 DUP4 ADD MSTORE PUSH2 0x800E DUP2 PUSH2 0x7FD2 JUMP JUMPDEST SWAP1 POP SWAP2 SWAP1 POP JUMP JUMPDEST PUSH32 0x4E20626C6F636B2068656967687420696E76616C696400000000000000000000 PUSH1 0x0 DUP3 ADD MSTORE POP JUMP JUMPDEST PUSH1 0x0 PUSH2 0x804B PUSH1 0x16 DUP4 PUSH2 0x48A6 JUMP JUMPDEST SWAP2 POP PUSH2 0x8056 DUP3 PUSH2 0x8015 JUMP JUMPDEST PUSH1 0x20 DUP3 ADD SWAP1 POP SWAP2 SWAP1 POP JUMP JUMPDEST PUSH1 0x0 PUSH1 0x20 DUP3 ADD SWAP1 POP DUP2 DUP2 SUB PUSH1 0x0 DUP4 ADD MSTORE PUSH2 0x807A DUP2 PUSH2 0x803E JUMP JUMPDEST SWAP1 POP SWAP2 SWAP1 POP JUMP JUMPDEST PUSH32 0x4E616D65206D757374206E6F7420626520656D70747900000000000000000000 PUSH1 0x0 DUP3 ADD MSTORE POP JUMP JUMPDEST PUSH1 0x0 PUSH2 0x80B7 PUSH1 0x16 DUP4 PUSH2 0x48A6 JUMP JUMPDEST SWAP2 POP PUSH2 0x80C2 DUP3 PUSH2 0x8081 JUMP JUMPDEST PUSH1 0x20 DUP3 ADD SWAP1 POP SWAP2 SWAP1 POP JUMP JUMPDEST PUSH1 0x0 PUSH1 0x20 DUP3 ADD SWAP1 POP DUP2 DUP2 SUB PUSH1 0x0 DUP4 ADD MSTORE PUSH2 0x80E6 DUP2 PUSH2 0x80AA JUMP JUMPDEST SWAP1 POP SWAP2 SWAP1 POP JUMP JUMPDEST PUSH32 0x466565206D7573742062652067726561746572207468616E2030000000000000 PUSH1 0x0 DUP3 ADD MSTORE POP JUMP JUMPDEST PUSH1 0x0 PUSH2 0x8123 PUSH1 0x1A DUP4 PUSH2 0x48A6 JUMP JUMPDEST SWAP2 POP PUSH2 0x812E DUP3 PUSH2 0x80ED JUMP JUMPDEST PUSH1 0x20 DUP3 ADD SWAP1 POP SWAP2 SWAP1 POP JUMP JUMPDEST PUSH1 0x0 PUSH1 0x20 DUP3 ADD SWAP1 POP DUP2 DUP2 SUB PUSH1 0x0 DUP4 ADD MSTORE PUSH2 0x8152 DUP2 PUSH2 0x8116 JUMP JUMPDEST SWAP1 POP SWAP2 SWAP1 POP JUMP JUMPDEST PUSH32 0x51756F74652065787069726174696F6E206D7573742062652067726561746572 PUSH1 0x0 DUP3 ADD MSTORE PUSH32 0x207468616E203000000000000000000000000000000000000000000000000000 PUSH1 0x20 DUP3 ADD MSTORE POP JUMP JUMPDEST PUSH1 0x0 PUSH2 0x81B5 PUSH1 0x27 DUP4 PUSH2 0x48A6 JUMP JUMPDEST SWAP2 POP PUSH2 0x81C0 DUP3 PUSH2 0x8159 JUMP JUMPDEST PUSH1 0x40 DUP3 ADD SWAP1 POP SWAP2 SWAP1 POP JUMP JUMPDEST PUSH1 0x0 PUSH1 0x20 DUP3 ADD SWAP1 POP DUP2 DUP2 SUB PUSH1 0x0 DUP4 ADD MSTORE PUSH2 0x81E4 DUP2 PUSH2 0x81A8 JUMP JUMPDEST SWAP1 POP SWAP2 SWAP1 POP JUMP JUMPDEST PUSH32 0x41636365707465642071756F74652065787069726174696F6E206D7573742062 PUSH1 0x0 DUP3 ADD MSTORE PUSH32 0x652067726561746572207468616E203000000000000000000000000000000000 PUSH1 0x20 DUP3 ADD MSTORE POP JUMP JUMPDEST PUSH1 0x0 PUSH2 0x8247 PUSH1 0x30 DUP4 PUSH2 0x48A6 JUMP JUMPDEST SWAP2 POP PUSH2 0x8252 DUP3 PUSH2 0x81EB JUMP JUMPDEST PUSH1 0x40 DUP3 ADD SWAP1 POP SWAP2 SWAP1 POP JUMP JUMPDEST PUSH1 0x0 PUSH1 0x20 DUP3 ADD SWAP1 POP DUP2 DUP2 SUB PUSH1 0x0 DUP4 ADD MSTORE PUSH2 0x8276 DUP2 PUSH2 0x823A JUMP JUMPDEST SWAP1 POP SWAP2 SWAP1 POP JUMP JUMPDEST PUSH32 0x4D696E207472616E73616374696F6E2076616C7565206D757374206265206772 PUSH1 0x0 DUP3 ADD MSTORE PUSH32 0x6561746572207468616E20300000000000000000000000000000000000000000 PUSH1 0x20 DUP3 ADD MSTORE POP JUMP JUMPDEST PUSH1 0x0 PUSH2 0x82D9 PUSH1 0x2C DUP4 PUSH2 0x48A6 JUMP JUMPDEST SWAP2 POP PUSH2 0x82E4 DUP3 PUSH2 0x827D JUMP JUMPDEST PUSH1 0x40 DUP3 ADD SWAP1 POP SWAP2 SWAP1 POP JUMP JUMPDEST PUSH1 0x0 PUSH1 0x20 DUP3 ADD SWAP1 POP DUP2 DUP2 SUB PUSH1 0x0 DUP4 ADD MSTORE PUSH2 0x8308 DUP2 PUSH2 0x82CC JUMP JUMPDEST SWAP1 POP SWAP2 SWAP1 POP JUMP JUMPDEST PUSH32 0x4D6178207472616E73616374696F6E2076616C7565206D757374206265206772 PUSH1 0x0 DUP3 ADD MSTORE PUSH32 0x6561746572207468616E206D696E207472616E73616374696F6E2076616C7565 PUSH1 0x20 DUP3 ADD MSTORE POP JUMP JUMPDEST PUSH1 0x0 PUSH2 0x836B PUSH1 0x40 DUP4 PUSH2 0x48A6 JUMP JUMPDEST SWAP2 POP PUSH2 0x8376 DUP3 PUSH2 0x830F JUMP JUMPDEST PUSH1 0x40 DUP3 ADD SWAP1 POP SWAP2 SWAP1 POP JUMP JUMPDEST PUSH1 0x0 PUSH1 0x20 DUP3 ADD SWAP1 POP DUP2 DUP2 SUB PUSH1 0x0 DUP4 ADD MSTORE PUSH2 0x839A DUP2 PUSH2 0x835E JUMP JUMPDEST SWAP1 POP SWAP2 SWAP1 POP JUMP JUMPDEST PUSH32 0x41504920626173652055524C206D757374206E6F7420626520656D7074790000 PUSH1 0x0 DUP3 ADD MSTORE POP JUMP JUMPDEST PUSH1 0x0 PUSH2 0x83D7 PUSH1 0x1E DUP4 PUSH2 0x48A6 JUMP JUMPDEST SWAP2 POP PUSH2 0x83E2 DUP3 PUSH2 0x83A1 JUMP JUMPDEST PUSH1 0x20 DUP3 ADD SWAP1 POP SWAP2 SWAP1 POP JUMP JUMPDEST PUSH1 0x0 PUSH1 0x20 DUP3 ADD SWAP1 POP DUP2 DUP2 SUB PUSH1 0x0 DUP4 ADD MSTORE PUSH2 0x8406 DUP2 PUSH2 0x83CA JUMP JUMPDEST SWAP1 POP SWAP2 SWAP1 POP JUMP JUMPDEST PUSH1 0x0 PUSH1 0x40 DUP3 ADD SWAP1 POP DUP2 DUP2 SUB PUSH1 0x0 DUP4 ADD MSTORE PUSH2 0x8427 DUP2 DUP6 PUSH2 0x6846 JUMP JUMPDEST SWAP1 POP DUP2 DUP2 SUB PUSH1 0x20 DUP4 ADD MSTORE PUSH2 0x843B DUP2 DUP5 PUSH2 0x6846 JUMP JUMPDEST SWAP1 POP SWAP4 SWAP3 POP POP POP JUMP JUMPDEST PUSH2 0x844D DUP2 PUSH2 0x4A01 JUMP JUMPDEST DUP3 MSTORE POP POP JUMP JUMPDEST PUSH1 0x0 PUSH2 0x120 DUP3 ADD SWAP1 POP PUSH2 0x8469 PUSH1 0x0 DUP4 ADD DUP13 PUSH2 0x8444 JUMP JUMPDEST PUSH2 0x8476 PUSH1 0x20 DUP4 ADD DUP12 PUSH2 0x552E JUMP JUMPDEST PUSH2 0x8483 PUSH1 0x40 DUP4 ADD DUP11 PUSH2 0x552E JUMP JUMPDEST DUP2 DUP2 SUB PUSH1 0x60 DUP4 ADD MSTORE PUSH2 0x8495 DUP2 DUP10 PUSH2 0x6846 JUMP JUMPDEST SWAP1 POP PUSH2 0x84A4 PUSH1 0x80 DUP4 ADD DUP9 PUSH2 0x7C05 JUMP JUMPDEST DUP2 DUP2 SUB PUSH1 0xA0 DUP4 ADD MSTORE PUSH2 0x84B6 DUP2 DUP8 PUSH2 0x6846 JUMP JUMPDEST SWAP1 POP PUSH2 0x84C5 PUSH1 0xC0 DUP4 ADD DUP7 PUSH2 0x492D JUMP JUMPDEST PUSH2 0x84D2 PUSH1 0xE0 DUP4 ADD DUP6 PUSH2 0x492D JUMP JUMPDEST PUSH2 0x84E0 PUSH2 0x100 DUP4 ADD DUP5 PUSH2 0x552E JUMP JUMPDEST SWAP11 SWAP10 POP POP POP POP POP POP POP POP POP POP JUMP JUMPDEST PUSH2 0x84F7 DUP2 PUSH2 0x4BDB JUMP JUMPDEST DUP3 MSTORE POP POP JUMP JUMPDEST PUSH2 0x8506 DUP2 PUSH2 0x4C17 JUMP JUMPDEST DUP3 MSTORE POP POP JUMP JUMPDEST PUSH2 0x8515 DUP2 PUSH2 0x4C50 JUMP JUMPDEST DUP3 MSTORE POP POP JUMP JUMPDEST PUSH1 0x0 PUSH2 0x120 DUP3 ADD SWAP1 POP DUP2 DUP2 SUB PUSH1 0x0 DUP4 ADD MSTORE PUSH2 0x8536 DUP2 DUP13 PUSH2 0x6846 JUMP JUMPDEST SWAP1 POP PUSH2 0x8545 PUSH1 0x20 DUP4 ADD DUP12 PUSH2 0x84EE JUMP JUMPDEST PUSH2 0x8552 PUSH1 0x40 DUP4 ADD DUP11 PUSH2 0x84FD JUMP JUMPDEST PUSH2 0x855F PUSH1 0x60 DUP4 ADD DUP10 PUSH2 0x492D JUMP JUMPDEST PUSH2 0x856C PUSH1 0x80 DUP4 ADD DUP9 PUSH2 0x84EE JUMP JUMPDEST PUSH2 0x8579 PUSH1 0xA0 DUP4 ADD DUP8 PUSH2 0x84EE JUMP JUMPDEST PUSH2 0x8586 PUSH1 0xC0 DUP4 ADD DUP7 PUSH2 0x84EE JUMP JUMPDEST PUSH2 0x8593 PUSH1 0xE0 DUP4 ADD DUP6 PUSH2 0x850C JUMP JUMPDEST PUSH2 0x85A1 PUSH2 0x100 DUP4 ADD DUP5 PUSH2 0x4F93 JUMP JUMPDEST SWAP11 SWAP10 POP POP POP POP POP POP POP POP POP POP JUMP JUMPDEST PUSH1 0x0 PUSH2 0x120 DUP3 ADD SWAP1 POP PUSH2 0x85C5 PUSH1 0x0 DUP4 ADD DUP13 PUSH2 0x552E JUMP JUMPDEST PUSH2 0x85D2 PUSH1 0x20 DUP4 ADD DUP12 PUSH2 0x552E JUMP JUMPDEST DUP2 DUP2 SUB PUSH1 0x40 DUP4 ADD MSTORE PUSH2 0x85E4 DUP2 DUP11 PUSH2 0x6846 JUMP JUMPDEST SWAP1 POP PUSH2 0x85F3 PUSH1 0x60 DUP4 ADD DUP10 PUSH2 0x552E JUMP JUMPDEST DUP2 DUP2 SUB PUSH1 0x80 DUP4 ADD MSTORE PUSH2 0x8605 DUP2 DUP9 PUSH2 0x6846 JUMP JUMPDEST SWAP1 POP PUSH2 0x8614 PUSH1 0xA0 DUP4 ADD DUP8 PUSH2 0x492D JUMP JUMPDEST PUSH2 0x8621 PUSH1 0xC0 DUP4 ADD DUP7 PUSH2 0x492D JUMP JUMPDEST PUSH2 0x862E PUSH1 0xE0 DUP4 ADD DUP6 PUSH2 0x84FD JUMP JUMPDEST DUP2 DUP2 SUB PUSH2 0x100 DUP4 ADD MSTORE PUSH2 0x8641 DUP2 DUP5 PUSH2 0x6846 JUMP JUMPDEST SWAP1 POP SWAP11 SWAP10 POP POP POP POP POP POP POP POP POP POP JUMP JUMPDEST PUSH1 0x0 PUSH2 0x120 DUP3 ADD SWAP1 POP PUSH2 0x8667 PUSH1 0x0 DUP4 ADD DUP13 PUSH2 0x84EE JUMP JUMPDEST PUSH2 0x8674 PUSH1 0x20 DUP4 ADD DUP12 PUSH2 0x492D JUMP JUMPDEST PUSH2 0x8681 PUSH1 0x40 DUP4 ADD DUP11 PUSH2 0x84EE JUMP JUMPDEST PUSH2 0x868E PUSH1 0x60 DUP4 ADD DUP10 PUSH2 0x84EE JUMP JUMPDEST PUSH2 0x869B PUSH1 0x80 DUP4 ADD DUP9 PUSH2 0x850C JUMP JUMPDEST PUSH2 0x86A8 PUSH1 0xA0 DUP4 ADD DUP8 PUSH2 0x850C JUMP JUMPDEST PUSH2 0x86B5 PUSH1 0xC0 DUP4 ADD DUP7 PUSH2 0x84EE JUMP JUMPDEST PUSH2 0x86C2 PUSH1 0xE0 DUP4 ADD DUP6 PUSH2 0x84EE JUMP JUMPDEST PUSH2 0x86D0 PUSH2 0x100 DUP4 ADD DUP5 PUSH2 0x84EE JUMP JUMPDEST SWAP11 SWAP10 POP POP POP POP POP POP POP POP POP POP JUMP INVALID LOG2 PUSH5 0x6970667358 0x22 SLT KECCAK256 SWAP6 0xAA 0xC DUP16 DUP14 0x2C PUSH3 0xC7E22B PUSH16 0x373DC0AACF18957CD7A143C6F155BA96 0xE0 BLOCKHASH TIMESTAMP PUSH17 0x164736F6C634300081200330000000000 "
		},
		"gasEstimates": {
			"creation": {
				"codeDepositCost": "6916000",
				"executionCost": "8819",
				"totalCost": "6924819"
			},
			"external": {
				"addCollateral()": "infinite",
				"callForUser((bytes20,address,address,bytes,address,bytes,uint256,uint256,address,bytes,uint32,int64,uint256,uint32,uint32,uint32,uint16,bool))": "infinite",
				"deposit()": "infinite",
				"depositForPegout()": "infinite",
				"getBalance(address)": "2885",
				"getBridgeAddress()": "2610",
				"getBtcBlockTimestamp(bytes)": "infinite",
				"getCollateral(address)": "2887",
				"getDustThreshold()": "2550",
				"getMinCollateral()": "2482",
				"getMinPegIn()": "2503",
				"getPegOutBalance(address)": "2953",
				"getPegOutProcessedQuote(bytes32)": "2889",
				"getProviderIds()": "2484",
				"getProviders(uint256[])": "infinite",
				"getResignDelayBlocks()": "2574",
				"getRewardPercentage()": "2546",
				"hashPegoutQuote((address,address,bytes,address,bytes,uint256,uint256,int64,bytes,uint32,uint256,uint32,uint32,uint16,uint16,uint32,uint32,uint32))": "infinite",
				"hashQuote((bytes20,address,address,bytes,address,bytes,uint256,uint256,address,bytes,uint32,int64,uint256,uint32,uint32,uint32,uint16,bool))": "infinite",
				"initialize(address,uint256,uint256,uint32,uint32,uint256)": "infinite",
				"isOperational(address)": "9509",
				"owner()": "2611",
				"refundPegOut((address,address,bytes,address,bytes,uint256,uint256,int64,bytes,uint32,uint256,uint32,uint32,uint16,uint16,uint32,uint32,uint32),bytes32,bytes32,uint256,bytes32[])": "infinite",
				"register(string,uint256,uint256,uint256,uint256,uint256,string,bool)": "infinite",
				"registerPegIn((bytes20,address,address,bytes,address,bytes,uint256,uint256,address,bytes,uint32,int64,uint256,uint32,uint32,uint32,uint16,bool),bytes,bytes,bytes,uint256)": "infinite",
				"registerPegOut((address,address,bytes,address,bytes,uint256,uint256,int64,bytes,uint32,uint256,uint32,uint32,uint16,uint16,uint32,uint32,uint32),bytes)": "infinite",
				"renounceOwnership()": "30510",
				"resign()": "30341",
				"setProviderStatus(uint256,bool)": "29525",
				"transferOwnership(address)": "30833",
				"withdraw(uint256)": "infinite",
				"withdrawCollateral()": "infinite"
			},
			"internal": {
				"checkAgreedAmount(struct LiquidityBridgeContract.Quote memory,uint256)": "infinite",
				"decreaseBalance(address,uint256)": "infinite",
				"decreasePegOutBalance(address,uint256)": "infinite",
				"encodePart1(struct LiquidityBridgeContract.Quote memory)": "infinite",
				"encodePart2(struct LiquidityBridgeContract.Quote memory)": "infinite",
				"encodePegOutPart1(struct LiquidityBridgeContract.PegOutQuote memory)": "infinite",
				"encodePegOutPart2(struct LiquidityBridgeContract.PegOutQuote memory)": "infinite",
				"encodePegOutQuote(struct LiquidityBridgeContract.PegOutQuote memory)": "infinite",
				"encodeQuote(struct LiquidityBridgeContract.Quote memory)": "infinite",
				"increaseBalance(address,uint256)": "infinite",
				"increasePegOutBalance(address,uint256)": "infinite",
				"isRegistered(address)": "4451",
				"min(uint256,uint256)": "64",
				"registerBridge(struct LiquidityBridgeContract.Quote memory,bytes memory,bytes memory,uint256,bytes32)": "infinite",
				"shouldPenalizeLP(struct LiquidityBridgeContract.Quote memory,int256,uint256,uint256)": "infinite",
				"shouldPenalizePegOutLP(struct LiquidityBridgeContract.PegOutQuote memory,uint256,uint256,uint256)": "infinite",
				"sliceUint32FromLSB(bytes memory,uint256)": "infinite",
				"validateAndHashPegOutQuote(struct LiquidityBridgeContract.PegOutQuote memory)": "infinite",
				"validateAndHashQuote(struct LiquidityBridgeContract.Quote memory)": "infinite",
				"validateRegisterParameters(string memory,uint256,uint256,uint256,uint256,uint256,string memory)": "infinite"
			}
		},
		"methodIdentifiers": {
			"addCollateral()": "9e816999",
			"callForUser((bytes20,address,address,bytes,address,bytes,uint256,uint256,address,bytes,uint32,int64,uint256,uint32,uint32,uint32,uint16,bool))": "ac29d744",
			"deposit()": "d0e30db0",
			"depositForPegout()": "34a7a864",
			"getBalance(address)": "f8b2cb4f",
			"getBridgeAddress()": "fb32c508",
			"getBtcBlockTimestamp(bytes)": "a0cd70fc",
			"getCollateral(address)": "9b56d6c9",
			"getDustThreshold()": "33f07ad3",
			"getMinCollateral()": "e830b690",
			"getMinPegIn()": "fa88dcde",
			"getPegOutBalance(address)": "644be07d",
			"getPegOutProcessedQuote(bytes32)": "891f6055",
			"getProviderIds()": "0a9cb4a7",
			"getProviders(uint256[])": "668dbd83",
			"getResignDelayBlocks()": "bd5798c3",
			"getRewardPercentage()": "c7213163",
			"hashPegoutQuote((address,address,bytes,address,bytes,uint256,uint256,int64,bytes,uint32,uint256,uint32,uint32,uint16,uint16,uint32,uint32,uint32))": "f691ceb2",
			"hashQuote((bytes20,address,address,bytes,address,bytes,uint256,uint256,address,bytes,uint32,int64,uint256,uint32,uint32,uint32,uint16,bool))": "1b032188",
			"initialize(address,uint256,uint256,uint32,uint32,uint256)": "9023550c",
			"isOperational(address)": "457385f2",
			"owner()": "8da5cb5b",
			"refundPegOut((address,address,bytes,address,bytes,uint256,uint256,int64,bytes,uint32,uint256,uint32,uint32,uint16,uint16,uint32,uint32,uint32),bytes32,bytes32,uint256,bytes32[])": "de51a249",
			"register(string,uint256,uint256,uint256,uint256,uint256,string,bool)": "fdc505a2",
			"registerPegIn((bytes20,address,address,bytes,address,bytes,uint256,uint256,address,bytes,uint32,int64,uint256,uint32,uint32,uint32,uint16,bool),bytes,bytes,bytes,uint256)": "6e2e8c70",
			"registerPegOut((address,address,bytes,address,bytes,uint256,uint256,int64,bytes,uint32,uint256,uint32,uint32,uint16,uint16,uint32,uint32,uint32),bytes)": "ea85347e",
			"renounceOwnership()": "715018a6",
			"resign()": "69652fcf",
			"setProviderStatus(uint256,bool)": "72cbf4e8",
			"transferOwnership(address)": "f2fde38b",
			"withdraw(uint256)": "2e1a7d4d",
			"withdrawCollateral()": "59c153be"
		}
	},
	"abi": [
		{
			"anonymous": false,
			"inputs": [
				{
					"indexed": false,
					"internalType": "address",
					"name": "dest",
					"type": "address"
				},
				{
					"indexed": false,
					"internalType": "uint256",
					"name": "amount",
					"type": "uint256"
				}
			],
			"name": "BalanceDecrease",
			"type": "event"
		},
		{
			"anonymous": false,
			"inputs": [
				{
					"indexed": false,
					"internalType": "address",
					"name": "dest",
					"type": "address"
				},
				{
					"indexed": false,
					"internalType": "uint256",
					"name": "amount",
					"type": "uint256"
				}
			],
			"name": "BalanceIncrease",
			"type": "event"
		},
		{
			"anonymous": false,
			"inputs": [
				{
					"indexed": false,
					"internalType": "bytes32",
					"name": "quoteHash",
					"type": "bytes32"
				},
				{
					"indexed": false,
					"internalType": "int256",
					"name": "errorCode",
					"type": "int256"
				}
			],
			"name": "BridgeCapExceeded",
			"type": "event"
		},
		{
			"anonymous": false,
			"inputs": [
				{
					"indexed": false,
					"internalType": "bytes32",
					"name": "quoteHash",
					"type": "bytes32"
				},
				{
					"indexed": false,
					"internalType": "int256",
					"name": "errorCode",
					"type": "int256"
				}
			],
			"name": "BridgeError",
			"type": "event"
		},
		{
			"anonymous": false,
			"inputs": [
				{
					"indexed": false,
					"internalType": "address",
					"name": "from",
					"type": "address"
				},
				{
					"indexed": false,
					"internalType": "address",
					"name": "dest",
					"type": "address"
				},
				{
					"indexed": false,
					"internalType": "uint256",
					"name": "gasLimit",
					"type": "uint256"
				},
				{
					"indexed": false,
					"internalType": "uint256",
					"name": "value",
					"type": "uint256"
				},
				{
					"indexed": false,
					"internalType": "bytes",
					"name": "data",
					"type": "bytes"
				},
				{
					"indexed": false,
					"internalType": "bool",
					"name": "success",
					"type": "bool"
				},
				{
					"indexed": false,
					"internalType": "bytes32",
					"name": "quoteHash",
					"type": "bytes32"
				}
			],
			"name": "CallForUser",
			"type": "event"
		},
		{
			"anonymous": false,
			"inputs": [
				{
					"indexed": false,
					"internalType": "address",
					"name": "from",
					"type": "address"
				},
				{
					"indexed": false,
					"internalType": "uint256",
					"name": "amount",
					"type": "uint256"
				}
			],
			"name": "CollateralIncrease",
			"type": "event"
		},
		{
			"anonymous": false,
			"inputs": [
				{
					"indexed": false,
					"internalType": "address",
					"name": "from",
					"type": "address"
				},
				{
					"indexed": false,
					"internalType": "uint256",
					"name": "amount",
					"type": "uint256"
				}
			],
			"name": "Deposit",
			"type": "event"
		},
		{
			"anonymous": false,
			"inputs": [
				{
					"indexed": false,
					"internalType": "uint8",
					"name": "version",
					"type": "uint8"
				}
			],
			"name": "Initialized",
			"type": "event"
		},
		{
			"anonymous": false,
			"inputs": [
				{
					"indexed": true,
					"internalType": "address",
					"name": "previousOwner",
					"type": "address"
				},
				{
					"indexed": true,
					"internalType": "address",
					"name": "newOwner",
					"type": "address"
				}
			],
			"name": "OwnershipTransferred",
			"type": "event"
		},
		{
			"anonymous": false,
			"inputs": [
				{
					"indexed": false,
					"internalType": "address",
					"name": "from",
					"type": "address"
				},
				{
					"indexed": false,
					"internalType": "uint256",
					"name": "amount",
					"type": "uint256"
				},
				{
					"indexed": false,
					"internalType": "bytes32",
					"name": "quotehash",
					"type": "bytes32"
				},
				{
					"indexed": false,
					"internalType": "uint256",
					"name": "processed",
					"type": "uint256"
				}
			],
			"name": "PegOut",
			"type": "event"
		},
		{
			"anonymous": false,
			"inputs": [
				{
					"indexed": false,
					"internalType": "address",
					"name": "dest",
					"type": "address"
				},
				{
					"indexed": false,
					"internalType": "uint256",
					"name": "amount",
					"type": "uint256"
				}
			],
			"name": "PegOutBalanceDecrease",
			"type": "event"
		},
		{
			"anonymous": false,
			"inputs": [
				{
					"indexed": false,
					"internalType": "address",
					"name": "dest",
					"type": "address"
				},
				{
					"indexed": false,
					"internalType": "uint256",
					"name": "amount",
					"type": "uint256"
				}
			],
			"name": "PegOutBalanceIncrease",
			"type": "event"
		},
		{
			"anonymous": false,
			"inputs": [
				{
					"indexed": false,
					"internalType": "address",
					"name": "liquidityProvider",
					"type": "address"
				},
				{
					"indexed": false,
					"internalType": "uint256",
					"name": "penalty",
					"type": "uint256"
				},
				{
					"indexed": false,
					"internalType": "bytes32",
					"name": "quoteHash",
					"type": "bytes32"
				}
			],
			"name": "Penalized",
			"type": "event"
		},
		{
			"anonymous": false,
			"inputs": [
				{
					"indexed": false,
					"internalType": "address",
					"name": "dest",
					"type": "address"
				},
				{
					"indexed": false,
					"internalType": "uint256",
					"name": "amount",
					"type": "uint256"
				},
				{
					"indexed": false,
					"internalType": "bool",
					"name": "success",
					"type": "bool"
				},
				{
					"indexed": false,
					"internalType": "bytes32",
					"name": "quoteHash",
					"type": "bytes32"
				}
			],
			"name": "Refund",
			"type": "event"
		},
		{
			"anonymous": false,
			"inputs": [
				{
					"indexed": false,
					"internalType": "uint256",
					"name": "id",
					"type": "uint256"
				},
				{
					"indexed": false,
					"internalType": "address",
					"name": "from",
					"type": "address"
				},
				{
					"indexed": false,
					"internalType": "uint256",
					"name": "amount",
					"type": "uint256"
				}
			],
			"name": "Register",
			"type": "event"
		},
		{
			"anonymous": false,
			"inputs": [
				{
					"indexed": false,
					"internalType": "address",
					"name": "from",
					"type": "address"
				}
			],
			"name": "Resigned",
			"type": "event"
		},
		{
			"anonymous": false,
			"inputs": [
				{
					"indexed": false,
					"internalType": "address",
					"name": "from",
					"type": "address"
				},
				{
					"indexed": false,
					"internalType": "uint256",
					"name": "amount",
					"type": "uint256"
				}
			],
			"name": "WithdrawCollateral",
			"type": "event"
		},
		{
			"anonymous": false,
			"inputs": [
				{
					"indexed": false,
					"internalType": "address",
					"name": "from",
					"type": "address"
				},
				{
					"indexed": false,
					"internalType": "uint256",
					"name": "amount",
					"type": "uint256"
				}
			],
			"name": "Withdrawal",
			"type": "event"
		},
		{
			"inputs": [],
			"name": "addCollateral",
			"outputs": [],
			"stateMutability": "payable",
			"type": "function"
		},
		{
			"inputs": [
				{
					"components": [
						{
							"internalType": "bytes20",
							"name": "fedBtcAddress",
							"type": "bytes20"
						},
						{
							"internalType": "address",
							"name": "lbcAddress",
							"type": "address"
						},
						{
							"internalType": "address",
							"name": "liquidityProviderRskAddress",
							"type": "address"
						},
						{
							"internalType": "bytes",
							"name": "btcRefundAddress",
							"type": "bytes"
						},
						{
							"internalType": "address payable",
							"name": "rskRefundAddress",
							"type": "address"
						},
						{
							"internalType": "bytes",
							"name": "liquidityProviderBtcAddress",
							"type": "bytes"
						},
						{
							"internalType": "uint256",
							"name": "callFee",
							"type": "uint256"
						},
						{
							"internalType": "uint256",
							"name": "penaltyFee",
							"type": "uint256"
						},
						{
							"internalType": "address",
							"name": "contractAddress",
							"type": "address"
						},
						{
							"internalType": "bytes",
							"name": "data",
							"type": "bytes"
						},
						{
							"internalType": "uint32",
							"name": "gasLimit",
							"type": "uint32"
						},
						{
							"internalType": "int64",
							"name": "nonce",
							"type": "int64"
						},
						{
							"internalType": "uint256",
							"name": "value",
							"type": "uint256"
						},
						{
							"internalType": "uint32",
							"name": "agreementTimestamp",
							"type": "uint32"
						},
						{
							"internalType": "uint32",
							"name": "timeForDeposit",
							"type": "uint32"
						},
						{
							"internalType": "uint32",
							"name": "callTime",
							"type": "uint32"
						},
						{
							"internalType": "uint16",
							"name": "depositConfirmations",
							"type": "uint16"
						},
						{
							"internalType": "bool",
							"name": "callOnRegister",
							"type": "bool"
						}
					],
					"internalType": "struct LiquidityBridgeContract.Quote",
					"name": "quote",
					"type": "tuple"
				}
			],
			"name": "callForUser",
			"outputs": [
				{
					"internalType": "bool",
					"name": "",
					"type": "bool"
				}
			],
			"stateMutability": "payable",
			"type": "function"
		},
		{
			"inputs": [],
			"name": "deposit",
			"outputs": [],
			"stateMutability": "payable",
			"type": "function"
		},
		{
			"inputs": [],
			"name": "depositForPegout",
			"outputs": [],
			"stateMutability": "payable",
			"type": "function"
		},
		{
			"inputs": [
				{
					"internalType": "address",
					"name": "addr",
					"type": "address"
				}
			],
			"name": "getBalance",
			"outputs": [
				{
					"internalType": "uint256",
					"name": "",
					"type": "uint256"
				}
			],
			"stateMutability": "view",
			"type": "function"
		},
		{
			"inputs": [],
			"name": "getBridgeAddress",
			"outputs": [
				{
					"internalType": "address",
					"name": "",
					"type": "address"
				}
			],
			"stateMutability": "view",
			"type": "function"
		},
		{
			"inputs": [
				{
					"internalType": "bytes",
					"name": "header",
					"type": "bytes"
				}
			],
			"name": "getBtcBlockTimestamp",
			"outputs": [
				{
					"internalType": "uint256",
					"name": "",
					"type": "uint256"
				}
			],
			"stateMutability": "pure",
			"type": "function"
		},
		{
			"inputs": [
				{
					"internalType": "address",
					"name": "addr",
					"type": "address"
				}
			],
			"name": "getCollateral",
			"outputs": [
				{
					"internalType": "uint256",
					"name": "",
					"type": "uint256"
				}
			],
			"stateMutability": "view",
			"type": "function"
		},
		{
			"inputs": [],
			"name": "getDustThreshold",
			"outputs": [
				{
					"internalType": "uint256",
					"name": "",
					"type": "uint256"
				}
			],
			"stateMutability": "view",
			"type": "function"
		},
		{
			"inputs": [],
			"name": "getMinCollateral",
			"outputs": [
				{
					"internalType": "uint256",
					"name": "",
					"type": "uint256"
				}
			],
			"stateMutability": "view",
			"type": "function"
		},
		{
			"inputs": [],
			"name": "getMinPegIn",
			"outputs": [
				{
					"internalType": "uint256",
					"name": "",
					"type": "uint256"
				}
			],
			"stateMutability": "view",
			"type": "function"
		},
		{
			"inputs": [
				{
					"internalType": "address",
					"name": "addr",
					"type": "address"
				}
			],
			"name": "getPegOutBalance",
			"outputs": [
				{
					"internalType": "uint256",
					"name": "",
					"type": "uint256"
				}
			],
			"stateMutability": "view",
			"type": "function"
		},
		{
			"inputs": [
				{
					"internalType": "bytes32",
					"name": "quoteHash",
					"type": "bytes32"
				}
			],
			"name": "getPegOutProcessedQuote",
			"outputs": [
				{
					"internalType": "uint8",
					"name": "",
					"type": "uint8"
				}
			],
			"stateMutability": "view",
			"type": "function"
		},
		{
			"inputs": [],
			"name": "getProviderIds",
			"outputs": [
				{
					"internalType": "uint256",
					"name": "",
					"type": "uint256"
				}
			],
			"stateMutability": "view",
			"type": "function"
		},
		{
			"inputs": [
				{
					"internalType": "uint256[]",
					"name": "providerIds",
					"type": "uint256[]"
				}
			],
			"name": "getProviders",
			"outputs": [
				{
					"components": [
						{
							"internalType": "uint256",
							"name": "id",
							"type": "uint256"
						},
						{
							"internalType": "address",
							"name": "provider",
							"type": "address"
						},
						{
							"internalType": "string",
							"name": "name",
							"type": "string"
						},
						{
							"internalType": "uint256",
							"name": "fee",
							"type": "uint256"
						},
						{
							"internalType": "uint256",
							"name": "quoteExpiration",
							"type": "uint256"
						},
						{
							"internalType": "uint256",
							"name": "acceptedQuoteExpiration",
							"type": "uint256"
						},
						{
							"internalType": "uint256",
							"name": "minTransactionValue",
							"type": "uint256"
						},
						{
							"internalType": "uint256",
							"name": "maxTransactionValue",
							"type": "uint256"
						},
						{
							"internalType": "string",
							"name": "apiBaseUrl",
							"type": "string"
						},
						{
							"internalType": "bool",
							"name": "status",
							"type": "bool"
						}
					],
					"internalType": "struct LiquidityBridgeContract.LiquidityProvider[]",
					"name": "",
					"type": "tuple[]"
				}
			],
			"stateMutability": "view",
			"type": "function"
		},
		{
			"inputs": [],
			"name": "getResignDelayBlocks",
			"outputs": [
				{
					"internalType": "uint256",
					"name": "",
					"type": "uint256"
				}
			],
			"stateMutability": "view",
			"type": "function"
		},
		{
			"inputs": [],
			"name": "getRewardPercentage",
			"outputs": [
				{
					"internalType": "uint256",
					"name": "",
					"type": "uint256"
				}
			],
			"stateMutability": "view",
			"type": "function"
		},
		{
			"inputs": [
				{
					"components": [
						{
							"internalType": "address",
							"name": "lbcAddress",
							"type": "address"
						},
						{
							"internalType": "address",
							"name": "lpRskAddress",
							"type": "address"
						},
						{
							"internalType": "bytes",
							"name": "btcRefundAddress",
							"type": "bytes"
						},
						{
							"internalType": "address",
							"name": "rskRefundAddress",
							"type": "address"
						},
						{
							"internalType": "bytes",
							"name": "lpBtcAddress",
							"type": "bytes"
						},
						{
							"internalType": "uint256",
							"name": "callFee",
							"type": "uint256"
						},
						{
							"internalType": "uint256",
							"name": "penaltyFee",
							"type": "uint256"
						},
						{
							"internalType": "int64",
							"name": "nonce",
							"type": "int64"
						},
						{
							"internalType": "bytes",
							"name": "deposityAddress",
							"type": "bytes"
						},
						{
							"internalType": "uint32",
							"name": "gasLimit",
							"type": "uint32"
						},
						{
							"internalType": "uint256",
							"name": "value",
							"type": "uint256"
						},
						{
							"internalType": "uint32",
							"name": "agreementTimestamp",
							"type": "uint32"
						},
						{
							"internalType": "uint32",
							"name": "depositDateLimit",
							"type": "uint32"
						},
						{
							"internalType": "uint16",
							"name": "depositConfirmations",
							"type": "uint16"
						},
						{
							"internalType": "uint16",
							"name": "transferConfirmations",
							"type": "uint16"
						},
						{
							"internalType": "uint32",
							"name": "transferTime",
							"type": "uint32"
						},
						{
							"internalType": "uint32",
							"name": "expireDate",
							"type": "uint32"
						},
						{
							"internalType": "uint32",
							"name": "expireBlock",
							"type": "uint32"
						}
					],
					"internalType": "struct LiquidityBridgeContract.PegOutQuote",
					"name": "quote",
					"type": "tuple"
				}
			],
			"name": "hashPegoutQuote",
			"outputs": [
				{
					"internalType": "bytes32",
					"name": "",
					"type": "bytes32"
				}
			],
			"stateMutability": "view",
			"type": "function"
		},
		{
			"inputs": [
				{
					"components": [
						{
							"internalType": "bytes20",
							"name": "fedBtcAddress",
							"type": "bytes20"
						},
						{
							"internalType": "address",
							"name": "lbcAddress",
							"type": "address"
						},
						{
							"internalType": "address",
							"name": "liquidityProviderRskAddress",
							"type": "address"
						},
						{
							"internalType": "bytes",
							"name": "btcRefundAddress",
							"type": "bytes"
						},
						{
							"internalType": "address payable",
							"name": "rskRefundAddress",
							"type": "address"
						},
						{
							"internalType": "bytes",
							"name": "liquidityProviderBtcAddress",
							"type": "bytes"
						},
						{
							"internalType": "uint256",
							"name": "callFee",
							"type": "uint256"
						},
						{
							"internalType": "uint256",
							"name": "penaltyFee",
							"type": "uint256"
						},
						{
							"internalType": "address",
							"name": "contractAddress",
							"type": "address"
						},
						{
							"internalType": "bytes",
							"name": "data",
							"type": "bytes"
						},
						{
							"internalType": "uint32",
							"name": "gasLimit",
							"type": "uint32"
						},
						{
							"internalType": "int64",
							"name": "nonce",
							"type": "int64"
						},
						{
							"internalType": "uint256",
							"name": "value",
							"type": "uint256"
						},
						{
							"internalType": "uint32",
							"name": "agreementTimestamp",
							"type": "uint32"
						},
						{
							"internalType": "uint32",
							"name": "timeForDeposit",
							"type": "uint32"
						},
						{
							"internalType": "uint32",
							"name": "callTime",
							"type": "uint32"
						},
						{
							"internalType": "uint16",
							"name": "depositConfirmations",
							"type": "uint16"
						},
						{
							"internalType": "bool",
							"name": "callOnRegister",
							"type": "bool"
						}
					],
					"internalType": "struct LiquidityBridgeContract.Quote",
					"name": "quote",
					"type": "tuple"
				}
			],
			"name": "hashQuote",
			"outputs": [
				{
					"internalType": "bytes32",
					"name": "",
					"type": "bytes32"
				}
			],
			"stateMutability": "view",
			"type": "function"
		},
		{
			"inputs": [
				{
					"internalType": "address payable",
					"name": "_bridgeAddress",
					"type": "address"
				},
				{
					"internalType": "uint256",
					"name": "_minimumCollateral",
					"type": "uint256"
				},
				{
					"internalType": "uint256",
					"name": "_minimumPegIn",
					"type": "uint256"
				},
				{
					"internalType": "uint32",
					"name": "_rewardPercentage",
					"type": "uint32"
				},
				{
					"internalType": "uint32",
					"name": "_resignDelayBlocks",
					"type": "uint32"
				},
				{
					"internalType": "uint256",
					"name": "_dustThreshold",
					"type": "uint256"
				}
			],
			"name": "initialize",
			"outputs": [],
			"stateMutability": "nonpayable",
			"type": "function"
		},
		{
			"inputs": [
				{
					"internalType": "address",
					"name": "addr",
					"type": "address"
				}
			],
			"name": "isOperational",
			"outputs": [
				{
					"internalType": "bool",
					"name": "",
					"type": "bool"
				}
			],
			"stateMutability": "view",
			"type": "function"
		},
		{
			"inputs": [],
			"name": "owner",
			"outputs": [
				{
					"internalType": "address",
					"name": "",
					"type": "address"
				}
			],
			"stateMutability": "view",
			"type": "function"
		},
		{
			"inputs": [
				{
					"components": [
						{
							"internalType": "address",
							"name": "lbcAddress",
							"type": "address"
						},
						{
							"internalType": "address",
							"name": "lpRskAddress",
							"type": "address"
						},
						{
							"internalType": "bytes",
							"name": "btcRefundAddress",
							"type": "bytes"
						},
						{
							"internalType": "address",
							"name": "rskRefundAddress",
							"type": "address"
						},
						{
							"internalType": "bytes",
							"name": "lpBtcAddress",
							"type": "bytes"
						},
						{
							"internalType": "uint256",
							"name": "callFee",
							"type": "uint256"
						},
						{
							"internalType": "uint256",
							"name": "penaltyFee",
							"type": "uint256"
						},
						{
							"internalType": "int64",
							"name": "nonce",
							"type": "int64"
						},
						{
							"internalType": "bytes",
							"name": "deposityAddress",
							"type": "bytes"
						},
						{
							"internalType": "uint32",
							"name": "gasLimit",
							"type": "uint32"
						},
						{
							"internalType": "uint256",
							"name": "value",
							"type": "uint256"
						},
						{
							"internalType": "uint32",
							"name": "agreementTimestamp",
							"type": "uint32"
						},
						{
							"internalType": "uint32",
							"name": "depositDateLimit",
							"type": "uint32"
						},
						{
							"internalType": "uint16",
							"name": "depositConfirmations",
							"type": "uint16"
						},
						{
							"internalType": "uint16",
							"name": "transferConfirmations",
							"type": "uint16"
						},
						{
							"internalType": "uint32",
							"name": "transferTime",
							"type": "uint32"
						},
						{
							"internalType": "uint32",
							"name": "expireDate",
							"type": "uint32"
						},
						{
							"internalType": "uint32",
							"name": "expireBlock",
							"type": "uint32"
						}
					],
					"internalType": "struct LiquidityBridgeContract.PegOutQuote",
					"name": "quote",
					"type": "tuple"
				},
				{
					"internalType": "bytes32",
					"name": "btcTxHash",
					"type": "bytes32"
				},
				{
					"internalType": "bytes32",
					"name": "btcBlockHeaderHash",
					"type": "bytes32"
				},
				{
					"internalType": "uint256",
					"name": "partialMerkleTree",
					"type": "uint256"
				},
				{
					"internalType": "bytes32[]",
					"name": "merkleBranchHashes",
					"type": "bytes32[]"
				}
			],
			"name": "refundPegOut",
			"outputs": [],
			"stateMutability": "nonpayable",
			"type": "function"
		},
		{
			"inputs": [
				{
					"internalType": "string",
					"name": "_name",
					"type": "string"
				},
				{
					"internalType": "uint256",
					"name": "_fee",
					"type": "uint256"
				},
				{
					"internalType": "uint256",
					"name": "_quoteExpiration",
					"type": "uint256"
				},
				{
					"internalType": "uint256",
					"name": "_acceptedQuoteExpiration",
					"type": "uint256"
				},
				{
					"internalType": "uint256",
					"name": "_minTransactionValue",
					"type": "uint256"
				},
				{
					"internalType": "uint256",
					"name": "_maxTransactionValue",
					"type": "uint256"
				},
				{
					"internalType": "string",
					"name": "_apiBaseUrl",
					"type": "string"
				},
				{
					"internalType": "bool",
					"name": "_status",
					"type": "bool"
				}
			],
			"name": "register",
			"outputs": [
				{
					"internalType": "uint256",
					"name": "",
					"type": "uint256"
				}
			],
			"stateMutability": "payable",
			"type": "function"
		},
		{
			"inputs": [
				{
					"components": [
						{
							"internalType": "bytes20",
							"name": "fedBtcAddress",
							"type": "bytes20"
						},
						{
							"internalType": "address",
							"name": "lbcAddress",
							"type": "address"
						},
						{
							"internalType": "address",
							"name": "liquidityProviderRskAddress",
							"type": "address"
						},
						{
							"internalType": "bytes",
							"name": "btcRefundAddress",
							"type": "bytes"
						},
						{
							"internalType": "address payable",
							"name": "rskRefundAddress",
							"type": "address"
						},
						{
							"internalType": "bytes",
							"name": "liquidityProviderBtcAddress",
							"type": "bytes"
						},
						{
							"internalType": "uint256",
							"name": "callFee",
							"type": "uint256"
						},
						{
							"internalType": "uint256",
							"name": "penaltyFee",
							"type": "uint256"
						},
						{
							"internalType": "address",
							"name": "contractAddress",
							"type": "address"
						},
						{
							"internalType": "bytes",
							"name": "data",
							"type": "bytes"
						},
						{
							"internalType": "uint32",
							"name": "gasLimit",
							"type": "uint32"
						},
						{
							"internalType": "int64",
							"name": "nonce",
							"type": "int64"
						},
						{
							"internalType": "uint256",
							"name": "value",
							"type": "uint256"
						},
						{
							"internalType": "uint32",
							"name": "agreementTimestamp",
							"type": "uint32"
						},
						{
							"internalType": "uint32",
							"name": "timeForDeposit",
							"type": "uint32"
						},
						{
							"internalType": "uint32",
							"name": "callTime",
							"type": "uint32"
						},
						{
							"internalType": "uint16",
							"name": "depositConfirmations",
							"type": "uint16"
						},
						{
							"internalType": "bool",
							"name": "callOnRegister",
							"type": "bool"
						}
					],
					"internalType": "struct LiquidityBridgeContract.Quote",
					"name": "quote",
					"type": "tuple"
				},
				{
					"internalType": "bytes",
					"name": "signature",
					"type": "bytes"
				},
				{
					"internalType": "bytes",
					"name": "btcRawTransaction",
					"type": "bytes"
				},
				{
					"internalType": "bytes",
					"name": "partialMerkleTree",
					"type": "bytes"
				},
				{
					"internalType": "uint256",
					"name": "height",
					"type": "uint256"
				}
			],
			"name": "registerPegIn",
			"outputs": [
				{
					"internalType": "int256",
					"name": "",
					"type": "int256"
				}
			],
			"stateMutability": "nonpayable",
			"type": "function"
		},
		{
			"inputs": [
				{
					"components": [
						{
							"internalType": "address",
							"name": "lbcAddress",
							"type": "address"
						},
						{
							"internalType": "address",
							"name": "lpRskAddress",
							"type": "address"
						},
						{
							"internalType": "bytes",
							"name": "btcRefundAddress",
							"type": "bytes"
						},
						{
							"internalType": "address",
							"name": "rskRefundAddress",
							"type": "address"
						},
						{
							"internalType": "bytes",
							"name": "lpBtcAddress",
							"type": "bytes"
						},
						{
							"internalType": "uint256",
							"name": "callFee",
							"type": "uint256"
						},
						{
							"internalType": "uint256",
							"name": "penaltyFee",
							"type": "uint256"
						},
						{
							"internalType": "int64",
							"name": "nonce",
							"type": "int64"
						},
						{
							"internalType": "bytes",
							"name": "deposityAddress",
							"type": "bytes"
						},
						{
							"internalType": "uint32",
							"name": "gasLimit",
							"type": "uint32"
						},
						{
							"internalType": "uint256",
							"name": "value",
							"type": "uint256"
						},
						{
							"internalType": "uint32",
							"name": "agreementTimestamp",
							"type": "uint32"
						},
						{
							"internalType": "uint32",
							"name": "depositDateLimit",
							"type": "uint32"
						},
						{
							"internalType": "uint16",
							"name": "depositConfirmations",
							"type": "uint16"
						},
						{
							"internalType": "uint16",
							"name": "transferConfirmations",
							"type": "uint16"
						},
						{
							"internalType": "uint32",
							"name": "transferTime",
							"type": "uint32"
						},
						{
							"internalType": "uint32",
							"name": "expireDate",
							"type": "uint32"
						},
						{
							"internalType": "uint32",
							"name": "expireBlock",
							"type": "uint32"
						}
					],
					"internalType": "struct LiquidityBridgeContract.PegOutQuote",
					"name": "quote",
					"type": "tuple"
				},
				{
					"internalType": "bytes",
					"name": "signature",
					"type": "bytes"
				}
			],
			"name": "registerPegOut",
			"outputs": [],
			"stateMutability": "payable",
			"type": "function"
		},
		{
			"inputs": [],
			"name": "renounceOwnership",
			"outputs": [],
			"stateMutability": "nonpayable",
			"type": "function"
		},
		{
			"inputs": [],
			"name": "resign",
			"outputs": [],
			"stateMutability": "nonpayable",
			"type": "function"
		},
		{
			"inputs": [
				{
					"internalType": "uint256",
					"name": "providerId",
					"type": "uint256"
				},
				{
					"internalType": "bool",
					"name": "status",
					"type": "bool"
				}
			],
			"name": "setProviderStatus",
			"outputs": [],
			"stateMutability": "nonpayable",
			"type": "function"
		},
		{
			"inputs": [
				{
					"internalType": "address",
					"name": "newOwner",
					"type": "address"
				}
			],
			"name": "transferOwnership",
			"outputs": [],
			"stateMutability": "nonpayable",
			"type": "function"
		},
		{
			"inputs": [
				{
					"internalType": "uint256",
					"name": "amount",
					"type": "uint256"
				}
			],
			"name": "withdraw",
			"outputs": [],
			"stateMutability": "nonpayable",
			"type": "function"
		},
		{
			"inputs": [],
			"name": "withdrawCollateral",
			"outputs": [],
			"stateMutability": "nonpayable",
			"type": "function"
		},
		{
			"stateMutability": "payable",
			"type": "receive"
		}
	]
}