{
  "contractName": "BridgeMock",
  "abi": [
    {
      "stateMutability": "payable",
      "type": "receive"
    },
    {
      "inputs": [
        {
          "internalType": "bytes",
          "name": "",
          "type": "bytes"
        },
        {
          "internalType": "uint256",
          "name": "",
          "type": "uint256"
        },
        {
          "internalType": "bytes",
          "name": "",
          "type": "bytes"
        },
        {
          "internalType": "bytes32",
          "name": "derivationArgumentsHash",
          "type": "bytes32"
        },
        {
          "internalType": "bytes",
          "name": "",
          "type": "bytes"
        },
        {
          "internalType": "address payable",
          "name": "liquidityBridgeContractAddress",
          "type": "address"
        },
        {
          "internalType": "bytes",
          "name": "",
          "type": "bytes"
        },
        {
          "internalType": "bool",
          "name": "",
          "type": "bool"
        }
      ],
      "name": "registerFastBridgeBtcTransaction",
      "outputs": [
        {
          "internalType": "int256",
          "name": "",
          "type": "int256"
        }
      ],
      "stateMutability": "nonpayable",
      "type": "function"
    },
    {
      "inputs": [
        {
          "internalType": "uint256",
          "name": "height",
          "type": "uint256"
        }
      ],
      "name": "getBtcBlockchainBlockHeaderByHeight",
      "outputs": [
        {
          "internalType": "bytes",
          "name": "",
          "type": "bytes"
        }
      ],
      "stateMutability": "view",
      "type": "function"
    },
    {
      "inputs": [
        {
          "internalType": "bytes32",
          "name": "derivationArgumentsHash",
          "type": "bytes32"
        }
      ],
      "name": "setPegin",
      "outputs": [],
      "stateMutability": "payable",
      "type": "function"
    },
    {
      "inputs": [
        {
          "internalType": "uint256",
          "name": "height",
          "type": "uint256"
        },
        {
          "internalType": "bytes",
          "name": "header",
          "type": "bytes"
        }
      ],
      "name": "setHeader",
      "outputs": [],
      "stateMutability": "nonpayable",
      "type": "function"
    },
    {
      "inputs": [
        {
          "internalType": "bytes32",
          "name": "blockHash",
          "type": "bytes32"
        },
        {
          "internalType": "bytes",
          "name": "header",
          "type": "bytes"
        }
      ],
      "name": "setHeaderByHash",
      "outputs": [],
      "stateMutability": "nonpayable",
      "type": "function"
    },
    {
      "inputs": [],
      "name": "getActivePowpegRedeemScript",
      "outputs": [
        {
          "internalType": "bytes",
          "name": "",
          "type": "bytes"
        }
      ],
      "stateMutability": "pure",
      "type": "function"
    },
    {
      "inputs": [],
      "name": "getBtcBlockchainBestChainHeight",
      "outputs": [
        {
          "internalType": "int256",
          "name": "",
          "type": "int256"
        }
      ],
      "stateMutability": "pure",
      "type": "function"
    },
    {
      "inputs": [],
      "name": "getStateForBtcReleaseClient",
      "outputs": [
        {
          "internalType": "bytes",
          "name": "",
          "type": "bytes"
        }
      ],
      "stateMutability": "pure",
      "type": "function"
    },
    {
      "inputs": [],
      "name": "getStateForDebugging",
      "outputs": [
        {
          "internalType": "bytes",
          "name": "",
          "type": "bytes"
        }
      ],
      "stateMutability": "pure",
      "type": "function"
    },
    {
      "inputs": [],
      "name": "getBtcBlockchainInitialBlockHeight",
      "outputs": [
        {
          "internalType": "int256",
          "name": "",
          "type": "int256"
        }
      ],
      "stateMutability": "pure",
      "type": "function"
    },
    {
      "inputs": [
        {
          "internalType": "int256",
          "name": "",
          "type": "int256"
        }
      ],
      "name": "getBtcBlockchainBlockHashAtDepth",
      "outputs": [
        {
          "internalType": "bytes",
          "name": "",
          "type": "bytes"
        }
      ],
      "stateMutability": "pure",
      "type": "function"
    },
    {
      "inputs": [
        {
          "internalType": "string",
          "name": "",
          "type": "string"
        }
      ],
      "name": "getBtcTxHashProcessedHeight",
      "outputs": [
        {
          "internalType": "int64",
          "name": "",
          "type": "int64"
        }
      ],
      "stateMutability": "pure",
      "type": "function"
    },
    {
      "inputs": [
        {
          "internalType": "string",
          "name": "",
          "type": "string"
        }
      ],
      "name": "isBtcTxHashAlreadyProcessed",
      "outputs": [
        {
          "internalType": "bool",
          "name": "",
          "type": "bool"
        }
      ],
      "stateMutability": "pure",
      "type": "function"
    },
    {
      "inputs": [],
      "name": "getFederationAddress",
      "outputs": [
        {
          "internalType": "string",
          "name": "",
          "type": "string"
        }
      ],
      "stateMutability": "pure",
      "type": "function"
    },
    {
      "inputs": [
        {
          "internalType": "bytes",
          "name": "atx",
          "type": "bytes"
        },
        {
          "internalType": "int256",
          "name": "height",
          "type": "int256"
        },
        {
          "internalType": "bytes",
          "name": "pmt",
          "type": "bytes"
        }
      ],
      "name": "registerBtcTransaction",
      "outputs": [],
      "stateMutability": "nonpayable",
      "type": "function"
    },
    {
      "inputs": [
        {
          "internalType": "bytes",
          "name": "pubkey",
          "type": "bytes"
        },
        {
          "internalType": "bytes[]",
          "name": "signatures",
          "type": "bytes[]"
        },
        {
          "internalType": "bytes",
          "name": "txhash",
          "type": "bytes"
        }
      ],
      "name": "addSignature",
      "outputs": [],
      "stateMutability": "nonpayable",
      "type": "function"
    },
    {
      "inputs": [
        {
          "internalType": "bytes[]",
          "name": "blocks",
          "type": "bytes[]"
        }
      ],
      "name": "receiveHeaders",
      "outputs": [],
      "stateMutability": "nonpayable",
      "type": "function"
    },
    {
      "inputs": [
        {
          "internalType": "bytes",
          "name": "",
          "type": "bytes"
        }
      ],
      "name": "receiveHeader",
      "outputs": [
        {
          "internalType": "int256",
          "name": "",
          "type": "int256"
        }
      ],
      "stateMutability": "pure",
      "type": "function"
    },
    {
      "inputs": [],
      "name": "getFederationSize",
      "outputs": [
        {
          "internalType": "int256",
          "name": "",
          "type": "int256"
        }
      ],
      "stateMutability": "pure",
      "type": "function"
    },
    {
      "inputs": [],
      "name": "getFederationThreshold",
      "outputs": [
        {
          "internalType": "int256",
          "name": "",
          "type": "int256"
        }
      ],
      "stateMutability": "pure",
      "type": "function"
    },
    {
      "inputs": [
        {
          "internalType": "int256",
          "name": "",
          "type": "int256"
        }
      ],
      "name": "getFederatorPublicKey",
      "outputs": [
        {
          "internalType": "bytes",
          "name": "",
          "type": "bytes"
        }
      ],
      "stateMutability": "pure",
      "type": "function"
    },
    {
      "inputs": [
        {
          "internalType": "int256",
          "name": "",
          "type": "int256"
        },
        {
          "internalType": "string",
          "name": "",
          "type": "string"
        }
      ],
      "name": "getFederatorPublicKeyOfType",
      "outputs": [
        {
          "internalType": "bytes",
          "name": "",
          "type": "bytes"
        }
      ],
      "stateMutability": "pure",
      "type": "function"
    },
    {
      "inputs": [],
      "name": "getFederationCreationTime",
      "outputs": [
        {
          "internalType": "int256",
          "name": "",
          "type": "int256"
        }
      ],
      "stateMutability": "pure",
      "type": "function"
    },
    {
      "inputs": [],
      "name": "getFederationCreationBlockNumber",
      "outputs": [
        {
          "internalType": "int256",
          "name": "",
          "type": "int256"
        }
      ],
      "stateMutability": "pure",
      "type": "function"
    },
    {
      "inputs": [],
      "name": "getRetiringFederationAddress",
      "outputs": [
        {
          "internalType": "string",
          "name": "",
          "type": "string"
        }
      ],
      "stateMutability": "pure",
      "type": "function"
    },
    {
      "inputs": [],
      "name": "getRetiringFederationSize",
      "outputs": [
        {
          "internalType": "int256",
          "name": "",
          "type": "int256"
        }
      ],
      "stateMutability": "pure",
      "type": "function"
    },
    {
      "inputs": [],
      "name": "getRetiringFederationThreshold",
      "outputs": [
        {
          "internalType": "int256",
          "name": "",
          "type": "int256"
        }
      ],
      "stateMutability": "pure",
      "type": "function"
    },
    {
      "inputs": [
        {
          "internalType": "int256",
          "name": "",
          "type": "int256"
        }
      ],
      "name": "getRetiringFederatorPublicKey",
      "outputs": [
        {
          "internalType": "bytes",
          "name": "",
          "type": "bytes"
        }
      ],
      "stateMutability": "pure",
      "type": "function"
    },
    {
      "inputs": [
        {
          "internalType": "int256",
          "name": "",
          "type": "int256"
        },
        {
          "internalType": "string",
          "name": "",
          "type": "string"
        }
      ],
      "name": "getRetiringFederatorPublicKeyOfType",
      "outputs": [
        {
          "internalType": "bytes",
          "name": "",
          "type": "bytes"
        }
      ],
      "stateMutability": "pure",
      "type": "function"
    },
    {
      "inputs": [],
      "name": "getRetiringFederationCreationTime",
      "outputs": [
        {
          "internalType": "int256",
          "name": "",
          "type": "int256"
        }
      ],
      "stateMutability": "pure",
      "type": "function"
    },
    {
      "inputs": [],
      "name": "getRetiringFederationCreationBlockNumber",
      "outputs": [
        {
          "internalType": "int256",
          "name": "",
          "type": "int256"
        }
      ],
      "stateMutability": "pure",
      "type": "function"
    },
    {
      "inputs": [],
      "name": "createFederation",
      "outputs": [
        {
          "internalType": "int256",
          "name": "",
          "type": "int256"
        }
      ],
      "stateMutability": "pure",
      "type": "function"
    },
    {
      "inputs": [
        {
          "internalType": "bytes",
          "name": "",
          "type": "bytes"
        }
      ],
      "name": "addFederatorPublicKey",
      "outputs": [
        {
          "internalType": "int256",
          "name": "",
          "type": "int256"
        }
      ],
      "stateMutability": "pure",
      "type": "function"
    },
    {
      "inputs": [
        {
          "internalType": "bytes",
          "name": "",
          "type": "bytes"
        },
        {
          "internalType": "bytes",
          "name": "",
          "type": "bytes"
        },
        {
          "internalType": "bytes",
          "name": "",
          "type": "bytes"
        }
      ],
      "name": "addFederatorPublicKeyMultikey",
      "outputs": [
        {
          "internalType": "int256",
          "name": "",
          "type": "int256"
        }
      ],
      "stateMutability": "pure",
      "type": "function"
    },
    {
      "inputs": [
        {
          "internalType": "bytes",
          "name": "",
          "type": "bytes"
        }
      ],
      "name": "commitFederation",
      "outputs": [
        {
          "internalType": "int256",
          "name": "",
          "type": "int256"
        }
      ],
      "stateMutability": "pure",
      "type": "function"
    },
    {
      "inputs": [],
      "name": "rollbackFederation",
      "outputs": [
        {
          "internalType": "int256",
          "name": "",
          "type": "int256"
        }
      ],
      "stateMutability": "pure",
      "type": "function"
    },
    {
      "inputs": [],
      "name": "getPendingFederationHash",
      "outputs": [
        {
          "internalType": "bytes",
          "name": "",
          "type": "bytes"
        }
      ],
      "stateMutability": "pure",
      "type": "function"
    },
    {
      "inputs": [],
      "name": "getPendingFederationSize",
      "outputs": [
        {
          "internalType": "int256",
          "name": "",
          "type": "int256"
        }
      ],
      "stateMutability": "pure",
      "type": "function"
    },
    {
      "inputs": [
        {
          "internalType": "int256",
          "name": "",
          "type": "int256"
        }
      ],
      "name": "getPendingFederatorPublicKey",
      "outputs": [
        {
          "internalType": "bytes",
          "name": "",
          "type": "bytes"
        }
      ],
      "stateMutability": "pure",
      "type": "function"
    },
    {
      "inputs": [
        {
          "internalType": "int256",
          "name": "",
          "type": "int256"
        },
        {
          "internalType": "string",
          "name": "",
          "type": "string"
        }
      ],
      "name": "getPendingFederatorPublicKeyOfType",
      "outputs": [
        {
          "internalType": "bytes",
          "name": "",
          "type": "bytes"
        }
      ],
      "stateMutability": "pure",
      "type": "function"
    },
    {
      "inputs": [],
      "name": "getLockWhitelistSize",
      "outputs": [
        {
          "internalType": "int256",
          "name": "",
          "type": "int256"
        }
      ],
      "stateMutability": "pure",
      "type": "function"
    },
    {
      "inputs": [
        {
          "internalType": "int256",
          "name": "",
          "type": "int256"
        }
      ],
      "name": "getLockWhitelistAddress",
      "outputs": [
        {
          "internalType": "string",
          "name": "",
          "type": "string"
        }
      ],
      "stateMutability": "pure",
      "type": "function"
    },
    {
      "inputs": [
        {
          "internalType": "string",
          "name": "",
          "type": "string"
        }
      ],
      "name": "getLockWhitelistEntryByAddress",
      "outputs": [
        {
          "internalType": "int256",
          "name": "",
          "type": "int256"
        }
      ],
      "stateMutability": "pure",
      "type": "function"
    },
    {
      "inputs": [
        {
          "internalType": "string",
          "name": "",
          "type": "string"
        },
        {
          "internalType": "int256",
          "name": "",
          "type": "int256"
        }
      ],
      "name": "addLockWhitelistAddress",
      "outputs": [
        {
          "internalType": "int256",
          "name": "",
          "type": "int256"
        }
      ],
      "stateMutability": "pure",
      "type": "function"
    },
    {
      "inputs": [
        {
          "internalType": "string",
          "name": "",
          "type": "string"
        },
        {
          "internalType": "int256",
          "name": "",
          "type": "int256"
        }
      ],
      "name": "addOneOffLockWhitelistAddress",
      "outputs": [
        {
          "internalType": "int256",
          "name": "",
          "type": "int256"
        }
      ],
      "stateMutability": "pure",
      "type": "function"
    },
    {
      "inputs": [
        {
          "internalType": "string",
          "name": "",
          "type": "string"
        }
      ],
      "name": "addUnlimitedLockWhitelistAddress",
      "outputs": [
        {
          "internalType": "int256",
          "name": "",
          "type": "int256"
        }
      ],
      "stateMutability": "pure",
      "type": "function"
    },
    {
      "inputs": [
        {
          "internalType": "string",
          "name": "",
          "type": "string"
        }
      ],
      "name": "removeLockWhitelistAddress",
      "outputs": [
        {
          "internalType": "int256",
          "name": "",
          "type": "int256"
        }
      ],
      "stateMutability": "pure",
      "type": "function"
    },
    {
      "inputs": [
        {
          "internalType": "int256",
          "name": "",
          "type": "int256"
        }
      ],
      "name": "setLockWhitelistDisableBlockDelay",
      "outputs": [
        {
          "internalType": "int256",
          "name": "",
          "type": "int256"
        }
      ],
      "stateMutability": "pure",
      "type": "function"
    },
    {
      "inputs": [],
      "name": "getFeePerKb",
      "outputs": [
        {
          "internalType": "int256",
          "name": "",
          "type": "int256"
        }
      ],
      "stateMutability": "pure",
      "type": "function"
    },
    {
      "inputs": [
        {
          "internalType": "int256",
          "name": "",
          "type": "int256"
        }
      ],
      "name": "voteFeePerKbChange",
      "outputs": [
        {
          "internalType": "int256",
          "name": "",
          "type": "int256"
        }
      ],
      "stateMutability": "pure",
      "type": "function"
    },
    {
      "inputs": [],
      "name": "updateCollections",
      "outputs": [],
      "stateMutability": "nonpayable",
      "type": "function"
    },
    {
      "inputs": [],
      "name": "getMinimumLockTxValue",
      "outputs": [
        {
          "internalType": "int256",
          "name": "",
          "type": "int256"
        }
      ],
      "stateMutability": "pure",
      "type": "function"
    },
    {
      "inputs": [
        {
          "internalType": "bytes32",
          "name": "",
          "type": "bytes32"
        },
        {
          "internalType": "bytes32",
          "name": "",
          "type": "bytes32"
        },
        {
          "internalType": "uint256",
          "name": "",
          "type": "uint256"
        },
        {
          "internalType": "bytes32[]",
          "name": "",
          "type": "bytes32[]"
        }
      ],
      "name": "getBtcTransactionConfirmations",
      "outputs": [
        {
          "internalType": "int256",
          "name": "",
          "type": "int256"
        }
      ],
      "stateMutability": "pure",
      "type": "function"
    },
    {
      "inputs": [],
      "name": "getLockingCap",
      "outputs": [
        {
          "internalType": "int256",
          "name": "",
          "type": "int256"
        }
      ],
      "stateMutability": "pure",
      "type": "function"
    },
    {
      "inputs": [
        {
          "internalType": "int256",
          "name": "",
          "type": "int256"
        }
      ],
      "name": "increaseLockingCap",
      "outputs": [
        {
          "internalType": "bool",
          "name": "",
          "type": "bool"
        }
      ],
      "stateMutability": "pure",
      "type": "function"
    },
    {
      "inputs": [
        {
          "internalType": "bytes",
          "name": "btcTxSerialized",
          "type": "bytes"
        },
        {
          "internalType": "bytes32",
          "name": "blockHash",
          "type": "bytes32"
        },
        {
          "internalType": "bytes",
          "name": "pmtSerialized",
          "type": "bytes"
        },
        {
          "internalType": "bytes32",
          "name": "witnessMerkleRoot",
          "type": "bytes32"
        },
        {
          "internalType": "bytes32",
          "name": "witnessReservedValue",
          "type": "bytes32"
        }
      ],
      "name": "registerBtcCoinbaseTransaction",
      "outputs": [],
      "stateMutability": "nonpayable",
      "type": "function"
    },
    {
      "inputs": [
        {
          "internalType": "bytes32",
          "name": "",
          "type": "bytes32"
        }
      ],
      "name": "hasBtcBlockCoinbaseTransactionInformation",
      "outputs": [
        {
          "internalType": "bool",
          "name": "",
          "type": "bool"
        }
      ],
      "stateMutability": "pure",
      "type": "function"
    },
    {
      "inputs": [],
      "name": "getActiveFederationCreationBlockHeight",
      "outputs": [
        {
          "internalType": "uint256",
          "name": "",
          "type": "uint256"
        }
      ],
      "stateMutability": "pure",
      "type": "function"
    },
    {
      "inputs": [],
      "name": "getBtcBlockchainBestBlockHeader",
      "outputs": [
        {
          "internalType": "bytes",
          "name": "",
          "type": "bytes"
        }
      ],
      "stateMutability": "pure",
      "type": "function"
    },
    {
      "inputs": [
        {
          "internalType": "bytes32",
          "name": "blockHash",
          "type": "bytes32"
        }
      ],
      "name": "getBtcBlockchainBlockHeaderByHash",
      "outputs": [
        {
          "internalType": "bytes",
          "name": "",
          "type": "bytes"
        }
      ],
      "stateMutability": "view",
      "type": "function"
    },
    {
      "inputs": [
        {
          "internalType": "bytes32",
          "name": "",
          "type": "bytes32"
        }
      ],
      "name": "getBtcBlockchainParentBlockHeaderByHash",
      "outputs": [
        {
          "internalType": "bytes",
          "name": "",
          "type": "bytes"
        }
      ],
      "stateMutability": "pure",
      "type": "function"
    }
  ],
  "bytecode": "0x608060405234801561001057600080fd5b5061114e806100206000396000f3fe6080604052600436106102b65760003560e01c80630461313e146102c257806307bbdfc4146102f65780630c5a99901461030a5780630d0cee931461031a5780630fd47456146102f657806310d86efd146103375780631183d5d1146102f657806314c89c01146102f65780631533330f14610358578063177d6e18146102f65780631b2045ee146102f65780631d73d5dd1461037b578063248a982d14610390578063251c5f7b14610358578063253b944b146103bb5780632910aeb2146103bb5780632f8d158f146103d65780633ac72b38146102f65780633f0ce9b1146102f65780633f9db977146102f657806343dc0656146103ea578063444ff9da1461040c5780634675d6de1461043357806347227286146104545780634897193f146102f6578063492f7c4414610433578063502bbbce14610475578063549cfd1c14610499578063572de37b146104bd5780635b644587146104dd5780635e2db9d4146102f657806368bc2b2b146104995780636923fa85146105035780636adc0133146105185780636b89a1af146104335780636ce0ed5a1461031a578063724ec886146102f6578063739e364a14610538578063802ad4b6146102f6578063848206d914610475578063884bdd86146103585780638dec3d32146102f657806393988b761461055857806397fcca7d14610586578063b906c93814610358578063bd0c1fff146105b4578063c1cc54f5146102c2578063c4fbca201461031a578063c61295d914610499578063ccf417ae146105d4578063d5949890146105f8578063d905153f146102f6578063d970b0fd146102f6578063e023672414610433578063e5400e7b14610618578063e9e658dc146102f6578063ecefd33914610358578063efd4441814610433578063f0b2424b1461031a578063f10b9c5914610637578063fcdeb46f1461035857600080fd5b366102bd57005b600080fd5b3480156102ce57600080fd5b506102e36102dd3660046108c6565b50600090565b6040519081526020015b60405180910390f35b34801561030257600080fd5b5060006102e3565b34801561031657600080fd5b505b005b34801561032657600080fd5b5060605b6040516102ed919061092f565b6103186103453660046108c6565b6000908152602081905260409020349055565b34801561036457600080fd5b506102e3610373366004610991565b600092915050565b34801561038757600080fd5b5061032a61065a565b34801561039c57600080fd5b506103ab610373366004610991565b60405190151581526020016102ed565b3480156103c757600080fd5b506103ab6102dd3660046108c6565b3480156103e257600080fd5b5060026102e3565b3480156103f657600080fd5b506103186104053660046109d2565b5050505050565b34801561041857600080fd5b506102e3610427366004610a4b565b60009695505050505050565b34801561043f57600080fd5b5061032a61044e3660046108c6565b50606090565b34801561046057600080fd5b5060408051602081019091526000815261032a565b34801561048157600080fd5b506102e3610490366004610ae4565b60009392505050565b3480156104a557600080fd5b5061032a6104b4366004610b2f565b60609392505050565b3480156104c957600080fd5b506103186104d8366004610c1c565b6106f5565b3480156104e957600080fd5b506102e36104f8366004610ca6565b600295945050505050565b34801561050f57600080fd5b5061032a610712565b34801561052457600080fd5b506102e3610533366004610d21565b610732565b34801561054457600080fd5b5061032a6105533660046108c6565b6107ef565b34801561056457600080fd5b5061032a6105733660046108c6565b5060408051602081019091526000815290565b34801561059257600080fd5b506105a1610373366004610991565b60405160079190910b81526020016102ed565b3480156105c057600080fd5b5061032a6105cf3660046108c6565b610891565b3480156105e057600080fd5b506103186105ef366004610e02565b50505050505050565b34801561060457600080fd5b50610318610613366004610c1c565b6108ae565b34801561062457600080fd5b50610318610633366004610e8a565b5050565b34801561064357600080fd5b50610318610652366004610ebf565b505050505050565b606060006040518060600160405280602981526020016110a360299139905060006040518060600160405280602a81526020016110cc602a913990506000604051806040016040528060168152602001751e4f6a9a7043c32b8bad8995c653187922ef826da9d760511b81525090508282826040516020016106de93929190610f20565b604051602081830303815290604052935050505090565b600082815260016020526040902061070d8282610fe3565b505050565b60606040518060600160405280602381526020016110f660239139905090565b600085815260208190526040808220805490839055905182906001600160a01b0387169083908381818185875af1925050503d8060008114610790576040519150601f19603f3d011682016040523d82523d6000602084013e610795565b606091505b50509050806107e15760405162461bcd60e51b815260206004820152601460248201527314d95b991a5b99c8199d5b991cc819985a5b195960621b604482015260640160405180910390fd5b509998505050505050505050565b600081815260026020526040902080546060919061080c90610f63565b80601f016020809104026020016040519081016040528092919081815260200182805461083890610f63565b80156108855780601f1061085a57610100808354040283529160200191610885565b820191906000526020600020905b81548152906001019060200180831161086857829003601f168201915b50505050509050919050565b600081815260016020526040902080546060919061080c90610f63565b600082815260026020526040902061070d8282610fe3565b6000602082840312156108d857600080fd5b5035919050565b60005b838110156108fa5781810151838201526020016108e2565b50506000910152565b6000815180845261091b8160208601602086016108df565b601f01601f19169290920160200192915050565b6020815260006109426020830184610903565b9392505050565b60008083601f84011261095b57600080fd5b5081356001600160401b0381111561097257600080fd5b60208301915083602082850101111561098a57600080fd5b9250929050565b600080602083850312156109a457600080fd5b82356001600160401b038111156109ba57600080fd5b6109c685828601610949565b90969095509350505050565b6000806000806000606086880312156109ea57600080fd5b85356001600160401b0380821115610a0157600080fd5b610a0d89838a01610949565b9097509550602088013594506040880135915080821115610a2d57600080fd5b50610a3a88828901610949565b969995985093965092949392505050565b60008060008060008060608789031215610a6457600080fd5b86356001600160401b0380821115610a7b57600080fd5b610a878a838b01610949565b90985096506020890135915080821115610aa057600080fd5b610aac8a838b01610949565b90965094506040890135915080821115610ac557600080fd5b50610ad289828a01610949565b979a9699509497509295939492505050565b600080600060408486031215610af957600080fd5b83356001600160401b03811115610b0f57600080fd5b610b1b86828701610949565b909790965060209590950135949350505050565b600080600060408486031215610b4457600080fd5b8335925060208401356001600160401b03811115610b6157600080fd5b610b6d86828701610949565b9497909650939450505050565b634e487b7160e01b600052604160045260246000fd5b600082601f830112610ba157600080fd5b81356001600160401b0380821115610bbb57610bbb610b7a565b604051601f8301601f19908116603f01168101908282118183101715610be357610be3610b7a565b81604052838152866020858801011115610bfc57600080fd5b836020870160208301376000602085830101528094505050505092915050565b60008060408385031215610c2f57600080fd5b8235915060208301356001600160401b03811115610c4c57600080fd5b610c5885828601610b90565b9150509250929050565b60008083601f840112610c7457600080fd5b5081356001600160401b03811115610c8b57600080fd5b6020830191508360208260051b850101111561098a57600080fd5b600080600080600060808688031215610cbe57600080fd5b85359450602086013593506040860135925060608601356001600160401b03811115610ce957600080fd5b610a3a88828901610c62565b80356001600160a01b0381168114610d0c57600080fd5b919050565b80358015158114610d0c57600080fd5b600080600080600080600080610100898b031215610d3e57600080fd5b88356001600160401b0380821115610d5557600080fd5b610d618c838d01610b90565b995060208b0135985060408b0135915080821115610d7e57600080fd5b610d8a8c838d01610b90565b975060608b0135965060808b0135915080821115610da757600080fd5b610db38c838d01610b90565b9550610dc160a08c01610cf5565b945060c08b0135915080821115610dd757600080fd5b50610de48b828c01610b90565b925050610df360e08a01610d11565b90509295985092959890939650565b600080600080600080600060a0888a031215610e1d57600080fd5b87356001600160401b0380821115610e3457600080fd5b610e408b838c01610949565b909950975060208a0135965060408a0135915080821115610e6057600080fd5b50610e6d8a828b01610949565b989b979a5095989597966060870135966080013595509350505050565b60008060208385031215610e9d57600080fd5b82356001600160401b03811115610eb357600080fd5b6109c685828601610c62565b60008060008060008060608789031215610ed857600080fd5b86356001600160401b0380821115610eef57600080fd5b610efb8a838b01610949565b90985096506020890135915080821115610f1457600080fd5b610aac8a838b01610c62565b60008451610f328184602089016108df565b845190830190610f468183602089016108df565b8451910190610f598183602088016108df565b0195945050505050565b600181811c90821680610f7757607f821691505b602082108103610f9757634e487b7160e01b600052602260045260246000fd5b50919050565b601f82111561070d57600081815260208120601f850160051c81016020861015610fc45750805b601f850160051c820191505b8181101561065257828155600101610fd0565b81516001600160401b03811115610ffc57610ffc610b7a565b6110108161100a8454610f63565b84610f9d565b602080601f831160018114611045576000841561102d5750858301515b600019600386901b1c1916600185901b178555610652565b600085815260208120601f198616915b8281101561107457888601518255948401946001909101908401611055565b50858210156110925787850151600019600388901b60f8161c191681555b5050505050600190811b0190555056fe522102cd53fc53a07f211641a677d250f6de99caf620e8e77071e811a28b3bcddf0be1210362634ab57dae9cb373a5d536e66a8c4f67468bbcfb063809bab643072d78a1242103c5946b3fbae03a654237da86324e356d754d65704a697a4a45316752374662484a553643443138563342704e463970a2646970667358221220300b5ed191bc795baea23f05398e4d135dc160d36c5f674e4613ed1ff4385e1d64736f6c63430008120033",
  "immutableReferences": {},
  "source": "// SPDX-License-Identifier: MIT\npragma solidity ^0.8.18;\n\nimport \"./Bridge.sol\";\n\ncontract BridgeMock is Bridge {\n\n    mapping(bytes32 => uint256) private amounts;\n    mapping(uint256 => bytes) private headers;\n    mapping (bytes32 => bytes) private headersByHash;\n\n    receive() external payable override {}\n    function registerFastBridgeBtcTransaction(\n        bytes memory ,\n        uint256 ,\n        bytes memory,\n        bytes32 derivationArgumentsHash,\n        bytes memory,\n        address payable liquidityBridgeContractAddress,\n        bytes memory ,\n        bool\n    ) external override returns (int256) {\n        uint256 amount = amounts[derivationArgumentsHash];\n        amounts[derivationArgumentsHash] = 0;\n        (bool success, ) = liquidityBridgeContractAddress.call{value: amount}(\"\");\n        require(success, \"Sending funds failed\");\n        return int(amount);\n    }\n\n    function getBtcBlockchainBlockHeaderByHeight(uint256 height) external view override returns (bytes memory) {\n        return headers[height];\n    }\n\n    function setPegin(bytes32 derivationArgumentsHash) public payable {\n        amounts[derivationArgumentsHash] = msg.value;\n    }\n\n    function setHeader(uint256 height, bytes memory header) public {\n        headers[height] = header;\n    }\n\n    function setHeaderByHash(bytes32 blockHash, bytes memory header) public {\n        headersByHash[blockHash] = header;\n    }\n\n    function getActivePowpegRedeemScript() external pure returns (bytes memory) {\n        bytes memory part1 = hex\"522102cd53fc53a07f211641a677d250f6de99caf620e8e77071e811a28b3bcddf0be1210362634ab5\";\n        bytes memory part2 = hex\"7dae9cb373a5d536e66a8c4f67468bbcfb063809bab643072d78a1242103c5946b3fbae03a654237da86\";\n        bytes memory part3 = hex\"3c9ed534e0878657175b132b8ca630f245df04db53ae\";\n        return abi.encodePacked(part1, part2, part3);\n    }\n\n    function getBtcBlockchainBestChainHeight (  ) external pure override returns (int) {return 0;}\n    function getStateForBtcReleaseClient (  ) external pure override returns (bytes memory) {bytes memory b; return b;}\n    function getStateForDebugging (  ) external pure override returns (bytes memory) {bytes memory b; return b;}\n    function getBtcBlockchainInitialBlockHeight (  ) external pure override returns (int) {return int(0);}\n    function getBtcBlockchainBlockHashAtDepth ( int256 ) external pure override returns\n        (bytes memory) {bytes memory b; return b;}\n    function getBtcTxHashProcessedHeight ( string calldata ) external pure override returns (int64) {return int64(0);}\n    function isBtcTxHashAlreadyProcessed ( string calldata ) external pure override returns (bool) {return false;}\n    function getFederationAddress (  ) external pure override returns (string memory)\n        {return \"2N5muMepJizJE1gR7FbHJU6CD18V3BpNF9p\";} // regtest genesis fed addr\n    function registerBtcTransaction ( bytes calldata atx, int256 height, bytes calldata pmt ) external override {}\n    function addSignature ( bytes calldata pubkey, bytes[] calldata signatures, bytes calldata txhash )\n        external override {}\n    function receiveHeaders ( bytes[] calldata blocks ) external override {}\n    function receiveHeader ( bytes calldata ) external pure override returns (int256) {return int256(0);}\n    function getFederationSize (  ) external pure override returns (int256) {return int256(0);}\n    function getFederationThreshold (  ) external pure override returns (int256) {return int256(0);}\n    function getFederatorPublicKey ( int256 ) external pure override returns (bytes memory)\n        {bytes memory b; return b;}\n    function getFederatorPublicKeyOfType ( int256, string calldata ) external pure\n        override returns (bytes memory) {bytes memory b; return b;}\n    function getFederationCreationTime (  ) external pure override returns (int256) {return int256(0);}\n    function getFederationCreationBlockNumber (  ) external pure override returns (int256) {return int256(0);}\n    function getRetiringFederationAddress (  ) external pure override returns (string memory)  {return \"\";}\n    function getRetiringFederationSize (  ) external override  pure returns (int256) {return int256(0);}\n    function getRetiringFederationThreshold (  ) external override  pure returns (int256) {return int256(0);}\n    function getRetiringFederatorPublicKey ( int256 ) external override  pure returns (bytes memory)\n        {bytes memory b; return b;}\n    function getRetiringFederatorPublicKeyOfType ( int256,string calldata ) external pure override\n        returns (bytes memory) {bytes memory b; return b;}\n    function getRetiringFederationCreationTime (  ) external pure override returns (int256) {return int256(0);}\n    function getRetiringFederationCreationBlockNumber (  ) external override  pure returns\n        (int256) {return int256(0);}\n    function createFederation (  ) external pure override returns (int256) {return int256(0);}\n    function addFederatorPublicKey ( bytes calldata ) external pure override returns (int256)\n        {return int256(0);}\n    function addFederatorPublicKeyMultikey ( bytes calldata , bytes calldata , bytes calldata  )\n        external pure override returns (int256) {return int256(0);}\n    function commitFederation ( bytes calldata ) external pure override returns (int256) {return int256(0);}\n    function rollbackFederation (  ) external pure override returns (int256) {return int256(0);}\n    function getPendingFederationHash (  ) external pure override returns (bytes memory) {bytes memory b; return b;}\n    function getPendingFederationSize (  ) external pure override returns (int256) {return int256(0);}\n    function getPendingFederatorPublicKey ( int256  ) external pure override returns (bytes memory)\n        {bytes memory b; return b;}\n    function getPendingFederatorPublicKeyOfType ( int256 , string calldata  ) external pure override\n        returns (bytes memory) {bytes memory b; return b;}\n    function getLockWhitelistSize (  ) external pure override returns (int256) {return int256(0);}\n    function getLockWhitelistAddress ( int256  ) external pure override returns (string memory) {return \"\";}\n    function getLockWhitelistEntryByAddress ( string calldata  ) external pure  override returns (int256)\n        {return int256(0);}\n    function addLockWhitelistAddress ( string calldata , int256  ) external pure override returns (int256)\n        {return int256(0);}\n    function addOneOffLockWhitelistAddress ( string calldata , int256  ) external pure override returns\n        (int256) {return int256(0);}\n    function addUnlimitedLockWhitelistAddress ( string calldata  ) external pure override returns (int256)\n        {return int256(0);}\n    function removeLockWhitelistAddress ( string calldata  ) external pure override returns (int256)\n        {return int256(0);}\n    function setLockWhitelistDisableBlockDelay ( int256  ) external pure override returns (int256)\n        {return int256(0);}\n    function getFeePerKb (  ) external pure override returns (int256) {return int256(0);}\n    function voteFeePerKbChange ( int256  ) external pure override returns (int256) {return int256(0);}\n    function updateCollections (  ) external override {}\n    function getMinimumLockTxValue (  ) external pure override returns (int256) {return int256(2);}\n    function getBtcTransactionConfirmations ( bytes32 , bytes32, uint256 , bytes32[] calldata  )\n        external pure override returns (int256) {return int256(2);}\n    function getLockingCap (  ) external pure override returns (int256) {return int256(0);}\n    function increaseLockingCap ( int256 ) external pure override returns (bool) {return false;}\n    function registerBtcCoinbaseTransaction ( bytes calldata btcTxSerialized, bytes32 blockHash, bytes\n        calldata pmtSerialized, bytes32 witnessMerkleRoot, bytes32 witnessReservedValue ) external override {}\n    function hasBtcBlockCoinbaseTransactionInformation ( bytes32  ) external pure override returns\n        (bool) {return false;}\n    function getActiveFederationCreationBlockHeight (  ) external pure override returns (uint256)\n        {return uint256(0);}\n    function getBtcBlockchainBestBlockHeader (  ) external pure override returns (bytes memory)\n        {bytes memory b; return b;}\n\n    function getBtcBlockchainBlockHeaderByHash(\n        bytes32 blockHash\n    ) external view override returns (bytes memory) {\n        return headersByHash[blockHash];\n    }\n\n    function getBtcBlockchainParentBlockHeaderByHash ( bytes32) external pure override returns\n        (bytes memory) {bytes memory b; return b;}\n\n}\n",
  "sourcePath": "/Users/luischavez/iov/liquidity-bridge-contract/contracts/BridgeMock.sol",
  "compiler": {
    "name": "solc",
    "version": "0.8.18+commit.87f61d96.Emscripten.clang"
  },
  "schemaVersion": "3.4.13",
  "updatedAt": "2024-12-02T15:47:53.996Z",
  "networkType": "ethereum",
  "devdoc": {
    "kind": "dev",
    "methods": {},
    "version": 1
  },
  "userdoc": {
    "kind": "user",
    "methods": {},
    "version": 1
  }
}