{
  "contractName": "BtcUtils",
  "abi": [
    {
      "inputs": [],
      "name": "version",
      "outputs": [
        {
          "internalType": "string",
          "name": "",
          "type": "string"
        }
      ],
      "stateMutability": "pure",
      "type": "function",
      "constant": true
    },
    {
      "inputs": [
        {
          "internalType": "bytes",
          "name": "rawTx",
          "type": "bytes"
        }
      ],
      "name": "getOutputs",
      "outputs": [
        {
          "components": [
            {
              "internalType": "uint64",
              "name": "value",
              "type": "uint64"
            },
            {
              "internalType": "bytes",
              "name": "pkScript",
              "type": "bytes"
            },
            {
              "internalType": "uint256",
              "name": "scriptSize",
              "type": "uint256"
            },
            {
              "internalType": "uint256",
              "name": "totalSize",
              "type": "uint256"
            }
          ],
          "internalType": "struct BtcUtils.TxRawOutput[]",
          "name": "",
          "type": "tuple[]"
        }
      ],
      "stateMutability": "pure",
      "type": "function",
      "constant": true
    },
    {
      "inputs": [
        {
          "internalType": "bytes",
          "name": "outputScript",
          "type": "bytes"
        },
        {
          "internalType": "bool",
          "name": "mainnet",
          "type": "bool"
        }
      ],
      "name": "outputScriptToAddress",
      "outputs": [
        {
          "internalType": "bytes",
          "name": "",
          "type": "bytes"
        }
      ],
      "stateMutability": "pure",
      "type": "function",
      "constant": true
    },
    {
      "inputs": [
        {
          "internalType": "bytes",
          "name": "pkScript",
          "type": "bytes"
        }
      ],
      "name": "isP2PKHOutput",
      "outputs": [
        {
          "internalType": "bool",
          "name": "",
          "type": "bool"
        }
      ],
      "stateMutability": "pure",
      "type": "function",
      "constant": true
    },
    {
      "inputs": [
        {
          "internalType": "bytes",
          "name": "pkScript",
          "type": "bytes"
        }
      ],
      "name": "isP2SHOutput",
      "outputs": [
        {
          "internalType": "bool",
          "name": "",
          "type": "bool"
        }
      ],
      "stateMutability": "pure",
      "type": "function",
      "constant": true
    },
    {
      "inputs": [
        {
          "internalType": "bytes",
          "name": "pkScript",
          "type": "bytes"
        }
      ],
      "name": "isP2WPKHOutput",
      "outputs": [
        {
          "internalType": "bool",
          "name": "",
          "type": "bool"
        }
      ],
      "stateMutability": "pure",
      "type": "function",
      "constant": true
    },
    {
      "inputs": [
        {
          "internalType": "bytes",
          "name": "pkScript",
          "type": "bytes"
        }
      ],
      "name": "isP2WSHOutput",
      "outputs": [
        {
          "internalType": "bool",
          "name": "",
          "type": "bool"
        }
      ],
      "stateMutability": "pure",
      "type": "function",
      "constant": true
    },
    {
      "inputs": [
        {
          "internalType": "bytes",
          "name": "pkScript",
          "type": "bytes"
        }
      ],
      "name": "isP2TROutput",
      "outputs": [
        {
          "internalType": "bool",
          "name": "",
          "type": "bool"
        }
      ],
      "stateMutability": "pure",
      "type": "function",
      "constant": true
    },
    {
      "inputs": [
        {
          "internalType": "bytes",
          "name": "outputScript",
          "type": "bytes"
        },
        {
          "internalType": "bool",
          "name": "mainnet",
          "type": "bool"
        }
      ],
      "name": "parsePayToPubKeyHash",
      "outputs": [
        {
          "internalType": "bytes",
          "name": "",
          "type": "bytes"
        }
      ],
      "stateMutability": "pure",
      "type": "function",
      "constant": true
    },
    {
      "inputs": [
        {
          "internalType": "bytes",
          "name": "outputScript",
          "type": "bytes"
        },
        {
          "internalType": "bool",
          "name": "mainnet",
          "type": "bool"
        }
      ],
      "name": "parsePayToScriptHash",
      "outputs": [
        {
          "internalType": "bytes",
          "name": "",
          "type": "bytes"
        }
      ],
      "stateMutability": "pure",
      "type": "function",
      "constant": true
    },
    {
      "inputs": [
        {
          "internalType": "bytes",
          "name": "outputScript",
          "type": "bytes"
        }
      ],
      "name": "parsePayToWitnessPubKeyHash",
      "outputs": [
        {
          "internalType": "bytes",
          "name": "",
          "type": "bytes"
        }
      ],
      "stateMutability": "pure",
      "type": "function",
      "constant": true
    },
    {
      "inputs": [
        {
          "internalType": "bytes",
          "name": "outputScript",
          "type": "bytes"
        }
      ],
      "name": "parsePayToWitnessScriptHash",
      "outputs": [
        {
          "internalType": "bytes",
          "name": "",
          "type": "bytes"
        }
      ],
      "stateMutability": "pure",
      "type": "function",
      "constant": true
    },
    {
      "inputs": [
        {
          "internalType": "bytes",
          "name": "outputScript",
          "type": "bytes"
        }
      ],
      "name": "parsePayToTaproot",
      "outputs": [
        {
          "internalType": "bytes",
          "name": "",
          "type": "bytes"
        }
      ],
      "stateMutability": "pure",
      "type": "function",
      "constant": true
    },
    {
      "inputs": [
        {
          "internalType": "bytes",
          "name": "outputScript",
          "type": "bytes"
        }
      ],
      "name": "parseNullDataScript",
      "outputs": [
        {
          "internalType": "bytes",
          "name": "",
          "type": "bytes"
        }
      ],
      "stateMutability": "pure",
      "type": "function",
      "constant": true
    },
    {
      "inputs": [
        {
          "internalType": "bytes",
          "name": "btcTx",
          "type": "bytes"
        }
      ],
      "name": "hashBtcTx",
      "outputs": [
        {
          "internalType": "bytes32",
          "name": "",
          "type": "bytes32"
        }
      ],
      "stateMutability": "pure",
      "type": "function",
      "constant": true
    },
    {
      "inputs": [
        {
          "internalType": "bytes",
          "name": "header",
          "type": "bytes"
        }
      ],
      "name": "getBtcBlockTimestamp",
      "outputs": [
        {
          "internalType": "uint256",
          "name": "",
          "type": "uint256"
        }
      ],
      "stateMutability": "pure",
      "type": "function",
      "constant": true
    },
    {
      "inputs": [
        {
          "internalType": "bytes",
          "name": "p2sh",
          "type": "bytes"
        },
        {
          "internalType": "bytes",
          "name": "script",
          "type": "bytes"
        },
        {
          "internalType": "bool",
          "name": "mainnet",
          "type": "bool"
        }
      ],
      "name": "validateP2SHAdress",
      "outputs": [
        {
          "internalType": "bool",
          "name": "",
          "type": "bool"
        }
      ],
      "stateMutability": "pure",
      "type": "function",
      "constant": true
    },
    {
      "inputs": [
        {
          "internalType": "bytes",
          "name": "script",
          "type": "bytes"
        },
        {
          "internalType": "bool",
          "name": "mainnet",
          "type": "bool"
        }
      ],
      "name": "getP2SHAddressFromScript",
      "outputs": [
        {
          "internalType": "bytes",
          "name": "",
          "type": "bytes"
        }
      ],
      "stateMutability": "pure",
      "type": "function",
      "constant": true
    }
  ],
  "bytecode": "0x61244c61003a600b82828239805160001a60731461002d57634e487b7160e01b600052600060045260246000fd5b30600052607381538281f3fe73000000000000000000000000000000000000000030146080604052600436106100ef5760003560e01c8062f5b491146100f457806306ac41001461011d5780632d56f3231461013d5780634c03fe591461015057806354fd4d50146101635780636bdd7563146101845780637ddac3b21461019757806396743c31146101aa5780639b02794b146101bd578063a0cd70fc146101e0578063b0d6b1cb14610201578063b36b029414610214578063b42da4a214610227578063c3d9cc751461023a578063c7ce85ac1461024d578063ed0b4ba014610260578063facde65614610273578063fea8ba6314610286575b600080fd5b610107610102366004611da1565b610299565b6040516101149190611e32565b60405180910390f35b61013061012b366004611edd565b61057f565b6040516101149190611f30565b61013061014b366004611da1565b61070e565b61013061015e366004611edd565b6107ff565b604080518082019091526005815264302e322e3160d81b6020820152610130565b610130610192366004611da1565b610960565b6101306101a5366004611da1565b610b12565b6101306101b8366004611da1565b610c7f565b6101d06101cb366004611f43565b610dec565b6040519015158152602001610114565b6101f36101ee366004611fd9565b610e2f565b604051908152602001610114565b61013061020f366004611edd565b610e91565b6101d0610222366004611fd9565b611082565b6101d0610235366004611fd9565b6110eb565b6101d0610248366004611fd9565b61118b565b61013061025b366004611edd565b6111bc565b6101d061026e366004611fd9565b61138f565b6101d0610281366004611fd9565b6113e9565b6101f3610294366004611da1565b6114d9565b606060048383828181106102af576102af612089565b909101356001600160f81b03191615905080156102f55750838360058181106102da576102da612089565b9050013560f81c60f81b6001600160f81b031916600160f81b145b156102fe575060065b6000806103418387878080601f01602080910402602001604051908101604052809392919081815260200183838082843760009201919091525061169292505050565b909250905061035461ffff8216846120b5565b925060008060005b846001600160401b0316816001600160401b03161015610408576103816024876120b5565b95506103c3868a8a8080601f01602080910402602001604051908101604052809392919081815260200183838082843760009201919091525061169292505050565b90935091506103d661ffff8316846120c8565b6103e19060046120c8565b6103f4906001600160401b0316876120b5565b955080610400816120ef565b91505061035c565b5060008061044c878b8b8080601f01602080910402602001604051908101604052809392919081815260200183838082843760009201919091525061169292505050565b909250905061045f61ffff8216886120b5565b96506000826001600160401b03166001600160401b0381111561048457610484611fc3565b6040519080825280602002602001820160405280156104bd57816020015b6104aa611d2f565b8152602001906001900390816104a25790505b50905060005b836001600160401b031681101561056e57610514898d8d8080601f0160208091040260200160405190810160405280939291908181526020018383808284376000920191909152506117f792505050565b82828151811061052657610526612089565b602002602001018190525081818151811061054357610543612089565b6020026020010151606001518961055a91906120b5565b9850806105668161211d565b9150506104c3565b509750505050505050505b92915050565b60606105c084848080601f0160208091040260200160405190810160405280939291908181526020018383808284376000920191909152506110eb92505050565b6105e55760405162461bcd60e51b81526004016105dc90612136565b60405180910390fd5b60006105f3601460016120b5565b6001600160401b0381111561060a5761060a611fc3565b6040519080825280601f01601f191660200182016040528015610634576020820181803683370190505b50905060025b610646600260146120b5565b8160ff1610156106c45785858260ff1681811061066557610665612089565b9050013560f81c60f81b8260028361067d919061217a565b610688906001612193565b60ff168151811061069b5761069b612089565b60200101906001600160f81b031916908160001a905350806106bc816121ac565b91505061063a565b50826106d457603160fa1b6106da565b600560f81b5b816000815181106106ed576106ed612089565b60200101906001600160f81b031916908160001a90535090505b9392505050565b60606001821161074f5760405162461bcd60e51b815260206004820152600c60248201526b496e76616c69642073697a6560a01b60448201526064016105dc565b603560f91b838360008161076557610765612089565b9050013560f81c60f81b6001600160f81b031916146107b65760405162461bcd60e51b815260206004820152600d60248201526c2737ba1027a82fa922aa2aa92760991b60448201526064016105dc565b6107c382600181866121cb565b8080601f016020809104026020016040519081016040528093929190818152602001838380828437600092019190915250929695505050505050565b606061084084848080601f0160208091040260200160405190810160405280939291908181526020018383808284376000920191909152506113e992505050565b61085c5760405162461bcd60e51b81526004016105dc90612136565b600061086a601460016120b5565b6001600160401b0381111561088157610881611fc3565b6040519080825280601f01601f1916602001820160405280156108ab576020820181803683370190505b50905060035b6108bd600360146120b5565b8160ff16101561093b5785858260ff168181106108dc576108dc612089565b9050013560f81c60f81b826003836108f4919061217a565b6108ff906001612193565b60ff168151811061091257610912612089565b60200101906001600160f81b031916908160001a90535080610933816121ac565b9150506108b1565b508261094b57606f60f81b6106da565b6000816000815181106106ed576106ed612089565b60606109a183838080601f01602080910402602001604051908101604052809392919081815260200183838082843760009201919091525061118b92505050565b6109bd5760405162461bcd60e51b81526004016105dc90612136565b60006109c960206119a4565b6109d49060016120b5565b90506000816001600160401b038111156109f0576109f0611fc3565b6040519080825280601f01601f191660200182016040528015610a1a576020820181803683370190505b509050600160f81b81600081518110610a3557610a35612089565b60200101906001600160f81b031916908160001a9053506000610a98610a5e866002818a6121cb565b8080601f016020809104026020016040519081016040528093929190818152602001838380828437600092019190915250611a0092505050565b905060015b83811015610b075781610ab16001836121f5565b81518110610ac157610ac1612089565b602001015160f81c60f81b838281518110610ade57610ade612089565b60200101906001600160f81b031916908160001a90535080610aff8161211d565b915050610a9d565b509095945050505050565b6060610b5383838080601f01602080910402602001604051908101604052809392919081815260200183838082843760009201919091525061138f92505050565b610b6f5760405162461bcd60e51b81526004016105dc90612136565b6000610b7b60146119a4565b610b869060016120b5565b90506000816001600160401b03811115610ba257610ba2611fc3565b6040519080825280601f01601f191660200182016040528015610bcc576020820181803683370190505b509050600060f81b81600081518110610be757610be7612089565b60200101906001600160f81b031916908160001a9053506000610c10610a5e866002818a6121cb565b905060015b83811015610b075781610c296001836121f5565b81518110610c3957610c39612089565b602001015160f81c60f81b838281518110610c5657610c56612089565b60200101906001600160f81b031916908160001a90535080610c778161211d565b915050610c15565b6060610cc083838080601f01602080910402602001604051908101604052809392919081815260200183838082843760009201919091525061108292505050565b610cdc5760405162461bcd60e51b81526004016105dc90612136565b6000610ce860206119a4565b610cf39060016120b5565b90506000816001600160401b03811115610d0f57610d0f611fc3565b6040519080825280601f01601f191660200182016040528015610d39576020820181803683370190505b509050600060f81b81600081518110610d5457610d54612089565b60200101906001600160f81b031916908160001a9053506000610d7d610a5e866002818a6121cb565b905060015b83811015610b075781610d966001836121f5565b81518110610da657610da6612089565b602001015160f81c60f81b838281518110610dc357610dc3612089565b60200101906001600160f81b031916908160001a90535080610de48161211d565b915050610d82565b6000601985148015610e255750610e04848484610e91565b805190602001208686604051610e1b929190612208565b6040518091039020145b9695505050505050565b60008151605014610e7a5760405162461bcd60e51b8152602060048201526015602482015274092dcecc2d8d2c840d0cac2c8cae440d8cadccee8d605b1b60448201526064016105dc565b610e85826044611b59565b63ffffffff1692915050565b60606000600360028686604051610ea9929190612208565b602060405180830381855afa158015610ec6573d6000803e3d6000fd5b5050506040513d601f19601f82011682018060405250810190610ee99190612218565b604051602001610efb91815260200190565b60408051601f1981840301815290829052610f1591612231565b602060405180830381855afa158015610f32573d6000803e3d6000fd5b5050506040515160601b9050600083610f4f57603160fa1b610f55565b600560f81b5b6040516001600160f81b0319821660208201526001600160601b0319841660218201529091506000906035016040516020818303038152906040529050600060028083604051610fa59190612231565b602060405180830381855afa158015610fc2573d6000803e3d6000fd5b5050506040513d601f19601f82011682018060405250810190610fe59190612218565b604051602001610ff791815260200190565b60408051601f198184030181529082905261101191612231565b602060405180830381855afa15801561102e573d6000803e3d6000fd5b5050506040513d601f19601f820116820180604052508101906110519190612218565b9050818160405160200161106692919061224d565b6040516020818303038152906040529450505050509392505050565b6000611090602060026120b5565b82511480156110c057508151600090839082906110af576110af612089565b01602001516001600160f81b031916145b801561057957506020826001815181106110dc576110dc612089565b016020015160f81c1492915050565b60006110f9601460036120b5565b825114801561112d5750815160a960f81b90839060009061111c5761111c612089565b01602001516001600160f81b031916145b8015611153575060148260018151811061114957611149612089565b016020015160f81c145b801561057957508151608760f81b908390601690811061117557611175612089565b01602001516001600160f81b0319161492915050565b6000611199602060026120b5565b82511480156110c057508151605160f81b9083906000906110af576110af612089565b60606111fd84848080601f0160208091040260200160405190810160405280939291908181526020018383808284376000920191909152506113e992505050565b156112145761120d8484846107ff565b9050610707565b61125384848080601f0160208091040260200160405190810160405280939291908181526020018383808284376000920191909152506110eb92505050565b156112635761120d84848461057f565b6112a284848080601f01602080910402602001604051908101604052809392919081815260200183838082843760009201919091525061138f92505050565b156112b15761120d8484610b12565b6112f084848080601f01602080910402602001604051908101604052809392919081815260200183838082843760009201919091525061108292505050565b156112ff5761120d8484610c7f565b61133e84848080601f01602080910402602001604051908101604052809392919081815260200183838082843760009201919091525061118b92505050565b1561134d5761120d8484610960565b60405162461bcd60e51b8152602060048201526017602482015276556e737570706f7274656420736372697074207479706560481b60448201526064016105dc565b600061139d601460026120b5565b82511480156113cd57508151600090839082906113bc576113bc612089565b01602001516001600160f81b031916145b801561057957506014826001815181106110dc576110dc612089565b60006113f7601460056120b5565b825114801561142b57508151603b60f91b90839060009061141a5761141a612089565b01602001516001600160f81b031916145b801561145e5750815160a960f81b908390600190811061144d5761144d612089565b01602001516001600160f81b031916145b8015611484575060148260028151811061147a5761147a612089565b016020015160f81c145b80156114b757508151601160fb1b90839060179081106114a6576114a6612089565b01602001516001600160f81b031916145b801561057957508151602b60fa1b908390601890811061117557611175612089565b60008060028085856040516114ef929190612208565b602060405180830381855afa15801561150c573d6000803e3d6000fd5b5050506040513d601f19601f8201168201806040525081019061152f9190612218565b60405160200161154191815260200190565b60408051601f198184030181529082905261155b91612231565b602060405180830381855afa158015611578573d6000803e3d6000fd5b5050506040513d601f19601f8201168201806040525081019061159b9190612218565b6040516020016115ad91815260200190565b60408051601f1981840301815291905290506000805b6010811015611685578281815181106115de576115de612089565b01602001516001600160f81b0319169150826115fb82601f6121f5565b8151811061160b5761160b612089565b602001015160f81c60f81b83828151811061162857611628612089565b60200101906001600160f81b031916908160001a905350818361164c83601f6121f5565b8151811061165c5761165c612089565b60200101906001600160f81b031916908160001a9053508061167d8161211d565b9150506115c3565b5050602001519392505050565b600080838351116116f65760405162461bcd60e51b815260206004820152602860248201527f53697a6520706f736974696f6e2063616e277420626520626967676572207468604482015267616e20617272617960c01b60648201526084016105dc565b600083858151811061170a5761170a612089565b016020015160f81c9050600081900361172b576000600192509250506117f0565b60fc60ff8216116117445760ff169150600190506117f0565b600061175160fc8361217a565b61175c906002612360565b905060088111156117af5760405162461bcd60e51b815260206004820152601f60248201527f756e737570706f7274656420636f6d706163742073697a65206c656e6774680060448201526064016105dc565b60006117da6117bf8860016120b5565b6117c9848a6120b5565b6117d49060016120b5565b88611c51565b9050806117e883600161236f565b945094505050505b9250929050565b6117ff611d2f565b60408051608081018252600080825282516020818101855282825283015291810182905260608101919091526118408461183a6008826120b5565b85611c51565b6001600160401b031681526118566008856120b5565b93506000806118658686611692565b909250905061187861ffff8216876120b5565b95506000826001600160401b03166001600160401b0381111561189d5761189d611fc3565b6040519080825280601f01601f1916602001820160405280156118c7576020820181803683370190505b50905060005b836001600160401b0316816001600160401b0316101561195a57866118fb6001600160401b0383168a6120b5565b8151811061190b5761190b612089565b602001015160f81c60f81b82826001600160401b03168151811061193157611931612089565b60200101906001600160f81b031916908160001a90535080611952816120ef565b9150506118cd565b50602084018190526001600160401b038316604085015261ffff82166119818460086120c8565b61198b91906120c8565b6001600160401b03166060850152509195945050505050565b60008060056119b460088561238a565b6119be91906123b7565b9050600060056119cf60088661238a565b6119d991906123cb565b159050806119e85760016119eb565b60005b6119f89060ff16836120b5565b949350505050565b60606000601f9050600080600080611a1887516119a4565b6001600160401b03811115611a2f57611a2f611fc3565b6040519080825280601f01601f191660200182016040528015611a59576020820181803683370190505b50905060005b8751811015611b0657878181518110611a7a57611a7a612089565b60209101015160f81c600895861b1794611a9490856120b5565b93505b60058410611af657611aaa6005856121f5565b93508560ff168486901c1660f81b828460ff1681518110611acd57611acd612089565b60200101906001600160f81b031916908160001a90535082611aee816121ac565b935050611a97565b611aff8161211d565b9050611a5f565b508215610e255760ff8516611b1c8460056121f5565b85901b1660f81b818360ff1681518110611b3857611b38612089565b60200101906001600160f81b031916908160001a9053509695505050505050565b6000611b668260046120b5565b83511015611bad5760405162461bcd60e51b8152602060048201526014602482015273536c6963696e67206f7574206f662072616e676560601b60448201526064016105dc565b601883611bbb8460036120b5565b81518110611bcb57611bcb612089565b016020015160f81c901b601084611be38560026120b5565b81518110611bf357611bf3612089565b016020015160f81c901b600885611c0b8660016120b5565b81518110611c1b57611c1b612089565b0160200151865160f89190911c90911b90869086908110611c3e57611c3e612089565b016020015160f81c171717905092915050565b6000815184108015611c635750815183105b611caf5760405162461bcd60e51b815260206004820181905260248201527f52616e67652063616e277420626520626967676572207468616e20617272617960448201526064016105dc565b6000845b84811015611d2657611cc586826121f5565b611cd090600861238a565b611cdb9060026123df565b848281518110611ced57611ced612089565b0160200151611cff919060f81c6123eb565b611d12906001600160401b0316836120b5565b915080611d1e8161211d565b915050611cb3565b50949350505050565b604051806080016040528060006001600160401b031681526020016060815260200160008152602001600081525090565b60008083601f840112611d7257600080fd5b5081356001600160401b03811115611d8957600080fd5b6020830191508360208285010111156117f057600080fd5b60008060208385031215611db457600080fd5b82356001600160401b03811115611dca57600080fd5b611dd685828601611d60565b90969095509350505050565b60005b83811015611dfd578181015183820152602001611de5565b50506000910152565b60008151808452611e1e816020860160208601611de2565b601f01601f19169290920160200192915050565b60006020808301818452808551808352604092508286019150828160051b87010184880160005b83811015611eba57888303603f19018552815180516001600160401b0316845287810151608089860181905290611e9282870182611e06565b838a0151878b0152606093840151939096019290925250509386019390860190600101611e59565b509098975050505050505050565b80358015158114611ed857600080fd5b919050565b600080600060408486031215611ef257600080fd5b83356001600160401b03811115611f0857600080fd5b611f1486828701611d60565b9094509250611f27905060208501611ec8565b90509250925092565b6020815260006107076020830184611e06565b600080600080600060608688031215611f5b57600080fd5b85356001600160401b0380821115611f7257600080fd5b611f7e89838a01611d60565b90975095506020880135915080821115611f9757600080fd5b50611fa488828901611d60565b9094509250611fb7905060408701611ec8565b90509295509295909350565b634e487b7160e01b600052604160045260246000fd5b600060208284031215611feb57600080fd5b81356001600160401b038082111561200257600080fd5b818401915084601f83011261201657600080fd5b81358181111561202857612028611fc3565b604051601f8201601f19908116603f0116810190838211818310171561205057612050611fc3565b8160405282815287602084870101111561206957600080fd5b826020860160208301376000928101602001929092525095945050505050565b634e487b7160e01b600052603260045260246000fd5b634e487b7160e01b600052601160045260246000fd5b808201808211156105795761057961209f565b6001600160401b038181168382160190808211156120e8576120e861209f565b5092915050565b60006001600160401b038281166002600160401b031981016121135761211361209f565b6001019392505050565b60006001820161212f5761212f61209f565b5060010190565b60208082526024908201527f536372697074206861736e2774207468652072657175697265642073747275636040820152637475726560e01b606082015260800190565b60ff82811682821603908111156105795761057961209f565b60ff81811683821601908111156105795761057961209f565b600060ff821660ff81036121c2576121c261209f565b60010192915050565b600080858511156121db57600080fd5b838611156121e857600080fd5b5050820193919092039150565b818103818111156105795761057961209f565b8183823760009101908152919050565b60006020828403121561222a57600080fd5b5051919050565b60008251612243818460208701611de2565b9190910192915050565b6000835161225f818460208801611de2565b6001600160e01b0319939093169190920190815260040192915050565b600181815b808511156122b757816000190482111561229d5761229d61209f565b808516156122aa57918102915b93841c9390800290612281565b509250929050565b6000826122ce57506001610579565b816122db57506000610579565b81600181146122f157600281146122fb57612317565b6001915050610579565b60ff84111561230c5761230c61209f565b50506001821b610579565b5060208310610133831016604e8410600b841016171561233a575081810a610579565b612344838361227c565b80600019048211156123585761235861209f565b029392505050565b600061070760ff8416836122bf565b61ffff8181168382160190808211156120e8576120e861209f565b80820281158282048414176105795761057961209f565b634e487b7160e01b600052601260045260246000fd5b6000826123c6576123c66123a1565b500490565b6000826123da576123da6123a1565b500690565b600061070783836122bf565b6001600160401b0381811683821602808216919082811461240e5761240e61209f565b50509291505056fea26469706673582212207c217a41888529800be793c549eef013d4d2405f68a570e85371885eaec4fe3064736f6c63430008120033",
  "immutableReferences": {},
  "source": "// SPDX-License-Identifier: MIT\npragma solidity ^0.8.18;\n\nimport \"./OpCodes.sol\";\n\n/**\n * @title BtcUtils\n * @notice This library contains functionality to make easier to work with Bitcoin transactions in Solidity.\n * @notice This library is based in this document:\n *   https://developer.bitcoin.org/reference/transactions.html#raw-transaction-format\n */\nlibrary BtcUtils {\n    uint8 private constant MAX_COMPACT_SIZE_LENGTH = 252;\n    uint8 private constant MAX_BYTES_USED_FOR_COMPACT_SIZE = 8;\n\n    uint private constant HASH160_SIZE = 20;\n    uint private constant SHA256_SIZE = 32;\n    uint private constant TAPROOT_PUBKEY_SIZE = 32;\n\n    uint8 private constant OUTPOINT_SIZE = 36;\n    uint8 private constant OUTPUT_VALUE_SIZE = 8;\n\n    uint8 private constant PUBKEY_HASH_START = 3;\n    bytes1 private constant PUBKEY_HASH_MAINNET_BYTE = 0x00;\n    bytes1 private constant PUBKEY_HASH_TESTNET_BYTE = 0x6f;\n\n    uint8 private constant SCRIPT_HASH_START = 2;\n    bytes1 private constant SCRIPT_HASH_MAINNET_BYTE = 0x05;\n    bytes1 private constant SCRIPT_HASH_TESTNET_BYTE = 0xc4;\n\n    uint private constant BECH32_WORD_SIZE = 5;\n    uint private constant BYTE_SIZE = 8;\n\n    bytes1 private constant WITNESS_VERSION_0 = 0x00;\n    bytes1 private constant WITNESS_VERSION_1 = 0x01;\n\n\n    /**\n     * @notice This struct contains the information of a tx output separated by fields\n     * @notice Its just to have a structured representation of the output\n     **/\n    struct TxRawOutput {\n        uint64 value;\n        bytes pkScript;\n        uint256 scriptSize;\n        uint256 totalSize;\n    }\n\n    function version() external pure returns (string memory) {\n        return \"0.2.1\";\n    }\n\n    /// @notice Parse a raw transaction to get an array of its outputs in a structured representation\n    /// @param rawTx the raw transaction\n    /// @return An array of `TxRawOutput` with the outputs of the transaction\n    function getOutputs(bytes calldata rawTx) public pure returns (TxRawOutput[] memory) {\n        uint currentPosition = 4;\n\n        if (rawTx[4] == 0x00 && rawTx[5] == 0x01) { // if its segwit, skip marker and flag\n            currentPosition = 6;\n        }\n        \n        (uint64 inputCount, uint16 inputCountSize) = parseCompactSizeInt(currentPosition, rawTx);\n        currentPosition += inputCountSize;\n\n        uint64 scriptLarge;\n        uint16 scriptLargeSize;\n        for (uint64 i = 0; i < inputCount; i++) {\n            currentPosition += OUTPOINT_SIZE;\n            (scriptLarge, scriptLargeSize) = parseCompactSizeInt(currentPosition, rawTx);\n            currentPosition += scriptLarge + scriptLargeSize + 4;\n        }\n\n        (uint64 outputCount, uint16 outputCountSize) = parseCompactSizeInt(currentPosition, rawTx);\n        currentPosition += outputCountSize;\n\n        TxRawOutput[] memory result = new TxRawOutput[](outputCount);\n        for (uint i = 0; i < outputCount; i++) {\n            result[i] = extractRawOutput(currentPosition, rawTx);\n            currentPosition += result[i].totalSize;\n        }\n        return result;\n    }\n\n    function extractRawOutput(uint position, bytes memory rawTx) private pure returns (TxRawOutput memory) {\n        TxRawOutput memory result = TxRawOutput(0, \"\", 0, 0);\n        result.value = uint64(calculateLittleEndianFragment(position, position + OUTPUT_VALUE_SIZE, rawTx));\n        position += OUTPUT_VALUE_SIZE;\n\n        (uint64 scriptLength, uint16 scriptLengthSize) = parseCompactSizeInt(position, rawTx);\n        position += scriptLengthSize;\n\n        bytes memory pkScript = new bytes(scriptLength);\n        for (uint64 i = 0; i < scriptLength; i++) {\n            pkScript[i] = rawTx[position + i];\n        }\n        result.pkScript = pkScript;\n        result.scriptSize = scriptLength;\n        result.totalSize = OUTPUT_VALUE_SIZE + scriptLength + scriptLengthSize;\n        return result;\n    }\n\n    /// @notice Parse a raw output script whose type is not known by the consumer. The function will\n    /// return the corresponding address if the type of the script is supported or an error if not.\n    /// For the addresses that are encoded with base58check the checksum bytes are not included in\n    /// the resulting byte array\n    /// @param outputScript the fragment of the raw transaction containing the raw output script\n    /// @param mainnet if the address to generate is from mainnet or testnet\n    /// @return The address bytes regarless of the output script type\n    function outputScriptToAddress(bytes calldata outputScript, bool mainnet) public pure returns (bytes memory) {\n        if (isP2PKHOutput(outputScript)) {\n            return parsePayToPubKeyHash(outputScript, mainnet);\n        }\n        if (isP2SHOutput(outputScript)) {\n            return parsePayToScriptHash(outputScript, mainnet);\n        }\n        if (isP2WPKHOutput(outputScript)) {\n            return parsePayToWitnessPubKeyHash(outputScript);\n        }\n        if (isP2WSHOutput(outputScript)) {\n            return parsePayToWitnessScriptHash(outputScript);\n        }\n        if (isP2TROutput(outputScript)) {\n            return parsePayToTaproot(outputScript);\n        }\n        revert(\"Unsupported script type\");\n    }\n\n    /// @notice Check if a raw output script is a pay-to-public-key-hash output\n    /// @param pkScript the fragment of the raw transaction containing the raw output script\n    /// @return Whether the script has a pay-to-public-key-hash output structure or not\n    function isP2PKHOutput(bytes memory pkScript) public pure returns (bool) {\n        return pkScript.length == 5 + HASH160_SIZE &&\n            pkScript[0] == OpCodes.OP_DUP &&\n            pkScript[1] == OpCodes.OP_HASH160 &&\n            uint8(pkScript[2]) == HASH160_SIZE &&\n            pkScript[23] == OpCodes.OP_EQUALVERIFY &&\n            pkScript[24] ==  OpCodes.OP_CHECKSIG;\n    }\n\n    /// @notice Check if a raw output script is a pay-to-script-hash output\n    /// @param pkScript the fragment of the raw transaction containing the raw output script\n    /// @return Whether the script has a pay-to-script-hash output structure or not\n    function isP2SHOutput(bytes memory pkScript) public pure returns (bool) {\n        return pkScript.length == 3 + HASH160_SIZE &&\n            pkScript[0] == OpCodes.OP_HASH160 &&\n            uint8(pkScript[1]) == HASH160_SIZE &&\n            pkScript[22] == OpCodes.OP_EQUAL;\n    }\n\n    /// @notice Check if a raw output script is a pay-to-witness-pubkey-hash output\n    /// @param pkScript the fragment of the raw transaction containing the raw output script\n    /// @return Whether the script has a pay-to-witness-pubkey-hash output structure or not\n    function isP2WPKHOutput(bytes memory pkScript) public pure returns (bool) {\n        return pkScript.length == 2 + HASH160_SIZE &&\n            pkScript[0] == OpCodes.OP_0 &&\n            uint8(pkScript[1]) == HASH160_SIZE;\n    }\n\n    /// @notice Check if a raw output script is a pay-to-witness-script-hash output\n    /// @param pkScript the fragment of the raw transaction containing the raw output script\n    /// @return Whether the script has a pay-to-witness-script-hash output structure or not\n    function isP2WSHOutput(bytes memory pkScript) public pure returns (bool) {\n        return pkScript.length == 2 + SHA256_SIZE &&\n            pkScript[0] == OpCodes.OP_0 &&\n            uint8(pkScript[1]) == SHA256_SIZE;\n    }\n\n    /// @notice Check if a raw output script is a pay-to-taproot output\n    /// @notice Reference for implementation: https://github.com/bitcoin/bips/blob/master/bip-0341.mediawiki \n    /// @param pkScript the fragment of the raw transaction containing the raw output script\n    /// @return Whether the script has a pay-to-taproot output structure or not\n    function isP2TROutput(bytes memory pkScript) public pure returns (bool) {\n        return pkScript.length == 2 + TAPROOT_PUBKEY_SIZE &&\n            pkScript[0] == OpCodes.OP_1 &&\n            uint8(pkScript[1]) == TAPROOT_PUBKEY_SIZE;\n    }\n\n    /// @notice Parse a raw pay-to-public-key-hash output script to get the corresponding address,\n    /// the resulting byte array doesn't include the checksum bytes of the base58check encoding at\n    /// the end\n    /// @param outputScript the fragment of the raw transaction containing the raw output script\n    /// @param mainnet if the address to generate is from mainnet or testnet \n    /// @return The address generated using the receiver's public key hash\n    function parsePayToPubKeyHash(bytes calldata outputScript, bool mainnet) public pure returns (bytes memory) {\n        require(isP2PKHOutput(outputScript), \"Script hasn't the required structure\");\n\n        bytes memory destinationAddress = new bytes(HASH160_SIZE + 1);\n        for(uint8 i = PUBKEY_HASH_START; i < HASH160_SIZE + PUBKEY_HASH_START; i++) {\n            destinationAddress[i - PUBKEY_HASH_START + 1] = outputScript[i];\n        }\n\n        destinationAddress[0] = mainnet? PUBKEY_HASH_MAINNET_BYTE : PUBKEY_HASH_TESTNET_BYTE;\n        return destinationAddress;\n    }\n\n    /// @notice Parse a raw pay-to-script-hash output script to get the corresponding address,\n    /// the resulting byte array doesn't include the checksum bytes of the base58check encoding at\n    /// the end\n    /// @param outputScript the fragment of the raw transaction containing the raw output script\n    /// @param mainnet if the address to generate is from mainnet or testnet\n    /// @return The address generated using the script hash\n    function parsePayToScriptHash(bytes calldata outputScript, bool mainnet) public pure returns (bytes memory) {\n        require(isP2SHOutput(outputScript), \"Script hasn't the required structure\");\n\n        bytes memory destinationAddress = new bytes(HASH160_SIZE + 1);\n        for(uint8 i = SCRIPT_HASH_START; i < HASH160_SIZE + SCRIPT_HASH_START; i++) {\n            destinationAddress[i - SCRIPT_HASH_START + 1] = outputScript[i];\n        }\n\n        destinationAddress[0] = mainnet? SCRIPT_HASH_MAINNET_BYTE : SCRIPT_HASH_TESTNET_BYTE;\n        return destinationAddress;\n    }\n\n    /// @notice Parse a raw pay-to-witness-pubkey-hash output script to get the corresponding address words,\n    /// the resulting words are only the data part of the bech32 encoding and doesn't include the HRP\n    /// @param outputScript the fragment of the raw transaction containing the raw output script\n    /// @return The address bech32 words generated using the pubkey hash\n    function parsePayToWitnessPubKeyHash(bytes calldata outputScript) public pure returns (bytes memory) {\n        require(isP2WPKHOutput(outputScript), \"Script hasn't the required structure\"); \n        uint length = 1 + total5BitWords(HASH160_SIZE);\n        bytes memory result = new bytes(length);\n        result[0] = WITNESS_VERSION_0;\n        bytes memory words = to5BitWords(outputScript[2:]);\n        for (uint i = 1; i < length; i++) {\n            result[i] = words[i - 1];\n        }\n        return result;\n    }\n\n    /// @notice Parse a raw pay-to-witness-script-hash output script to get the corresponding address words,\n    /// the resulting words are only the data part of the bech32 encoding and doesn't include the HRP\n    /// @param outputScript the fragment of the raw transaction containing the raw output script\n    /// @return The address bech32 words generated using the script hash\n    function parsePayToWitnessScriptHash(bytes calldata outputScript) public pure returns (bytes memory) {\n        require(isP2WSHOutput(outputScript), \"Script hasn't the required structure\");\n        uint length = 1 + total5BitWords(SHA256_SIZE);\n        bytes memory result = new bytes(length);\n        result[0] = WITNESS_VERSION_0;\n        bytes memory words = to5BitWords(outputScript[2:]);\n        for (uint i = 1; i < length; i++) {\n            result[i] = words[i - 1];\n        }\n        return result;\n    }\n\n    /// @notice Parse a raw pay-to-taproot output script to get the corresponding address words,\n    /// the resulting words are only the data part of the bech32m encoding and doesn't include the HRP\n    /// @param outputScript the fragment of the raw transaction containing the raw output script\n    /// @return The address bech32m words generated using the taproot pubkey hash\n    function parsePayToTaproot(bytes calldata outputScript) public pure returns (bytes memory) {\n        require(isP2TROutput(outputScript), \"Script hasn't the required structure\");\n        uint length = 1 + total5BitWords(TAPROOT_PUBKEY_SIZE);\n        bytes memory result = new bytes(length);\n        result[0] = WITNESS_VERSION_1;\n        bytes memory words = to5BitWords(outputScript[2:]);\n        for (uint i = 1; i < length; i++) {\n            result[i] = words[i - 1];\n        }\n        return result;\n    }\n\n    /// @notice Parse a raw null-data output script to get its content\n    /// @param outputScript the fragment of the raw transaction containing the raw output script \n    /// @return The content embedded inside the script\n    function parseNullDataScript(bytes calldata outputScript) public pure returns (bytes memory) {\n        require(outputScript.length > 1,\"Invalid size\");\n        require(outputScript[0] == OpCodes.OP_RETURN, \"Not OP_RETURN\");\n        return outputScript[1:];\n    }\n\n    /// @notice Hash a bitcoin raw transaction to get its id (reversed double sha256)\n    /// @param btcTx the transaction to hash\n    /// @return The transaction id \n    function hashBtcTx(bytes calldata btcTx) public pure returns (bytes32) {\n        bytes memory doubleSha256 = abi.encodePacked(sha256(abi.encodePacked(sha256(btcTx))));\n        bytes1 aux;\n        for (uint i = 0; i < 16; i++) {\n            aux = doubleSha256[i];\n            doubleSha256[i] = doubleSha256[31 - i];\n            doubleSha256[31 - i] = aux;\n        }\n\n        bytes32 result;\n        assembly {\n            result := mload(add(doubleSha256, 32))\n        }\n        return result;\n    }\n\n    /// @dev Gets the timestamp of a Bitcoin block header\n    /// @param header The block header\n    /// @return The timestamp of the block header\n    function getBtcBlockTimestamp(bytes memory header) public pure returns (uint256) {\n        // bitcoin header is 80 bytes and timestamp is 4 bytes from byte 68 to byte 71 (both inclusive)\n        require(header.length == 80, \"Invalid header length\");\n\n        return sliceUint32FromLSB(header, 68);\n    }\n\n    // bytes must have at least 28 bytes before the uint32\n    function sliceUint32FromLSB(bytes memory bs, uint offset) private pure returns (uint32) {\n        require(bs.length >= offset + 4, \"Slicing out of range\");\n\n        return\n        uint32(uint8(bs[offset])) |\n        (uint32(uint8(bs[offset + 1])) << 8) |\n        (uint32(uint8(bs[offset + 2])) << 16) |\n        (uint32(uint8(bs[offset + 3])) << 24);\n    }\n\n    /// @notice Check if a pay-to-script-hash address belogs to a specific script, expects the address\n    /// bytes to include the 4 checksum bytes at the end\n    /// @param p2sh the pay-to-script-hash address\n    /// @param script the script to check\n    /// @param mainnet flag to specify if its a mainnet address\n    /// @return Whether the address belongs to the script or not\n    function validateP2SHAdress(bytes calldata p2sh, bytes calldata script, bool mainnet) public pure returns (bool) {\n        return p2sh.length == 25 && keccak256(p2sh) ==  keccak256(getP2SHAddressFromScript(script, mainnet));\n    }\n\n    /// @notice Generate a pay-to-script-hash address from a script, the resulting byte array already contains\n    /// the 4 checksum bytes at the end of it\n    /// @param script the script to generate the address from\n    /// @param mainnet flag to specify if the output should be a mainnet address\n    /// @return The address generate from the script\n    function getP2SHAddressFromScript(bytes calldata script, bool mainnet) public pure returns (bytes memory) {\n        bytes20 scriptHash = ripemd160(abi.encodePacked(sha256(script)));\n        bytes1 versionByte = mainnet ? SCRIPT_HASH_MAINNET_BYTE : SCRIPT_HASH_TESTNET_BYTE;\n        bytes memory versionAndHash = bytes.concat(versionByte, scriptHash);\n        bytes4 checksum = bytes4(sha256(abi.encodePacked(sha256(versionAndHash))));\n        return bytes.concat(versionAndHash, checksum);\n    }\n\n    function parseCompactSizeInt(uint sizePosition, bytes memory array) private pure returns(uint64, uint16) {\n        require(array.length > sizePosition, \"Size position can't be bigger than array\");\n        uint8 maxSize = uint8(array[sizePosition]);\n        if (maxSize == 0) {\n            return (0, 1);\n        } else if (maxSize <= MAX_COMPACT_SIZE_LENGTH) {\n            return (maxSize, 1);\n        }\n        \n        uint compactSizeBytes = 2 ** (maxSize - MAX_COMPACT_SIZE_LENGTH);\n        require(compactSizeBytes <= MAX_BYTES_USED_FOR_COMPACT_SIZE, \"unsupported compact size length\");\n\n        // the adition of 1 is because the first byte is the indicator of the size and its not part of the number\n        uint64 result = uint64(\n            calculateLittleEndianFragment(sizePosition + 1, sizePosition + compactSizeBytes + 1, array)\n        );\n        return (result, uint16(compactSizeBytes) + 1);\n    }\n\n    function calculateLittleEndianFragment(\n        uint fragmentStart,\n        uint fragmentEnd,\n        bytes memory array\n    ) private pure returns (uint) {\n        require(\n            fragmentStart < array.length && fragmentEnd < array.length, \n            \"Range can't be bigger than array\"\n        );\n        uint result = 0;\n        for (uint i = fragmentStart; i < fragmentEnd; i++) {\n            result += uint8(array[i]) *  uint64(2 ** (8 * (i - (fragmentStart))));\n        }\n        return result;\n    }\n\n    /// @notice Referece for implementation: https://github.com/bitcoin/bips/blob/master/bip-0173.mediawiki\n    function to5BitWords(bytes memory byteArray) private pure returns(bytes memory) {\n        uint8 MAX_VALUE = 31;\n\n        uint currentValue = 0;\n        uint bitCount = 0;\n        uint8 resultIndex = 0;\n        bytes memory result = new bytes(total5BitWords(byteArray.length));\n\n        for (uint i = 0; i < byteArray.length; ++i) {\n            currentValue = (currentValue << BYTE_SIZE) | uint8(byteArray[i]);\n            bitCount += BYTE_SIZE;\n            while (bitCount >= BECH32_WORD_SIZE) {\n                bitCount -= BECH32_WORD_SIZE;\n                // this mask ensures that the result will always have 5 bits\n                result[resultIndex] = bytes1(uint8((currentValue >> bitCount) & MAX_VALUE));\n                resultIndex++;\n            }\n        }\n\n        if (bitCount > 0) {\n            result[resultIndex] = bytes1(uint8((currentValue << (BECH32_WORD_SIZE - bitCount)) & MAX_VALUE));\n        }\n        return result;\n    }\n\n    function total5BitWords(uint numberOfBytes) private pure returns(uint) {\n        uint total = (numberOfBytes * BYTE_SIZE) / BECH32_WORD_SIZE;\n        bool extraWord = (numberOfBytes * BYTE_SIZE) % BECH32_WORD_SIZE == 0;\n        return total + (extraWord? 0 : 1);\n    }\n}",
  "sourcePath": "@rsksmart/btc-transaction-solidity-helper/contracts/BtcUtils.sol",
  "compiler": {
    "name": "solc",
    "version": "0.8.18+commit.87f61d96.Emscripten.clang"
  },
  "schemaVersion": "3.4.13",
  "updatedAt": "2024-11-26T16:55:34.915Z",
  "networkType": "ethereum",
  "devdoc": {
    "kind": "dev",
    "methods": {
      "getBtcBlockTimestamp(bytes)": {
        "details": "Gets the timestamp of a Bitcoin block header",
        "params": {
          "header": "The block header"
        },
        "returns": {
          "_0": "The timestamp of the block header"
        }
      },
      "getOutputs(bytes)": {
        "params": {
          "rawTx": "the raw transaction"
        },
        "returns": {
          "_0": "An array of `TxRawOutput` with the outputs of the transaction"
        }
      },
      "getP2SHAddressFromScript(bytes,bool)": {
        "params": {
          "mainnet": "flag to specify if the output should be a mainnet address",
          "script": "the script to generate the address from"
        },
        "returns": {
          "_0": "The address generate from the script"
        }
      },
      "hashBtcTx(bytes)": {
        "params": {
          "btcTx": "the transaction to hash"
        },
        "returns": {
          "_0": "The transaction id "
        }
      },
      "isP2PKHOutput(bytes)": {
        "params": {
          "pkScript": "the fragment of the raw transaction containing the raw output script"
        },
        "returns": {
          "_0": "Whether the script has a pay-to-public-key-hash output structure or not"
        }
      },
      "isP2SHOutput(bytes)": {
        "params": {
          "pkScript": "the fragment of the raw transaction containing the raw output script"
        },
        "returns": {
          "_0": "Whether the script has a pay-to-script-hash output structure or not"
        }
      },
      "isP2TROutput(bytes)": {
        "params": {
          "pkScript": "the fragment of the raw transaction containing the raw output script"
        },
        "returns": {
          "_0": "Whether the script has a pay-to-taproot output structure or not"
        }
      },
      "isP2WPKHOutput(bytes)": {
        "params": {
          "pkScript": "the fragment of the raw transaction containing the raw output script"
        },
        "returns": {
          "_0": "Whether the script has a pay-to-witness-pubkey-hash output structure or not"
        }
      },
      "isP2WSHOutput(bytes)": {
        "params": {
          "pkScript": "the fragment of the raw transaction containing the raw output script"
        },
        "returns": {
          "_0": "Whether the script has a pay-to-witness-script-hash output structure or not"
        }
      },
      "outputScriptToAddress(bytes,bool)": {
        "params": {
          "mainnet": "if the address to generate is from mainnet or testnet",
          "outputScript": "the fragment of the raw transaction containing the raw output script"
        },
        "returns": {
          "_0": "The address bytes regarless of the output script type"
        }
      },
      "parseNullDataScript(bytes)": {
        "params": {
          "outputScript": "the fragment of the raw transaction containing the raw output script "
        },
        "returns": {
          "_0": "The content embedded inside the script"
        }
      },
      "parsePayToPubKeyHash(bytes,bool)": {
        "params": {
          "mainnet": "if the address to generate is from mainnet or testnet ",
          "outputScript": "the fragment of the raw transaction containing the raw output script"
        },
        "returns": {
          "_0": "The address generated using the receiver's public key hash"
        }
      },
      "parsePayToScriptHash(bytes,bool)": {
        "params": {
          "mainnet": "if the address to generate is from mainnet or testnet",
          "outputScript": "the fragment of the raw transaction containing the raw output script"
        },
        "returns": {
          "_0": "The address generated using the script hash"
        }
      },
      "parsePayToTaproot(bytes)": {
        "params": {
          "outputScript": "the fragment of the raw transaction containing the raw output script"
        },
        "returns": {
          "_0": "The address bech32m words generated using the taproot pubkey hash"
        }
      },
      "parsePayToWitnessPubKeyHash(bytes)": {
        "params": {
          "outputScript": "the fragment of the raw transaction containing the raw output script"
        },
        "returns": {
          "_0": "The address bech32 words generated using the pubkey hash"
        }
      },
      "parsePayToWitnessScriptHash(bytes)": {
        "params": {
          "outputScript": "the fragment of the raw transaction containing the raw output script"
        },
        "returns": {
          "_0": "The address bech32 words generated using the script hash"
        }
      },
      "validateP2SHAdress(bytes,bytes,bool)": {
        "params": {
          "mainnet": "flag to specify if its a mainnet address",
          "p2sh": "the pay-to-script-hash address",
          "script": "the script to check"
        },
        "returns": {
          "_0": "Whether the address belongs to the script or not"
        }
      }
    },
    "title": "BtcUtils",
    "version": 1
  },
  "userdoc": {
    "kind": "user",
    "methods": {
      "getOutputs(bytes)": {
        "notice": "Parse a raw transaction to get an array of its outputs in a structured representation"
      },
      "getP2SHAddressFromScript(bytes,bool)": {
        "notice": "Generate a pay-to-script-hash address from a script, the resulting byte array already contains the 4 checksum bytes at the end of it"
      },
      "hashBtcTx(bytes)": {
        "notice": "Hash a bitcoin raw transaction to get its id (reversed double sha256)"
      },
      "isP2PKHOutput(bytes)": {
        "notice": "Check if a raw output script is a pay-to-public-key-hash output"
      },
      "isP2SHOutput(bytes)": {
        "notice": "Check if a raw output script is a pay-to-script-hash output"
      },
      "isP2TROutput(bytes)": {
        "notice": "Check if a raw output script is a pay-to-taproot outputReference for implementation: https://github.com/bitcoin/bips/blob/master/bip-0341.mediawiki "
      },
      "isP2WPKHOutput(bytes)": {
        "notice": "Check if a raw output script is a pay-to-witness-pubkey-hash output"
      },
      "isP2WSHOutput(bytes)": {
        "notice": "Check if a raw output script is a pay-to-witness-script-hash output"
      },
      "outputScriptToAddress(bytes,bool)": {
        "notice": "Parse a raw output script whose type is not known by the consumer. The function will return the corresponding address if the type of the script is supported or an error if not. For the addresses that are encoded with base58check the checksum bytes are not included in the resulting byte array"
      },
      "parseNullDataScript(bytes)": {
        "notice": "Parse a raw null-data output script to get its content"
      },
      "parsePayToPubKeyHash(bytes,bool)": {
        "notice": "Parse a raw pay-to-public-key-hash output script to get the corresponding address, the resulting byte array doesn't include the checksum bytes of the base58check encoding at the end"
      },
      "parsePayToScriptHash(bytes,bool)": {
        "notice": "Parse a raw pay-to-script-hash output script to get the corresponding address, the resulting byte array doesn't include the checksum bytes of the base58check encoding at the end"
      },
      "parsePayToTaproot(bytes)": {
        "notice": "Parse a raw pay-to-taproot output script to get the corresponding address words, the resulting words are only the data part of the bech32m encoding and doesn't include the HRP"
      },
      "parsePayToWitnessPubKeyHash(bytes)": {
        "notice": "Parse a raw pay-to-witness-pubkey-hash output script to get the corresponding address words, the resulting words are only the data part of the bech32 encoding and doesn't include the HRP"
      },
      "parsePayToWitnessScriptHash(bytes)": {
        "notice": "Parse a raw pay-to-witness-script-hash output script to get the corresponding address words, the resulting words are only the data part of the bech32 encoding and doesn't include the HRP"
      },
      "validateP2SHAdress(bytes,bytes,bool)": {
        "notice": "Check if a pay-to-script-hash address belogs to a specific script, expects the address bytes to include the 4 checksum bytes at the end"
      }
    },
    "notice": "This library contains functionality to make easier to work with Bitcoin transactions in Solidity.This library is based in this document:   https://developer.bitcoin.org/reference/transactions.html#raw-transaction-format",
    "version": 1
  }
}