{
  "contractName": "BtcUtils",
  "abi": [
    {
      "inputs": [
        {
          "internalType": "bytes",
          "name": "rawTx",
          "type": "bytes"
        }
      ],
      "name": "getOutputs",
      "outputs": [
        {
          "components": [
            {
              "internalType": "uint64",
              "name": "value",
              "type": "uint64"
            },
            {
              "internalType": "bytes",
              "name": "pkScript",
              "type": "bytes"
            },
            {
              "internalType": "uint256",
              "name": "scriptSize",
              "type": "uint256"
            },
            {
              "internalType": "uint256",
              "name": "totalSize",
              "type": "uint256"
            }
          ],
          "internalType": "struct BtcUtils.TxRawOutput[]",
          "name": "",
          "type": "tuple[]"
        }
      ],
      "stateMutability": "pure",
      "type": "function",
      "constant": true
    },
    {
      "inputs": [
        {
          "internalType": "bytes",
          "name": "outputScript",
          "type": "bytes"
        },
        {
          "internalType": "bool",
          "name": "mainnet",
          "type": "bool"
        }
      ],
      "name": "parsePayToPubKeyHash",
      "outputs": [
        {
          "internalType": "bytes",
          "name": "",
          "type": "bytes"
        }
      ],
      "stateMutability": "pure",
      "type": "function",
      "constant": true
    },
    {
      "inputs": [
        {
          "internalType": "bytes",
          "name": "outputScript",
          "type": "bytes"
        }
      ],
      "name": "parseNullDataScript",
      "outputs": [
        {
          "internalType": "bytes",
          "name": "",
          "type": "bytes"
        }
      ],
      "stateMutability": "pure",
      "type": "function",
      "constant": true
    },
    {
      "inputs": [
        {
          "internalType": "bytes",
          "name": "btcTx",
          "type": "bytes"
        }
      ],
      "name": "hashBtcTx",
      "outputs": [
        {
          "internalType": "bytes32",
          "name": "",
          "type": "bytes32"
        }
      ],
      "stateMutability": "pure",
      "type": "function",
      "constant": true
    },
    {
      "inputs": [
        {
          "internalType": "bytes",
          "name": "header",
          "type": "bytes"
        }
      ],
      "name": "getBtcBlockTimestamp",
      "outputs": [
        {
          "internalType": "uint256",
          "name": "",
          "type": "uint256"
        }
      ],
      "stateMutability": "pure",
      "type": "function",
      "constant": true
    },
    {
      "inputs": [
        {
          "internalType": "bytes",
          "name": "p2sh",
          "type": "bytes"
        },
        {
          "internalType": "bytes",
          "name": "script",
          "type": "bytes"
        },
        {
          "internalType": "bool",
          "name": "mainnet",
          "type": "bool"
        }
      ],
      "name": "validateP2SHAdress",
      "outputs": [
        {
          "internalType": "bool",
          "name": "",
          "type": "bool"
        }
      ],
      "stateMutability": "pure",
      "type": "function",
      "constant": true
    },
    {
      "inputs": [
        {
          "internalType": "bytes",
          "name": "script",
          "type": "bytes"
        },
        {
          "internalType": "bool",
          "name": "mainnet",
          "type": "bool"
        }
      ],
      "name": "getP2SHAddressFromScript",
      "outputs": [
        {
          "internalType": "bytes",
          "name": "",
          "type": "bytes"
        }
      ],
      "stateMutability": "pure",
      "type": "function",
      "constant": true
    }
  ],
  "bytecode": "0x61186261003a600b82828239805160001a60731461002d57634e487b7160e01b600052600060045260246000fd5b30600052607381538281f3fe73000000000000000000000000000000000000000030146080604052600436106100765760003560e01c8062f5b4911461007b5780632d56f323146100a45780634c03fe59146100c45780639b02794b146100d7578063a0cd70fc146100fa578063b0d6b1cb1461011b578063fea8ba631461012e575b600080fd5b61008e610089366004611232565b610141565b60405161009b91906112c3565b60405180910390f35b6100b76100b2366004611232565b610427565b60405161009b9190611359565b6100b76100d2366004611388565b61051f565b6100ea6100e53660046113db565b6107ab565b604051901515815260200161009b565b61010d610108366004611471565b6107ee565b60405190815260200161009b565b6100b7610129366004611388565b610850565b61010d61013c366004611232565b610a3f565b6060600483838281811061015757610157611521565b909101356001600160f81b031916159050801561019d57508383600581811061018257610182611521565b9050013560f81c60f81b6001600160f81b031916600160f81b145b156101a6575060065b6000806101e98387878080601f016020809104026020016040519081016040528093929190818152602001838380828437600092019190915250610bf892505050565b90925090506101fc61ffff82168461154d565b925060008060005b846001600160401b0316816001600160401b031610156102b05761022960248761154d565b955061026b868a8a8080601f016020809104026020016040519081016040528093929190818152602001838380828437600092019190915250610bf892505050565b909350915061027e61ffff831684611560565b610289906004611560565b61029c906001600160401b03168761154d565b9550806102a881611587565b915050610204565b506000806102f4878b8b8080601f016020809104026020016040519081016040528093929190818152602001838380828437600092019190915250610bf892505050565b909250905061030761ffff82168861154d565b96506000826001600160401b03166001600160401b0381111561032c5761032c61145b565b60405190808252806020026020018201604052801561036557816020015b6103526111c0565b81526020019060019003908161034a5790505b50905060005b836001600160401b0316811015610416576103bc898d8d8080601f016020809104026020016040519081016040528093929190818152602001838380828437600092019190915250610d5d92505050565b8282815181106103ce576103ce611521565b60200260200101819052508181815181106103eb576103eb611521565b60200260200101516060015189610402919061154d565b98508061040e816115b5565b91505061036b565b509750505050505050505b92915050565b60606001821161046d5760405162461bcd60e51b815260206004820152600c60248201526b496e76616c69642073697a6560a01b60448201526064015b60405180910390fd5b8282600081811061048057610480611521565b9050013560f81c60f81b6001600160f81b031916606a60f81b146104d65760405162461bcd60e51b815260206004820152600d60248201526c2737ba1027a82fa922aa2aa92760991b6044820152606401610464565b6104e382600181866115ce565b8080601f016020809104026020016040519081016040528093929190818152602001838380828437600092019190915250929695505050505050565b60606019831461057c5760405162461bcd60e51b815260206004820152602260248201527f53637269707420686173206e6f7420746865207265717569726564206c656e676044820152610e8d60f31b6064820152608401610464565b8383600081811061058f5761058f611521565b9050013560f81c60f81b6001600160f81b031916607660f81b1480156105de5750838360018181106105c3576105c3611521565b9050013560f81c60f81b6001600160f81b03191660a960f81b145b80156106135750838360028181106105f8576105f8611521565b9050013560f81c60f81b6001600160f81b031916601460f81b145b801561064857508383601781811061062d5761062d611521565b9050013560f81c60f81b6001600160f81b031916608860f81b145b801561067d57508383601881811061066257610662611521565b9050013560f81c60f81b6001600160f81b03191660ac60f81b145b6106d75760405162461bcd60e51b815260206004820152602560248201527f53637269707420686173206e6f74207468652072657175697265642073747275604482015264637475726560d81b6064820152608401610464565b60408051601480825281830190925260009160208201818036833701905050905060035b610707600360146115f8565b60ff168160ff16101561077d5785858260ff1681811061072957610729611521565b9050013560f81c60f81b826003836107419190611611565b60ff168151811061075457610754611521565b60200101906001600160f81b031916908160001a905350806107758161162a565b9150506106fb565b5060008361078c57606f61078f565b60005b905060006107a08260f81b84610ee6565b979650505050505050565b60006019851480156107e457506107c3848484610850565b8051906020012086866040516107da929190611649565b6040518091039020145b9695505050505050565b600081516050146108395760405162461bcd60e51b8152602060048201526015602482015274092dcecc2d8d2c840d0cac2c8cae440d8cadccee8d605b1b6044820152606401610464565b610844826044610fea565b63ffffffff1692915050565b60606000600360028686604051610868929190611649565b602060405180830381855afa158015610885573d6000803e3d6000fd5b5050506040513d601f19601f820116820180604052508101906108a89190611659565b6040516020016108ba91815260200190565b60408051601f19818403018152908290526108d491611672565b602060405180830381855afa1580156108f1573d6000803e3d6000fd5b5050506040515160601b905060008361090b5760c461090e565b60055b6040516001600160f81b031960f883901b1660208201526001600160601b03198416602182015290915060009060350160405160208183030381529060405290506000600280836040516109629190611672565b602060405180830381855afa15801561097f573d6000803e3d6000fd5b5050506040513d601f19601f820116820180604052508101906109a29190611659565b6040516020016109b491815260200190565b60408051601f19818403018152908290526109ce91611672565b602060405180830381855afa1580156109eb573d6000803e3d6000fd5b5050506040513d601f19601f82011682018060405250810190610a0e9190611659565b90508181604051602001610a2392919061168e565b6040516020818303038152906040529450505050509392505050565b6000806002808585604051610a55929190611649565b602060405180830381855afa158015610a72573d6000803e3d6000fd5b5050506040513d601f19601f82011682018060405250810190610a959190611659565b604051602001610aa791815260200190565b60408051601f1981840301815290829052610ac191611672565b602060405180830381855afa158015610ade573d6000803e3d6000fd5b5050506040513d601f19601f82011682018060405250810190610b019190611659565b604051602001610b1391815260200190565b60408051601f1981840301815291905290506000805b6010811015610beb57828181518110610b4457610b44611521565b01602001516001600160f81b031916915082610b6182601f6116bd565b81518110610b7157610b71611521565b602001015160f81c60f81b838281518110610b8e57610b8e611521565b60200101906001600160f81b031916908160001a9053508183610bb283601f6116bd565b81518110610bc257610bc2611521565b60200101906001600160f81b031916908160001a90535080610be3816115b5565b915050610b29565b5050602001519392505050565b60008083835111610c5c5760405162461bcd60e51b815260206004820152602860248201527f53697a6520706f736974696f6e2063616e277420626520626967676572207468604482015267616e20617272617960c01b6064820152608401610464565b6000838581518110610c7057610c70611521565b016020015160f81c90506000819003610c9157600060019250925050610d56565b60fc60ff821611610caa5760ff16915060019050610d56565b6000610cb760fc83611611565b610cc29060026117b4565b90506008811115610d155760405162461bcd60e51b815260206004820152601f60248201527f756e737570706f7274656420636f6d706163742073697a65206c656e677468006044820152606401610464565b6000610d40610d2588600161154d565b610d2f848a61154d565b610d3a90600161154d565b886110e2565b905080610d4e8360016117c3565b945094505050505b9250929050565b610d656111c0565b610d6d6111c0565b610d8284610d7c60088261154d565b856110e2565b6001600160401b03168152610d9860088561154d565b9350600080610da78686610bf8565b9092509050610dba61ffff82168761154d565b95506000826001600160401b03166001600160401b03811115610ddf57610ddf61145b565b6040519080825280601f01601f191660200182016040528015610e09576020820181803683370190505b50905060005b836001600160401b0316816001600160401b03161015610e9c5786610e3d6001600160401b0383168a61154d565b81518110610e4d57610e4d611521565b602001015160f81c60f81b82826001600160401b031681518110610e7357610e73611521565b60200101906001600160f81b031916908160001a90535080610e9481611587565b915050610e0f565b50602084018190526001600160401b038316604085015261ffff8216610ec3846008611560565b610ecd9190611560565b6001600160401b03166060850152509195945050505050565b6060600082516001610ef8919061154d565b6001600160401b03811115610f0f57610f0f61145b565b6040519080825280601f01601f191660200182016040528015610f39576020820181803683370190505b5090508381600081518110610f5057610f50611521565b60200101906001600160f81b031916908160001a90535060005b83518160ff161015610fe257838160ff1681518110610f8b57610f8b611521565b01602001516001600160f81b03191682610fa68360016115f8565b60ff1681518110610fb957610fb9611521565b60200101906001600160f81b031916908160001a90535080610fda8161162a565b915050610f6a565b509392505050565b6000610ff782600461154d565b8351101561103e5760405162461bcd60e51b8152602060048201526014602482015273536c6963696e67206f7574206f662072616e676560601b6044820152606401610464565b60188361104c84600361154d565b8151811061105c5761105c611521565b016020015160f81c901b60108461107485600261154d565b8151811061108457611084611521565b016020015160f81c901b60088561109c86600161154d565b815181106110ac576110ac611521565b0160200151865160f89190911c90911b908690869081106110cf576110cf611521565b016020015160f81c171717905092915050565b60008151841080156110f45750815183105b6111405760405162461bcd60e51b815260206004820181905260248201527f52616e67652063616e277420626520626967676572207468616e2061727261796044820152606401610464565b6000845b848110156111b75761115686826116bd565b6111619060086117de565b61116c9060026117f5565b84828151811061117e5761117e611521565b0160200151611190919060f81c611801565b6111a3906001600160401b03168361154d565b9150806111af816115b5565b915050611144565b50949350505050565b604051806080016040528060006001600160401b031681526020016060815260200160008152602001600081525090565b60008083601f84011261120357600080fd5b5081356001600160401b0381111561121a57600080fd5b602083019150836020828501011115610d5657600080fd5b6000806020838503121561124557600080fd5b82356001600160401b0381111561125b57600080fd5b611267858286016111f1565b90969095509350505050565b60005b8381101561128e578181015183820152602001611276565b50506000910152565b600081518084526112af816020860160208601611273565b601f01601f19169290920160200192915050565b60006020808301818452808551808352604092508286019150828160051b87010184880160005b8381101561134b57888303603f19018552815180516001600160401b031684528781015160808986018190529061132382870182611297565b838a0151878b01526060938401519390960192909252505093860193908601906001016112ea565b509098975050505050505050565b60208152600061136c6020830184611297565b9392505050565b8035801515811461138357600080fd5b919050565b60008060006040848603121561139d57600080fd5b83356001600160401b038111156113b357600080fd5b6113bf868287016111f1565b90945092506113d2905060208501611373565b90509250925092565b6000806000806000606086880312156113f357600080fd5b85356001600160401b038082111561140a57600080fd5b61141689838a016111f1565b9097509550602088013591508082111561142f57600080fd5b5061143c888289016111f1565b909450925061144f905060408701611373565b90509295509295909350565b634e487b7160e01b600052604160045260246000fd5b60006020828403121561148357600080fd5b81356001600160401b038082111561149a57600080fd5b818401915084601f8301126114ae57600080fd5b8135818111156114c0576114c061145b565b604051601f8201601f19908116603f011681019083821181831017156114e8576114e861145b565b8160405282815287602084870101111561150157600080fd5b826020860160208301376000928101602001929092525095945050505050565b634e487b7160e01b600052603260045260246000fd5b634e487b7160e01b600052601160045260246000fd5b8082018082111561042157610421611537565b6001600160401b0381811683821601908082111561158057611580611537565b5092915050565b60006001600160401b038281166002600160401b031981016115ab576115ab611537565b6001019392505050565b6000600182016115c7576115c7611537565b5060010190565b600080858511156115de57600080fd5b838611156115eb57600080fd5b5050820193919092039150565b60ff818116838216019081111561042157610421611537565b60ff828116828216039081111561042157610421611537565b600060ff821660ff810361164057611640611537565b60010192915050565b8183823760009101908152919050565b60006020828403121561166b57600080fd5b5051919050565b60008251611684818460208701611273565b9190910192915050565b600083516116a0818460208801611273565b6001600160e01b0319939093169190920190815260040192915050565b8181038181111561042157610421611537565b600181815b8085111561170b5781600019048211156116f1576116f1611537565b808516156116fe57918102915b93841c93908002906116d5565b509250929050565b60008261172257506001610421565b8161172f57506000610421565b8160018114611745576002811461174f5761176b565b6001915050610421565b60ff84111561176057611760611537565b50506001821b610421565b5060208310610133831016604e8410600b841016171561178e575081810a610421565b61179883836116d0565b80600019048211156117ac576117ac611537565b029392505050565b600061136c60ff841683611713565b61ffff81811683821601908082111561158057611580611537565b808202811582820484141761042157610421611537565b600061136c8383611713565b6001600160401b0381811683821602808216919082811461182457611824611537565b50509291505056fea26469706673582212204adcc061260bd4e88d8cb94855285c192ed8934de969f521596f45af53edd75064736f6c63430008120033",
  "immutableReferences": {},
  "source": "// SPDX-License-Identifier: MIT\npragma solidity ^0.8.18;\n\n/**\n * @title BtcUtils\n * @notice This library contains functionality to make easier to work with Bitcoin transactions in Solidity.\n * @notice This library is based in this document:\n *   https://developer.bitcoin.org/reference/transactions.html#raw-transaction-format\n */\nlibrary BtcUtils {\n    uint8 private constant MAX_COMPACT_SIZE_LENGTH = 252;\n    uint8 private constant MAX_BYTES_USED_FOR_COMPACT_SIZE = 8;\n    uint8 private constant OUTPOINT_SIZE = 36;\n    uint8 private constant OUTPUT_VALUE_SIZE = 8;\n    uint8 private constant PUBKEY_HASH_SIZE = 20;\n    uint8 private constant PUBKEY_HASH_START = 3;\n    uint8 private constant CHECK_BYTES_FROM_HASH = 4;\n\n\n    /**\n     * @notice This struct contains the information of a tx output separated by fields\n     * @notice Its just to have a structured representation of the output\n     **/\n    struct TxRawOutput {\n        uint64 value;\n        bytes pkScript;\n        uint256 scriptSize;\n        uint256 totalSize;\n    }\n\n    /// @notice Parse a raw transaction to get an array of its outputs in a structured representation\n    /// @param rawTx the raw transaction\n    /// @return An array of `TxRawOutput` with the outputs of the transaction\n    function getOutputs(bytes calldata rawTx) public pure returns (TxRawOutput[] memory) {\n        uint currentPosition = 4;\n\n        if (rawTx[4] == 0x00 && rawTx[5] == 0x01) { // if its segwit, skip marker and flag\n            currentPosition = 6;\n        }\n        \n        (uint64 inputCount, uint16 inputCountSize) = parseCompactSizeInt(currentPosition, rawTx);\n        currentPosition += inputCountSize;\n\n        uint64 scriptLarge;\n        uint16 scriptLargeSize;\n        for (uint64 i = 0; i < inputCount; i++) {\n            currentPosition += OUTPOINT_SIZE;\n            (scriptLarge, scriptLargeSize) = parseCompactSizeInt(currentPosition, rawTx);\n            currentPosition += scriptLarge + scriptLargeSize + 4;\n        }\n\n        (uint64 outputCount, uint16 outputCountSize) = parseCompactSizeInt(currentPosition, rawTx);\n        currentPosition += outputCountSize;\n\n        TxRawOutput[] memory result = new TxRawOutput[](outputCount);\n        for (uint i = 0; i < outputCount; i++) {\n            result[i] = extractRawOutput(currentPosition, rawTx);\n            currentPosition += result[i].totalSize;\n        }\n        return result;\n    }\n\n    function extractRawOutput(uint position, bytes memory rawTx) private pure returns (TxRawOutput memory) {\n        TxRawOutput memory result;\n        result.value = uint64(calculateLittleEndianFragment(position, position + OUTPUT_VALUE_SIZE, rawTx));\n        position += OUTPUT_VALUE_SIZE;\n\n        (uint64 scriptLength, uint16 scriptLengthSize) = parseCompactSizeInt(position, rawTx);\n        position += scriptLengthSize;\n\n        bytes memory pkScript = new bytes(scriptLength);\n        for (uint64 i = 0; i < scriptLength; i++) {\n            pkScript[i] = rawTx[position + i];\n        }\n        result.pkScript = pkScript;\n        result.scriptSize = scriptLength;\n        result.totalSize = OUTPUT_VALUE_SIZE + scriptLength + scriptLengthSize;\n        return result;\n    }\n\n    /// @notice Parse a raw pay-to-public-key-hash output script to get the corresponding address\n    /// @param outputScript the fragment of the raw transaction containing the raw output script\n    /// @param mainnet if the address to generate is from mainnet or testnet \n    /// @return The address generated using the receiver's public key hash\n    function parsePayToPubKeyHash(bytes calldata outputScript, bool mainnet) public pure returns (bytes memory) {\n        require(outputScript.length == 25, \"Script has not the required length\");\n        require(\n            outputScript[0] == 0x76 && // OP_DUP\n            outputScript[1] == 0xa9 && // OP_HASH160\n            outputScript[2] == 0x14 && // pubKeyHashSize, should be always 14 (20B)\n            outputScript[23] == 0x88 && // OP_EQUALVERIFY\n            outputScript[24] == 0xac, // OP_CHECKSIG\n            \"Script has not the required structure\"\n        );\n\n        bytes memory destinationAddress = new bytes(PUBKEY_HASH_SIZE);\n        for(uint8 i = PUBKEY_HASH_START; i < PUBKEY_HASH_SIZE + PUBKEY_HASH_START; i++) {\n            destinationAddress[i - PUBKEY_HASH_START] = outputScript[i];\n        }\n\n        uint8 versionByte = mainnet? 0x00 : 0x6f;\n        bytes memory result = addVersionByte(bytes1(versionByte), destinationAddress);\n\n        return result;\n    }\n\n    function addVersionByte(bytes1 versionByte, bytes memory source) private pure returns (bytes memory) {\n        bytes memory dataWithVersion = new bytes(source.length + 1);\n        dataWithVersion[0] = versionByte;\n\n        uint8 i;\n        for (i = 0; i < source.length; i++) {\n            dataWithVersion[i + 1] = source[i];\n        }\n\n        return dataWithVersion;\n    }\n\n    /// @notice Parse a raw null-data output script to get its content\n    /// @param outputScript the fragment of the raw transaction containing the raw output script \n    /// @return The content embedded inside the script\n    function parseNullDataScript(bytes calldata outputScript) public pure returns (bytes memory) {\n        require(outputScript.length > 1,\"Invalid size\");\n        require(outputScript[0] == 0x6a, \"Not OP_RETURN\");\n        return outputScript[1:];\n    }\n\n    /// @notice Hash a bitcoin raw transaction to get its id (reversed double sha256)\n    /// @param btcTx the transaction to hash\n    /// @return The transaction id \n    function hashBtcTx(bytes calldata btcTx) public pure returns (bytes32) {\n        bytes memory doubleSha256 = abi.encodePacked(sha256(abi.encodePacked(sha256(btcTx))));\n        bytes1 aux;\n        for (uint i = 0; i < 16; i++) {\n            aux = doubleSha256[i];\n            doubleSha256[i] = doubleSha256[31 - i];\n            doubleSha256[31 - i] = aux;\n        }\n\n        bytes32 result;\n        assembly {\n            result := mload(add(doubleSha256, 32))\n        }\n        return result;\n    }\n\n    /// @dev Gets the timestamp of a Bitcoin block header\n    /// @param header The block header\n    /// @return The timestamp of the block header\n    function getBtcBlockTimestamp(bytes memory header) public pure returns (uint256) {\n        // bitcoin header is 80 bytes and timestamp is 4 bytes from byte 68 to byte 71 (both inclusive)\n        require(header.length == 80, \"Invalid header length\");\n\n        return sliceUint32FromLSB(header, 68);\n    }\n\n    // bytes must have at least 28 bytes before the uint32\n    function sliceUint32FromLSB(bytes memory bs, uint offset) private pure returns (uint32) {\n        require(bs.length >= offset + 4, \"Slicing out of range\");\n\n        return\n        uint32(uint8(bs[offset])) |\n        (uint32(uint8(bs[offset + 1])) << 8) |\n        (uint32(uint8(bs[offset + 2])) << 16) |\n        (uint32(uint8(bs[offset + 3])) << 24);\n    }\n\n    /// @notice Check if a pay-to-script-hash address belogs to a specific script\n    /// @param p2sh the pay-to-script-hash address\n    /// @param script the script to check\n    /// @param mainnet flag to specify if its a mainnet address\n    /// @return Whether the address belongs to the script or not\n    function validateP2SHAdress(bytes calldata p2sh, bytes calldata script, bool mainnet) public pure returns (bool) {\n        return p2sh.length == 25 && keccak256(p2sh) ==  keccak256(getP2SHAddressFromScript(script, mainnet));\n    }\n\n    /// @notice Generate a pay-to-script-hash address from a script\n    /// @param script the script to generate the address from\n    /// @param mainnet flag to specify if the output should be a mainnet address\n    /// @return The address generate from the script\n    function getP2SHAddressFromScript(bytes calldata script, bool mainnet) public pure returns (bytes memory) {\n        bytes20 scriptHash = ripemd160(abi.encodePacked(sha256(script)));\n        uint8 versionByte = mainnet ? 0x5 : 0xc4;\n        bytes memory versionAndHash = bytes.concat(bytes1(versionByte), scriptHash);\n        bytes4 checksum = bytes4(sha256(abi.encodePacked(sha256(versionAndHash))));\n        return bytes.concat(versionAndHash, checksum);\n    }\n\n    function parseCompactSizeInt(uint sizePosition, bytes memory array) private pure returns(uint64, uint16) {\n        require(array.length > sizePosition, \"Size position can't be bigger than array\");\n        uint8 maxSize = uint8(array[sizePosition]);\n        if (maxSize == 0) {\n            return (0, 1);\n        } else if (maxSize <= MAX_COMPACT_SIZE_LENGTH) {\n            return (maxSize, 1);\n        }\n        \n        uint compactSizeBytes = 2 ** (maxSize - MAX_COMPACT_SIZE_LENGTH);\n        require(compactSizeBytes <= MAX_BYTES_USED_FOR_COMPACT_SIZE, \"unsupported compact size length\");\n\n        // the adition of 1 is because the first byte is the indicator of the size and its not part of the number\n        uint64 result = uint64(\n            calculateLittleEndianFragment(sizePosition + 1, sizePosition + compactSizeBytes + 1, array)\n        );\n        return (result, uint16(compactSizeBytes) + 1);\n    }\n\n    function calculateLittleEndianFragment(\n        uint fragmentStart,\n        uint fragmentEnd,\n        bytes memory array\n    ) private pure returns (uint) {\n        require(\n            fragmentStart < array.length && fragmentEnd < array.length, \n            \"Range can't be bigger than array\"\n        );\n        uint result = 0;\n        for (uint i = fragmentStart; i < fragmentEnd; i++) {\n            result += uint8(array[i]) *  uint64(2 ** (8 * (i - (fragmentStart))));\n        }\n        return result;\n    }\n}",
  "sourcePath": "@rsksmart/btc-transaction-solidity-helper/contracts/BtcUtils.sol",
  "compiler": {
    "name": "solc",
    "version": "0.8.18+commit.87f61d96.Emscripten.clang"
  },
  "schemaVersion": "3.4.13",
  "updatedAt": "2024-03-08T19:52:46.832Z",
  "networkType": "ethereum",
  "devdoc": {
    "kind": "dev",
    "methods": {
      "getBtcBlockTimestamp(bytes)": {
        "details": "Gets the timestamp of a Bitcoin block header",
        "params": {
          "header": "The block header"
        },
        "returns": {
          "_0": "The timestamp of the block header"
        }
      },
      "getOutputs(bytes)": {
        "params": {
          "rawTx": "the raw transaction"
        },
        "returns": {
          "_0": "An array of `TxRawOutput` with the outputs of the transaction"
        }
      },
      "getP2SHAddressFromScript(bytes,bool)": {
        "params": {
          "mainnet": "flag to specify if the output should be a mainnet address",
          "script": "the script to generate the address from"
        },
        "returns": {
          "_0": "The address generate from the script"
        }
      },
      "hashBtcTx(bytes)": {
        "params": {
          "btcTx": "the transaction to hash"
        },
        "returns": {
          "_0": "The transaction id "
        }
      },
      "parseNullDataScript(bytes)": {
        "params": {
          "outputScript": "the fragment of the raw transaction containing the raw output script "
        },
        "returns": {
          "_0": "The content embedded inside the script"
        }
      },
      "parsePayToPubKeyHash(bytes,bool)": {
        "params": {
          "mainnet": "if the address to generate is from mainnet or testnet ",
          "outputScript": "the fragment of the raw transaction containing the raw output script"
        },
        "returns": {
          "_0": "The address generated using the receiver's public key hash"
        }
      },
      "validateP2SHAdress(bytes,bytes,bool)": {
        "params": {
          "mainnet": "flag to specify if its a mainnet address",
          "p2sh": "the pay-to-script-hash address",
          "script": "the script to check"
        },
        "returns": {
          "_0": "Whether the address belongs to the script or not"
        }
      }
    },
    "title": "BtcUtils",
    "version": 1
  },
  "userdoc": {
    "kind": "user",
    "methods": {
      "getOutputs(bytes)": {
        "notice": "Parse a raw transaction to get an array of its outputs in a structured representation"
      },
      "getP2SHAddressFromScript(bytes,bool)": {
        "notice": "Generate a pay-to-script-hash address from a script"
      },
      "hashBtcTx(bytes)": {
        "notice": "Hash a bitcoin raw transaction to get its id (reversed double sha256)"
      },
      "parseNullDataScript(bytes)": {
        "notice": "Parse a raw null-data output script to get its content"
      },
      "parsePayToPubKeyHash(bytes,bool)": {
        "notice": "Parse a raw pay-to-public-key-hash output script to get the corresponding address"
      },
      "validateP2SHAdress(bytes,bytes,bool)": {
        "notice": "Check if a pay-to-script-hash address belogs to a specific script"
      }
    },
    "notice": "This library contains functionality to make easier to work with Bitcoin transactions in Solidity.This library is based in this document:   https://developer.bitcoin.org/reference/transactions.html#raw-transaction-format",
    "version": 1
  }
}