{
  "contractName": "LiquidityBridgeContractV2",
  "abi": [
    {
      "anonymous": false,
      "inputs": [
        {
          "indexed": false,
          "internalType": "address",
          "name": "dest",
          "type": "address"
        },
        {
          "indexed": false,
          "internalType": "uint256",
          "name": "amount",
          "type": "uint256"
        }
      ],
      "name": "BalanceDecrease",
      "type": "event"
    },
    {
      "anonymous": false,
      "inputs": [
        {
          "indexed": false,
          "internalType": "address",
          "name": "dest",
          "type": "address"
        },
        {
          "indexed": false,
          "internalType": "uint256",
          "name": "amount",
          "type": "uint256"
        }
      ],
      "name": "BalanceIncrease",
      "type": "event"
    },
    {
      "anonymous": false,
      "inputs": [
        {
          "indexed": false,
          "internalType": "bytes32",
          "name": "quoteHash",
          "type": "bytes32"
        },
        {
          "indexed": false,
          "internalType": "int256",
          "name": "errorCode",
          "type": "int256"
        }
      ],
      "name": "BridgeCapExceeded",
      "type": "event"
    },
    {
      "anonymous": false,
      "inputs": [
        {
          "indexed": true,
          "internalType": "address",
          "name": "from",
          "type": "address"
        },
        {
          "indexed": true,
          "internalType": "address",
          "name": "dest",
          "type": "address"
        },
        {
          "indexed": false,
          "internalType": "uint256",
          "name": "gasLimit",
          "type": "uint256"
        },
        {
          "indexed": false,
          "internalType": "uint256",
          "name": "value",
          "type": "uint256"
        },
        {
          "indexed": false,
          "internalType": "bytes",
          "name": "data",
          "type": "bytes"
        },
        {
          "indexed": false,
          "internalType": "bool",
          "name": "success",
          "type": "bool"
        },
        {
          "indexed": false,
          "internalType": "bytes32",
          "name": "quoteHash",
          "type": "bytes32"
        }
      ],
      "name": "CallForUser",
      "type": "event"
    },
    {
      "anonymous": false,
      "inputs": [
        {
          "indexed": false,
          "internalType": "address",
          "name": "from",
          "type": "address"
        },
        {
          "indexed": false,
          "internalType": "uint256",
          "name": "amount",
          "type": "uint256"
        }
      ],
      "name": "CollateralIncrease",
      "type": "event"
    },
    {
      "anonymous": false,
      "inputs": [
        {
          "indexed": true,
          "internalType": "bytes32",
          "name": "quoteHash",
          "type": "bytes32"
        },
        {
          "indexed": false,
          "internalType": "uint256",
          "name": "amount",
          "type": "uint256"
        }
      ],
      "name": "DaoFeeSent",
      "type": "event"
    },
    {
      "anonymous": false,
      "inputs": [
        {
          "indexed": false,
          "internalType": "uint8",
          "name": "version",
          "type": "uint8"
        }
      ],
      "name": "Initialized",
      "type": "event"
    },
    {
      "anonymous": false,
      "inputs": [
        {
          "indexed": true,
          "internalType": "address",
          "name": "previousOwner",
          "type": "address"
        },
        {
          "indexed": true,
          "internalType": "address",
          "name": "newOwner",
          "type": "address"
        }
      ],
      "name": "OwnershipTransferred",
      "type": "event"
    },
    {
      "anonymous": false,
      "inputs": [
        {
          "indexed": true,
          "internalType": "bytes32",
          "name": "quoteHash",
          "type": "bytes32"
        },
        {
          "indexed": false,
          "internalType": "int256",
          "name": "transferredAmount",
          "type": "int256"
        }
      ],
      "name": "PegInRegistered",
      "type": "event"
    },
    {
      "anonymous": false,
      "inputs": [
        {
          "indexed": true,
          "internalType": "bytes32",
          "name": "quoteHash",
          "type": "bytes32"
        },
        {
          "indexed": true,
          "internalType": "address",
          "name": "sender",
          "type": "address"
        },
        {
          "indexed": false,
          "internalType": "uint256",
          "name": "amount",
          "type": "uint256"
        },
        {
          "indexed": false,
          "internalType": "uint256",
          "name": "timestamp",
          "type": "uint256"
        }
      ],
      "name": "PegOutDeposit",
      "type": "event"
    },
    {
      "anonymous": false,
      "inputs": [
        {
          "indexed": true,
          "internalType": "bytes32",
          "name": "quoteHash",
          "type": "bytes32"
        }
      ],
      "name": "PegOutRefunded",
      "type": "event"
    },
    {
      "anonymous": false,
      "inputs": [
        {
          "indexed": true,
          "internalType": "bytes32",
          "name": "quoteHash",
          "type": "bytes32"
        },
        {
          "indexed": false,
          "internalType": "uint256",
          "name": "value",
          "type": "uint256"
        },
        {
          "indexed": false,
          "internalType": "address",
          "name": "userAddress",
          "type": "address"
        }
      ],
      "name": "PegOutUserRefunded",
      "type": "event"
    },
    {
      "anonymous": false,
      "inputs": [
        {
          "indexed": false,
          "internalType": "address",
          "name": "from",
          "type": "address"
        },
        {
          "indexed": false,
          "internalType": "uint256",
          "name": "amount",
          "type": "uint256"
        }
      ],
      "name": "PegoutCollateralIncrease",
      "type": "event"
    },
    {
      "anonymous": false,
      "inputs": [
        {
          "indexed": false,
          "internalType": "address",
          "name": "from",
          "type": "address"
        },
        {
          "indexed": false,
          "internalType": "uint256",
          "name": "amount",
          "type": "uint256"
        }
      ],
      "name": "PegoutWithdrawCollateral",
      "type": "event"
    },
    {
      "anonymous": false,
      "inputs": [
        {
          "indexed": false,
          "internalType": "address",
          "name": "liquidityProvider",
          "type": "address"
        },
        {
          "indexed": false,
          "internalType": "uint256",
          "name": "penalty",
          "type": "uint256"
        },
        {
          "indexed": false,
          "internalType": "bytes32",
          "name": "quoteHash",
          "type": "bytes32"
        }
      ],
      "name": "Penalized",
      "type": "event"
    },
    {
      "anonymous": false,
      "inputs": [
        {
          "indexed": false,
          "internalType": "address",
          "name": "dest",
          "type": "address"
        },
        {
          "indexed": false,
          "internalType": "uint256",
          "name": "amount",
          "type": "uint256"
        },
        {
          "indexed": false,
          "internalType": "bool",
          "name": "success",
          "type": "bool"
        },
        {
          "indexed": false,
          "internalType": "bytes32",
          "name": "quoteHash",
          "type": "bytes32"
        }
      ],
      "name": "Refund",
      "type": "event"
    },
    {
      "anonymous": false,
      "inputs": [
        {
          "indexed": false,
          "internalType": "uint256",
          "name": "id",
          "type": "uint256"
        },
        {
          "indexed": true,
          "internalType": "address",
          "name": "from",
          "type": "address"
        },
        {
          "indexed": false,
          "internalType": "uint256",
          "name": "amount",
          "type": "uint256"
        }
      ],
      "name": "Register",
      "type": "event"
    },
    {
      "anonymous": false,
      "inputs": [
        {
          "indexed": false,
          "internalType": "address",
          "name": "from",
          "type": "address"
        }
      ],
      "name": "Resigned",
      "type": "event"
    },
    {
      "anonymous": false,
      "inputs": [
        {
          "indexed": false,
          "internalType": "address",
          "name": "from",
          "type": "address"
        },
        {
          "indexed": false,
          "internalType": "uint256",
          "name": "amount",
          "type": "uint256"
        }
      ],
      "name": "WithdrawCollateral",
      "type": "event"
    },
    {
      "anonymous": false,
      "inputs": [
        {
          "indexed": false,
          "internalType": "address",
          "name": "from",
          "type": "address"
        },
        {
          "indexed": false,
          "internalType": "uint256",
          "name": "amount",
          "type": "uint256"
        }
      ],
      "name": "Withdrawal",
      "type": "event"
    },
    {
      "inputs": [],
      "name": "BRIDGE_GENERIC_ERROR",
      "outputs": [
        {
          "internalType": "int16",
          "name": "",
          "type": "int16"
        }
      ],
      "stateMutability": "view",
      "type": "function",
      "constant": true
    },
    {
      "inputs": [],
      "name": "BRIDGE_REFUNDED_LP_ERROR_CODE",
      "outputs": [
        {
          "internalType": "int16",
          "name": "",
          "type": "int16"
        }
      ],
      "stateMutability": "view",
      "type": "function",
      "constant": true
    },
    {
      "inputs": [],
      "name": "BRIDGE_REFUNDED_USER_ERROR_CODE",
      "outputs": [
        {
          "internalType": "int16",
          "name": "",
          "type": "int16"
        }
      ],
      "stateMutability": "view",
      "type": "function",
      "constant": true
    },
    {
      "inputs": [],
      "name": "BRIDGE_UNPROCESSABLE_TX_ALREADY_PROCESSED_ERROR_CODE",
      "outputs": [
        {
          "internalType": "int16",
          "name": "",
          "type": "int16"
        }
      ],
      "stateMutability": "view",
      "type": "function",
      "constant": true
    },
    {
      "inputs": [],
      "name": "BRIDGE_UNPROCESSABLE_TX_INVALID_SENDER_ERROR_CODE",
      "outputs": [
        {
          "internalType": "int16",
          "name": "",
          "type": "int16"
        }
      ],
      "stateMutability": "view",
      "type": "function",
      "constant": true
    },
    {
      "inputs": [],
      "name": "BRIDGE_UNPROCESSABLE_TX_NOT_CONTRACT_ERROR_CODE",
      "outputs": [
        {
          "internalType": "int16",
          "name": "",
          "type": "int16"
        }
      ],
      "stateMutability": "view",
      "type": "function",
      "constant": true
    },
    {
      "inputs": [],
      "name": "BRIDGE_UNPROCESSABLE_TX_UTXO_AMOUNT_SENT_BELOW_MINIMUM_ERROR",
      "outputs": [
        {
          "internalType": "int16",
          "name": "",
          "type": "int16"
        }
      ],
      "stateMutability": "view",
      "type": "function",
      "constant": true
    },
    {
      "inputs": [],
      "name": "BRIDGE_UNPROCESSABLE_TX_VALIDATIONS_ERROR",
      "outputs": [
        {
          "internalType": "int16",
          "name": "",
          "type": "int16"
        }
      ],
      "stateMutability": "view",
      "type": "function",
      "constant": true
    },
    {
      "inputs": [],
      "name": "BRIDGE_UNPROCESSABLE_TX_VALUE_ZERO_ERROR",
      "outputs": [
        {
          "internalType": "int16",
          "name": "",
          "type": "int16"
        }
      ],
      "stateMutability": "view",
      "type": "function",
      "constant": true
    },
    {
      "inputs": [],
      "name": "CALL_DONE_CODE",
      "outputs": [
        {
          "internalType": "uint8",
          "name": "",
          "type": "uint8"
        }
      ],
      "stateMutability": "view",
      "type": "function",
      "constant": true
    },
    {
      "inputs": [],
      "name": "MAX_CALL_GAS_COST",
      "outputs": [
        {
          "internalType": "uint16",
          "name": "",
          "type": "uint16"
        }
      ],
      "stateMutability": "view",
      "type": "function",
      "constant": true
    },
    {
      "inputs": [],
      "name": "MAX_REFUND_GAS_LIMIT",
      "outputs": [
        {
          "internalType": "uint16",
          "name": "",
          "type": "uint16"
        }
      ],
      "stateMutability": "view",
      "type": "function",
      "constant": true
    },
    {
      "inputs": [],
      "name": "PAY_TO_ADDRESS_OUTPUT",
      "outputs": [
        {
          "internalType": "uint256",
          "name": "",
          "type": "uint256"
        }
      ],
      "stateMutability": "view",
      "type": "function",
      "constant": true
    },
    {
      "inputs": [],
      "name": "PROCESSED_QUOTE_CODE",
      "outputs": [
        {
          "internalType": "uint8",
          "name": "",
          "type": "uint8"
        }
      ],
      "stateMutability": "view",
      "type": "function",
      "constant": true
    },
    {
      "inputs": [],
      "name": "QUOTE_HASH_OUTPUT",
      "outputs": [
        {
          "internalType": "uint256",
          "name": "",
          "type": "uint256"
        }
      ],
      "stateMutability": "view",
      "type": "function",
      "constant": true
    },
    {
      "inputs": [],
      "name": "UNPROCESSED_QUOTE_CODE",
      "outputs": [
        {
          "internalType": "uint8",
          "name": "",
          "type": "uint8"
        }
      ],
      "stateMutability": "view",
      "type": "function",
      "constant": true
    },
    {
      "inputs": [],
      "name": "bridge",
      "outputs": [
        {
          "internalType": "contract Bridge",
          "name": "",
          "type": "address"
        }
      ],
      "stateMutability": "view",
      "type": "function",
      "constant": true
    },
    {
      "inputs": [],
      "name": "daoFeeCollectorAddress",
      "outputs": [
        {
          "internalType": "address",
          "name": "",
          "type": "address"
        }
      ],
      "stateMutability": "view",
      "type": "function",
      "constant": true
    },
    {
      "inputs": [],
      "name": "owner",
      "outputs": [
        {
          "internalType": "address",
          "name": "",
          "type": "address"
        }
      ],
      "stateMutability": "view",
      "type": "function",
      "constant": true
    },
    {
      "inputs": [],
      "name": "productFeePercentage",
      "outputs": [
        {
          "internalType": "uint256",
          "name": "",
          "type": "uint256"
        }
      ],
      "stateMutability": "view",
      "type": "function",
      "constant": true
    },
    {
      "inputs": [],
      "name": "providerId",
      "outputs": [
        {
          "internalType": "uint256",
          "name": "",
          "type": "uint256"
        }
      ],
      "stateMutability": "view",
      "type": "function",
      "constant": true
    },
    {
      "inputs": [],
      "name": "renounceOwnership",
      "outputs": [],
      "stateMutability": "nonpayable",
      "type": "function"
    },
    {
      "inputs": [
        {
          "internalType": "address",
          "name": "newOwner",
          "type": "address"
        }
      ],
      "name": "transferOwnership",
      "outputs": [],
      "stateMutability": "nonpayable",
      "type": "function"
    },
    {
      "stateMutability": "payable",
      "type": "receive",
      "payable": true
    },
    {
      "inputs": [
        {
          "internalType": "uint256",
          "name": "_productFeePercentage",
          "type": "uint256"
        },
        {
          "internalType": "address",
          "name": "_daoFeeCollectorAddress",
          "type": "address"
        }
      ],
      "name": "initializeV2",
      "outputs": [],
      "stateMutability": "nonpayable",
      "type": "function"
    },
    {
      "inputs": [
        {
          "internalType": "uint256",
          "name": "_providerId",
          "type": "uint256"
        },
        {
          "internalType": "bool",
          "name": "status",
          "type": "bool"
        }
      ],
      "name": "setProviderStatus",
      "outputs": [],
      "stateMutability": "nonpayable",
      "type": "function"
    },
    {
      "inputs": [],
      "name": "getProviderIds",
      "outputs": [
        {
          "internalType": "uint256",
          "name": "",
          "type": "uint256"
        }
      ],
      "stateMutability": "view",
      "type": "function",
      "constant": true
    },
    {
      "inputs": [],
      "name": "getBridgeAddress",
      "outputs": [
        {
          "internalType": "address",
          "name": "",
          "type": "address"
        }
      ],
      "stateMutability": "view",
      "type": "function",
      "constant": true
    },
    {
      "inputs": [],
      "name": "getMinCollateral",
      "outputs": [
        {
          "internalType": "uint256",
          "name": "",
          "type": "uint256"
        }
      ],
      "stateMutability": "view",
      "type": "function",
      "constant": true
    },
    {
      "inputs": [],
      "name": "getMinPegIn",
      "outputs": [
        {
          "internalType": "uint256",
          "name": "",
          "type": "uint256"
        }
      ],
      "stateMutability": "view",
      "type": "function",
      "constant": true
    },
    {
      "inputs": [],
      "name": "getRewardPercentage",
      "outputs": [
        {
          "internalType": "uint256",
          "name": "",
          "type": "uint256"
        }
      ],
      "stateMutability": "view",
      "type": "function",
      "constant": true
    },
    {
      "inputs": [],
      "name": "getResignDelayBlocks",
      "outputs": [
        {
          "internalType": "uint256",
          "name": "",
          "type": "uint256"
        }
      ],
      "stateMutability": "view",
      "type": "function",
      "constant": true
    },
    {
      "inputs": [],
      "name": "getDustThreshold",
      "outputs": [
        {
          "internalType": "uint256",
          "name": "",
          "type": "uint256"
        }
      ],
      "stateMutability": "view",
      "type": "function",
      "constant": true
    },
    {
      "inputs": [
        {
          "internalType": "bytes32",
          "name": "quoteHash",
          "type": "bytes32"
        }
      ],
      "name": "getRegisteredPegOutQuote",
      "outputs": [
        {
          "components": [
            {
              "internalType": "address",
              "name": "lbcAddress",
              "type": "address"
            },
            {
              "internalType": "address",
              "name": "lpRskAddress",
              "type": "address"
            },
            {
              "internalType": "bytes",
              "name": "btcRefundAddress",
              "type": "bytes"
            },
            {
              "internalType": "address",
              "name": "rskRefundAddress",
              "type": "address"
            },
            {
              "internalType": "bytes",
              "name": "lpBtcAddress",
              "type": "bytes"
            },
            {
              "internalType": "uint256",
              "name": "callFee",
              "type": "uint256"
            },
            {
              "internalType": "uint256",
              "name": "penaltyFee",
              "type": "uint256"
            },
            {
              "internalType": "int64",
              "name": "nonce",
              "type": "int64"
            },
            {
              "internalType": "bytes",
              "name": "deposityAddress",
              "type": "bytes"
            },
            {
              "internalType": "uint256",
              "name": "value",
              "type": "uint256"
            },
            {
              "internalType": "uint32",
              "name": "agreementTimestamp",
              "type": "uint32"
            },
            {
              "internalType": "uint32",
              "name": "depositDateLimit",
              "type": "uint32"
            },
            {
              "internalType": "uint16",
              "name": "depositConfirmations",
              "type": "uint16"
            },
            {
              "internalType": "uint16",
              "name": "transferConfirmations",
              "type": "uint16"
            },
            {
              "internalType": "uint32",
              "name": "transferTime",
              "type": "uint32"
            },
            {
              "internalType": "uint32",
              "name": "expireDate",
              "type": "uint32"
            },
            {
              "internalType": "uint32",
              "name": "expireBlock",
              "type": "uint32"
            },
            {
              "internalType": "uint256",
              "name": "productFeeAmount",
              "type": "uint256"
            },
            {
              "internalType": "uint256",
              "name": "gasFee",
              "type": "uint256"
            }
          ],
          "internalType": "struct QuotesV2.PegOutQuote",
          "name": "",
          "type": "tuple"
        }
      ],
      "stateMutability": "view",
      "type": "function",
      "constant": true
    },
    {
      "inputs": [
        {
          "internalType": "bytes32",
          "name": "quoteHash",
          "type": "bytes32"
        }
      ],
      "name": "isPegOutQuoteCompleted",
      "outputs": [
        {
          "internalType": "bool",
          "name": "",
          "type": "bool"
        }
      ],
      "stateMutability": "view",
      "type": "function",
      "constant": true
    },
    {
      "inputs": [
        {
          "internalType": "address",
          "name": "addr",
          "type": "address"
        }
      ],
      "name": "isOperational",
      "outputs": [
        {
          "internalType": "bool",
          "name": "",
          "type": "bool"
        }
      ],
      "stateMutability": "view",
      "type": "function",
      "constant": true
    },
    {
      "inputs": [
        {
          "internalType": "address",
          "name": "addr",
          "type": "address"
        }
      ],
      "name": "isOperationalForPegout",
      "outputs": [
        {
          "internalType": "bool",
          "name": "",
          "type": "bool"
        }
      ],
      "stateMutability": "view",
      "type": "function",
      "constant": true
    },
    {
      "inputs": [
        {
          "internalType": "string",
          "name": "_name",
          "type": "string"
        },
        {
          "internalType": "string",
          "name": "_apiBaseUrl",
          "type": "string"
        },
        {
          "internalType": "bool",
          "name": "_status",
          "type": "bool"
        },
        {
          "internalType": "string",
          "name": "_providerType",
          "type": "string"
        }
      ],
      "name": "register",
      "outputs": [
        {
          "internalType": "uint256",
          "name": "",
          "type": "uint256"
        }
      ],
      "stateMutability": "payable",
      "type": "function",
      "payable": true
    },
    {
      "inputs": [
        {
          "internalType": "uint256[]",
          "name": "providerIds",
          "type": "uint256[]"
        }
      ],
      "name": "getProviders",
      "outputs": [
        {
          "components": [
            {
              "internalType": "uint256",
              "name": "id",
              "type": "uint256"
            },
            {
              "internalType": "address",
              "name": "provider",
              "type": "address"
            },
            {
              "internalType": "string",
              "name": "name",
              "type": "string"
            },
            {
              "internalType": "string",
              "name": "apiBaseUrl",
              "type": "string"
            },
            {
              "internalType": "bool",
              "name": "status",
              "type": "bool"
            },
            {
              "internalType": "string",
              "name": "providerType",
              "type": "string"
            }
          ],
          "internalType": "struct LiquidityBridgeContractV2.LiquidityProvider[]",
          "name": "",
          "type": "tuple[]"
        }
      ],
      "stateMutability": "view",
      "type": "function",
      "constant": true
    },
    {
      "inputs": [],
      "name": "addCollateral",
      "outputs": [],
      "stateMutability": "payable",
      "type": "function",
      "payable": true
    },
    {
      "inputs": [],
      "name": "addPegoutCollateral",
      "outputs": [],
      "stateMutability": "payable",
      "type": "function",
      "payable": true
    },
    {
      "inputs": [],
      "name": "deposit",
      "outputs": [],
      "stateMutability": "payable",
      "type": "function",
      "payable": true
    },
    {
      "inputs": [
        {
          "internalType": "uint256",
          "name": "amount",
          "type": "uint256"
        }
      ],
      "name": "withdraw",
      "outputs": [],
      "stateMutability": "nonpayable",
      "type": "function"
    },
    {
      "inputs": [],
      "name": "withdrawCollateral",
      "outputs": [],
      "stateMutability": "nonpayable",
      "type": "function"
    },
    {
      "inputs": [],
      "name": "withdrawPegoutCollateral",
      "outputs": [],
      "stateMutability": "nonpayable",
      "type": "function"
    },
    {
      "inputs": [],
      "name": "resign",
      "outputs": [],
      "stateMutability": "nonpayable",
      "type": "function"
    },
    {
      "inputs": [
        {
          "internalType": "address",
          "name": "addr",
          "type": "address"
        }
      ],
      "name": "getCollateral",
      "outputs": [
        {
          "internalType": "uint256",
          "name": "",
          "type": "uint256"
        }
      ],
      "stateMutability": "view",
      "type": "function",
      "constant": true
    },
    {
      "inputs": [
        {
          "internalType": "address",
          "name": "addr",
          "type": "address"
        }
      ],
      "name": "getPegoutCollateral",
      "outputs": [
        {
          "internalType": "uint256",
          "name": "",
          "type": "uint256"
        }
      ],
      "stateMutability": "view",
      "type": "function",
      "constant": true
    },
    {
      "inputs": [
        {
          "internalType": "address",
          "name": "addr",
          "type": "address"
        }
      ],
      "name": "getBalance",
      "outputs": [
        {
          "internalType": "uint256",
          "name": "",
          "type": "uint256"
        }
      ],
      "stateMutability": "view",
      "type": "function",
      "constant": true
    },
    {
      "inputs": [
        {
          "components": [
            {
              "internalType": "bytes20",
              "name": "fedBtcAddress",
              "type": "bytes20"
            },
            {
              "internalType": "address",
              "name": "lbcAddress",
              "type": "address"
            },
            {
              "internalType": "address",
              "name": "liquidityProviderRskAddress",
              "type": "address"
            },
            {
              "internalType": "bytes",
              "name": "btcRefundAddress",
              "type": "bytes"
            },
            {
              "internalType": "address payable",
              "name": "rskRefundAddress",
              "type": "address"
            },
            {
              "internalType": "bytes",
              "name": "liquidityProviderBtcAddress",
              "type": "bytes"
            },
            {
              "internalType": "uint256",
              "name": "callFee",
              "type": "uint256"
            },
            {
              "internalType": "uint256",
              "name": "penaltyFee",
              "type": "uint256"
            },
            {
              "internalType": "address",
              "name": "contractAddress",
              "type": "address"
            },
            {
              "internalType": "bytes",
              "name": "data",
              "type": "bytes"
            },
            {
              "internalType": "uint32",
              "name": "gasLimit",
              "type": "uint32"
            },
            {
              "internalType": "int64",
              "name": "nonce",
              "type": "int64"
            },
            {
              "internalType": "uint256",
              "name": "value",
              "type": "uint256"
            },
            {
              "internalType": "uint32",
              "name": "agreementTimestamp",
              "type": "uint32"
            },
            {
              "internalType": "uint32",
              "name": "timeForDeposit",
              "type": "uint32"
            },
            {
              "internalType": "uint32",
              "name": "callTime",
              "type": "uint32"
            },
            {
              "internalType": "uint16",
              "name": "depositConfirmations",
              "type": "uint16"
            },
            {
              "internalType": "bool",
              "name": "callOnRegister",
              "type": "bool"
            },
            {
              "internalType": "uint256",
              "name": "productFeeAmount",
              "type": "uint256"
            },
            {
              "internalType": "uint256",
              "name": "gasFee",
              "type": "uint256"
            }
          ],
          "internalType": "struct QuotesV2.PeginQuote",
          "name": "quote",
          "type": "tuple"
        }
      ],
      "name": "callForUser",
      "outputs": [
        {
          "internalType": "bool",
          "name": "",
          "type": "bool"
        }
      ],
      "stateMutability": "payable",
      "type": "function",
      "payable": true
    },
    {
      "inputs": [
        {
          "components": [
            {
              "internalType": "bytes20",
              "name": "fedBtcAddress",
              "type": "bytes20"
            },
            {
              "internalType": "address",
              "name": "lbcAddress",
              "type": "address"
            },
            {
              "internalType": "address",
              "name": "liquidityProviderRskAddress",
              "type": "address"
            },
            {
              "internalType": "bytes",
              "name": "btcRefundAddress",
              "type": "bytes"
            },
            {
              "internalType": "address payable",
              "name": "rskRefundAddress",
              "type": "address"
            },
            {
              "internalType": "bytes",
              "name": "liquidityProviderBtcAddress",
              "type": "bytes"
            },
            {
              "internalType": "uint256",
              "name": "callFee",
              "type": "uint256"
            },
            {
              "internalType": "uint256",
              "name": "penaltyFee",
              "type": "uint256"
            },
            {
              "internalType": "address",
              "name": "contractAddress",
              "type": "address"
            },
            {
              "internalType": "bytes",
              "name": "data",
              "type": "bytes"
            },
            {
              "internalType": "uint32",
              "name": "gasLimit",
              "type": "uint32"
            },
            {
              "internalType": "int64",
              "name": "nonce",
              "type": "int64"
            },
            {
              "internalType": "uint256",
              "name": "value",
              "type": "uint256"
            },
            {
              "internalType": "uint32",
              "name": "agreementTimestamp",
              "type": "uint32"
            },
            {
              "internalType": "uint32",
              "name": "timeForDeposit",
              "type": "uint32"
            },
            {
              "internalType": "uint32",
              "name": "callTime",
              "type": "uint32"
            },
            {
              "internalType": "uint16",
              "name": "depositConfirmations",
              "type": "uint16"
            },
            {
              "internalType": "bool",
              "name": "callOnRegister",
              "type": "bool"
            },
            {
              "internalType": "uint256",
              "name": "productFeeAmount",
              "type": "uint256"
            },
            {
              "internalType": "uint256",
              "name": "gasFee",
              "type": "uint256"
            }
          ],
          "internalType": "struct QuotesV2.PeginQuote",
          "name": "quote",
          "type": "tuple"
        },
        {
          "internalType": "bytes",
          "name": "signature",
          "type": "bytes"
        },
        {
          "internalType": "bytes",
          "name": "btcRawTransaction",
          "type": "bytes"
        },
        {
          "internalType": "bytes",
          "name": "partialMerkleTree",
          "type": "bytes"
        },
        {
          "internalType": "uint256",
          "name": "height",
          "type": "uint256"
        }
      ],
      "name": "registerPegIn",
      "outputs": [
        {
          "internalType": "int256",
          "name": "",
          "type": "int256"
        }
      ],
      "stateMutability": "nonpayable",
      "type": "function"
    },
    {
      "inputs": [
        {
          "components": [
            {
              "internalType": "address",
              "name": "lbcAddress",
              "type": "address"
            },
            {
              "internalType": "address",
              "name": "lpRskAddress",
              "type": "address"
            },
            {
              "internalType": "bytes",
              "name": "btcRefundAddress",
              "type": "bytes"
            },
            {
              "internalType": "address",
              "name": "rskRefundAddress",
              "type": "address"
            },
            {
              "internalType": "bytes",
              "name": "lpBtcAddress",
              "type": "bytes"
            },
            {
              "internalType": "uint256",
              "name": "callFee",
              "type": "uint256"
            },
            {
              "internalType": "uint256",
              "name": "penaltyFee",
              "type": "uint256"
            },
            {
              "internalType": "int64",
              "name": "nonce",
              "type": "int64"
            },
            {
              "internalType": "bytes",
              "name": "deposityAddress",
              "type": "bytes"
            },
            {
              "internalType": "uint256",
              "name": "value",
              "type": "uint256"
            },
            {
              "internalType": "uint32",
              "name": "agreementTimestamp",
              "type": "uint32"
            },
            {
              "internalType": "uint32",
              "name": "depositDateLimit",
              "type": "uint32"
            },
            {
              "internalType": "uint16",
              "name": "depositConfirmations",
              "type": "uint16"
            },
            {
              "internalType": "uint16",
              "name": "transferConfirmations",
              "type": "uint16"
            },
            {
              "internalType": "uint32",
              "name": "transferTime",
              "type": "uint32"
            },
            {
              "internalType": "uint32",
              "name": "expireDate",
              "type": "uint32"
            },
            {
              "internalType": "uint32",
              "name": "expireBlock",
              "type": "uint32"
            },
            {
              "internalType": "uint256",
              "name": "productFeeAmount",
              "type": "uint256"
            },
            {
              "internalType": "uint256",
              "name": "gasFee",
              "type": "uint256"
            }
          ],
          "internalType": "struct QuotesV2.PegOutQuote",
          "name": "quote",
          "type": "tuple"
        },
        {
          "internalType": "bytes",
          "name": "signature",
          "type": "bytes"
        }
      ],
      "name": "depositPegout",
      "outputs": [],
      "stateMutability": "payable",
      "type": "function",
      "payable": true
    },
    {
      "inputs": [
        {
          "internalType": "bytes32",
          "name": "quoteHash",
          "type": "bytes32"
        }
      ],
      "name": "refundUserPegOut",
      "outputs": [],
      "stateMutability": "nonpayable",
      "type": "function"
    },
    {
      "inputs": [
        {
          "internalType": "bytes32",
          "name": "quoteHash",
          "type": "bytes32"
        },
        {
          "internalType": "bytes",
          "name": "btcTx",
          "type": "bytes"
        },
        {
          "internalType": "bytes32",
          "name": "btcBlockHeaderHash",
          "type": "bytes32"
        },
        {
          "internalType": "uint256",
          "name": "partialMerkleTree",
          "type": "uint256"
        },
        {
          "internalType": "bytes32[]",
          "name": "merkleBranchHashes",
          "type": "bytes32[]"
        }
      ],
      "name": "refundPegOut",
      "outputs": [],
      "stateMutability": "nonpayable",
      "type": "function"
    },
    {
      "inputs": [
        {
          "components": [
            {
              "internalType": "bytes20",
              "name": "fedBtcAddress",
              "type": "bytes20"
            },
            {
              "internalType": "address",
              "name": "lbcAddress",
              "type": "address"
            },
            {
              "internalType": "address",
              "name": "liquidityProviderRskAddress",
              "type": "address"
            },
            {
              "internalType": "bytes",
              "name": "btcRefundAddress",
              "type": "bytes"
            },
            {
              "internalType": "address payable",
              "name": "rskRefundAddress",
              "type": "address"
            },
            {
              "internalType": "bytes",
              "name": "liquidityProviderBtcAddress",
              "type": "bytes"
            },
            {
              "internalType": "uint256",
              "name": "callFee",
              "type": "uint256"
            },
            {
              "internalType": "uint256",
              "name": "penaltyFee",
              "type": "uint256"
            },
            {
              "internalType": "address",
              "name": "contractAddress",
              "type": "address"
            },
            {
              "internalType": "bytes",
              "name": "data",
              "type": "bytes"
            },
            {
              "internalType": "uint32",
              "name": "gasLimit",
              "type": "uint32"
            },
            {
              "internalType": "int64",
              "name": "nonce",
              "type": "int64"
            },
            {
              "internalType": "uint256",
              "name": "value",
              "type": "uint256"
            },
            {
              "internalType": "uint32",
              "name": "agreementTimestamp",
              "type": "uint32"
            },
            {
              "internalType": "uint32",
              "name": "timeForDeposit",
              "type": "uint32"
            },
            {
              "internalType": "uint32",
              "name": "callTime",
              "type": "uint32"
            },
            {
              "internalType": "uint16",
              "name": "depositConfirmations",
              "type": "uint16"
            },
            {
              "internalType": "bool",
              "name": "callOnRegister",
              "type": "bool"
            },
            {
              "internalType": "uint256",
              "name": "productFeeAmount",
              "type": "uint256"
            },
            {
              "internalType": "uint256",
              "name": "gasFee",
              "type": "uint256"
            }
          ],
          "internalType": "struct QuotesV2.PeginQuote",
          "name": "quote",
          "type": "tuple"
        },
        {
          "internalType": "bytes",
          "name": "depositAddress",
          "type": "bytes"
        }
      ],
      "name": "validatePeginDepositAddress",
      "outputs": [
        {
          "internalType": "bool",
          "name": "",
          "type": "bool"
        }
      ],
      "stateMutability": "view",
      "type": "function",
      "constant": true
    },
    {
      "inputs": [
        {
          "components": [
            {
              "internalType": "bytes20",
              "name": "fedBtcAddress",
              "type": "bytes20"
            },
            {
              "internalType": "address",
              "name": "lbcAddress",
              "type": "address"
            },
            {
              "internalType": "address",
              "name": "liquidityProviderRskAddress",
              "type": "address"
            },
            {
              "internalType": "bytes",
              "name": "btcRefundAddress",
              "type": "bytes"
            },
            {
              "internalType": "address payable",
              "name": "rskRefundAddress",
              "type": "address"
            },
            {
              "internalType": "bytes",
              "name": "liquidityProviderBtcAddress",
              "type": "bytes"
            },
            {
              "internalType": "uint256",
              "name": "callFee",
              "type": "uint256"
            },
            {
              "internalType": "uint256",
              "name": "penaltyFee",
              "type": "uint256"
            },
            {
              "internalType": "address",
              "name": "contractAddress",
              "type": "address"
            },
            {
              "internalType": "bytes",
              "name": "data",
              "type": "bytes"
            },
            {
              "internalType": "uint32",
              "name": "gasLimit",
              "type": "uint32"
            },
            {
              "internalType": "int64",
              "name": "nonce",
              "type": "int64"
            },
            {
              "internalType": "uint256",
              "name": "value",
              "type": "uint256"
            },
            {
              "internalType": "uint32",
              "name": "agreementTimestamp",
              "type": "uint32"
            },
            {
              "internalType": "uint32",
              "name": "timeForDeposit",
              "type": "uint32"
            },
            {
              "internalType": "uint32",
              "name": "callTime",
              "type": "uint32"
            },
            {
              "internalType": "uint16",
              "name": "depositConfirmations",
              "type": "uint16"
            },
            {
              "internalType": "bool",
              "name": "callOnRegister",
              "type": "bool"
            },
            {
              "internalType": "uint256",
              "name": "productFeeAmount",
              "type": "uint256"
            },
            {
              "internalType": "uint256",
              "name": "gasFee",
              "type": "uint256"
            }
          ],
          "internalType": "struct QuotesV2.PeginQuote",
          "name": "quote",
          "type": "tuple"
        }
      ],
      "name": "hashQuote",
      "outputs": [
        {
          "internalType": "bytes32",
          "name": "",
          "type": "bytes32"
        }
      ],
      "stateMutability": "view",
      "type": "function",
      "constant": true
    },
    {
      "inputs": [
        {
          "components": [
            {
              "internalType": "address",
              "name": "lbcAddress",
              "type": "address"
            },
            {
              "internalType": "address",
              "name": "lpRskAddress",
              "type": "address"
            },
            {
              "internalType": "bytes",
              "name": "btcRefundAddress",
              "type": "bytes"
            },
            {
              "internalType": "address",
              "name": "rskRefundAddress",
              "type": "address"
            },
            {
              "internalType": "bytes",
              "name": "lpBtcAddress",
              "type": "bytes"
            },
            {
              "internalType": "uint256",
              "name": "callFee",
              "type": "uint256"
            },
            {
              "internalType": "uint256",
              "name": "penaltyFee",
              "type": "uint256"
            },
            {
              "internalType": "int64",
              "name": "nonce",
              "type": "int64"
            },
            {
              "internalType": "bytes",
              "name": "deposityAddress",
              "type": "bytes"
            },
            {
              "internalType": "uint256",
              "name": "value",
              "type": "uint256"
            },
            {
              "internalType": "uint32",
              "name": "agreementTimestamp",
              "type": "uint32"
            },
            {
              "internalType": "uint32",
              "name": "depositDateLimit",
              "type": "uint32"
            },
            {
              "internalType": "uint16",
              "name": "depositConfirmations",
              "type": "uint16"
            },
            {
              "internalType": "uint16",
              "name": "transferConfirmations",
              "type": "uint16"
            },
            {
              "internalType": "uint32",
              "name": "transferTime",
              "type": "uint32"
            },
            {
              "internalType": "uint32",
              "name": "expireDate",
              "type": "uint32"
            },
            {
              "internalType": "uint32",
              "name": "expireBlock",
              "type": "uint32"
            },
            {
              "internalType": "uint256",
              "name": "productFeeAmount",
              "type": "uint256"
            },
            {
              "internalType": "uint256",
              "name": "gasFee",
              "type": "uint256"
            }
          ],
          "internalType": "struct QuotesV2.PegOutQuote",
          "name": "quote",
          "type": "tuple"
        }
      ],
      "name": "hashPegoutQuote",
      "outputs": [
        {
          "internalType": "bytes32",
          "name": "",
          "type": "bytes32"
        }
      ],
      "stateMutability": "view",
      "type": "function",
      "constant": true
    }
  ],
  "bytecode": "0x608060405234801561001057600080fd5b50615f5d80620000216000396000f3fe60806040526004361061027f5760003560e01c806304ade855146102d35780630a7bf57a146102ff5780630a9cb4a71461031457806322140009146103335780632490fe36146103535780632d67952c146103955780632e1a7d4d146103b557806333f07ad3146103d557806335510a7d146103ea57806341705518146103ff578063418663a2146104125780634198687e1461043c578063457385f2146104445780634d0ec9711461047457806354015ee01461049457806359c153be146104c757806363c67135146104dc578063668dbd83146104f257806369652fcf1461051f578063710738b114610534578063715018a61461056157806372cbf4e81461057657806379b9550b146105965780637aefa8c2146105b65780638490a8df146105c95780638beb537a146105df5780638d597939146105f25780638da5cb5b146106095780638f91797d1461061e5780639b56d6c91461063e5780639cd6557f146106745780639d79b59b146106895780639e816999146106b2578063a4a5ba50146106ba578063a93bb247146106cf578063ae76ce86146106e6578063ae93b67b146106fd578063b3a849aa14610714578063bd519eff14610734578063bd5798c31461076a578063be6de4eb1461078c578063c525cdd8146107a1578063c7213163146107b8578063cfb92f0a146107d3578063d0e30db0146107ea578063d6c70de8146107f2578063e1de16c614610812578063e30e6ea314610828578063e78cea921461083e578063e830b6901461085e578063e8fcce7114610873578063e90d2ddb14610889578063f2fde38b146108b6578063f8b2cb4f146108d6578063fa88dcde1461090c578063fb32c5081461092157600080fd5b366102ce576097546001600160a01b031633146102cc5760405162461bcd60e51b81526020600482015260066024820152654c424330303760d01b60448201526064015b60405180910390fd5b005b600080fd5b3480156102df57600080fd5b506102e8600181565b60405160ff90911681526020015b60405180910390f35b34801561030b57600080fd5b506102e8600281565b34801561032057600080fd5b5060a2545b6040519081526020016102f6565b34801561033f57600080fd5b5061032561034e366004614b16565b61093f565b34801561035f57600080fd5b506102cc61036e366004614b4a565b60a89190915560a980546001600160a01b0319166001600160a01b03909216919091179055565b3480156103a157600080fd5b506103256103b0366004614d4e565b610950565b3480156103c157600080fd5b506102cc6103d0366004614e02565b611162565b3480156103e157600080fd5b5060a154610325565b3480156103f657600080fd5b506102cc61125a565b61032561040d366004614e1b565b611388565b34801561041e57600080fd5b506104296101301981565b60405160019190910b81526020016102f6565b6102cc6118ba565b34801561045057600080fd5b5061046461045f366004614eb7565b61193f565b60405190151581526020016102f6565b34801561048057600080fd5b5061046461048f366004614eb7565b611975565b3480156104a057600080fd5b506104646104af366004614e02565b600090815260a7602052604090206001015460ff1690565b3480156104d357600080fd5b506102cc6119ab565b3480156104e857600080fd5b5061032560a85481565b3480156104fe57600080fd5b5061051261050d366004614ef7565b611ad9565b6040516102f69190614fe4565b34801561052b57600080fd5b506102cc611e5a565b34801561054057600080fd5b5060a954610554906001600160a01b031681565b6040516102f691906150b3565b34801561056d57600080fd5b506102cc611f05565b34801561058257600080fd5b506102cc6105913660046150c7565b611f19565b3480156105a257600080fd5b506104646105b13660046150ec565b611fb3565b6104646105c436600461514f565b61211f565b3480156105d557600080fd5b5061032560a25481565b6102cc6105ed366004615183565b612431565b3480156105fe57600080fd5b5061042961012c1981565b34801561061557600080fd5b506105546128ea565b34801561062a57600080fd5b506102cc610639366004614e02565b6128f9565b34801561064a57600080fd5b50610325610659366004614eb7565b6001600160a01b031660009081526099602052604090205490565b34801561068057600080fd5b506102e8600081565b34801561069557600080fd5b5061069f6188b881565b60405161ffff90911681526020016102f6565b6102cc612c26565b3480156106c657600080fd5b50610325600181565b3480156106db57600080fd5b5061042961012d1981565b3480156106f257600080fd5b5061042961012b1981565b34801561070957600080fd5b506104296103831981565b34801561072057600080fd5b5061032561072f36600461514f565b612ca1565b34801561074057600080fd5b5061032561074f366004614eb7565b6001600160a01b03166000908152609a602052604090205490565b34801561077657600080fd5b5060a054600160201b900463ffffffff16610325565b34801561079857600080fd5b50610325600081565b3480156107ad57600080fd5b5061042961012e1981565b3480156107c457600080fd5b5060a05463ffffffff16610325565b3480156107df57600080fd5b5061042961012f1981565b6102cc612cac565b3480156107fe57600080fd5b506102cc61080d3660046151b9565b612cdb565b34801561081e57600080fd5b5061069f6108fc81565b34801561083457600080fd5b5061042960c71981565b34801561084a57600080fd5b50609754610554906001600160a01b031681565b34801561086a57600080fd5b50609e54610325565b34801561087f57600080fd5b5061042960631981565b34801561089557600080fd5b506108a96108a4366004614e02565b6137ce565b6040516102f6919061528f565b3480156108c257600080fd5b506102cc6108d1366004614eb7565b613b1f565b3480156108e257600080fd5b506103256108f1366004614eb7565b6001600160a01b031660009081526098602052604090205490565b34801561091857600080fd5b50609f54610325565b34801561092d57600080fd5b506097546001600160a01b0316610554565b600061094a82613b95565b92915050565b600061095a613c64565b600061096587613cbd565b600081815260a56020526040902054909150600160ff909116111561099c5760405162461bcd60e51b81526004016102c390615429565b60408088015190516301a86b5560e41b815273__SignatureValidator____________________91631a86b550916109db919085908b90600401615449565b602060405180830381865af41580156109f8573d6000803e3d6000fd5b505050506040513d601f19601f82011682018060405250810190610a1c9190615470565b610a385760405162461bcd60e51b81526004016102c39061548d565b637fffffff8310610a745760405162461bcd60e51b815260206004820152600660248201526504c42433033360d41b60448201526064016102c3565b6000610a838887878786613ef0565b905061012f8101610abf5760405162461bcd60e51b81526020600482015260066024820152654c424330333160d01b60448201526064016102c3565b61012e8101610af95760405162461bcd60e51b815260206004820152600660248201526526212198199960d11b60448201526064016102c3565b6101308101610b335760405162461bcd60e51b81526020600482015260066024820152654c424330333360d01b60448201526064016102c3565b6101318101610b6d5760405162461bcd60e51b8152602060048201526006602482015265131090cc0ccd60d21b60448201526064016102c3565b6103848101610ba75760405162461bcd60e51b81526020600482015260066024820152654c424330333560d01b60448201526064016102c3565b6000811380610bb7575060c71981145b80610bc3575060631981145b610bf85760405162461bcd60e51b815260206004820152600660248201526526212198199b60d11b60448201526064016102c3565b6000828152609c6020526040902054610c1b908990839063ffffffff1687613fc2565b15610cec5760e08801516040808a01516001600160a01b031660009081526099602052908120549091610c4d91614323565b905080609960008b604001516001600160a01b03166001600160a01b031681526020019081526020016000206000828254610c8891906154c3565b90915550506040808a01519051600080516020615ee883398151915291610cb291849087906154d6565b60405180910390a160a054600090606490610cd39063ffffffff16846154f7565b610cdd9190615524565b9050610ce9338261433b565b50505b60c719811480610cfd575060631981145b15610d7157600082815260a560209081526040808320805460ff19166002179055609c825291829020805464ffffffffff1916905581518481529081018390527ffb209329d5ab5b7bcb2e92f45f4534814b6e68fa5ad1f171dabc1d17d26f0ebe910160405180910390a1915061114f9050565b60405163fa6ea3e760e01b8152819073__QuotesV2______________________________9063fa6ea3e790610dac908c9085906004016156a4565b60006040518083038186803b158015610dc457600080fd5b505af4158015610dd8573d6000803e3d6000fd5b5050506000848152609c602052604090205463ffffffff16159050610f43576000838152609c6020526040812054600160201b900460ff1615610e4a57610e43828b61026001518c60c001518d6101800151610e3491906156c6565b610e3e91906156c6565b614323565b9050610e66565b610e63828b61026001518c60c00151610e3e91906156c6565b90505b610e748a604001518261433b565b6000610e8082846154c3565b9050610e918b61024001518661439a565b60a154811115610f3c5760808b01516040516000916001600160a01b0316906108fc90849084818181858888f193505050503d8060008114610eef576040519150601f19603f3d011682016040523d82523d6000602084013e610ef4565b606091505b50509050600080516020615ec88339815191528c60800151838389604051610f1f94939291906156d9565b60405180910390a180610f3a57610f3a8c604001518361433b565b505b50506110e8565b61022089015181908015610f5c57508961018001518110155b1561104e5760008a61010001516001600160a01b03168b610140015163ffffffff168c61018001518d6101200151604051610f979190615701565b600060405180830381858888f193505050503d8060008114610fd5576040519150601f19603f3d011682016040523d82523d6000602084013e610fda565b606091505b505090508a61010001516001600160a01b0316336001600160a01b0316600080516020615f088339815191528d61014001518e61018001518f6101200151868b60405161102b95949392919061571d565b60405180910390a3801561104c576101808b015161104990836154c3565b91505b505b60a1548111156110e65760808a01516040516000916001600160a01b0316906108fc90849084818181858888f193505050503d80600081146110ac576040519150601f19603f3d011682016040523d82523d6000602084013e6110b1565b606091505b50509050600080516020615ec88339815191528b608001518383886040516110dc94939291906156d9565b60405180910390a1505b505b600083815260a560209081526040808320805460ff19166002179055609c825291829020805464ffffffffff19169055905183815284917f0629ae9d1dc61501b0ca90670a9a9b88daaf7504b54537b53e1219de794c63d2910160405180910390a2509150505b6111596001606555565b95945050505050565b336000908152609860205260409020548111156111915760405162461bcd60e51b81526004016102c390615756565b33600090815260986020526040812080548392906111b09084906154c3565b9091555050604051600090339083908381818185875af1925050503d80600081146111f7576040519150601f19603f3d011682016040523d82523d6000602084013e6111fc565b606091505b505090508061121d5760405162461bcd60e51b81526004016102c390615776565b7f7fcf532c15f0a6db0bd6d0e038bea71d30d808c7d98cb3bf7268a95bf5081b65338360405161124e929190615796565b60405180910390a15050565b336000908152609d60205260409020546112865760405162461bcd60e51b81526004016102c3906157af565b60a054336000908152609d6020526040902054600160201b90910463ffffffff16906112b290436154c3565b10156112d05760405162461bcd60e51b81526004016102c3906157cf565b336000818152609a60209081526040808320805490849055609d9092528083208390555190929083908381818185875af1925050503d8060008114611331576040519150601f19603f3d011682016040523d82523d6000602084013e611336565b606091505b50509050806113575760405162461bcd60e51b81526004016102c390615776565b7ffc72299650b405e7b0480ca8fb0fb3948fb10a77ac02f797cc9de1f4aaa55db7338360405161124e929190615796565b60003233146113c25760405162461bcd60e51b81526020600482015260066024820152654c424330303360d01b60448201526064016102c3565b60008551116113fc5760405162461bcd60e51b815260206004820152600660248201526504c42433031360d41b60448201526064016102c3565b60008451116114365760405162461bcd60e51b81526020600482015260066024820152654c424330313760d01b60448201526064016102c3565b604051602001611445906157ef565b604051602081830303815290604052805190602001208260405160200161146c9190615701565b6040516020818303038152906040528051906020012014806114d7575060405160200161149890615800565b60405160208183030381529060405280519060200120826040516020016114bf9190615701565b60405160208183030381529060405280519060200120145b8061152f5750604051630c4dee8d60e31b602082015260240160405160208183030381529060405280519060200120826040516020016115179190615701565b60405160208183030381529060405280519060200120145b6115645760405162461bcd60e51b815260206004820152600660248201526509884866062760d31b60448201526064016102c3565b3360009081526099602052604090205415801561158e5750336000908152609a6020526040902054155b6115c35760405162461bcd60e51b815260206004820152600660248201526504c42433037360d41b60448201526064016102c3565b336000908152609d6020526040902054156116095760405162461bcd60e51b81526020600482015260066024820152654c424330303960d01b60448201526064016102c3565b604051602001611618906157ef565b604051602081830303815290604052805190602001208260405160200161163f9190615701565b604051602081830303815290604052805190602001200361169357609e5434101561167c5760405162461bcd60e51b81526004016102c390615812565b336000908152609960205260409020349055611798565b6040516020016116a290615800565b60405160208183030381529060405280519060200120826040516020016116c99190615701565b604051602081830303815290604052805190602001200361171d57609e543410156117065760405162461bcd60e51b81526004016102c390615812565b336000908152609a60205260409020349055611798565b609e5461172b9060026154f7565b34101561174a5760405162461bcd60e51b81526004016102c390615812565b6000611757600234615524565b9050611764600234615832565b15611779576117748160016156c6565b61177b565b805b33600090815260996020908152604080832093909355609a905220555b60a280549060006117a883615846565b90915550506040805160c08101825260a2548082523360208084019182528385018a8152606085018a9052881515608086015260a085018890526000938452609b909152939091208251815590516001820180546001600160a01b0319166001600160a01b039092169190911790559151909190600282019061182b90826158e8565b506060820151600382019061184090826158e8565b50608082015160048201805460ff191691151591909117905560a0820151600582019061186d90826158e8565b505060a254604080519182523460208301523392507fa9d44d6e13bb3fee938c3f66d1103e91f8dc6b12d4405a55eea558e8f275aa6e910160405180910390a25060a2545b949350505050565b6118c33361446c565b6118df5760405162461bcd60e51b81526004016102c3906159a7565b336000908152609a6020526040812080543492906118fe9084906156c6565b90915550506040517f873d5a2949567203ad4f0cceef41c2813c87b9a397ee777d87a8acdaec2c6fa9906119359033903490615796565b60405180910390a1565b600061194a826144ab565b801561094a5750609e546001600160a01b038316600090815260996020526040902054101592915050565b60006119808261446c565b801561094a5750609e546001600160a01b0383166000908152609a6020526040902054101592915050565b336000908152609d60205260409020546119d75760405162461bcd60e51b81526004016102c3906157af565b60a054336000908152609d6020526040902054600160201b90910463ffffffff1690611a0390436154c3565b1015611a215760405162461bcd60e51b81526004016102c3906157cf565b336000818152609960209081526040808320805490849055609d9092528083208390555190929083908381818185875af1925050503d8060008114611a82576040519150601f19603f3d011682016040523d82523d6000602084013e611a87565b606091505b5050905080611aa85760405162461bcd60e51b81526004016102c390615776565b7fa8e76b822fc682be77f3b1c822ea81f6bda5aed92ba82e6873bfd889f328d1d2338360405161124e929190615796565b6060600082516001600160401b03811115611af657611af66147fd565b604051908082528060200260200182016040528015611b6b57816020015b611b586040518060c001604052806000815260200160006001600160a01b031681526020016060815260200160608152602001600015158152602001606081525090565b815260200190600190039081611b145790505b5090506000805b8451811015611e51576000858281518110611b8f57611b8f6159c7565b6020908102919091018101516000818152609b909252604090912060010154909150611bc3906001600160a01b03166144ab565b80611bed57506000818152609b6020526040902060010154611bed906001600160a01b031661446c565b8015611c0a57506000818152609b602052604090206004015460ff165b15611e3e576000818152609b6020908152604091829020825160c0810184528154815260018201546001600160a01b0316928101929092526002810180549293919291840191611c599061585f565b80601f0160208091040260200160405190810160405280929190818152602001828054611c859061585f565b8015611cd25780601f10611ca757610100808354040283529160200191611cd2565b820191906000526020600020905b815481529060010190602001808311611cb557829003601f168201915b50505050508152602001600382018054611ceb9061585f565b80601f0160208091040260200160405190810160405280929190818152602001828054611d179061585f565b8015611d645780601f10611d3957610100808354040283529160200191611d64565b820191906000526020600020905b815481529060010190602001808311611d4757829003601f168201915b5050509183525050600482015460ff1615156020820152600582018054604090920191611d909061585f565b80601f0160208091040260200160405190810160405280929190818152602001828054611dbc9061585f565b8015611e095780601f10611dde57610100808354040283529160200191611e09565b820191906000526020600020905b815481529060010190602001808311611dec57829003601f168201915b505050505081525050848481518110611e2457611e246159c7565b60200260200101819052508280611e3a90615846565b9350505b5080611e4981615846565b915050611b72565b50909392505050565b611e63336144ab565b611e7f5760405162461bcd60e51b81526004016102c3906159a7565b336000908152609d602052604090205415611ec55760405162461bcd60e51b81526020600482015260066024820152654c424330323360d01b60448201526064016102c3565b336000818152609d602052604090819020439055517fa6674aa33cd1b7435474751667707bf05fde99e537d67043ec5f907782577d8691611935916150b3565b611f0d6144ea565b611f176000614549565b565b81611f226128ea565b6001600160a01b0316336001600160a01b03161480611f5a57506000818152609b60205260409020600101546001600160a01b031633145b611f8f5760405162461bcd60e51b81526020600482015260066024820152654c424330303560d01b60448201526064016102c3565b506000918252609b6020526040909120600401805460ff1916911515919091179055565b600080611fbf84612ca1565b8460600151856020015160601b8660a00151604051602001611fe494939291906159dd565b604051602081830303815290604052805190602001209050600081609760009054906101000a90046001600160a01b03166001600160a01b0316631d73d5dd6040518163ffffffff1660e01b8152600401600060405180830381865afa158015612052573d6000803e3d6000fd5b505050506040513d6000823e601f3d908101601f1916820160405261207a9190810190615a6f565b60405160200161208b929190615aa3565b60408051601f198184030181529082905260a454639b02794b60e01b835290925073__BtcUtils______________________________91639b02794b916120de918891869160ff90911690600401615add565b602060405180830381865af41580156120fb573d6000803e3d6000fd5b505050506040513d601f19601f820116820180604052508101906111599190615470565b600061212a336144ab565b6121465760405162461bcd60e51b81526004016102c3906159a7565b61214e613c64565b81604001516001600160a01b0316336001600160a01b03161461219c5760405162461bcd60e51b8152602060048201526006602482015265131090cc0c8d60d21b60448201526064016102c3565b6101808201516040808401516001600160a01b03166000908152609860205220546121c89034906156c6565b10156121e65760405162461bcd60e51b81526004016102c390615756565b60006121f183613cbd565b600081815260a5602052604090205490915060ff161561223c5760405162461bcd60e51b81526020600482015260066024820152654c424330323560d01b60448201526064016102c3565b61224a83604001513461433b565b61014083015161225d906188b890615b15565b63ffffffff165a101561229b5760405162461bcd60e51b815260206004820152600660248201526526212198191b60d11b60448201526064016102c3565b60008361010001516001600160a01b031684610140015163ffffffff168561018001518661012001516040516122d19190615701565b600060405180830381858888f193505050503d806000811461230f576040519150601f19603f3d011682016040523d82523d6000602084013e612314565b606091505b509091505063ffffffff4211156123565760405162461bcd60e51b81526020600482015260066024820152654c424330323760d01b60448201526064016102c3565b6000828152609c60205260409020805463ffffffff19164263ffffffff1617905580156123b1576000828152609c602052604090819020805460ff60201b1916600160201b1790558401516101808501516123b1919061459b565b8361010001516001600160a01b0316336001600160a01b0316600080516020615f0883398151915286610140015187610180015188610120015186886040516123fe95949392919061571d565b60405180910390a3600091825260a56020526040909120805460ff19166001179055905061242c6001606555565b919050565b61243e826020015161446c565b6124735760405162461bcd60e51b81526020600482015260066024820152654c424330333760d01b60448201526064016102c3565b348261024001518361022001518460a0015185610120015161249591906156c6565b61249f91906156c6565b6124a991906156c6565b11156124e05760405162461bcd60e51b81526020600482015260066024820152654c424330363360d01b60448201526064016102c3565b81610160015163ffffffff164211156125245760405162461bcd60e51b81526020600482015260066024820152654c424330363560d01b60448201526064016102c3565b816101e0015163ffffffff164211156125685760405162461bcd60e51b8152602060048201526006602482015265262121981a1b60d11b60448201526064016102c3565b81610200015163ffffffff164311156125ac5760405162461bcd60e51b81526020600482015260066024820152654c424330343760d01b60448201526064016102c3565b60006125b78361093f565b60208401516040516301a86b5560e41b815291925073__SignatureValidator____________________91631a86b550916125f89185908790600401615449565b602060405180830381865af4158015612615573d6000803e3d6000fd5b505050506040513d601f19601f820116820180604052508101906126399190615470565b6126555760405162461bcd60e51b81526004016102c39061548d565b600081815260a66020908152604080832060a79092529091206001015460ff16156126925760405162461bcd60e51b81526004016102c390615b39565b80546001600160a01b0316156126ba5760405162461bcd60e51b81526004016102c390615429565b600082815260a66020908152604091829020865181546001600160a01b03199081166001600160a01b039283161783559288015160018301805490941691161790915590850151859190600282019061271390826158e8565b5060608201516003820180546001600160a01b0319166001600160a01b039092169190911790556080820151600482019061274e90826158e8565b5060a0820151600582015560c0820151600682015560e08201516007820180546001600160401b0319166001600160401b03909216919091179055610100820151600882019061279e90826158e8565b506101208201516009820155610140820151600a820180546101608501516101808601516101a08701516101c08801516101e08901516102008a015163ffffffff9889166001600160401b031990971696909617600160201b958916959095029490941763ffffffff60401b1916600160401b61ffff9485160261ffff60501b191617600160501b939092169290920217600160601b600160a01b031916600160601b9186169190910263ffffffff60801b191617600160801b918516919091021763ffffffff60a01b1916600160a01b9390911692909202919091179055610220820151600b82015561024090910151600c90910155600082815260a760209081526040918290204290819055825134815291820152339184917fb1bc7bfc0dab19777eb03aa0a5643378fc9f186c8fc5a36620d21136fbea570f910160405180910390a350505050565b6033546001600160a01b031690565b612901613c64565b600081815260a66020526040902080546001600160a01b03166129365760405162461bcd60e51b81526004016102c390615b59565b600a810154600160801b900463ffffffff16421180156129665750600a810154600160a01b900463ffffffff1643115b61299b5760405162461bcd60e51b81526020600482015260066024820152654c424330343160d01b60448201526064016102c3565b600081600c015482600b0154836005015484600901546129bb91906156c6565b6129c591906156c6565b6129cf91906156c6565b6003830154600684015460018501546001600160a01b039081166000908152609a6020526040812054949550921692612a089190614323565b60018501546001600160a01b03166000908152609a6020526040812080549293508392909190612a399084906154c3565b90915550506001840154604051600080516020615ee883398151915291612a6f916001600160a01b0390911690849089906154d6565b60405180910390a16003840154604080518581526001600160a01b03909216602083015286917f9ccbeffc442024e2a6ade18ff0978af9a4c4d6562ae38adb51ccf8256cf42b41910160405180910390a2600085815260a66020526040812080546001600160a01b03199081168255600182018054909116905590612af760028301826147af565b6003820180546001600160a01b0319169055612b176004830160006147af565b600060058301819055600683018190556007830180546001600160401b0319169055612b479060088401906147af565b50600060098201819055600a820180546001600160c01b0319169055600b8201819055600c90910181905585815260a760205260408082206001908101805460ff19169091179055516001600160a01b0384169085908381818185875af1925050503d8060008114612bd5576040519150601f19603f3d011682016040523d82523d6000602084013e612bda565b606091505b5050905080612c145760405162461bcd60e51b8152602060048201526006602482015265131090cc0d0d60d21b60448201526064016102c3565b5050505050612c236001606555565b50565b612c2f336144ab565b612c4b5760405162461bcd60e51b81526004016102c3906159a7565b3360009081526099602052604081208054349290612c6a9084906156c6565b90915550506040517f456e0f4ea86ac283092c750200e8c877f6ad8901ae575f90e02081acd455af84906119359033903490615796565b600061094a82613cbd565b612cb5336144ab565b612cd15760405162461bcd60e51b81526004016102c3906159a7565b611f17333461433b565b612ce3613c64565b612cec3361446c565b612d085760405162461bcd60e51b81526004016102c3906159a7565b600085815260a7602052604090206001015460ff1615612d3a5760405162461bcd60e51b81526004016102c390615b39565b600085815260a66020526040902080546001600160a01b0316612d6f5760405162461bcd60e51b81526004016102c390615b59565b60405162f5b49160e01b815260009073__BtcUtils______________________________9062f5b49190612da7908990600401615b79565b600060405180830381865af4158015612dc4573d6000803e3d6000fd5b505050506040513d6000823e601f3d908101601f19168201604052612dec9190810190615b8c565b9050600073__BtcUtils______________________________632d56f32383600181518110612e1d57612e1d6159c7565b6020026020010151602001516040518263ffffffff1660e01b8152600401612e459190615b79565b600060405180830381865af4158015612e62573d6000803e3d6000fd5b505050506040513d6000823e601f3d908101601f19168201604052612e8a9190810190615a6f565b905080516021148015612ec2575080600081518110612eab57612eab6159c7565b6020910101516001600160f81b031916600160fd1b145b612ef75760405162461bcd60e51b81526020600482015260066024820152654c424330373560d01b60448201526064016102c3565b60005b60018251612f0891906154c3565b8160ff161015612f7a5781612f1e826001615c9f565b60ff1681518110612f3157612f316159c7565b602001015160f81c60f81b828260ff1681518110612f5157612f516159c7565b60200101906001600160f81b031916908160001a90535080612f7281615cb8565b915050612efa565b50600081806020019051810190612f919190615cd7565b9050808914612fcb5760405162461bcd60e51b81526020600482015260066024820152654c424330363960d01b60448201526064016102c3565b60018401546001600160a01b031633146130105760405162461bcd60e51b815260206004820152600660248201526509884866068760d31b60448201526064016102c3565b600a84015460975460405163fea8ba6360e01b8152600160501b90920461ffff16916001600160a01b0390911690635b6445879073__BtcUtils______________________________9063fea8ba639061306e908e90600401615b79565b602060405180830381865af415801561308b573d6000803e3d6000fd5b505050506040513d601f19601f820116820180604052508101906130af9190615cd7565b8a8a8a6040518563ffffffff1660e01b81526004016130d19493929190615cf0565b602060405180830381865afa1580156130ee573d6000803e3d6000fd5b505050506040513d601f19601f820116820180604052508101906131129190615cd7565b12156131495760405162461bcd60e51b81526020600482015260066024820152654c424330343960d01b60448201526064016102c3565b8260008151811061315c5761315c6159c7565b6020026020010151600001516402540be4006131789190615d4c565b6001600160401b0316846009015411156131bd5760405162461bcd60e51b81526020600482015260066024820152654c424330363760d01b60448201526064016102c3565b600073__BtcUtils______________________________634c03fe59856000815181106131ec576131ec6159c7565b602090810291909101810151015160a4546040516001600160e01b031960e085901b168152613222929160ff1690600401615d77565b600060405180830381865af415801561323f573d6000803e3d6000fd5b505050506040513d6000823e601f3d908101601f191682016040526132679190810190615a6f565b90508080519060200120856008016040516132829190615d9b565b6040518091039020146132c05760405162461bcd60e51b81526020600482015260066024820152650988486606c760d31b60448201526064016102c3565b604080516102608101825286546001600160a01b0390811682526001880154166020820152600287018054613571938992908401916132fe9061585f565b80601f016020809104026020016040519081016040528092919081815260200182805461332a9061585f565b80156133775780601f1061334c57610100808354040283529160200191613377565b820191906000526020600020905b81548152906001019060200180831161335a57829003601f168201915b505050918352505060038201546001600160a01b031660208201526004820180546040909201916133a79061585f565b80601f01602080910402602001604051908101604052809291908181526020018280546133d39061585f565b80156134205780601f106133f557610100808354040283529160200191613420565b820191906000526020600020905b81548152906001019060200180831161340357829003601f168201915b50505091835250506005820154602082015260068201546040820152600780830154900b606082015260088201805460809092019161345e9061585f565b80601f016020809104026020016040519081016040528092919081815260200182805461348a9061585f565b80156134d75780601f106134ac576101008083540402835291602001916134d7565b820191906000526020600020905b8154815290600101906020018083116134ba57829003601f168201915b505050918352505060098201546020820152600a82015463ffffffff8082166040840152600160201b82048116606084015261ffff600160401b830481166080850152600160501b83041660a0840152600160601b8204811660c0840152600160801b8204811660e0840152600160a01b90910416610100820152600b820154610120820152600c9091015461014090910152838a6145fa565b1561361457600685015460018601546001600160a01b03166000908152609a602052604081205490916135a391614323565b60018701546001600160a01b03166000908152609a60205260408120805492935083929091906135d49084906154c3565b90915550506001860154604051600080516020615ee88339815191529161360a916001600160a01b0390911690849087906154d6565b60405180910390a1505b6001850154600586015460098701546000926001600160a01b031691613639916156c6565b604051600081818185875af1925050503d8060008114613675576040519150601f19603f3d011682016040523d82523d6000602084013e61367a565b606091505b50509050806136b45760405162461bcd60e51b815260206004820152600660248201526504c42433035360d41b60448201526064016102c3565b6136c286600b01548c61439a565b600083815260a66020526040812080546001600160a01b031990811682556001820180549091169055906136f960028301826147af565b6003820180546001600160a01b03191690556137196004830160006147af565b600060058301819055600683018190556007830180546001600160401b03191690556137499060088401906147af565b50600060098201819055600a820180546001600160c01b0319169055600b8201819055600c90910181905583815260a760205260408082206001908101805460ff191690911790555184917fb781856ec73fd0dc39351043d1634ea22cd3277b0866ab93e7ec1801766bb38491a25050505050506137c76001606555565b5050505050565b6040805161026080820183526000808352602080840182905260608486018190528085018390526080850181905260a0850183905260c0850183905260e0850183905261010085015261012084018290526101408401829052610160840182905261018084018290526101a084018290526101c084018290526101e0840182905261020084018290526102208401829052610240840182905285825260a68152908490208451928301855280546001600160a01b039081168452600182015416918301919091526002810180549394929391928401916138ad9061585f565b80601f01602080910402602001604051908101604052809291908181526020018280546138d99061585f565b80156139265780601f106138fb57610100808354040283529160200191613926565b820191906000526020600020905b81548152906001019060200180831161390957829003601f168201915b505050918352505060038201546001600160a01b031660208201526004820180546040909201916139569061585f565b80601f01602080910402602001604051908101604052809291908181526020018280546139829061585f565b80156139cf5780601f106139a4576101008083540402835291602001916139cf565b820191906000526020600020905b8154815290600101906020018083116139b257829003601f168201915b50505091835250506005820154602082015260068201546040820152600780830154900b6060820152600882018054608090920191613a0d9061585f565b80601f0160208091040260200160405190810160405280929190818152602001828054613a399061585f565b8015613a865780601f10613a5b57610100808354040283529160200191613a86565b820191906000526020600020905b815481529060010190602001808311613a6957829003601f168201915b505050918352505060098201546020820152600a82015463ffffffff8082166040840152600160201b82048116606084015261ffff600160401b830481166080850152600160501b83041660a0840152600160601b8204811660c0840152600160801b8204811660e0840152600160a01b90910416610100820152600b820154610120820152600c909101546101409091015292915050565b613b276144ea565b6001600160a01b038116613b8c5760405162461bcd60e51b815260206004820152602660248201527f4f776e61626c653a206e6577206f776e657220697320746865207a65726f206160448201526564647265737360d01b60648201526084016102c3565b612c2381614549565b80516000906001600160a01b03163014613bda5760405162461bcd60e51b8152602060048201526006602482015265262121981a9b60d11b60448201526064016102c3565b60405163025018e760e31b815273__QuotesV2______________________________90631280c73890613c1190859060040161528f565b600060405180830381865af4158015613c2e573d6000803e3d6000fd5b505050506040513d6000823e601f3d908101601f19168201604052613c569190810190615a6f565b805190602001209050919050565b600260655403613cb65760405162461bcd60e51b815260206004820152601f60248201527f5265656e7472616e637947756172643a207265656e7472616e742063616c6c0060448201526064016102c3565b6002606555565b600081602001516001600160a01b0316306001600160a01b031614613d0d5760405162461bcd60e51b81526020600482015260066024820152654c424330353160d01b60448201526064016102c3565b6101008201516097546001600160a01b03918216911603613d595760405162461bcd60e51b8152602060048201526006602482015265262121981a9960d11b60448201526064016102c3565b81606001515160151480613d7257508160600151516021145b613da75760405162461bcd60e51b81526020600482015260066024820152654c424330353360d01b60448201526064016102c3565b8160a0015151601514613de55760405162461bcd60e51b8152602060048201526006602482015265131090cc0d4d60d21b60448201526064016102c3565b609f548261026001518361024001518460c00151856101800151613e0991906156c6565b613e1391906156c6565b613e1d91906156c6565b1015613e545760405162461bcd60e51b81526020600482015260066024820152654c424330353560d01b60448201526064016102c3565b816101c0015163ffffffff16826101a0015163ffffffff16613e769190615e11565b6001600160401b031663ffffffff1015613ebb5760405162461bcd60e51b81526020600482015260066024820152654c424330373160d01b60448201526064016102c3565b60405162773b7960e01b815273__QuotesV2______________________________9062773b7990613c11908590600401615e31565b609754606086015160a08701516000848152609c602052604081205490936001600160a01b031692636adc013392899288928a92899230919063ffffffff1615801590613f52575060008b8152609c6020526040902054600160201b900460ff165b6040518963ffffffff1660e01b8152600401613f75989796959493929190615e44565b6020604051808303816000875af1158015613f94573d6000803e3d6000fd5b505050506040513d601f19601f82011682018060405250810190613fb89190615cd7565b9695505050505050565b6000808413801561400657508461026001518561024001518660c00151876101800151613fef91906156c6565b613ff991906156c6565b61400391906156c6565b84105b15614013575060006118b2565b60975460405163bd0c1fff60e01b8152600481018490526000916001600160a01b03169063bd0c1fff90602401600060405180830381865afa15801561405d573d6000803e3d6000fd5b505050506040513d6000823e601f3d908101601f191682016040526140859190810190615a6f565b905060008151116140cf5760405162461bcd60e51b8152602060048201526014602482015273125b9d985b1a5908189b1bd8dac81a195a59da1d60621b60448201526064016102c3565b6040516328335c3f60e21b815260009073__BtcUtils______________________________9063a0cd70fc90614109908590600401615b79565b602060405180830381865af4158015614126573d6000803e3d6000fd5b505050506040513d601f19601f8201168201806040525081019061414a9190615cd7565b90506000876101c00151886101a001516141649190615b15565b63ffffffff1690508082111561418057600093505050506118b2565b8560000361419457600193505050506118b2565b6097546102008901516000916001600160a01b03169063bd0c1fff906001906141c19061ffff168a6156c6565b6141cb91906154c3565b6040518263ffffffff1660e01b81526004016141e991815260200190565b600060405180830381865afa158015614206573d6000803e3d6000fd5b505050506040513d6000823e601f3d908101601f1916820160405261422e9190810190615a6f565b9050600081511161426a5760405162461bcd60e51b81526020600482015260066024820152650988486606a760d31b60448201526064016102c3565b6040516328335c3f60e21b815260009073__BtcUtils______________________________9063a0cd70fc906142a4908590600401615b79565b602060405180830381865af41580156142c1573d6000803e3d6000fd5b505050506040513d601f19601f820116820180604052508101906142e59190615cd7565b9050896101e0015163ffffffff16816142fe91906156c6565b881115614313576001955050505050506118b2565b5060009998505050505050505050565b60008183106143325781614334565b825b9392505050565b6001600160a01b038216600090815260986020526040812080548392906143639084906156c6565b90915550506040517f42cfb81a915ac5a674852db250bf722637bee705a267633b68cab3a2dde06f539061124e9084908490615796565b81156144685760a9546040516000916001600160a01b03169084908381818185875af1925050503d80600081146143ed576040519150601f19603f3d011682016040523d82523d6000602084013e6143f2565b606091505b505090508061442c5760405162461bcd60e51b8152602060048201526006602482015265131090cc0dcd60d21b60448201526064016102c3565b817f58e13ac0d5c8d27d14009841e72ac8b1858e2709c2c99af2075d9bb5f340ecfc8460405161445e91815260200190565b60405180910390a2505b5050565b6001600160a01b0381166000908152609a60205260408120541580159061094a5750506001600160a01b03166000908152609d60205260409020541590565b6001600160a01b0381166000908152609960205260408120541580159061094a5750506001600160a01b03166000908152609d60205260409020541590565b336144f36128ea565b6001600160a01b031614611f175760405162461bcd60e51b815260206004820181905260248201527f4f776e61626c653a2063616c6c6572206973206e6f7420746865206f776e657260448201526064016102c3565b603380546001600160a01b038381166001600160a01b0319831681179093556040519116919082907f8be0079c531659141344cd1fd0a4f28419497f9722a3daafe3b4186f6b6457e090600090a35050565b6001600160a01b038216600090815260986020526040812080548392906145c39084906154c3565b90915550506040517f8e51a4493a6f66c76e13fd9e3b754eafbfe21343c04508deb61be8ccc00645879061124e9084908490615796565b6097546040516339cf1b2560e11b81526004810183905260009182916001600160a01b039091169063739e364a90602401600060405180830381865afa158015614648573d6000803e3d6000fd5b505050506040513d6000823e601f3d908101601f191682016040526146709190810190615a6f565b905060008151116146ac5760405162461bcd60e51b81526020600482015260066024820152654c424330353960d01b60448201526064016102c3565b6040516328335c3f60e21b815260009073__BtcUtils______________________________9063a0cd70fc906146e6908590600401615b79565b602060405180830381865af4158015614703573d6000803e3d6000fd5b505050506040513d601f19601f820116820180604052508101906147279190615cd7565b60a3546101c0880151600088815260a7602052604090205492935090916147549163ffffffff16906156c6565b61475e91906156c6565b81111561477057600192505050614334565b856101e0015163ffffffff16421180614793575085610200015163ffffffff1643115b156147a357600192505050614334565b50600095945050505050565b5080546147bb9061585f565b6000825580601f106147cb575050565b601f016020900490600052602060002090810190612c2391905b808211156147f957600081556001016147e5565b5090565b634e487b7160e01b600052604160045260246000fd5b60405161026081016001600160401b0381118282101715614836576148366147fd565b60405290565b60405161028081016001600160401b0381118282101715614836576148366147fd565b604051608081016001600160401b0381118282101715614836576148366147fd565b604051601f8201601f191681016001600160401b03811182821017156148a9576148a96147fd565b604052919050565b6001600160a01b0381168114612c2357600080fd5b803561242c816148b1565b60006001600160401b038211156148ea576148ea6147fd565b50601f01601f191660200190565b600082601f83011261490957600080fd5b813561491c614917826148d1565b614881565b81815284602083860101111561493157600080fd5b816020850160208301376000918101602001919091529392505050565b8035600781900b811461242c57600080fd5b803563ffffffff8116811461242c57600080fd5b803561ffff8116811461242c57600080fd5b6000610260828403121561499957600080fd5b6149a1614813565b90506149ac826148c6565b81526149ba602083016148c6565b602082015260408201356001600160401b03808211156149d957600080fd5b6149e5858386016148f8565b60408401526149f6606085016148c6565b60608401526080840135915080821115614a0f57600080fd5b614a1b858386016148f8565b608084015260a084013560a084015260c084013560c0840152614a4060e0850161494e565b60e084015261010091508184013581811115614a5b57600080fd5b614a67868287016148f8565b83850152505050610120808301358183015250610140614a88818401614960565b90820152610160614a9a838201614960565b90820152610180614aac838201614974565b908201526101a0614abe838201614974565b908201526101c0614ad0838201614960565b908201526101e0614ae2838201614960565b90820152610200614af4838201614960565b9082015261022082810135908201526102409182013591810191909152919050565b600060208284031215614b2857600080fd5b81356001600160401b03811115614b3e57600080fd5b6118b284828501614986565b60008060408385031215614b5d57600080fd5b823591506020830135614b6f816148b1565b809150509250929050565b80356001600160601b03198116811461242c57600080fd5b8015158114612c2357600080fd5b803561242c81614b92565b60006102808284031215614bbe57600080fd5b614bc661483c565b9050614bd182614b7a565b8152614bdf602083016148c6565b6020820152614bf0604083016148c6565b604082015260608201356001600160401b0380821115614c0f57600080fd5b614c1b858386016148f8565b6060840152614c2c608085016148c6565b608084015260a0840135915080821115614c4557600080fd5b614c51858386016148f8565b60a084015260c084013560c084015260e084013560e08401526101009150614c7a8285016148c6565b8284015261012091508184013581811115614c9457600080fd5b614ca0868287016148f8565b83850152505050610140614cb5818401614960565b90820152610160614cc783820161494e565b9082015261018082810135908201526101a0614ce4818401614960565b908201526101c0614cf6838201614960565b908201526101e0614d08838201614960565b90820152610200614d1a838201614974565b90820152610220614d2c838201614ba0565b9082015261024082810135908201526102609182013591810191909152919050565b600080600080600060a08688031215614d6657600080fd5b85356001600160401b0380821115614d7d57600080fd5b614d8989838a01614bab565b96506020880135915080821115614d9f57600080fd5b614dab89838a016148f8565b95506040880135915080821115614dc157600080fd5b614dcd89838a016148f8565b94506060880135915080821115614de357600080fd5b50614df0888289016148f8565b95989497509295608001359392505050565b600060208284031215614e1457600080fd5b5035919050565b60008060008060808587031215614e3157600080fd5b84356001600160401b0380821115614e4857600080fd5b614e54888389016148f8565b95506020870135915080821115614e6a57600080fd5b614e76888389016148f8565b945060408701359150614e8882614b92565b90925060608601359080821115614e9e57600080fd5b50614eab878288016148f8565b91505092959194509250565b600060208284031215614ec957600080fd5b8135614334816148b1565b60006001600160401b03821115614eed57614eed6147fd565b5060051b60200190565b60006020808385031215614f0a57600080fd5b82356001600160401b03811115614f2057600080fd5b8301601f81018513614f3157600080fd5b8035614f3f61491782614ed4565b81815260059190911b82018301908381019087831115614f5e57600080fd5b928401925b82841015614f7c57833582529284019290840190614f63565b979650505050505050565b6001600160a01b03169052565b60005b83811015614faf578181015183820152602001614f97565b50506000910152565b60008151808452614fd0816020860160208601614f94565b601f01601f19169290920160200192915050565b60006020808301818452808551808352604092508286019150828160051b87010184880160005b838110156150a557888303603f19018552815180518452878101516001600160a01b0316888501528681015160c08886018190529061504c82870182614fb8565b915050606080830151868303828801526150668382614fb8565b925050506080808301511515818701525060a080830151925085820381870152506150918183614fb8565b96890196945050509086019060010161500b565b509098975050505050505050565b6001600160a01b0391909116815260200190565b600080604083850312156150da57600080fd5b823591506020830135614b6f81614b92565b600080604083850312156150ff57600080fd5b82356001600160401b038082111561511657600080fd5b61512286838701614bab565b9350602085013591508082111561513857600080fd5b50615145858286016148f8565b9150509250929050565b60006020828403121561516157600080fd5b81356001600160401b0381111561517757600080fd5b6118b284828501614bab565b6000806040838503121561519657600080fd5b82356001600160401b03808211156151ad57600080fd5b61512286838701614986565b600080600080600060a086880312156151d157600080fd5b853594506020808701356001600160401b03808211156151f057600080fd5b6151fc8a838b016148f8565b96506040890135955060608901359450608089013591508082111561522057600080fd5b508701601f8101891361523257600080fd5b803561524061491782614ed4565b81815260059190911b8201830190838101908b83111561525f57600080fd5b928401925b8284101561527d57833582529284019290840190615264565b80955050505050509295509295909350565b602081526152a1602082018351614f87565b600060208301516152b56040840182614f87565b5060408301516102608060608501526152d2610280850183614fb8565b915060608501516152e66080860182614f87565b506080850151601f19808685030160a08701526153038483614fb8565b935060a087015160c087015260c087015160e087015260e087015191506101006153318188018460070b9052565b8088015192505061012081878603018188015261534e8584614fb8565b90880151610140888101919091528801519094509150610160905061537a8187018363ffffffff169052565b86015190506101806153938682018363ffffffff169052565b86015190506101a06153aa8682018361ffff169052565b86015190506101c06153c18682018361ffff169052565b86015190506101e06153da8682018363ffffffff169052565b86015190506102006153f38682018363ffffffff169052565b860151905061022061540c8682018363ffffffff169052565b860151610240868101919091529095015193019290925250919050565b60208082526006908201526509884866064760d31b604082015260600190565b60018060a01b03841681528260208201526060604082015260006111596060830184614fb8565b60006020828403121561548257600080fd5b815161433481614b92565b6020808252600690820152654c424330323960d01b604082015260600190565b634e487b7160e01b600052601160045260246000fd5b8181038181111561094a5761094a6154ad565b6001600160a01b039390931683526020830191909152604082015260600190565b808202811582820484141761094a5761094a6154ad565b634e487b7160e01b600052601260045260246000fd5b6000826155335761553361550e565b500490565b80516001600160601b03191682526000610280602083015161555d6020860182614f87565b5060408301516155706040860182614f87565b50606083015181606086015261558882860182614fb8565b915050608083015161559d6080860182614f87565b5060a083015184820360a08601526155b58282614fb8565b91505060c083015160c085015260e083015160e0850152610100808401516155df82870182614f87565b505061012080840151858303828701526155f98382614fb8565b92505050610140808401516156158287018263ffffffff169052565b50506101608084015161562c8287018260070b9052565b505061018083810151908501526101a08084015163ffffffff908116918601919091526101c0808501518216908601526101e080850151909116908501526102008084015161ffff16908501526102208084015115159085015261024080840151908501526102609283015192909301919091525090565b6040815260006156b76040830185615538565b90508260208301529392505050565b8082018082111561094a5761094a6154ad565b6001600160a01b03949094168452602084019290925215156040830152606082015260800190565b60008251615713818460208701614f94565b9190910192915050565b63ffffffff8616815284602082015260a06040820152600061574260a0830186614fb8565b931515606083015250608001529392505050565b6020808252600690820152654c424330313960d01b604082015260600190565b60208082526006908201526504c42433032360d41b604082015260600190565b6001600160a01b03929092168252602082015260400190565b6020808252600690820152654c424330323160d01b604082015260600190565b60208082526006908201526526212198191960d11b604082015260600190565b643832b3b4b760d91b815260050190565b651c1959dbdd5d60d21b815260060190565b60208082526006908201526509884866060760d31b604082015260600190565b6000826158415761584161550e565b500690565b600060018201615858576158586154ad565b5060010190565b600181811c9082168061587357607f821691505b60208210810361589357634e487b7160e01b600052602260045260246000fd5b50919050565b601f8211156158e357600081815260208120601f850160051c810160208610156158c05750805b601f850160051c820191505b818110156158df578281556001016158cc565b5050505b505050565b81516001600160401b03811115615901576159016147fd565b6159158161590f845461585f565b84615899565b602080601f83116001811461594a57600084156159325750858301515b600019600386901b1c1916600185901b1785556158df565b600085815260208120601f198616915b828110156159795788860151825594840194600190910190840161595a565b50858210156159975787850151600019600388901b60f8161c191681555b5050505050600190811b01905550565b6020808252600690820152654c424330303160d01b604082015260600190565b634e487b7160e01b600052603260045260246000fd5b848152600084516159f5816020850160208901614f94565b808301905060018060601b0319851660208201528351615a1c816034840160208801614f94565b016034019695505050505050565b600082601f830112615a3b57600080fd5b8151615a49614917826148d1565b818152846020838601011115615a5e57600080fd5b6118b2826020830160208701614f94565b600060208284031215615a8157600080fd5b81516001600160401b03811115615a9757600080fd5b6118b284828501615a2a565b600160fd1b8152826001820152607560f81b602182015260008251615acf816022850160208701614f94565b919091016022019392505050565b606081526000615af06060830186614fb8565b8281036020840152615b028186614fb8565b9150508215156040830152949350505050565b63ffffffff818116838216019080821115615b3257615b326154ad565b5092915050565b602080825260069082015265131090cc0d8d60d21b604082015260600190565b602080825260069082015265262121981a1960d11b604082015260600190565b6020815260006143346020830184614fb8565b60006020808385031215615b9f57600080fd5b82516001600160401b0380821115615bb657600080fd5b818501915085601f830112615bca57600080fd5b8151615bd861491782614ed4565b81815260059190911b83018401908481019088831115615bf757600080fd5b8585015b83811015615c9257805185811115615c135760008081fd5b86016080818c03601f1901811315615c2b5760008081fd5b615c3361485f565b898301518881168114615c465760008081fd5b815260408381015189811115615c5c5760008081fd5b615c6a8f8d83880101615a2a565b838d015250606084810151918301919091529190920151908201528352918601918601615bfb565b5098975050505050505050565b60ff818116838216019081111561094a5761094a6154ad565b600060ff821660ff8103615cce57615cce6154ad565b60010192915050565b600060208284031215615ce957600080fd5b5051919050565b600060808201868352602086818501528560408501526080606085015281855180845260a086019150828701935060005b81811015615d3d57845183529383019391830191600101615d21565b50909998505050505050505050565b6001600160401b03818116838216028082169190828114615d6f57615d6f6154ad565b505092915050565b604081526000615d8a6040830185614fb8565b905082151560208301529392505050565b6000808354615da98161585f565b60018281168015615dc15760018114615dd657615e05565b60ff1984168752821515830287019450615e05565b8760005260208060002060005b85811015615dfc5781548a820152908401908201615de3565b50505082870194505b50929695505050505050565b6001600160401b03818116838216019080821115615b3257615b326154ad565b6020815260006143346020830184615538565b6000610100808352615e588184018c614fb8565b90508960208401528281036040840152615e72818a614fb8565b90508760608401528281036080840152615e8c8188614fb8565b6001600160a01b03871660a085015283810360c08501529050615eaf8186614fb8565b91505082151560e0830152999850505050505050505056fe3052ea2f7e0d74fdc1c1e1f858ff1ae3d91ab1609717c3efedb95db603b255f69685484093cc596fdaeab51abf645b1753dbb7d869bfd2eb21e2c646e47a36f4bfc7404e6fe464f0646fe2c6ab942b92d56be722bb39f8c6bc4830d2d32fb80da2646970667358221220833b92078494044fc59b649cfe3df801f21d42d1f05bb5584eb9540f3a6b8b2f64736f6c63430008120033",
  "immutableReferences": {},
  "source": "// SPDX-License-Identifier: MIT\npragma solidity ^0.8.18;\npragma experimental ABIEncoderV2;\n\nimport \"./Bridge.sol\";\nimport \"./QuotesV2.sol\";\nimport \"./SignatureValidator.sol\";\nimport \"@rsksmart/btc-transaction-solidity-helper/contracts/BtcUtils.sol\";\nimport \"@openzeppelin/contracts-upgradeable/access/OwnableUpgradeable.sol\";\nimport \"@openzeppelin/contracts-upgradeable/security/ReentrancyGuardUpgradeable.sol\";\n\n/**\n    @title Contract that assists with the Flyover protocol\n */\n\ncontract LiquidityBridgeContractV2 is Initializable, OwnableUpgradeable, ReentrancyGuardUpgradeable {\n    uint16 constant public MAX_CALL_GAS_COST = 35000;\n    uint16 constant public MAX_REFUND_GAS_LIMIT = 2300;\n\n    uint8 constant public UNPROCESSED_QUOTE_CODE = 0;\n    uint8 constant public CALL_DONE_CODE = 1;\n    uint8 constant public PROCESSED_QUOTE_CODE = 2;\n\n    int16 constant public BRIDGE_REFUNDED_USER_ERROR_CODE = - 100;\n    int16 constant public BRIDGE_REFUNDED_LP_ERROR_CODE = - 200;\n    int16 constant public BRIDGE_UNPROCESSABLE_TX_NOT_CONTRACT_ERROR_CODE = - 300;\n    int16 constant public BRIDGE_UNPROCESSABLE_TX_INVALID_SENDER_ERROR_CODE = - 301;\n    int16 constant public BRIDGE_UNPROCESSABLE_TX_ALREADY_PROCESSED_ERROR_CODE = - 302;\n    int16 constant public BRIDGE_UNPROCESSABLE_TX_VALIDATIONS_ERROR = - 303;\n    int16 constant public BRIDGE_UNPROCESSABLE_TX_VALUE_ZERO_ERROR = - 304;\n    int16 constant public BRIDGE_UNPROCESSABLE_TX_UTXO_AMOUNT_SENT_BELOW_MINIMUM_ERROR =\n    - 305;\n    int16 constant public BRIDGE_GENERIC_ERROR = - 900;\n    uint constant public PAY_TO_ADDRESS_OUTPUT = 0;\n    uint constant public QUOTE_HASH_OUTPUT = 1;\n\n    struct Registry {\n        uint32 timestamp;\n        bool success;\n    }\n\n    struct PegoutRecord {\n        uint256 depositTimestamp;\n        bool completed;\n    }\n\n    struct LiquidityProvider {\n        uint id;\n        address provider;\n        string name;\n        string apiBaseUrl;\n        bool status;\n        string providerType;\n    }\n\n    event Register(uint id, address indexed from, uint256 amount);\n    event CollateralIncrease(address from, uint256 amount);\n    event PegoutCollateralIncrease(address from, uint256 amount);\n    event Withdrawal(address from, uint256 amount);\n    event WithdrawCollateral(address from, uint256 amount);\n    event PegoutWithdrawCollateral(address from, uint256 amount);\n    event Resigned(address from);\n    event CallForUser(\n        address indexed from,\n        address indexed dest,\n        uint gasLimit,\n        uint value,\n        bytes data,\n        bool success,\n        bytes32 quoteHash\n    );\n    event PegInRegistered(bytes32 indexed quoteHash, int256 transferredAmount);\n    event Penalized(address liquidityProvider, uint penalty, bytes32 quoteHash);\n    event BridgeCapExceeded(bytes32 quoteHash, int256 errorCode);\n    event BalanceIncrease(address dest, uint amount);\n    event BalanceDecrease(address dest, uint amount);\n    event Refund(address dest, uint amount, bool success, bytes32 quoteHash);\n    event PegOutRefunded(bytes32 indexed quoteHash);\n    event PegOutDeposit(\n        bytes32 indexed quoteHash,\n        address indexed sender,\n        uint256 amount,\n        uint256 timestamp\n    );\n    event PegOutUserRefunded(\n        bytes32 indexed quoteHash,\n        uint256 value,\n        address userAddress\n    );\n    event DaoFeeSent(bytes32 indexed quoteHash, uint256 amount);\n\n    Bridge public bridge;\n    mapping(address => uint256) private balances;\n    mapping(address => uint256) private collateral;\n    mapping(address => uint256) private pegoutCollateral;\n    mapping(uint => LiquidityProvider) private liquidityProviders;\n    mapping(bytes32 => Registry) private callRegistry;\n    mapping(address => uint256) private resignationBlockNum;\n\n    uint256 private minCollateral;\n    uint256 private minPegIn;\n\n    uint32 private rewardP;\n    uint32 private resignDelayInBlocks;\n    uint private dust;\n    uint public providerId;\n\n    uint private btcBlockTime;\n    bool private mainnet;\n\n    mapping(bytes32 => uint8) private processedQuotes;\n    mapping(bytes32 => QuotesV2.PegOutQuote) private registeredPegoutQuotes;\n    mapping(bytes32 => PegoutRecord) private pegoutRegistry;\n\n    uint256 public productFeePercentage;\n    address public daoFeeCollectorAddress;\n\n    modifier onlyRegistered() {\n        require(isRegistered(msg.sender), \"LBC001\");\n        _;\n    }\n\n    modifier onlyRegisteredForPegout() {\n        require(isRegisteredForPegout(msg.sender), \"LBC001\");\n        _;\n    }\n\n    function initializeV2(\n        uint256 _productFeePercentage,\n        address _daoFeeCollectorAddress\n    ) public {\n        productFeePercentage = _productFeePercentage;\n        daoFeeCollectorAddress = _daoFeeCollectorAddress;\n    }\n\n    modifier onlyOwnerAndProvider(uint _providerId) {\n        require(\n            msg.sender == owner() ||\n            msg.sender == liquidityProviders[_providerId].provider,\n            \"LBC005\"\n        );\n        _;\n    }\n\n    function setProviderStatus(\n        uint _providerId,\n        bool status\n    ) external onlyOwnerAndProvider(_providerId) {\n        liquidityProviders[_providerId].status = status;\n    }\n\n    receive() external payable {\n        require(msg.sender == address(bridge), \"LBC007\");\n    }\n\n    function getProviderIds() external view returns (uint) {\n        return providerId;\n    }\n\n    function getBridgeAddress() external view returns (address) {\n        return address(bridge);\n    }\n\n    function getMinCollateral() public view returns (uint) {\n        return minCollateral;\n    }\n\n    function getMinPegIn() external view returns (uint) {\n        return minPegIn;\n    }\n\n    function getRewardPercentage() external view returns (uint) {\n        return rewardP;\n    }\n\n    function getResignDelayBlocks() external view returns (uint) {\n        return resignDelayInBlocks;\n    }\n\n    function getDustThreshold() external view returns (uint) {\n        return dust;\n    }\n\n    function getRegisteredPegOutQuote(\n        bytes32 quoteHash\n    ) external view returns (QuotesV2.PegOutQuote memory) {\n        return registeredPegoutQuotes[quoteHash];\n    }\n\n    function isPegOutQuoteCompleted(bytes32 quoteHash) external view returns (bool) {\n        return pegoutRegistry[quoteHash].completed;\n    }\n\n    /**\n        @dev Checks whether a liquidity provider can deliver a pegin service\n        @return Whether the liquidity provider is registered and has enough locked collateral\n     */\n    function isOperational(address addr) external view returns (bool) {\n        return isRegistered(addr) && collateral[addr] >= minCollateral;\n    }\n\n    /**\n        @dev Checks whether a liquidity provider can deliver a pegout service\n        @return Whether the liquidity provider is registered and has enough locked collateral\n     */\n    function isOperationalForPegout(address addr) external view returns (bool) {\n        return\n            isRegisteredForPegout(addr) &&\n            pegoutCollateral[addr] >= minCollateral;\n    }\n\n    /**\n        @dev Registers msg.sender as a liquidity provider with msg.value as collateral\n     */\n    function register(\n        string memory _name,\n        string memory _apiBaseUrl,\n        bool _status,\n        string memory _providerType\n    ) external payable returns (uint) {\n        require(tx.origin == msg.sender, \"LBC003\");\n        //require(collateral[msg.sender] == 0, \"Already registered\");\n        require(bytes(_name).length > 0, \"LBC010\");\n        require(\n            bytes(_apiBaseUrl).length > 0,\n            \"LBC017\"\n        );\n\n        // Check if _providerType is one of the valid strings\n        require(\n            keccak256(abi.encodePacked(_providerType)) ==\n            keccak256(abi.encodePacked(\"pegin\")) ||\n            keccak256(abi.encodePacked(_providerType)) ==\n            keccak256(abi.encodePacked(\"pegout\")) ||\n            keccak256(abi.encodePacked(_providerType)) ==\n            keccak256(abi.encodePacked(\"both\")),\n            \"LBC018\"\n        );\n\n        require(collateral[msg.sender] == 0 && pegoutCollateral[msg.sender] == 0, \"LBC070\");\n        require(\n            resignationBlockNum[msg.sender] == 0,\n            \"LBC009\"\n        );\n\n        if (keccak256(abi.encodePacked(_providerType)) == keccak256(abi.encodePacked(\"pegin\"))) {\n            require(msg.value >= minCollateral, \"LBC008\");\n            collateral[msg.sender] = msg.value;\n        } else if (keccak256(abi.encodePacked(_providerType)) == keccak256(abi.encodePacked(\"pegout\"))) {\n            require(msg.value >= minCollateral, \"LBC008\");\n            pegoutCollateral[msg.sender] = msg.value;\n        } else {\n            require(msg.value >= minCollateral * 2, \"LBC008\");\n            uint halfMsgValue = msg.value / 2;\n            collateral[msg.sender] = msg.value % 2 == 0 ? halfMsgValue : halfMsgValue + 1;\n            pegoutCollateral[msg.sender] = halfMsgValue;\n        }\n\n        providerId++;\n        liquidityProviders[providerId] = LiquidityProvider({\n            id: providerId,\n            provider: msg.sender,\n            name: _name,\n            apiBaseUrl: _apiBaseUrl,\n            status: _status,\n            providerType: _providerType\n        });\n        emit Register(providerId, msg.sender, msg.value);\n        return (providerId);\n    }\n\n    function getProviders(\n        uint[] memory providerIds\n    ) external view returns (LiquidityProvider[] memory) {\n        LiquidityProvider[] memory providersToReturn = new LiquidityProvider[](\n            providerIds.length\n        );\n        uint count = 0;\n\n        for (uint i = 0; i < providerIds.length; i++) {\n            uint id = providerIds[i];\n            if (\n                (isRegistered(liquidityProviders[id].provider) ||\n                    isRegisteredForPegout(liquidityProviders[id].provider)) &&\n                liquidityProviders[id].status\n            ) {\n                providersToReturn[count] = liquidityProviders[id];\n                count++;\n            }\n        }\n        return providersToReturn;\n    }\n\n    /**\n        @dev Increases the amount of collateral of the sender\n     */\n    function addCollateral() external payable onlyRegistered {\n        collateral[msg.sender] += msg.value;\n        emit CollateralIncrease(msg.sender, msg.value);\n    }\n\n    function addPegoutCollateral() external payable onlyRegisteredForPegout {\n        pegoutCollateral[msg.sender] += msg.value;\n        emit PegoutCollateralIncrease(msg.sender, msg.value);\n    }\n\n    /**\n        @dev Increases the balance of the sender\n     */\n    function deposit() external payable onlyRegistered {\n        increaseBalance(msg.sender, msg.value);\n    }\n\n    /**\n        @dev Used to withdraw funds\n        @param amount The amount to withdraw\n     */\n    function withdraw(uint256 amount) external {\n        require(balances[msg.sender] >= amount, \"LBC019\");\n        balances[msg.sender] -= amount;\n        (bool success,) = msg.sender.call{value: amount}(\"\");\n        require(success, \"LBC020\");\n        emit Withdrawal(msg.sender, amount);\n    }\n\n    /**\n        @dev Used to withdraw the locked collateral\n     */\n    function withdrawCollateral() external {\n        require(resignationBlockNum[msg.sender] > 0, \"LBC021\");\n        require(\n            block.number - resignationBlockNum[msg.sender] >=\n            resignDelayInBlocks,\n            \"LBC022\"\n        );\n        uint amount = collateral[msg.sender];\n        collateral[msg.sender] = 0;\n        resignationBlockNum[msg.sender] = 0;\n        (bool success,) = msg.sender.call{value: amount}(\"\");\n        require(success, \"LBC020\");\n        emit WithdrawCollateral(msg.sender, amount);\n    }\n\n    function withdrawPegoutCollateral() external {\n        require(resignationBlockNum[msg.sender] > 0, \"LBC021\");\n        require(\n            block.number - resignationBlockNum[msg.sender] >=\n            resignDelayInBlocks,\n            \"LBC022\"\n        );\n        uint amount = pegoutCollateral[msg.sender];\n        pegoutCollateral[msg.sender] = 0;\n        resignationBlockNum[msg.sender] = 0;\n        (bool success,) = msg.sender.call{value: amount}(\"\");\n        require(success, \"LBC020\");\n        emit PegoutWithdrawCollateral(msg.sender, amount);\n    }\n\n    /**\n        @dev Used to resign as a liquidity provider\n     */\n    function resign() external onlyRegistered {\n        require(resignationBlockNum[msg.sender] == 0, \"LBC023\");\n        resignationBlockNum[msg.sender] = block.number;\n        emit Resigned(msg.sender);\n    }\n\n    /**\n        @dev Returns the amount of collateral of a liquidity provider\n        @param addr The address of the liquidity provider\n        @return The amount of locked collateral\n     */\n    function getCollateral(address addr) external view returns (uint256) {\n        return collateral[addr];\n    }\n\n    function getPegoutCollateral(address addr) external view returns (uint256) {\n        return pegoutCollateral[addr];\n    }\n\n    /**\n        @dev Returns the amount of funds of a liquidity provider\n        @param addr The address of the liquidity provider\n        @return The balance of the liquidity provider\n     */\n    function getBalance(address addr) external view returns (uint256) {\n        return balances[addr];\n    }\n\n    /**\n        @dev Performs a call on behalf of a user\n        @param quote The quote that identifies the service\n        @return Boolean indicating whether the call was successful\n     */\n    function callForUser(\n        QuotesV2.PeginQuote memory quote\n    ) external payable onlyRegistered nonReentrant returns (bool) {\n        require(\n            msg.sender == quote.liquidityProviderRskAddress,\n            \"LBC024\"\n        );\n        require(\n            balances[quote.liquidityProviderRskAddress] + msg.value >=\n            quote.value,\n            \"LBC019\"\n        );\n\n        bytes32 quoteHash = validateAndHashQuote(quote);\n        require(\n            processedQuotes[quoteHash] == UNPROCESSED_QUOTE_CODE,\n            \"LBC025\"\n        );\n\n        increaseBalance(quote.liquidityProviderRskAddress, msg.value);\n\n        // This check ensures that the call cannot be performed with less gas than the agreed amount\n        require(\n            gasleft() >= quote.gasLimit + MAX_CALL_GAS_COST,\n            \"LBC026\"\n        );\n        (bool success,) = quote.contractAddress.call{\n                gas: quote.gasLimit,\n                value: quote.value\n            }(quote.data);\n\n        require(block.timestamp <= type(uint32).max, \"LBC027\");\n        callRegistry[quoteHash].timestamp = uint32(block.timestamp);\n\n        if (success) {\n            callRegistry[quoteHash].success = true;\n            decreaseBalance(quote.liquidityProviderRskAddress, quote.value);\n        }\n        emit CallForUser(\n            msg.sender,\n            quote.contractAddress,\n            quote.gasLimit,\n            quote.value,\n            quote.data,\n            success,\n            quoteHash\n        );\n        processedQuotes[quoteHash] = CALL_DONE_CODE;\n        return success;\n    }\n\n    /**\n        @dev Registers a peg-in transaction with the bridge and pays to the involved parties\n        @param quote The quote of the service\n        @param signature The signature of the quote\n        @param btcRawTransaction The peg-in transaction\n        @param partialMerkleTree The merkle tree path that proves transaction inclusion\n        @param height The block that contains the peg-in transaction\n        @return The total peg-in amount received from the bridge contract or an error code\n     */\n    function registerPegIn(\n        QuotesV2.PeginQuote memory quote,\n        bytes memory signature,\n        bytes memory btcRawTransaction,\n        bytes memory partialMerkleTree,\n        uint256 height\n    ) external nonReentrant returns (int256) {\n        bytes32 quoteHash = validateAndHashQuote(quote);\n\n        // TODO: allow multiple registerPegIns for the same quote with different transactions\n        require(\n            processedQuotes[quoteHash] <= CALL_DONE_CODE,\n            \"LBC028\"\n        );\n        require(\n            SignatureValidator.verify(\n                quote.liquidityProviderRskAddress,\n                quoteHash,\n                signature\n            ),\n            \"LBC029\"\n        );\n        require(height < uint256(int256(type(int32).max)), \"LBC030\");\n\n        int256 transferredAmountOrErrorCode = registerBridge(\n            quote,\n            btcRawTransaction,\n            partialMerkleTree,\n            height,\n            quoteHash\n        );\n\n        require(\n            transferredAmountOrErrorCode !=\n            BRIDGE_UNPROCESSABLE_TX_VALIDATIONS_ERROR,\n            \"LBC031\"\n        );\n        require(\n            transferredAmountOrErrorCode !=\n            BRIDGE_UNPROCESSABLE_TX_ALREADY_PROCESSED_ERROR_CODE,\n            \"LBC032\"\n        );\n        require(\n            transferredAmountOrErrorCode !=\n            BRIDGE_UNPROCESSABLE_TX_VALUE_ZERO_ERROR,\n            \"LBC033\"\n        );\n        require(\n            transferredAmountOrErrorCode !=\n            BRIDGE_UNPROCESSABLE_TX_UTXO_AMOUNT_SENT_BELOW_MINIMUM_ERROR,\n            \"LBC034\"\n        );\n        require(\n            transferredAmountOrErrorCode != BRIDGE_GENERIC_ERROR,\n            \"LBC035\"\n        );\n        require(\n            transferredAmountOrErrorCode > 0 ||\n            transferredAmountOrErrorCode == BRIDGE_REFUNDED_LP_ERROR_CODE ||\n            transferredAmountOrErrorCode == BRIDGE_REFUNDED_USER_ERROR_CODE,\n            \"LBC036\"\n        );\n\n        if (\n            shouldPenalizeLP(\n            quote,\n            transferredAmountOrErrorCode,\n            callRegistry[quoteHash].timestamp,\n            height\n        )\n        ) {\n            uint penalizationAmount = min(\n                quote.penaltyFee,\n                collateral[quote.liquidityProviderRskAddress]\n            ); // prevent underflow when collateral is less than penalty fee.\n            collateral[quote.liquidityProviderRskAddress] -= penalizationAmount;\n            emit Penalized(\n                quote.liquidityProviderRskAddress,\n                penalizationAmount,\n                quoteHash\n            );\n\n            // pay reward to sender\n            uint256 punisherReward = (penalizationAmount * rewardP) / 100;\n            increaseBalance(msg.sender, punisherReward);\n        }\n\n        if (\n            transferredAmountOrErrorCode == BRIDGE_REFUNDED_LP_ERROR_CODE ||\n            transferredAmountOrErrorCode == BRIDGE_REFUNDED_USER_ERROR_CODE\n        ) {\n            // Bridge cap exceeded\n            processedQuotes[quoteHash] = PROCESSED_QUOTE_CODE;\n            delete callRegistry[quoteHash];\n            emit BridgeCapExceeded(quoteHash, transferredAmountOrErrorCode);\n            return transferredAmountOrErrorCode;\n        }\n\n        // the amount is safely assumed positive because it's already been\n        // validated in lines 287/298 there's no (negative) error code being returned by the bridge.\n        uint transferredAmount = uint(transferredAmountOrErrorCode);\n\n        QuotesV2.checkAgreedAmount(quote, transferredAmount);\n\n        if (callRegistry[quoteHash].timestamp > 0) {\n            uint refundAmount;\n\n            if (callRegistry[quoteHash].success) {\n                refundAmount = min(\n                    transferredAmount,\n                    quote.value + quote.callFee + quote.gasFee\n                );\n            } else {\n                refundAmount = min(transferredAmount, quote.callFee + quote.gasFee);\n            }\n            increaseBalance(quote.liquidityProviderRskAddress, refundAmount);\n\n            uint remainingAmount = transferredAmount - refundAmount;\n            payToFeeCollector(quote.productFeeAmount, quoteHash);\n\n            if (remainingAmount > dust) {\n                // refund rskRefundAddress, if remaining amount greater than dust\n                (bool success,) = quote.rskRefundAddress.call{\n                        gas: MAX_REFUND_GAS_LIMIT,\n                        value: remainingAmount\n                    }(\"\");\n                emit Refund(\n                    quote.rskRefundAddress,\n                    remainingAmount,\n                    success,\n                    quoteHash\n                );\n\n                if (!success) {\n                    // transfer funds to LP instead, if for some reason transfer to rskRefundAddress was unsuccessful\n                    increaseBalance(\n                        quote.liquidityProviderRskAddress,\n                        remainingAmount\n                    );\n                }\n            }\n        } else {\n            uint refundAmount = transferredAmount;\n\n            if (quote.callOnRegister && refundAmount >= quote.value) {\n                (bool callSuccess,) = quote.contractAddress.call{\n                        gas: quote.gasLimit,\n                        value: quote.value\n                    }(quote.data);\n                emit CallForUser(\n                    msg.sender,\n                    quote.contractAddress,\n                    quote.gasLimit,\n                    quote.value,\n                    quote.data,\n                    callSuccess,\n                    quoteHash\n                );\n\n                if (callSuccess) {\n                    refundAmount -= quote.value;\n                }\n            }\n            if (refundAmount > dust) {\n                // refund rskRefundAddress, if refund amount greater than dust\n                (bool success,) = quote.rskRefundAddress.call{\n                        gas: MAX_REFUND_GAS_LIMIT,\n                        value: refundAmount\n                    }(\"\");\n                emit Refund(\n                    quote.rskRefundAddress,\n                    refundAmount,\n                    success,\n                    quoteHash\n                );\n            }\n        }\n        processedQuotes[quoteHash] = PROCESSED_QUOTE_CODE;\n        delete callRegistry[quoteHash];\n        emit PegInRegistered(quoteHash, transferredAmountOrErrorCode);\n        return transferredAmountOrErrorCode;\n    }\n\n    function depositPegout( // TODO convert to calldata when contract size issues are fixed\n        QuotesV2.PegOutQuote memory quote,\n        bytes memory signature\n    ) external payable {\n        require(isRegisteredForPegout(quote.lpRskAddress), \"LBC037\");\n        require(quote.value + quote.callFee + quote.productFeeAmount + quote.gasFee <= msg.value, \"LBC063\");\n        require(block.timestamp <= quote.depositDateLimit, \"LBC065\");\n        require(block.timestamp <= quote.expireDate, \"LBC046\");\n        require(block.number <= quote.expireBlock, \"LBC047\");\n        bytes32 quoteHash = hashPegoutQuote(quote);\n        require(\n            SignatureValidator.verify(quote.lpRskAddress, quoteHash, signature),\n            \"LBC029\"\n        );\n\n        QuotesV2.PegOutQuote storage registeredQuote = registeredPegoutQuotes[quoteHash];\n\n        require(pegoutRegistry[quoteHash].completed == false, \"LBC064\");\n        require(registeredQuote.lbcAddress == address(0), \"LBC028\");\n        registeredPegoutQuotes[quoteHash] = quote;\n        pegoutRegistry[quoteHash].depositTimestamp = block.timestamp;\n        emit PegOutDeposit(quoteHash, msg.sender, msg.value, block.timestamp);\n    }\n\n    function refundUserPegOut(\n        bytes32 quoteHash\n    ) external nonReentrant {\n        QuotesV2.PegOutQuote storage quote = registeredPegoutQuotes[quoteHash];\n\n        require(quote.lbcAddress != address(0), \"LBC042\");\n        require(\n            block.timestamp > quote.expireDate &&\n            block.number > quote.expireBlock,\n            \"LBC041\"\n        );\n\n        uint valueToTransfer = quote.value + quote.callFee + quote.productFeeAmount + quote.gasFee;\n        address addressToTransfer = quote.rskRefundAddress;\n\n        uint penalty = min(quote.penaltyFee, pegoutCollateral[quote.lpRskAddress]);\n        pegoutCollateral[quote.lpRskAddress] -= penalty;\n\n        emit Penalized(quote.lpRskAddress, penalty, quoteHash);\n        emit PegOutUserRefunded(\n            quoteHash,\n            valueToTransfer,\n            quote.rskRefundAddress\n        );\n\n        delete registeredPegoutQuotes[quoteHash];\n        pegoutRegistry[quoteHash].completed = true;\n\n        (bool sent,) = addressToTransfer.call{value: valueToTransfer}(\"\");\n        require(sent, \"LBC044\");\n    }\n\n    function refundPegOut(\n        bytes32 quoteHash,\n        bytes memory btcTx,\n        bytes32 btcBlockHeaderHash,\n        uint256 partialMerkleTree,\n        bytes32[] memory merkleBranchHashes\n    ) external nonReentrant onlyRegisteredForPegout {\n        require(pegoutRegistry[quoteHash].completed == false, \"LBC064\");\n        QuotesV2.PegOutQuote storage quote = registeredPegoutQuotes[quoteHash];\n        require(quote.lbcAddress != address(0), \"LBC042\");\n        BtcUtils.TxRawOutput[] memory outputs = BtcUtils.getOutputs(btcTx);\n        bytes memory scriptContent = BtcUtils.parseNullDataScript(outputs[QUOTE_HASH_OUTPUT].pkScript);\n        require(scriptContent.length == 33 && scriptContent[0] == 0x20, \"LBC075\");\n        // shift the array to remove the first byte (the size)\n        for (uint8 i = 0 ; i < scriptContent.length - 1; i++) {\n            scriptContent[i] = scriptContent[i + 1];\n        }\n        bytes32 txQuoteHash = abi.decode(scriptContent, (bytes32));\n        require(quoteHash == txQuoteHash, \"LBC069\");\n        require(msg.sender == quote.lpRskAddress, \"LBC048\");\n        require(\n            bridge.getBtcTransactionConfirmations(\n                BtcUtils.hashBtcTx(btcTx),\n                btcBlockHeaderHash,\n                partialMerkleTree,\n                merkleBranchHashes\n            ) >= int(uint256(quote.transferConfirmations)),\n            \"LBC049\"\n        );\n        require(quote.value <= outputs[PAY_TO_ADDRESS_OUTPUT].value * (10**10), \"LBC067\"); // satoshi to wei\n        bytes memory btcTxDestination = BtcUtils.parsePayToPubKeyHash(outputs[PAY_TO_ADDRESS_OUTPUT].pkScript, mainnet);\n        require(keccak256(quote.deposityAddress) == keccak256(btcTxDestination), \"LBC068\");\n\n        if (\n            shouldPenalizePegOutLP(\n            quote,\n            txQuoteHash,\n            btcBlockHeaderHash\n        )\n        ) {\n            uint penalty = min(\n                quote.penaltyFee,\n                pegoutCollateral[quote.lpRskAddress]\n            );\n            pegoutCollateral[quote.lpRskAddress] -= penalty;\n            emit Penalized(quote.lpRskAddress, penalty, txQuoteHash);\n        }\n\n        (bool sent,) = quote.lpRskAddress.call{\n                value: quote.value + quote.callFee\n            }(\"\");\n        require(sent, \"LBC050\");\n\n        payToFeeCollector(quote.productFeeAmount, quoteHash);\n\n        delete registeredPegoutQuotes[txQuoteHash];\n        pegoutRegistry[txQuoteHash].completed = true;\n        emit PegOutRefunded(txQuoteHash);\n    }\n\n    function validatePeginDepositAddress(\n        QuotesV2.PeginQuote memory quote,\n        bytes memory depositAddress\n    ) external view returns (bool) {\n        bytes32 derivationValue = keccak256(\n            bytes.concat(\n                hashQuote(quote),\n                quote.btcRefundAddress,\n                bytes20(quote.lbcAddress),\n                quote.liquidityProviderBtcAddress\n            )\n        );\n        bytes memory flyoverRedeemScript = bytes.concat(\n            hex\"20\",\n            derivationValue,\n            hex\"75\",\n            bridge.getActivePowpegRedeemScript()\n        );\n        return BtcUtils.validateP2SHAdress(depositAddress, flyoverRedeemScript, mainnet);\n    }\n\n    /**\n        @dev Calculates hash of a quote. Note: besides calculation this function also validates the quote.\n        @param quote The quote of the service\n        @return The hash of a quote\n     */\n    function hashQuote(QuotesV2.PeginQuote memory quote) public view returns (bytes32) {\n        return validateAndHashQuote(quote);\n    }\n\n    function hashPegoutQuote(\n        QuotesV2.PegOutQuote memory quote\n    ) public view returns (bytes32) {\n        return validateAndHashPegOutQuote(quote);\n    }\n\n    function validateAndHashQuote(\n        QuotesV2.PeginQuote memory quote\n    ) private view returns (bytes32) {\n        require(address(this) == quote.lbcAddress, \"LBC051\");\n        require(\n            address(bridge) != quote.contractAddress,\n            \"LBC052\"\n        );\n        require(\n            quote.btcRefundAddress.length == 21 ||\n            quote.btcRefundAddress.length == 33,\n            \"LBC053\"\n        );\n        require(\n            quote.liquidityProviderBtcAddress.length == 21,\n            \"LBC054\"\n        );\n        require(\n            quote.value + quote.callFee + quote.productFeeAmount + quote.gasFee >= minPegIn,\n            \"LBC055\"\n        );\n        require(\n            type(uint32).max >= uint64(quote.agreementTimestamp) + uint64(quote.timeForDeposit),\n            \"LBC071\"\n        );\n\n        return keccak256(QuotesV2.encodeQuote(quote));\n    }\n\n    function validateAndHashPegOutQuote(\n        QuotesV2.PegOutQuote memory quote\n    ) private view returns (bytes32) {\n        require(address(this) == quote.lbcAddress, \"LBC056\");\n\n        return keccak256(QuotesV2.encodePegOutQuote(quote));\n    }\n\n    function min(uint a, uint b) private pure returns (uint) {\n        return a < b ? a : b;\n    }\n\n    // IMPORTANT: These methods should remain private at all costs\n    function increaseBalance(address dest, uint amount) private {\n        balances[dest] += amount;\n        emit BalanceIncrease(dest, amount);\n    }\n\n    function decreaseBalance(address dest, uint amount) private {\n        balances[dest] -= amount;\n        emit BalanceDecrease(dest, amount);\n    }\n\n    /**\n        @dev Checks if a liquidity provider is registered\n        @param addr The address of the liquidity provider\n        @return Boolean indicating whether the liquidity provider is registered\n     */\n    function isRegistered(address addr) private view returns (bool) {\n        return collateral[addr] > 0 && resignationBlockNum[addr] == 0;\n    }\n\n    function isRegisteredForPegout(address addr) private view returns (bool) {\n        return pegoutCollateral[addr] > 0 && resignationBlockNum[addr] == 0;\n    }\n\n    /**\n        @dev Registers a transaction with the bridge contract\n        @param quote The quote of the service\n        @param btcRawTransaction The peg-in transaction\n        @param partialMerkleTree The merkle tree path that proves transaction inclusion\n        @param height The block that contains the transaction\n        @return The total peg-in amount received from the bridge contract or an error code\n     */\n    function registerBridge(\n        QuotesV2.PeginQuote memory quote,\n        bytes memory btcRawTransaction,\n        bytes memory partialMerkleTree,\n        uint256 height,\n        bytes32 derivationHash\n    ) private returns (int256) {\n        return\n            bridge.registerFastBridgeBtcTransaction(\n            btcRawTransaction,\n            height,\n            partialMerkleTree,\n            derivationHash,\n            quote.btcRefundAddress,\n            payable(this),\n            quote.liquidityProviderBtcAddress,\n            callRegistry[derivationHash].timestamp > 0 && callRegistry[derivationHash].success\n        );\n    }\n\n    /**\n        @dev Checks if a liquidity provider should be penalized\n        @param quote The quote of the service\n        @param amount The transferred amount or an error code\n        @param callTimestamp The time that the liquidity provider called callForUser\n        @param height The block height where the peg-in transaction is included\n        @return Boolean indicating whether the penalty applies\n     */\n    function shouldPenalizeLP(\n        QuotesV2.PeginQuote memory quote,\n        int256 amount,\n        uint256 callTimestamp,\n        uint256 height\n    ) private view returns (bool) {\n        // do not penalize if deposit amount is insufficient\n        if (amount > 0 && uint256(amount) < quote.value + quote.callFee + quote.productFeeAmount + quote.gasFee) {\n            return false;\n        }\n\n        bytes memory firstConfirmationHeader = bridge\n            .getBtcBlockchainBlockHeaderByHeight(height);\n        require(firstConfirmationHeader.length > 0, \"Invalid block height\");\n\n        uint256 firstConfirmationTimestamp = BtcUtils.getBtcBlockTimestamp(\n            firstConfirmationHeader\n        );\n\n        // do not penalize if deposit was not made on time\n        // prevent overflow when collateral is less than penalty fee.\n        uint timeLimit = quote.agreementTimestamp + quote.timeForDeposit;\n        if (firstConfirmationTimestamp > timeLimit) {\n            return false;\n        }\n\n        // penalize if call was not made\n        if (callTimestamp == 0) {\n            return true;\n        }\n\n        bytes memory nConfirmationsHeader = bridge\n            .getBtcBlockchainBlockHeaderByHeight(\n            height + quote.depositConfirmations - 1\n        );\n        require(nConfirmationsHeader.length > 0, \"LBC058\");\n\n        uint256 nConfirmationsTimestamp = BtcUtils.getBtcBlockTimestamp(\n            nConfirmationsHeader\n        );\n\n        // penalize if the call was not made on time\n        if (callTimestamp > nConfirmationsTimestamp + quote.callTime) {\n            return true;\n        }\n        return false;\n    }\n\n    function shouldPenalizePegOutLP(\n        QuotesV2.PegOutQuote memory quote,\n        bytes32 quoteHash,\n        bytes32 blockHash\n    ) private view returns (bool) {\n        bytes memory firstConfirmationHeader = bridge.getBtcBlockchainBlockHeaderByHash(blockHash);\n        require(firstConfirmationHeader.length > 0, \"LBC059\");\n\n        uint256 firstConfirmationTimestamp = BtcUtils.getBtcBlockTimestamp(firstConfirmationHeader);\n\n        // penalize if the transfer was not made on time\n        if (firstConfirmationTimestamp > pegoutRegistry[quoteHash].depositTimestamp +\n        quote.transferTime + btcBlockTime) {\n            return true;\n        }\n\n        // penalize if LP is refunding after expiration\n        if (block.timestamp > quote.expireDate || block.number > quote.expireBlock) {\n            return true;\n        }\n\n        return false;\n    }\n\n    function payToFeeCollector(uint amount, bytes32 quoteHash) private {\n        if (amount > 0) {\n            (bool daoSuccess,) = payable(daoFeeCollectorAddress).call{value: amount}(\"\");\n            require(daoSuccess, \"LBC074\");\n            emit DaoFeeSent(quoteHash, amount);\n        }\n    }\n}\n",
  "sourcePath": "/Users/luischavez/iov/liquidity-bridge-contract/contracts/LiquidityBridgeContractV2.sol",
  "compiler": {
    "name": "solc",
    "version": "0.8.18+commit.87f61d96.Emscripten.clang"
  },
  "schemaVersion": "3.4.13",
  "updatedAt": "2024-03-08T19:52:46.729Z",
  "networkType": "ethereum",
  "devdoc": {
    "events": {
      "Initialized(uint8)": {
        "details": "Triggered when the contract has been initialized or reinitialized."
      }
    },
    "kind": "dev",
    "methods": {
      "addCollateral()": {
        "details": "Increases the amount of collateral of the sender"
      },
      "callForUser((bytes20,address,address,bytes,address,bytes,uint256,uint256,address,bytes,uint32,int64,uint256,uint32,uint32,uint32,uint16,bool,uint256,uint256))": {
        "details": "Performs a call on behalf of a user",
        "params": {
          "quote": "The quote that identifies the service"
        },
        "returns": {
          "_0": "Boolean indicating whether the call was successful"
        }
      },
      "deposit()": {
        "details": "Increases the balance of the sender"
      },
      "getBalance(address)": {
        "details": "Returns the amount of funds of a liquidity provider",
        "params": {
          "addr": "The address of the liquidity provider"
        },
        "returns": {
          "_0": "The balance of the liquidity provider"
        }
      },
      "getCollateral(address)": {
        "details": "Returns the amount of collateral of a liquidity provider",
        "params": {
          "addr": "The address of the liquidity provider"
        },
        "returns": {
          "_0": "The amount of locked collateral"
        }
      },
      "hashQuote((bytes20,address,address,bytes,address,bytes,uint256,uint256,address,bytes,uint32,int64,uint256,uint32,uint32,uint32,uint16,bool,uint256,uint256))": {
        "details": "Calculates hash of a quote. Note: besides calculation this function also validates the quote.",
        "params": {
          "quote": "The quote of the service"
        },
        "returns": {
          "_0": "The hash of a quote"
        }
      },
      "isOperational(address)": {
        "details": "Checks whether a liquidity provider can deliver a pegin service",
        "returns": {
          "_0": "Whether the liquidity provider is registered and has enough locked collateral"
        }
      },
      "isOperationalForPegout(address)": {
        "details": "Checks whether a liquidity provider can deliver a pegout service",
        "returns": {
          "_0": "Whether the liquidity provider is registered and has enough locked collateral"
        }
      },
      "owner()": {
        "details": "Returns the address of the current owner."
      },
      "register(string,string,bool,string)": {
        "details": "Registers msg.sender as a liquidity provider with msg.value as collateral"
      },
      "registerPegIn((bytes20,address,address,bytes,address,bytes,uint256,uint256,address,bytes,uint32,int64,uint256,uint32,uint32,uint32,uint16,bool,uint256,uint256),bytes,bytes,bytes,uint256)": {
        "details": "Registers a peg-in transaction with the bridge and pays to the involved parties",
        "params": {
          "btcRawTransaction": "The peg-in transaction",
          "height": "The block that contains the peg-in transaction",
          "partialMerkleTree": "The merkle tree path that proves transaction inclusion",
          "quote": "The quote of the service",
          "signature": "The signature of the quote"
        },
        "returns": {
          "_0": "The total peg-in amount received from the bridge contract or an error code"
        }
      },
      "renounceOwnership()": {
        "details": "Leaves the contract without owner. It will not be possible to call `onlyOwner` functions anymore. Can only be called by the current owner. NOTE: Renouncing ownership will leave the contract without an owner, thereby removing any functionality that is only available to the owner."
      },
      "resign()": {
        "details": "Used to resign as a liquidity provider"
      },
      "transferOwnership(address)": {
        "details": "Transfers ownership of the contract to a new account (`newOwner`). Can only be called by the current owner."
      },
      "withdraw(uint256)": {
        "details": "Used to withdraw funds",
        "params": {
          "amount": "The amount to withdraw"
        }
      },
      "withdrawCollateral()": {
        "details": "Used to withdraw the locked collateral"
      }
    },
    "title": "Contract that assists with the Flyover protocol",
    "version": 1
  },
  "userdoc": {
    "kind": "user",
    "methods": {},
    "version": 1
  }
}