{
  "contractName": "LiquidityBridgeContractV2",
  "abi": [
    {
      "anonymous": false,
      "inputs": [
        {
          "indexed": false,
          "internalType": "address",
          "name": "dest",
          "type": "address"
        },
        {
          "indexed": false,
          "internalType": "uint256",
          "name": "amount",
          "type": "uint256"
        }
      ],
      "name": "BalanceDecrease",
      "type": "event"
    },
    {
      "anonymous": false,
      "inputs": [
        {
          "indexed": false,
          "internalType": "address",
          "name": "dest",
          "type": "address"
        },
        {
          "indexed": false,
          "internalType": "uint256",
          "name": "amount",
          "type": "uint256"
        }
      ],
      "name": "BalanceIncrease",
      "type": "event"
    },
    {
      "anonymous": false,
      "inputs": [
        {
          "indexed": false,
          "internalType": "bytes32",
          "name": "quoteHash",
          "type": "bytes32"
        },
        {
          "indexed": false,
          "internalType": "int256",
          "name": "errorCode",
          "type": "int256"
        }
      ],
      "name": "BridgeCapExceeded",
      "type": "event"
    },
    {
      "anonymous": false,
      "inputs": [
        {
          "indexed": true,
          "internalType": "address",
          "name": "from",
          "type": "address"
        },
        {
          "indexed": true,
          "internalType": "address",
          "name": "dest",
          "type": "address"
        },
        {
          "indexed": false,
          "internalType": "uint256",
          "name": "gasLimit",
          "type": "uint256"
        },
        {
          "indexed": false,
          "internalType": "uint256",
          "name": "value",
          "type": "uint256"
        },
        {
          "indexed": false,
          "internalType": "bytes",
          "name": "data",
          "type": "bytes"
        },
        {
          "indexed": false,
          "internalType": "bool",
          "name": "success",
          "type": "bool"
        },
        {
          "indexed": false,
          "internalType": "bytes32",
          "name": "quoteHash",
          "type": "bytes32"
        }
      ],
      "name": "CallForUser",
      "type": "event"
    },
    {
      "anonymous": false,
      "inputs": [
        {
          "indexed": false,
          "internalType": "address",
          "name": "from",
          "type": "address"
        },
        {
          "indexed": false,
          "internalType": "uint256",
          "name": "amount",
          "type": "uint256"
        }
      ],
      "name": "CollateralIncrease",
      "type": "event"
    },
    {
      "anonymous": false,
      "inputs": [
        {
          "indexed": true,
          "internalType": "bytes32",
          "name": "quoteHash",
          "type": "bytes32"
        },
        {
          "indexed": false,
          "internalType": "uint256",
          "name": "amount",
          "type": "uint256"
        }
      ],
      "name": "DaoFeeSent",
      "type": "event"
    },
    {
      "anonymous": false,
      "inputs": [
        {
          "indexed": false,
          "internalType": "uint8",
          "name": "version",
          "type": "uint8"
        }
      ],
      "name": "Initialized",
      "type": "event"
    },
    {
      "anonymous": false,
      "inputs": [
        {
          "indexed": true,
          "internalType": "address",
          "name": "previousOwner",
          "type": "address"
        },
        {
          "indexed": true,
          "internalType": "address",
          "name": "newOwner",
          "type": "address"
        }
      ],
      "name": "OwnershipTransferred",
      "type": "event"
    },
    {
      "anonymous": false,
      "inputs": [
        {
          "indexed": true,
          "internalType": "bytes32",
          "name": "quoteHash",
          "type": "bytes32"
        },
        {
          "indexed": false,
          "internalType": "int256",
          "name": "transferredAmount",
          "type": "int256"
        }
      ],
      "name": "PegInRegistered",
      "type": "event"
    },
    {
      "anonymous": false,
      "inputs": [
        {
          "indexed": true,
          "internalType": "bytes32",
          "name": "quoteHash",
          "type": "bytes32"
        },
        {
          "indexed": true,
          "internalType": "address",
          "name": "sender",
          "type": "address"
        },
        {
          "indexed": false,
          "internalType": "uint256",
          "name": "amount",
          "type": "uint256"
        },
        {
          "indexed": false,
          "internalType": "uint256",
          "name": "timestamp",
          "type": "uint256"
        }
      ],
      "name": "PegOutDeposit",
      "type": "event"
    },
    {
      "anonymous": false,
      "inputs": [
        {
          "indexed": true,
          "internalType": "bytes32",
          "name": "quoteHash",
          "type": "bytes32"
        }
      ],
      "name": "PegOutRefunded",
      "type": "event"
    },
    {
      "anonymous": false,
      "inputs": [
        {
          "indexed": true,
          "internalType": "bytes32",
          "name": "quoteHash",
          "type": "bytes32"
        },
        {
          "indexed": false,
          "internalType": "uint256",
          "name": "value",
          "type": "uint256"
        },
        {
          "indexed": false,
          "internalType": "address",
          "name": "userAddress",
          "type": "address"
        }
      ],
      "name": "PegOutUserRefunded",
      "type": "event"
    },
    {
      "anonymous": false,
      "inputs": [
        {
          "indexed": false,
          "internalType": "address",
          "name": "from",
          "type": "address"
        },
        {
          "indexed": false,
          "internalType": "uint256",
          "name": "amount",
          "type": "uint256"
        }
      ],
      "name": "PegoutCollateralIncrease",
      "type": "event"
    },
    {
      "anonymous": false,
      "inputs": [
        {
          "indexed": false,
          "internalType": "address",
          "name": "liquidityProvider",
          "type": "address"
        },
        {
          "indexed": false,
          "internalType": "uint256",
          "name": "penalty",
          "type": "uint256"
        },
        {
          "indexed": false,
          "internalType": "bytes32",
          "name": "quoteHash",
          "type": "bytes32"
        }
      ],
      "name": "Penalized",
      "type": "event"
    },
    {
      "anonymous": false,
      "inputs": [
        {
          "indexed": true,
          "internalType": "address",
          "name": "providerAddress",
          "type": "address"
        },
        {
          "indexed": false,
          "internalType": "string",
          "name": "name",
          "type": "string"
        },
        {
          "indexed": false,
          "internalType": "string",
          "name": "url",
          "type": "string"
        }
      ],
      "name": "ProviderUpdate",
      "type": "event"
    },
    {
      "anonymous": false,
      "inputs": [
        {
          "indexed": false,
          "internalType": "address",
          "name": "dest",
          "type": "address"
        },
        {
          "indexed": false,
          "internalType": "uint256",
          "name": "amount",
          "type": "uint256"
        },
        {
          "indexed": false,
          "internalType": "bool",
          "name": "success",
          "type": "bool"
        },
        {
          "indexed": false,
          "internalType": "bytes32",
          "name": "quoteHash",
          "type": "bytes32"
        }
      ],
      "name": "Refund",
      "type": "event"
    },
    {
      "anonymous": false,
      "inputs": [
        {
          "indexed": false,
          "internalType": "uint256",
          "name": "id",
          "type": "uint256"
        },
        {
          "indexed": true,
          "internalType": "address",
          "name": "from",
          "type": "address"
        },
        {
          "indexed": false,
          "internalType": "uint256",
          "name": "amount",
          "type": "uint256"
        }
      ],
      "name": "Register",
      "type": "event"
    },
    {
      "anonymous": false,
      "inputs": [
        {
          "indexed": false,
          "internalType": "address",
          "name": "from",
          "type": "address"
        }
      ],
      "name": "Resigned",
      "type": "event"
    },
    {
      "anonymous": false,
      "inputs": [
        {
          "indexed": false,
          "internalType": "address",
          "name": "from",
          "type": "address"
        },
        {
          "indexed": false,
          "internalType": "uint256",
          "name": "amount",
          "type": "uint256"
        }
      ],
      "name": "WithdrawCollateral",
      "type": "event"
    },
    {
      "anonymous": false,
      "inputs": [
        {
          "indexed": false,
          "internalType": "address",
          "name": "from",
          "type": "address"
        },
        {
          "indexed": false,
          "internalType": "uint256",
          "name": "amount",
          "type": "uint256"
        }
      ],
      "name": "Withdrawal",
      "type": "event"
    },
    {
      "inputs": [],
      "name": "BRIDGE_GENERIC_ERROR",
      "outputs": [
        {
          "internalType": "int16",
          "name": "",
          "type": "int16"
        }
      ],
      "stateMutability": "view",
      "type": "function",
      "constant": true
    },
    {
      "inputs": [],
      "name": "BRIDGE_REFUNDED_LP_ERROR_CODE",
      "outputs": [
        {
          "internalType": "int16",
          "name": "",
          "type": "int16"
        }
      ],
      "stateMutability": "view",
      "type": "function",
      "constant": true
    },
    {
      "inputs": [],
      "name": "BRIDGE_REFUNDED_USER_ERROR_CODE",
      "outputs": [
        {
          "internalType": "int16",
          "name": "",
          "type": "int16"
        }
      ],
      "stateMutability": "view",
      "type": "function",
      "constant": true
    },
    {
      "inputs": [],
      "name": "BRIDGE_UNPROCESSABLE_TX_ALREADY_PROCESSED_ERROR_CODE",
      "outputs": [
        {
          "internalType": "int16",
          "name": "",
          "type": "int16"
        }
      ],
      "stateMutability": "view",
      "type": "function",
      "constant": true
    },
    {
      "inputs": [],
      "name": "BRIDGE_UNPROCESSABLE_TX_INVALID_SENDER_ERROR_CODE",
      "outputs": [
        {
          "internalType": "int16",
          "name": "",
          "type": "int16"
        }
      ],
      "stateMutability": "view",
      "type": "function",
      "constant": true
    },
    {
      "inputs": [],
      "name": "BRIDGE_UNPROCESSABLE_TX_NOT_CONTRACT_ERROR_CODE",
      "outputs": [
        {
          "internalType": "int16",
          "name": "",
          "type": "int16"
        }
      ],
      "stateMutability": "view",
      "type": "function",
      "constant": true
    },
    {
      "inputs": [],
      "name": "BRIDGE_UNPROCESSABLE_TX_UTXO_AMOUNT_SENT_BELOW_MINIMUM_ERROR",
      "outputs": [
        {
          "internalType": "int16",
          "name": "",
          "type": "int16"
        }
      ],
      "stateMutability": "view",
      "type": "function",
      "constant": true
    },
    {
      "inputs": [],
      "name": "BRIDGE_UNPROCESSABLE_TX_VALIDATIONS_ERROR",
      "outputs": [
        {
          "internalType": "int16",
          "name": "",
          "type": "int16"
        }
      ],
      "stateMutability": "view",
      "type": "function",
      "constant": true
    },
    {
      "inputs": [],
      "name": "BRIDGE_UNPROCESSABLE_TX_VALUE_ZERO_ERROR",
      "outputs": [
        {
          "internalType": "int16",
          "name": "",
          "type": "int16"
        }
      ],
      "stateMutability": "view",
      "type": "function",
      "constant": true
    },
    {
      "inputs": [],
      "name": "CALL_DONE_CODE",
      "outputs": [
        {
          "internalType": "uint8",
          "name": "",
          "type": "uint8"
        }
      ],
      "stateMutability": "view",
      "type": "function",
      "constant": true
    },
    {
      "inputs": [],
      "name": "MAX_CALL_GAS_COST",
      "outputs": [
        {
          "internalType": "uint16",
          "name": "",
          "type": "uint16"
        }
      ],
      "stateMutability": "view",
      "type": "function",
      "constant": true
    },
    {
      "inputs": [],
      "name": "MAX_REFUND_GAS_LIMIT",
      "outputs": [
        {
          "internalType": "uint16",
          "name": "",
          "type": "uint16"
        }
      ],
      "stateMutability": "view",
      "type": "function",
      "constant": true
    },
    {
      "inputs": [],
      "name": "PAY_TO_ADDRESS_OUTPUT",
      "outputs": [
        {
          "internalType": "uint256",
          "name": "",
          "type": "uint256"
        }
      ],
      "stateMutability": "view",
      "type": "function",
      "constant": true
    },
    {
      "inputs": [],
      "name": "PROCESSED_QUOTE_CODE",
      "outputs": [
        {
          "internalType": "uint8",
          "name": "",
          "type": "uint8"
        }
      ],
      "stateMutability": "view",
      "type": "function",
      "constant": true
    },
    {
      "inputs": [],
      "name": "QUOTE_HASH_OUTPUT",
      "outputs": [
        {
          "internalType": "uint256",
          "name": "",
          "type": "uint256"
        }
      ],
      "stateMutability": "view",
      "type": "function",
      "constant": true
    },
    {
      "inputs": [],
      "name": "SAT_TO_WEI_CONVERSION",
      "outputs": [
        {
          "internalType": "uint256",
          "name": "",
          "type": "uint256"
        }
      ],
      "stateMutability": "view",
      "type": "function",
      "constant": true
    },
    {
      "inputs": [],
      "name": "UNPROCESSED_QUOTE_CODE",
      "outputs": [
        {
          "internalType": "uint8",
          "name": "",
          "type": "uint8"
        }
      ],
      "stateMutability": "view",
      "type": "function",
      "constant": true
    },
    {
      "inputs": [],
      "name": "bridge",
      "outputs": [
        {
          "internalType": "contract Bridge",
          "name": "",
          "type": "address"
        }
      ],
      "stateMutability": "view",
      "type": "function",
      "constant": true
    },
    {
      "inputs": [],
      "name": "daoFeeCollectorAddress",
      "outputs": [
        {
          "internalType": "address",
          "name": "",
          "type": "address"
        }
      ],
      "stateMutability": "view",
      "type": "function",
      "constant": true
    },
    {
      "inputs": [],
      "name": "owner",
      "outputs": [
        {
          "internalType": "address",
          "name": "",
          "type": "address"
        }
      ],
      "stateMutability": "view",
      "type": "function",
      "constant": true
    },
    {
      "inputs": [],
      "name": "productFeePercentage",
      "outputs": [
        {
          "internalType": "uint256",
          "name": "",
          "type": "uint256"
        }
      ],
      "stateMutability": "view",
      "type": "function",
      "constant": true
    },
    {
      "inputs": [],
      "name": "providerId",
      "outputs": [
        {
          "internalType": "uint256",
          "name": "",
          "type": "uint256"
        }
      ],
      "stateMutability": "view",
      "type": "function",
      "constant": true
    },
    {
      "inputs": [],
      "name": "renounceOwnership",
      "outputs": [],
      "stateMutability": "nonpayable",
      "type": "function"
    },
    {
      "inputs": [
        {
          "internalType": "address",
          "name": "newOwner",
          "type": "address"
        }
      ],
      "name": "transferOwnership",
      "outputs": [],
      "stateMutability": "nonpayable",
      "type": "function"
    },
    {
      "stateMutability": "payable",
      "type": "receive",
      "payable": true
    },
    {
      "inputs": [
        {
          "internalType": "uint256",
          "name": "_providerId",
          "type": "uint256"
        },
        {
          "internalType": "bool",
          "name": "status",
          "type": "bool"
        }
      ],
      "name": "setProviderStatus",
      "outputs": [],
      "stateMutability": "nonpayable",
      "type": "function"
    },
    {
      "inputs": [],
      "name": "version",
      "outputs": [
        {
          "internalType": "string",
          "name": "",
          "type": "string"
        }
      ],
      "stateMutability": "pure",
      "type": "function",
      "constant": true
    },
    {
      "inputs": [],
      "name": "getProviderIds",
      "outputs": [
        {
          "internalType": "uint256",
          "name": "",
          "type": "uint256"
        }
      ],
      "stateMutability": "view",
      "type": "function",
      "constant": true
    },
    {
      "inputs": [],
      "name": "getBridgeAddress",
      "outputs": [
        {
          "internalType": "address",
          "name": "",
          "type": "address"
        }
      ],
      "stateMutability": "view",
      "type": "function",
      "constant": true
    },
    {
      "inputs": [],
      "name": "getMinCollateral",
      "outputs": [
        {
          "internalType": "uint256",
          "name": "",
          "type": "uint256"
        }
      ],
      "stateMutability": "view",
      "type": "function",
      "constant": true
    },
    {
      "inputs": [],
      "name": "getMinPegIn",
      "outputs": [
        {
          "internalType": "uint256",
          "name": "",
          "type": "uint256"
        }
      ],
      "stateMutability": "view",
      "type": "function",
      "constant": true
    },
    {
      "inputs": [],
      "name": "getRewardPercentage",
      "outputs": [
        {
          "internalType": "uint256",
          "name": "",
          "type": "uint256"
        }
      ],
      "stateMutability": "view",
      "type": "function",
      "constant": true
    },
    {
      "inputs": [],
      "name": "getResignDelayBlocks",
      "outputs": [
        {
          "internalType": "uint256",
          "name": "",
          "type": "uint256"
        }
      ],
      "stateMutability": "view",
      "type": "function",
      "constant": true
    },
    {
      "inputs": [],
      "name": "getDustThreshold",
      "outputs": [
        {
          "internalType": "uint256",
          "name": "",
          "type": "uint256"
        }
      ],
      "stateMutability": "view",
      "type": "function",
      "constant": true
    },
    {
      "inputs": [
        {
          "internalType": "bytes32",
          "name": "quoteHash",
          "type": "bytes32"
        }
      ],
      "name": "isPegOutQuoteCompleted",
      "outputs": [
        {
          "internalType": "bool",
          "name": "",
          "type": "bool"
        }
      ],
      "stateMutability": "view",
      "type": "function",
      "constant": true
    },
    {
      "inputs": [
        {
          "internalType": "address",
          "name": "addr",
          "type": "address"
        }
      ],
      "name": "isOperational",
      "outputs": [
        {
          "internalType": "bool",
          "name": "",
          "type": "bool"
        }
      ],
      "stateMutability": "view",
      "type": "function",
      "constant": true
    },
    {
      "inputs": [
        {
          "internalType": "address",
          "name": "addr",
          "type": "address"
        }
      ],
      "name": "isOperationalForPegout",
      "outputs": [
        {
          "internalType": "bool",
          "name": "",
          "type": "bool"
        }
      ],
      "stateMutability": "view",
      "type": "function",
      "constant": true
    },
    {
      "inputs": [
        {
          "internalType": "string",
          "name": "_name",
          "type": "string"
        },
        {
          "internalType": "string",
          "name": "_apiBaseUrl",
          "type": "string"
        },
        {
          "internalType": "bool",
          "name": "_status",
          "type": "bool"
        },
        {
          "internalType": "string",
          "name": "_providerType",
          "type": "string"
        }
      ],
      "name": "register",
      "outputs": [
        {
          "internalType": "uint256",
          "name": "",
          "type": "uint256"
        }
      ],
      "stateMutability": "payable",
      "type": "function",
      "payable": true
    },
    {
      "inputs": [],
      "name": "getProviders",
      "outputs": [
        {
          "components": [
            {
              "internalType": "uint256",
              "name": "id",
              "type": "uint256"
            },
            {
              "internalType": "address",
              "name": "provider",
              "type": "address"
            },
            {
              "internalType": "string",
              "name": "name",
              "type": "string"
            },
            {
              "internalType": "string",
              "name": "apiBaseUrl",
              "type": "string"
            },
            {
              "internalType": "bool",
              "name": "status",
              "type": "bool"
            },
            {
              "internalType": "string",
              "name": "providerType",
              "type": "string"
            }
          ],
          "internalType": "struct LiquidityBridgeContractV2.LiquidityProvider[]",
          "name": "",
          "type": "tuple[]"
        }
      ],
      "stateMutability": "view",
      "type": "function",
      "constant": true
    },
    {
      "inputs": [
        {
          "internalType": "address",
          "name": "providerAddress",
          "type": "address"
        }
      ],
      "name": "getProvider",
      "outputs": [
        {
          "components": [
            {
              "internalType": "uint256",
              "name": "id",
              "type": "uint256"
            },
            {
              "internalType": "address",
              "name": "provider",
              "type": "address"
            },
            {
              "internalType": "string",
              "name": "name",
              "type": "string"
            },
            {
              "internalType": "string",
              "name": "apiBaseUrl",
              "type": "string"
            },
            {
              "internalType": "bool",
              "name": "status",
              "type": "bool"
            },
            {
              "internalType": "string",
              "name": "providerType",
              "type": "string"
            }
          ],
          "internalType": "struct LiquidityBridgeContractV2.LiquidityProvider",
          "name": "",
          "type": "tuple"
        }
      ],
      "stateMutability": "view",
      "type": "function",
      "constant": true
    },
    {
      "inputs": [],
      "name": "addCollateral",
      "outputs": [],
      "stateMutability": "payable",
      "type": "function",
      "payable": true
    },
    {
      "inputs": [],
      "name": "addPegoutCollateral",
      "outputs": [],
      "stateMutability": "payable",
      "type": "function",
      "payable": true
    },
    {
      "inputs": [],
      "name": "deposit",
      "outputs": [],
      "stateMutability": "payable",
      "type": "function",
      "payable": true
    },
    {
      "inputs": [
        {
          "internalType": "uint256",
          "name": "amount",
          "type": "uint256"
        }
      ],
      "name": "withdraw",
      "outputs": [],
      "stateMutability": "nonpayable",
      "type": "function"
    },
    {
      "inputs": [],
      "name": "withdrawCollateral",
      "outputs": [],
      "stateMutability": "nonpayable",
      "type": "function"
    },
    {
      "inputs": [],
      "name": "resign",
      "outputs": [],
      "stateMutability": "nonpayable",
      "type": "function"
    },
    {
      "inputs": [
        {
          "internalType": "address",
          "name": "addr",
          "type": "address"
        }
      ],
      "name": "getCollateral",
      "outputs": [
        {
          "internalType": "uint256",
          "name": "",
          "type": "uint256"
        }
      ],
      "stateMutability": "view",
      "type": "function",
      "constant": true
    },
    {
      "inputs": [
        {
          "internalType": "address",
          "name": "addr",
          "type": "address"
        }
      ],
      "name": "getPegoutCollateral",
      "outputs": [
        {
          "internalType": "uint256",
          "name": "",
          "type": "uint256"
        }
      ],
      "stateMutability": "view",
      "type": "function",
      "constant": true
    },
    {
      "inputs": [
        {
          "internalType": "address",
          "name": "addr",
          "type": "address"
        }
      ],
      "name": "getBalance",
      "outputs": [
        {
          "internalType": "uint256",
          "name": "",
          "type": "uint256"
        }
      ],
      "stateMutability": "view",
      "type": "function",
      "constant": true
    },
    {
      "inputs": [
        {
          "components": [
            {
              "internalType": "bytes20",
              "name": "fedBtcAddress",
              "type": "bytes20"
            },
            {
              "internalType": "address",
              "name": "lbcAddress",
              "type": "address"
            },
            {
              "internalType": "address",
              "name": "liquidityProviderRskAddress",
              "type": "address"
            },
            {
              "internalType": "bytes",
              "name": "btcRefundAddress",
              "type": "bytes"
            },
            {
              "internalType": "address payable",
              "name": "rskRefundAddress",
              "type": "address"
            },
            {
              "internalType": "bytes",
              "name": "liquidityProviderBtcAddress",
              "type": "bytes"
            },
            {
              "internalType": "uint256",
              "name": "callFee",
              "type": "uint256"
            },
            {
              "internalType": "uint256",
              "name": "penaltyFee",
              "type": "uint256"
            },
            {
              "internalType": "address",
              "name": "contractAddress",
              "type": "address"
            },
            {
              "internalType": "bytes",
              "name": "data",
              "type": "bytes"
            },
            {
              "internalType": "uint32",
              "name": "gasLimit",
              "type": "uint32"
            },
            {
              "internalType": "int64",
              "name": "nonce",
              "type": "int64"
            },
            {
              "internalType": "uint256",
              "name": "value",
              "type": "uint256"
            },
            {
              "internalType": "uint32",
              "name": "agreementTimestamp",
              "type": "uint32"
            },
            {
              "internalType": "uint32",
              "name": "timeForDeposit",
              "type": "uint32"
            },
            {
              "internalType": "uint32",
              "name": "callTime",
              "type": "uint32"
            },
            {
              "internalType": "uint16",
              "name": "depositConfirmations",
              "type": "uint16"
            },
            {
              "internalType": "bool",
              "name": "callOnRegister",
              "type": "bool"
            },
            {
              "internalType": "uint256",
              "name": "productFeeAmount",
              "type": "uint256"
            },
            {
              "internalType": "uint256",
              "name": "gasFee",
              "type": "uint256"
            }
          ],
          "internalType": "struct QuotesV2.PeginQuote",
          "name": "quote",
          "type": "tuple"
        }
      ],
      "name": "callForUser",
      "outputs": [
        {
          "internalType": "bool",
          "name": "",
          "type": "bool"
        }
      ],
      "stateMutability": "payable",
      "type": "function",
      "payable": true
    },
    {
      "inputs": [
        {
          "components": [
            {
              "internalType": "bytes20",
              "name": "fedBtcAddress",
              "type": "bytes20"
            },
            {
              "internalType": "address",
              "name": "lbcAddress",
              "type": "address"
            },
            {
              "internalType": "address",
              "name": "liquidityProviderRskAddress",
              "type": "address"
            },
            {
              "internalType": "bytes",
              "name": "btcRefundAddress",
              "type": "bytes"
            },
            {
              "internalType": "address payable",
              "name": "rskRefundAddress",
              "type": "address"
            },
            {
              "internalType": "bytes",
              "name": "liquidityProviderBtcAddress",
              "type": "bytes"
            },
            {
              "internalType": "uint256",
              "name": "callFee",
              "type": "uint256"
            },
            {
              "internalType": "uint256",
              "name": "penaltyFee",
              "type": "uint256"
            },
            {
              "internalType": "address",
              "name": "contractAddress",
              "type": "address"
            },
            {
              "internalType": "bytes",
              "name": "data",
              "type": "bytes"
            },
            {
              "internalType": "uint32",
              "name": "gasLimit",
              "type": "uint32"
            },
            {
              "internalType": "int64",
              "name": "nonce",
              "type": "int64"
            },
            {
              "internalType": "uint256",
              "name": "value",
              "type": "uint256"
            },
            {
              "internalType": "uint32",
              "name": "agreementTimestamp",
              "type": "uint32"
            },
            {
              "internalType": "uint32",
              "name": "timeForDeposit",
              "type": "uint32"
            },
            {
              "internalType": "uint32",
              "name": "callTime",
              "type": "uint32"
            },
            {
              "internalType": "uint16",
              "name": "depositConfirmations",
              "type": "uint16"
            },
            {
              "internalType": "bool",
              "name": "callOnRegister",
              "type": "bool"
            },
            {
              "internalType": "uint256",
              "name": "productFeeAmount",
              "type": "uint256"
            },
            {
              "internalType": "uint256",
              "name": "gasFee",
              "type": "uint256"
            }
          ],
          "internalType": "struct QuotesV2.PeginQuote",
          "name": "quote",
          "type": "tuple"
        },
        {
          "internalType": "bytes",
          "name": "signature",
          "type": "bytes"
        },
        {
          "internalType": "bytes",
          "name": "btcRawTransaction",
          "type": "bytes"
        },
        {
          "internalType": "bytes",
          "name": "partialMerkleTree",
          "type": "bytes"
        },
        {
          "internalType": "uint256",
          "name": "height",
          "type": "uint256"
        }
      ],
      "name": "registerPegIn",
      "outputs": [
        {
          "internalType": "int256",
          "name": "",
          "type": "int256"
        }
      ],
      "stateMutability": "nonpayable",
      "type": "function"
    },
    {
      "inputs": [
        {
          "components": [
            {
              "internalType": "address",
              "name": "lbcAddress",
              "type": "address"
            },
            {
              "internalType": "address",
              "name": "lpRskAddress",
              "type": "address"
            },
            {
              "internalType": "bytes",
              "name": "btcRefundAddress",
              "type": "bytes"
            },
            {
              "internalType": "address",
              "name": "rskRefundAddress",
              "type": "address"
            },
            {
              "internalType": "bytes",
              "name": "lpBtcAddress",
              "type": "bytes"
            },
            {
              "internalType": "uint256",
              "name": "callFee",
              "type": "uint256"
            },
            {
              "internalType": "uint256",
              "name": "penaltyFee",
              "type": "uint256"
            },
            {
              "internalType": "int64",
              "name": "nonce",
              "type": "int64"
            },
            {
              "internalType": "bytes",
              "name": "deposityAddress",
              "type": "bytes"
            },
            {
              "internalType": "uint256",
              "name": "value",
              "type": "uint256"
            },
            {
              "internalType": "uint32",
              "name": "agreementTimestamp",
              "type": "uint32"
            },
            {
              "internalType": "uint32",
              "name": "depositDateLimit",
              "type": "uint32"
            },
            {
              "internalType": "uint16",
              "name": "depositConfirmations",
              "type": "uint16"
            },
            {
              "internalType": "uint16",
              "name": "transferConfirmations",
              "type": "uint16"
            },
            {
              "internalType": "uint32",
              "name": "transferTime",
              "type": "uint32"
            },
            {
              "internalType": "uint32",
              "name": "expireDate",
              "type": "uint32"
            },
            {
              "internalType": "uint32",
              "name": "expireBlock",
              "type": "uint32"
            },
            {
              "internalType": "uint256",
              "name": "productFeeAmount",
              "type": "uint256"
            },
            {
              "internalType": "uint256",
              "name": "gasFee",
              "type": "uint256"
            }
          ],
          "internalType": "struct QuotesV2.PegOutQuote",
          "name": "quote",
          "type": "tuple"
        },
        {
          "internalType": "bytes",
          "name": "signature",
          "type": "bytes"
        }
      ],
      "name": "depositPegout",
      "outputs": [],
      "stateMutability": "payable",
      "type": "function",
      "payable": true
    },
    {
      "inputs": [
        {
          "internalType": "bytes32",
          "name": "quoteHash",
          "type": "bytes32"
        }
      ],
      "name": "refundUserPegOut",
      "outputs": [],
      "stateMutability": "nonpayable",
      "type": "function"
    },
    {
      "inputs": [
        {
          "internalType": "bytes32",
          "name": "quoteHash",
          "type": "bytes32"
        },
        {
          "internalType": "bytes",
          "name": "btcTx",
          "type": "bytes"
        },
        {
          "internalType": "bytes32",
          "name": "btcBlockHeaderHash",
          "type": "bytes32"
        },
        {
          "internalType": "uint256",
          "name": "partialMerkleTree",
          "type": "uint256"
        },
        {
          "internalType": "bytes32[]",
          "name": "merkleBranchHashes",
          "type": "bytes32[]"
        }
      ],
      "name": "refundPegOut",
      "outputs": [],
      "stateMutability": "nonpayable",
      "type": "function"
    },
    {
      "inputs": [
        {
          "components": [
            {
              "internalType": "bytes20",
              "name": "fedBtcAddress",
              "type": "bytes20"
            },
            {
              "internalType": "address",
              "name": "lbcAddress",
              "type": "address"
            },
            {
              "internalType": "address",
              "name": "liquidityProviderRskAddress",
              "type": "address"
            },
            {
              "internalType": "bytes",
              "name": "btcRefundAddress",
              "type": "bytes"
            },
            {
              "internalType": "address payable",
              "name": "rskRefundAddress",
              "type": "address"
            },
            {
              "internalType": "bytes",
              "name": "liquidityProviderBtcAddress",
              "type": "bytes"
            },
            {
              "internalType": "uint256",
              "name": "callFee",
              "type": "uint256"
            },
            {
              "internalType": "uint256",
              "name": "penaltyFee",
              "type": "uint256"
            },
            {
              "internalType": "address",
              "name": "contractAddress",
              "type": "address"
            },
            {
              "internalType": "bytes",
              "name": "data",
              "type": "bytes"
            },
            {
              "internalType": "uint32",
              "name": "gasLimit",
              "type": "uint32"
            },
            {
              "internalType": "int64",
              "name": "nonce",
              "type": "int64"
            },
            {
              "internalType": "uint256",
              "name": "value",
              "type": "uint256"
            },
            {
              "internalType": "uint32",
              "name": "agreementTimestamp",
              "type": "uint32"
            },
            {
              "internalType": "uint32",
              "name": "timeForDeposit",
              "type": "uint32"
            },
            {
              "internalType": "uint32",
              "name": "callTime",
              "type": "uint32"
            },
            {
              "internalType": "uint16",
              "name": "depositConfirmations",
              "type": "uint16"
            },
            {
              "internalType": "bool",
              "name": "callOnRegister",
              "type": "bool"
            },
            {
              "internalType": "uint256",
              "name": "productFeeAmount",
              "type": "uint256"
            },
            {
              "internalType": "uint256",
              "name": "gasFee",
              "type": "uint256"
            }
          ],
          "internalType": "struct QuotesV2.PeginQuote",
          "name": "quote",
          "type": "tuple"
        },
        {
          "internalType": "bytes",
          "name": "depositAddress",
          "type": "bytes"
        }
      ],
      "name": "validatePeginDepositAddress",
      "outputs": [
        {
          "internalType": "bool",
          "name": "",
          "type": "bool"
        }
      ],
      "stateMutability": "view",
      "type": "function",
      "constant": true
    },
    {
      "inputs": [
        {
          "components": [
            {
              "internalType": "bytes20",
              "name": "fedBtcAddress",
              "type": "bytes20"
            },
            {
              "internalType": "address",
              "name": "lbcAddress",
              "type": "address"
            },
            {
              "internalType": "address",
              "name": "liquidityProviderRskAddress",
              "type": "address"
            },
            {
              "internalType": "bytes",
              "name": "btcRefundAddress",
              "type": "bytes"
            },
            {
              "internalType": "address payable",
              "name": "rskRefundAddress",
              "type": "address"
            },
            {
              "internalType": "bytes",
              "name": "liquidityProviderBtcAddress",
              "type": "bytes"
            },
            {
              "internalType": "uint256",
              "name": "callFee",
              "type": "uint256"
            },
            {
              "internalType": "uint256",
              "name": "penaltyFee",
              "type": "uint256"
            },
            {
              "internalType": "address",
              "name": "contractAddress",
              "type": "address"
            },
            {
              "internalType": "bytes",
              "name": "data",
              "type": "bytes"
            },
            {
              "internalType": "uint32",
              "name": "gasLimit",
              "type": "uint32"
            },
            {
              "internalType": "int64",
              "name": "nonce",
              "type": "int64"
            },
            {
              "internalType": "uint256",
              "name": "value",
              "type": "uint256"
            },
            {
              "internalType": "uint32",
              "name": "agreementTimestamp",
              "type": "uint32"
            },
            {
              "internalType": "uint32",
              "name": "timeForDeposit",
              "type": "uint32"
            },
            {
              "internalType": "uint32",
              "name": "callTime",
              "type": "uint32"
            },
            {
              "internalType": "uint16",
              "name": "depositConfirmations",
              "type": "uint16"
            },
            {
              "internalType": "bool",
              "name": "callOnRegister",
              "type": "bool"
            },
            {
              "internalType": "uint256",
              "name": "productFeeAmount",
              "type": "uint256"
            },
            {
              "internalType": "uint256",
              "name": "gasFee",
              "type": "uint256"
            }
          ],
          "internalType": "struct QuotesV2.PeginQuote",
          "name": "quote",
          "type": "tuple"
        }
      ],
      "name": "hashQuote",
      "outputs": [
        {
          "internalType": "bytes32",
          "name": "",
          "type": "bytes32"
        }
      ],
      "stateMutability": "view",
      "type": "function",
      "constant": true
    },
    {
      "inputs": [
        {
          "components": [
            {
              "internalType": "address",
              "name": "lbcAddress",
              "type": "address"
            },
            {
              "internalType": "address",
              "name": "lpRskAddress",
              "type": "address"
            },
            {
              "internalType": "bytes",
              "name": "btcRefundAddress",
              "type": "bytes"
            },
            {
              "internalType": "address",
              "name": "rskRefundAddress",
              "type": "address"
            },
            {
              "internalType": "bytes",
              "name": "lpBtcAddress",
              "type": "bytes"
            },
            {
              "internalType": "uint256",
              "name": "callFee",
              "type": "uint256"
            },
            {
              "internalType": "uint256",
              "name": "penaltyFee",
              "type": "uint256"
            },
            {
              "internalType": "int64",
              "name": "nonce",
              "type": "int64"
            },
            {
              "internalType": "bytes",
              "name": "deposityAddress",
              "type": "bytes"
            },
            {
              "internalType": "uint256",
              "name": "value",
              "type": "uint256"
            },
            {
              "internalType": "uint32",
              "name": "agreementTimestamp",
              "type": "uint32"
            },
            {
              "internalType": "uint32",
              "name": "depositDateLimit",
              "type": "uint32"
            },
            {
              "internalType": "uint16",
              "name": "depositConfirmations",
              "type": "uint16"
            },
            {
              "internalType": "uint16",
              "name": "transferConfirmations",
              "type": "uint16"
            },
            {
              "internalType": "uint32",
              "name": "transferTime",
              "type": "uint32"
            },
            {
              "internalType": "uint32",
              "name": "expireDate",
              "type": "uint32"
            },
            {
              "internalType": "uint32",
              "name": "expireBlock",
              "type": "uint32"
            },
            {
              "internalType": "uint256",
              "name": "productFeeAmount",
              "type": "uint256"
            },
            {
              "internalType": "uint256",
              "name": "gasFee",
              "type": "uint256"
            }
          ],
          "internalType": "struct QuotesV2.PegOutQuote",
          "name": "quote",
          "type": "tuple"
        }
      ],
      "name": "hashPegoutQuote",
      "outputs": [
        {
          "internalType": "bytes32",
          "name": "",
          "type": "bytes32"
        }
      ],
      "stateMutability": "view",
      "type": "function",
      "constant": true
    },
    {
      "inputs": [
        {
          "internalType": "string",
          "name": "_name",
          "type": "string"
        },
        {
          "internalType": "string",
          "name": "_url",
          "type": "string"
        }
      ],
      "name": "updateProvider",
      "outputs": [],
      "stateMutability": "nonpayable",
      "type": "function"
    }
  ],
  "bytecode": "0x608060405234801561001057600080fd5b50615f2280620000216000396000f3fe60806040526004361061028a5760003560e01c80630220f41d146102de57806304ade855146102fe5780630a7bf57a1461032a5780630a9cb4a71461033f578063221400091461035e5780632d67952c1461037e5780632e1a7d4d1461039e57806333f07ad3146103be57806341705518146103d3578063418663a2146103e65780634198687e14610410578063457385f2146104185780634d0ec9711461044857806354015ee01461046857806354fd4d501461049b57806355f21eb7146104cf57806359c153be146104fc57806363c671351461051157806369652fcf14610527578063710738b11461053c578063715018a61461056957806372cbf4e81461057e57806379b9550b1461059e5780637aefa8c2146105be5780638490a8df146105d15780638beb537a146105e75780638d597939146105fa5780638da5cb5b146106115780638f91797d146106265780639b56d6c9146106465780639cd6557f1461067c5780639d79b59b146106915780639e816999146106ba578063a4a5ba50146106c2578063a93bb247146106d7578063ae76ce86146106ee578063ae93b67b14610705578063b3a849aa1461071c578063b5ecfc061461073c578063bd519eff14610755578063bd5798c31461078b578063be6de4eb146107ad578063c525cdd8146107c2578063c7213163146107d9578063cfb92f0a146107f4578063d0e30db01461080b578063d6c70de814610813578063e1de16c614610833578063e30e6ea314610849578063e78cea921461085f578063e830b6901461087f578063e8fcce7114610894578063edc922a9146108aa578063f2fde38b146108cc578063f8b2cb4f146108ec578063fa88dcde14610922578063fb32c5081461093757600080fd5b366102d9576097546001600160a01b031633146102d75760405162461bcd60e51b81526020600482015260066024820152654c424330303760d01b60448201526064015b60405180910390fd5b005b600080fd5b3480156102ea57600080fd5b506102d76102f9366004614925565b610955565b34801561030a57600080fd5b50610313600181565b60405160ff90911681526020015b60405180910390f35b34801561033657600080fd5b50610313600281565b34801561034b57600080fd5b5060a2545b604051908152602001610321565b34801561036a57600080fd5b50610350610379366004614b70565b610a67565b34801561038a57600080fd5b50610350610399366004614d78565b610a78565b3480156103aa57600080fd5b506102d76103b9366004614e2c565b61128a565b3480156103ca57600080fd5b5060a154610350565b6103506103e1366004614e45565b611382565b3480156103f257600080fd5b506103fd6101301981565b60405160019190910b8152602001610321565b6102d76118b4565b34801561042457600080fd5b50610438610433366004614ee1565b611939565b6040519015158152602001610321565b34801561045457600080fd5b50610438610463366004614ee1565b61196f565b34801561047457600080fd5b50610438610483366004614e2c565b600090815260a7602052604090206001015460ff1690565b3480156104a757600080fd5b5060408051808201825260058152640312e332e360dc1b602082015290516103219190614f4e565b3480156104db57600080fd5b506104ef6104ea366004614ee1565b6119a5565b6040516103219190614fde565b34801561050857600080fd5b506102d7611bfa565b34801561051d57600080fd5b5061035060a85481565b34801561053357600080fd5b506102d7611da5565b34801561054857600080fd5b5060a95461055c906001600160a01b031681565b6040516103219190614ff1565b34801561057557600080fd5b506102d7611e50565b34801561058a57600080fd5b506102d7610599366004615005565b611e62565b3480156105aa57600080fd5b506104386105b9366004615035565b611efc565b6104386105cc36600461506b565b612068565b3480156105dd57600080fd5b5061035060a25481565b6102d76105f536600461509f565b61237a565b34801561060657600080fd5b506103fd61012c1981565b34801561061d57600080fd5b5061055c612833565b34801561063257600080fd5b506102d7610641366004614e2c565b612842565b34801561065257600080fd5b50610350610661366004614ee1565b6001600160a01b031660009081526099602052604090205490565b34801561068857600080fd5b50610313600081565b34801561069d57600080fd5b506106a76188b881565b60405161ffff9091168152602001610321565b6102d7612b6f565b3480156106ce57600080fd5b50610350600181565b3480156106e357600080fd5b506103fd61012d1981565b3480156106fa57600080fd5b506103fd61012b1981565b34801561071157600080fd5b506103fd6103831981565b34801561072857600080fd5b5061035061073736600461506b565b612bea565b34801561074857600080fd5b506103506402540be40081565b34801561076157600080fd5b50610350610770366004614ee1565b6001600160a01b03166000908152609a602052604090205490565b34801561079757600080fd5b5060a054600160201b900463ffffffff16610350565b3480156107b957600080fd5b50610350600081565b3480156107ce57600080fd5b506103fd61012e1981565b3480156107e557600080fd5b5060a05463ffffffff16610350565b34801561080057600080fd5b506103fd61012f1981565b6102d7612bf5565b34801561081f57600080fd5b506102d761082e3660046150f8565b612c24565b34801561083f57600080fd5b506106a76108fc81565b34801561085557600080fd5b506103fd60c71981565b34801561086b57600080fd5b5060975461055c906001600160a01b031681565b34801561088b57600080fd5b50609e54610350565b3480156108a057600080fd5b506103fd60631981565b3480156108b657600080fd5b506108bf613782565b60405161032191906151ce565b3480156108d857600080fd5b506102d76108e7366004614ee1565b613a8c565b3480156108f857600080fd5b50610350610907366004614ee1565b6001600160a01b031660009081526098602052604090205490565b34801561092e57600080fd5b50609f54610350565b34801561094357600080fd5b506097546001600160a01b031661055c565b60008251118015610967575060008151115b61099c5760405162461bcd60e51b8152602060048201526006602482015265262121981b9b60d11b60448201526064016102ce565b600060015b60a2548111610a4e576000818152609b6020526040902060018101549092506001600160a01b03163303610a3c57600282016109dd85826152b9565b50600382016109ec84826152b9565b50336001600160a01b03167fc15f90eb34a098bb02f2641dff62935246fb005d8f06e13d5cc6be0bddcce8e38360020184600301604051610a2e9291906153f5565b60405180910390a250505050565b80610a4681615430565b9150506109a1565b5060405162461bcd60e51b81526004016102ce90615449565b6000610a7282613b02565b92915050565b6000610a82613bd1565b6000610a8d87613c2a565b600081815260a56020526040902054909150600160ff9091161115610ac45760405162461bcd60e51b81526004016102ce90615469565b60408088015190516301a86b5560e41b815273__SignatureValidator____________________91631a86b55091610b03919085908b90600401615489565b602060405180830381865af4158015610b20573d6000803e3d6000fd5b505050506040513d601f19601f82011682018060405250810190610b4491906154b0565b610b605760405162461bcd60e51b81526004016102ce906154cd565b637fffffff8310610b9c5760405162461bcd60e51b815260206004820152600660248201526504c42433033360d41b60448201526064016102ce565b6000610bab8887878786613e5d565b905061012f8101610be75760405162461bcd60e51b81526020600482015260066024820152654c424330333160d01b60448201526064016102ce565b61012e8101610c215760405162461bcd60e51b815260206004820152600660248201526526212198199960d11b60448201526064016102ce565b6101308101610c5b5760405162461bcd60e51b81526020600482015260066024820152654c424330333360d01b60448201526064016102ce565b6101318101610c955760405162461bcd60e51b8152602060048201526006602482015265131090cc0ccd60d21b60448201526064016102ce565b6103848101610ccf5760405162461bcd60e51b81526020600482015260066024820152654c424330333560d01b60448201526064016102ce565b6000811380610cdf575060c71981145b80610ceb575060631981145b610d205760405162461bcd60e51b815260206004820152600660248201526526212198199b60d11b60448201526064016102ce565b6000828152609c6020526040902054610d43908990839063ffffffff1687613f2f565b15610e145760e08801516040808a01516001600160a01b031660009081526099602052908120549091610d7591614290565b905080609960008b604001516001600160a01b03166001600160a01b031681526020019081526020016000206000828254610db091906154ed565b90915550506040808a01519051600080516020615ead83398151915291610dda9184908790615500565b60405180910390a160a054600090606490610dfb9063ffffffff1684615521565b610e05919061554e565b9050610e1133826142a8565b50505b60c719811480610e25575060631981145b15610e9957600082815260a560209081526040808320805460ff19166002179055609c825291829020805464ffffffffff1916905581518481529081018390527ffb209329d5ab5b7bcb2e92f45f4534814b6e68fa5ad1f171dabc1d17d26f0ebe910160405180910390a191506112779050565b60405163fa6ea3e760e01b8152819073__QuotesV2______________________________9063fa6ea3e790610ed4908c9085906004016156ce565b60006040518083038186803b158015610eec57600080fd5b505af4158015610f00573d6000803e3d6000fd5b5050506000848152609c602052604090205463ffffffff1615905061106b576000838152609c6020526040812054600160201b900460ff1615610f7257610f6b828b61026001518c60c001518d6101800151610f5c91906156f0565b610f6691906156f0565b614290565b9050610f8e565b610f8b828b61026001518c60c00151610f6691906156f0565b90505b610f9c8a60400151826142a8565b6000610fa882846154ed565b9050610fb98b610240015186614307565b60a1548111156110645760808b01516040516000916001600160a01b0316906108fc90849084818181858888f193505050503d8060008114611017576040519150601f19603f3d011682016040523d82523d6000602084013e61101c565b606091505b50509050600080516020615e8d8339815191528c608001518383896040516110479493929190615703565b60405180910390a180611062576110628c60400151836142a8565b505b5050611210565b6102208901518190801561108457508961018001518110155b156111765760008a61010001516001600160a01b03168b610140015163ffffffff168c61018001518d61012001516040516110bf919061572b565b600060405180830381858888f193505050503d80600081146110fd576040519150601f19603f3d011682016040523d82523d6000602084013e611102565b606091505b505090508a61010001516001600160a01b0316336001600160a01b0316600080516020615ecd8339815191528d61014001518e61018001518f6101200151868b604051611153959493929190615747565b60405180910390a38015611174576101808b015161117190836154ed565b91505b505b60a15481111561120e5760808a01516040516000916001600160a01b0316906108fc90849084818181858888f193505050503d80600081146111d4576040519150601f19603f3d011682016040523d82523d6000602084013e6111d9565b606091505b50509050600080516020615e8d8339815191528b608001518383886040516112049493929190615703565b60405180910390a1505b505b600083815260a560209081526040808320805460ff19166002179055609c825291829020805464ffffffffff19169055905183815284917f0629ae9d1dc61501b0ca90670a9a9b88daaf7504b54537b53e1219de794c63d2910160405180910390a2509150505b6112816001606555565b95945050505050565b336000908152609860205260409020548111156112b95760405162461bcd60e51b81526004016102ce90615780565b33600090815260986020526040812080548392906112d89084906154ed565b9091555050604051600090339083908381818185875af1925050503d806000811461131f576040519150601f19603f3d011682016040523d82523d6000602084013e611324565b606091505b50509050806113455760405162461bcd60e51b81526004016102ce906157a0565b7f7fcf532c15f0a6db0bd6d0e038bea71d30d808c7d98cb3bf7268a95bf5081b6533836040516113769291906157c0565b60405180910390a15050565b60003233146113bc5760405162461bcd60e51b81526020600482015260066024820152654c424330303360d01b60448201526064016102ce565b60008551116113f65760405162461bcd60e51b815260206004820152600660248201526504c42433031360d41b60448201526064016102ce565b60008451116114305760405162461bcd60e51b81526020600482015260066024820152654c424330313760d01b60448201526064016102ce565b60405160200161143f906157d9565b6040516020818303038152906040528051906020012082604051602001611466919061572b565b6040516020818303038152906040528051906020012014806114d15750604051602001611492906157ea565b60405160208183030381529060405280519060200120826040516020016114b9919061572b565b60405160208183030381529060405280519060200120145b806115295750604051630c4dee8d60e31b60208201526024016040516020818303038152906040528051906020012082604051602001611511919061572b565b60405160208183030381529060405280519060200120145b61155e5760405162461bcd60e51b815260206004820152600660248201526509884866062760d31b60448201526064016102ce565b336000908152609960205260409020541580156115885750336000908152609a6020526040902054155b6115bd5760405162461bcd60e51b815260206004820152600660248201526504c42433037360d41b60448201526064016102ce565b336000908152609d6020526040902054156116035760405162461bcd60e51b81526020600482015260066024820152654c424330303960d01b60448201526064016102ce565b604051602001611612906157d9565b6040516020818303038152906040528051906020012082604051602001611639919061572b565b604051602081830303815290604052805190602001200361168d57609e543410156116765760405162461bcd60e51b81526004016102ce906157fc565b336000908152609960205260409020349055611792565b60405160200161169c906157ea565b60405160208183030381529060405280519060200120826040516020016116c3919061572b565b604051602081830303815290604052805190602001200361171757609e543410156117005760405162461bcd60e51b81526004016102ce906157fc565b336000908152609a60205260409020349055611792565b609e54611725906002615521565b3410156117445760405162461bcd60e51b81526004016102ce906157fc565b600061175160023461554e565b905061175e60023461581c565b156117735761176e8160016156f0565b611775565b805b33600090815260996020908152604080832093909355609a905220555b60a280549060006117a283615430565b90915550506040805160c08101825260a2548082523360208084019182528385018a8152606085018a9052881515608086015260a085018890526000938452609b909152939091208251815590516001820180546001600160a01b0319166001600160a01b039092169190911790559151909190600282019061182590826152b9565b506060820151600382019061183a90826152b9565b50608082015160048201805460ff191691151591909117905560a0820151600582019061186790826152b9565b505060a254604080519182523460208301523392507fa9d44d6e13bb3fee938c3f66d1103e91f8dc6b12d4405a55eea558e8f275aa6e910160405180910390a25060a2545b949350505050565b6118bd336143d9565b6118d95760405162461bcd60e51b81526004016102ce90615449565b336000908152609a6020526040812080543492906118f89084906156f0565b90915550506040517f873d5a2949567203ad4f0cceef41c2813c87b9a397ee777d87a8acdaec2c6fa99061192f90339034906157c0565b60405180910390a1565b600061194482614418565b8015610a725750609e546001600160a01b038316600090815260996020526040902054101592915050565b600061197a826143d9565b8015610a725750609e546001600160a01b0383166000908152609a6020526040902054101592915050565b6119ad614765565b60015b60a2548111610a4e576000818152609b60205260409020600101546001600160a01b03808516911603611be8576000818152609b6020908152604091829020825160c0810184528154815260018201546001600160a01b0316928101929092526002810180549293919291840191611a2790615230565b80601f0160208091040260200160405190810160405280929190818152602001828054611a5390615230565b8015611aa05780601f10611a7557610100808354040283529160200191611aa0565b820191906000526020600020905b815481529060010190602001808311611a8357829003601f168201915b50505050508152602001600382018054611ab990615230565b80601f0160208091040260200160405190810160405280929190818152602001828054611ae590615230565b8015611b325780601f10611b0757610100808354040283529160200191611b32565b820191906000526020600020905b815481529060010190602001808311611b1557829003601f168201915b5050509183525050600482015460ff1615156020820152600582018054604090920191611b5e90615230565b80601f0160208091040260200160405190810160405280929190818152602001828054611b8a90615230565b8015611bd75780601f10611bac57610100808354040283529160200191611bd7565b820191906000526020600020905b815481529060010190602001808311611bba57829003601f168201915b505050505081525050915050919050565b80611bf281615430565b9150506119b0565b611c02613bd1565b336000908152609d6020526040902054611c475760405162461bcd60e51b81526020600482015260066024820152654c424330323160d01b60448201526064016102ce565b60a054336000908152609d6020526040902054600160201b90910463ffffffff1690611c7390436154ed565b1015611caa5760405162461bcd60e51b815260206004820152600660248201526526212198191960d11b60448201526064016102ce565b336000908152609a60209081526040808320546099909252822054611ccf91906156f0565b336000818152609a6020908152604080832083905560998252808320839055609d909152808220829055519293509183908381818185875af1925050503d8060008114611d38576040519150601f19603f3d011682016040523d82523d6000602084013e611d3d565b606091505b5050905080611d5e5760405162461bcd60e51b81526004016102ce906157a0565b7fa8e76b822fc682be77f3b1c822ea81f6bda5aed92ba82e6873bfd889f328d1d23383604051611d8f9291906157c0565b60405180910390a15050611da36001606555565b565b611dae33614418565b611dca5760405162461bcd60e51b81526004016102ce90615449565b336000908152609d602052604090205415611e105760405162461bcd60e51b81526020600482015260066024820152654c424330323360d01b60448201526064016102ce565b336000818152609d602052604090819020439055517fa6674aa33cd1b7435474751667707bf05fde99e537d67043ec5f907782577d869161192f91614ff1565b611e58614457565b611da360006144b6565b81611e6b612833565b6001600160a01b0316336001600160a01b03161480611ea357506000818152609b60205260409020600101546001600160a01b031633145b611ed85760405162461bcd60e51b81526020600482015260066024820152654c424330303560d01b60448201526064016102ce565b506000918252609b6020526040909120600401805460ff1916911515919091179055565b600080611f0884612bea565b8460600151856020015160601b8660a00151604051602001611f2d9493929190615830565b604051602081830303815290604052805190602001209050600081609760009054906101000a90046001600160a01b03166001600160a01b0316631d73d5dd6040518163ffffffff1660e01b8152600401600060405180830381865afa158015611f9b573d6000803e3d6000fd5b505050506040513d6000823e601f3d908101601f19168201604052611fc391908101906158c2565b604051602001611fd49291906158f6565b60408051601f198184030181529082905260a454639b02794b60e01b835290925073__BtcUtils______________________________91639b02794b91612027918891869160ff90911690600401615930565b602060405180830381865af4158015612044573d6000803e3d6000fd5b505050506040513d601f19601f8201168201806040525081019061128191906154b0565b600061207333614418565b61208f5760405162461bcd60e51b81526004016102ce90615449565b612097613bd1565b81604001516001600160a01b0316336001600160a01b0316146120e55760405162461bcd60e51b8152602060048201526006602482015265131090cc0c8d60d21b60448201526064016102ce565b6101808201516040808401516001600160a01b03166000908152609860205220546121119034906156f0565b101561212f5760405162461bcd60e51b81526004016102ce90615780565b600061213a83613c2a565b600081815260a5602052604090205490915060ff16156121855760405162461bcd60e51b81526020600482015260066024820152654c424330323560d01b60448201526064016102ce565b6121938360400151346142a8565b6101408301516121a6906188b890615968565b63ffffffff165a10156121e45760405162461bcd60e51b815260206004820152600660248201526526212198191b60d11b60448201526064016102ce565b60008361010001516001600160a01b031684610140015163ffffffff1685610180015186610120015160405161221a919061572b565b600060405180830381858888f193505050503d8060008114612258576040519150601f19603f3d011682016040523d82523d6000602084013e61225d565b606091505b509091505063ffffffff42111561229f5760405162461bcd60e51b81526020600482015260066024820152654c424330323760d01b60448201526064016102ce565b6000828152609c60205260409020805463ffffffff19164263ffffffff1617905580156122fa576000828152609c602052604090819020805460ff60201b1916600160201b1790558401516101808501516122fa9190614508565b8361010001516001600160a01b0316336001600160a01b0316600080516020615ecd8339815191528661014001518761018001518861012001518688604051612347959493929190615747565b60405180910390a3600091825260a56020526040909120805460ff1916600117905590506123756001606555565b919050565b61238782602001516143d9565b6123bc5760405162461bcd60e51b81526020600482015260066024820152654c424330333760d01b60448201526064016102ce565b348261024001518361022001518460a001518561012001516123de91906156f0565b6123e891906156f0565b6123f291906156f0565b11156124295760405162461bcd60e51b81526020600482015260066024820152654c424330363360d01b60448201526064016102ce565b81610160015163ffffffff1642111561246d5760405162461bcd60e51b81526020600482015260066024820152654c424330363560d01b60448201526064016102ce565b816101e0015163ffffffff164211156124b15760405162461bcd60e51b8152602060048201526006602482015265262121981a1b60d11b60448201526064016102ce565b81610200015163ffffffff164311156124f55760405162461bcd60e51b81526020600482015260066024820152654c424330343760d01b60448201526064016102ce565b600061250083610a67565b60208401516040516301a86b5560e41b815291925073__SignatureValidator____________________91631a86b550916125419185908790600401615489565b602060405180830381865af415801561255e573d6000803e3d6000fd5b505050506040513d601f19601f8201168201806040525081019061258291906154b0565b61259e5760405162461bcd60e51b81526004016102ce906154cd565b600081815260a66020908152604080832060a79092529091206001015460ff16156125db5760405162461bcd60e51b81526004016102ce9061598c565b80546001600160a01b0316156126035760405162461bcd60e51b81526004016102ce90615469565b600082815260a66020908152604091829020865181546001600160a01b03199081166001600160a01b039283161783559288015160018301805490941691161790915590850151859190600282019061265c90826152b9565b5060608201516003820180546001600160a01b0319166001600160a01b039092169190911790556080820151600482019061269790826152b9565b5060a0820151600582015560c0820151600682015560e08201516007820180546001600160401b0319166001600160401b0390921691909117905561010082015160088201906126e790826152b9565b506101208201516009820155610140820151600a820180546101608501516101808601516101a08701516101c08801516101e08901516102008a015163ffffffff9889166001600160401b031990971696909617600160201b958916959095029490941763ffffffff60401b1916600160401b61ffff9485160261ffff60501b191617600160501b939092169290920217600160601b600160a01b031916600160601b9186169190910263ffffffff60801b191617600160801b918516919091021763ffffffff60a01b1916600160a01b9390911692909202919091179055610220820151600b82015561024090910151600c90910155600082815260a760209081526040918290204290819055825134815291820152339184917fb1bc7bfc0dab19777eb03aa0a5643378fc9f186c8fc5a36620d21136fbea570f910160405180910390a350505050565b6033546001600160a01b031690565b61284a613bd1565b600081815260a66020526040902080546001600160a01b031661287f5760405162461bcd60e51b81526004016102ce906159ac565b600a810154600160801b900463ffffffff16421180156128af5750600a810154600160a01b900463ffffffff1643115b6128e45760405162461bcd60e51b81526020600482015260066024820152654c424330343160d01b60448201526064016102ce565b600081600c015482600b01548360050154846009015461290491906156f0565b61290e91906156f0565b61291891906156f0565b6003830154600684015460018501546001600160a01b039081166000908152609a60205260408120549495509216926129519190614290565b60018501546001600160a01b03166000908152609a60205260408120805492935083929091906129829084906154ed565b90915550506001840154604051600080516020615ead833981519152916129b8916001600160a01b039091169084908990615500565b60405180910390a16003840154604080518581526001600160a01b03909216602083015286917f9ccbeffc442024e2a6ade18ff0978af9a4c4d6562ae38adb51ccf8256cf42b41910160405180910390a2600085815260a66020526040812080546001600160a01b03199081168255600182018054909116905590612a4060028301826147a6565b6003820180546001600160a01b0319169055612a606004830160006147a6565b600060058301819055600683018190556007830180546001600160401b0319169055612a909060088401906147a6565b50600060098201819055600a820180546001600160c01b0319169055600b8201819055600c90910181905585815260a760205260408082206001908101805460ff19169091179055516001600160a01b0384169085908381818185875af1925050503d8060008114612b1e576040519150601f19603f3d011682016040523d82523d6000602084013e612b23565b606091505b5050905080612b5d5760405162461bcd60e51b8152602060048201526006602482015265131090cc0d0d60d21b60448201526064016102ce565b5050505050612b6c6001606555565b50565b612b7833614418565b612b945760405162461bcd60e51b81526004016102ce90615449565b3360009081526099602052604081208054349290612bb39084906156f0565b90915550506040517f456e0f4ea86ac283092c750200e8c877f6ad8901ae575f90e02081acd455af849061192f90339034906157c0565b6000610a7282613c2a565b612bfe33614418565b612c1a5760405162461bcd60e51b81526004016102ce90615449565b611da333346142a8565b612c2c613bd1565b612c35336143d9565b612c515760405162461bcd60e51b81526004016102ce90615449565b600085815260a7602052604090206001015460ff1615612c835760405162461bcd60e51b81526004016102ce9061598c565b600085815260a66020526040902080546001600160a01b0316612cb85760405162461bcd60e51b81526004016102ce906159ac565b60405162f5b49160e01b815260009073__BtcUtils______________________________9062f5b49190612cf0908990600401614f4e565b600060405180830381865af4158015612d0d573d6000803e3d6000fd5b505050506040513d6000823e601f3d908101601f19168201604052612d3591908101906159cc565b9050600073__BtcUtils______________________________632d56f32383600181518110612d6657612d66615adf565b6020026020010151602001516040518263ffffffff1660e01b8152600401612d8e9190614f4e565b600060405180830381865af4158015612dab573d6000803e3d6000fd5b505050506040513d6000823e601f3d908101601f19168201604052612dd391908101906158c2565b905080516021148015612e0b575080600081518110612df457612df4615adf565b6020910101516001600160f81b031916600160fd1b145b612e405760405162461bcd60e51b81526020600482015260066024820152654c424330373560d01b60448201526064016102ce565b60005b60018251612e5191906154ed565b8160ff161015612ec35781612e67826001615af5565b60ff1681518110612e7a57612e7a615adf565b602001015160f81c60f81b828260ff1681518110612e9a57612e9a615adf565b60200101906001600160f81b031916908160001a90535080612ebb81615b0e565b915050612e43565b50600081806020019051810190612eda9190615b2d565b9050808914612f145760405162461bcd60e51b81526020600482015260066024820152654c424330363960d01b60448201526064016102ce565b60018401546001600160a01b03163314612f595760405162461bcd60e51b815260206004820152600660248201526509884866068760d31b60448201526064016102ce565b600a84015460975460405163fea8ba6360e01b8152600160501b90920461ffff16916001600160a01b0390911690635b6445879073__BtcUtils______________________________9063fea8ba6390612fb7908e90600401614f4e565b602060405180830381865af4158015612fd4573d6000803e3d6000fd5b505050506040513d601f19601f82011682018060405250810190612ff89190615b2d565b8a8a8a6040518563ffffffff1660e01b815260040161301a9493929190615b46565b602060405180830381865afa158015613037573d6000803e3d6000fd5b505050506040513d601f19601f8201168201806040525081019061305b9190615b2d565b12156130925760405162461bcd60e51b81526020600482015260066024820152654c424330343960d01b60448201526064016102ce565b60098401546402540be400811180156130be57506402540be40085600901546130bb919061581c565b15155b156130ea576402540be40085600901546130d8919061581c565b85600901546130e791906154ed565b90505b60006402540be4008560008151811061310557613105615adf565b6020026020010151600001516001600160401b03166131249190615521565b90508082111561315f5760405162461bcd60e51b81526020600482015260066024820152654c424330363760d01b60448201526064016102ce565b600073__BtcUtils______________________________63c7ce85ac8760008151811061318e5761318e615adf565b602090810291909101810151015160a4546040516001600160e01b031960e085901b1681526131c4929160ff1690600401615ba2565b600060405180830381865af41580156131e1573d6000803e3d6000fd5b505050506040513d6000823e601f3d908101601f1916820160405261320991908101906158c2565b90508080519060200120876008016040516132249190615bc6565b6040518091039020146132625760405162461bcd60e51b81526020600482015260066024820152650988486606c760d31b60448201526064016102ce565b604080516102608101825288546001600160a01b03908116825260018a0154166020820152600289018054613513938b92908401916132a090615230565b80601f01602080910402602001604051908101604052809291908181526020018280546132cc90615230565b80156133195780601f106132ee57610100808354040283529160200191613319565b820191906000526020600020905b8154815290600101906020018083116132fc57829003601f168201915b505050918352505060038201546001600160a01b0316602082015260048201805460409092019161334990615230565b80601f016020809104026020016040519081016040528092919081815260200182805461337590615230565b80156133c25780601f10613397576101008083540402835291602001916133c2565b820191906000526020600020905b8154815290600101906020018083116133a557829003601f168201915b50505091835250506005820154602082015260068201546040820152600780830154900b606082015260088201805460809092019161340090615230565b80601f016020809104026020016040519081016040528092919081815260200182805461342c90615230565b80156134795780601f1061344e57610100808354040283529160200191613479565b820191906000526020600020905b81548152906001019060200180831161345c57829003601f168201915b505050918352505060098201546020820152600a82015463ffffffff8082166040840152600160201b82048116606084015261ffff600160401b830481166080850152600160501b83041660a0840152600160601b8204811660c0840152600160801b8204811660e0840152600160a01b90910416610100820152600b820154610120820152600c9091015461014090910152858c614567565b156135b657600687015460018801546001600160a01b03166000908152609a6020526040812054909161354591614290565b60018901546001600160a01b03166000908152609a60205260408120805492935083929091906135769084906154ed565b90915550506001880154604051600080516020615ead833981519152916135ac916001600160a01b039091169084908990615500565b60405180910390a1505b6001870154600c880154600589015460098a01546000936001600160a01b031692916135e1916156f0565b6135eb91906156f0565b604051600081818185875af1925050503d8060008114613627576040519150601f19603f3d011682016040523d82523d6000602084013e61362c565b606091505b50509050806136665760405162461bcd60e51b815260206004820152600660248201526504c42433035360d41b60448201526064016102ce565b61367488600b01548e614307565b600085815260a66020526040812080546001600160a01b031990811682556001820180549091169055906136ab60028301826147a6565b6003820180546001600160a01b03191690556136cb6004830160006147a6565b600060058301819055600683018190556007830180546001600160401b03191690556136fb9060088401906147a6565b50600060098201819055600a820180546001600160c01b0319169055600b8201819055600c90910181905585815260a760205260408082206001908101805460ff191690911790555186917fb781856ec73fd0dc39351043d1634ea22cd3277b0866ab93e7ec1801766bb38491a2505050505050505061377b6001606555565b5050505050565b606060008060015b60a25481116137cf576000818152609b602052604090206137aa9061471c565b156137bd57826137b981615430565b9350505b806137c781615430565b91505061378a565b506000826001600160401b038111156137ea576137ea6147f4565b60405190808252806020026020018201604052801561382357816020015b613810614765565b8152602001906001900390816138085790505b5060009350905060015b60a2548111613a84576000818152609b60205260409020925061384f8361471c565b15613a72576040805160c0810182528454815260018501546001600160a01b0316602082015260028501805491928692908401919061388d90615230565b80601f01602080910402602001604051908101604052809291908181526020018280546138b990615230565b80156139065780601f106138db57610100808354040283529160200191613906565b820191906000526020600020905b8154815290600101906020018083116138e957829003601f168201915b5050505050815260200160038201805461391f90615230565b80601f016020809104026020016040519081016040528092919081815260200182805461394b90615230565b80156139985780601f1061396d57610100808354040283529160200191613998565b820191906000526020600020905b81548152906001019060200180831161397b57829003601f168201915b5050509183525050600482015460ff16151560208201526005820180546040909201916139c490615230565b80601f01602080910402602001604051908101604052809291908181526020018280546139f090615230565b8015613a3d5780601f10613a1257610100808354040283529160200191613a3d565b820191906000526020600020905b815481529060010190602001808311613a2057829003601f168201915b505050505081525050828581518110613a5857613a58615adf565b60200260200101819052508380613a6e90615430565b9450505b80613a7c81615430565b91505061382d565b509392505050565b613a94614457565b6001600160a01b038116613af95760405162461bcd60e51b815260206004820152602660248201527f4f776e61626c653a206e6577206f776e657220697320746865207a65726f206160448201526564647265737360d01b60648201526084016102ce565b612b6c816144b6565b80516000906001600160a01b03163014613b475760405162461bcd60e51b8152602060048201526006602482015265262121981a9b60d11b60448201526064016102ce565b60405163025018e760e31b815273__QuotesV2______________________________90631280c73890613b7e908590600401615c3c565b600060405180830381865af4158015613b9b573d6000803e3d6000fd5b505050506040513d6000823e601f3d908101601f19168201604052613bc391908101906158c2565b805190602001209050919050565b600260655403613c235760405162461bcd60e51b815260206004820152601f60248201527f5265656e7472616e637947756172643a207265656e7472616e742063616c6c0060448201526064016102ce565b6002606555565b600081602001516001600160a01b0316306001600160a01b031614613c7a5760405162461bcd60e51b81526020600482015260066024820152654c424330353160d01b60448201526064016102ce565b6101008201516097546001600160a01b03918216911603613cc65760405162461bcd60e51b8152602060048201526006602482015265262121981a9960d11b60448201526064016102ce565b81606001515160151480613cdf57508160600151516021145b613d145760405162461bcd60e51b81526020600482015260066024820152654c424330353360d01b60448201526064016102ce565b8160a0015151601514613d525760405162461bcd60e51b8152602060048201526006602482015265131090cc0d4d60d21b60448201526064016102ce565b609f548261026001518361024001518460c00151856101800151613d7691906156f0565b613d8091906156f0565b613d8a91906156f0565b1015613dc15760405162461bcd60e51b81526020600482015260066024820152654c424330353560d01b60448201526064016102ce565b816101c0015163ffffffff16826101a0015163ffffffff16613de39190615dd6565b6001600160401b031663ffffffff1015613e285760405162461bcd60e51b81526020600482015260066024820152654c424330373160d01b60448201526064016102ce565b60405162773b7960e01b815273__QuotesV2______________________________9062773b7990613b7e908590600401615df6565b609754606086015160a08701516000848152609c602052604081205490936001600160a01b031692636adc013392899288928a92899230919063ffffffff1615801590613ebf575060008b8152609c6020526040902054600160201b900460ff165b6040518963ffffffff1660e01b8152600401613ee2989796959493929190615e09565b6020604051808303816000875af1158015613f01573d6000803e3d6000fd5b505050506040513d601f19601f82011682018060405250810190613f259190615b2d565b9695505050505050565b60008084138015613f7357508461026001518561024001518660c00151876101800151613f5c91906156f0565b613f6691906156f0565b613f7091906156f0565b84105b15613f80575060006118ac565b60975460405163bd0c1fff60e01b8152600481018490526000916001600160a01b03169063bd0c1fff90602401600060405180830381865afa158015613fca573d6000803e3d6000fd5b505050506040513d6000823e601f3d908101601f19168201604052613ff291908101906158c2565b9050600081511161403c5760405162461bcd60e51b8152602060048201526014602482015273125b9d985b1a5908189b1bd8dac81a195a59da1d60621b60448201526064016102ce565b6040516328335c3f60e21b815260009073__BtcUtils______________________________9063a0cd70fc90614076908590600401614f4e565b602060405180830381865af4158015614093573d6000803e3d6000fd5b505050506040513d601f19601f820116820180604052508101906140b79190615b2d565b90506000876101c00151886101a001516140d19190615968565b63ffffffff169050808211156140ed57600093505050506118ac565b8560000361410157600193505050506118ac565b6097546102008901516000916001600160a01b03169063bd0c1fff9060019061412e9061ffff168a6156f0565b61413891906154ed565b6040518263ffffffff1660e01b815260040161415691815260200190565b600060405180830381865afa158015614173573d6000803e3d6000fd5b505050506040513d6000823e601f3d908101601f1916820160405261419b91908101906158c2565b905060008151116141d75760405162461bcd60e51b81526020600482015260066024820152650988486606a760d31b60448201526064016102ce565b6040516328335c3f60e21b815260009073__BtcUtils______________________________9063a0cd70fc90614211908590600401614f4e565b602060405180830381865af415801561422e573d6000803e3d6000fd5b505050506040513d601f19601f820116820180604052508101906142529190615b2d565b9050896101e0015163ffffffff168161426b91906156f0565b881115614280576001955050505050506118ac565b5060009998505050505050505050565b600081831061429f57816142a1565b825b9392505050565b6001600160a01b038216600090815260986020526040812080548392906142d09084906156f0565b90915550506040517f42cfb81a915ac5a674852db250bf722637bee705a267633b68cab3a2dde06f539061137690849084906157c0565b81156143d55760a9546040516000916001600160a01b03169084908381818185875af1925050503d806000811461435a576040519150601f19603f3d011682016040523d82523d6000602084013e61435f565b606091505b50509050806143995760405162461bcd60e51b8152602060048201526006602482015265131090cc0dcd60d21b60448201526064016102ce565b817f58e13ac0d5c8d27d14009841e72ac8b1858e2709c2c99af2075d9bb5f340ecfc846040516143cb91815260200190565b60405180910390a2505b5050565b6001600160a01b0381166000908152609a602052604081205415801590610a725750506001600160a01b03166000908152609d60205260409020541590565b6001600160a01b03811660009081526099602052604081205415801590610a725750506001600160a01b03166000908152609d60205260409020541590565b33614460612833565b6001600160a01b031614611da35760405162461bcd60e51b815260206004820181905260248201527f4f776e61626c653a2063616c6c6572206973206e6f7420746865206f776e657260448201526064016102ce565b603380546001600160a01b038381166001600160a01b0319831681179093556040519116919082907f8be0079c531659141344cd1fd0a4f28419497f9722a3daafe3b4186f6b6457e090600090a35050565b6001600160a01b038216600090815260986020526040812080548392906145309084906154ed565b90915550506040517f8e51a4493a6f66c76e13fd9e3b754eafbfe21343c04508deb61be8ccc00645879061137690849084906157c0565b6097546040516339cf1b2560e11b81526004810183905260009182916001600160a01b039091169063739e364a90602401600060405180830381865afa1580156145b5573d6000803e3d6000fd5b505050506040513d6000823e601f3d908101601f191682016040526145dd91908101906158c2565b905060008151116146195760405162461bcd60e51b81526020600482015260066024820152654c424330353960d01b60448201526064016102ce565b6040516328335c3f60e21b815260009073__BtcUtils______________________________9063a0cd70fc90614653908590600401614f4e565b602060405180830381865af4158015614670573d6000803e3d6000fd5b505050506040513d601f19601f820116820180604052508101906146949190615b2d565b60a3546101c0880151600088815260a7602052604090205492935090916146c19163ffffffff16906156f0565b6146cb91906156f0565b8111156146dd576001925050506142a1565b856101e0015163ffffffff16421180614700575085610200015163ffffffff1643115b15614710576001925050506142a1565b50600095945050505050565b6001810154600090614736906001600160a01b0316614418565b8061475357506001820154614753906001600160a01b03166143d9565b8015610a725750506004015460ff1690565b6040518060c001604052806000815260200160006001600160a01b031681526020016060815260200160608152602001600015158152602001606081525090565b5080546147b290615230565b6000825580601f106147c2575050565b601f016020900490600052602060002090810190612b6c91905b808211156147f057600081556001016147dc565b5090565b634e487b7160e01b600052604160045260246000fd5b60405161026081016001600160401b038111828210171561482d5761482d6147f4565b60405290565b60405161028081016001600160401b038111828210171561482d5761482d6147f4565b604051608081016001600160401b038111828210171561482d5761482d6147f4565b604051601f8201601f191681016001600160401b03811182821017156148a0576148a06147f4565b604052919050565b60006001600160401b038211156148c1576148c16147f4565b50601f01601f191660200190565b600082601f8301126148e057600080fd5b81356148f36148ee826148a8565b614878565b81815284602083860101111561490857600080fd5b816020850160208301376000918101602001919091529392505050565b6000806040838503121561493857600080fd5b82356001600160401b038082111561494f57600080fd5b61495b868387016148cf565b9350602085013591508082111561497157600080fd5b5061497e858286016148cf565b9150509250929050565b6001600160a01b0381168114612b6c57600080fd5b803561237581614988565b8035600781900b811461237557600080fd5b803563ffffffff8116811461237557600080fd5b803561ffff8116811461237557600080fd5b600061026082840312156149f357600080fd5b6149fb61480a565b9050614a068261499d565b8152614a146020830161499d565b602082015260408201356001600160401b0380821115614a3357600080fd5b614a3f858386016148cf565b6040840152614a506060850161499d565b60608401526080840135915080821115614a6957600080fd5b614a75858386016148cf565b608084015260a084013560a084015260c084013560c0840152614a9a60e085016149a8565b60e084015261010091508184013581811115614ab557600080fd5b614ac1868287016148cf565b83850152505050610120808301358183015250610140614ae28184016149ba565b90820152610160614af48382016149ba565b90820152610180614b068382016149ce565b908201526101a0614b188382016149ce565b908201526101c0614b2a8382016149ba565b908201526101e0614b3c8382016149ba565b90820152610200614b4e8382016149ba565b9082015261022082810135908201526102409182013591810191909152919050565b600060208284031215614b8257600080fd5b81356001600160401b03811115614b9857600080fd5b6118ac848285016149e0565b80356001600160601b03198116811461237557600080fd5b8015158114612b6c57600080fd5b803561237581614bbc565b60006102808284031215614be857600080fd5b614bf0614833565b9050614bfb82614ba4565b8152614c096020830161499d565b6020820152614c1a6040830161499d565b604082015260608201356001600160401b0380821115614c3957600080fd5b614c45858386016148cf565b6060840152614c566080850161499d565b608084015260a0840135915080821115614c6f57600080fd5b614c7b858386016148cf565b60a084015260c084013560c084015260e084013560e08401526101009150614ca482850161499d565b8284015261012091508184013581811115614cbe57600080fd5b614cca868287016148cf565b83850152505050610140614cdf8184016149ba565b90820152610160614cf18382016149a8565b9082015261018082810135908201526101a0614d0e8184016149ba565b908201526101c0614d208382016149ba565b908201526101e0614d328382016149ba565b90820152610200614d448382016149ce565b90820152610220614d56838201614bca565b9082015261024082810135908201526102609182013591810191909152919050565b600080600080600060a08688031215614d9057600080fd5b85356001600160401b0380821115614da757600080fd5b614db389838a01614bd5565b96506020880135915080821115614dc957600080fd5b614dd589838a016148cf565b95506040880135915080821115614deb57600080fd5b614df789838a016148cf565b94506060880135915080821115614e0d57600080fd5b50614e1a888289016148cf565b95989497509295608001359392505050565b600060208284031215614e3e57600080fd5b5035919050565b60008060008060808587031215614e5b57600080fd5b84356001600160401b0380821115614e7257600080fd5b614e7e888389016148cf565b95506020870135915080821115614e9457600080fd5b614ea0888389016148cf565b945060408701359150614eb282614bbc565b90925060608601359080821115614ec857600080fd5b50614ed5878288016148cf565b91505092959194509250565b600060208284031215614ef357600080fd5b81356142a181614988565b60005b83811015614f19578181015183820152602001614f01565b50506000910152565b60008151808452614f3a816020860160208601614efe565b601f01601f19169290920160200192915050565b6020815260006142a16020830184614f22565b6001600160a01b03169052565b8051825260018060a01b0360208201511660208301526000604082015160c06040850152614f9f60c0850182614f22565b905060608301518482036060860152614fb88282614f22565b91505060808301511515608085015260a083015184820360a08601526112818282614f22565b6020815260006142a16020830184614f6e565b6001600160a01b0391909116815260200190565b6000806040838503121561501857600080fd5b82359150602083013561502a81614bbc565b809150509250929050565b6000806040838503121561504857600080fd5b82356001600160401b038082111561505f57600080fd5b61495b86838701614bd5565b60006020828403121561507d57600080fd5b81356001600160401b0381111561509357600080fd5b6118ac84828501614bd5565b600080604083850312156150b257600080fd5b82356001600160401b03808211156150c957600080fd5b61495b868387016149e0565b60006001600160401b038211156150ee576150ee6147f4565b5060051b60200190565b600080600080600060a0868803121561511057600080fd5b853594506020808701356001600160401b038082111561512f57600080fd5b61513b8a838b016148cf565b96506040890135955060608901359450608089013591508082111561515f57600080fd5b508701601f8101891361517157600080fd5b803561517f6148ee826150d5565b81815260059190911b8201830190838101908b83111561519e57600080fd5b928401925b828410156151bc578335825292840192908401906151a3565b80955050505050509295509295909350565b6000602080830181845280855180835260408601915060408160051b870101925083870160005b8281101561522357603f19888603018452615211858351614f6e565b945092850192908501906001016151f5565b5092979650505050505050565b600181811c9082168061524457607f821691505b60208210810361526457634e487b7160e01b600052602260045260246000fd5b50919050565b601f8211156152b457600081815260208120601f850160051c810160208610156152915750805b601f850160051c820191505b818110156152b05782815560010161529d565b5050505b505050565b81516001600160401b038111156152d2576152d26147f4565b6152e6816152e08454615230565b8461526a565b602080601f83116001811461531b57600084156153035750858301515b600019600386901b1c1916600185901b1785556152b0565b600085815260208120601f198616915b8281101561534a5788860151825594840194600190910190840161532b565b50858210156153685787850151600019600388901b60f8161c191681555b5050505050600190811b01905550565b6000815461538581615230565b8085526020600183811680156153a257600181146153bc576153ea565b60ff1985168884015283151560051b8801830195506153ea565b866000528260002060005b858110156153e25781548a82018601529083019084016153c7565b890184019650505b505050505092915050565b6040815260006154086040830185615378565b82810360208401526112818185615378565b634e487b7160e01b600052601160045260246000fd5b6000600182016154425761544261541a565b5060010190565b6020808252600690820152654c424330303160d01b604082015260600190565b60208082526006908201526509884866064760d31b604082015260600190565b60018060a01b03841681528260208201526060604082015260006112816060830184614f22565b6000602082840312156154c257600080fd5b81516142a181614bbc565b6020808252600690820152654c424330323960d01b604082015260600190565b81810381811115610a7257610a7261541a565b6001600160a01b039390931683526020830191909152604082015260600190565b8082028115828204841417610a7257610a7261541a565b634e487b7160e01b600052601260045260246000fd5b60008261555d5761555d615538565b500490565b80516001600160601b0319168252600061028060208301516155876020860182614f61565b50604083015161559a6040860182614f61565b5060608301518160608601526155b282860182614f22565b91505060808301516155c76080860182614f61565b5060a083015184820360a08601526155df8282614f22565b91505060c083015160c085015260e083015160e08501526101008084015161560982870182614f61565b505061012080840151858303828701526156238382614f22565b925050506101408084015161563f8287018263ffffffff169052565b5050610160808401516156568287018260070b9052565b505061018083810151908501526101a08084015163ffffffff908116918601919091526101c0808501518216908601526101e080850151909116908501526102008084015161ffff16908501526102208084015115159085015261024080840151908501526102609283015192909301919091525090565b6040815260006156e16040830185615562565b90508260208301529392505050565b80820180821115610a7257610a7261541a565b6001600160a01b03949094168452602084019290925215156040830152606082015260800190565b6000825161573d818460208701614efe565b9190910192915050565b63ffffffff8616815284602082015260a06040820152600061576c60a0830186614f22565b931515606083015250608001529392505050565b6020808252600690820152654c424330313960d01b604082015260600190565b60208082526006908201526504c42433032360d41b604082015260600190565b6001600160a01b03929092168252602082015260400190565b643832b3b4b760d91b815260050190565b651c1959dbdd5d60d21b815260060190565b60208082526006908201526509884866060760d31b604082015260600190565b60008261582b5761582b615538565b500690565b84815260008451615848816020850160208901614efe565b808301905060018060601b031985166020820152835161586f816034840160208801614efe565b016034019695505050505050565b600082601f83011261588e57600080fd5b815161589c6148ee826148a8565b8181528460208386010111156158b157600080fd5b6118ac826020830160208701614efe565b6000602082840312156158d457600080fd5b81516001600160401b038111156158ea57600080fd5b6118ac8482850161587d565b600160fd1b8152826001820152607560f81b602182015260008251615922816022850160208701614efe565b919091016022019392505050565b6060815260006159436060830186614f22565b82810360208401526159558186614f22565b9150508215156040830152949350505050565b63ffffffff8181168382160190808211156159855761598561541a565b5092915050565b602080825260069082015265131090cc0d8d60d21b604082015260600190565b602080825260069082015265262121981a1960d11b604082015260600190565b600060208083850312156159df57600080fd5b82516001600160401b03808211156159f657600080fd5b818501915085601f830112615a0a57600080fd5b8151615a186148ee826150d5565b81815260059190911b83018401908481019088831115615a3757600080fd5b8585015b83811015615ad257805185811115615a535760008081fd5b86016080818c03601f1901811315615a6b5760008081fd5b615a73614856565b898301518881168114615a865760008081fd5b815260408381015189811115615a9c5760008081fd5b615aaa8f8d8388010161587d565b838d015250606084810151918301919091529190920151908201528352918601918601615a3b565b5098975050505050505050565b634e487b7160e01b600052603260045260246000fd5b60ff8181168382160190811115610a7257610a7261541a565b600060ff821660ff8103615b2457615b2461541a565b60010192915050565b600060208284031215615b3f57600080fd5b5051919050565b600060808201868352602086818501528560408501526080606085015281855180845260a086019150828701935060005b81811015615b9357845183529383019391830191600101615b77565b50909998505050505050505050565b604081526000615bb56040830185614f22565b905082151560208301529392505050565b6000808354615bd481615230565b60018281168015615bec5760018114615c0157615c30565b60ff1984168752821515830287019450615c30565b8760005260208060002060005b85811015615c275781548a820152908401908201615c0e565b50505082870194505b50929695505050505050565b60208152615c4e602082018351614f61565b60006020830151615c626040840182614f61565b506040830151610260806060850152615c7f610280850183614f22565b91506060850151615c936080860182614f61565b506080850151601f19808685030160a0870152615cb08483614f22565b935060a087015160c087015260c087015160e087015260e08701519150610100615cde8188018460070b9052565b80880151925050610120818786030181880152615cfb8584614f22565b908801516101408881019190915288015190945091506101609050615d278187018363ffffffff169052565b8601519050610180615d408682018363ffffffff169052565b86015190506101a0615d578682018361ffff169052565b86015190506101c0615d6e8682018361ffff169052565b86015190506101e0615d878682018363ffffffff169052565b8601519050610200615da08682018363ffffffff169052565b8601519050610220615db98682018363ffffffff169052565b860151610240868101919091529095015193019290925250919050565b6001600160401b038181168382160190808211156159855761598561541a565b6020815260006142a16020830184615562565b6000610100808352615e1d8184018c614f22565b90508960208401528281036040840152615e37818a614f22565b90508760608401528281036080840152615e518188614f22565b6001600160a01b03871660a085015283810360c08501529050615e748186614f22565b91505082151560e0830152999850505050505050505056fe3052ea2f7e0d74fdc1c1e1f858ff1ae3d91ab1609717c3efedb95db603b255f69685484093cc596fdaeab51abf645b1753dbb7d869bfd2eb21e2c646e47a36f4bfc7404e6fe464f0646fe2c6ab942b92d56be722bb39f8c6bc4830d2d32fb80da2646970667358221220a30804814b06c853c09e79f1fefab64f035ab323ec2ffc6425a741ebb6a4a87664736f6c63430008120033",
  "immutableReferences": {},
  "source": "// SPDX-License-Identifier: MIT\npragma solidity ^0.8.18;\npragma experimental ABIEncoderV2;\n\nimport \"./Bridge.sol\";\nimport \"./QuotesV2.sol\";\nimport \"./SignatureValidator.sol\";\nimport \"@rsksmart/btc-transaction-solidity-helper/contracts/BtcUtils.sol\";\nimport \"@openzeppelin/contracts-upgradeable/access/OwnableUpgradeable.sol\";\nimport \"@openzeppelin/contracts-upgradeable/security/ReentrancyGuardUpgradeable.sol\";\n\n/**\n    @title Contract that assists with the Flyover protocol\n */\n\ncontract LiquidityBridgeContractV2 is Initializable, OwnableUpgradeable, ReentrancyGuardUpgradeable {\n    uint16 constant public MAX_CALL_GAS_COST = 35000;\n    uint16 constant public MAX_REFUND_GAS_LIMIT = 2300;\n\n    uint8 constant public UNPROCESSED_QUOTE_CODE = 0;\n    uint8 constant public CALL_DONE_CODE = 1;\n    uint8 constant public PROCESSED_QUOTE_CODE = 2;\n\n    int16 constant public BRIDGE_REFUNDED_USER_ERROR_CODE = - 100;\n    int16 constant public BRIDGE_REFUNDED_LP_ERROR_CODE = - 200;\n    int16 constant public BRIDGE_UNPROCESSABLE_TX_NOT_CONTRACT_ERROR_CODE = - 300;\n    int16 constant public BRIDGE_UNPROCESSABLE_TX_INVALID_SENDER_ERROR_CODE = - 301;\n    int16 constant public BRIDGE_UNPROCESSABLE_TX_ALREADY_PROCESSED_ERROR_CODE = - 302;\n    int16 constant public BRIDGE_UNPROCESSABLE_TX_VALIDATIONS_ERROR = - 303;\n    int16 constant public BRIDGE_UNPROCESSABLE_TX_VALUE_ZERO_ERROR = - 304;\n    int16 constant public BRIDGE_UNPROCESSABLE_TX_UTXO_AMOUNT_SENT_BELOW_MINIMUM_ERROR =\n    - 305;\n    int16 constant public BRIDGE_GENERIC_ERROR = - 900;\n    uint constant public PAY_TO_ADDRESS_OUTPUT = 0;\n    uint constant public QUOTE_HASH_OUTPUT = 1;\n    uint constant public SAT_TO_WEI_CONVERSION = 10**10;\n\n    struct Registry {\n        uint32 timestamp;\n        bool success;\n    }\n\n    struct PegoutRecord {\n        uint256 depositTimestamp;\n        bool completed;\n    }\n\n    struct LiquidityProvider {\n        uint id;\n        address provider;\n        string name;\n        string apiBaseUrl;\n        bool status;\n        string providerType;\n    }\n\n    event Register(uint id, address indexed from, uint256 amount);\n    event CollateralIncrease(address from, uint256 amount);\n    event PegoutCollateralIncrease(address from, uint256 amount);\n    event Withdrawal(address from, uint256 amount);\n    event WithdrawCollateral(address from, uint256 amount);\n    event Resigned(address from);\n    event CallForUser(\n        address indexed from,\n        address indexed dest,\n        uint gasLimit,\n        uint value,\n        bytes data,\n        bool success,\n        bytes32 quoteHash\n    );\n    event PegInRegistered(bytes32 indexed quoteHash, int256 transferredAmount);\n    event Penalized(address liquidityProvider, uint penalty, bytes32 quoteHash);\n    event BridgeCapExceeded(bytes32 quoteHash, int256 errorCode);\n    event BalanceIncrease(address dest, uint amount);\n    event BalanceDecrease(address dest, uint amount);\n    event Refund(address dest, uint amount, bool success, bytes32 quoteHash);\n    event PegOutRefunded(bytes32 indexed quoteHash);\n    event PegOutDeposit(\n        bytes32 indexed quoteHash,\n        address indexed sender,\n        uint256 amount,\n        uint256 timestamp\n    );\n    event PegOutUserRefunded(\n        bytes32 indexed quoteHash,\n        uint256 value,\n        address userAddress\n    );\n    event DaoFeeSent(bytes32 indexed quoteHash, uint256 amount);\n    event ProviderUpdate(address indexed providerAddress, string name, string url);\n\n    Bridge public bridge;\n    mapping(address => uint256) private balances;\n    mapping(address => uint256) private collateral;\n    mapping(address => uint256) private pegoutCollateral;\n    mapping(uint => LiquidityProvider) private liquidityProviders;\n    mapping(bytes32 => Registry) private callRegistry;\n    mapping(address => uint256) private resignationBlockNum;\n\n    uint256 private minCollateral;\n    uint256 private minPegIn;\n\n    uint32 private rewardP;\n    uint32 private resignDelayInBlocks;\n    uint private dust;\n    uint public providerId;\n\n    uint private btcBlockTime;\n    bool private mainnet;\n\n    mapping(bytes32 => uint8) private processedQuotes;\n    mapping(bytes32 => QuotesV2.PegOutQuote) private registeredPegoutQuotes;\n    mapping(bytes32 => PegoutRecord) private pegoutRegistry;\n\n    uint256 public productFeePercentage;\n    address public daoFeeCollectorAddress;\n\n    modifier onlyRegistered() {\n        require(isRegistered(msg.sender), \"LBC001\");\n        _;\n    }\n\n    modifier onlyRegisteredForPegout() {\n        require(isRegisteredForPegout(msg.sender), \"LBC001\");\n        _;\n    }\n\n    modifier onlyOwnerAndProvider(uint _providerId) {\n        require(\n            msg.sender == owner() ||\n            msg.sender == liquidityProviders[_providerId].provider,\n            \"LBC005\"\n        );\n        _;\n    }\n\n    function setProviderStatus(\n        uint _providerId,\n        bool status\n    ) external onlyOwnerAndProvider(_providerId) {\n        liquidityProviders[_providerId].status = status;\n    }\n\n    receive() external payable {\n        require(msg.sender == address(bridge), \"LBC007\");\n    }\n\n    function version() external pure returns (string memory) {\n        return \"1.3.0\";\n    }\n\n    function getProviderIds() external view returns (uint) {\n        return providerId;\n    }\n\n    function getBridgeAddress() external view returns (address) {\n        return address(bridge);\n    }\n\n    function getMinCollateral() public view returns (uint) {\n        return minCollateral;\n    }\n\n    function getMinPegIn() external view returns (uint) {\n        return minPegIn;\n    }\n\n    function getRewardPercentage() external view returns (uint) {\n        return rewardP;\n    }\n\n    function getResignDelayBlocks() external view returns (uint) {\n        return resignDelayInBlocks;\n    }\n\n    function getDustThreshold() external view returns (uint) {\n        return dust;\n    }\n\n    function isPegOutQuoteCompleted(bytes32 quoteHash) external view returns (bool) {\n        return pegoutRegistry[quoteHash].completed;\n    }\n\n    /**\n        @dev Checks whether a liquidity provider can deliver a pegin service\n        @return Whether the liquidity provider is registered and has enough locked collateral\n     */\n    function isOperational(address addr) external view returns (bool) {\n        return isRegistered(addr) && collateral[addr] >= minCollateral;\n    }\n\n    /**\n        @dev Checks whether a liquidity provider can deliver a pegout service\n        @return Whether the liquidity provider is registered and has enough locked collateral\n     */\n    function isOperationalForPegout(address addr) external view returns (bool) {\n        return\n            isRegisteredForPegout(addr) &&\n            pegoutCollateral[addr] >= minCollateral;\n    }\n\n    /**\n        @dev Registers msg.sender as a liquidity provider with msg.value as collateral\n     */\n    function register(\n        string memory _name,\n        string memory _apiBaseUrl,\n        bool _status,\n        string memory _providerType\n    ) external payable returns (uint) {\n        require(tx.origin == msg.sender, \"LBC003\");\n        //require(collateral[msg.sender] == 0, \"Already registered\");\n        require(bytes(_name).length > 0, \"LBC010\");\n        require(\n            bytes(_apiBaseUrl).length > 0,\n            \"LBC017\"\n        );\n\n        // Check if _providerType is one of the valid strings\n        require(\n            keccak256(abi.encodePacked(_providerType)) ==\n            keccak256(abi.encodePacked(\"pegin\")) ||\n            keccak256(abi.encodePacked(_providerType)) ==\n            keccak256(abi.encodePacked(\"pegout\")) ||\n            keccak256(abi.encodePacked(_providerType)) ==\n            keccak256(abi.encodePacked(\"both\")),\n            \"LBC018\"\n        );\n\n        require(collateral[msg.sender] == 0 && pegoutCollateral[msg.sender] == 0, \"LBC070\");\n        require(\n            resignationBlockNum[msg.sender] == 0,\n            \"LBC009\"\n        );\n\n        if (keccak256(abi.encodePacked(_providerType)) == keccak256(abi.encodePacked(\"pegin\"))) {\n            require(msg.value >= minCollateral, \"LBC008\");\n            collateral[msg.sender] = msg.value;\n        } else if (keccak256(abi.encodePacked(_providerType)) == keccak256(abi.encodePacked(\"pegout\"))) {\n            require(msg.value >= minCollateral, \"LBC008\");\n            pegoutCollateral[msg.sender] = msg.value;\n        } else {\n            require(msg.value >= minCollateral * 2, \"LBC008\");\n            uint halfMsgValue = msg.value / 2;\n            collateral[msg.sender] = msg.value % 2 == 0 ? halfMsgValue : halfMsgValue + 1;\n            pegoutCollateral[msg.sender] = halfMsgValue;\n        }\n\n        providerId++;\n        liquidityProviders[providerId] = LiquidityProvider({\n            id: providerId,\n            provider: msg.sender,\n            name: _name,\n            apiBaseUrl: _apiBaseUrl,\n            status: _status,\n            providerType: _providerType\n        });\n        emit Register(providerId, msg.sender, msg.value);\n        return (providerId);\n    }\n\n    function getProviders() external view returns (LiquidityProvider[] memory) {\n        uint count = 0;\n        LiquidityProvider storage lp;\n        for (uint i = 1; i <= providerId; i++) {\n            if (shouldBeListed(liquidityProviders[i])) {\n                count++;\n            }\n        }\n        LiquidityProvider[] memory providersToReturn = new LiquidityProvider[](count);\n        count = 0;\n        for (uint i = 1; i <= providerId; i++) {\n            lp = liquidityProviders[i];\n            if (shouldBeListed(lp)) {\n                providersToReturn[count] = lp;\n                count++;\n            }\n        }\n        return providersToReturn;\n    }\n\n    function getProvider(address providerAddress) public view returns (LiquidityProvider memory) {\n        for (uint i = 1; i <= providerId; i++) {\n            if (liquidityProviders[i].provider == providerAddress) {\n                return liquidityProviders[i];\n            }\n        }\n        revert(\"LBC001\");\n    }\n\n    function shouldBeListed(LiquidityProvider storage lp) private view returns(bool){\n        return (isRegistered(lp.provider) || isRegisteredForPegout(lp.provider)) && lp.status;\n    }\n\n    /**\n        @dev Increases the amount of collateral of the sender\n     */\n    function addCollateral() external payable onlyRegistered {\n        collateral[msg.sender] += msg.value;\n        emit CollateralIncrease(msg.sender, msg.value);\n    }\n\n    function addPegoutCollateral() external payable onlyRegisteredForPegout {\n        pegoutCollateral[msg.sender] += msg.value;\n        emit PegoutCollateralIncrease(msg.sender, msg.value);\n    }\n\n    /**\n        @dev Increases the balance of the sender\n     */\n    function deposit() external payable onlyRegistered {\n        increaseBalance(msg.sender, msg.value);\n    }\n\n    /**\n        @dev Used to withdraw funds\n        @param amount The amount to withdraw\n     */\n    function withdraw(uint256 amount) external {\n        require(balances[msg.sender] >= amount, \"LBC019\");\n        balances[msg.sender] -= amount;\n        (bool success,) = msg.sender.call{value: amount}(\"\");\n        require(success, \"LBC020\");\n        emit Withdrawal(msg.sender, amount);\n    }\n\n    /**\n        @dev Used to withdraw the locked collateral\n     */\n    function withdrawCollateral() external nonReentrant {\n        require(resignationBlockNum[msg.sender] > 0, \"LBC021\");\n        require(\n            block.number - resignationBlockNum[msg.sender] >=\n            resignDelayInBlocks,\n            \"LBC022\"\n        );\n        uint amount = collateral[msg.sender] + pegoutCollateral[msg.sender];\n        pegoutCollateral[msg.sender] = 0;\n        collateral[msg.sender] = 0;\n        resignationBlockNum[msg.sender] = 0;\n        (bool success,) = msg.sender.call{value: amount}(\"\");\n        require(success, \"LBC020\");\n        emit WithdrawCollateral(msg.sender, amount);\n    }\n\n    /**\n        @dev Used to resign as a liquidity provider\n     */\n    function resign() external onlyRegistered {\n        require(resignationBlockNum[msg.sender] == 0, \"LBC023\");\n        resignationBlockNum[msg.sender] = block.number;\n        emit Resigned(msg.sender);\n    }\n\n    /**\n        @dev Returns the amount of collateral of a liquidity provider\n        @param addr The address of the liquidity provider\n        @return The amount of locked collateral\n     */\n    function getCollateral(address addr) external view returns (uint256) {\n        return collateral[addr];\n    }\n\n    function getPegoutCollateral(address addr) external view returns (uint256) {\n        return pegoutCollateral[addr];\n    }\n\n    /**\n        @dev Returns the amount of funds of a liquidity provider\n        @param addr The address of the liquidity provider\n        @return The balance of the liquidity provider\n     */\n    function getBalance(address addr) external view returns (uint256) {\n        return balances[addr];\n    }\n\n    /**\n        @dev Performs a call on behalf of a user\n        @param quote The quote that identifies the service\n        @return Boolean indicating whether the call was successful\n     */\n    function callForUser(\n        QuotesV2.PeginQuote memory quote\n    ) external payable onlyRegistered nonReentrant returns (bool) {\n        require(\n            msg.sender == quote.liquidityProviderRskAddress,\n            \"LBC024\"\n        );\n        require(\n            balances[quote.liquidityProviderRskAddress] + msg.value >=\n            quote.value,\n            \"LBC019\"\n        );\n\n        bytes32 quoteHash = validateAndHashQuote(quote);\n        require(\n            processedQuotes[quoteHash] == UNPROCESSED_QUOTE_CODE,\n            \"LBC025\"\n        );\n\n        increaseBalance(quote.liquidityProviderRskAddress, msg.value);\n\n        // This check ensures that the call cannot be performed with less gas than the agreed amount\n        require(\n            gasleft() >= quote.gasLimit + MAX_CALL_GAS_COST,\n            \"LBC026\"\n        );\n        (bool success,) = quote.contractAddress.call{\n                gas: quote.gasLimit,\n                value: quote.value\n            }(quote.data);\n\n        require(block.timestamp <= type(uint32).max, \"LBC027\");\n        callRegistry[quoteHash].timestamp = uint32(block.timestamp);\n\n        if (success) {\n            callRegistry[quoteHash].success = true;\n            decreaseBalance(quote.liquidityProviderRskAddress, quote.value);\n        }\n        emit CallForUser(\n            msg.sender,\n            quote.contractAddress,\n            quote.gasLimit,\n            quote.value,\n            quote.data,\n            success,\n            quoteHash\n        );\n        processedQuotes[quoteHash] = CALL_DONE_CODE;\n        return success;\n    }\n\n    /**\n        @dev Registers a peg-in transaction with the bridge and pays to the involved parties\n        @param quote The quote of the service\n        @param signature The signature of the quote\n        @param btcRawTransaction The peg-in transaction\n        @param partialMerkleTree The merkle tree path that proves transaction inclusion\n        @param height The block that contains the peg-in transaction\n        @return The total peg-in amount received from the bridge contract or an error code\n     */\n    function registerPegIn(\n        QuotesV2.PeginQuote memory quote,\n        bytes memory signature,\n        bytes memory btcRawTransaction,\n        bytes memory partialMerkleTree,\n        uint256 height\n    ) external nonReentrant returns (int256) {\n        bytes32 quoteHash = validateAndHashQuote(quote);\n\n        // TODO: allow multiple registerPegIns for the same quote with different transactions\n        require(\n            processedQuotes[quoteHash] <= CALL_DONE_CODE,\n            \"LBC028\"\n        );\n        require(\n            SignatureValidator.verify(\n                quote.liquidityProviderRskAddress,\n                quoteHash,\n                signature\n            ),\n            \"LBC029\"\n        );\n        require(height < uint256(int256(type(int32).max)), \"LBC030\");\n\n        int256 transferredAmountOrErrorCode = registerBridge(\n            quote,\n            btcRawTransaction,\n            partialMerkleTree,\n            height,\n            quoteHash\n        );\n\n        require(\n            transferredAmountOrErrorCode !=\n            BRIDGE_UNPROCESSABLE_TX_VALIDATIONS_ERROR,\n            \"LBC031\"\n        );\n        require(\n            transferredAmountOrErrorCode !=\n            BRIDGE_UNPROCESSABLE_TX_ALREADY_PROCESSED_ERROR_CODE,\n            \"LBC032\"\n        );\n        require(\n            transferredAmountOrErrorCode !=\n            BRIDGE_UNPROCESSABLE_TX_VALUE_ZERO_ERROR,\n            \"LBC033\"\n        );\n        require(\n            transferredAmountOrErrorCode !=\n            BRIDGE_UNPROCESSABLE_TX_UTXO_AMOUNT_SENT_BELOW_MINIMUM_ERROR,\n            \"LBC034\"\n        );\n        require(\n            transferredAmountOrErrorCode != BRIDGE_GENERIC_ERROR,\n            \"LBC035\"\n        );\n        require(\n            transferredAmountOrErrorCode > 0 ||\n            transferredAmountOrErrorCode == BRIDGE_REFUNDED_LP_ERROR_CODE ||\n            transferredAmountOrErrorCode == BRIDGE_REFUNDED_USER_ERROR_CODE,\n            \"LBC036\"\n        );\n\n        if (\n            shouldPenalizeLP(\n            quote,\n            transferredAmountOrErrorCode,\n            callRegistry[quoteHash].timestamp,\n            height\n        )\n        ) {\n            uint penalizationAmount = min(\n                quote.penaltyFee,\n                collateral[quote.liquidityProviderRskAddress]\n            ); // prevent underflow when collateral is less than penalty fee.\n            collateral[quote.liquidityProviderRskAddress] -= penalizationAmount;\n            emit Penalized(\n                quote.liquidityProviderRskAddress,\n                penalizationAmount,\n                quoteHash\n            );\n\n            // pay reward to sender\n            uint256 punisherReward = (penalizationAmount * rewardP) / 100;\n            increaseBalance(msg.sender, punisherReward);\n        }\n\n        if (\n            transferredAmountOrErrorCode == BRIDGE_REFUNDED_LP_ERROR_CODE ||\n            transferredAmountOrErrorCode == BRIDGE_REFUNDED_USER_ERROR_CODE\n        ) {\n            // Bridge cap exceeded\n            processedQuotes[quoteHash] = PROCESSED_QUOTE_CODE;\n            delete callRegistry[quoteHash];\n            emit BridgeCapExceeded(quoteHash, transferredAmountOrErrorCode);\n            return transferredAmountOrErrorCode;\n        }\n\n        // the amount is safely assumed positive because it's already been\n        // validated in lines 287/298 there's no (negative) error code being returned by the bridge.\n        uint transferredAmount = uint(transferredAmountOrErrorCode);\n\n        QuotesV2.checkAgreedAmount(quote, transferredAmount);\n\n        if (callRegistry[quoteHash].timestamp > 0) {\n            uint refundAmount;\n\n            if (callRegistry[quoteHash].success) {\n                refundAmount = min(\n                    transferredAmount,\n                    quote.value + quote.callFee + quote.gasFee\n                );\n            } else {\n                refundAmount = min(transferredAmount, quote.callFee + quote.gasFee);\n            }\n            increaseBalance(quote.liquidityProviderRskAddress, refundAmount);\n\n            uint remainingAmount = transferredAmount - refundAmount;\n            payToFeeCollector(quote.productFeeAmount, quoteHash);\n\n            if (remainingAmount > dust) {\n                // refund rskRefundAddress, if remaining amount greater than dust\n                (bool success,) = quote.rskRefundAddress.call{\n                        gas: MAX_REFUND_GAS_LIMIT,\n                        value: remainingAmount\n                    }(\"\");\n                emit Refund(\n                    quote.rskRefundAddress,\n                    remainingAmount,\n                    success,\n                    quoteHash\n                );\n\n                if (!success) {\n                    // transfer funds to LP instead, if for some reason transfer to rskRefundAddress was unsuccessful\n                    increaseBalance(\n                        quote.liquidityProviderRskAddress,\n                        remainingAmount\n                    );\n                }\n            }\n        } else {\n            uint refundAmount = transferredAmount;\n\n            if (quote.callOnRegister && refundAmount >= quote.value) {\n                (bool callSuccess,) = quote.contractAddress.call{\n                        gas: quote.gasLimit,\n                        value: quote.value\n                    }(quote.data);\n                emit CallForUser(\n                    msg.sender,\n                    quote.contractAddress,\n                    quote.gasLimit,\n                    quote.value,\n                    quote.data,\n                    callSuccess,\n                    quoteHash\n                );\n\n                if (callSuccess) {\n                    refundAmount -= quote.value;\n                }\n            }\n            if (refundAmount > dust) {\n                // refund rskRefundAddress, if refund amount greater than dust\n                (bool success,) = quote.rskRefundAddress.call{\n                        gas: MAX_REFUND_GAS_LIMIT,\n                        value: refundAmount\n                    }(\"\");\n                emit Refund(\n                    quote.rskRefundAddress,\n                    refundAmount,\n                    success,\n                    quoteHash\n                );\n            }\n        }\n        processedQuotes[quoteHash] = PROCESSED_QUOTE_CODE;\n        delete callRegistry[quoteHash];\n        emit PegInRegistered(quoteHash, transferredAmountOrErrorCode);\n        return transferredAmountOrErrorCode;\n    }\n\n    function depositPegout( // TODO convert to calldata when contract size issues are fixed\n        QuotesV2.PegOutQuote memory quote,\n        bytes memory signature\n    ) external payable {\n        require(isRegisteredForPegout(quote.lpRskAddress), \"LBC037\");\n        require(quote.value + quote.callFee + quote.productFeeAmount + quote.gasFee <= msg.value, \"LBC063\");\n        require(block.timestamp <= quote.depositDateLimit, \"LBC065\");\n        require(block.timestamp <= quote.expireDate, \"LBC046\");\n        require(block.number <= quote.expireBlock, \"LBC047\");\n        bytes32 quoteHash = hashPegoutQuote(quote);\n        require(\n            SignatureValidator.verify(quote.lpRskAddress, quoteHash, signature),\n            \"LBC029\"\n        );\n\n        QuotesV2.PegOutQuote storage registeredQuote = registeredPegoutQuotes[quoteHash];\n\n        require(pegoutRegistry[quoteHash].completed == false, \"LBC064\");\n        require(registeredQuote.lbcAddress == address(0), \"LBC028\");\n        registeredPegoutQuotes[quoteHash] = quote;\n        pegoutRegistry[quoteHash].depositTimestamp = block.timestamp;\n        emit PegOutDeposit(quoteHash, msg.sender, msg.value, block.timestamp);\n    }\n\n    function refundUserPegOut(\n        bytes32 quoteHash\n    ) external nonReentrant {\n        QuotesV2.PegOutQuote storage quote = registeredPegoutQuotes[quoteHash];\n\n        require(quote.lbcAddress != address(0), \"LBC042\");\n        require(\n            block.timestamp > quote.expireDate &&\n            block.number > quote.expireBlock,\n            \"LBC041\"\n        );\n\n        uint valueToTransfer = quote.value + quote.callFee + quote.productFeeAmount + quote.gasFee;\n        address addressToTransfer = quote.rskRefundAddress;\n\n        uint penalty = min(quote.penaltyFee, pegoutCollateral[quote.lpRskAddress]);\n        pegoutCollateral[quote.lpRskAddress] -= penalty;\n\n        emit Penalized(quote.lpRskAddress, penalty, quoteHash);\n        emit PegOutUserRefunded(\n            quoteHash,\n            valueToTransfer,\n            quote.rskRefundAddress\n        );\n\n        delete registeredPegoutQuotes[quoteHash];\n        pegoutRegistry[quoteHash].completed = true;\n\n        (bool sent,) = addressToTransfer.call{value: valueToTransfer}(\"\");\n        require(sent, \"LBC044\");\n    }\n\n    function refundPegOut(\n        bytes32 quoteHash,\n        bytes memory btcTx,\n        bytes32 btcBlockHeaderHash,\n        uint256 partialMerkleTree,\n        bytes32[] memory merkleBranchHashes\n    ) external nonReentrant onlyRegisteredForPegout {\n        require(pegoutRegistry[quoteHash].completed == false, \"LBC064\");\n        QuotesV2.PegOutQuote storage quote = registeredPegoutQuotes[quoteHash];\n        require(quote.lbcAddress != address(0), \"LBC042\");\n        BtcUtils.TxRawOutput[] memory outputs = BtcUtils.getOutputs(btcTx);\n        bytes memory scriptContent = BtcUtils.parseNullDataScript(outputs[QUOTE_HASH_OUTPUT].pkScript);\n        require(scriptContent.length == 33 && scriptContent[0] == 0x20, \"LBC075\");\n        // shift the array to remove the first byte (the size)\n        for (uint8 i = 0 ; i < scriptContent.length - 1; i++) {\n            scriptContent[i] = scriptContent[i + 1];\n        }\n        bytes32 txQuoteHash = abi.decode(scriptContent, (bytes32));\n        require(quoteHash == txQuoteHash, \"LBC069\");\n        require(msg.sender == quote.lpRskAddress, \"LBC048\");\n        require(\n            bridge.getBtcTransactionConfirmations(\n                BtcUtils.hashBtcTx(btcTx),\n                btcBlockHeaderHash,\n                partialMerkleTree,\n                merkleBranchHashes\n            ) >= int(uint256(quote.transferConfirmations)),\n            \"LBC049\"\n        );\n        uint requiredAmount = quote.value;\n        if (quote.value > SAT_TO_WEI_CONVERSION && (quote.value % SAT_TO_WEI_CONVERSION) != 0) {\n            requiredAmount = quote.value - (quote.value % SAT_TO_WEI_CONVERSION);\n        }\n        uint paidAmount = outputs[PAY_TO_ADDRESS_OUTPUT].value * SAT_TO_WEI_CONVERSION;\n        require(requiredAmount <= paidAmount, \"LBC067\");\n        bytes memory btcTxDestination = BtcUtils.outputScriptToAddress(\n            outputs[PAY_TO_ADDRESS_OUTPUT].pkScript,\n            mainnet\n        );\n        require(keccak256(quote.deposityAddress) == keccak256(btcTxDestination), \"LBC068\");\n\n        if (\n            shouldPenalizePegOutLP(\n            quote,\n            txQuoteHash,\n            btcBlockHeaderHash\n        )\n        ) {\n            uint penalty = min(\n                quote.penaltyFee,\n                pegoutCollateral[quote.lpRskAddress]\n            );\n            pegoutCollateral[quote.lpRskAddress] -= penalty;\n            emit Penalized(quote.lpRskAddress, penalty, txQuoteHash);\n        }\n\n        (bool sent,) = quote.lpRskAddress.call{\n                value: quote.value + quote.callFee + quote.gasFee\n            }(\"\");\n        require(sent, \"LBC050\");\n\n        payToFeeCollector(quote.productFeeAmount, quoteHash);\n\n        delete registeredPegoutQuotes[txQuoteHash];\n        pegoutRegistry[txQuoteHash].completed = true;\n        emit PegOutRefunded(txQuoteHash);\n    }\n\n    function validatePeginDepositAddress(\n        QuotesV2.PeginQuote memory quote,\n        bytes memory depositAddress\n    ) external view returns (bool) {\n        bytes32 derivationValue = keccak256(\n            bytes.concat(\n                hashQuote(quote),\n                quote.btcRefundAddress,\n                bytes20(quote.lbcAddress),\n                quote.liquidityProviderBtcAddress\n            )\n        );\n        bytes memory flyoverRedeemScript = bytes.concat(\n            hex\"20\",\n            derivationValue,\n            hex\"75\",\n            bridge.getActivePowpegRedeemScript()\n        );\n        return BtcUtils.validateP2SHAdress(depositAddress, flyoverRedeemScript, mainnet);\n    }\n\n    /**\n        @dev Calculates hash of a quote. Note: besides calculation this function also validates the quote.\n        @param quote The quote of the service\n        @return The hash of a quote\n     */\n    function hashQuote(QuotesV2.PeginQuote memory quote) public view returns (bytes32) {\n        return validateAndHashQuote(quote);\n    }\n\n    function hashPegoutQuote(\n        QuotesV2.PegOutQuote memory quote\n    ) public view returns (bytes32) {\n        return validateAndHashPegOutQuote(quote);\n    }\n\n    function validateAndHashQuote(\n        QuotesV2.PeginQuote memory quote\n    ) private view returns (bytes32) {\n        require(address(this) == quote.lbcAddress, \"LBC051\");\n        require(\n            address(bridge) != quote.contractAddress,\n            \"LBC052\"\n        );\n        require(\n            quote.btcRefundAddress.length == 21 ||\n            quote.btcRefundAddress.length == 33,\n            \"LBC053\"\n        );\n        require(\n            quote.liquidityProviderBtcAddress.length == 21,\n            \"LBC054\"\n        );\n        require(\n            quote.value + quote.callFee + quote.productFeeAmount + quote.gasFee >= minPegIn,\n            \"LBC055\"\n        );\n        require(\n            type(uint32).max >= uint64(quote.agreementTimestamp) + uint64(quote.timeForDeposit),\n            \"LBC071\"\n        );\n\n        return keccak256(QuotesV2.encodeQuote(quote));\n    }\n\n    function validateAndHashPegOutQuote(\n        QuotesV2.PegOutQuote memory quote\n    ) private view returns (bytes32) {\n        require(address(this) == quote.lbcAddress, \"LBC056\");\n\n        return keccak256(QuotesV2.encodePegOutQuote(quote));\n    }\n\n    function min(uint a, uint b) private pure returns (uint) {\n        return a < b ? a : b;\n    }\n\n    // IMPORTANT: These methods should remain private at all costs\n    function increaseBalance(address dest, uint amount) private {\n        balances[dest] += amount;\n        emit BalanceIncrease(dest, amount);\n    }\n\n    function decreaseBalance(address dest, uint amount) private {\n        balances[dest] -= amount;\n        emit BalanceDecrease(dest, amount);\n    }\n\n    /**\n        @dev Checks if a liquidity provider is registered\n        @param addr The address of the liquidity provider\n        @return Boolean indicating whether the liquidity provider is registered\n     */\n    function isRegistered(address addr) private view returns (bool) {\n        return collateral[addr] > 0 && resignationBlockNum[addr] == 0;\n    }\n\n    function isRegisteredForPegout(address addr) private view returns (bool) {\n        return pegoutCollateral[addr] > 0 && resignationBlockNum[addr] == 0;\n    }\n\n    /**\n        @dev Registers a transaction with the bridge contract\n        @param quote The quote of the service\n        @param btcRawTransaction The peg-in transaction\n        @param partialMerkleTree The merkle tree path that proves transaction inclusion\n        @param height The block that contains the transaction\n        @return The total peg-in amount received from the bridge contract or an error code\n     */\n    function registerBridge(\n        QuotesV2.PeginQuote memory quote,\n        bytes memory btcRawTransaction,\n        bytes memory partialMerkleTree,\n        uint256 height,\n        bytes32 derivationHash\n    ) private returns (int256) {\n        return\n            bridge.registerFastBridgeBtcTransaction(\n            btcRawTransaction,\n            height,\n            partialMerkleTree,\n            derivationHash,\n            quote.btcRefundAddress,\n            payable(this),\n            quote.liquidityProviderBtcAddress,\n            callRegistry[derivationHash].timestamp > 0 && callRegistry[derivationHash].success\n        );\n    }\n\n    /**\n        @dev Checks if a liquidity provider should be penalized\n        @param quote The quote of the service\n        @param amount The transferred amount or an error code\n        @param callTimestamp The time that the liquidity provider called callForUser\n        @param height The block height where the peg-in transaction is included\n        @return Boolean indicating whether the penalty applies\n     */\n    function shouldPenalizeLP(\n        QuotesV2.PeginQuote memory quote,\n        int256 amount,\n        uint256 callTimestamp,\n        uint256 height\n    ) private view returns (bool) {\n        // do not penalize if deposit amount is insufficient\n        if (amount > 0 && uint256(amount) < quote.value + quote.callFee + quote.productFeeAmount + quote.gasFee) {\n            return false;\n        }\n\n        bytes memory firstConfirmationHeader = bridge\n            .getBtcBlockchainBlockHeaderByHeight(height);\n        require(firstConfirmationHeader.length > 0, \"Invalid block height\");\n\n        uint256 firstConfirmationTimestamp = BtcUtils.getBtcBlockTimestamp(\n            firstConfirmationHeader\n        );\n\n        // do not penalize if deposit was not made on time\n        // prevent overflow when collateral is less than penalty fee.\n        uint timeLimit = quote.agreementTimestamp + quote.timeForDeposit;\n        if (firstConfirmationTimestamp > timeLimit) {\n            return false;\n        }\n\n        // penalize if call was not made\n        if (callTimestamp == 0) {\n            return true;\n        }\n\n        bytes memory nConfirmationsHeader = bridge\n            .getBtcBlockchainBlockHeaderByHeight(\n            height + quote.depositConfirmations - 1\n        );\n        require(nConfirmationsHeader.length > 0, \"LBC058\");\n\n        uint256 nConfirmationsTimestamp = BtcUtils.getBtcBlockTimestamp(\n            nConfirmationsHeader\n        );\n\n        // penalize if the call was not made on time\n        if (callTimestamp > nConfirmationsTimestamp + quote.callTime) {\n            return true;\n        }\n        return false;\n    }\n\n    function shouldPenalizePegOutLP(\n        QuotesV2.PegOutQuote memory quote,\n        bytes32 quoteHash,\n        bytes32 blockHash\n    ) private view returns (bool) {\n        bytes memory firstConfirmationHeader = bridge.getBtcBlockchainBlockHeaderByHash(blockHash);\n        require(firstConfirmationHeader.length > 0, \"LBC059\");\n\n        uint256 firstConfirmationTimestamp = BtcUtils.getBtcBlockTimestamp(firstConfirmationHeader);\n\n        // penalize if the transfer was not made on time\n        if (firstConfirmationTimestamp > pegoutRegistry[quoteHash].depositTimestamp +\n        quote.transferTime + btcBlockTime) {\n            return true;\n        }\n\n        // penalize if LP is refunding after expiration\n        if (block.timestamp > quote.expireDate || block.number > quote.expireBlock) {\n            return true;\n        }\n\n        return false;\n    }\n\n    function payToFeeCollector(uint amount, bytes32 quoteHash) private {\n        if (amount > 0) {\n            (bool daoSuccess,) = payable(daoFeeCollectorAddress).call{value: amount}(\"\");\n            require(daoSuccess, \"LBC074\");\n            emit DaoFeeSent(quoteHash, amount);\n        }\n    }\n\n    function updateProvider(string memory _name, string memory _url) external {\n        require(bytes(_name).length > 0 && bytes(_url).length > 0, \"LBC076\");\n        LiquidityProvider storage lp;\n        for (uint i = 1; i <= providerId; i++) {\n            lp = liquidityProviders[i];\n            if (msg.sender == lp.provider) {\n                lp.name = _name;\n                lp.apiBaseUrl = _url;\n                emit ProviderUpdate(msg.sender, lp.name, lp.apiBaseUrl);\n                return;\n            }\n        }\n        revert(\"LBC001\");\n    }\n}\n",
  "sourcePath": "/Users/luischavez/iov/liquidity-bridge-contract/contracts/LiquidityBridgeContractV2.sol",
  "compiler": {
    "name": "solc",
    "version": "0.8.18+commit.87f61d96.Emscripten.clang"
  },
  "schemaVersion": "3.4.13",
  "updatedAt": "2024-12-02T15:49:23.645Z",
  "networkType": "ethereum",
  "devdoc": {
    "events": {
      "Initialized(uint8)": {
        "details": "Triggered when the contract has been initialized or reinitialized."
      }
    },
    "kind": "dev",
    "methods": {
      "addCollateral()": {
        "details": "Increases the amount of collateral of the sender"
      },
      "callForUser((bytes20,address,address,bytes,address,bytes,uint256,uint256,address,bytes,uint32,int64,uint256,uint32,uint32,uint32,uint16,bool,uint256,uint256))": {
        "details": "Performs a call on behalf of a user",
        "params": {
          "quote": "The quote that identifies the service"
        },
        "returns": {
          "_0": "Boolean indicating whether the call was successful"
        }
      },
      "deposit()": {
        "details": "Increases the balance of the sender"
      },
      "getBalance(address)": {
        "details": "Returns the amount of funds of a liquidity provider",
        "params": {
          "addr": "The address of the liquidity provider"
        },
        "returns": {
          "_0": "The balance of the liquidity provider"
        }
      },
      "getCollateral(address)": {
        "details": "Returns the amount of collateral of a liquidity provider",
        "params": {
          "addr": "The address of the liquidity provider"
        },
        "returns": {
          "_0": "The amount of locked collateral"
        }
      },
      "hashQuote((bytes20,address,address,bytes,address,bytes,uint256,uint256,address,bytes,uint32,int64,uint256,uint32,uint32,uint32,uint16,bool,uint256,uint256))": {
        "details": "Calculates hash of a quote. Note: besides calculation this function also validates the quote.",
        "params": {
          "quote": "The quote of the service"
        },
        "returns": {
          "_0": "The hash of a quote"
        }
      },
      "isOperational(address)": {
        "details": "Checks whether a liquidity provider can deliver a pegin service",
        "returns": {
          "_0": "Whether the liquidity provider is registered and has enough locked collateral"
        }
      },
      "isOperationalForPegout(address)": {
        "details": "Checks whether a liquidity provider can deliver a pegout service",
        "returns": {
          "_0": "Whether the liquidity provider is registered and has enough locked collateral"
        }
      },
      "owner()": {
        "details": "Returns the address of the current owner."
      },
      "register(string,string,bool,string)": {
        "details": "Registers msg.sender as a liquidity provider with msg.value as collateral"
      },
      "registerPegIn((bytes20,address,address,bytes,address,bytes,uint256,uint256,address,bytes,uint32,int64,uint256,uint32,uint32,uint32,uint16,bool,uint256,uint256),bytes,bytes,bytes,uint256)": {
        "details": "Registers a peg-in transaction with the bridge and pays to the involved parties",
        "params": {
          "btcRawTransaction": "The peg-in transaction",
          "height": "The block that contains the peg-in transaction",
          "partialMerkleTree": "The merkle tree path that proves transaction inclusion",
          "quote": "The quote of the service",
          "signature": "The signature of the quote"
        },
        "returns": {
          "_0": "The total peg-in amount received from the bridge contract or an error code"
        }
      },
      "renounceOwnership()": {
        "details": "Leaves the contract without owner. It will not be possible to call `onlyOwner` functions. Can only be called by the current owner. NOTE: Renouncing ownership will leave the contract without an owner, thereby disabling any functionality that is only available to the owner."
      },
      "resign()": {
        "details": "Used to resign as a liquidity provider"
      },
      "transferOwnership(address)": {
        "details": "Transfers ownership of the contract to a new account (`newOwner`). Can only be called by the current owner."
      },
      "withdraw(uint256)": {
        "details": "Used to withdraw funds",
        "params": {
          "amount": "The amount to withdraw"
        }
      },
      "withdrawCollateral()": {
        "details": "Used to withdraw the locked collateral"
      }
    },
    "title": "Contract that assists with the Flyover protocol",
    "version": 1
  },
  "userdoc": {
    "kind": "user",
    "methods": {},
    "version": 1
  }
}