{
  "contractName": "LiquidityBridgeContract",
  "abi": [
    {
      "anonymous": false,
      "inputs": [
        {
          "indexed": false,
          "internalType": "address",
          "name": "dest",
          "type": "address"
        },
        {
          "indexed": false,
          "internalType": "uint256",
          "name": "amount",
          "type": "uint256"
        }
      ],
      "name": "BalanceDecrease",
      "type": "event"
    },
    {
      "anonymous": false,
      "inputs": [
        {
          "indexed": false,
          "internalType": "address",
          "name": "dest",
          "type": "address"
        },
        {
          "indexed": false,
          "internalType": "uint256",
          "name": "amount",
          "type": "uint256"
        }
      ],
      "name": "BalanceIncrease",
      "type": "event"
    },
    {
      "anonymous": false,
      "inputs": [
        {
          "indexed": false,
          "internalType": "bytes32",
          "name": "quoteHash",
          "type": "bytes32"
        },
        {
          "indexed": false,
          "internalType": "int256",
          "name": "errorCode",
          "type": "int256"
        }
      ],
      "name": "BridgeCapExceeded",
      "type": "event"
    },
    {
      "anonymous": false,
      "inputs": [
        {
          "indexed": true,
          "internalType": "address",
          "name": "from",
          "type": "address"
        },
        {
          "indexed": true,
          "internalType": "address",
          "name": "dest",
          "type": "address"
        },
        {
          "indexed": false,
          "internalType": "uint256",
          "name": "gasLimit",
          "type": "uint256"
        },
        {
          "indexed": false,
          "internalType": "uint256",
          "name": "value",
          "type": "uint256"
        },
        {
          "indexed": false,
          "internalType": "bytes",
          "name": "data",
          "type": "bytes"
        },
        {
          "indexed": false,
          "internalType": "bool",
          "name": "success",
          "type": "bool"
        },
        {
          "indexed": false,
          "internalType": "bytes32",
          "name": "quoteHash",
          "type": "bytes32"
        }
      ],
      "name": "CallForUser",
      "type": "event"
    },
    {
      "anonymous": false,
      "inputs": [
        {
          "indexed": false,
          "internalType": "address",
          "name": "from",
          "type": "address"
        },
        {
          "indexed": false,
          "internalType": "uint256",
          "name": "amount",
          "type": "uint256"
        }
      ],
      "name": "CollateralIncrease",
      "type": "event"
    },
    {
      "anonymous": false,
      "inputs": [
        {
          "indexed": false,
          "internalType": "address",
          "name": "from",
          "type": "address"
        },
        {
          "indexed": false,
          "internalType": "uint256",
          "name": "amount",
          "type": "uint256"
        }
      ],
      "name": "Deposit",
      "type": "event"
    },
    {
      "anonymous": false,
      "inputs": [
        {
          "indexed": false,
          "internalType": "uint8",
          "name": "version",
          "type": "uint8"
        }
      ],
      "name": "Initialized",
      "type": "event"
    },
    {
      "anonymous": false,
      "inputs": [
        {
          "indexed": true,
          "internalType": "address",
          "name": "previousOwner",
          "type": "address"
        },
        {
          "indexed": true,
          "internalType": "address",
          "name": "newOwner",
          "type": "address"
        }
      ],
      "name": "OwnershipTransferred",
      "type": "event"
    },
    {
      "anonymous": false,
      "inputs": [
        {
          "indexed": true,
          "internalType": "bytes32",
          "name": "quoteHash",
          "type": "bytes32"
        },
        {
          "indexed": false,
          "internalType": "int256",
          "name": "transferredAmount",
          "type": "int256"
        }
      ],
      "name": "PegInRegistered",
      "type": "event"
    },
    {
      "anonymous": false,
      "inputs": [
        {
          "indexed": false,
          "internalType": "address",
          "name": "from",
          "type": "address"
        },
        {
          "indexed": false,
          "internalType": "uint256",
          "name": "amount",
          "type": "uint256"
        },
        {
          "indexed": false,
          "internalType": "bytes32",
          "name": "quotehash",
          "type": "bytes32"
        },
        {
          "indexed": false,
          "internalType": "uint256",
          "name": "processed",
          "type": "uint256"
        }
      ],
      "name": "PegOut",
      "type": "event"
    },
    {
      "anonymous": false,
      "inputs": [
        {
          "indexed": true,
          "internalType": "bytes32",
          "name": "quoteHash",
          "type": "bytes32"
        },
        {
          "indexed": true,
          "internalType": "address",
          "name": "sender",
          "type": "address"
        },
        {
          "indexed": false,
          "internalType": "uint256",
          "name": "amount",
          "type": "uint256"
        },
        {
          "indexed": false,
          "internalType": "uint256",
          "name": "timestamp",
          "type": "uint256"
        }
      ],
      "name": "PegOutDeposit",
      "type": "event"
    },
    {
      "anonymous": false,
      "inputs": [
        {
          "indexed": true,
          "internalType": "bytes32",
          "name": "quoteHash",
          "type": "bytes32"
        }
      ],
      "name": "PegOutRefunded",
      "type": "event"
    },
    {
      "anonymous": false,
      "inputs": [
        {
          "indexed": true,
          "internalType": "bytes32",
          "name": "quoteHash",
          "type": "bytes32"
        },
        {
          "indexed": false,
          "internalType": "uint256",
          "name": "value",
          "type": "uint256"
        },
        {
          "indexed": false,
          "internalType": "address",
          "name": "userAddress",
          "type": "address"
        }
      ],
      "name": "PegOutUserRefunded",
      "type": "event"
    },
    {
      "anonymous": false,
      "inputs": [
        {
          "indexed": false,
          "internalType": "address",
          "name": "from",
          "type": "address"
        },
        {
          "indexed": false,
          "internalType": "uint256",
          "name": "amount",
          "type": "uint256"
        }
      ],
      "name": "PegoutCollateralIncrease",
      "type": "event"
    },
    {
      "anonymous": false,
      "inputs": [
        {
          "indexed": false,
          "internalType": "address",
          "name": "from",
          "type": "address"
        },
        {
          "indexed": false,
          "internalType": "uint256",
          "name": "amount",
          "type": "uint256"
        }
      ],
      "name": "PegoutWithdrawCollateral",
      "type": "event"
    },
    {
      "anonymous": false,
      "inputs": [
        {
          "indexed": false,
          "internalType": "address",
          "name": "liquidityProvider",
          "type": "address"
        },
        {
          "indexed": false,
          "internalType": "uint256",
          "name": "penalty",
          "type": "uint256"
        },
        {
          "indexed": false,
          "internalType": "bytes32",
          "name": "quoteHash",
          "type": "bytes32"
        }
      ],
      "name": "Penalized",
      "type": "event"
    },
    {
      "anonymous": false,
      "inputs": [
        {
          "indexed": false,
          "internalType": "address",
          "name": "dest",
          "type": "address"
        },
        {
          "indexed": false,
          "internalType": "uint256",
          "name": "amount",
          "type": "uint256"
        },
        {
          "indexed": false,
          "internalType": "bool",
          "name": "success",
          "type": "bool"
        },
        {
          "indexed": false,
          "internalType": "bytes32",
          "name": "quoteHash",
          "type": "bytes32"
        }
      ],
      "name": "Refund",
      "type": "event"
    },
    {
      "anonymous": false,
      "inputs": [
        {
          "indexed": false,
          "internalType": "uint256",
          "name": "id",
          "type": "uint256"
        },
        {
          "indexed": true,
          "internalType": "address",
          "name": "from",
          "type": "address"
        },
        {
          "indexed": false,
          "internalType": "uint256",
          "name": "amount",
          "type": "uint256"
        }
      ],
      "name": "Register",
      "type": "event"
    },
    {
      "anonymous": false,
      "inputs": [
        {
          "indexed": false,
          "internalType": "address",
          "name": "from",
          "type": "address"
        }
      ],
      "name": "Resigned",
      "type": "event"
    },
    {
      "anonymous": false,
      "inputs": [
        {
          "indexed": false,
          "internalType": "address",
          "name": "from",
          "type": "address"
        },
        {
          "indexed": false,
          "internalType": "uint256",
          "name": "amount",
          "type": "uint256"
        }
      ],
      "name": "WithdrawCollateral",
      "type": "event"
    },
    {
      "anonymous": false,
      "inputs": [
        {
          "indexed": false,
          "internalType": "address",
          "name": "from",
          "type": "address"
        },
        {
          "indexed": false,
          "internalType": "uint256",
          "name": "amount",
          "type": "uint256"
        }
      ],
      "name": "Withdrawal",
      "type": "event"
    },
    {
      "inputs": [],
      "name": "BRIDGE_GENERIC_ERROR",
      "outputs": [
        {
          "internalType": "int16",
          "name": "",
          "type": "int16"
        }
      ],
      "stateMutability": "view",
      "type": "function"
    },
    {
      "inputs": [],
      "name": "BRIDGE_REFUNDED_LP_ERROR_CODE",
      "outputs": [
        {
          "internalType": "int16",
          "name": "",
          "type": "int16"
        }
      ],
      "stateMutability": "view",
      "type": "function"
    },
    {
      "inputs": [],
      "name": "BRIDGE_REFUNDED_USER_ERROR_CODE",
      "outputs": [
        {
          "internalType": "int16",
          "name": "",
          "type": "int16"
        }
      ],
      "stateMutability": "view",
      "type": "function"
    },
    {
      "inputs": [],
      "name": "BRIDGE_UNPROCESSABLE_TX_ALREADY_PROCESSED_ERROR_CODE",
      "outputs": [
        {
          "internalType": "int16",
          "name": "",
          "type": "int16"
        }
      ],
      "stateMutability": "view",
      "type": "function"
    },
    {
      "inputs": [],
      "name": "BRIDGE_UNPROCESSABLE_TX_INVALID_SENDER_ERROR_CODE",
      "outputs": [
        {
          "internalType": "int16",
          "name": "",
          "type": "int16"
        }
      ],
      "stateMutability": "view",
      "type": "function"
    },
    {
      "inputs": [],
      "name": "BRIDGE_UNPROCESSABLE_TX_NOT_CONTRACT_ERROR_CODE",
      "outputs": [
        {
          "internalType": "int16",
          "name": "",
          "type": "int16"
        }
      ],
      "stateMutability": "view",
      "type": "function"
    },
    {
      "inputs": [],
      "name": "BRIDGE_UNPROCESSABLE_TX_UTXO_AMOUNT_SENT_BELOW_MINIMUM_ERROR",
      "outputs": [
        {
          "internalType": "int16",
          "name": "",
          "type": "int16"
        }
      ],
      "stateMutability": "view",
      "type": "function"
    },
    {
      "inputs": [],
      "name": "BRIDGE_UNPROCESSABLE_TX_VALIDATIONS_ERROR",
      "outputs": [
        {
          "internalType": "int16",
          "name": "",
          "type": "int16"
        }
      ],
      "stateMutability": "view",
      "type": "function"
    },
    {
      "inputs": [],
      "name": "BRIDGE_UNPROCESSABLE_TX_VALUE_ZERO_ERROR",
      "outputs": [
        {
          "internalType": "int16",
          "name": "",
          "type": "int16"
        }
      ],
      "stateMutability": "view",
      "type": "function"
    },
    {
      "inputs": [],
      "name": "CALL_DONE_CODE",
      "outputs": [
        {
          "internalType": "uint8",
          "name": "",
          "type": "uint8"
        }
      ],
      "stateMutability": "view",
      "type": "function"
    },
    {
      "inputs": [],
      "name": "MAX_CALL_GAS_COST",
      "outputs": [
        {
          "internalType": "uint16",
          "name": "",
          "type": "uint16"
        }
      ],
      "stateMutability": "view",
      "type": "function"
    },
    {
      "inputs": [],
      "name": "MAX_REFUND_GAS_LIMIT",
      "outputs": [
        {
          "internalType": "uint16",
          "name": "",
          "type": "uint16"
        }
      ],
      "stateMutability": "view",
      "type": "function"
    },
    {
      "inputs": [],
      "name": "MAX_UINT",
      "outputs": [
        {
          "internalType": "uint256",
          "name": "",
          "type": "uint256"
        }
      ],
      "stateMutability": "view",
      "type": "function"
    },
    {
      "inputs": [],
      "name": "PAY_TO_ADDRESS_OUTPUT",
      "outputs": [
        {
          "internalType": "uint256",
          "name": "",
          "type": "uint256"
        }
      ],
      "stateMutability": "view",
      "type": "function"
    },
    {
      "inputs": [],
      "name": "PROCESSED_QUOTE_CODE",
      "outputs": [
        {
          "internalType": "uint8",
          "name": "",
          "type": "uint8"
        }
      ],
      "stateMutability": "view",
      "type": "function"
    },
    {
      "inputs": [],
      "name": "QUOTE_HASH_OUTPUT",
      "outputs": [
        {
          "internalType": "uint256",
          "name": "",
          "type": "uint256"
        }
      ],
      "stateMutability": "view",
      "type": "function"
    },
    {
      "inputs": [],
      "name": "UNPROCESSED_QUOTE_CODE",
      "outputs": [
        {
          "internalType": "uint8",
          "name": "",
          "type": "uint8"
        }
      ],
      "stateMutability": "view",
      "type": "function"
    },
    {
      "inputs": [],
      "name": "bridge",
      "outputs": [
        {
          "internalType": "contract Bridge",
          "name": "",
          "type": "address"
        }
      ],
      "stateMutability": "view",
      "type": "function"
    },
    {
      "inputs": [],
      "name": "owner",
      "outputs": [
        {
          "internalType": "address",
          "name": "",
          "type": "address"
        }
      ],
      "stateMutability": "view",
      "type": "function"
    },
    {
      "inputs": [],
      "name": "providerId",
      "outputs": [
        {
          "internalType": "uint256",
          "name": "",
          "type": "uint256"
        }
      ],
      "stateMutability": "view",
      "type": "function"
    },
    {
      "inputs": [],
      "name": "renounceOwnership",
      "outputs": [],
      "stateMutability": "nonpayable",
      "type": "function"
    },
    {
      "inputs": [
        {
          "internalType": "address",
          "name": "newOwner",
          "type": "address"
        }
      ],
      "name": "transferOwnership",
      "outputs": [],
      "stateMutability": "nonpayable",
      "type": "function"
    },
    {
      "stateMutability": "payable",
      "type": "receive"
    },
    {
      "inputs": [
        {
          "internalType": "address payable",
          "name": "_bridgeAddress",
          "type": "address"
        },
        {
          "internalType": "uint256",
          "name": "_minimumCollateral",
          "type": "uint256"
        },
        {
          "internalType": "uint256",
          "name": "_minimumPegIn",
          "type": "uint256"
        },
        {
          "internalType": "uint32",
          "name": "_rewardPercentage",
          "type": "uint32"
        },
        {
          "internalType": "uint32",
          "name": "_resignDelayBlocks",
          "type": "uint32"
        },
        {
          "internalType": "uint256",
          "name": "_dustThreshold",
          "type": "uint256"
        },
        {
          "internalType": "uint256",
          "name": "_btcBlockTime",
          "type": "uint256"
        },
        {
          "internalType": "bool",
          "name": "_mainnet",
          "type": "bool"
        }
      ],
      "name": "initialize",
      "outputs": [],
      "stateMutability": "nonpayable",
      "type": "function"
    },
    {
      "inputs": [
        {
          "internalType": "uint256",
          "name": "_providerId",
          "type": "uint256"
        },
        {
          "internalType": "bool",
          "name": "status",
          "type": "bool"
        }
      ],
      "name": "setProviderStatus",
      "outputs": [],
      "stateMutability": "nonpayable",
      "type": "function"
    },
    {
      "inputs": [],
      "name": "getProviderIds",
      "outputs": [
        {
          "internalType": "uint256",
          "name": "",
          "type": "uint256"
        }
      ],
      "stateMutability": "view",
      "type": "function"
    },
    {
      "inputs": [],
      "name": "getBridgeAddress",
      "outputs": [
        {
          "internalType": "address",
          "name": "",
          "type": "address"
        }
      ],
      "stateMutability": "view",
      "type": "function"
    },
    {
      "inputs": [],
      "name": "getMinCollateral",
      "outputs": [
        {
          "internalType": "uint256",
          "name": "",
          "type": "uint256"
        }
      ],
      "stateMutability": "view",
      "type": "function"
    },
    {
      "inputs": [],
      "name": "getMinPegIn",
      "outputs": [
        {
          "internalType": "uint256",
          "name": "",
          "type": "uint256"
        }
      ],
      "stateMutability": "view",
      "type": "function"
    },
    {
      "inputs": [],
      "name": "getRewardPercentage",
      "outputs": [
        {
          "internalType": "uint256",
          "name": "",
          "type": "uint256"
        }
      ],
      "stateMutability": "view",
      "type": "function"
    },
    {
      "inputs": [],
      "name": "getResignDelayBlocks",
      "outputs": [
        {
          "internalType": "uint256",
          "name": "",
          "type": "uint256"
        }
      ],
      "stateMutability": "view",
      "type": "function"
    },
    {
      "inputs": [],
      "name": "getDustThreshold",
      "outputs": [
        {
          "internalType": "uint256",
          "name": "",
          "type": "uint256"
        }
      ],
      "stateMutability": "view",
      "type": "function"
    },
    {
      "inputs": [
        {
          "internalType": "bytes32",
          "name": "quoteHash",
          "type": "bytes32"
        }
      ],
      "name": "getRegisteredPegOutQuote",
      "outputs": [
        {
          "components": [
            {
              "internalType": "address",
              "name": "lbcAddress",
              "type": "address"
            },
            {
              "internalType": "address",
              "name": "lpRskAddress",
              "type": "address"
            },
            {
              "internalType": "bytes",
              "name": "btcRefundAddress",
              "type": "bytes"
            },
            {
              "internalType": "address",
              "name": "rskRefundAddress",
              "type": "address"
            },
            {
              "internalType": "bytes",
              "name": "lpBtcAddress",
              "type": "bytes"
            },
            {
              "internalType": "uint256",
              "name": "callFee",
              "type": "uint256"
            },
            {
              "internalType": "uint256",
              "name": "penaltyFee",
              "type": "uint256"
            },
            {
              "internalType": "int64",
              "name": "nonce",
              "type": "int64"
            },
            {
              "internalType": "bytes",
              "name": "deposityAddress",
              "type": "bytes"
            },
            {
              "internalType": "uint256",
              "name": "value",
              "type": "uint256"
            },
            {
              "internalType": "uint32",
              "name": "agreementTimestamp",
              "type": "uint32"
            },
            {
              "internalType": "uint32",
              "name": "depositDateLimit",
              "type": "uint32"
            },
            {
              "internalType": "uint16",
              "name": "depositConfirmations",
              "type": "uint16"
            },
            {
              "internalType": "uint16",
              "name": "transferConfirmations",
              "type": "uint16"
            },
            {
              "internalType": "uint32",
              "name": "transferTime",
              "type": "uint32"
            },
            {
              "internalType": "uint32",
              "name": "expireDate",
              "type": "uint32"
            },
            {
              "internalType": "uint32",
              "name": "expireBlock",
              "type": "uint32"
            }
          ],
          "internalType": "struct Quotes.PegOutQuote",
          "name": "",
          "type": "tuple"
        }
      ],
      "stateMutability": "view",
      "type": "function"
    },
    {
      "inputs": [
        {
          "internalType": "bytes32",
          "name": "quoteHash",
          "type": "bytes32"
        }
      ],
      "name": "isPegOutQuoteCompleted",
      "outputs": [
        {
          "internalType": "bool",
          "name": "",
          "type": "bool"
        }
      ],
      "stateMutability": "view",
      "type": "function"
    },
    {
      "inputs": [
        {
          "internalType": "address",
          "name": "addr",
          "type": "address"
        }
      ],
      "name": "isOperational",
      "outputs": [
        {
          "internalType": "bool",
          "name": "",
          "type": "bool"
        }
      ],
      "stateMutability": "view",
      "type": "function"
    },
    {
      "inputs": [
        {
          "internalType": "address",
          "name": "addr",
          "type": "address"
        }
      ],
      "name": "isOperationalForPegout",
      "outputs": [
        {
          "internalType": "bool",
          "name": "",
          "type": "bool"
        }
      ],
      "stateMutability": "view",
      "type": "function"
    },
    {
      "inputs": [
        {
          "internalType": "string",
          "name": "_name",
          "type": "string"
        },
        {
          "internalType": "string",
          "name": "_apiBaseUrl",
          "type": "string"
        },
        {
          "internalType": "bool",
          "name": "_status",
          "type": "bool"
        },
        {
          "internalType": "string",
          "name": "_providerType",
          "type": "string"
        }
      ],
      "name": "register",
      "outputs": [
        {
          "internalType": "uint256",
          "name": "",
          "type": "uint256"
        }
      ],
      "stateMutability": "payable",
      "type": "function"
    },
    {
      "inputs": [
        {
          "internalType": "uint256[]",
          "name": "providerIds",
          "type": "uint256[]"
        }
      ],
      "name": "getProviders",
      "outputs": [
        {
          "components": [
            {
              "internalType": "uint256",
              "name": "id",
              "type": "uint256"
            },
            {
              "internalType": "address",
              "name": "provider",
              "type": "address"
            },
            {
              "internalType": "string",
              "name": "name",
              "type": "string"
            },
            {
              "internalType": "string",
              "name": "apiBaseUrl",
              "type": "string"
            },
            {
              "internalType": "bool",
              "name": "status",
              "type": "bool"
            },
            {
              "internalType": "string",
              "name": "providerType",
              "type": "string"
            }
          ],
          "internalType": "struct LiquidityBridgeContract.LiquidityProvider[]",
          "name": "",
          "type": "tuple[]"
        }
      ],
      "stateMutability": "view",
      "type": "function"
    },
    {
      "inputs": [],
      "name": "addCollateral",
      "outputs": [],
      "stateMutability": "payable",
      "type": "function"
    },
    {
      "inputs": [],
      "name": "addPegoutCollateral",
      "outputs": [],
      "stateMutability": "payable",
      "type": "function"
    },
    {
      "inputs": [],
      "name": "deposit",
      "outputs": [],
      "stateMutability": "payable",
      "type": "function"
    },
    {
      "inputs": [
        {
          "internalType": "uint256",
          "name": "amount",
          "type": "uint256"
        }
      ],
      "name": "withdraw",
      "outputs": [],
      "stateMutability": "nonpayable",
      "type": "function"
    },
    {
      "inputs": [],
      "name": "withdrawCollateral",
      "outputs": [],
      "stateMutability": "nonpayable",
      "type": "function"
    },
    {
      "inputs": [],
      "name": "withdrawPegoutCollateral",
      "outputs": [],
      "stateMutability": "nonpayable",
      "type": "function"
    },
    {
      "inputs": [],
      "name": "resign",
      "outputs": [],
      "stateMutability": "nonpayable",
      "type": "function"
    },
    {
      "inputs": [
        {
          "internalType": "address",
          "name": "addr",
          "type": "address"
        }
      ],
      "name": "getCollateral",
      "outputs": [
        {
          "internalType": "uint256",
          "name": "",
          "type": "uint256"
        }
      ],
      "stateMutability": "view",
      "type": "function"
    },
    {
      "inputs": [
        {
          "internalType": "address",
          "name": "addr",
          "type": "address"
        }
      ],
      "name": "getPegoutCollateral",
      "outputs": [
        {
          "internalType": "uint256",
          "name": "",
          "type": "uint256"
        }
      ],
      "stateMutability": "view",
      "type": "function"
    },
    {
      "inputs": [
        {
          "internalType": "address",
          "name": "addr",
          "type": "address"
        }
      ],
      "name": "getBalance",
      "outputs": [
        {
          "internalType": "uint256",
          "name": "",
          "type": "uint256"
        }
      ],
      "stateMutability": "view",
      "type": "function"
    },
    {
      "inputs": [
        {
          "components": [
            {
              "internalType": "bytes20",
              "name": "fedBtcAddress",
              "type": "bytes20"
            },
            {
              "internalType": "address",
              "name": "lbcAddress",
              "type": "address"
            },
            {
              "internalType": "address",
              "name": "liquidityProviderRskAddress",
              "type": "address"
            },
            {
              "internalType": "bytes",
              "name": "btcRefundAddress",
              "type": "bytes"
            },
            {
              "internalType": "address payable",
              "name": "rskRefundAddress",
              "type": "address"
            },
            {
              "internalType": "bytes",
              "name": "liquidityProviderBtcAddress",
              "type": "bytes"
            },
            {
              "internalType": "uint256",
              "name": "callFee",
              "type": "uint256"
            },
            {
              "internalType": "uint256",
              "name": "penaltyFee",
              "type": "uint256"
            },
            {
              "internalType": "address",
              "name": "contractAddress",
              "type": "address"
            },
            {
              "internalType": "bytes",
              "name": "data",
              "type": "bytes"
            },
            {
              "internalType": "uint32",
              "name": "gasLimit",
              "type": "uint32"
            },
            {
              "internalType": "int64",
              "name": "nonce",
              "type": "int64"
            },
            {
              "internalType": "uint256",
              "name": "value",
              "type": "uint256"
            },
            {
              "internalType": "uint32",
              "name": "agreementTimestamp",
              "type": "uint32"
            },
            {
              "internalType": "uint32",
              "name": "timeForDeposit",
              "type": "uint32"
            },
            {
              "internalType": "uint32",
              "name": "callTime",
              "type": "uint32"
            },
            {
              "internalType": "uint16",
              "name": "depositConfirmations",
              "type": "uint16"
            },
            {
              "internalType": "bool",
              "name": "callOnRegister",
              "type": "bool"
            }
          ],
          "internalType": "struct Quotes.PeginQuote",
          "name": "quote",
          "type": "tuple"
        }
      ],
      "name": "callForUser",
      "outputs": [
        {
          "internalType": "bool",
          "name": "",
          "type": "bool"
        }
      ],
      "stateMutability": "payable",
      "type": "function"
    },
    {
      "inputs": [
        {
          "components": [
            {
              "internalType": "bytes20",
              "name": "fedBtcAddress",
              "type": "bytes20"
            },
            {
              "internalType": "address",
              "name": "lbcAddress",
              "type": "address"
            },
            {
              "internalType": "address",
              "name": "liquidityProviderRskAddress",
              "type": "address"
            },
            {
              "internalType": "bytes",
              "name": "btcRefundAddress",
              "type": "bytes"
            },
            {
              "internalType": "address payable",
              "name": "rskRefundAddress",
              "type": "address"
            },
            {
              "internalType": "bytes",
              "name": "liquidityProviderBtcAddress",
              "type": "bytes"
            },
            {
              "internalType": "uint256",
              "name": "callFee",
              "type": "uint256"
            },
            {
              "internalType": "uint256",
              "name": "penaltyFee",
              "type": "uint256"
            },
            {
              "internalType": "address",
              "name": "contractAddress",
              "type": "address"
            },
            {
              "internalType": "bytes",
              "name": "data",
              "type": "bytes"
            },
            {
              "internalType": "uint32",
              "name": "gasLimit",
              "type": "uint32"
            },
            {
              "internalType": "int64",
              "name": "nonce",
              "type": "int64"
            },
            {
              "internalType": "uint256",
              "name": "value",
              "type": "uint256"
            },
            {
              "internalType": "uint32",
              "name": "agreementTimestamp",
              "type": "uint32"
            },
            {
              "internalType": "uint32",
              "name": "timeForDeposit",
              "type": "uint32"
            },
            {
              "internalType": "uint32",
              "name": "callTime",
              "type": "uint32"
            },
            {
              "internalType": "uint16",
              "name": "depositConfirmations",
              "type": "uint16"
            },
            {
              "internalType": "bool",
              "name": "callOnRegister",
              "type": "bool"
            }
          ],
          "internalType": "struct Quotes.PeginQuote",
          "name": "quote",
          "type": "tuple"
        },
        {
          "internalType": "bytes",
          "name": "signature",
          "type": "bytes"
        },
        {
          "internalType": "bytes",
          "name": "btcRawTransaction",
          "type": "bytes"
        },
        {
          "internalType": "bytes",
          "name": "partialMerkleTree",
          "type": "bytes"
        },
        {
          "internalType": "uint256",
          "name": "height",
          "type": "uint256"
        }
      ],
      "name": "registerPegIn",
      "outputs": [
        {
          "internalType": "int256",
          "name": "",
          "type": "int256"
        }
      ],
      "stateMutability": "nonpayable",
      "type": "function"
    },
    {
      "inputs": [
        {
          "components": [
            {
              "internalType": "address",
              "name": "lbcAddress",
              "type": "address"
            },
            {
              "internalType": "address",
              "name": "lpRskAddress",
              "type": "address"
            },
            {
              "internalType": "bytes",
              "name": "btcRefundAddress",
              "type": "bytes"
            },
            {
              "internalType": "address",
              "name": "rskRefundAddress",
              "type": "address"
            },
            {
              "internalType": "bytes",
              "name": "lpBtcAddress",
              "type": "bytes"
            },
            {
              "internalType": "uint256",
              "name": "callFee",
              "type": "uint256"
            },
            {
              "internalType": "uint256",
              "name": "penaltyFee",
              "type": "uint256"
            },
            {
              "internalType": "int64",
              "name": "nonce",
              "type": "int64"
            },
            {
              "internalType": "bytes",
              "name": "deposityAddress",
              "type": "bytes"
            },
            {
              "internalType": "uint256",
              "name": "value",
              "type": "uint256"
            },
            {
              "internalType": "uint32",
              "name": "agreementTimestamp",
              "type": "uint32"
            },
            {
              "internalType": "uint32",
              "name": "depositDateLimit",
              "type": "uint32"
            },
            {
              "internalType": "uint16",
              "name": "depositConfirmations",
              "type": "uint16"
            },
            {
              "internalType": "uint16",
              "name": "transferConfirmations",
              "type": "uint16"
            },
            {
              "internalType": "uint32",
              "name": "transferTime",
              "type": "uint32"
            },
            {
              "internalType": "uint32",
              "name": "expireDate",
              "type": "uint32"
            },
            {
              "internalType": "uint32",
              "name": "expireBlock",
              "type": "uint32"
            }
          ],
          "internalType": "struct Quotes.PegOutQuote",
          "name": "quote",
          "type": "tuple"
        },
        {
          "internalType": "bytes",
          "name": "signature",
          "type": "bytes"
        }
      ],
      "name": "depositPegout",
      "outputs": [],
      "stateMutability": "payable",
      "type": "function"
    },
    {
      "inputs": [
        {
          "internalType": "bytes32",
          "name": "quoteHash",
          "type": "bytes32"
        }
      ],
      "name": "refundUserPegOut",
      "outputs": [],
      "stateMutability": "nonpayable",
      "type": "function"
    },
    {
      "inputs": [
        {
          "internalType": "bytes32",
          "name": "quoteHash",
          "type": "bytes32"
        },
        {
          "internalType": "bytes",
          "name": "btcTx",
          "type": "bytes"
        },
        {
          "internalType": "bytes32",
          "name": "btcBlockHeaderHash",
          "type": "bytes32"
        },
        {
          "internalType": "uint256",
          "name": "partialMerkleTree",
          "type": "uint256"
        },
        {
          "internalType": "bytes32[]",
          "name": "merkleBranchHashes",
          "type": "bytes32[]"
        }
      ],
      "name": "refundPegOut",
      "outputs": [],
      "stateMutability": "nonpayable",
      "type": "function"
    },
    {
      "inputs": [
        {
          "components": [
            {
              "internalType": "bytes20",
              "name": "fedBtcAddress",
              "type": "bytes20"
            },
            {
              "internalType": "address",
              "name": "lbcAddress",
              "type": "address"
            },
            {
              "internalType": "address",
              "name": "liquidityProviderRskAddress",
              "type": "address"
            },
            {
              "internalType": "bytes",
              "name": "btcRefundAddress",
              "type": "bytes"
            },
            {
              "internalType": "address payable",
              "name": "rskRefundAddress",
              "type": "address"
            },
            {
              "internalType": "bytes",
              "name": "liquidityProviderBtcAddress",
              "type": "bytes"
            },
            {
              "internalType": "uint256",
              "name": "callFee",
              "type": "uint256"
            },
            {
              "internalType": "uint256",
              "name": "penaltyFee",
              "type": "uint256"
            },
            {
              "internalType": "address",
              "name": "contractAddress",
              "type": "address"
            },
            {
              "internalType": "bytes",
              "name": "data",
              "type": "bytes"
            },
            {
              "internalType": "uint32",
              "name": "gasLimit",
              "type": "uint32"
            },
            {
              "internalType": "int64",
              "name": "nonce",
              "type": "int64"
            },
            {
              "internalType": "uint256",
              "name": "value",
              "type": "uint256"
            },
            {
              "internalType": "uint32",
              "name": "agreementTimestamp",
              "type": "uint32"
            },
            {
              "internalType": "uint32",
              "name": "timeForDeposit",
              "type": "uint32"
            },
            {
              "internalType": "uint32",
              "name": "callTime",
              "type": "uint32"
            },
            {
              "internalType": "uint16",
              "name": "depositConfirmations",
              "type": "uint16"
            },
            {
              "internalType": "bool",
              "name": "callOnRegister",
              "type": "bool"
            }
          ],
          "internalType": "struct Quotes.PeginQuote",
          "name": "quote",
          "type": "tuple"
        },
        {
          "internalType": "bytes",
          "name": "depositAddress",
          "type": "bytes"
        }
      ],
      "name": "validatePeginDepositAddress",
      "outputs": [
        {
          "internalType": "bool",
          "name": "",
          "type": "bool"
        }
      ],
      "stateMutability": "view",
      "type": "function"
    },
    {
      "inputs": [
        {
          "components": [
            {
              "internalType": "bytes20",
              "name": "fedBtcAddress",
              "type": "bytes20"
            },
            {
              "internalType": "address",
              "name": "lbcAddress",
              "type": "address"
            },
            {
              "internalType": "address",
              "name": "liquidityProviderRskAddress",
              "type": "address"
            },
            {
              "internalType": "bytes",
              "name": "btcRefundAddress",
              "type": "bytes"
            },
            {
              "internalType": "address payable",
              "name": "rskRefundAddress",
              "type": "address"
            },
            {
              "internalType": "bytes",
              "name": "liquidityProviderBtcAddress",
              "type": "bytes"
            },
            {
              "internalType": "uint256",
              "name": "callFee",
              "type": "uint256"
            },
            {
              "internalType": "uint256",
              "name": "penaltyFee",
              "type": "uint256"
            },
            {
              "internalType": "address",
              "name": "contractAddress",
              "type": "address"
            },
            {
              "internalType": "bytes",
              "name": "data",
              "type": "bytes"
            },
            {
              "internalType": "uint32",
              "name": "gasLimit",
              "type": "uint32"
            },
            {
              "internalType": "int64",
              "name": "nonce",
              "type": "int64"
            },
            {
              "internalType": "uint256",
              "name": "value",
              "type": "uint256"
            },
            {
              "internalType": "uint32",
              "name": "agreementTimestamp",
              "type": "uint32"
            },
            {
              "internalType": "uint32",
              "name": "timeForDeposit",
              "type": "uint32"
            },
            {
              "internalType": "uint32",
              "name": "callTime",
              "type": "uint32"
            },
            {
              "internalType": "uint16",
              "name": "depositConfirmations",
              "type": "uint16"
            },
            {
              "internalType": "bool",
              "name": "callOnRegister",
              "type": "bool"
            }
          ],
          "internalType": "struct Quotes.PeginQuote",
          "name": "quote",
          "type": "tuple"
        }
      ],
      "name": "hashQuote",
      "outputs": [
        {
          "internalType": "bytes32",
          "name": "",
          "type": "bytes32"
        }
      ],
      "stateMutability": "view",
      "type": "function"
    },
    {
      "inputs": [
        {
          "components": [
            {
              "internalType": "address",
              "name": "lbcAddress",
              "type": "address"
            },
            {
              "internalType": "address",
              "name": "lpRskAddress",
              "type": "address"
            },
            {
              "internalType": "bytes",
              "name": "btcRefundAddress",
              "type": "bytes"
            },
            {
              "internalType": "address",
              "name": "rskRefundAddress",
              "type": "address"
            },
            {
              "internalType": "bytes",
              "name": "lpBtcAddress",
              "type": "bytes"
            },
            {
              "internalType": "uint256",
              "name": "callFee",
              "type": "uint256"
            },
            {
              "internalType": "uint256",
              "name": "penaltyFee",
              "type": "uint256"
            },
            {
              "internalType": "int64",
              "name": "nonce",
              "type": "int64"
            },
            {
              "internalType": "bytes",
              "name": "deposityAddress",
              "type": "bytes"
            },
            {
              "internalType": "uint256",
              "name": "value",
              "type": "uint256"
            },
            {
              "internalType": "uint32",
              "name": "agreementTimestamp",
              "type": "uint32"
            },
            {
              "internalType": "uint32",
              "name": "depositDateLimit",
              "type": "uint32"
            },
            {
              "internalType": "uint16",
              "name": "depositConfirmations",
              "type": "uint16"
            },
            {
              "internalType": "uint16",
              "name": "transferConfirmations",
              "type": "uint16"
            },
            {
              "internalType": "uint32",
              "name": "transferTime",
              "type": "uint32"
            },
            {
              "internalType": "uint32",
              "name": "expireDate",
              "type": "uint32"
            },
            {
              "internalType": "uint32",
              "name": "expireBlock",
              "type": "uint32"
            }
          ],
          "internalType": "struct Quotes.PegOutQuote",
          "name": "quote",
          "type": "tuple"
        }
      ],
      "name": "hashPegoutQuote",
      "outputs": [
        {
          "internalType": "bytes32",
          "name": "",
          "type": "bytes32"
        }
      ],
      "stateMutability": "view",
      "type": "function"
    },
    {
      "inputs": [
        {
          "internalType": "bytes",
          "name": "header",
          "type": "bytes"
        }
      ],
      "name": "getBtcBlockTimestamp",
      "outputs": [
        {
          "internalType": "uint256",
          "name": "",
          "type": "uint256"
        }
      ],
      "stateMutability": "pure",
      "type": "function"
    }
  ],
  "bytecode": "0x608060405234801561001057600080fd5b50615eee80620000216000396000f3fe60806040526004361061027f5760003560e01c806304ade855146102d35780630a7bf57a146102ff5780630a9cb4a7146103145780631b032188146103335780632e1a7d4d1461035357806333f07ad31461037357806335510a7d14610388578063417055181461039d578063418663a2146103b05780634198687e146103da5780634533ac1c146103e2578063457385f2146104025780634d0ec9711461043257806354015ee01461045257806359c153be14610485578063668dbd831461049a57806369023235146104c757806369652fcf146104e75780636e2e8c70146104fc578063715018a61461051c57806372cbf4e8146105315780637b78837f146105515780638490a8df146105645780638d5979391461057a5780638da5cb5b146105915780638f91797d146105b35780639b56d6c9146105d35780639cd6557f146106095780639d79b59b1461061e5780639e81699914610647578063a0cd70fc1461064f578063a0d250371461066f578063a4a5ba501461068f578063a93bb247146106a4578063ac29d744146106bb578063ae76ce86146106ce578063ae93b67b146106e5578063bd519eff146106fc578063bd5798c314610732578063be6de4eb14610754578063c525cdd814610769578063c721316314610780578063cfb92f0a1461079b578063d0e30db0146107b2578063d6c70de8146107ba578063e1de16c6146107da578063e30e6ea3146107f0578063e5b5019a14610806578063e78cea921461081c578063e830b6901461083c578063e8fcce7114610851578063e90d2ddb14610867578063f2fde38b14610894578063f8b2cb4f146108b4578063fa88dcde146108ea578063fb32c508146108ff57600080fd5b366102ce576097546001600160a01b031633146102cc5760405162461bcd60e51b81526020600482015260066024820152654c424330303760d01b60448201526064015b60405180910390fd5b005b600080fd5b3480156102df57600080fd5b506102e8600181565b60405160ff90911681526020015b60405180910390f35b34801561030b57600080fd5b506102e8600281565b34801561032057600080fd5b5060a2545b6040519081526020016102f6565b34801561033f57600080fd5b5061032561034e366004614ae9565b61091d565b34801561035f57600080fd5b506102cc61036e366004614b1d565b61092e565b34801561037f57600080fd5b5060a154610325565b34801561039457600080fd5b506102cc610a26565b6103256103ab366004614b36565b610b54565b3480156103bc57600080fd5b506103c76101301981565b60405160019190910b81526020016102f6565b6102cc610eef565b3480156103ee57600080fd5b506102cc6103fd366004614bd2565b610f74565b34801561040e57600080fd5b5061042261041d366004614c53565b6111b3565b60405190151581526020016102f6565b34801561043e57600080fd5b5061042261044d366004614c53565b6111e9565b34801561045e57600080fd5b5061042261046d366004614b1d565b600090815260a7602052604090206001015460ff1690565b34801561049157600080fd5b506102cc61121f565b3480156104a657600080fd5b506104ba6104b5366004614c93565b61134d565b6040516102f69190614d80565b3480156104d357600080fd5b506103256104e2366004614fbd565b6116ce565b3480156104f357600080fd5b506102cc6116d9565b34801561050857600080fd5b50610325610517366004614ff1565b611784565b34801561052857600080fd5b506102cc611f6b565b34801561053d57600080fd5b506102cc61054c3660046150a5565b611f7f565b6102cc61055f3660046150d5565b612019565b34801561057057600080fd5b5061032560a25481565b34801561058657600080fd5b506103c761012c1981565b34801561059d57600080fd5b506105a661249f565b6040516102f69190615138565b3480156105bf57600080fd5b506102cc6105ce366004614b1d565b6124ae565b3480156105df57600080fd5b506103256105ee366004614c53565b6001600160a01b031660009081526099602052604090205490565b34801561061557600080fd5b506102e8600081565b34801561062a57600080fd5b506106346188b881565b60405161ffff90911681526020016102f6565b6102cc6127af565b34801561065b57600080fd5b5061032561066a36600461514c565b61282a565b34801561067b57600080fd5b5061042261068a366004615180565b61287d565b34801561069b57600080fd5b50610325600181565b3480156106b057600080fd5b506103c761012d1981565b6104226106c9366004614ae9565b6129e9565b3480156106da57600080fd5b506103c761012b1981565b3480156106f157600080fd5b506103c76103831981565b34801561070857600080fd5b50610325610717366004614c53565b6001600160a01b03166000908152609a602052604090205490565b34801561073e57600080fd5b5060a054600160201b900463ffffffff16610325565b34801561076057600080fd5b50610325600081565b34801561077557600080fd5b506103c761012e1981565b34801561078c57600080fd5b5060a05463ffffffff16610325565b3480156107a757600080fd5b506103c761012f1981565b6102cc612cfb565b3480156107c657600080fd5b506102cc6107d53660046151b6565b612d2a565b3480156107e657600080fd5b506106346108fc81565b3480156107fc57600080fd5b506103c760c71981565b34801561081257600080fd5b5061032560001981565b34801561082857600080fd5b506097546105a6906001600160a01b031681565b34801561084857600080fd5b50609e54610325565b34801561085d57600080fd5b506103c760631981565b34801561087357600080fd5b50610887610882366004614b1d565b6136f6565b6040516102f6919061528c565b3480156108a057600080fd5b506102cc6108af366004614c53565b613a21565b3480156108c057600080fd5b506103256108cf366004614c53565b6001600160a01b031660009081526098602052604090205490565b3480156108f657600080fd5b50609f54610325565b34801561090b57600080fd5b506097546001600160a01b03166105a6565b600061092882613a97565b92915050565b3360009081526098602052604090205481111561095d5760405162461bcd60e51b81526004016102c39061540b565b336000908152609860205260408120805483929061097c908490615441565b9091555050604051600090339083908381818185875af1925050503d80600081146109c3576040519150601f19603f3d011682016040523d82523d6000602084013e6109c8565b606091505b50509050806109e95760405162461bcd60e51b81526004016102c390615454565b7f7fcf532c15f0a6db0bd6d0e038bea71d30d808c7d98cb3bf7268a95bf5081b653383604051610a1a929190615474565b60405180910390a15050565b336000908152609d6020526040902054610a525760405162461bcd60e51b81526004016102c39061548d565b60a054336000908152609d6020526040902054600160201b90910463ffffffff1690610a7e9043615441565b1015610a9c5760405162461bcd60e51b81526004016102c3906154ad565b336000818152609a60209081526040808320805490849055609d9092528083208390555190929083908381818185875af1925050503d8060008114610afd576040519150601f19603f3d011682016040523d82523d6000602084013e610b02565b606091505b5050905080610b235760405162461bcd60e51b81526004016102c390615454565b7ffc72299650b405e7b0480ca8fb0fb3948fb10a77ac02f797cc9de1f4aaa55db73383604051610a1a929190615474565b6000323314610b8e5760405162461bcd60e51b81526020600482015260066024820152654c424330303360d01b60448201526064016102c3565b610b99858584613cff565b33600090815260996020526040902054158015610bc35750336000908152609a6020526040902054155b610bf85760405162461bcd60e51b815260206004820152600660248201526504c42433037360d41b60448201526064016102c3565b336000908152609d602052604090205415610c3e5760405162461bcd60e51b81526020600482015260066024820152654c424330303960d01b60448201526064016102c3565b604051602001610c4d906154cd565b6040516020818303038152906040528051906020012082604051602001610c7491906154de565b6040516020818303038152906040528051906020012003610cc857609e54341015610cb15760405162461bcd60e51b81526004016102c3906154fa565b336000908152609960205260409020349055610dcd565b604051602001610cd79061551a565b6040516020818303038152906040528051906020012082604051602001610cfe91906154de565b6040516020818303038152906040528051906020012003610d5257609e54341015610d3b5760405162461bcd60e51b81526004016102c3906154fa565b336000908152609a60205260409020349055610dcd565b609e54610d6090600261552c565b341015610d7f5760405162461bcd60e51b81526004016102c3906154fa565b6000610d8c600234615559565b9050610d9960023461556d565b15610dae57610da9816001615581565b610db0565b805b33600090815260996020908152604080832093909355609a905220555b60a28054906000610ddd83615594565b90915550506040805160c08101825260a2548082523360208084019182528385018a8152606085018a9052881515608086015260a085018890526000938452609b909152939091208251815590516001820180546001600160a01b0319166001600160a01b0390921691909117905591519091906002820190610e609082615635565b5060608201516003820190610e759082615635565b50608082015160048201805460ff191691151591909117905560a08201516005820190610ea29082615635565b505060a254604080519182523460208301523392507fa9d44d6e13bb3fee938c3f66d1103e91f8dc6b12d4405a55eea558e8f275aa6e910160405180910390a25060a2545b949350505050565b610ef833613ea6565b610f145760405162461bcd60e51b81526004016102c3906156f4565b336000908152609a602052604081208054349290610f33908490615581565b90915550506040517f873d5a2949567203ad4f0cceef41c2813c87b9a397ee777d87a8acdaec2c6fa990610f6a9033903490615474565b60405180910390a1565b600054610100900460ff1615808015610f945750600054600160ff909116105b80610fae5750303b158015610fae575060005460ff166001145b6110115760405162461bcd60e51b815260206004820152602e60248201527f496e697469616c697a61626c653a20636f6e747261637420697320616c72656160448201526d191e481a5b9a5d1a585b1a5e995960921b60648201526084016102c3565b6000805460ff191660011790558015611034576000805461ff0019166101001790555b60648663ffffffff1611156110745760405162461bcd60e51b8152602060048201526006602482015265131090cc0c0d60d21b60448201526064016102c3565b666a94d74f4300008810156110b45760405162461bcd60e51b8152602060048201526006602482015265262121981b9960d11b60448201526064016102c3565b603c8563ffffffff1610156110f45760405162461bcd60e51b81526020600482015260066024820152654c424330373360d01b60448201526064016102c3565b6110fc613ee5565b609780546001600160a01b038b166001600160a01b0319909116179055609e889055609f87905560a0805463ffffffff878116600160201b026001600160401b03199092169089161717905560a184905560a383905560a4805483151560ff1990911617905580156111a8576000805461ff0019169055604051600181527f7f26b83ff96e1f2b6a682f133852f6798a09c465da95921460cefb38474024989060200160405180910390a15b505050505050505050565b60006111be82613f59565b80156109285750609e546001600160a01b038316600090815260996020526040902054101592915050565b60006111f482613ea6565b80156109285750609e546001600160a01b0383166000908152609a6020526040902054101592915050565b336000908152609d602052604090205461124b5760405162461bcd60e51b81526004016102c39061548d565b60a054336000908152609d6020526040902054600160201b90910463ffffffff16906112779043615441565b10156112955760405162461bcd60e51b81526004016102c3906154ad565b336000818152609960209081526040808320805490849055609d9092528083208390555190929083908381818185875af1925050503d80600081146112f6576040519150601f19603f3d011682016040523d82523d6000602084013e6112fb565b606091505b505090508061131c5760405162461bcd60e51b81526004016102c390615454565b7fa8e76b822fc682be77f3b1c822ea81f6bda5aed92ba82e6873bfd889f328d1d23383604051610a1a929190615474565b6060600082516001600160401b0381111561136a5761136a6147a4565b6040519080825280602002602001820160405280156113df57816020015b6113cc6040518060c001604052806000815260200160006001600160a01b031681526020016060815260200160608152602001600015158152602001606081525090565b8152602001906001900390816113885790505b5090506000805b84518110156116c557600085828151811061140357611403615714565b6020908102919091018101516000818152609b909252604090912060010154909150611437906001600160a01b0316613f59565b8061146157506000818152609b6020526040902060010154611461906001600160a01b0316613ea6565b801561147e57506000818152609b602052604090206004015460ff165b156116b2576000818152609b6020908152604091829020825160c0810184528154815260018201546001600160a01b03169281019290925260028101805492939192918401916114cd906155ad565b80601f01602080910402602001604051908101604052809291908181526020018280546114f9906155ad565b80156115465780601f1061151b57610100808354040283529160200191611546565b820191906000526020600020905b81548152906001019060200180831161152957829003601f168201915b5050505050815260200160038201805461155f906155ad565b80601f016020809104026020016040519081016040528092919081815260200182805461158b906155ad565b80156115d85780601f106115ad576101008083540402835291602001916115d8565b820191906000526020600020905b8154815290600101906020018083116115bb57829003601f168201915b5050509183525050600482015460ff1615156020820152600582018054604090920191611604906155ad565b80601f0160208091040260200160405190810160405280929190818152602001828054611630906155ad565b801561167d5780601f106116525761010080835404028352916020019161167d565b820191906000526020600020905b81548152906001019060200180831161166057829003601f168201915b50505050508152505084848151811061169857611698615714565b602002602001018190525082806116ae90615594565b9350505b50806116bd81615594565b9150506113e6565b50909392505050565b600061092882613f98565b6116e233613f59565b6116fe5760405162461bcd60e51b81526004016102c3906156f4565b336000908152609d6020526040902054156117445760405162461bcd60e51b81526020600482015260066024820152654c424330323360d01b60448201526064016102c3565b336000818152609d602052604090819020439055517fa6674aa33cd1b7435474751667707bf05fde99e537d67043ec5f907782577d8691610f6a91615138565b600061178e614014565b600061179987613a97565b600081815260a56020526040902054909150600160ff90911611156117d05760405162461bcd60e51b81526004016102c39061572a565b60408088015190516301a86b5560e41b815273__SignatureValidator____________________91631a86b5509161180f919085908b9060040161574a565b602060405180830381865af415801561182c573d6000803e3d6000fd5b505050506040513d601f19601f820116820180604052508101906118509190615771565b61186c5760405162461bcd60e51b81526004016102c39061578e565b637fffffff83106118a85760405162461bcd60e51b815260206004820152600660248201526504c42433033360d41b60448201526064016102c3565b60006118b7888787878661406d565b905061012f81016118f35760405162461bcd60e51b81526020600482015260066024820152654c424330333160d01b60448201526064016102c3565b61012e810161192d5760405162461bcd60e51b815260206004820152600660248201526526212198199960d11b60448201526064016102c3565b61013081016119675760405162461bcd60e51b81526020600482015260066024820152654c424330333360d01b60448201526064016102c3565b61013181016119a15760405162461bcd60e51b8152602060048201526006602482015265131090cc0ccd60d21b60448201526064016102c3565b61038481016119db5760405162461bcd60e51b81526020600482015260066024820152654c424330333560d01b60448201526064016102c3565b60008113806119eb575060c71981145b806119f7575060631981145b611a2c5760405162461bcd60e51b815260206004820152600660248201526526212198199b60d11b60448201526064016102c3565b6000828152609c6020526040902054611a4f908990839063ffffffff168761413f565b15611b205760e08801516040808a01516001600160a01b031660009081526099602052908120549091611a81916143a0565b905080609960008b604001516001600160a01b03166001600160a01b031681526020019081526020016000206000828254611abc9190615441565b90915550506040808a01519051600080516020615e7983398151915291611ae691849087906157ae565b60405180910390a160a054600090606490611b079063ffffffff168461552c565b611b119190615559565b9050611b1d33826143b8565b50505b60c719811480611b31575060631981145b15611ba557600082815260a560209081526040808320805460ff19166002179055609c825291829020805464ffffffffff1916905581518481529081018390527ffb209329d5ab5b7bcb2e92f45f4534814b6e68fa5ad1f171dabc1d17d26f0ebe910160405180910390a19150611f589050565b60405162e7a37960e21b8152819073__Quotes________________________________9063039e8de490611bdf908c908590600401615923565b60006040518083038186803b158015611bf757600080fd5b505af4158015611c0b573d6000803e3d6000fd5b5050506000848152609c602052604090205463ffffffff16159050611d4c576000838152609c6020526040812054600160201b900460ff1615611c6d57611c66828b60c001518c6101800151611c619190615581565b6143a0565b9050611c7e565b611c7b828b60c001516143a0565b90505b611c8c8a60400151826143b8565b6000611c988284615441565b905060a154811115611d455760808b01516040516000916001600160a01b0316906108fc90849084818181858888f193505050503d8060008114611cf8576040519150601f19603f3d011682016040523d82523d6000602084013e611cfd565b606091505b50509050600080516020615e598339815191528c60800151838389604051611d289493929190615945565b60405180910390a180611d4357611d438c60400151836143b8565b505b5050611ef1565b61022089015181908015611d6557508961018001518110155b15611e575760008a61010001516001600160a01b03168b610140015163ffffffff168c61018001518d6101200151604051611da091906154de565b600060405180830381858888f193505050503d8060008114611dde576040519150601f19603f3d011682016040523d82523d6000602084013e611de3565b606091505b505090508a61010001516001600160a01b0316336001600160a01b0316600080516020615e998339815191528d61014001518e61018001518f6101200151868b604051611e3495949392919061596d565b60405180910390a38015611e55576101808b0151611e529083615441565b91505b505b60a154811115611eef5760808a01516040516000916001600160a01b0316906108fc90849084818181858888f193505050503d8060008114611eb5576040519150601f19603f3d011682016040523d82523d6000602084013e611eba565b606091505b50509050600080516020615e598339815191528b60800151838388604051611ee59493929190615945565b60405180910390a1505b505b600083815260a560209081526040808320805460ff19166002179055609c825291829020805464ffffffffff19169055905183815284917f0629ae9d1dc61501b0ca90670a9a9b88daaf7504b54537b53e1219de794c63d2910160405180910390a2509150505b611f626001606555565b95945050505050565b611f73614417565b611f7d6000614476565b565b81611f8861249f565b6001600160a01b0316336001600160a01b03161480611fc057506000818152609b60205260409020600101546001600160a01b031633145b611ff55760405162461bcd60e51b81526020600482015260066024820152654c424330303560d01b60448201526064016102c3565b506000918252609b6020526040909120600401805460ff1916911515919091179055565b6120268260200151613ea6565b61205b5760405162461bcd60e51b81526020600482015260066024820152654c424330333760d01b60448201526064016102c3565b348260a001518361012001516120719190615581565b11156120a85760405162461bcd60e51b81526020600482015260066024820152654c424330363360d01b60448201526064016102c3565b81610160015163ffffffff164211156120ec5760405162461bcd60e51b81526020600482015260066024820152654c424330363560d01b60448201526064016102c3565b816101e0015163ffffffff164211156121305760405162461bcd60e51b8152602060048201526006602482015265262121981a1b60d11b60448201526064016102c3565b81610200015163ffffffff164311156121745760405162461bcd60e51b81526020600482015260066024820152654c424330343760d01b60448201526064016102c3565b600061217f836116ce565b60208401516040516301a86b5560e41b815291925073__SignatureValidator____________________91631a86b550916121c0918590879060040161574a565b602060405180830381865af41580156121dd573d6000803e3d6000fd5b505050506040513d601f19601f820116820180604052508101906122019190615771565b61221d5760405162461bcd60e51b81526004016102c39061578e565b600081815260a66020908152604080832060a79092529091206001015460ff161561225a5760405162461bcd60e51b81526004016102c3906159a6565b80546001600160a01b0316156122825760405162461bcd60e51b81526004016102c39061572a565b600082815260a66020908152604091829020865181546001600160a01b03199081166001600160a01b03928316178355928801516001830180549094169116179091559085015185919060028201906122db9082615635565b5060608201516003820180546001600160a01b0319166001600160a01b03909216919091179055608082015160048201906123169082615635565b5060a0820151600582015560c0820151600682015560e08201516007820180546001600160401b0319166001600160401b0390921691909117905561010082015160088201906123669082615635565b506101208201516009820155610140820151600a90910180546101608401516101808501516101a08601516101c08701516101e08801516102009098015163ffffffff9788166001600160401b031990961695909517600160201b948816949094029390931763ffffffff60401b1916600160401b61ffff9384160261ffff60501b191617600160501b929091169190910217600160601b600160a01b031916600160601b9185169190910263ffffffff60801b191617600160801b948416949094029390931763ffffffff60a01b1916600160a01b9290931691909102919091179055600082815260a760209081526040918290204290819055825134815291820152339184917fb1bc7bfc0dab19777eb03aa0a5643378fc9f186c8fc5a36620d21136fbea570f910160405180910390a350505050565b6033546001600160a01b031690565b6124b6614014565b600081815260a66020526040902080546001600160a01b03166124eb5760405162461bcd60e51b81526004016102c3906159c6565b600a810154600160801b900463ffffffff164211801561251b5750600a810154600160a01b900463ffffffff1643115b6125505760405162461bcd60e51b81526020600482015260066024820152654c424330343160d01b60448201526064016102c3565b6000816005015482600901546125669190615581565b6003830154600684015460018501546001600160a01b039081166000908152609a602052604081205494955092169261259f91906143a0565b60018501546001600160a01b03166000908152609a60205260408120805492935083929091906125d0908490615441565b90915550506001840154604051600080516020615e7983398151915291612606916001600160a01b0390911690849089906157ae565b60405180910390a16003840154604080518581526001600160a01b03909216602083015286917f9ccbeffc442024e2a6ade18ff0978af9a4c4d6562ae38adb51ccf8256cf42b41910160405180910390a2600085815260a66020526040812080546001600160a01b0319908116825560018201805490911690559061268e6002830182614756565b6003820180546001600160a01b03191690556126ae600483016000614756565b600060058301819055600683018190556007830180546001600160401b03191690556126de906008840190614756565b50600060098201819055600a90910180546001600160c01b031916905585815260a760205260408082206001908101805460ff19169091179055516001600160a01b0384169085908381818185875af1925050503d806000811461275e576040519150601f19603f3d011682016040523d82523d6000602084013e612763565b606091505b505090508061279d5760405162461bcd60e51b8152602060048201526006602482015265131090cc0d0d60d21b60448201526064016102c3565b50505050506127ac6001606555565b50565b6127b833613f59565b6127d45760405162461bcd60e51b81526004016102c3906156f4565b33600090815260996020526040812080543492906127f3908490615581565b90915550506040517f456e0f4ea86ac283092c750200e8c877f6ad8901ae575f90e02081acd455af8490610f6a9033903490615474565b600081516050146128665760405162461bcd60e51b81526020600482015260066024820152654c424330363160d01b60448201526064016102c3565b6128718260446144c8565b63ffffffff1692915050565b6000806128898461091d565b8460600151856020015160601b8660a001516040516020016128ae94939291906159e6565b604051602081830303815290604052805190602001209050600081609760009054906101000a90046001600160a01b03166001600160a01b0316631d73d5dd6040518163ffffffff1660e01b8152600401600060405180830381865afa15801561291c573d6000803e3d6000fd5b505050506040513d6000823e601f3d908101601f191682016040526129449190810190615a78565b604051602001612955929190615aac565b60408051601f198184030181529082905260a454639b02794b60e01b835290925073__BtcUtils______________________________91639b02794b916129a8918891869160ff90911690600401615ae6565b602060405180830381865af41580156129c5573d6000803e3d6000fd5b505050506040513d601f19601f82011682018060405250810190611f629190615771565b60006129f433613f59565b612a105760405162461bcd60e51b81526004016102c3906156f4565b612a18614014565b81604001516001600160a01b0316336001600160a01b031614612a665760405162461bcd60e51b8152602060048201526006602482015265131090cc0c8d60d21b60448201526064016102c3565b6101808201516040808401516001600160a01b0316600090815260986020522054612a92903490615581565b1015612ab05760405162461bcd60e51b81526004016102c39061540b565b6000612abb83613a97565b600081815260a5602052604090205490915060ff1615612b065760405162461bcd60e51b81526020600482015260066024820152654c424330323560d01b60448201526064016102c3565b612b148360400151346143b8565b610140830151612b27906188b890615b1e565b63ffffffff165a1015612b655760405162461bcd60e51b815260206004820152600660248201526526212198191b60d11b60448201526064016102c3565b60008361010001516001600160a01b031684610140015163ffffffff16856101800151866101200151604051612b9b91906154de565b600060405180830381858888f193505050503d8060008114612bd9576040519150601f19603f3d011682016040523d82523d6000602084013e612bde565b606091505b509091505063ffffffff421115612c205760405162461bcd60e51b81526020600482015260066024820152654c424330323760d01b60448201526064016102c3565b6000828152609c60205260409020805463ffffffff19164263ffffffff161790558015612c7b576000828152609c602052604090819020805460ff60201b1916600160201b179055840151610180850151612c7b91906145b2565b8361010001516001600160a01b0316336001600160a01b0316600080516020615e998339815191528661014001518761018001518861012001518688604051612cc895949392919061596d565b60405180910390a3600091825260a56020526040909120805460ff191660011790559050612cf66001606555565b919050565b612d0433613f59565b612d205760405162461bcd60e51b81526004016102c3906156f4565b611f7d33346143b8565b612d32614014565b612d3b33613ea6565b612d575760405162461bcd60e51b81526004016102c3906156f4565b600085815260a7602052604090206001015460ff1615612d895760405162461bcd60e51b81526004016102c3906159a6565b600085815260a66020526040902080546001600160a01b0316612dbe5760405162461bcd60e51b81526004016102c3906159c6565b60405162f5b49160e01b815260009073__BtcUtils______________________________9062f5b49190612df6908990600401615b42565b600060405180830381865af4158015612e13573d6000803e3d6000fd5b505050506040513d6000823e601f3d908101601f19168201604052612e3b9190810190615b55565b9050600073__BtcUtils______________________________632d56f32383600181518110612e6c57612e6c615714565b6020026020010151602001516040518263ffffffff1660e01b8152600401612e949190615b42565b600060405180830381865af4158015612eb1573d6000803e3d6000fd5b505050506040513d6000823e601f3d908101601f19168201604052612ed99190810190615a78565b806020019051810190612eec9190615c68565b9050808814612f265760405162461bcd60e51b81526020600482015260066024820152654c424330363960d01b60448201526064016102c3565b60018301546001600160a01b03163314612f6b5760405162461bcd60e51b815260206004820152600660248201526509884866068760d31b60448201526064016102c3565b600a83015460975460405163fea8ba6360e01b8152600160501b90920461ffff16916001600160a01b0390911690635b6445879073__BtcUtils______________________________9063fea8ba6390612fc9908d90600401615b42565b602060405180830381865af4158015612fe6573d6000803e3d6000fd5b505050506040513d601f19601f8201168201806040525081019061300a9190615c68565b8989896040518563ffffffff1660e01b815260040161302c9493929190615c81565b602060405180830381865afa158015613049573d6000803e3d6000fd5b505050506040513d601f19601f8201168201806040525081019061306d9190615c68565b12156130a45760405162461bcd60e51b81526020600482015260066024820152654c424330343960d01b60448201526064016102c3565b816000815181106130b7576130b7615714565b6020026020010151600001516402540be4006130d39190615cdd565b6001600160401b0316836009015411156131185760405162461bcd60e51b81526020600482015260066024820152654c424330363760d01b60448201526064016102c3565b600073__BtcUtils______________________________634c03fe598460008151811061314757613147615714565b602090810291909101810151015160a4546040516001600160e01b031960e085901b16815261317d929160ff1690600401615d08565b600060405180830381865af415801561319a573d6000803e3d6000fd5b505050506040513d6000823e601f3d908101601f191682016040526131c29190810190615a78565b90508080519060200120846008016040516131dd9190615d2c565b60405180910390201461321b5760405162461bcd60e51b81526020600482015260066024820152650988486606c760d31b60448201526064016102c3565b604080516102208101825285546001600160a01b03908116825260018701541660208201526002860180546134b693889290840191613259906155ad565b80601f0160208091040260200160405190810160405280929190818152602001828054613285906155ad565b80156132d25780601f106132a7576101008083540402835291602001916132d2565b820191906000526020600020905b8154815290600101906020018083116132b557829003601f168201915b505050918352505060038201546001600160a01b03166020820152600482018054604090920191613302906155ad565b80601f016020809104026020016040519081016040528092919081815260200182805461332e906155ad565b801561337b5780601f106133505761010080835404028352916020019161337b565b820191906000526020600020905b81548152906001019060200180831161335e57829003601f168201915b50505091835250506005820154602082015260068201546040820152600780830154900b60608201526008820180546080909201916133b9906155ad565b80601f01602080910402602001604051908101604052809291908181526020018280546133e5906155ad565b80156134325780601f1061340757610100808354040283529160200191613432565b820191906000526020600020905b81548152906001019060200180831161341557829003601f168201915b505050918352505060098201546020820152600a9091015463ffffffff8082166040840152600160201b82048116606084015261ffff600160401b830481166080850152600160501b83041660a0840152600160601b8204811660c0840152600160801b8204811660e0840152600160a01b90910416610100909101528389614611565b1561355957600684015460018501546001600160a01b03166000908152609a602052604081205490916134e8916143a0565b60018601546001600160a01b03166000908152609a6020526040812080549293508392909190613519908490615441565b90915550506001850154604051600080516020615e798339815191529161354f916001600160a01b0390911690849087906157ae565b60405180910390a1505b6001840154600585015460098601546000926001600160a01b03169161357e91615581565b604051600081818185875af1925050503d80600081146135ba576040519150601f19603f3d011682016040523d82523d6000602084013e6135bf565b606091505b50509050806135f95760405162461bcd60e51b815260206004820152600660248201526504c42433035360d41b60448201526064016102c3565b600083815260a66020526040812080546001600160a01b031990811682556001820180549091169055906136306002830182614756565b6003820180546001600160a01b0319169055613650600483016000614756565b600060058301819055600683018190556007830180546001600160401b0319169055613680906008840190614756565b50600060098201819055600a90910180546001600160c01b031916905583815260a760205260408082206001908101805460ff191690911790555184917fb781856ec73fd0dc39351043d1634ea22cd3277b0866ab93e7ec1801766bb38491a250505050506136ef6001606555565b5050505050565b6040805161022080820183526000808352602080840182905260608486018190528085018390526080850181905260a0850183905260c0850183905260e0850183905261010085015261012084018290526101408401829052610160840182905261018084018290526101a084018290526101c084018290526101e08401829052610200840182905285825260a68152908490208451928301855280546001600160a01b039081168452600182015416918301919091526002810180549394929391928401916137c5906155ad565b80601f01602080910402602001604051908101604052809291908181526020018280546137f1906155ad565b801561383e5780601f106138135761010080835404028352916020019161383e565b820191906000526020600020905b81548152906001019060200180831161382157829003601f168201915b505050918352505060038201546001600160a01b0316602082015260048201805460409092019161386e906155ad565b80601f016020809104026020016040519081016040528092919081815260200182805461389a906155ad565b80156138e75780601f106138bc576101008083540402835291602001916138e7565b820191906000526020600020905b8154815290600101906020018083116138ca57829003601f168201915b50505091835250506005820154602082015260068201546040820152600780830154900b6060820152600882018054608090920191613925906155ad565b80601f0160208091040260200160405190810160405280929190818152602001828054613951906155ad565b801561399e5780601f106139735761010080835404028352916020019161399e565b820191906000526020600020905b81548152906001019060200180831161398157829003601f168201915b505050918352505060098201546020820152600a9091015463ffffffff8082166040840152600160201b82048116606084015261ffff600160401b830481166080850152600160501b83041660a0840152600160601b8204811660c0840152600160801b8204811660e0840152600160a01b909104166101009091015292915050565b613a29614417565b6001600160a01b038116613a8e5760405162461bcd60e51b815260206004820152602660248201527f4f776e61626c653a206e6577206f776e657220697320746865207a65726f206160448201526564647265737360d01b60648201526084016102c3565b6127ac81614476565b600081602001516001600160a01b0316306001600160a01b031614613ae75760405162461bcd60e51b81526020600482015260066024820152654c424330353160d01b60448201526064016102c3565b6101008201516097546001600160a01b03918216911603613b335760405162461bcd60e51b8152602060048201526006602482015265262121981a9960d11b60448201526064016102c3565b81606001515160151480613b4c57508160600151516021145b613b815760405162461bcd60e51b81526020600482015260066024820152654c424330353360d01b60448201526064016102c3565b8160a0015151601514613bbf5760405162461bcd60e51b8152602060048201526006602482015265131090cc0d4d60d21b60448201526064016102c3565b609f548260c00151836101800151613bd79190615581565b1015613c0e5760405162461bcd60e51b81526020600482015260066024820152654c424330353560d01b60448201526064016102c3565b816101c0015163ffffffff16826101a0015163ffffffff16613c309190615da2565b6001600160401b031663ffffffff1015613c755760405162461bcd60e51b81526020600482015260066024820152654c424330373160d01b60448201526064016102c3565b604051630fdeb30b60e21b815273__Quotes________________________________90633f7acc2c90613cac908590600401615dc2565b600060405180830381865af4158015613cc9573d6000803e3d6000fd5b505050506040513d6000823e601f3d908101601f19168201604052613cf19190810190615a78565b805190602001209050919050565b6000835111613d395760405162461bcd60e51b815260206004820152600660248201526504c42433031360d41b60448201526064016102c3565b6000825111613d735760405162461bcd60e51b81526020600482015260066024820152654c424330313760d01b60448201526064016102c3565b604051602001613d82906154cd565b6040516020818303038152906040528051906020012081604051602001613da991906154de565b604051602081830303815290604052805190602001201480613e145750604051602001613dd59061551a565b6040516020818303038152906040528051906020012081604051602001613dfc91906154de565b60405160208183030381529060405280519060200120145b80613e6c5750604051630c4dee8d60e31b60208201526024016040516020818303038152906040528051906020012081604051602001613e5491906154de565b60405160208183030381529060405280519060200120145b613ea15760405162461bcd60e51b815260206004820152600660248201526509884866062760d31b60448201526064016102c3565b505050565b6001600160a01b0381166000908152609a6020526040812054158015906109285750506001600160a01b03166000908152609d60205260409020541590565b600054610100900460ff16613f505760405162461bcd60e51b815260206004820152602b60248201527f496e697469616c697a61626c653a20636f6e7472616374206973206e6f74206960448201526a6e697469616c697a696e6760a81b60648201526084016102c3565b611f7d33614476565b6001600160a01b038116600090815260996020526040812054158015906109285750506001600160a01b03166000908152609d60205260409020541590565b80516000906001600160a01b03163014613fdd5760405162461bcd60e51b8152602060048201526006602482015265262121981a9b60d11b60448201526064016102c3565b60405163fb19b88b60e01b815273__Quotes________________________________9063fb19b88b90613cac90859060040161528c565b6002606554036140665760405162461bcd60e51b815260206004820152601f60248201527f5265656e7472616e637947756172643a207265656e7472616e742063616c6c0060448201526064016102c3565b6002606555565b609754606086015160a08701516000848152609c602052604081205490936001600160a01b031692636adc013392899288928a92899230919063ffffffff16158015906140cf575060008b8152609c6020526040902054600160201b900460ff165b6040518963ffffffff1660e01b81526004016140f2989796959493929190615dd5565b6020604051808303816000875af1158015614111573d6000803e3d6000fd5b505050506040513d601f19601f820116820180604052508101906141359190615c68565b9695505050505050565b6000808413801561416357508460c001518561018001516141609190615581565b84105b1561417057506000610ee7565b60975460405163bd0c1fff60e01b8152600481018490526000916001600160a01b03169063bd0c1fff90602401600060405180830381865afa1580156141ba573d6000803e3d6000fd5b505050506040513d6000823e601f3d908101601f191682016040526141e29190810190615a78565b9050600081511161422c5760405162461bcd60e51b8152602060048201526014602482015273125b9d985b1a5908189b1bd8dac81a195a59da1d60621b60448201526064016102c3565b60006142378261282a565b90506000876101c00151886101a001516142519190615b1e565b63ffffffff1690508082111561426d5760009350505050610ee7565b856000036142815760019350505050610ee7565b6097546102008901516000916001600160a01b03169063bd0c1fff906001906142ae9061ffff168a615581565b6142b89190615441565b6040518263ffffffff1660e01b81526004016142d691815260200190565b600060405180830381865afa1580156142f3573d6000803e3d6000fd5b505050506040513d6000823e601f3d908101601f1916820160405261431b9190810190615a78565b905060008151116143575760405162461bcd60e51b81526020600482015260066024820152650988486606a760d31b60448201526064016102c3565b60006143628261282a565b9050896101e0015163ffffffff168161437b9190615581565b88111561439057600195505050505050610ee7565b5060009998505050505050505050565b60008183106143af57816143b1565b825b9392505050565b6001600160a01b038216600090815260986020526040812080548392906143e0908490615581565b90915550506040517f42cfb81a915ac5a674852db250bf722637bee705a267633b68cab3a2dde06f5390610a1a9084908490615474565b3361442061249f565b6001600160a01b031614611f7d5760405162461bcd60e51b815260206004820181905260248201527f4f776e61626c653a2063616c6c6572206973206e6f7420746865206f776e657260448201526064016102c3565b603380546001600160a01b038381166001600160a01b0319831681179093556040519116919082907f8be0079c531659141344cd1fd0a4f28419497f9722a3daafe3b4186f6b6457e090600090a35050565b60006144d5826004615581565b8351101561450e5760405162461bcd60e51b8152602060048201526006602482015265262121981b1960d11b60448201526064016102c3565b60188361451c846003615581565b8151811061452c5761452c615714565b016020015160f81c901b601084614544856002615581565b8151811061455457614554615714565b016020015160f81c901b60088561456c866001615581565b8151811061457c5761457c615714565b0160200151865160f89190911c90911b9086908690811061459f5761459f615714565b016020015160f81c171717905092915050565b6001600160a01b038216600090815260986020526040812080548392906145da908490615441565b90915550506040517f8e51a4493a6f66c76e13fd9e3b754eafbfe21343c04508deb61be8ccc006458790610a1a9084908490615474565b6097546040516339cf1b2560e11b81526004810183905260009182916001600160a01b039091169063739e364a90602401600060405180830381865afa15801561465f573d6000803e3d6000fd5b505050506040513d6000823e601f3d908101601f191682016040526146879190810190615a78565b905060008151116146c35760405162461bcd60e51b81526020600482015260066024820152654c424330353960d01b60448201526064016102c3565b60006146ce8261282a565b60a3546101c0880151600088815260a7602052604090205492935090916146fb9163ffffffff1690615581565b6147059190615581565b811115614717576001925050506143b1565b856101e0015163ffffffff1642118061473a575085610200015163ffffffff1643115b1561474a576001925050506143b1565b50600095945050505050565b508054614762906155ad565b6000825580601f10614772575050565b601f0160209004906000526020600020908101906127ac91905b808211156147a0576000815560010161478c565b5090565b634e487b7160e01b600052604160045260246000fd5b60405161024081016001600160401b03811182821017156147dd576147dd6147a4565b60405290565b60405161022081016001600160401b03811182821017156147dd576147dd6147a4565b604051608081016001600160401b03811182821017156147dd576147dd6147a4565b604051601f8201601f191681016001600160401b0381118282101715614850576148506147a4565b604052919050565b80356001600160601b031981168114612cf657600080fd5b6001600160a01b03811681146127ac57600080fd5b8035612cf681614870565b60006001600160401b038211156148a9576148a96147a4565b50601f01601f191660200190565b600082601f8301126148c857600080fd5b81356148db6148d682614890565b614828565b8181528460208386010111156148f057600080fd5b816020850160208301376000918101602001919091529392505050565b803563ffffffff81168114612cf657600080fd5b8035600781900b8114612cf657600080fd5b803561ffff81168114612cf657600080fd5b80151581146127ac57600080fd5b8035612cf681614945565b6000610240828403121561497157600080fd5b6149796147ba565b905061498482614858565b815261499260208301614885565b60208201526149a360408301614885565b604082015260608201356001600160401b03808211156149c257600080fd5b6149ce858386016148b7565b60608401526149df60808501614885565b608084015260a08401359150808211156149f857600080fd5b614a04858386016148b7565b60a084015260c084013560c084015260e084013560e08401526101009150614a2d828501614885565b8284015261012091508184013581811115614a4757600080fd5b614a53868287016148b7565b83850152505050610140614a6881840161490d565b90820152610160614a7a838201614921565b9082015261018082810135908201526101a0614a9781840161490d565b908201526101c0614aa983820161490d565b908201526101e0614abb83820161490d565b90820152610200614acd838201614933565b90820152610220614adf838201614953565b9082015292915050565b600060208284031215614afb57600080fd5b81356001600160401b03811115614b1157600080fd5b610ee78482850161495e565b600060208284031215614b2f57600080fd5b5035919050565b60008060008060808587031215614b4c57600080fd5b84356001600160401b0380821115614b6357600080fd5b614b6f888389016148b7565b95506020870135915080821115614b8557600080fd5b614b91888389016148b7565b945060408701359150614ba382614945565b90925060608601359080821115614bb957600080fd5b50614bc6878288016148b7565b91505092959194509250565b600080600080600080600080610100898b031215614bef57600080fd5b8835614bfa81614870565b97506020890135965060408901359550614c1660608a0161490d565b9450614c2460808a0161490d565b935060a0890135925060c0890135915060e0890135614c4281614945565b809150509295985092959890939650565b600060208284031215614c6557600080fd5b81356143b181614870565b60006001600160401b03821115614c8957614c896147a4565b5060051b60200190565b60006020808385031215614ca657600080fd5b82356001600160401b03811115614cbc57600080fd5b8301601f81018513614ccd57600080fd5b8035614cdb6148d682614c70565b81815260059190911b82018301908381019087831115614cfa57600080fd5b928401925b82841015614d1857833582529284019290840190614cff565b979650505050505050565b6001600160a01b03169052565b60005b83811015614d4b578181015183820152602001614d33565b50506000910152565b60008151808452614d6c816020860160208601614d30565b601f01601f19169290920160200192915050565b60006020808301818452808551808352604092508286019150828160051b87010184880160005b83811015614e4157888303603f19018552815180518452878101516001600160a01b0316888501528681015160c088860181905290614de882870182614d54565b91505060608083015186830382880152614e028382614d54565b925050506080808301511515818701525060a08083015192508582038187015250614e2d8183614d54565b968901969450505090860190600101614da7565b509098975050505050505050565b60006102208284031215614e6257600080fd5b614e6a6147e3565b9050614e7582614885565b8152614e8360208301614885565b602082015260408201356001600160401b0380821115614ea257600080fd5b614eae858386016148b7565b6040840152614ebf60608501614885565b60608401526080840135915080821115614ed857600080fd5b614ee4858386016148b7565b608084015260a084013560a084015260c084013560c0840152614f0960e08501614921565b60e084015261010091508184013581811115614f2457600080fd5b614f30868287016148b7565b83850152505050610120808301358183015250610140614f5181840161490d565b90820152610160614f6383820161490d565b90820152610180614f75838201614933565b908201526101a0614f87838201614933565b908201526101c0614f9983820161490d565b908201526101e0614fab83820161490d565b90820152610200614adf83820161490d565b600060208284031215614fcf57600080fd5b81356001600160401b03811115614fe557600080fd5b610ee784828501614e4f565b600080600080600060a0868803121561500957600080fd5b85356001600160401b038082111561502057600080fd5b61502c89838a0161495e565b9650602088013591508082111561504257600080fd5b61504e89838a016148b7565b9550604088013591508082111561506457600080fd5b61507089838a016148b7565b9450606088013591508082111561508657600080fd5b50615093888289016148b7565b95989497509295608001359392505050565b600080604083850312156150b857600080fd5b8235915060208301356150ca81614945565b809150509250929050565b600080604083850312156150e857600080fd5b82356001600160401b03808211156150ff57600080fd5b61510b86838701614e4f565b9350602085013591508082111561512157600080fd5b5061512e858286016148b7565b9150509250929050565b6001600160a01b0391909116815260200190565b60006020828403121561515e57600080fd5b81356001600160401b0381111561517457600080fd5b610ee7848285016148b7565b6000806040838503121561519357600080fd5b82356001600160401b03808211156151aa57600080fd5b61510b8683870161495e565b600080600080600060a086880312156151ce57600080fd5b853594506020808701356001600160401b03808211156151ed57600080fd5b6151f98a838b016148b7565b96506040890135955060608901359450608089013591508082111561521d57600080fd5b508701601f8101891361522f57600080fd5b803561523d6148d682614c70565b81815260059190911b8201830190838101908b83111561525c57600080fd5b928401925b8284101561527a57833582529284019290840190615261565b80955050505050509295509295909350565b6020815261529e602082018351614d23565b600060208301516152b26040840182614d23565b5060408301516102208060608501526152cf610240850183614d54565b915060608501516152e36080860182614d23565b506080850151601f19808685030160a08701526153008483614d54565b935060a087015160c087015260c087015160e087015260e0870151915061010061532e8188018460070b9052565b8088015192505061012081878603018188015261534b8584614d54565b9088015161014088810191909152880151909450915061016090506153778187018363ffffffff169052565b86015190506101806153908682018363ffffffff169052565b86015190506101a06153a78682018361ffff169052565b86015190506101c06153be8682018361ffff169052565b86015190506101e06153d78682018363ffffffff169052565b86015190506102006153f08682018363ffffffff169052565b86015163ffffffff81168387015290505b5090949350505050565b6020808252600690820152654c424330313960d01b604082015260600190565b634e487b7160e01b600052601160045260246000fd5b818103818111156109285761092861542b565b60208082526006908201526504c42433032360d41b604082015260600190565b6001600160a01b03929092168252602082015260400190565b6020808252600690820152654c424330323160d01b604082015260600190565b60208082526006908201526526212198191960d11b604082015260600190565b643832b3b4b760d91b815260050190565b600082516154f0818460208701614d30565b9190910192915050565b60208082526006908201526509884866060760d31b604082015260600190565b651c1959dbdd5d60d21b815260060190565b80820281158282048414176109285761092861542b565b634e487b7160e01b600052601260045260246000fd5b60008261556857615568615543565b500490565b60008261557c5761557c615543565b500690565b808201808211156109285761092861542b565b6000600182016155a6576155a661542b565b5060010190565b600181811c908216806155c157607f821691505b6020821081036155e157634e487b7160e01b600052602260045260246000fd5b50919050565b601f821115613ea157600081815260208120601f850160051c8101602086101561560e5750805b601f850160051c820191505b8181101561562d5782815560010161561a565b505050505050565b81516001600160401b0381111561564e5761564e6147a4565b6156628161565c84546155ad565b846155e7565b602080601f831160018114615697576000841561567f5750858301515b600019600386901b1c1916600185901b17855561562d565b600085815260208120601f198616915b828110156156c6578886015182559484019460019091019084016156a7565b50858210156156e45787850151600019600388901b60f8161c191681555b5050505050600190811b01905550565b6020808252600690820152654c424330303160d01b604082015260600190565b634e487b7160e01b600052603260045260246000fd5b60208082526006908201526509884866064760d31b604082015260600190565b60018060a01b0384168152826020820152606060408201526000611f626060830184614d54565b60006020828403121561578357600080fd5b81516143b181614945565b6020808252600690820152654c424330323960d01b604082015260600190565b6001600160a01b039390931683526020830191909152604082015260600190565b80516001600160601b0319168252600061024060208301516157f46020860182614d23565b5060408301516158076040860182614d23565b50606083015181606086015261581f82860182614d54565b91505060808301516158346080860182614d23565b5060a083015184820360a086015261584c8282614d54565b91505060c083015160c085015260e083015160e08501526101008084015161587682870182614d23565b505061012080840151858303828701526158908382614d54565b92505050610140808401516158ac8287018263ffffffff169052565b5050610160808401516158c38287018260070b9052565b505061018083810151908501526101a08084015163ffffffff908116918601919091526101c0808501518216908601526101e080850151909116908501526102008084015161ffff16908501526102208084015180151582870152615401565b60408152600061593660408301856157cf565b90508260208301529392505050565b6001600160a01b03949094168452602084019290925215156040830152606082015260800190565b63ffffffff8616815284602082015260a06040820152600061599260a0830186614d54565b931515606083015250608001529392505050565b602080825260069082015265131090cc0d8d60d21b604082015260600190565b602080825260069082015265262121981a1960d11b604082015260600190565b848152600084516159fe816020850160208901614d30565b808301905060018060601b0319851660208201528351615a25816034840160208801614d30565b016034019695505050505050565b600082601f830112615a4457600080fd5b8151615a526148d682614890565b818152846020838601011115615a6757600080fd5b610ee7826020830160208701614d30565b600060208284031215615a8a57600080fd5b81516001600160401b03811115615aa057600080fd5b610ee784828501615a33565b600160fd1b8152826001820152607560f81b602182015260008251615ad8816022850160208701614d30565b919091016022019392505050565b606081526000615af96060830186614d54565b8281036020840152615b0b8186614d54565b9150508215156040830152949350505050565b63ffffffff818116838216019080821115615b3b57615b3b61542b565b5092915050565b6020815260006143b16020830184614d54565b60006020808385031215615b6857600080fd5b82516001600160401b0380821115615b7f57600080fd5b818501915085601f830112615b9357600080fd5b8151615ba16148d682614c70565b81815260059190911b83018401908481019088831115615bc057600080fd5b8585015b83811015615c5b57805185811115615bdc5760008081fd5b86016080818c03601f1901811315615bf45760008081fd5b615bfc614806565b898301518881168114615c0f5760008081fd5b815260408381015189811115615c255760008081fd5b615c338f8d83880101615a33565b838d015250606084810151918301919091529190920151908201528352918601918601615bc4565b5098975050505050505050565b600060208284031215615c7a57600080fd5b5051919050565b600060808201868352602086818501528560408501526080606085015281855180845260a086019150828701935060005b81811015615cce57845183529383019391830191600101615cb2565b50909998505050505050505050565b6001600160401b03818116838216028082169190828114615d0057615d0061542b565b505092915050565b604081526000615d1b6040830185614d54565b905082151560208301529392505050565b6000808354615d3a816155ad565b60018281168015615d525760018114615d6757615d96565b60ff1984168752821515830287019450615d96565b8760005260208060002060005b85811015615d8d5781548a820152908401908201615d74565b50505082870194505b50929695505050505050565b6001600160401b03818116838216019080821115615b3b57615b3b61542b565b6020815260006143b160208301846157cf565b6000610100808352615de98184018c614d54565b90508960208401528281036040840152615e03818a614d54565b90508760608401528281036080840152615e1d8188614d54565b6001600160a01b03871660a085015283810360c08501529050615e408186614d54565b91505082151560e0830152999850505050505050505056fe3052ea2f7e0d74fdc1c1e1f858ff1ae3d91ab1609717c3efedb95db603b255f69685484093cc596fdaeab51abf645b1753dbb7d869bfd2eb21e2c646e47a36f4bfc7404e6fe464f0646fe2c6ab942b92d56be722bb39f8c6bc4830d2d32fb80da2646970667358221220969fa1da7c08ec40ca2e96e89ee8f6ecb05774f1d303151621fa54c7b48286af64736f6c63430008120033",
  "immutableReferences": {},
  "source": "// SPDX-License-Identifier: MIT\npragma solidity ^0.8.18;\npragma experimental ABIEncoderV2;\n\nimport \"./Bridge.sol\";\nimport \"./Quotes.sol\";\nimport \"./SignatureValidator.sol\";\nimport \"@rsksmart/btc-transaction-solidity-helper/contracts/BtcUtils.sol\";\nimport \"@openzeppelin/contracts-upgradeable/access/OwnableUpgradeable.sol\";\nimport \"@openzeppelin/contracts-upgradeable/security/ReentrancyGuardUpgradeable.sol\";\n\n/**\n    @title Contract that assists with the Flyover protocol\n */\n\ncontract LiquidityBridgeContract is Initializable, OwnableUpgradeable, ReentrancyGuardUpgradeable {\n    uint16 constant public MAX_CALL_GAS_COST = 35000;\n    uint16 constant public MAX_REFUND_GAS_LIMIT = 2300;\n\n    uint8 constant public UNPROCESSED_QUOTE_CODE = 0;\n    uint8 constant public CALL_DONE_CODE = 1;\n    uint8 constant public PROCESSED_QUOTE_CODE = 2;\n\n    int16 constant public BRIDGE_REFUNDED_USER_ERROR_CODE = - 100;\n    int16 constant public BRIDGE_REFUNDED_LP_ERROR_CODE = - 200;\n    int16 constant public BRIDGE_UNPROCESSABLE_TX_NOT_CONTRACT_ERROR_CODE = - 300;\n    int16 constant public BRIDGE_UNPROCESSABLE_TX_INVALID_SENDER_ERROR_CODE = - 301;\n    int16 constant public BRIDGE_UNPROCESSABLE_TX_ALREADY_PROCESSED_ERROR_CODE = - 302;\n    int16 constant public BRIDGE_UNPROCESSABLE_TX_VALIDATIONS_ERROR = - 303;\n    int16 constant public BRIDGE_UNPROCESSABLE_TX_VALUE_ZERO_ERROR = - 304;\n    int16 constant public BRIDGE_UNPROCESSABLE_TX_UTXO_AMOUNT_SENT_BELOW_MINIMUM_ERROR =\n    - 305;\n    int16 constant public BRIDGE_GENERIC_ERROR = - 900;\n    uint constant public MAX_UINT = 2 ** 256 - 1;\n    uint constant public PAY_TO_ADDRESS_OUTPUT = 0;\n    uint constant public QUOTE_HASH_OUTPUT = 1;\n\n    struct Registry {\n        uint32 timestamp;\n        bool success;\n    }\n\n    struct PegoutRecord {\n        uint256 depositTimestamp;\n        bool completed;\n    }\n\n    struct LiquidityProvider {\n        uint id;\n        address provider;\n        string name;\n        string apiBaseUrl;\n        bool status;\n        string providerType;\n    }\n\n    event Register(uint id, address indexed from, uint256 amount);\n    event Deposit(address from, uint256 amount);\n    event CollateralIncrease(address from, uint256 amount);\n    event PegoutCollateralIncrease(address from, uint256 amount);\n    event Withdrawal(address from, uint256 amount);\n    event WithdrawCollateral(address from, uint256 amount);\n    event PegoutWithdrawCollateral(address from, uint256 amount);\n    event Resigned(address from);\n    event CallForUser(\n        address indexed from,\n        address indexed dest,\n        uint gasLimit,\n        uint value,\n        bytes data,\n        bool success,\n        bytes32 quoteHash\n    );\n    event PegInRegistered(bytes32 indexed quoteHash, int256 transferredAmount);\n    event Penalized(address liquidityProvider, uint penalty, bytes32 quoteHash);\n    event BridgeCapExceeded(bytes32 quoteHash, int256 errorCode);\n    event BalanceIncrease(address dest, uint amount);\n    event BalanceDecrease(address dest, uint amount);\n    event Refund(address dest, uint amount, bool success, bytes32 quoteHash);\n    event PegOut(\n        address from,\n        uint256 amount,\n        bytes32 quotehash,\n        uint processed\n    );\n    event PegOutRefunded(bytes32 indexed quoteHash);\n    event PegOutDeposit(\n        bytes32 indexed quoteHash,\n        address indexed sender,\n        uint256 amount,\n        uint256 timestamp\n    );\n    event PegOutUserRefunded(\n        bytes32 indexed quoteHash,\n        uint256 value,\n        address userAddress\n    );\n\n    Bridge public bridge;\n    mapping(address => uint256) private balances;\n    mapping(address => uint256) private collateral;\n    mapping(address => uint256) private pegoutCollateral;\n    mapping(uint => LiquidityProvider) private liquidityProviders;\n    mapping(bytes32 => Registry) private callRegistry;\n    mapping(address => uint256) private resignationBlockNum;\n\n    uint256 private minCollateral;\n    uint256 private minPegIn;\n\n    uint32 private rewardP;\n    uint32 private resignDelayInBlocks;\n    uint private dust;\n    uint public providerId;\n\n    uint private btcBlockTime;\n    bool private mainnet;\n\n    mapping(bytes32 => uint8) private processedQuotes;\n    mapping(bytes32 => Quotes.PegOutQuote) private registeredPegoutQuotes;\n    mapping(bytes32 => PegoutRecord) private pegoutRegistry;\n\n    modifier onlyRegistered() {\n        require(isRegistered(msg.sender), \"LBC001\");\n        _;\n    }\n\n    modifier onlyRegisteredForPegout() {\n        require(isRegisteredForPegout(msg.sender), \"LBC001\");\n        _;\n    }\n\n    modifier onlyEoa() {\n        require(tx.origin == msg.sender, \"LBC003\");\n        _;\n    }\n\n    /**\n        @param _bridgeAddress The address of the bridge contract\n        @param _minimumCollateral The minimum required collateral for liquidity providers\n        @param _minimumPegIn The minimum peg-in amount\n        @param _rewardPercentage The percentage of the penalty fee that an honest party\n        // receives when calling registerPegIn in case of a liquidity provider misbehaving\n        @param _resignDelayBlocks The number of block confirmations that a liquidity\n        // provider needs to wait before it can withdraw its collateral\n        @param _dustThreshold Amount that is considered dust\n     */\n    function initialize(\n        address payable _bridgeAddress,\n        uint256 _minimumCollateral,\n        uint256 _minimumPegIn,\n        uint32 _rewardPercentage,\n        uint32 _resignDelayBlocks,\n        uint _dustThreshold,\n        uint _btcBlockTime,\n        bool _mainnet\n    ) public initializer {\n        require(_rewardPercentage <= 100, \"LBC004\");\n        require(_minimumCollateral >= 0.03 ether, \"LBC072\");\n        require(_resignDelayBlocks >= 60, \"LBC073\");\n        __Ownable_init_unchained();\n        bridge = Bridge(_bridgeAddress);\n        minCollateral = _minimumCollateral;\n        minPegIn = _minimumPegIn;\n        rewardP = _rewardPercentage;\n        resignDelayInBlocks = _resignDelayBlocks;\n        dust = _dustThreshold;\n        btcBlockTime = _btcBlockTime;\n        mainnet = _mainnet;\n    }\n\n    modifier onlyOwnerAndProvider(uint _providerId) {\n        require(\n            msg.sender == owner() ||\n            msg.sender == liquidityProviders[_providerId].provider,\n            \"LBC005\"\n        );\n        _;\n    }\n\n    function setProviderStatus(\n        uint _providerId,\n        bool status\n    ) public onlyOwnerAndProvider(_providerId) {\n        liquidityProviders[_providerId].status = status;\n    }\n\n    receive() external payable {\n        require(msg.sender == address(bridge), \"LBC007\");\n    }\n\n    function getProviderIds() external view returns (uint) {\n        return providerId;\n    }\n\n    function getBridgeAddress() external view returns (address) {\n        return address(bridge);\n    }\n\n    function getMinCollateral() public view returns (uint) {\n        return minCollateral;\n    }\n\n    function getMinPegIn() external view returns (uint) {\n        return minPegIn;\n    }\n\n    function getRewardPercentage() external view returns (uint) {\n        return rewardP;\n    }\n\n    function getResignDelayBlocks() external view returns (uint) {\n        return resignDelayInBlocks;\n    }\n\n    function getDustThreshold() external view returns (uint) {\n        return dust;\n    }\n\n    function getRegisteredPegOutQuote(\n        bytes32 quoteHash\n    ) external view returns (Quotes.PegOutQuote memory) {\n        return registeredPegoutQuotes[quoteHash];\n    }\n\n    function isPegOutQuoteCompleted(bytes32 quoteHash) external view returns (bool) {\n        return pegoutRegistry[quoteHash].completed;\n    }\n\n    /**\n        @dev Checks whether a liquidity provider can deliver a pegin service\n        @return Whether the liquidity provider is registered and has enough locked collateral\n     */\n    function isOperational(address addr) external view returns (bool) {\n        return isRegistered(addr) && collateral[addr] >= minCollateral;\n    }\n\n    /**\n        @dev Checks whether a liquidity provider can deliver a pegout service\n        @return Whether the liquidity provider is registered and has enough locked collateral\n     */\n    function isOperationalForPegout(address addr) external view returns (bool) {\n        return\n        isRegisteredForPegout(addr) &&\n        pegoutCollateral[addr] >= minCollateral;\n    }\n\n    /**\n        @dev Registers msg.sender as a liquidity provider with msg.value as collateral\n     */\n    function register(\n        string memory _name,\n        string memory _apiBaseUrl,\n        bool _status,\n        string memory _providerType\n    ) external payable onlyEoa returns (uint) {\n        //require(collateral[msg.sender] == 0, \"Already registered\");\n        validateRegisterParameters(\n            _name,\n            _apiBaseUrl,\n            _providerType\n        );\n\n        require(collateral[msg.sender] == 0 && pegoutCollateral[msg.sender] == 0, \"LBC070\");\n        require(\n            resignationBlockNum[msg.sender] == 0,\n            \"LBC009\"\n        );\n\n        if (keccak256(abi.encodePacked(_providerType)) == keccak256(abi.encodePacked(\"pegin\"))) {\n            require(msg.value >= minCollateral, \"LBC008\");\n            collateral[msg.sender] = msg.value;\n        } else if (keccak256(abi.encodePacked(_providerType)) == keccak256(abi.encodePacked(\"pegout\"))) {\n            require(msg.value >= minCollateral, \"LBC008\");\n            pegoutCollateral[msg.sender] = msg.value;\n        } else {\n            require(msg.value >= minCollateral * 2, \"LBC008\");\n            uint halfMsgValue = msg.value / 2;\n            collateral[msg.sender] = msg.value % 2 == 0 ? halfMsgValue : halfMsgValue + 1;\n            pegoutCollateral[msg.sender] = halfMsgValue;\n        }\n\n        providerId++;\n        liquidityProviders[providerId] = LiquidityProvider({\n            id: providerId,\n            provider: msg.sender,\n            name: _name,\n            apiBaseUrl: _apiBaseUrl,\n            status: _status,\n            providerType: _providerType\n        });\n        emit Register(providerId, msg.sender, msg.value);\n        return (providerId);\n    }\n\n    /**\n        @dev Validates input parameters for the register function\n  */\n    function validateRegisterParameters(\n        string memory _name,\n        string memory _apiBaseUrl,\n        string memory _providerType\n    ) internal pure {\n        require(bytes(_name).length > 0, \"LBC010\");\n        require(\n            bytes(_apiBaseUrl).length > 0,\n            \"LBC017\"\n        );\n\n        // Check if _providerType is one of the valid strings\n        require(\n            keccak256(abi.encodePacked(_providerType)) ==\n            keccak256(abi.encodePacked(\"pegin\")) ||\n            keccak256(abi.encodePacked(_providerType)) ==\n            keccak256(abi.encodePacked(\"pegout\")) ||\n            keccak256(abi.encodePacked(_providerType)) ==\n            keccak256(abi.encodePacked(\"both\")),\n            \"LBC018\"\n        );\n    }\n\n    function getProviders(\n        uint[] memory providerIds\n    ) external view returns (LiquidityProvider[] memory) {\n        LiquidityProvider[] memory providersToReturn = new LiquidityProvider[](\n            providerIds.length\n        );\n        uint count = 0;\n\n        for (uint i = 0; i < providerIds.length; i++) {\n            uint id = providerIds[i];\n            if (\n                (isRegistered(liquidityProviders[id].provider) ||\n                isRegisteredForPegout(liquidityProviders[id].provider)) &&\n                liquidityProviders[id].status\n            ) {\n                providersToReturn[count] = liquidityProviders[id];\n                count++;\n            }\n        }\n        return providersToReturn;\n    }\n\n    /**\n        @dev Increases the amount of collateral of the sender\n     */\n    function addCollateral() external payable onlyRegistered {\n        collateral[msg.sender] += msg.value;\n        emit CollateralIncrease(msg.sender, msg.value);\n    }\n\n    function addPegoutCollateral() external payable onlyRegisteredForPegout {\n        pegoutCollateral[msg.sender] += msg.value;\n        emit PegoutCollateralIncrease(msg.sender, msg.value);\n    }\n\n    /**\n        @dev Increases the balance of the sender\n     */\n    function deposit() external payable onlyRegistered {\n        increaseBalance(msg.sender, msg.value);\n    }\n\n    /**\n        @dev Used to withdraw funds\n        @param amount The amount to withdraw\n     */\n    function withdraw(uint256 amount) external {\n        require(balances[msg.sender] >= amount, \"LBC019\");\n        balances[msg.sender] -= amount;\n        (bool success,) = msg.sender.call{value: amount}(\"\");\n        require(success, \"LBC020\");\n        emit Withdrawal(msg.sender, amount);\n    }\n\n    /**\n        @dev Used to withdraw the locked collateral\n     */\n    function withdrawCollateral() external {\n        require(resignationBlockNum[msg.sender] > 0, \"LBC021\");\n        require(\n            block.number - resignationBlockNum[msg.sender] >=\n            resignDelayInBlocks,\n            \"LBC022\"\n        );\n        uint amount = collateral[msg.sender];\n        collateral[msg.sender] = 0;\n        resignationBlockNum[msg.sender] = 0;\n        (bool success,) = msg.sender.call{value: amount}(\"\");\n        require(success, \"LBC020\");\n        emit WithdrawCollateral(msg.sender, amount);\n    }\n\n    function withdrawPegoutCollateral() external {\n        require(resignationBlockNum[msg.sender] > 0, \"LBC021\");\n        require(\n            block.number - resignationBlockNum[msg.sender] >=\n            resignDelayInBlocks,\n            \"LBC022\"\n        );\n        uint amount = pegoutCollateral[msg.sender];\n        pegoutCollateral[msg.sender] = 0;\n        resignationBlockNum[msg.sender] = 0;\n        (bool success,) = msg.sender.call{value: amount}(\"\");\n        require(success, \"LBC020\");\n        emit PegoutWithdrawCollateral(msg.sender, amount);\n    }\n\n    /**\n        @dev Used to resign as a liquidity provider\n     */\n    function resign() external onlyRegistered {\n        require(resignationBlockNum[msg.sender] == 0, \"LBC023\");\n        resignationBlockNum[msg.sender] = block.number;\n        emit Resigned(msg.sender);\n    }\n\n    /**\n        @dev Returns the amount of collateral of a liquidity provider\n        @param addr The address of the liquidity provider\n        @return The amount of locked collateral\n     */\n    function getCollateral(address addr) external view returns (uint256) {\n        return collateral[addr];\n    }\n\n    function getPegoutCollateral(address addr) external view returns (uint256) {\n        return pegoutCollateral[addr];\n    }\n\n    /**\n        @dev Returns the amount of funds of a liquidity provider\n        @param addr The address of the liquidity provider\n        @return The balance of the liquidity provider\n     */\n    function getBalance(address addr) external view returns (uint256) {\n        return balances[addr];\n    }\n\n    /**\n        @dev Performs a call on behalf of a user\n        @param quote The quote that identifies the service\n        @return Boolean indicating whether the call was successful\n     */\n    function callForUser(\n        Quotes.PeginQuote memory quote\n    ) external payable onlyRegistered nonReentrant returns (bool) {\n        require(\n            msg.sender == quote.liquidityProviderRskAddress,\n            \"LBC024\"\n        );\n        require(\n            balances[quote.liquidityProviderRskAddress] + msg.value >=\n            quote.value,\n            \"LBC019\"\n        );\n\n        bytes32 quoteHash = validateAndHashQuote(quote);\n        require(\n            processedQuotes[quoteHash] == UNPROCESSED_QUOTE_CODE,\n            \"LBC025\"\n        );\n\n        increaseBalance(quote.liquidityProviderRskAddress, msg.value);\n\n        // This check ensures that the call cannot be performed with less gas than the agreed amount\n        require(\n            gasleft() >= quote.gasLimit + MAX_CALL_GAS_COST,\n            \"LBC026\"\n        );\n        (bool success,) = quote.contractAddress.call{\n                gas: quote.gasLimit,\n                value: quote.value\n            }(quote.data);\n\n        require(block.timestamp <= type(uint32).max, \"LBC027\");\n        callRegistry[quoteHash].timestamp = uint32(block.timestamp);\n\n        if (success) {\n            callRegistry[quoteHash].success = true;\n            decreaseBalance(quote.liquidityProviderRskAddress, quote.value);\n        }\n        emit CallForUser(\n            msg.sender,\n            quote.contractAddress,\n            quote.gasLimit,\n            quote.value,\n            quote.data,\n            success,\n            quoteHash\n        );\n        processedQuotes[quoteHash] = CALL_DONE_CODE;\n        return success;\n    }\n\n    /**\n        @dev Registers a peg-in transaction with the bridge and pays to the involved parties\n        @param quote The quote of the service\n        @param signature The signature of the quote\n        @param btcRawTransaction The peg-in transaction\n        @param partialMerkleTree The merkle tree path that proves transaction inclusion\n        @param height The block that contains the peg-in transaction\n        @return The total peg-in amount received from the bridge contract or an error code\n     */\n    function registerPegIn(\n        Quotes.PeginQuote memory quote,\n        bytes memory signature,\n        bytes memory btcRawTransaction,\n        bytes memory partialMerkleTree,\n        uint256 height\n    ) public nonReentrant returns (int256) {\n        bytes32 quoteHash = validateAndHashQuote(quote);\n\n        // TODO: allow multiple registerPegIns for the same quote with different transactions\n        require(\n            processedQuotes[quoteHash] <= CALL_DONE_CODE,\n            \"LBC028\"\n        );\n        require(\n            SignatureValidator.verify(\n                quote.liquidityProviderRskAddress,\n                quoteHash,\n                signature\n            ),\n            \"LBC029\"\n        );\n        require(height < uint256(int256(type(int32).max)), \"LBC030\");\n\n        int256 transferredAmountOrErrorCode = registerBridge(\n            quote,\n            btcRawTransaction,\n            partialMerkleTree,\n            height,\n            quoteHash\n        );\n\n        require(\n            transferredAmountOrErrorCode !=\n            BRIDGE_UNPROCESSABLE_TX_VALIDATIONS_ERROR,\n            \"LBC031\"\n        );\n        require(\n            transferredAmountOrErrorCode !=\n            BRIDGE_UNPROCESSABLE_TX_ALREADY_PROCESSED_ERROR_CODE,\n            \"LBC032\"\n        );\n        require(\n            transferredAmountOrErrorCode !=\n            BRIDGE_UNPROCESSABLE_TX_VALUE_ZERO_ERROR,\n            \"LBC033\"\n        );\n        require(\n            transferredAmountOrErrorCode !=\n            BRIDGE_UNPROCESSABLE_TX_UTXO_AMOUNT_SENT_BELOW_MINIMUM_ERROR,\n            \"LBC034\"\n        );\n        require(\n            transferredAmountOrErrorCode != BRIDGE_GENERIC_ERROR,\n            \"LBC035\"\n        );\n        require(\n            transferredAmountOrErrorCode > 0 ||\n            transferredAmountOrErrorCode == BRIDGE_REFUNDED_LP_ERROR_CODE ||\n            transferredAmountOrErrorCode == BRIDGE_REFUNDED_USER_ERROR_CODE,\n            \"LBC036\"\n        );\n\n        if (\n            shouldPenalizeLP(\n            quote,\n            transferredAmountOrErrorCode,\n            callRegistry[quoteHash].timestamp,\n            height\n        )\n        ) {\n            uint penalizationAmount = min(\n                quote.penaltyFee,\n                collateral[quote.liquidityProviderRskAddress]\n            ); // prevent underflow when collateral is less than penalty fee.\n            collateral[quote.liquidityProviderRskAddress] -= penalizationAmount;\n            emit Penalized(\n                quote.liquidityProviderRskAddress,\n                penalizationAmount,\n                quoteHash\n            );\n\n            // pay reward to sender\n            uint256 punisherReward = (penalizationAmount * rewardP) / 100;\n            increaseBalance(msg.sender, punisherReward);\n        }\n\n        if (\n            transferredAmountOrErrorCode == BRIDGE_REFUNDED_LP_ERROR_CODE ||\n            transferredAmountOrErrorCode == BRIDGE_REFUNDED_USER_ERROR_CODE\n        ) {\n            // Bridge cap exceeded\n            processedQuotes[quoteHash] = PROCESSED_QUOTE_CODE;\n            delete callRegistry[quoteHash];\n            emit BridgeCapExceeded(quoteHash, transferredAmountOrErrorCode);\n            return transferredAmountOrErrorCode;\n        }\n\n        // the amount is safely assumed positive because it's already been\n        // validated in lines 287/298 there's no (negative) error code being returned by the bridge.\n        uint transferredAmount = uint(transferredAmountOrErrorCode);\n\n        Quotes.checkAgreedAmount(quote, transferredAmount);\n\n        if (callRegistry[quoteHash].timestamp > 0) {\n            uint refundAmount;\n\n            if (callRegistry[quoteHash].success) {\n                refundAmount = min(\n                    transferredAmount,\n                    quote.value + quote.callFee\n                );\n            } else {\n                refundAmount = min(transferredAmount, quote.callFee);\n            }\n            increaseBalance(quote.liquidityProviderRskAddress, refundAmount);\n            uint remainingAmount = transferredAmount - refundAmount;\n\n            if (remainingAmount > dust) {\n                // refund rskRefundAddress, if remaining amount greater than dust\n                (bool success,) = quote.rskRefundAddress.call{\n                        gas: MAX_REFUND_GAS_LIMIT,\n                        value: remainingAmount\n                    }(\"\");\n                emit Refund(\n                    quote.rskRefundAddress,\n                    remainingAmount,\n                    success,\n                    quoteHash\n                );\n\n                if (!success) {\n                    // transfer funds to LP instead, if for some reason transfer to rskRefundAddress was unsuccessful\n                    increaseBalance(\n                        quote.liquidityProviderRskAddress,\n                        remainingAmount\n                    );\n                }\n            }\n        } else {\n            uint refundAmount = transferredAmount;\n\n            if (quote.callOnRegister && refundAmount >= quote.value) {\n                (bool callSuccess,) = quote.contractAddress.call{\n                        gas: quote.gasLimit,\n                        value: quote.value\n                    }(quote.data);\n                emit CallForUser(\n                    msg.sender,\n                    quote.contractAddress,\n                    quote.gasLimit,\n                    quote.value,\n                    quote.data,\n                    callSuccess,\n                    quoteHash\n                );\n\n                if (callSuccess) {\n                    refundAmount -= quote.value;\n                }\n            }\n            if (refundAmount > dust) {\n                // refund rskRefundAddress, if refund amount greater than dust\n                (bool success,) = quote.rskRefundAddress.call{\n                        gas: MAX_REFUND_GAS_LIMIT,\n                        value: refundAmount\n                    }(\"\");\n                emit Refund(\n                    quote.rskRefundAddress,\n                    refundAmount,\n                    success,\n                    quoteHash\n                );\n            }\n        }\n        processedQuotes[quoteHash] = PROCESSED_QUOTE_CODE;\n        delete callRegistry[quoteHash];\n        emit PegInRegistered(quoteHash, transferredAmountOrErrorCode);\n        return transferredAmountOrErrorCode;\n    }\n\n    function depositPegout( // TODO convert to calldata when contract size issues are fixed\n        Quotes.PegOutQuote memory quote,\n        bytes memory signature\n    ) external payable {\n        require(isRegisteredForPegout(quote.lpRskAddress), \"LBC037\");\n        require(quote.value + quote.callFee <= msg.value, \"LBC063\");\n        require(block.timestamp <= quote.depositDateLimit, \"LBC065\");\n        require(block.timestamp <= quote.expireDate, \"LBC046\");\n        require(block.number <= quote.expireBlock, \"LBC047\");\n        bytes32 quoteHash = hashPegoutQuote(quote);\n        require(\n            SignatureValidator.verify(quote.lpRskAddress, quoteHash, signature),\n            \"LBC029\"\n        );\n\n        Quotes.PegOutQuote storage registeredQuote = registeredPegoutQuotes[quoteHash];\n\n        require(pegoutRegistry[quoteHash].completed == false, \"LBC064\");\n        require(registeredQuote.lbcAddress == address(0), \"LBC028\");\n        registeredPegoutQuotes[quoteHash] = quote;\n        pegoutRegistry[quoteHash].depositTimestamp = block.timestamp;\n        emit PegOutDeposit(quoteHash, msg.sender, msg.value, block.timestamp);\n    }\n\n    function refundUserPegOut(\n        bytes32 quoteHash\n    ) public nonReentrant {\n        Quotes.PegOutQuote storage quote = registeredPegoutQuotes[quoteHash];\n\n        require(quote.lbcAddress != address(0), \"LBC042\");\n        require(\n            block.timestamp > quote.expireDate &&\n            block.number > quote.expireBlock,\n            \"LBC041\"\n        );\n\n        uint valueToTransfer = quote.value + quote.callFee;\n        address addressToTransfer = quote.rskRefundAddress;\n\n        uint penalty = min(quote.penaltyFee, pegoutCollateral[quote.lpRskAddress]);\n        pegoutCollateral[quote.lpRskAddress] -= penalty;\n\n        emit Penalized(quote.lpRskAddress, penalty, quoteHash);\n        emit PegOutUserRefunded(\n            quoteHash,\n            valueToTransfer,\n            quote.rskRefundAddress\n        );\n\n        delete registeredPegoutQuotes[quoteHash];\n        pegoutRegistry[quoteHash].completed = true;\n\n        (bool sent,) = addressToTransfer.call{value: valueToTransfer}(\"\");\n        require(sent, \"LBC044\");\n    }\n\n    function refundPegOut(\n        bytes32 quoteHash,\n        bytes memory btcTx,\n        bytes32 btcBlockHeaderHash,\n        uint256 partialMerkleTree,\n        bytes32[] memory merkleBranchHashes\n    ) public nonReentrant onlyRegisteredForPegout {\n        require(pegoutRegistry[quoteHash].completed == false, \"LBC064\");\n        Quotes.PegOutQuote storage quote = registeredPegoutQuotes[quoteHash];\n        require(quote.lbcAddress != address(0), \"LBC042\");\n        BtcUtils.TxRawOutput[] memory outputs = BtcUtils.getOutputs(btcTx);\n        bytes32 txQuoteHash = abi.decode(BtcUtils.parseNullDataScript(outputs[QUOTE_HASH_OUTPUT].pkScript), (bytes32));\n        require(quoteHash == txQuoteHash, \"LBC069\");\n        require(msg.sender == quote.lpRskAddress, \"LBC048\");\n        require(\n            bridge.getBtcTransactionConfirmations(\n                BtcUtils.hashBtcTx(btcTx),\n                btcBlockHeaderHash,\n                partialMerkleTree,\n                merkleBranchHashes\n            ) >= int(uint256(quote.transferConfirmations)),\n            \"LBC049\"\n        );\n        require(quote.value <= outputs[PAY_TO_ADDRESS_OUTPUT].value * (10**10), \"LBC067\"); // satoshi to wei\n        bytes memory btcTxDestination = BtcUtils.parsePayToPubKeyHash(outputs[PAY_TO_ADDRESS_OUTPUT]\n            .pkScript, mainnet);\n        require(keccak256(quote.deposityAddress) == keccak256(btcTxDestination), \"LBC068\");\n\n        if (\n            shouldPenalizePegOutLP(\n                quote,\n                txQuoteHash,\n                btcBlockHeaderHash\n            )\n        ) {\n            uint penalty = min(\n                quote.penaltyFee,\n                pegoutCollateral[quote.lpRskAddress]\n            );\n            pegoutCollateral[quote.lpRskAddress] -= penalty;\n            emit Penalized(quote.lpRskAddress, penalty, txQuoteHash);\n        }\n\n        (bool sent,) = quote.lpRskAddress.call{\n                value: quote.value + quote.callFee\n            }(\"\");\n        require(sent, \"LBC050\");\n\n        delete registeredPegoutQuotes[txQuoteHash];\n        pegoutRegistry[txQuoteHash].completed = true;\n        emit PegOutRefunded(txQuoteHash);\n    }\n\n   function validatePeginDepositAddress(\n        Quotes.PeginQuote memory quote,\n        bytes memory depositAddress\n    ) external view returns (bool) {\n        bytes32 derivationValue = keccak256(\n            bytes.concat(\n                hashQuote(quote),\n                quote.btcRefundAddress,\n                bytes20(quote.lbcAddress),\n                quote.liquidityProviderBtcAddress\n            )\n        );\n        bytes memory flyoverRedeemScript = bytes.concat(\n            hex\"20\",\n            derivationValue,\n            hex\"75\",\n            bridge.getActivePowpegRedeemScript()\n        );\n        return BtcUtils.validateP2SHAdress(depositAddress, flyoverRedeemScript, mainnet);\n    }\n\n    /**\n        @dev Calculates hash of a quote. Note: besides calculation this function also validates the quote.\n        @param quote The quote of the service\n        @return The hash of a quote\n     */\n    function hashQuote(Quotes.PeginQuote memory quote) public view returns (bytes32) {\n        return validateAndHashQuote(quote);\n    }\n\n    function hashPegoutQuote(\n        Quotes.PegOutQuote memory quote\n    ) public view returns (bytes32) {\n        return validateAndHashPegOutQuote(quote);\n    }\n\n    function validateAndHashQuote(\n        Quotes.PeginQuote memory quote\n    ) private view returns (bytes32) {\n        require(address(this) == quote.lbcAddress, \"LBC051\");\n        require(\n            address(bridge) != quote.contractAddress,\n            \"LBC052\"\n        );\n        require(\n            quote.btcRefundAddress.length == 21 ||\n            quote.btcRefundAddress.length == 33,\n            \"LBC053\"\n        );\n        require(\n            quote.liquidityProviderBtcAddress.length == 21,\n            \"LBC054\"\n        );\n        require(\n            quote.value + quote.callFee >= minPegIn,\n            \"LBC055\"\n        );\n        require(\n            type(uint32).max >= uint64(quote.agreementTimestamp) + uint64(quote.timeForDeposit),\n            \"LBC071\"\n        );\n\n        return keccak256(Quotes.encodeQuote(quote));\n    }\n\n    function validateAndHashPegOutQuote(\n        Quotes.PegOutQuote memory quote\n    ) private view returns (bytes32) {\n        require(address(this) == quote.lbcAddress, \"LBC056\");\n\n        return keccak256(Quotes.encodePegOutQuote(quote));\n    }\n\n    function min(uint a, uint b) private pure returns (uint) {\n        return a < b ? a : b;\n    }\n\n    // IMPORTANT: These methods should remain private at all costs\n    function increaseBalance(address dest, uint amount) private {\n        balances[dest] += amount;\n        emit BalanceIncrease(dest, amount);\n    }\n\n    function decreaseBalance(address dest, uint amount) private {\n        balances[dest] -= amount;\n        emit BalanceDecrease(dest, amount);\n    }\n\n    /**\n        @dev Checks if a liquidity provider is registered\n        @param addr The address of the liquidity provider\n        @return Boolean indicating whether the liquidity provider is registered\n     */\n    function isRegistered(address addr) private view returns (bool) {\n        return collateral[addr] > 0 && resignationBlockNum[addr] == 0;\n    }\n\n    function isRegisteredForPegout(address addr) private view returns (bool) {\n        return pegoutCollateral[addr] > 0 && resignationBlockNum[addr] == 0;\n    }\n\n    /**\n        @dev Registers a transaction with the bridge contract\n        @param quote The quote of the service\n        @param btcRawTransaction The peg-in transaction\n        @param partialMerkleTree The merkle tree path that proves transaction inclusion\n        @param height The block that contains the transaction\n        @return The total peg-in amount received from the bridge contract or an error code\n     */\n    function registerBridge(\n        Quotes.PeginQuote memory quote,\n        bytes memory btcRawTransaction,\n        bytes memory partialMerkleTree,\n        uint256 height,\n        bytes32 derivationHash\n    ) private returns (int256) {\n        return\n        bridge.registerFastBridgeBtcTransaction(\n            btcRawTransaction,\n            height,\n            partialMerkleTree,\n            derivationHash,\n            quote.btcRefundAddress,\n            payable(this),\n            quote.liquidityProviderBtcAddress,\n            callRegistry[derivationHash].timestamp > 0 && callRegistry[derivationHash].success\n        );\n    }\n\n    /**\n        @dev Checks if a liquidity provider should be penalized\n        @param quote The quote of the service\n        @param amount The transferred amount or an error code\n        @param callTimestamp The time that the liquidity provider called callForUser\n        @param height The block height where the peg-in transaction is included\n        @return Boolean indicating whether the penalty applies\n     */\n    function shouldPenalizeLP(\n        Quotes.PeginQuote memory quote,\n        int256 amount,\n        uint256 callTimestamp,\n        uint256 height\n    ) private view returns (bool) {\n        // do not penalize if deposit amount is insufficient\n        if (amount > 0 && uint256(amount) < quote.value + quote.callFee) {\n            return false;\n        }\n\n        bytes memory firstConfirmationHeader = bridge\n        .getBtcBlockchainBlockHeaderByHeight(height);\n        require(firstConfirmationHeader.length > 0, \"Invalid block height\");\n\n        uint256 firstConfirmationTimestamp = getBtcBlockTimestamp(\n            firstConfirmationHeader\n        );\n\n        // do not penalize if deposit was not made on time\n        // prevent overflow when collateral is less than penalty fee.\n        uint timeLimit = quote.agreementTimestamp + quote.timeForDeposit;\n        if (firstConfirmationTimestamp > timeLimit) {\n            return false;\n        }\n\n        // penalize if call was not made\n        if (callTimestamp == 0) {\n            return true;\n        }\n\n        bytes memory nConfirmationsHeader = bridge\n        .getBtcBlockchainBlockHeaderByHeight(\n            height + quote.depositConfirmations - 1\n        );\n        require(nConfirmationsHeader.length > 0, \"LBC058\");\n\n        uint256 nConfirmationsTimestamp = getBtcBlockTimestamp(\n            nConfirmationsHeader\n        );\n\n        // penalize if the call was not made on time\n        if (callTimestamp > nConfirmationsTimestamp + quote.callTime) {\n            return true;\n        }\n        return false;\n    }\n\n    function shouldPenalizePegOutLP(\n        Quotes.PegOutQuote memory quote,\n        bytes32 quoteHash,\n        bytes32 blockHash\n    ) private view returns (bool) {\n        bytes memory firstConfirmationHeader = bridge.getBtcBlockchainBlockHeaderByHash(blockHash);\n        require(firstConfirmationHeader.length > 0, \"LBC059\");\n\n        uint256 firstConfirmationTimestamp = getBtcBlockTimestamp(firstConfirmationHeader);\n\n        // penalize if the transfer was not made on time\n        if (firstConfirmationTimestamp > pegoutRegistry[quoteHash].depositTimestamp +\n            quote.transferTime + btcBlockTime) {\n            return true;\n        }\n\n        // penalize if LP is refunding after expiration\n        if (block.timestamp > quote.expireDate || block.number > quote.expireBlock) {\n            return true;\n        }\n\n        return false;\n    }\n\n    /**\n        @dev Gets the timestamp of a Bitcoin block header\n        @param header The block header\n        @return The timestamp of the block header\n     */\n    function getBtcBlockTimestamp(\n        bytes memory header\n    ) public pure returns (uint256) {\n        // bitcoin header is 80 bytes and timestamp is 4 bytes from byte 68 to byte 71 (both inclusive)\n        require(header.length == 80, \"LBC061\");\n\n        return sliceUint32FromLSB(header, 68);\n    }\n\n    // bytes must have at least 28 bytes before the uint32\n    function sliceUint32FromLSB(\n        bytes memory bs,\n        uint offset\n    ) internal pure returns (uint32) {\n        require(bs.length >= offset + 4, \"LBC062\");\n\n        return\n        uint32(uint8(bs[offset])) |\n        (uint32(uint8(bs[offset + 1])) << 8) |\n        (uint32(uint8(bs[offset + 2])) << 16) |\n        (uint32(uint8(bs[offset + 3])) << 24);\n    }\n}\n",
  "sourcePath": "/Users/luischavez/iov/liquidity-bridge-contract/contracts/LiquidityBridgeContract.sol",
  "compiler": {
    "name": "solc",
    "version": "0.8.18+commit.87f61d96.Emscripten.clang"
  },
  "schemaVersion": "3.4.13",
  "updatedAt": "2024-02-27T21:36:42.646Z",
  "devdoc": {
    "events": {
      "Initialized(uint8)": {
        "details": "Triggered when the contract has been initialized or reinitialized."
      }
    },
    "kind": "dev",
    "methods": {
      "addCollateral()": {
        "details": "Increases the amount of collateral of the sender"
      },
      "callForUser((bytes20,address,address,bytes,address,bytes,uint256,uint256,address,bytes,uint32,int64,uint256,uint32,uint32,uint32,uint16,bool))": {
        "details": "Performs a call on behalf of a user",
        "params": {
          "quote": "The quote that identifies the service"
        },
        "returns": {
          "_0": "Boolean indicating whether the call was successful"
        }
      },
      "deposit()": {
        "details": "Increases the balance of the sender"
      },
      "getBalance(address)": {
        "details": "Returns the amount of funds of a liquidity provider",
        "params": {
          "addr": "The address of the liquidity provider"
        },
        "returns": {
          "_0": "The balance of the liquidity provider"
        }
      },
      "getBtcBlockTimestamp(bytes)": {
        "details": "Gets the timestamp of a Bitcoin block header",
        "params": {
          "header": "The block header"
        },
        "returns": {
          "_0": "The timestamp of the block header"
        }
      },
      "getCollateral(address)": {
        "details": "Returns the amount of collateral of a liquidity provider",
        "params": {
          "addr": "The address of the liquidity provider"
        },
        "returns": {
          "_0": "The amount of locked collateral"
        }
      },
      "hashQuote((bytes20,address,address,bytes,address,bytes,uint256,uint256,address,bytes,uint32,int64,uint256,uint32,uint32,uint32,uint16,bool))": {
        "details": "Calculates hash of a quote. Note: besides calculation this function also validates the quote.",
        "params": {
          "quote": "The quote of the service"
        },
        "returns": {
          "_0": "The hash of a quote"
        }
      },
      "initialize(address,uint256,uint256,uint32,uint32,uint256,uint256,bool)": {
        "params": {
          "_bridgeAddress": "The address of the bridge contract",
          "_dustThreshold": "Amount that is considered dust",
          "_minimumCollateral": "The minimum required collateral for liquidity providers",
          "_minimumPegIn": "The minimum peg-in amount",
          "_resignDelayBlocks": "The number of block confirmations that a liquidity // provider needs to wait before it can withdraw its collateral",
          "_rewardPercentage": "The percentage of the penalty fee that an honest party // receives when calling registerPegIn in case of a liquidity provider misbehaving"
        }
      },
      "isOperational(address)": {
        "details": "Checks whether a liquidity provider can deliver a pegin service",
        "returns": {
          "_0": "Whether the liquidity provider is registered and has enough locked collateral"
        }
      },
      "isOperationalForPegout(address)": {
        "details": "Checks whether a liquidity provider can deliver a pegout service",
        "returns": {
          "_0": "Whether the liquidity provider is registered and has enough locked collateral"
        }
      },
      "owner()": {
        "details": "Returns the address of the current owner."
      },
      "register(string,string,bool,string)": {
        "details": "Registers msg.sender as a liquidity provider with msg.value as collateral"
      },
      "registerPegIn((bytes20,address,address,bytes,address,bytes,uint256,uint256,address,bytes,uint32,int64,uint256,uint32,uint32,uint32,uint16,bool),bytes,bytes,bytes,uint256)": {
        "details": "Registers a peg-in transaction with the bridge and pays to the involved parties",
        "params": {
          "btcRawTransaction": "The peg-in transaction",
          "height": "The block that contains the peg-in transaction",
          "partialMerkleTree": "The merkle tree path that proves transaction inclusion",
          "quote": "The quote of the service",
          "signature": "The signature of the quote"
        },
        "returns": {
          "_0": "The total peg-in amount received from the bridge contract or an error code"
        }
      },
      "renounceOwnership()": {
        "details": "Leaves the contract without owner. It will not be possible to call `onlyOwner` functions anymore. Can only be called by the current owner. NOTE: Renouncing ownership will leave the contract without an owner, thereby removing any functionality that is only available to the owner."
      },
      "resign()": {
        "details": "Used to resign as a liquidity provider"
      },
      "transferOwnership(address)": {
        "details": "Transfers ownership of the contract to a new account (`newOwner`). Can only be called by the current owner."
      },
      "withdraw(uint256)": {
        "details": "Used to withdraw funds",
        "params": {
          "amount": "The amount to withdraw"
        }
      },
      "withdrawCollateral()": {
        "details": "Used to withdraw the locked collateral"
      }
    },
    "title": "Contract that assists with the Flyover protocol",
    "version": 1
  },
  "userdoc": {
    "kind": "user",
    "methods": {},
    "version": 1
  }
}