{
  "contractName": "LiquidityBridgeContractV2",
  "abi": [
    {
      "anonymous": false,
      "inputs": [
        {
          "indexed": false,
          "internalType": "address",
          "name": "dest",
          "type": "address"
        },
        {
          "indexed": false,
          "internalType": "uint256",
          "name": "amount",
          "type": "uint256"
        }
      ],
      "name": "BalanceDecrease",
      "type": "event"
    },
    {
      "anonymous": false,
      "inputs": [
        {
          "indexed": false,
          "internalType": "address",
          "name": "dest",
          "type": "address"
        },
        {
          "indexed": false,
          "internalType": "uint256",
          "name": "amount",
          "type": "uint256"
        }
      ],
      "name": "BalanceIncrease",
      "type": "event"
    },
    {
      "anonymous": false,
      "inputs": [
        {
          "indexed": false,
          "internalType": "bytes32",
          "name": "quoteHash",
          "type": "bytes32"
        },
        {
          "indexed": false,
          "internalType": "int256",
          "name": "errorCode",
          "type": "int256"
        }
      ],
      "name": "BridgeCapExceeded",
      "type": "event"
    },
    {
      "anonymous": false,
      "inputs": [
        {
          "indexed": true,
          "internalType": "address",
          "name": "from",
          "type": "address"
        },
        {
          "indexed": true,
          "internalType": "address",
          "name": "dest",
          "type": "address"
        },
        {
          "indexed": false,
          "internalType": "uint256",
          "name": "gasLimit",
          "type": "uint256"
        },
        {
          "indexed": false,
          "internalType": "uint256",
          "name": "value",
          "type": "uint256"
        },
        {
          "indexed": false,
          "internalType": "bytes",
          "name": "data",
          "type": "bytes"
        },
        {
          "indexed": false,
          "internalType": "bool",
          "name": "success",
          "type": "bool"
        },
        {
          "indexed": false,
          "internalType": "bytes32",
          "name": "quoteHash",
          "type": "bytes32"
        }
      ],
      "name": "CallForUser",
      "type": "event"
    },
    {
      "anonymous": false,
      "inputs": [
        {
          "indexed": false,
          "internalType": "address",
          "name": "from",
          "type": "address"
        },
        {
          "indexed": false,
          "internalType": "uint256",
          "name": "amount",
          "type": "uint256"
        }
      ],
      "name": "CollateralIncrease",
      "type": "event"
    },
    {
      "anonymous": false,
      "inputs": [
        {
          "indexed": true,
          "internalType": "bytes32",
          "name": "quoteHash",
          "type": "bytes32"
        },
        {
          "indexed": false,
          "internalType": "uint256",
          "name": "amount",
          "type": "uint256"
        }
      ],
      "name": "DaoFeeSent",
      "type": "event"
    },
    {
      "anonymous": false,
      "inputs": [
        {
          "indexed": false,
          "internalType": "uint8",
          "name": "version",
          "type": "uint8"
        }
      ],
      "name": "Initialized",
      "type": "event"
    },
    {
      "anonymous": false,
      "inputs": [
        {
          "indexed": true,
          "internalType": "address",
          "name": "previousOwner",
          "type": "address"
        },
        {
          "indexed": true,
          "internalType": "address",
          "name": "newOwner",
          "type": "address"
        }
      ],
      "name": "OwnershipTransferred",
      "type": "event"
    },
    {
      "anonymous": false,
      "inputs": [
        {
          "indexed": true,
          "internalType": "bytes32",
          "name": "quoteHash",
          "type": "bytes32"
        },
        {
          "indexed": false,
          "internalType": "int256",
          "name": "transferredAmount",
          "type": "int256"
        }
      ],
      "name": "PegInRegistered",
      "type": "event"
    },
    {
      "anonymous": false,
      "inputs": [
        {
          "indexed": true,
          "internalType": "bytes32",
          "name": "quoteHash",
          "type": "bytes32"
        },
        {
          "indexed": true,
          "internalType": "address",
          "name": "sender",
          "type": "address"
        },
        {
          "indexed": false,
          "internalType": "uint256",
          "name": "amount",
          "type": "uint256"
        },
        {
          "indexed": false,
          "internalType": "uint256",
          "name": "timestamp",
          "type": "uint256"
        }
      ],
      "name": "PegOutDeposit",
      "type": "event"
    },
    {
      "anonymous": false,
      "inputs": [
        {
          "indexed": true,
          "internalType": "bytes32",
          "name": "quoteHash",
          "type": "bytes32"
        }
      ],
      "name": "PegOutRefunded",
      "type": "event"
    },
    {
      "anonymous": false,
      "inputs": [
        {
          "indexed": true,
          "internalType": "bytes32",
          "name": "quoteHash",
          "type": "bytes32"
        },
        {
          "indexed": false,
          "internalType": "uint256",
          "name": "value",
          "type": "uint256"
        },
        {
          "indexed": false,
          "internalType": "address",
          "name": "userAddress",
          "type": "address"
        }
      ],
      "name": "PegOutUserRefunded",
      "type": "event"
    },
    {
      "anonymous": false,
      "inputs": [
        {
          "indexed": false,
          "internalType": "address",
          "name": "from",
          "type": "address"
        },
        {
          "indexed": false,
          "internalType": "uint256",
          "name": "amount",
          "type": "uint256"
        }
      ],
      "name": "PegoutCollateralIncrease",
      "type": "event"
    },
    {
      "anonymous": false,
      "inputs": [
        {
          "indexed": false,
          "internalType": "address",
          "name": "liquidityProvider",
          "type": "address"
        },
        {
          "indexed": false,
          "internalType": "uint256",
          "name": "penalty",
          "type": "uint256"
        },
        {
          "indexed": false,
          "internalType": "bytes32",
          "name": "quoteHash",
          "type": "bytes32"
        }
      ],
      "name": "Penalized",
      "type": "event"
    },
    {
      "anonymous": false,
      "inputs": [
        {
          "indexed": true,
          "internalType": "address",
          "name": "providerAddress",
          "type": "address"
        },
        {
          "indexed": false,
          "internalType": "string",
          "name": "name",
          "type": "string"
        },
        {
          "indexed": false,
          "internalType": "string",
          "name": "url",
          "type": "string"
        }
      ],
      "name": "ProviderUpdate",
      "type": "event"
    },
    {
      "anonymous": false,
      "inputs": [
        {
          "indexed": false,
          "internalType": "address",
          "name": "dest",
          "type": "address"
        },
        {
          "indexed": false,
          "internalType": "uint256",
          "name": "amount",
          "type": "uint256"
        },
        {
          "indexed": false,
          "internalType": "bool",
          "name": "success",
          "type": "bool"
        },
        {
          "indexed": false,
          "internalType": "bytes32",
          "name": "quoteHash",
          "type": "bytes32"
        }
      ],
      "name": "Refund",
      "type": "event"
    },
    {
      "anonymous": false,
      "inputs": [
        {
          "indexed": false,
          "internalType": "uint256",
          "name": "id",
          "type": "uint256"
        },
        {
          "indexed": true,
          "internalType": "address",
          "name": "from",
          "type": "address"
        },
        {
          "indexed": false,
          "internalType": "uint256",
          "name": "amount",
          "type": "uint256"
        }
      ],
      "name": "Register",
      "type": "event"
    },
    {
      "anonymous": false,
      "inputs": [
        {
          "indexed": false,
          "internalType": "address",
          "name": "from",
          "type": "address"
        }
      ],
      "name": "Resigned",
      "type": "event"
    },
    {
      "anonymous": false,
      "inputs": [
        {
          "indexed": false,
          "internalType": "address",
          "name": "from",
          "type": "address"
        },
        {
          "indexed": false,
          "internalType": "uint256",
          "name": "amount",
          "type": "uint256"
        }
      ],
      "name": "WithdrawCollateral",
      "type": "event"
    },
    {
      "anonymous": false,
      "inputs": [
        {
          "indexed": false,
          "internalType": "address",
          "name": "from",
          "type": "address"
        },
        {
          "indexed": false,
          "internalType": "uint256",
          "name": "amount",
          "type": "uint256"
        }
      ],
      "name": "Withdrawal",
      "type": "event"
    },
    {
      "inputs": [],
      "name": "BRIDGE_GENERIC_ERROR",
      "outputs": [
        {
          "internalType": "int16",
          "name": "",
          "type": "int16"
        }
      ],
      "stateMutability": "view",
      "type": "function",
      "constant": true
    },
    {
      "inputs": [],
      "name": "BRIDGE_REFUNDED_LP_ERROR_CODE",
      "outputs": [
        {
          "internalType": "int16",
          "name": "",
          "type": "int16"
        }
      ],
      "stateMutability": "view",
      "type": "function",
      "constant": true
    },
    {
      "inputs": [],
      "name": "BRIDGE_REFUNDED_USER_ERROR_CODE",
      "outputs": [
        {
          "internalType": "int16",
          "name": "",
          "type": "int16"
        }
      ],
      "stateMutability": "view",
      "type": "function",
      "constant": true
    },
    {
      "inputs": [],
      "name": "BRIDGE_UNPROCESSABLE_TX_ALREADY_PROCESSED_ERROR_CODE",
      "outputs": [
        {
          "internalType": "int16",
          "name": "",
          "type": "int16"
        }
      ],
      "stateMutability": "view",
      "type": "function",
      "constant": true
    },
    {
      "inputs": [],
      "name": "BRIDGE_UNPROCESSABLE_TX_INVALID_SENDER_ERROR_CODE",
      "outputs": [
        {
          "internalType": "int16",
          "name": "",
          "type": "int16"
        }
      ],
      "stateMutability": "view",
      "type": "function",
      "constant": true
    },
    {
      "inputs": [],
      "name": "BRIDGE_UNPROCESSABLE_TX_NOT_CONTRACT_ERROR_CODE",
      "outputs": [
        {
          "internalType": "int16",
          "name": "",
          "type": "int16"
        }
      ],
      "stateMutability": "view",
      "type": "function",
      "constant": true
    },
    {
      "inputs": [],
      "name": "BRIDGE_UNPROCESSABLE_TX_UTXO_AMOUNT_SENT_BELOW_MINIMUM_ERROR",
      "outputs": [
        {
          "internalType": "int16",
          "name": "",
          "type": "int16"
        }
      ],
      "stateMutability": "view",
      "type": "function",
      "constant": true
    },
    {
      "inputs": [],
      "name": "BRIDGE_UNPROCESSABLE_TX_VALIDATIONS_ERROR",
      "outputs": [
        {
          "internalType": "int16",
          "name": "",
          "type": "int16"
        }
      ],
      "stateMutability": "view",
      "type": "function",
      "constant": true
    },
    {
      "inputs": [],
      "name": "BRIDGE_UNPROCESSABLE_TX_VALUE_ZERO_ERROR",
      "outputs": [
        {
          "internalType": "int16",
          "name": "",
          "type": "int16"
        }
      ],
      "stateMutability": "view",
      "type": "function",
      "constant": true
    },
    {
      "inputs": [],
      "name": "CALL_DONE_CODE",
      "outputs": [
        {
          "internalType": "uint8",
          "name": "",
          "type": "uint8"
        }
      ],
      "stateMutability": "view",
      "type": "function",
      "constant": true
    },
    {
      "inputs": [],
      "name": "MAX_CALL_GAS_COST",
      "outputs": [
        {
          "internalType": "uint16",
          "name": "",
          "type": "uint16"
        }
      ],
      "stateMutability": "view",
      "type": "function",
      "constant": true
    },
    {
      "inputs": [],
      "name": "MAX_REFUND_GAS_LIMIT",
      "outputs": [
        {
          "internalType": "uint16",
          "name": "",
          "type": "uint16"
        }
      ],
      "stateMutability": "view",
      "type": "function",
      "constant": true
    },
    {
      "inputs": [],
      "name": "PAY_TO_ADDRESS_OUTPUT",
      "outputs": [
        {
          "internalType": "uint256",
          "name": "",
          "type": "uint256"
        }
      ],
      "stateMutability": "view",
      "type": "function",
      "constant": true
    },
    {
      "inputs": [],
      "name": "PROCESSED_QUOTE_CODE",
      "outputs": [
        {
          "internalType": "uint8",
          "name": "",
          "type": "uint8"
        }
      ],
      "stateMutability": "view",
      "type": "function",
      "constant": true
    },
    {
      "inputs": [],
      "name": "QUOTE_HASH_OUTPUT",
      "outputs": [
        {
          "internalType": "uint256",
          "name": "",
          "type": "uint256"
        }
      ],
      "stateMutability": "view",
      "type": "function",
      "constant": true
    },
    {
      "inputs": [],
      "name": "UNPROCESSED_QUOTE_CODE",
      "outputs": [
        {
          "internalType": "uint8",
          "name": "",
          "type": "uint8"
        }
      ],
      "stateMutability": "view",
      "type": "function",
      "constant": true
    },
    {
      "inputs": [],
      "name": "bridge",
      "outputs": [
        {
          "internalType": "contract Bridge",
          "name": "",
          "type": "address"
        }
      ],
      "stateMutability": "view",
      "type": "function",
      "constant": true
    },
    {
      "inputs": [],
      "name": "daoFeeCollectorAddress",
      "outputs": [
        {
          "internalType": "address",
          "name": "",
          "type": "address"
        }
      ],
      "stateMutability": "view",
      "type": "function",
      "constant": true
    },
    {
      "inputs": [],
      "name": "owner",
      "outputs": [
        {
          "internalType": "address",
          "name": "",
          "type": "address"
        }
      ],
      "stateMutability": "view",
      "type": "function",
      "constant": true
    },
    {
      "inputs": [],
      "name": "productFeePercentage",
      "outputs": [
        {
          "internalType": "uint256",
          "name": "",
          "type": "uint256"
        }
      ],
      "stateMutability": "view",
      "type": "function",
      "constant": true
    },
    {
      "inputs": [],
      "name": "providerId",
      "outputs": [
        {
          "internalType": "uint256",
          "name": "",
          "type": "uint256"
        }
      ],
      "stateMutability": "view",
      "type": "function",
      "constant": true
    },
    {
      "inputs": [],
      "name": "renounceOwnership",
      "outputs": [],
      "stateMutability": "nonpayable",
      "type": "function"
    },
    {
      "inputs": [
        {
          "internalType": "address",
          "name": "newOwner",
          "type": "address"
        }
      ],
      "name": "transferOwnership",
      "outputs": [],
      "stateMutability": "nonpayable",
      "type": "function"
    },
    {
      "stateMutability": "payable",
      "type": "receive",
      "payable": true
    },
    {
      "inputs": [
        {
          "internalType": "uint256",
          "name": "_providerId",
          "type": "uint256"
        },
        {
          "internalType": "bool",
          "name": "status",
          "type": "bool"
        }
      ],
      "name": "setProviderStatus",
      "outputs": [],
      "stateMutability": "nonpayable",
      "type": "function"
    },
    {
      "inputs": [],
      "name": "getProviderIds",
      "outputs": [
        {
          "internalType": "uint256",
          "name": "",
          "type": "uint256"
        }
      ],
      "stateMutability": "view",
      "type": "function",
      "constant": true
    },
    {
      "inputs": [],
      "name": "getBridgeAddress",
      "outputs": [
        {
          "internalType": "address",
          "name": "",
          "type": "address"
        }
      ],
      "stateMutability": "view",
      "type": "function",
      "constant": true
    },
    {
      "inputs": [],
      "name": "getMinCollateral",
      "outputs": [
        {
          "internalType": "uint256",
          "name": "",
          "type": "uint256"
        }
      ],
      "stateMutability": "view",
      "type": "function",
      "constant": true
    },
    {
      "inputs": [],
      "name": "getMinPegIn",
      "outputs": [
        {
          "internalType": "uint256",
          "name": "",
          "type": "uint256"
        }
      ],
      "stateMutability": "view",
      "type": "function",
      "constant": true
    },
    {
      "inputs": [],
      "name": "getRewardPercentage",
      "outputs": [
        {
          "internalType": "uint256",
          "name": "",
          "type": "uint256"
        }
      ],
      "stateMutability": "view",
      "type": "function",
      "constant": true
    },
    {
      "inputs": [],
      "name": "getResignDelayBlocks",
      "outputs": [
        {
          "internalType": "uint256",
          "name": "",
          "type": "uint256"
        }
      ],
      "stateMutability": "view",
      "type": "function",
      "constant": true
    },
    {
      "inputs": [],
      "name": "getDustThreshold",
      "outputs": [
        {
          "internalType": "uint256",
          "name": "",
          "type": "uint256"
        }
      ],
      "stateMutability": "view",
      "type": "function",
      "constant": true
    },
    {
      "inputs": [
        {
          "internalType": "bytes32",
          "name": "quoteHash",
          "type": "bytes32"
        }
      ],
      "name": "isPegOutQuoteCompleted",
      "outputs": [
        {
          "internalType": "bool",
          "name": "",
          "type": "bool"
        }
      ],
      "stateMutability": "view",
      "type": "function",
      "constant": true
    },
    {
      "inputs": [
        {
          "internalType": "address",
          "name": "addr",
          "type": "address"
        }
      ],
      "name": "isOperational",
      "outputs": [
        {
          "internalType": "bool",
          "name": "",
          "type": "bool"
        }
      ],
      "stateMutability": "view",
      "type": "function",
      "constant": true
    },
    {
      "inputs": [
        {
          "internalType": "address",
          "name": "addr",
          "type": "address"
        }
      ],
      "name": "isOperationalForPegout",
      "outputs": [
        {
          "internalType": "bool",
          "name": "",
          "type": "bool"
        }
      ],
      "stateMutability": "view",
      "type": "function",
      "constant": true
    },
    {
      "inputs": [
        {
          "internalType": "string",
          "name": "_name",
          "type": "string"
        },
        {
          "internalType": "string",
          "name": "_apiBaseUrl",
          "type": "string"
        },
        {
          "internalType": "bool",
          "name": "_status",
          "type": "bool"
        },
        {
          "internalType": "string",
          "name": "_providerType",
          "type": "string"
        }
      ],
      "name": "register",
      "outputs": [
        {
          "internalType": "uint256",
          "name": "",
          "type": "uint256"
        }
      ],
      "stateMutability": "payable",
      "type": "function",
      "payable": true
    },
    {
      "inputs": [
        {
          "internalType": "uint256[]",
          "name": "providerIds",
          "type": "uint256[]"
        }
      ],
      "name": "getProviders",
      "outputs": [
        {
          "components": [
            {
              "internalType": "uint256",
              "name": "id",
              "type": "uint256"
            },
            {
              "internalType": "address",
              "name": "provider",
              "type": "address"
            },
            {
              "internalType": "string",
              "name": "name",
              "type": "string"
            },
            {
              "internalType": "string",
              "name": "apiBaseUrl",
              "type": "string"
            },
            {
              "internalType": "bool",
              "name": "status",
              "type": "bool"
            },
            {
              "internalType": "string",
              "name": "providerType",
              "type": "string"
            }
          ],
          "internalType": "struct LiquidityBridgeContractV2.LiquidityProvider[]",
          "name": "",
          "type": "tuple[]"
        }
      ],
      "stateMutability": "view",
      "type": "function",
      "constant": true
    },
    {
      "inputs": [],
      "name": "addCollateral",
      "outputs": [],
      "stateMutability": "payable",
      "type": "function",
      "payable": true
    },
    {
      "inputs": [],
      "name": "addPegoutCollateral",
      "outputs": [],
      "stateMutability": "payable",
      "type": "function",
      "payable": true
    },
    {
      "inputs": [],
      "name": "deposit",
      "outputs": [],
      "stateMutability": "payable",
      "type": "function",
      "payable": true
    },
    {
      "inputs": [
        {
          "internalType": "uint256",
          "name": "amount",
          "type": "uint256"
        }
      ],
      "name": "withdraw",
      "outputs": [],
      "stateMutability": "nonpayable",
      "type": "function"
    },
    {
      "inputs": [],
      "name": "withdrawCollateral",
      "outputs": [],
      "stateMutability": "nonpayable",
      "type": "function"
    },
    {
      "inputs": [],
      "name": "resign",
      "outputs": [],
      "stateMutability": "nonpayable",
      "type": "function"
    },
    {
      "inputs": [
        {
          "internalType": "address",
          "name": "addr",
          "type": "address"
        }
      ],
      "name": "getCollateral",
      "outputs": [
        {
          "internalType": "uint256",
          "name": "",
          "type": "uint256"
        }
      ],
      "stateMutability": "view",
      "type": "function",
      "constant": true
    },
    {
      "inputs": [
        {
          "internalType": "address",
          "name": "addr",
          "type": "address"
        }
      ],
      "name": "getPegoutCollateral",
      "outputs": [
        {
          "internalType": "uint256",
          "name": "",
          "type": "uint256"
        }
      ],
      "stateMutability": "view",
      "type": "function",
      "constant": true
    },
    {
      "inputs": [
        {
          "internalType": "address",
          "name": "addr",
          "type": "address"
        }
      ],
      "name": "getBalance",
      "outputs": [
        {
          "internalType": "uint256",
          "name": "",
          "type": "uint256"
        }
      ],
      "stateMutability": "view",
      "type": "function",
      "constant": true
    },
    {
      "inputs": [
        {
          "components": [
            {
              "internalType": "bytes20",
              "name": "fedBtcAddress",
              "type": "bytes20"
            },
            {
              "internalType": "address",
              "name": "lbcAddress",
              "type": "address"
            },
            {
              "internalType": "address",
              "name": "liquidityProviderRskAddress",
              "type": "address"
            },
            {
              "internalType": "bytes",
              "name": "btcRefundAddress",
              "type": "bytes"
            },
            {
              "internalType": "address payable",
              "name": "rskRefundAddress",
              "type": "address"
            },
            {
              "internalType": "bytes",
              "name": "liquidityProviderBtcAddress",
              "type": "bytes"
            },
            {
              "internalType": "uint256",
              "name": "callFee",
              "type": "uint256"
            },
            {
              "internalType": "uint256",
              "name": "penaltyFee",
              "type": "uint256"
            },
            {
              "internalType": "address",
              "name": "contractAddress",
              "type": "address"
            },
            {
              "internalType": "bytes",
              "name": "data",
              "type": "bytes"
            },
            {
              "internalType": "uint32",
              "name": "gasLimit",
              "type": "uint32"
            },
            {
              "internalType": "int64",
              "name": "nonce",
              "type": "int64"
            },
            {
              "internalType": "uint256",
              "name": "value",
              "type": "uint256"
            },
            {
              "internalType": "uint32",
              "name": "agreementTimestamp",
              "type": "uint32"
            },
            {
              "internalType": "uint32",
              "name": "timeForDeposit",
              "type": "uint32"
            },
            {
              "internalType": "uint32",
              "name": "callTime",
              "type": "uint32"
            },
            {
              "internalType": "uint16",
              "name": "depositConfirmations",
              "type": "uint16"
            },
            {
              "internalType": "bool",
              "name": "callOnRegister",
              "type": "bool"
            },
            {
              "internalType": "uint256",
              "name": "productFeeAmount",
              "type": "uint256"
            },
            {
              "internalType": "uint256",
              "name": "gasFee",
              "type": "uint256"
            }
          ],
          "internalType": "struct QuotesV2.PeginQuote",
          "name": "quote",
          "type": "tuple"
        }
      ],
      "name": "callForUser",
      "outputs": [
        {
          "internalType": "bool",
          "name": "",
          "type": "bool"
        }
      ],
      "stateMutability": "payable",
      "type": "function",
      "payable": true
    },
    {
      "inputs": [
        {
          "components": [
            {
              "internalType": "bytes20",
              "name": "fedBtcAddress",
              "type": "bytes20"
            },
            {
              "internalType": "address",
              "name": "lbcAddress",
              "type": "address"
            },
            {
              "internalType": "address",
              "name": "liquidityProviderRskAddress",
              "type": "address"
            },
            {
              "internalType": "bytes",
              "name": "btcRefundAddress",
              "type": "bytes"
            },
            {
              "internalType": "address payable",
              "name": "rskRefundAddress",
              "type": "address"
            },
            {
              "internalType": "bytes",
              "name": "liquidityProviderBtcAddress",
              "type": "bytes"
            },
            {
              "internalType": "uint256",
              "name": "callFee",
              "type": "uint256"
            },
            {
              "internalType": "uint256",
              "name": "penaltyFee",
              "type": "uint256"
            },
            {
              "internalType": "address",
              "name": "contractAddress",
              "type": "address"
            },
            {
              "internalType": "bytes",
              "name": "data",
              "type": "bytes"
            },
            {
              "internalType": "uint32",
              "name": "gasLimit",
              "type": "uint32"
            },
            {
              "internalType": "int64",
              "name": "nonce",
              "type": "int64"
            },
            {
              "internalType": "uint256",
              "name": "value",
              "type": "uint256"
            },
            {
              "internalType": "uint32",
              "name": "agreementTimestamp",
              "type": "uint32"
            },
            {
              "internalType": "uint32",
              "name": "timeForDeposit",
              "type": "uint32"
            },
            {
              "internalType": "uint32",
              "name": "callTime",
              "type": "uint32"
            },
            {
              "internalType": "uint16",
              "name": "depositConfirmations",
              "type": "uint16"
            },
            {
              "internalType": "bool",
              "name": "callOnRegister",
              "type": "bool"
            },
            {
              "internalType": "uint256",
              "name": "productFeeAmount",
              "type": "uint256"
            },
            {
              "internalType": "uint256",
              "name": "gasFee",
              "type": "uint256"
            }
          ],
          "internalType": "struct QuotesV2.PeginQuote",
          "name": "quote",
          "type": "tuple"
        },
        {
          "internalType": "bytes",
          "name": "signature",
          "type": "bytes"
        },
        {
          "internalType": "bytes",
          "name": "btcRawTransaction",
          "type": "bytes"
        },
        {
          "internalType": "bytes",
          "name": "partialMerkleTree",
          "type": "bytes"
        },
        {
          "internalType": "uint256",
          "name": "height",
          "type": "uint256"
        }
      ],
      "name": "registerPegIn",
      "outputs": [
        {
          "internalType": "int256",
          "name": "",
          "type": "int256"
        }
      ],
      "stateMutability": "nonpayable",
      "type": "function"
    },
    {
      "inputs": [
        {
          "components": [
            {
              "internalType": "address",
              "name": "lbcAddress",
              "type": "address"
            },
            {
              "internalType": "address",
              "name": "lpRskAddress",
              "type": "address"
            },
            {
              "internalType": "bytes",
              "name": "btcRefundAddress",
              "type": "bytes"
            },
            {
              "internalType": "address",
              "name": "rskRefundAddress",
              "type": "address"
            },
            {
              "internalType": "bytes",
              "name": "lpBtcAddress",
              "type": "bytes"
            },
            {
              "internalType": "uint256",
              "name": "callFee",
              "type": "uint256"
            },
            {
              "internalType": "uint256",
              "name": "penaltyFee",
              "type": "uint256"
            },
            {
              "internalType": "int64",
              "name": "nonce",
              "type": "int64"
            },
            {
              "internalType": "bytes",
              "name": "deposityAddress",
              "type": "bytes"
            },
            {
              "internalType": "uint256",
              "name": "value",
              "type": "uint256"
            },
            {
              "internalType": "uint32",
              "name": "agreementTimestamp",
              "type": "uint32"
            },
            {
              "internalType": "uint32",
              "name": "depositDateLimit",
              "type": "uint32"
            },
            {
              "internalType": "uint16",
              "name": "depositConfirmations",
              "type": "uint16"
            },
            {
              "internalType": "uint16",
              "name": "transferConfirmations",
              "type": "uint16"
            },
            {
              "internalType": "uint32",
              "name": "transferTime",
              "type": "uint32"
            },
            {
              "internalType": "uint32",
              "name": "expireDate",
              "type": "uint32"
            },
            {
              "internalType": "uint32",
              "name": "expireBlock",
              "type": "uint32"
            },
            {
              "internalType": "uint256",
              "name": "productFeeAmount",
              "type": "uint256"
            },
            {
              "internalType": "uint256",
              "name": "gasFee",
              "type": "uint256"
            }
          ],
          "internalType": "struct QuotesV2.PegOutQuote",
          "name": "quote",
          "type": "tuple"
        },
        {
          "internalType": "bytes",
          "name": "signature",
          "type": "bytes"
        }
      ],
      "name": "depositPegout",
      "outputs": [],
      "stateMutability": "payable",
      "type": "function",
      "payable": true
    },
    {
      "inputs": [
        {
          "internalType": "bytes32",
          "name": "quoteHash",
          "type": "bytes32"
        }
      ],
      "name": "refundUserPegOut",
      "outputs": [],
      "stateMutability": "nonpayable",
      "type": "function"
    },
    {
      "inputs": [
        {
          "internalType": "bytes32",
          "name": "quoteHash",
          "type": "bytes32"
        },
        {
          "internalType": "bytes",
          "name": "btcTx",
          "type": "bytes"
        },
        {
          "internalType": "bytes32",
          "name": "btcBlockHeaderHash",
          "type": "bytes32"
        },
        {
          "internalType": "uint256",
          "name": "partialMerkleTree",
          "type": "uint256"
        },
        {
          "internalType": "bytes32[]",
          "name": "merkleBranchHashes",
          "type": "bytes32[]"
        }
      ],
      "name": "refundPegOut",
      "outputs": [],
      "stateMutability": "nonpayable",
      "type": "function"
    },
    {
      "inputs": [
        {
          "components": [
            {
              "internalType": "bytes20",
              "name": "fedBtcAddress",
              "type": "bytes20"
            },
            {
              "internalType": "address",
              "name": "lbcAddress",
              "type": "address"
            },
            {
              "internalType": "address",
              "name": "liquidityProviderRskAddress",
              "type": "address"
            },
            {
              "internalType": "bytes",
              "name": "btcRefundAddress",
              "type": "bytes"
            },
            {
              "internalType": "address payable",
              "name": "rskRefundAddress",
              "type": "address"
            },
            {
              "internalType": "bytes",
              "name": "liquidityProviderBtcAddress",
              "type": "bytes"
            },
            {
              "internalType": "uint256",
              "name": "callFee",
              "type": "uint256"
            },
            {
              "internalType": "uint256",
              "name": "penaltyFee",
              "type": "uint256"
            },
            {
              "internalType": "address",
              "name": "contractAddress",
              "type": "address"
            },
            {
              "internalType": "bytes",
              "name": "data",
              "type": "bytes"
            },
            {
              "internalType": "uint32",
              "name": "gasLimit",
              "type": "uint32"
            },
            {
              "internalType": "int64",
              "name": "nonce",
              "type": "int64"
            },
            {
              "internalType": "uint256",
              "name": "value",
              "type": "uint256"
            },
            {
              "internalType": "uint32",
              "name": "agreementTimestamp",
              "type": "uint32"
            },
            {
              "internalType": "uint32",
              "name": "timeForDeposit",
              "type": "uint32"
            },
            {
              "internalType": "uint32",
              "name": "callTime",
              "type": "uint32"
            },
            {
              "internalType": "uint16",
              "name": "depositConfirmations",
              "type": "uint16"
            },
            {
              "internalType": "bool",
              "name": "callOnRegister",
              "type": "bool"
            },
            {
              "internalType": "uint256",
              "name": "productFeeAmount",
              "type": "uint256"
            },
            {
              "internalType": "uint256",
              "name": "gasFee",
              "type": "uint256"
            }
          ],
          "internalType": "struct QuotesV2.PeginQuote",
          "name": "quote",
          "type": "tuple"
        },
        {
          "internalType": "bytes",
          "name": "depositAddress",
          "type": "bytes"
        }
      ],
      "name": "validatePeginDepositAddress",
      "outputs": [
        {
          "internalType": "bool",
          "name": "",
          "type": "bool"
        }
      ],
      "stateMutability": "view",
      "type": "function",
      "constant": true
    },
    {
      "inputs": [
        {
          "components": [
            {
              "internalType": "bytes20",
              "name": "fedBtcAddress",
              "type": "bytes20"
            },
            {
              "internalType": "address",
              "name": "lbcAddress",
              "type": "address"
            },
            {
              "internalType": "address",
              "name": "liquidityProviderRskAddress",
              "type": "address"
            },
            {
              "internalType": "bytes",
              "name": "btcRefundAddress",
              "type": "bytes"
            },
            {
              "internalType": "address payable",
              "name": "rskRefundAddress",
              "type": "address"
            },
            {
              "internalType": "bytes",
              "name": "liquidityProviderBtcAddress",
              "type": "bytes"
            },
            {
              "internalType": "uint256",
              "name": "callFee",
              "type": "uint256"
            },
            {
              "internalType": "uint256",
              "name": "penaltyFee",
              "type": "uint256"
            },
            {
              "internalType": "address",
              "name": "contractAddress",
              "type": "address"
            },
            {
              "internalType": "bytes",
              "name": "data",
              "type": "bytes"
            },
            {
              "internalType": "uint32",
              "name": "gasLimit",
              "type": "uint32"
            },
            {
              "internalType": "int64",
              "name": "nonce",
              "type": "int64"
            },
            {
              "internalType": "uint256",
              "name": "value",
              "type": "uint256"
            },
            {
              "internalType": "uint32",
              "name": "agreementTimestamp",
              "type": "uint32"
            },
            {
              "internalType": "uint32",
              "name": "timeForDeposit",
              "type": "uint32"
            },
            {
              "internalType": "uint32",
              "name": "callTime",
              "type": "uint32"
            },
            {
              "internalType": "uint16",
              "name": "depositConfirmations",
              "type": "uint16"
            },
            {
              "internalType": "bool",
              "name": "callOnRegister",
              "type": "bool"
            },
            {
              "internalType": "uint256",
              "name": "productFeeAmount",
              "type": "uint256"
            },
            {
              "internalType": "uint256",
              "name": "gasFee",
              "type": "uint256"
            }
          ],
          "internalType": "struct QuotesV2.PeginQuote",
          "name": "quote",
          "type": "tuple"
        }
      ],
      "name": "hashQuote",
      "outputs": [
        {
          "internalType": "bytes32",
          "name": "",
          "type": "bytes32"
        }
      ],
      "stateMutability": "view",
      "type": "function",
      "constant": true
    },
    {
      "inputs": [
        {
          "components": [
            {
              "internalType": "address",
              "name": "lbcAddress",
              "type": "address"
            },
            {
              "internalType": "address",
              "name": "lpRskAddress",
              "type": "address"
            },
            {
              "internalType": "bytes",
              "name": "btcRefundAddress",
              "type": "bytes"
            },
            {
              "internalType": "address",
              "name": "rskRefundAddress",
              "type": "address"
            },
            {
              "internalType": "bytes",
              "name": "lpBtcAddress",
              "type": "bytes"
            },
            {
              "internalType": "uint256",
              "name": "callFee",
              "type": "uint256"
            },
            {
              "internalType": "uint256",
              "name": "penaltyFee",
              "type": "uint256"
            },
            {
              "internalType": "int64",
              "name": "nonce",
              "type": "int64"
            },
            {
              "internalType": "bytes",
              "name": "deposityAddress",
              "type": "bytes"
            },
            {
              "internalType": "uint256",
              "name": "value",
              "type": "uint256"
            },
            {
              "internalType": "uint32",
              "name": "agreementTimestamp",
              "type": "uint32"
            },
            {
              "internalType": "uint32",
              "name": "depositDateLimit",
              "type": "uint32"
            },
            {
              "internalType": "uint16",
              "name": "depositConfirmations",
              "type": "uint16"
            },
            {
              "internalType": "uint16",
              "name": "transferConfirmations",
              "type": "uint16"
            },
            {
              "internalType": "uint32",
              "name": "transferTime",
              "type": "uint32"
            },
            {
              "internalType": "uint32",
              "name": "expireDate",
              "type": "uint32"
            },
            {
              "internalType": "uint32",
              "name": "expireBlock",
              "type": "uint32"
            },
            {
              "internalType": "uint256",
              "name": "productFeeAmount",
              "type": "uint256"
            },
            {
              "internalType": "uint256",
              "name": "gasFee",
              "type": "uint256"
            }
          ],
          "internalType": "struct QuotesV2.PegOutQuote",
          "name": "quote",
          "type": "tuple"
        }
      ],
      "name": "hashPegoutQuote",
      "outputs": [
        {
          "internalType": "bytes32",
          "name": "",
          "type": "bytes32"
        }
      ],
      "stateMutability": "view",
      "type": "function",
      "constant": true
    },
    {
      "inputs": [
        {
          "internalType": "string",
          "name": "_name",
          "type": "string"
        },
        {
          "internalType": "string",
          "name": "_url",
          "type": "string"
        }
      ],
      "name": "updateProvider",
      "outputs": [],
      "stateMutability": "nonpayable",
      "type": "function"
    }
  ],
  "bytecode": "0x608060405234801561001057600080fd5b50615c6480620000216000396000f3fe6080604052600436106102695760003560e01c80630220f41d146102bd57806304ade855146102dd5780630a7bf57a146103095780630a9cb4a71461031e578063221400091461033d5780632d67952c1461035d5780632e1a7d4d1461037d57806333f07ad31461039d57806341705518146103b2578063418663a2146103c55780634198687e146103ef578063457385f2146103f75780634d0ec9711461042757806354015ee01461044757806359c153be1461047a57806363c671351461048f578063668dbd83146104a557806369652fcf146104d2578063710738b1146104e7578063715018a61461051457806372cbf4e81461052957806379b9550b146105495780637aefa8c2146105695780638490a8df1461057c5780638beb537a146105925780638d597939146105a55780638da5cb5b146105bc5780638f91797d146105d15780639b56d6c9146105f15780639cd6557f146106275780639d79b59b1461063c5780639e81699914610665578063a4a5ba501461066d578063a93bb24714610682578063ae76ce8614610699578063ae93b67b146106b0578063b3a849aa146106c7578063bd519eff146106e7578063bd5798c31461071d578063be6de4eb1461073f578063c525cdd814610754578063c72131631461076b578063cfb92f0a14610786578063d0e30db01461079d578063d6c70de8146107a5578063e1de16c6146107c5578063e30e6ea3146107db578063e78cea92146107f1578063e830b69014610811578063e8fcce7114610826578063f2fde38b1461083c578063f8b2cb4f1461085c578063fa88dcde14610892578063fb32c508146108a757600080fd5b366102b8576097546001600160a01b031633146102b65760405162461bcd60e51b81526020600482015260066024820152654c424330303760d01b60448201526064015b60405180910390fd5b005b600080fd5b3480156102c957600080fd5b506102b66102d83660046145c2565b6108c5565b3480156102e957600080fd5b506102f2600181565b60405160ff90911681526020015b60405180910390f35b34801561031557600080fd5b506102f2600281565b34801561032a57600080fd5b5060a2545b604051908152602001610300565b34801561034957600080fd5b5061032f61035836600461480d565b6109d7565b34801561036957600080fd5b5061032f610378366004614a15565b6109e8565b34801561038957600080fd5b506102b6610398366004614ac9565b6111fa565b3480156103a957600080fd5b5060a15461032f565b61032f6103c0366004614ae2565b6112f2565b3480156103d157600080fd5b506103dc6101301981565b60405160019190910b8152602001610300565b6102b6611824565b34801561040357600080fd5b50610417610412366004614b7e565b6118a9565b6040519015158152602001610300565b34801561043357600080fd5b50610417610442366004614b7e565b6118df565b34801561045357600080fd5b50610417610462366004614ac9565b600090815260a7602052604090206001015460ff1690565b34801561048657600080fd5b506102b6611915565b34801561049b57600080fd5b5061032f60a85481565b3480156104b157600080fd5b506104c56104c0366004614bbe565b611ac0565b6040516103009190614cab565b3480156104de57600080fd5b506102b6611e41565b3480156104f357600080fd5b5060a954610507906001600160a01b031681565b6040516103009190614d7a565b34801561052057600080fd5b506102b6611eec565b34801561053557600080fd5b506102b6610544366004614d8e565b611efe565b34801561055557600080fd5b50610417610564366004614dbe565b611f98565b610417610577366004614df4565b612104565b34801561058857600080fd5b5061032f60a25481565b6102b66105a0366004614e28565b612416565b3480156105b157600080fd5b506103dc61012c1981565b3480156105c857600080fd5b506105076128cf565b3480156105dd57600080fd5b506102b66105ec366004614ac9565b6128de565b3480156105fd57600080fd5b5061032f61060c366004614b7e565b6001600160a01b031660009081526099602052604090205490565b34801561063357600080fd5b506102f2600081565b34801561064857600080fd5b506106526188b881565b60405161ffff9091168152602001610300565b6102b6612c0b565b34801561067957600080fd5b5061032f600181565b34801561068e57600080fd5b506103dc61012d1981565b3480156106a557600080fd5b506103dc61012b1981565b3480156106bc57600080fd5b506103dc6103831981565b3480156106d357600080fd5b5061032f6106e2366004614df4565b612c86565b3480156106f357600080fd5b5061032f610702366004614b7e565b6001600160a01b03166000908152609a602052604090205490565b34801561072957600080fd5b5060a054600160201b900463ffffffff1661032f565b34801561074b57600080fd5b5061032f600081565b34801561076057600080fd5b506103dc61012e1981565b34801561077757600080fd5b5060a05463ffffffff1661032f565b34801561079257600080fd5b506103dc61012f1981565b6102b6612c91565b3480156107b157600080fd5b506102b66107c0366004614e5e565b612cc0565b3480156107d157600080fd5b506106526108fc81565b3480156107e757600080fd5b506103dc60c71981565b3480156107fd57600080fd5b50609754610507906001600160a01b031681565b34801561081d57600080fd5b50609e5461032f565b34801561083257600080fd5b506103dc60631981565b34801561084857600080fd5b506102b6610857366004614b7e565b6137b3565b34801561086857600080fd5b5061032f610877366004614b7e565b6001600160a01b031660009081526098602052604090205490565b34801561089e57600080fd5b50609f5461032f565b3480156108b357600080fd5b506097546001600160a01b0316610507565b600082511180156108d7575060008151115b61090c5760405162461bcd60e51b8152602060048201526006602482015265262121981b9b60d11b60448201526064016102ad565b600060015b60a25481116109be576000818152609b6020526040902060018101549092506001600160a01b031633036109ac576002820161094d8582614fbd565b506003820161095c8482614fbd565b50336001600160a01b03167fc15f90eb34a098bb02f2641dff62935246fb005d8f06e13d5cc6be0bddcce8e3836002018460030160405161099e9291906150f9565b60405180910390a250505050565b806109b681615134565b915050610911565b5060405162461bcd60e51b81526004016102ad9061514d565b60006109e282613829565b92915050565b60006109f26138f8565b60006109fd87613951565b600081815260a56020526040902054909150600160ff9091161115610a345760405162461bcd60e51b81526004016102ad9061516d565b60408088015190516301a86b5560e41b815273__SignatureValidator____________________91631a86b55091610a73919085908b9060040161518d565b602060405180830381865af4158015610a90573d6000803e3d6000fd5b505050506040513d601f19601f82011682018060405250810190610ab491906151b4565b610ad05760405162461bcd60e51b81526004016102ad906151d1565b637fffffff8310610b0c5760405162461bcd60e51b815260206004820152600660248201526504c42433033360d41b60448201526064016102ad565b6000610b1b8887878786613b84565b905061012f8101610b575760405162461bcd60e51b81526020600482015260066024820152654c424330333160d01b60448201526064016102ad565b61012e8101610b915760405162461bcd60e51b815260206004820152600660248201526526212198199960d11b60448201526064016102ad565b6101308101610bcb5760405162461bcd60e51b81526020600482015260066024820152654c424330333360d01b60448201526064016102ad565b6101318101610c055760405162461bcd60e51b8152602060048201526006602482015265131090cc0ccd60d21b60448201526064016102ad565b6103848101610c3f5760405162461bcd60e51b81526020600482015260066024820152654c424330333560d01b60448201526064016102ad565b6000811380610c4f575060c71981145b80610c5b575060631981145b610c905760405162461bcd60e51b815260206004820152600660248201526526212198199b60d11b60448201526064016102ad565b6000828152609c6020526040902054610cb3908990839063ffffffff1687613c56565b15610d845760e08801516040808a01516001600160a01b031660009081526099602052908120549091610ce591613fb7565b905080609960008b604001516001600160a01b03166001600160a01b031681526020019081526020016000206000828254610d2091906151f1565b90915550506040808a01519051600080516020615bef83398151915291610d4a9184908790615204565b60405180910390a160a054600090606490610d6b9063ffffffff1684615225565b610d759190615252565b9050610d813382613fcf565b50505b60c719811480610d95575060631981145b15610e0957600082815260a560209081526040808320805460ff19166002179055609c825291829020805464ffffffffff1916905581518481529081018390527ffb209329d5ab5b7bcb2e92f45f4534814b6e68fa5ad1f171dabc1d17d26f0ebe910160405180910390a191506111e79050565b60405163fa6ea3e760e01b8152819073__QuotesV2______________________________9063fa6ea3e790610e44908c9085906004016153d2565b60006040518083038186803b158015610e5c57600080fd5b505af4158015610e70573d6000803e3d6000fd5b5050506000848152609c602052604090205463ffffffff16159050610fdb576000838152609c6020526040812054600160201b900460ff1615610ee257610edb828b61026001518c60c001518d6101800151610ecc91906153f4565b610ed691906153f4565b613fb7565b9050610efe565b610efb828b61026001518c60c00151610ed691906153f4565b90505b610f0c8a6040015182613fcf565b6000610f1882846151f1565b9050610f298b61024001518661402e565b60a154811115610fd45760808b01516040516000916001600160a01b0316906108fc90849084818181858888f193505050503d8060008114610f87576040519150601f19603f3d011682016040523d82523d6000602084013e610f8c565b606091505b50509050600080516020615bcf8339815191528c60800151838389604051610fb79493929190615407565b60405180910390a180610fd257610fd28c6040015183613fcf565b505b5050611180565b61022089015181908015610ff457508961018001518110155b156110e65760008a61010001516001600160a01b03168b610140015163ffffffff168c61018001518d610120015160405161102f919061542f565b600060405180830381858888f193505050503d806000811461106d576040519150601f19603f3d011682016040523d82523d6000602084013e611072565b606091505b505090508a61010001516001600160a01b0316336001600160a01b0316600080516020615c0f8339815191528d61014001518e61018001518f6101200151868b6040516110c395949392919061544b565b60405180910390a380156110e4576101808b01516110e190836151f1565b91505b505b60a15481111561117e5760808a01516040516000916001600160a01b0316906108fc90849084818181858888f193505050503d8060008114611144576040519150601f19603f3d011682016040523d82523d6000602084013e611149565b606091505b50509050600080516020615bcf8339815191528b608001518383886040516111749493929190615407565b60405180910390a1505b505b600083815260a560209081526040808320805460ff19166002179055609c825291829020805464ffffffffff19169055905183815284917f0629ae9d1dc61501b0ca90670a9a9b88daaf7504b54537b53e1219de794c63d2910160405180910390a2509150505b6111f16001606555565b95945050505050565b336000908152609860205260409020548111156112295760405162461bcd60e51b81526004016102ad90615484565b33600090815260986020526040812080548392906112489084906151f1565b9091555050604051600090339083908381818185875af1925050503d806000811461128f576040519150601f19603f3d011682016040523d82523d6000602084013e611294565b606091505b50509050806112b55760405162461bcd60e51b81526004016102ad906154a4565b7f7fcf532c15f0a6db0bd6d0e038bea71d30d808c7d98cb3bf7268a95bf5081b6533836040516112e69291906154c4565b60405180910390a15050565b600032331461132c5760405162461bcd60e51b81526020600482015260066024820152654c424330303360d01b60448201526064016102ad565b60008551116113665760405162461bcd60e51b815260206004820152600660248201526504c42433031360d41b60448201526064016102ad565b60008451116113a05760405162461bcd60e51b81526020600482015260066024820152654c424330313760d01b60448201526064016102ad565b6040516020016113af906154dd565b60405160208183030381529060405280519060200120826040516020016113d6919061542f565b6040516020818303038152906040528051906020012014806114415750604051602001611402906154ee565b6040516020818303038152906040528051906020012082604051602001611429919061542f565b60405160208183030381529060405280519060200120145b806114995750604051630c4dee8d60e31b60208201526024016040516020818303038152906040528051906020012082604051602001611481919061542f565b60405160208183030381529060405280519060200120145b6114ce5760405162461bcd60e51b815260206004820152600660248201526509884866062760d31b60448201526064016102ad565b336000908152609960205260409020541580156114f85750336000908152609a6020526040902054155b61152d5760405162461bcd60e51b815260206004820152600660248201526504c42433037360d41b60448201526064016102ad565b336000908152609d6020526040902054156115735760405162461bcd60e51b81526020600482015260066024820152654c424330303960d01b60448201526064016102ad565b604051602001611582906154dd565b60405160208183030381529060405280519060200120826040516020016115a9919061542f565b60405160208183030381529060405280519060200120036115fd57609e543410156115e65760405162461bcd60e51b81526004016102ad90615500565b336000908152609960205260409020349055611702565b60405160200161160c906154ee565b6040516020818303038152906040528051906020012082604051602001611633919061542f565b604051602081830303815290604052805190602001200361168757609e543410156116705760405162461bcd60e51b81526004016102ad90615500565b336000908152609a60205260409020349055611702565b609e54611695906002615225565b3410156116b45760405162461bcd60e51b81526004016102ad90615500565b60006116c1600234615252565b90506116ce600234615520565b156116e3576116de8160016153f4565b6116e5565b805b33600090815260996020908152604080832093909355609a905220555b60a2805490600061171283615134565b90915550506040805160c08101825260a2548082523360208084019182528385018a8152606085018a9052881515608086015260a085018890526000938452609b909152939091208251815590516001820180546001600160a01b0319166001600160a01b03909216919091179055915190919060028201906117959082614fbd565b50606082015160038201906117aa9082614fbd565b50608082015160048201805460ff191691151591909117905560a082015160058201906117d79082614fbd565b505060a254604080519182523460208301523392507fa9d44d6e13bb3fee938c3f66d1103e91f8dc6b12d4405a55eea558e8f275aa6e910160405180910390a25060a2545b949350505050565b61182d33614100565b6118495760405162461bcd60e51b81526004016102ad9061514d565b336000908152609a6020526040812080543492906118689084906153f4565b90915550506040517f873d5a2949567203ad4f0cceef41c2813c87b9a397ee777d87a8acdaec2c6fa99061189f90339034906154c4565b60405180910390a1565b60006118b48261413f565b80156109e25750609e546001600160a01b038316600090815260996020526040902054101592915050565b60006118ea82614100565b80156109e25750609e546001600160a01b0383166000908152609a6020526040902054101592915050565b61191d6138f8565b336000908152609d60205260409020546119625760405162461bcd60e51b81526020600482015260066024820152654c424330323160d01b60448201526064016102ad565b60a054336000908152609d6020526040902054600160201b90910463ffffffff169061198e90436151f1565b10156119c55760405162461bcd60e51b815260206004820152600660248201526526212198191960d11b60448201526064016102ad565b336000908152609a602090815260408083205460999092528220546119ea91906153f4565b336000818152609a6020908152604080832083905560998252808320839055609d909152808220829055519293509183908381818185875af1925050503d8060008114611a53576040519150601f19603f3d011682016040523d82523d6000602084013e611a58565b606091505b5050905080611a795760405162461bcd60e51b81526004016102ad906154a4565b7fa8e76b822fc682be77f3b1c822ea81f6bda5aed92ba82e6873bfd889f328d1d23383604051611aaa9291906154c4565b60405180910390a15050611abe6001606555565b565b6060600082516001600160401b03811115611add57611add614491565b604051908082528060200260200182016040528015611b5257816020015b611b3f6040518060c001604052806000815260200160006001600160a01b031681526020016060815260200160608152602001600015158152602001606081525090565b815260200190600190039081611afb5790505b5090506000805b8451811015611e38576000858281518110611b7657611b76615534565b6020908102919091018101516000818152609b909252604090912060010154909150611baa906001600160a01b031661413f565b80611bd457506000818152609b6020526040902060010154611bd4906001600160a01b0316614100565b8015611bf157506000818152609b602052604090206004015460ff165b15611e25576000818152609b6020908152604091829020825160c0810184528154815260018201546001600160a01b0316928101929092526002810180549293919291840191611c4090614f34565b80601f0160208091040260200160405190810160405280929190818152602001828054611c6c90614f34565b8015611cb95780601f10611c8e57610100808354040283529160200191611cb9565b820191906000526020600020905b815481529060010190602001808311611c9c57829003601f168201915b50505050508152602001600382018054611cd290614f34565b80601f0160208091040260200160405190810160405280929190818152602001828054611cfe90614f34565b8015611d4b5780601f10611d2057610100808354040283529160200191611d4b565b820191906000526020600020905b815481529060010190602001808311611d2e57829003601f168201915b5050509183525050600482015460ff1615156020820152600582018054604090920191611d7790614f34565b80601f0160208091040260200160405190810160405280929190818152602001828054611da390614f34565b8015611df05780601f10611dc557610100808354040283529160200191611df0565b820191906000526020600020905b815481529060010190602001808311611dd357829003601f168201915b505050505081525050848481518110611e0b57611e0b615534565b60200260200101819052508280611e2190615134565b9350505b5080611e3081615134565b915050611b59565b50909392505050565b611e4a3361413f565b611e665760405162461bcd60e51b81526004016102ad9061514d565b336000908152609d602052604090205415611eac5760405162461bcd60e51b81526020600482015260066024820152654c424330323360d01b60448201526064016102ad565b336000818152609d602052604090819020439055517fa6674aa33cd1b7435474751667707bf05fde99e537d67043ec5f907782577d869161189f91614d7a565b611ef461417e565b611abe60006141dd565b81611f076128cf565b6001600160a01b0316336001600160a01b03161480611f3f57506000818152609b60205260409020600101546001600160a01b031633145b611f745760405162461bcd60e51b81526020600482015260066024820152654c424330303560d01b60448201526064016102ad565b506000918252609b6020526040909120600401805460ff1916911515919091179055565b600080611fa484612c86565b8460600151856020015160601b8660a00151604051602001611fc9949392919061554a565b604051602081830303815290604052805190602001209050600081609760009054906101000a90046001600160a01b03166001600160a01b0316631d73d5dd6040518163ffffffff1660e01b8152600401600060405180830381865afa158015612037573d6000803e3d6000fd5b505050506040513d6000823e601f3d908101601f1916820160405261205f91908101906155dc565b604051602001612070929190615610565b60408051601f198184030181529082905260a454639b02794b60e01b835290925073__BtcUtils______________________________91639b02794b916120c3918891869160ff9091169060040161564a565b602060405180830381865af41580156120e0573d6000803e3d6000fd5b505050506040513d601f19601f820116820180604052508101906111f191906151b4565b600061210f3361413f565b61212b5760405162461bcd60e51b81526004016102ad9061514d565b6121336138f8565b81604001516001600160a01b0316336001600160a01b0316146121815760405162461bcd60e51b8152602060048201526006602482015265131090cc0c8d60d21b60448201526064016102ad565b6101808201516040808401516001600160a01b03166000908152609860205220546121ad9034906153f4565b10156121cb5760405162461bcd60e51b81526004016102ad90615484565b60006121d683613951565b600081815260a5602052604090205490915060ff16156122215760405162461bcd60e51b81526020600482015260066024820152654c424330323560d01b60448201526064016102ad565b61222f836040015134613fcf565b610140830151612242906188b890615682565b63ffffffff165a10156122805760405162461bcd60e51b815260206004820152600660248201526526212198191b60d11b60448201526064016102ad565b60008361010001516001600160a01b031684610140015163ffffffff168561018001518661012001516040516122b6919061542f565b600060405180830381858888f193505050503d80600081146122f4576040519150601f19603f3d011682016040523d82523d6000602084013e6122f9565b606091505b509091505063ffffffff42111561233b5760405162461bcd60e51b81526020600482015260066024820152654c424330323760d01b60448201526064016102ad565b6000828152609c60205260409020805463ffffffff19164263ffffffff161790558015612396576000828152609c602052604090819020805460ff60201b1916600160201b179055840151610180850151612396919061422f565b8361010001516001600160a01b0316336001600160a01b0316600080516020615c0f83398151915286610140015187610180015188610120015186886040516123e395949392919061544b565b60405180910390a3600091825260a56020526040909120805460ff1916600117905590506124116001606555565b919050565b6124238260200151614100565b6124585760405162461bcd60e51b81526020600482015260066024820152654c424330333760d01b60448201526064016102ad565b348261024001518361022001518460a0015185610120015161247a91906153f4565b61248491906153f4565b61248e91906153f4565b11156124c55760405162461bcd60e51b81526020600482015260066024820152654c424330363360d01b60448201526064016102ad565b81610160015163ffffffff164211156125095760405162461bcd60e51b81526020600482015260066024820152654c424330363560d01b60448201526064016102ad565b816101e0015163ffffffff1642111561254d5760405162461bcd60e51b8152602060048201526006602482015265262121981a1b60d11b60448201526064016102ad565b81610200015163ffffffff164311156125915760405162461bcd60e51b81526020600482015260066024820152654c424330343760d01b60448201526064016102ad565b600061259c836109d7565b60208401516040516301a86b5560e41b815291925073__SignatureValidator____________________91631a86b550916125dd918590879060040161518d565b602060405180830381865af41580156125fa573d6000803e3d6000fd5b505050506040513d601f19601f8201168201806040525081019061261e91906151b4565b61263a5760405162461bcd60e51b81526004016102ad906151d1565b600081815260a66020908152604080832060a79092529091206001015460ff16156126775760405162461bcd60e51b81526004016102ad906156a6565b80546001600160a01b03161561269f5760405162461bcd60e51b81526004016102ad9061516d565b600082815260a66020908152604091829020865181546001600160a01b03199081166001600160a01b03928316178355928801516001830180549094169116179091559085015185919060028201906126f89082614fbd565b5060608201516003820180546001600160a01b0319166001600160a01b03909216919091179055608082015160048201906127339082614fbd565b5060a0820151600582015560c0820151600682015560e08201516007820180546001600160401b0319166001600160401b0390921691909117905561010082015160088201906127839082614fbd565b506101208201516009820155610140820151600a820180546101608501516101808601516101a08701516101c08801516101e08901516102008a015163ffffffff9889166001600160401b031990971696909617600160201b958916959095029490941763ffffffff60401b1916600160401b61ffff9485160261ffff60501b191617600160501b939092169290920217600160601b600160a01b031916600160601b9186169190910263ffffffff60801b191617600160801b918516919091021763ffffffff60a01b1916600160a01b9390911692909202919091179055610220820151600b82015561024090910151600c90910155600082815260a760209081526040918290204290819055825134815291820152339184917fb1bc7bfc0dab19777eb03aa0a5643378fc9f186c8fc5a36620d21136fbea570f910160405180910390a350505050565b6033546001600160a01b031690565b6128e66138f8565b600081815260a66020526040902080546001600160a01b031661291b5760405162461bcd60e51b81526004016102ad906156c6565b600a810154600160801b900463ffffffff164211801561294b5750600a810154600160a01b900463ffffffff1643115b6129805760405162461bcd60e51b81526020600482015260066024820152654c424330343160d01b60448201526064016102ad565b600081600c015482600b0154836005015484600901546129a091906153f4565b6129aa91906153f4565b6129b491906153f4565b6003830154600684015460018501546001600160a01b039081166000908152609a60205260408120549495509216926129ed9190613fb7565b60018501546001600160a01b03166000908152609a6020526040812080549293508392909190612a1e9084906151f1565b90915550506001840154604051600080516020615bef83398151915291612a54916001600160a01b039091169084908990615204565b60405180910390a16003840154604080518581526001600160a01b03909216602083015286917f9ccbeffc442024e2a6ade18ff0978af9a4c4d6562ae38adb51ccf8256cf42b41910160405180910390a2600085815260a66020526040812080546001600160a01b03199081168255600182018054909116905590612adc6002830182614443565b6003820180546001600160a01b0319169055612afc600483016000614443565b600060058301819055600683018190556007830180546001600160401b0319169055612b2c906008840190614443565b50600060098201819055600a820180546001600160c01b0319169055600b8201819055600c90910181905585815260a760205260408082206001908101805460ff19169091179055516001600160a01b0384169085908381818185875af1925050503d8060008114612bba576040519150601f19603f3d011682016040523d82523d6000602084013e612bbf565b606091505b5050905080612bf95760405162461bcd60e51b8152602060048201526006602482015265131090cc0d0d60d21b60448201526064016102ad565b5050505050612c086001606555565b50565b612c143361413f565b612c305760405162461bcd60e51b81526004016102ad9061514d565b3360009081526099602052604081208054349290612c4f9084906153f4565b90915550506040517f456e0f4ea86ac283092c750200e8c877f6ad8901ae575f90e02081acd455af849061189f90339034906154c4565b60006109e282613951565b612c9a3361413f565b612cb65760405162461bcd60e51b81526004016102ad9061514d565b611abe3334613fcf565b612cc86138f8565b612cd133614100565b612ced5760405162461bcd60e51b81526004016102ad9061514d565b600085815260a7602052604090206001015460ff1615612d1f5760405162461bcd60e51b81526004016102ad906156a6565b600085815260a66020526040902080546001600160a01b0316612d545760405162461bcd60e51b81526004016102ad906156c6565b60405162f5b49160e01b815260009073__BtcUtils______________________________9062f5b49190612d8c9089906004016156e6565b600060405180830381865af4158015612da9573d6000803e3d6000fd5b505050506040513d6000823e601f3d908101601f19168201604052612dd191908101906156f9565b9050600073__BtcUtils______________________________632d56f32383600181518110612e0257612e02615534565b6020026020010151602001516040518263ffffffff1660e01b8152600401612e2a91906156e6565b600060405180830381865af4158015612e47573d6000803e3d6000fd5b505050506040513d6000823e601f3d908101601f19168201604052612e6f91908101906155dc565b905080516021148015612ea7575080600081518110612e9057612e90615534565b6020910101516001600160f81b031916600160fd1b145b612edc5760405162461bcd60e51b81526020600482015260066024820152654c424330373560d01b60448201526064016102ad565b60005b60018251612eed91906151f1565b8160ff161015612f5f5781612f0382600161580c565b60ff1681518110612f1657612f16615534565b602001015160f81c60f81b828260ff1681518110612f3657612f36615534565b60200101906001600160f81b031916908160001a90535080612f5781615825565b915050612edf565b50600081806020019051810190612f769190615844565b9050808914612fb05760405162461bcd60e51b81526020600482015260066024820152654c424330363960d01b60448201526064016102ad565b60018401546001600160a01b03163314612ff55760405162461bcd60e51b815260206004820152600660248201526509884866068760d31b60448201526064016102ad565b600a84015460975460405163fea8ba6360e01b8152600160501b90920461ffff16916001600160a01b0390911690635b6445879073__BtcUtils______________________________9063fea8ba6390613053908e906004016156e6565b602060405180830381865af4158015613070573d6000803e3d6000fd5b505050506040513d601f19601f820116820180604052508101906130949190615844565b8a8a8a6040518563ffffffff1660e01b81526004016130b6949392919061585d565b602060405180830381865afa1580156130d3573d6000803e3d6000fd5b505050506040513d601f19601f820116820180604052508101906130f79190615844565b121561312e5760405162461bcd60e51b81526020600482015260066024820152654c424330343960d01b60448201526064016102ad565b8260008151811061314157613141615534565b6020026020010151600001516402540be40061315d91906158b9565b6001600160401b0316846009015411156131a25760405162461bcd60e51b81526020600482015260066024820152654c424330363760d01b60448201526064016102ad565b600073__BtcUtils______________________________63c7ce85ac856000815181106131d1576131d1615534565b602090810291909101810151015160a4546040516001600160e01b031960e085901b168152613207929160ff16906004016158e4565b600060405180830381865af4158015613224573d6000803e3d6000fd5b505050506040513d6000823e601f3d908101601f1916820160405261324c91908101906155dc565b90508080519060200120856008016040516132679190615908565b6040518091039020146132a55760405162461bcd60e51b81526020600482015260066024820152650988486606c760d31b60448201526064016102ad565b604080516102608101825286546001600160a01b0390811682526001880154166020820152600287018054613556938992908401916132e390614f34565b80601f016020809104026020016040519081016040528092919081815260200182805461330f90614f34565b801561335c5780601f106133315761010080835404028352916020019161335c565b820191906000526020600020905b81548152906001019060200180831161333f57829003601f168201915b505050918352505060038201546001600160a01b0316602082015260048201805460409092019161338c90614f34565b80601f01602080910402602001604051908101604052809291908181526020018280546133b890614f34565b80156134055780601f106133da57610100808354040283529160200191613405565b820191906000526020600020905b8154815290600101906020018083116133e857829003601f168201915b50505091835250506005820154602082015260068201546040820152600780830154900b606082015260088201805460809092019161344390614f34565b80601f016020809104026020016040519081016040528092919081815260200182805461346f90614f34565b80156134bc5780601f10613491576101008083540402835291602001916134bc565b820191906000526020600020905b81548152906001019060200180831161349f57829003601f168201915b505050918352505060098201546020820152600a82015463ffffffff8082166040840152600160201b82048116606084015261ffff600160401b830481166080850152600160501b83041660a0840152600160601b8204811660c0840152600160801b8204811660e0840152600160a01b90910416610100820152600b820154610120820152600c9091015461014090910152838a61428e565b156135f957600685015460018601546001600160a01b03166000908152609a6020526040812054909161358891613fb7565b60018701546001600160a01b03166000908152609a60205260408120805492935083929091906135b99084906151f1565b90915550506001860154604051600080516020615bef833981519152916135ef916001600160a01b039091169084908790615204565b60405180910390a1505b6001850154600586015460098701546000926001600160a01b03169161361e916153f4565b604051600081818185875af1925050503d806000811461365a576040519150601f19603f3d011682016040523d82523d6000602084013e61365f565b606091505b50509050806136995760405162461bcd60e51b815260206004820152600660248201526504c42433035360d41b60448201526064016102ad565b6136a786600b01548c61402e565b600083815260a66020526040812080546001600160a01b031990811682556001820180549091169055906136de6002830182614443565b6003820180546001600160a01b03191690556136fe600483016000614443565b600060058301819055600683018190556007830180546001600160401b031916905561372e906008840190614443565b50600060098201819055600a820180546001600160c01b0319169055600b8201819055600c90910181905583815260a760205260408082206001908101805460ff191690911790555184917fb781856ec73fd0dc39351043d1634ea22cd3277b0866ab93e7ec1801766bb38491a25050505050506137ac6001606555565b5050505050565b6137bb61417e565b6001600160a01b0381166138205760405162461bcd60e51b815260206004820152602660248201527f4f776e61626c653a206e6577206f776e657220697320746865207a65726f206160448201526564647265737360d01b60648201526084016102ad565b612c08816141dd565b80516000906001600160a01b0316301461386e5760405162461bcd60e51b8152602060048201526006602482015265262121981a9b60d11b60448201526064016102ad565b60405163025018e760e31b815273__QuotesV2______________________________90631280c738906138a590859060040161597e565b600060405180830381865af41580156138c2573d6000803e3d6000fd5b505050506040513d6000823e601f3d908101601f191682016040526138ea91908101906155dc565b805190602001209050919050565b60026065540361394a5760405162461bcd60e51b815260206004820152601f60248201527f5265656e7472616e637947756172643a207265656e7472616e742063616c6c0060448201526064016102ad565b6002606555565b600081602001516001600160a01b0316306001600160a01b0316146139a15760405162461bcd60e51b81526020600482015260066024820152654c424330353160d01b60448201526064016102ad565b6101008201516097546001600160a01b039182169116036139ed5760405162461bcd60e51b8152602060048201526006602482015265262121981a9960d11b60448201526064016102ad565b81606001515160151480613a0657508160600151516021145b613a3b5760405162461bcd60e51b81526020600482015260066024820152654c424330353360d01b60448201526064016102ad565b8160a0015151601514613a795760405162461bcd60e51b8152602060048201526006602482015265131090cc0d4d60d21b60448201526064016102ad565b609f548261026001518361024001518460c00151856101800151613a9d91906153f4565b613aa791906153f4565b613ab191906153f4565b1015613ae85760405162461bcd60e51b81526020600482015260066024820152654c424330353560d01b60448201526064016102ad565b816101c0015163ffffffff16826101a0015163ffffffff16613b0a9190615b18565b6001600160401b031663ffffffff1015613b4f5760405162461bcd60e51b81526020600482015260066024820152654c424330373160d01b60448201526064016102ad565b60405162773b7960e01b815273__QuotesV2______________________________9062773b79906138a5908590600401615b38565b609754606086015160a08701516000848152609c602052604081205490936001600160a01b031692636adc013392899288928a92899230919063ffffffff1615801590613be6575060008b8152609c6020526040902054600160201b900460ff165b6040518963ffffffff1660e01b8152600401613c09989796959493929190615b4b565b6020604051808303816000875af1158015613c28573d6000803e3d6000fd5b505050506040513d601f19601f82011682018060405250810190613c4c9190615844565b9695505050505050565b60008084138015613c9a57508461026001518561024001518660c00151876101800151613c8391906153f4565b613c8d91906153f4565b613c9791906153f4565b84105b15613ca75750600061181c565b60975460405163bd0c1fff60e01b8152600481018490526000916001600160a01b03169063bd0c1fff90602401600060405180830381865afa158015613cf1573d6000803e3d6000fd5b505050506040513d6000823e601f3d908101601f19168201604052613d1991908101906155dc565b90506000815111613d635760405162461bcd60e51b8152602060048201526014602482015273125b9d985b1a5908189b1bd8dac81a195a59da1d60621b60448201526064016102ad565b6040516328335c3f60e21b815260009073__BtcUtils______________________________9063a0cd70fc90613d9d9085906004016156e6565b602060405180830381865af4158015613dba573d6000803e3d6000fd5b505050506040513d601f19601f82011682018060405250810190613dde9190615844565b90506000876101c00151886101a00151613df89190615682565b63ffffffff16905080821115613e14576000935050505061181c565b85600003613e28576001935050505061181c565b6097546102008901516000916001600160a01b03169063bd0c1fff90600190613e559061ffff168a6153f4565b613e5f91906151f1565b6040518263ffffffff1660e01b8152600401613e7d91815260200190565b600060405180830381865afa158015613e9a573d6000803e3d6000fd5b505050506040513d6000823e601f3d908101601f19168201604052613ec291908101906155dc565b90506000815111613efe5760405162461bcd60e51b81526020600482015260066024820152650988486606a760d31b60448201526064016102ad565b6040516328335c3f60e21b815260009073__BtcUtils______________________________9063a0cd70fc90613f389085906004016156e6565b602060405180830381865af4158015613f55573d6000803e3d6000fd5b505050506040513d601f19601f82011682018060405250810190613f799190615844565b9050896101e0015163ffffffff1681613f9291906153f4565b881115613fa75760019550505050505061181c565b5060009998505050505050505050565b6000818310613fc65781613fc8565b825b9392505050565b6001600160a01b03821660009081526098602052604081208054839290613ff79084906153f4565b90915550506040517f42cfb81a915ac5a674852db250bf722637bee705a267633b68cab3a2dde06f53906112e690849084906154c4565b81156140fc5760a9546040516000916001600160a01b03169084908381818185875af1925050503d8060008114614081576040519150601f19603f3d011682016040523d82523d6000602084013e614086565b606091505b50509050806140c05760405162461bcd60e51b8152602060048201526006602482015265131090cc0dcd60d21b60448201526064016102ad565b817f58e13ac0d5c8d27d14009841e72ac8b1858e2709c2c99af2075d9bb5f340ecfc846040516140f291815260200190565b60405180910390a2505b5050565b6001600160a01b0381166000908152609a6020526040812054158015906109e25750506001600160a01b03166000908152609d60205260409020541590565b6001600160a01b038116600090815260996020526040812054158015906109e25750506001600160a01b03166000908152609d60205260409020541590565b336141876128cf565b6001600160a01b031614611abe5760405162461bcd60e51b815260206004820181905260248201527f4f776e61626c653a2063616c6c6572206973206e6f7420746865206f776e657260448201526064016102ad565b603380546001600160a01b038381166001600160a01b0319831681179093556040519116919082907f8be0079c531659141344cd1fd0a4f28419497f9722a3daafe3b4186f6b6457e090600090a35050565b6001600160a01b038216600090815260986020526040812080548392906142579084906151f1565b90915550506040517f8e51a4493a6f66c76e13fd9e3b754eafbfe21343c04508deb61be8ccc0064587906112e690849084906154c4565b6097546040516339cf1b2560e11b81526004810183905260009182916001600160a01b039091169063739e364a90602401600060405180830381865afa1580156142dc573d6000803e3d6000fd5b505050506040513d6000823e601f3d908101601f1916820160405261430491908101906155dc565b905060008151116143405760405162461bcd60e51b81526020600482015260066024820152654c424330353960d01b60448201526064016102ad565b6040516328335c3f60e21b815260009073__BtcUtils______________________________9063a0cd70fc9061437a9085906004016156e6565b602060405180830381865af4158015614397573d6000803e3d6000fd5b505050506040513d601f19601f820116820180604052508101906143bb9190615844565b60a3546101c0880151600088815260a7602052604090205492935090916143e89163ffffffff16906153f4565b6143f291906153f4565b81111561440457600192505050613fc8565b856101e0015163ffffffff16421180614427575085610200015163ffffffff1643115b1561443757600192505050613fc8565b50600095945050505050565b50805461444f90614f34565b6000825580601f1061445f575050565b601f016020900490600052602060002090810190612c0891905b8082111561448d5760008155600101614479565b5090565b634e487b7160e01b600052604160045260246000fd5b60405161026081016001600160401b03811182821017156144ca576144ca614491565b60405290565b60405161028081016001600160401b03811182821017156144ca576144ca614491565b604051608081016001600160401b03811182821017156144ca576144ca614491565b604051601f8201601f191681016001600160401b038111828210171561453d5761453d614491565b604052919050565b60006001600160401b0382111561455e5761455e614491565b50601f01601f191660200190565b600082601f83011261457d57600080fd5b813561459061458b82614545565b614515565b8181528460208386010111156145a557600080fd5b816020850160208301376000918101602001919091529392505050565b600080604083850312156145d557600080fd5b82356001600160401b03808211156145ec57600080fd5b6145f88683870161456c565b9350602085013591508082111561460e57600080fd5b5061461b8582860161456c565b9150509250929050565b6001600160a01b0381168114612c0857600080fd5b803561241181614625565b8035600781900b811461241157600080fd5b803563ffffffff8116811461241157600080fd5b803561ffff8116811461241157600080fd5b6000610260828403121561469057600080fd5b6146986144a7565b90506146a38261463a565b81526146b16020830161463a565b602082015260408201356001600160401b03808211156146d057600080fd5b6146dc8583860161456c565b60408401526146ed6060850161463a565b6060840152608084013591508082111561470657600080fd5b6147128583860161456c565b608084015260a084013560a084015260c084013560c084015261473760e08501614645565b60e08401526101009150818401358181111561475257600080fd5b61475e8682870161456c565b8385015250505061012080830135818301525061014061477f818401614657565b90820152610160614791838201614657565b908201526101806147a383820161466b565b908201526101a06147b583820161466b565b908201526101c06147c7838201614657565b908201526101e06147d9838201614657565b908201526102006147eb838201614657565b9082015261022082810135908201526102409182013591810191909152919050565b60006020828403121561481f57600080fd5b81356001600160401b0381111561483557600080fd5b61181c8482850161467d565b80356001600160601b03198116811461241157600080fd5b8015158114612c0857600080fd5b803561241181614859565b6000610280828403121561488557600080fd5b61488d6144d0565b905061489882614841565b81526148a66020830161463a565b60208201526148b76040830161463a565b604082015260608201356001600160401b03808211156148d657600080fd5b6148e28583860161456c565b60608401526148f36080850161463a565b608084015260a084013591508082111561490c57600080fd5b6149188583860161456c565b60a084015260c084013560c084015260e084013560e0840152610100915061494182850161463a565b828401526101209150818401358181111561495b57600080fd5b6149678682870161456c565b8385015250505061014061497c818401614657565b9082015261016061498e838201614645565b9082015261018082810135908201526101a06149ab818401614657565b908201526101c06149bd838201614657565b908201526101e06149cf838201614657565b908201526102006149e183820161466b565b908201526102206149f3838201614867565b9082015261024082810135908201526102609182013591810191909152919050565b600080600080600060a08688031215614a2d57600080fd5b85356001600160401b0380821115614a4457600080fd5b614a5089838a01614872565b96506020880135915080821115614a6657600080fd5b614a7289838a0161456c565b95506040880135915080821115614a8857600080fd5b614a9489838a0161456c565b94506060880135915080821115614aaa57600080fd5b50614ab78882890161456c565b95989497509295608001359392505050565b600060208284031215614adb57600080fd5b5035919050565b60008060008060808587031215614af857600080fd5b84356001600160401b0380821115614b0f57600080fd5b614b1b8883890161456c565b95506020870135915080821115614b3157600080fd5b614b3d8883890161456c565b945060408701359150614b4f82614859565b90925060608601359080821115614b6557600080fd5b50614b728782880161456c565b91505092959194509250565b600060208284031215614b9057600080fd5b8135613fc881614625565b60006001600160401b03821115614bb457614bb4614491565b5060051b60200190565b60006020808385031215614bd157600080fd5b82356001600160401b03811115614be757600080fd5b8301601f81018513614bf857600080fd5b8035614c0661458b82614b9b565b81815260059190911b82018301908381019087831115614c2557600080fd5b928401925b82841015614c4357833582529284019290840190614c2a565b979650505050505050565b6001600160a01b03169052565b60005b83811015614c76578181015183820152602001614c5e565b50506000910152565b60008151808452614c97816020860160208601614c5b565b601f01601f19169290920160200192915050565b60006020808301818452808551808352604092508286019150828160051b87010184880160005b83811015614d6c57888303603f19018552815180518452878101516001600160a01b0316888501528681015160c088860181905290614d1382870182614c7f565b91505060608083015186830382880152614d2d8382614c7f565b925050506080808301511515818701525060a08083015192508582038187015250614d588183614c7f565b968901969450505090860190600101614cd2565b509098975050505050505050565b6001600160a01b0391909116815260200190565b60008060408385031215614da157600080fd5b823591506020830135614db381614859565b809150509250929050565b60008060408385031215614dd157600080fd5b82356001600160401b0380821115614de857600080fd5b6145f886838701614872565b600060208284031215614e0657600080fd5b81356001600160401b03811115614e1c57600080fd5b61181c84828501614872565b60008060408385031215614e3b57600080fd5b82356001600160401b0380821115614e5257600080fd5b6145f88683870161467d565b600080600080600060a08688031215614e7657600080fd5b853594506020808701356001600160401b0380821115614e9557600080fd5b614ea18a838b0161456c565b965060408901359550606089013594506080890135915080821115614ec557600080fd5b508701601f81018913614ed757600080fd5b8035614ee561458b82614b9b565b81815260059190911b8201830190838101908b831115614f0457600080fd5b928401925b82841015614f2257833582529284019290840190614f09565b80955050505050509295509295909350565b600181811c90821680614f4857607f821691505b602082108103614f6857634e487b7160e01b600052602260045260246000fd5b50919050565b601f821115614fb857600081815260208120601f850160051c81016020861015614f955750805b601f850160051c820191505b81811015614fb457828155600101614fa1565b5050505b505050565b81516001600160401b03811115614fd657614fd6614491565b614fea81614fe48454614f34565b84614f6e565b602080601f83116001811461501f57600084156150075750858301515b600019600386901b1c1916600185901b178555614fb4565b600085815260208120601f198616915b8281101561504e5788860151825594840194600190910190840161502f565b508582101561506c5787850151600019600388901b60f8161c191681555b5050505050600190811b01905550565b6000815461508981614f34565b8085526020600183811680156150a657600181146150c0576150ee565b60ff1985168884015283151560051b8801830195506150ee565b866000528260002060005b858110156150e65781548a82018601529083019084016150cb565b890184019650505b505050505092915050565b60408152600061510c604083018561507c565b82810360208401526111f1818561507c565b634e487b7160e01b600052601160045260246000fd5b6000600182016151465761514661511e565b5060010190565b6020808252600690820152654c424330303160d01b604082015260600190565b60208082526006908201526509884866064760d31b604082015260600190565b60018060a01b03841681528260208201526060604082015260006111f16060830184614c7f565b6000602082840312156151c657600080fd5b8151613fc881614859565b6020808252600690820152654c424330323960d01b604082015260600190565b818103818111156109e2576109e261511e565b6001600160a01b039390931683526020830191909152604082015260600190565b80820281158282048414176109e2576109e261511e565b634e487b7160e01b600052601260045260246000fd5b6000826152615761526161523c565b500490565b80516001600160601b03191682526000610280602083015161528b6020860182614c4e565b50604083015161529e6040860182614c4e565b5060608301518160608601526152b682860182614c7f565b91505060808301516152cb6080860182614c4e565b5060a083015184820360a08601526152e38282614c7f565b91505060c083015160c085015260e083015160e08501526101008084015161530d82870182614c4e565b505061012080840151858303828701526153278382614c7f565b92505050610140808401516153438287018263ffffffff169052565b50506101608084015161535a8287018260070b9052565b505061018083810151908501526101a08084015163ffffffff908116918601919091526101c0808501518216908601526101e080850151909116908501526102008084015161ffff16908501526102208084015115159085015261024080840151908501526102609283015192909301919091525090565b6040815260006153e56040830185615266565b90508260208301529392505050565b808201808211156109e2576109e261511e565b6001600160a01b03949094168452602084019290925215156040830152606082015260800190565b60008251615441818460208701614c5b565b9190910192915050565b63ffffffff8616815284602082015260a06040820152600061547060a0830186614c7f565b931515606083015250608001529392505050565b6020808252600690820152654c424330313960d01b604082015260600190565b60208082526006908201526504c42433032360d41b604082015260600190565b6001600160a01b03929092168252602082015260400190565b643832b3b4b760d91b815260050190565b651c1959dbdd5d60d21b815260060190565b60208082526006908201526509884866060760d31b604082015260600190565b60008261552f5761552f61523c565b500690565b634e487b7160e01b600052603260045260246000fd5b84815260008451615562816020850160208901614c5b565b808301905060018060601b0319851660208201528351615589816034840160208801614c5b565b016034019695505050505050565b600082601f8301126155a857600080fd5b81516155b661458b82614545565b8181528460208386010111156155cb57600080fd5b61181c826020830160208701614c5b565b6000602082840312156155ee57600080fd5b81516001600160401b0381111561560457600080fd5b61181c84828501615597565b600160fd1b8152826001820152607560f81b60218201526000825161563c816022850160208701614c5b565b919091016022019392505050565b60608152600061565d6060830186614c7f565b828103602084015261566f8186614c7f565b9150508215156040830152949350505050565b63ffffffff81811683821601908082111561569f5761569f61511e565b5092915050565b602080825260069082015265131090cc0d8d60d21b604082015260600190565b602080825260069082015265262121981a1960d11b604082015260600190565b602081526000613fc86020830184614c7f565b6000602080838503121561570c57600080fd5b82516001600160401b038082111561572357600080fd5b818501915085601f83011261573757600080fd5b815161574561458b82614b9b565b81815260059190911b8301840190848101908883111561576457600080fd5b8585015b838110156157ff578051858111156157805760008081fd5b86016080818c03601f19018113156157985760008081fd5b6157a06144f3565b8983015188811681146157b35760008081fd5b8152604083810151898111156157c95760008081fd5b6157d78f8d83880101615597565b838d015250606084810151918301919091529190920151908201528352918601918601615768565b5098975050505050505050565b60ff81811683821601908111156109e2576109e261511e565b600060ff821660ff810361583b5761583b61511e565b60010192915050565b60006020828403121561585657600080fd5b5051919050565b600060808201868352602086818501528560408501526080606085015281855180845260a086019150828701935060005b818110156158aa5784518352938301939183019160010161588e565b50909998505050505050505050565b6001600160401b038181168382160280821691908281146158dc576158dc61511e565b505092915050565b6040815260006158f76040830185614c7f565b905082151560208301529392505050565b600080835461591681614f34565b6001828116801561592e576001811461594357615972565b60ff1984168752821515830287019450615972565b8760005260208060002060005b858110156159695781548a820152908401908201615950565b50505082870194505b50929695505050505050565b60208152615990602082018351614c4e565b600060208301516159a46040840182614c4e565b5060408301516102608060608501526159c1610280850183614c7f565b915060608501516159d56080860182614c4e565b506080850151601f19808685030160a08701526159f28483614c7f565b935060a087015160c087015260c087015160e087015260e08701519150610100615a208188018460070b9052565b80880151925050610120818786030181880152615a3d8584614c7f565b908801516101408881019190915288015190945091506101609050615a698187018363ffffffff169052565b8601519050610180615a828682018363ffffffff169052565b86015190506101a0615a998682018361ffff169052565b86015190506101c0615ab08682018361ffff169052565b86015190506101e0615ac98682018363ffffffff169052565b8601519050610200615ae28682018363ffffffff169052565b8601519050610220615afb8682018363ffffffff169052565b860151610240868101919091529095015193019290925250919050565b6001600160401b0381811683821601908082111561569f5761569f61511e565b602081526000613fc86020830184615266565b6000610100808352615b5f8184018c614c7f565b90508960208401528281036040840152615b79818a614c7f565b90508760608401528281036080840152615b938188614c7f565b6001600160a01b03871660a085015283810360c08501529050615bb68186614c7f565b91505082151560e0830152999850505050505050505056fe3052ea2f7e0d74fdc1c1e1f858ff1ae3d91ab1609717c3efedb95db603b255f69685484093cc596fdaeab51abf645b1753dbb7d869bfd2eb21e2c646e47a36f4bfc7404e6fe464f0646fe2c6ab942b92d56be722bb39f8c6bc4830d2d32fb80da26469706673582212204e99dace3bb84142996a643a4485ba890de7b19f3ed4b43eb3e798078eec4be264736f6c63430008120033",
  "immutableReferences": {},
  "source": "// SPDX-License-Identifier: MIT\npragma solidity ^0.8.18;\npragma experimental ABIEncoderV2;\n\nimport \"./Bridge.sol\";\nimport \"./QuotesV2.sol\";\nimport \"./SignatureValidator.sol\";\nimport \"@rsksmart/btc-transaction-solidity-helper/contracts/BtcUtils.sol\";\nimport \"@openzeppelin/contracts-upgradeable/access/OwnableUpgradeable.sol\";\nimport \"@openzeppelin/contracts-upgradeable/security/ReentrancyGuardUpgradeable.sol\";\n\n/**\n    @title Contract that assists with the Flyover protocol\n */\n\ncontract LiquidityBridgeContractV2 is Initializable, OwnableUpgradeable, ReentrancyGuardUpgradeable {\n    uint16 constant public MAX_CALL_GAS_COST = 35000;\n    uint16 constant public MAX_REFUND_GAS_LIMIT = 2300;\n\n    uint8 constant public UNPROCESSED_QUOTE_CODE = 0;\n    uint8 constant public CALL_DONE_CODE = 1;\n    uint8 constant public PROCESSED_QUOTE_CODE = 2;\n\n    int16 constant public BRIDGE_REFUNDED_USER_ERROR_CODE = - 100;\n    int16 constant public BRIDGE_REFUNDED_LP_ERROR_CODE = - 200;\n    int16 constant public BRIDGE_UNPROCESSABLE_TX_NOT_CONTRACT_ERROR_CODE = - 300;\n    int16 constant public BRIDGE_UNPROCESSABLE_TX_INVALID_SENDER_ERROR_CODE = - 301;\n    int16 constant public BRIDGE_UNPROCESSABLE_TX_ALREADY_PROCESSED_ERROR_CODE = - 302;\n    int16 constant public BRIDGE_UNPROCESSABLE_TX_VALIDATIONS_ERROR = - 303;\n    int16 constant public BRIDGE_UNPROCESSABLE_TX_VALUE_ZERO_ERROR = - 304;\n    int16 constant public BRIDGE_UNPROCESSABLE_TX_UTXO_AMOUNT_SENT_BELOW_MINIMUM_ERROR =\n    - 305;\n    int16 constant public BRIDGE_GENERIC_ERROR = - 900;\n    uint constant public PAY_TO_ADDRESS_OUTPUT = 0;\n    uint constant public QUOTE_HASH_OUTPUT = 1;\n\n    struct Registry {\n        uint32 timestamp;\n        bool success;\n    }\n\n    struct PegoutRecord {\n        uint256 depositTimestamp;\n        bool completed;\n    }\n\n    struct LiquidityProvider {\n        uint id;\n        address provider;\n        string name;\n        string apiBaseUrl;\n        bool status;\n        string providerType;\n    }\n\n    event Register(uint id, address indexed from, uint256 amount);\n    event CollateralIncrease(address from, uint256 amount);\n    event PegoutCollateralIncrease(address from, uint256 amount);\n    event Withdrawal(address from, uint256 amount);\n    event WithdrawCollateral(address from, uint256 amount);\n    event Resigned(address from);\n    event CallForUser(\n        address indexed from,\n        address indexed dest,\n        uint gasLimit,\n        uint value,\n        bytes data,\n        bool success,\n        bytes32 quoteHash\n    );\n    event PegInRegistered(bytes32 indexed quoteHash, int256 transferredAmount);\n    event Penalized(address liquidityProvider, uint penalty, bytes32 quoteHash);\n    event BridgeCapExceeded(bytes32 quoteHash, int256 errorCode);\n    event BalanceIncrease(address dest, uint amount);\n    event BalanceDecrease(address dest, uint amount);\n    event Refund(address dest, uint amount, bool success, bytes32 quoteHash);\n    event PegOutRefunded(bytes32 indexed quoteHash);\n    event PegOutDeposit(\n        bytes32 indexed quoteHash,\n        address indexed sender,\n        uint256 amount,\n        uint256 timestamp\n    );\n    event PegOutUserRefunded(\n        bytes32 indexed quoteHash,\n        uint256 value,\n        address userAddress\n    );\n    event DaoFeeSent(bytes32 indexed quoteHash, uint256 amount);\n    event ProviderUpdate(address indexed providerAddress, string name, string url);\n\n    Bridge public bridge;\n    mapping(address => uint256) private balances;\n    mapping(address => uint256) private collateral;\n    mapping(address => uint256) private pegoutCollateral;\n    mapping(uint => LiquidityProvider) private liquidityProviders;\n    mapping(bytes32 => Registry) private callRegistry;\n    mapping(address => uint256) private resignationBlockNum;\n\n    uint256 private minCollateral;\n    uint256 private minPegIn;\n\n    uint32 private rewardP;\n    uint32 private resignDelayInBlocks;\n    uint private dust;\n    uint public providerId;\n\n    uint private btcBlockTime;\n    bool private mainnet;\n\n    mapping(bytes32 => uint8) private processedQuotes;\n    mapping(bytes32 => QuotesV2.PegOutQuote) private registeredPegoutQuotes;\n    mapping(bytes32 => PegoutRecord) private pegoutRegistry;\n\n    uint256 public productFeePercentage;\n    address public daoFeeCollectorAddress;\n\n    modifier onlyRegistered() {\n        require(isRegistered(msg.sender), \"LBC001\");\n        _;\n    }\n\n    modifier onlyRegisteredForPegout() {\n        require(isRegisteredForPegout(msg.sender), \"LBC001\");\n        _;\n    }\n\n    modifier onlyOwnerAndProvider(uint _providerId) {\n        require(\n            msg.sender == owner() ||\n            msg.sender == liquidityProviders[_providerId].provider,\n            \"LBC005\"\n        );\n        _;\n    }\n\n    function setProviderStatus(\n        uint _providerId,\n        bool status\n    ) external onlyOwnerAndProvider(_providerId) {\n        liquidityProviders[_providerId].status = status;\n    }\n\n    receive() external payable {\n        require(msg.sender == address(bridge), \"LBC007\");\n    }\n\n    function getProviderIds() external view returns (uint) {\n        return providerId;\n    }\n\n    function getBridgeAddress() external view returns (address) {\n        return address(bridge);\n    }\n\n    function getMinCollateral() public view returns (uint) {\n        return minCollateral;\n    }\n\n    function getMinPegIn() external view returns (uint) {\n        return minPegIn;\n    }\n\n    function getRewardPercentage() external view returns (uint) {\n        return rewardP;\n    }\n\n    function getResignDelayBlocks() external view returns (uint) {\n        return resignDelayInBlocks;\n    }\n\n    function getDustThreshold() external view returns (uint) {\n        return dust;\n    }\n\n    function isPegOutQuoteCompleted(bytes32 quoteHash) external view returns (bool) {\n        return pegoutRegistry[quoteHash].completed;\n    }\n\n    /**\n        @dev Checks whether a liquidity provider can deliver a pegin service\n        @return Whether the liquidity provider is registered and has enough locked collateral\n     */\n    function isOperational(address addr) external view returns (bool) {\n        return isRegistered(addr) && collateral[addr] >= minCollateral;\n    }\n\n    /**\n        @dev Checks whether a liquidity provider can deliver a pegout service\n        @return Whether the liquidity provider is registered and has enough locked collateral\n     */\n    function isOperationalForPegout(address addr) external view returns (bool) {\n        return\n            isRegisteredForPegout(addr) &&\n            pegoutCollateral[addr] >= minCollateral;\n    }\n\n    /**\n        @dev Registers msg.sender as a liquidity provider with msg.value as collateral\n     */\n    function register(\n        string memory _name,\n        string memory _apiBaseUrl,\n        bool _status,\n        string memory _providerType\n    ) external payable returns (uint) {\n        require(tx.origin == msg.sender, \"LBC003\");\n        //require(collateral[msg.sender] == 0, \"Already registered\");\n        require(bytes(_name).length > 0, \"LBC010\");\n        require(\n            bytes(_apiBaseUrl).length > 0,\n            \"LBC017\"\n        );\n\n        // Check if _providerType is one of the valid strings\n        require(\n            keccak256(abi.encodePacked(_providerType)) ==\n            keccak256(abi.encodePacked(\"pegin\")) ||\n            keccak256(abi.encodePacked(_providerType)) ==\n            keccak256(abi.encodePacked(\"pegout\")) ||\n            keccak256(abi.encodePacked(_providerType)) ==\n            keccak256(abi.encodePacked(\"both\")),\n            \"LBC018\"\n        );\n\n        require(collateral[msg.sender] == 0 && pegoutCollateral[msg.sender] == 0, \"LBC070\");\n        require(\n            resignationBlockNum[msg.sender] == 0,\n            \"LBC009\"\n        );\n\n        if (keccak256(abi.encodePacked(_providerType)) == keccak256(abi.encodePacked(\"pegin\"))) {\n            require(msg.value >= minCollateral, \"LBC008\");\n            collateral[msg.sender] = msg.value;\n        } else if (keccak256(abi.encodePacked(_providerType)) == keccak256(abi.encodePacked(\"pegout\"))) {\n            require(msg.value >= minCollateral, \"LBC008\");\n            pegoutCollateral[msg.sender] = msg.value;\n        } else {\n            require(msg.value >= minCollateral * 2, \"LBC008\");\n            uint halfMsgValue = msg.value / 2;\n            collateral[msg.sender] = msg.value % 2 == 0 ? halfMsgValue : halfMsgValue + 1;\n            pegoutCollateral[msg.sender] = halfMsgValue;\n        }\n\n        providerId++;\n        liquidityProviders[providerId] = LiquidityProvider({\n            id: providerId,\n            provider: msg.sender,\n            name: _name,\n            apiBaseUrl: _apiBaseUrl,\n            status: _status,\n            providerType: _providerType\n        });\n        emit Register(providerId, msg.sender, msg.value);\n        return (providerId);\n    }\n\n    function getProviders(\n        uint[] memory providerIds\n    ) external view returns (LiquidityProvider[] memory) {\n        LiquidityProvider[] memory providersToReturn = new LiquidityProvider[](\n            providerIds.length\n        );\n        uint count = 0;\n\n        for (uint i = 0; i < providerIds.length; i++) {\n            uint id = providerIds[i];\n            if (\n                (isRegistered(liquidityProviders[id].provider) ||\n                    isRegisteredForPegout(liquidityProviders[id].provider)) &&\n                liquidityProviders[id].status\n            ) {\n                providersToReturn[count] = liquidityProviders[id];\n                count++;\n            }\n        }\n        return providersToReturn;\n    }\n\n    /**\n        @dev Increases the amount of collateral of the sender\n     */\n    function addCollateral() external payable onlyRegistered {\n        collateral[msg.sender] += msg.value;\n        emit CollateralIncrease(msg.sender, msg.value);\n    }\n\n    function addPegoutCollateral() external payable onlyRegisteredForPegout {\n        pegoutCollateral[msg.sender] += msg.value;\n        emit PegoutCollateralIncrease(msg.sender, msg.value);\n    }\n\n    /**\n        @dev Increases the balance of the sender\n     */\n    function deposit() external payable onlyRegistered {\n        increaseBalance(msg.sender, msg.value);\n    }\n\n    /**\n        @dev Used to withdraw funds\n        @param amount The amount to withdraw\n     */\n    function withdraw(uint256 amount) external {\n        require(balances[msg.sender] >= amount, \"LBC019\");\n        balances[msg.sender] -= amount;\n        (bool success,) = msg.sender.call{value: amount}(\"\");\n        require(success, \"LBC020\");\n        emit Withdrawal(msg.sender, amount);\n    }\n\n    /**\n        @dev Used to withdraw the locked collateral\n     */\n    function withdrawCollateral() external nonReentrant {\n        require(resignationBlockNum[msg.sender] > 0, \"LBC021\");\n        require(\n            block.number - resignationBlockNum[msg.sender] >=\n            resignDelayInBlocks,\n            \"LBC022\"\n        );\n        uint amount = collateral[msg.sender] + pegoutCollateral[msg.sender];\n        pegoutCollateral[msg.sender] = 0;\n        collateral[msg.sender] = 0;\n        resignationBlockNum[msg.sender] = 0;\n        (bool success,) = msg.sender.call{value: amount}(\"\");\n        require(success, \"LBC020\");\n        emit WithdrawCollateral(msg.sender, amount);\n    }\n\n    /**\n        @dev Used to resign as a liquidity provider\n     */\n    function resign() external onlyRegistered {\n        require(resignationBlockNum[msg.sender] == 0, \"LBC023\");\n        resignationBlockNum[msg.sender] = block.number;\n        emit Resigned(msg.sender);\n    }\n\n    /**\n        @dev Returns the amount of collateral of a liquidity provider\n        @param addr The address of the liquidity provider\n        @return The amount of locked collateral\n     */\n    function getCollateral(address addr) external view returns (uint256) {\n        return collateral[addr];\n    }\n\n    function getPegoutCollateral(address addr) external view returns (uint256) {\n        return pegoutCollateral[addr];\n    }\n\n    /**\n        @dev Returns the amount of funds of a liquidity provider\n        @param addr The address of the liquidity provider\n        @return The balance of the liquidity provider\n     */\n    function getBalance(address addr) external view returns (uint256) {\n        return balances[addr];\n    }\n\n    /**\n        @dev Performs a call on behalf of a user\n        @param quote The quote that identifies the service\n        @return Boolean indicating whether the call was successful\n     */\n    function callForUser(\n        QuotesV2.PeginQuote memory quote\n    ) external payable onlyRegistered nonReentrant returns (bool) {\n        require(\n            msg.sender == quote.liquidityProviderRskAddress,\n            \"LBC024\"\n        );\n        require(\n            balances[quote.liquidityProviderRskAddress] + msg.value >=\n            quote.value,\n            \"LBC019\"\n        );\n\n        bytes32 quoteHash = validateAndHashQuote(quote);\n        require(\n            processedQuotes[quoteHash] == UNPROCESSED_QUOTE_CODE,\n            \"LBC025\"\n        );\n\n        increaseBalance(quote.liquidityProviderRskAddress, msg.value);\n\n        // This check ensures that the call cannot be performed with less gas than the agreed amount\n        require(\n            gasleft() >= quote.gasLimit + MAX_CALL_GAS_COST,\n            \"LBC026\"\n        );\n        (bool success,) = quote.contractAddress.call{\n                gas: quote.gasLimit,\n                value: quote.value\n            }(quote.data);\n\n        require(block.timestamp <= type(uint32).max, \"LBC027\");\n        callRegistry[quoteHash].timestamp = uint32(block.timestamp);\n\n        if (success) {\n            callRegistry[quoteHash].success = true;\n            decreaseBalance(quote.liquidityProviderRskAddress, quote.value);\n        }\n        emit CallForUser(\n            msg.sender,\n            quote.contractAddress,\n            quote.gasLimit,\n            quote.value,\n            quote.data,\n            success,\n            quoteHash\n        );\n        processedQuotes[quoteHash] = CALL_DONE_CODE;\n        return success;\n    }\n\n    /**\n        @dev Registers a peg-in transaction with the bridge and pays to the involved parties\n        @param quote The quote of the service\n        @param signature The signature of the quote\n        @param btcRawTransaction The peg-in transaction\n        @param partialMerkleTree The merkle tree path that proves transaction inclusion\n        @param height The block that contains the peg-in transaction\n        @return The total peg-in amount received from the bridge contract or an error code\n     */\n    function registerPegIn(\n        QuotesV2.PeginQuote memory quote,\n        bytes memory signature,\n        bytes memory btcRawTransaction,\n        bytes memory partialMerkleTree,\n        uint256 height\n    ) external nonReentrant returns (int256) {\n        bytes32 quoteHash = validateAndHashQuote(quote);\n\n        // TODO: allow multiple registerPegIns for the same quote with different transactions\n        require(\n            processedQuotes[quoteHash] <= CALL_DONE_CODE,\n            \"LBC028\"\n        );\n        require(\n            SignatureValidator.verify(\n                quote.liquidityProviderRskAddress,\n                quoteHash,\n                signature\n            ),\n            \"LBC029\"\n        );\n        require(height < uint256(int256(type(int32).max)), \"LBC030\");\n\n        int256 transferredAmountOrErrorCode = registerBridge(\n            quote,\n            btcRawTransaction,\n            partialMerkleTree,\n            height,\n            quoteHash\n        );\n\n        require(\n            transferredAmountOrErrorCode !=\n            BRIDGE_UNPROCESSABLE_TX_VALIDATIONS_ERROR,\n            \"LBC031\"\n        );\n        require(\n            transferredAmountOrErrorCode !=\n            BRIDGE_UNPROCESSABLE_TX_ALREADY_PROCESSED_ERROR_CODE,\n            \"LBC032\"\n        );\n        require(\n            transferredAmountOrErrorCode !=\n            BRIDGE_UNPROCESSABLE_TX_VALUE_ZERO_ERROR,\n            \"LBC033\"\n        );\n        require(\n            transferredAmountOrErrorCode !=\n            BRIDGE_UNPROCESSABLE_TX_UTXO_AMOUNT_SENT_BELOW_MINIMUM_ERROR,\n            \"LBC034\"\n        );\n        require(\n            transferredAmountOrErrorCode != BRIDGE_GENERIC_ERROR,\n            \"LBC035\"\n        );\n        require(\n            transferredAmountOrErrorCode > 0 ||\n            transferredAmountOrErrorCode == BRIDGE_REFUNDED_LP_ERROR_CODE ||\n            transferredAmountOrErrorCode == BRIDGE_REFUNDED_USER_ERROR_CODE,\n            \"LBC036\"\n        );\n\n        if (\n            shouldPenalizeLP(\n            quote,\n            transferredAmountOrErrorCode,\n            callRegistry[quoteHash].timestamp,\n            height\n        )\n        ) {\n            uint penalizationAmount = min(\n                quote.penaltyFee,\n                collateral[quote.liquidityProviderRskAddress]\n            ); // prevent underflow when collateral is less than penalty fee.\n            collateral[quote.liquidityProviderRskAddress] -= penalizationAmount;\n            emit Penalized(\n                quote.liquidityProviderRskAddress,\n                penalizationAmount,\n                quoteHash\n            );\n\n            // pay reward to sender\n            uint256 punisherReward = (penalizationAmount * rewardP) / 100;\n            increaseBalance(msg.sender, punisherReward);\n        }\n\n        if (\n            transferredAmountOrErrorCode == BRIDGE_REFUNDED_LP_ERROR_CODE ||\n            transferredAmountOrErrorCode == BRIDGE_REFUNDED_USER_ERROR_CODE\n        ) {\n            // Bridge cap exceeded\n            processedQuotes[quoteHash] = PROCESSED_QUOTE_CODE;\n            delete callRegistry[quoteHash];\n            emit BridgeCapExceeded(quoteHash, transferredAmountOrErrorCode);\n            return transferredAmountOrErrorCode;\n        }\n\n        // the amount is safely assumed positive because it's already been\n        // validated in lines 287/298 there's no (negative) error code being returned by the bridge.\n        uint transferredAmount = uint(transferredAmountOrErrorCode);\n\n        QuotesV2.checkAgreedAmount(quote, transferredAmount);\n\n        if (callRegistry[quoteHash].timestamp > 0) {\n            uint refundAmount;\n\n            if (callRegistry[quoteHash].success) {\n                refundAmount = min(\n                    transferredAmount,\n                    quote.value + quote.callFee + quote.gasFee\n                );\n            } else {\n                refundAmount = min(transferredAmount, quote.callFee + quote.gasFee);\n            }\n            increaseBalance(quote.liquidityProviderRskAddress, refundAmount);\n\n            uint remainingAmount = transferredAmount - refundAmount;\n            payToFeeCollector(quote.productFeeAmount, quoteHash);\n\n            if (remainingAmount > dust) {\n                // refund rskRefundAddress, if remaining amount greater than dust\n                (bool success,) = quote.rskRefundAddress.call{\n                        gas: MAX_REFUND_GAS_LIMIT,\n                        value: remainingAmount\n                    }(\"\");\n                emit Refund(\n                    quote.rskRefundAddress,\n                    remainingAmount,\n                    success,\n                    quoteHash\n                );\n\n                if (!success) {\n                    // transfer funds to LP instead, if for some reason transfer to rskRefundAddress was unsuccessful\n                    increaseBalance(\n                        quote.liquidityProviderRskAddress,\n                        remainingAmount\n                    );\n                }\n            }\n        } else {\n            uint refundAmount = transferredAmount;\n\n            if (quote.callOnRegister && refundAmount >= quote.value) {\n                (bool callSuccess,) = quote.contractAddress.call{\n                        gas: quote.gasLimit,\n                        value: quote.value\n                    }(quote.data);\n                emit CallForUser(\n                    msg.sender,\n                    quote.contractAddress,\n                    quote.gasLimit,\n                    quote.value,\n                    quote.data,\n                    callSuccess,\n                    quoteHash\n                );\n\n                if (callSuccess) {\n                    refundAmount -= quote.value;\n                }\n            }\n            if (refundAmount > dust) {\n                // refund rskRefundAddress, if refund amount greater than dust\n                (bool success,) = quote.rskRefundAddress.call{\n                        gas: MAX_REFUND_GAS_LIMIT,\n                        value: refundAmount\n                    }(\"\");\n                emit Refund(\n                    quote.rskRefundAddress,\n                    refundAmount,\n                    success,\n                    quoteHash\n                );\n            }\n        }\n        processedQuotes[quoteHash] = PROCESSED_QUOTE_CODE;\n        delete callRegistry[quoteHash];\n        emit PegInRegistered(quoteHash, transferredAmountOrErrorCode);\n        return transferredAmountOrErrorCode;\n    }\n\n    function depositPegout( // TODO convert to calldata when contract size issues are fixed\n        QuotesV2.PegOutQuote memory quote,\n        bytes memory signature\n    ) external payable {\n        require(isRegisteredForPegout(quote.lpRskAddress), \"LBC037\");\n        require(quote.value + quote.callFee + quote.productFeeAmount + quote.gasFee <= msg.value, \"LBC063\");\n        require(block.timestamp <= quote.depositDateLimit, \"LBC065\");\n        require(block.timestamp <= quote.expireDate, \"LBC046\");\n        require(block.number <= quote.expireBlock, \"LBC047\");\n        bytes32 quoteHash = hashPegoutQuote(quote);\n        require(\n            SignatureValidator.verify(quote.lpRskAddress, quoteHash, signature),\n            \"LBC029\"\n        );\n\n        QuotesV2.PegOutQuote storage registeredQuote = registeredPegoutQuotes[quoteHash];\n\n        require(pegoutRegistry[quoteHash].completed == false, \"LBC064\");\n        require(registeredQuote.lbcAddress == address(0), \"LBC028\");\n        registeredPegoutQuotes[quoteHash] = quote;\n        pegoutRegistry[quoteHash].depositTimestamp = block.timestamp;\n        emit PegOutDeposit(quoteHash, msg.sender, msg.value, block.timestamp);\n    }\n\n    function refundUserPegOut(\n        bytes32 quoteHash\n    ) external nonReentrant {\n        QuotesV2.PegOutQuote storage quote = registeredPegoutQuotes[quoteHash];\n\n        require(quote.lbcAddress != address(0), \"LBC042\");\n        require(\n            block.timestamp > quote.expireDate &&\n            block.number > quote.expireBlock,\n            \"LBC041\"\n        );\n\n        uint valueToTransfer = quote.value + quote.callFee + quote.productFeeAmount + quote.gasFee;\n        address addressToTransfer = quote.rskRefundAddress;\n\n        uint penalty = min(quote.penaltyFee, pegoutCollateral[quote.lpRskAddress]);\n        pegoutCollateral[quote.lpRskAddress] -= penalty;\n\n        emit Penalized(quote.lpRskAddress, penalty, quoteHash);\n        emit PegOutUserRefunded(\n            quoteHash,\n            valueToTransfer,\n            quote.rskRefundAddress\n        );\n\n        delete registeredPegoutQuotes[quoteHash];\n        pegoutRegistry[quoteHash].completed = true;\n\n        (bool sent,) = addressToTransfer.call{value: valueToTransfer}(\"\");\n        require(sent, \"LBC044\");\n    }\n\n    function refundPegOut(\n        bytes32 quoteHash,\n        bytes memory btcTx,\n        bytes32 btcBlockHeaderHash,\n        uint256 partialMerkleTree,\n        bytes32[] memory merkleBranchHashes\n    ) external nonReentrant onlyRegisteredForPegout {\n        require(pegoutRegistry[quoteHash].completed == false, \"LBC064\");\n        QuotesV2.PegOutQuote storage quote = registeredPegoutQuotes[quoteHash];\n        require(quote.lbcAddress != address(0), \"LBC042\");\n        BtcUtils.TxRawOutput[] memory outputs = BtcUtils.getOutputs(btcTx);\n        bytes memory scriptContent = BtcUtils.parseNullDataScript(outputs[QUOTE_HASH_OUTPUT].pkScript);\n        require(scriptContent.length == 33 && scriptContent[0] == 0x20, \"LBC075\");\n        // shift the array to remove the first byte (the size)\n        for (uint8 i = 0 ; i < scriptContent.length - 1; i++) {\n            scriptContent[i] = scriptContent[i + 1];\n        }\n        bytes32 txQuoteHash = abi.decode(scriptContent, (bytes32));\n        require(quoteHash == txQuoteHash, \"LBC069\");\n        require(msg.sender == quote.lpRskAddress, \"LBC048\");\n        require(\n            bridge.getBtcTransactionConfirmations(\n                BtcUtils.hashBtcTx(btcTx),\n                btcBlockHeaderHash,\n                partialMerkleTree,\n                merkleBranchHashes\n            ) >= int(uint256(quote.transferConfirmations)),\n            \"LBC049\"\n        );\n        require(quote.value <= outputs[PAY_TO_ADDRESS_OUTPUT].value * (10**10), \"LBC067\"); // satoshi to wei\n        bytes memory btcTxDestination = BtcUtils.outputScriptToAddress(\n            outputs[PAY_TO_ADDRESS_OUTPUT].pkScript,\n            mainnet\n        );\n        require(keccak256(quote.deposityAddress) == keccak256(btcTxDestination), \"LBC068\");\n\n        if (\n            shouldPenalizePegOutLP(\n            quote,\n            txQuoteHash,\n            btcBlockHeaderHash\n        )\n        ) {\n            uint penalty = min(\n                quote.penaltyFee,\n                pegoutCollateral[quote.lpRskAddress]\n            );\n            pegoutCollateral[quote.lpRskAddress] -= penalty;\n            emit Penalized(quote.lpRskAddress, penalty, txQuoteHash);\n        }\n\n        (bool sent,) = quote.lpRskAddress.call{\n                value: quote.value + quote.callFee\n            }(\"\");\n        require(sent, \"LBC050\");\n\n        payToFeeCollector(quote.productFeeAmount, quoteHash);\n\n        delete registeredPegoutQuotes[txQuoteHash];\n        pegoutRegistry[txQuoteHash].completed = true;\n        emit PegOutRefunded(txQuoteHash);\n    }\n\n    function validatePeginDepositAddress(\n        QuotesV2.PeginQuote memory quote,\n        bytes memory depositAddress\n    ) external view returns (bool) {\n        bytes32 derivationValue = keccak256(\n            bytes.concat(\n                hashQuote(quote),\n                quote.btcRefundAddress,\n                bytes20(quote.lbcAddress),\n                quote.liquidityProviderBtcAddress\n            )\n        );\n        bytes memory flyoverRedeemScript = bytes.concat(\n            hex\"20\",\n            derivationValue,\n            hex\"75\",\n            bridge.getActivePowpegRedeemScript()\n        );\n        return BtcUtils.validateP2SHAdress(depositAddress, flyoverRedeemScript, mainnet);\n    }\n\n    /**\n        @dev Calculates hash of a quote. Note: besides calculation this function also validates the quote.\n        @param quote The quote of the service\n        @return The hash of a quote\n     */\n    function hashQuote(QuotesV2.PeginQuote memory quote) public view returns (bytes32) {\n        return validateAndHashQuote(quote);\n    }\n\n    function hashPegoutQuote(\n        QuotesV2.PegOutQuote memory quote\n    ) public view returns (bytes32) {\n        return validateAndHashPegOutQuote(quote);\n    }\n\n    function validateAndHashQuote(\n        QuotesV2.PeginQuote memory quote\n    ) private view returns (bytes32) {\n        require(address(this) == quote.lbcAddress, \"LBC051\");\n        require(\n            address(bridge) != quote.contractAddress,\n            \"LBC052\"\n        );\n        require(\n            quote.btcRefundAddress.length == 21 ||\n            quote.btcRefundAddress.length == 33,\n            \"LBC053\"\n        );\n        require(\n            quote.liquidityProviderBtcAddress.length == 21,\n            \"LBC054\"\n        );\n        require(\n            quote.value + quote.callFee + quote.productFeeAmount + quote.gasFee >= minPegIn,\n            \"LBC055\"\n        );\n        require(\n            type(uint32).max >= uint64(quote.agreementTimestamp) + uint64(quote.timeForDeposit),\n            \"LBC071\"\n        );\n\n        return keccak256(QuotesV2.encodeQuote(quote));\n    }\n\n    function validateAndHashPegOutQuote(\n        QuotesV2.PegOutQuote memory quote\n    ) private view returns (bytes32) {\n        require(address(this) == quote.lbcAddress, \"LBC056\");\n\n        return keccak256(QuotesV2.encodePegOutQuote(quote));\n    }\n\n    function min(uint a, uint b) private pure returns (uint) {\n        return a < b ? a : b;\n    }\n\n    // IMPORTANT: These methods should remain private at all costs\n    function increaseBalance(address dest, uint amount) private {\n        balances[dest] += amount;\n        emit BalanceIncrease(dest, amount);\n    }\n\n    function decreaseBalance(address dest, uint amount) private {\n        balances[dest] -= amount;\n        emit BalanceDecrease(dest, amount);\n    }\n\n    /**\n        @dev Checks if a liquidity provider is registered\n        @param addr The address of the liquidity provider\n        @return Boolean indicating whether the liquidity provider is registered\n     */\n    function isRegistered(address addr) private view returns (bool) {\n        return collateral[addr] > 0 && resignationBlockNum[addr] == 0;\n    }\n\n    function isRegisteredForPegout(address addr) private view returns (bool) {\n        return pegoutCollateral[addr] > 0 && resignationBlockNum[addr] == 0;\n    }\n\n    /**\n        @dev Registers a transaction with the bridge contract\n        @param quote The quote of the service\n        @param btcRawTransaction The peg-in transaction\n        @param partialMerkleTree The merkle tree path that proves transaction inclusion\n        @param height The block that contains the transaction\n        @return The total peg-in amount received from the bridge contract or an error code\n     */\n    function registerBridge(\n        QuotesV2.PeginQuote memory quote,\n        bytes memory btcRawTransaction,\n        bytes memory partialMerkleTree,\n        uint256 height,\n        bytes32 derivationHash\n    ) private returns (int256) {\n        return\n            bridge.registerFastBridgeBtcTransaction(\n            btcRawTransaction,\n            height,\n            partialMerkleTree,\n            derivationHash,\n            quote.btcRefundAddress,\n            payable(this),\n            quote.liquidityProviderBtcAddress,\n            callRegistry[derivationHash].timestamp > 0 && callRegistry[derivationHash].success\n        );\n    }\n\n    /**\n        @dev Checks if a liquidity provider should be penalized\n        @param quote The quote of the service\n        @param amount The transferred amount or an error code\n        @param callTimestamp The time that the liquidity provider called callForUser\n        @param height The block height where the peg-in transaction is included\n        @return Boolean indicating whether the penalty applies\n     */\n    function shouldPenalizeLP(\n        QuotesV2.PeginQuote memory quote,\n        int256 amount,\n        uint256 callTimestamp,\n        uint256 height\n    ) private view returns (bool) {\n        // do not penalize if deposit amount is insufficient\n        if (amount > 0 && uint256(amount) < quote.value + quote.callFee + quote.productFeeAmount + quote.gasFee) {\n            return false;\n        }\n\n        bytes memory firstConfirmationHeader = bridge\n            .getBtcBlockchainBlockHeaderByHeight(height);\n        require(firstConfirmationHeader.length > 0, \"Invalid block height\");\n\n        uint256 firstConfirmationTimestamp = BtcUtils.getBtcBlockTimestamp(\n            firstConfirmationHeader\n        );\n\n        // do not penalize if deposit was not made on time\n        // prevent overflow when collateral is less than penalty fee.\n        uint timeLimit = quote.agreementTimestamp + quote.timeForDeposit;\n        if (firstConfirmationTimestamp > timeLimit) {\n            return false;\n        }\n\n        // penalize if call was not made\n        if (callTimestamp == 0) {\n            return true;\n        }\n\n        bytes memory nConfirmationsHeader = bridge\n            .getBtcBlockchainBlockHeaderByHeight(\n            height + quote.depositConfirmations - 1\n        );\n        require(nConfirmationsHeader.length > 0, \"LBC058\");\n\n        uint256 nConfirmationsTimestamp = BtcUtils.getBtcBlockTimestamp(\n            nConfirmationsHeader\n        );\n\n        // penalize if the call was not made on time\n        if (callTimestamp > nConfirmationsTimestamp + quote.callTime) {\n            return true;\n        }\n        return false;\n    }\n\n    function shouldPenalizePegOutLP(\n        QuotesV2.PegOutQuote memory quote,\n        bytes32 quoteHash,\n        bytes32 blockHash\n    ) private view returns (bool) {\n        bytes memory firstConfirmationHeader = bridge.getBtcBlockchainBlockHeaderByHash(blockHash);\n        require(firstConfirmationHeader.length > 0, \"LBC059\");\n\n        uint256 firstConfirmationTimestamp = BtcUtils.getBtcBlockTimestamp(firstConfirmationHeader);\n\n        // penalize if the transfer was not made on time\n        if (firstConfirmationTimestamp > pegoutRegistry[quoteHash].depositTimestamp +\n        quote.transferTime + btcBlockTime) {\n            return true;\n        }\n\n        // penalize if LP is refunding after expiration\n        if (block.timestamp > quote.expireDate || block.number > quote.expireBlock) {\n            return true;\n        }\n\n        return false;\n    }\n\n    function payToFeeCollector(uint amount, bytes32 quoteHash) private {\n        if (amount > 0) {\n            (bool daoSuccess,) = payable(daoFeeCollectorAddress).call{value: amount}(\"\");\n            require(daoSuccess, \"LBC074\");\n            emit DaoFeeSent(quoteHash, amount);\n        }\n    }\n\n    function updateProvider(string memory _name, string memory _url) external {\n        require(bytes(_name).length > 0 && bytes(_url).length > 0, \"LBC076\");\n        LiquidityProvider storage lp;\n        for (uint i = 1; i <= providerId; i++) {\n            lp = liquidityProviders[i];\n            if (msg.sender == lp.provider) {\n                lp.name = _name;\n                lp.apiBaseUrl = _url;\n                emit ProviderUpdate(msg.sender, lp.name, lp.apiBaseUrl);\n                return;\n            }\n        }\n        revert(\"LBC001\");\n    }\n}\n",
  "sourcePath": "/Users/guilhermesoares/WebstormProjects/Rootstock/liquidity-bridge-contract/contracts/LiquidityBridgeContractV2.sol",
  "compiler": {
    "name": "solc",
    "version": "0.8.18+commit.87f61d96.Emscripten.clang"
  },
  "schemaVersion": "3.4.13",
  "updatedAt": "2024-08-08T08:56:36.740Z",
  "networkType": "ethereum",
  "devdoc": {
    "events": {
      "Initialized(uint8)": {
        "details": "Triggered when the contract has been initialized or reinitialized."
      }
    },
    "kind": "dev",
    "methods": {
      "addCollateral()": {
        "details": "Increases the amount of collateral of the sender"
      },
      "callForUser((bytes20,address,address,bytes,address,bytes,uint256,uint256,address,bytes,uint32,int64,uint256,uint32,uint32,uint32,uint16,bool,uint256,uint256))": {
        "details": "Performs a call on behalf of a user",
        "params": {
          "quote": "The quote that identifies the service"
        },
        "returns": {
          "_0": "Boolean indicating whether the call was successful"
        }
      },
      "deposit()": {
        "details": "Increases the balance of the sender"
      },
      "getBalance(address)": {
        "details": "Returns the amount of funds of a liquidity provider",
        "params": {
          "addr": "The address of the liquidity provider"
        },
        "returns": {
          "_0": "The balance of the liquidity provider"
        }
      },
      "getCollateral(address)": {
        "details": "Returns the amount of collateral of a liquidity provider",
        "params": {
          "addr": "The address of the liquidity provider"
        },
        "returns": {
          "_0": "The amount of locked collateral"
        }
      },
      "hashQuote((bytes20,address,address,bytes,address,bytes,uint256,uint256,address,bytes,uint32,int64,uint256,uint32,uint32,uint32,uint16,bool,uint256,uint256))": {
        "details": "Calculates hash of a quote. Note: besides calculation this function also validates the quote.",
        "params": {
          "quote": "The quote of the service"
        },
        "returns": {
          "_0": "The hash of a quote"
        }
      },
      "isOperational(address)": {
        "details": "Checks whether a liquidity provider can deliver a pegin service",
        "returns": {
          "_0": "Whether the liquidity provider is registered and has enough locked collateral"
        }
      },
      "isOperationalForPegout(address)": {
        "details": "Checks whether a liquidity provider can deliver a pegout service",
        "returns": {
          "_0": "Whether the liquidity provider is registered and has enough locked collateral"
        }
      },
      "owner()": {
        "details": "Returns the address of the current owner."
      },
      "register(string,string,bool,string)": {
        "details": "Registers msg.sender as a liquidity provider with msg.value as collateral"
      },
      "registerPegIn((bytes20,address,address,bytes,address,bytes,uint256,uint256,address,bytes,uint32,int64,uint256,uint32,uint32,uint32,uint16,bool,uint256,uint256),bytes,bytes,bytes,uint256)": {
        "details": "Registers a peg-in transaction with the bridge and pays to the involved parties",
        "params": {
          "btcRawTransaction": "The peg-in transaction",
          "height": "The block that contains the peg-in transaction",
          "partialMerkleTree": "The merkle tree path that proves transaction inclusion",
          "quote": "The quote of the service",
          "signature": "The signature of the quote"
        },
        "returns": {
          "_0": "The total peg-in amount received from the bridge contract or an error code"
        }
      },
      "renounceOwnership()": {
        "details": "Leaves the contract without owner. It will not be possible to call `onlyOwner` functions. Can only be called by the current owner. NOTE: Renouncing ownership will leave the contract without an owner, thereby disabling any functionality that is only available to the owner."
      },
      "resign()": {
        "details": "Used to resign as a liquidity provider"
      },
      "transferOwnership(address)": {
        "details": "Transfers ownership of the contract to a new account (`newOwner`). Can only be called by the current owner."
      },
      "withdraw(uint256)": {
        "details": "Used to withdraw funds",
        "params": {
          "amount": "The amount to withdraw"
        }
      },
      "withdrawCollateral()": {
        "details": "Used to withdraw the locked collateral"
      }
    },
    "title": "Contract that assists with the Flyover protocol",
    "version": 1
  },
  "userdoc": {
    "kind": "user",
    "methods": {},
    "version": 1
  }
}