{
  "contractName": "LiquidityBridgeContractV2",
  "abi": [
    {
      "anonymous": false,
      "inputs": [
        {
          "indexed": false,
          "internalType": "address",
          "name": "dest",
          "type": "address"
        },
        {
          "indexed": false,
          "internalType": "uint256",
          "name": "amount",
          "type": "uint256"
        }
      ],
      "name": "BalanceDecrease",
      "type": "event"
    },
    {
      "anonymous": false,
      "inputs": [
        {
          "indexed": false,
          "internalType": "address",
          "name": "dest",
          "type": "address"
        },
        {
          "indexed": false,
          "internalType": "uint256",
          "name": "amount",
          "type": "uint256"
        }
      ],
      "name": "BalanceIncrease",
      "type": "event"
    },
    {
      "anonymous": false,
      "inputs": [
        {
          "indexed": false,
          "internalType": "bytes32",
          "name": "quoteHash",
          "type": "bytes32"
        },
        {
          "indexed": false,
          "internalType": "int256",
          "name": "errorCode",
          "type": "int256"
        }
      ],
      "name": "BridgeCapExceeded",
      "type": "event"
    },
    {
      "anonymous": false,
      "inputs": [
        {
          "indexed": true,
          "internalType": "address",
          "name": "from",
          "type": "address"
        },
        {
          "indexed": true,
          "internalType": "address",
          "name": "dest",
          "type": "address"
        },
        {
          "indexed": false,
          "internalType": "uint256",
          "name": "gasLimit",
          "type": "uint256"
        },
        {
          "indexed": false,
          "internalType": "uint256",
          "name": "value",
          "type": "uint256"
        },
        {
          "indexed": false,
          "internalType": "bytes",
          "name": "data",
          "type": "bytes"
        },
        {
          "indexed": false,
          "internalType": "bool",
          "name": "success",
          "type": "bool"
        },
        {
          "indexed": false,
          "internalType": "bytes32",
          "name": "quoteHash",
          "type": "bytes32"
        }
      ],
      "name": "CallForUser",
      "type": "event"
    },
    {
      "anonymous": false,
      "inputs": [
        {
          "indexed": false,
          "internalType": "address",
          "name": "from",
          "type": "address"
        },
        {
          "indexed": false,
          "internalType": "uint256",
          "name": "amount",
          "type": "uint256"
        }
      ],
      "name": "CollateralIncrease",
      "type": "event"
    },
    {
      "anonymous": false,
      "inputs": [
        {
          "indexed": true,
          "internalType": "bytes32",
          "name": "quoteHash",
          "type": "bytes32"
        },
        {
          "indexed": false,
          "internalType": "uint256",
          "name": "amount",
          "type": "uint256"
        }
      ],
      "name": "DaoFeeSent",
      "type": "event"
    },
    {
      "anonymous": false,
      "inputs": [
        {
          "indexed": false,
          "internalType": "uint8",
          "name": "version",
          "type": "uint8"
        }
      ],
      "name": "Initialized",
      "type": "event"
    },
    {
      "anonymous": false,
      "inputs": [
        {
          "indexed": true,
          "internalType": "address",
          "name": "previousOwner",
          "type": "address"
        },
        {
          "indexed": true,
          "internalType": "address",
          "name": "newOwner",
          "type": "address"
        }
      ],
      "name": "OwnershipTransferred",
      "type": "event"
    },
    {
      "anonymous": false,
      "inputs": [
        {
          "indexed": true,
          "internalType": "bytes32",
          "name": "quoteHash",
          "type": "bytes32"
        },
        {
          "indexed": false,
          "internalType": "int256",
          "name": "transferredAmount",
          "type": "int256"
        }
      ],
      "name": "PegInRegistered",
      "type": "event"
    },
    {
      "anonymous": false,
      "inputs": [
        {
          "indexed": true,
          "internalType": "bytes32",
          "name": "quoteHash",
          "type": "bytes32"
        },
        {
          "indexed": true,
          "internalType": "address",
          "name": "sender",
          "type": "address"
        },
        {
          "indexed": false,
          "internalType": "uint256",
          "name": "amount",
          "type": "uint256"
        },
        {
          "indexed": false,
          "internalType": "uint256",
          "name": "timestamp",
          "type": "uint256"
        }
      ],
      "name": "PegOutDeposit",
      "type": "event"
    },
    {
      "anonymous": false,
      "inputs": [
        {
          "indexed": true,
          "internalType": "bytes32",
          "name": "quoteHash",
          "type": "bytes32"
        }
      ],
      "name": "PegOutRefunded",
      "type": "event"
    },
    {
      "anonymous": false,
      "inputs": [
        {
          "indexed": true,
          "internalType": "bytes32",
          "name": "quoteHash",
          "type": "bytes32"
        },
        {
          "indexed": false,
          "internalType": "uint256",
          "name": "value",
          "type": "uint256"
        },
        {
          "indexed": false,
          "internalType": "address",
          "name": "userAddress",
          "type": "address"
        }
      ],
      "name": "PegOutUserRefunded",
      "type": "event"
    },
    {
      "anonymous": false,
      "inputs": [
        {
          "indexed": false,
          "internalType": "address",
          "name": "from",
          "type": "address"
        },
        {
          "indexed": false,
          "internalType": "uint256",
          "name": "amount",
          "type": "uint256"
        }
      ],
      "name": "PegoutCollateralIncrease",
      "type": "event"
    },
    {
      "anonymous": false,
      "inputs": [
        {
          "indexed": false,
          "internalType": "address",
          "name": "liquidityProvider",
          "type": "address"
        },
        {
          "indexed": false,
          "internalType": "uint256",
          "name": "penalty",
          "type": "uint256"
        },
        {
          "indexed": false,
          "internalType": "bytes32",
          "name": "quoteHash",
          "type": "bytes32"
        }
      ],
      "name": "Penalized",
      "type": "event"
    },
    {
      "anonymous": false,
      "inputs": [
        {
          "indexed": true,
          "internalType": "address",
          "name": "providerAddress",
          "type": "address"
        },
        {
          "indexed": false,
          "internalType": "string",
          "name": "name",
          "type": "string"
        },
        {
          "indexed": false,
          "internalType": "string",
          "name": "url",
          "type": "string"
        }
      ],
      "name": "ProviderUpdate",
      "type": "event"
    },
    {
      "anonymous": false,
      "inputs": [
        {
          "indexed": false,
          "internalType": "address",
          "name": "dest",
          "type": "address"
        },
        {
          "indexed": false,
          "internalType": "uint256",
          "name": "amount",
          "type": "uint256"
        },
        {
          "indexed": false,
          "internalType": "bool",
          "name": "success",
          "type": "bool"
        },
        {
          "indexed": false,
          "internalType": "bytes32",
          "name": "quoteHash",
          "type": "bytes32"
        }
      ],
      "name": "Refund",
      "type": "event"
    },
    {
      "anonymous": false,
      "inputs": [
        {
          "indexed": false,
          "internalType": "uint256",
          "name": "id",
          "type": "uint256"
        },
        {
          "indexed": true,
          "internalType": "address",
          "name": "from",
          "type": "address"
        },
        {
          "indexed": false,
          "internalType": "uint256",
          "name": "amount",
          "type": "uint256"
        }
      ],
      "name": "Register",
      "type": "event"
    },
    {
      "anonymous": false,
      "inputs": [
        {
          "indexed": false,
          "internalType": "address",
          "name": "from",
          "type": "address"
        }
      ],
      "name": "Resigned",
      "type": "event"
    },
    {
      "anonymous": false,
      "inputs": [
        {
          "indexed": false,
          "internalType": "address",
          "name": "from",
          "type": "address"
        },
        {
          "indexed": false,
          "internalType": "uint256",
          "name": "amount",
          "type": "uint256"
        }
      ],
      "name": "WithdrawCollateral",
      "type": "event"
    },
    {
      "anonymous": false,
      "inputs": [
        {
          "indexed": false,
          "internalType": "address",
          "name": "from",
          "type": "address"
        },
        {
          "indexed": false,
          "internalType": "uint256",
          "name": "amount",
          "type": "uint256"
        }
      ],
      "name": "Withdrawal",
      "type": "event"
    },
    {
      "inputs": [],
      "name": "BRIDGE_GENERIC_ERROR",
      "outputs": [
        {
          "internalType": "int16",
          "name": "",
          "type": "int16"
        }
      ],
      "stateMutability": "view",
      "type": "function",
      "constant": true
    },
    {
      "inputs": [],
      "name": "BRIDGE_REFUNDED_LP_ERROR_CODE",
      "outputs": [
        {
          "internalType": "int16",
          "name": "",
          "type": "int16"
        }
      ],
      "stateMutability": "view",
      "type": "function",
      "constant": true
    },
    {
      "inputs": [],
      "name": "BRIDGE_REFUNDED_USER_ERROR_CODE",
      "outputs": [
        {
          "internalType": "int16",
          "name": "",
          "type": "int16"
        }
      ],
      "stateMutability": "view",
      "type": "function",
      "constant": true
    },
    {
      "inputs": [],
      "name": "BRIDGE_UNPROCESSABLE_TX_ALREADY_PROCESSED_ERROR_CODE",
      "outputs": [
        {
          "internalType": "int16",
          "name": "",
          "type": "int16"
        }
      ],
      "stateMutability": "view",
      "type": "function",
      "constant": true
    },
    {
      "inputs": [],
      "name": "BRIDGE_UNPROCESSABLE_TX_INVALID_SENDER_ERROR_CODE",
      "outputs": [
        {
          "internalType": "int16",
          "name": "",
          "type": "int16"
        }
      ],
      "stateMutability": "view",
      "type": "function",
      "constant": true
    },
    {
      "inputs": [],
      "name": "BRIDGE_UNPROCESSABLE_TX_NOT_CONTRACT_ERROR_CODE",
      "outputs": [
        {
          "internalType": "int16",
          "name": "",
          "type": "int16"
        }
      ],
      "stateMutability": "view",
      "type": "function",
      "constant": true
    },
    {
      "inputs": [],
      "name": "BRIDGE_UNPROCESSABLE_TX_UTXO_AMOUNT_SENT_BELOW_MINIMUM_ERROR",
      "outputs": [
        {
          "internalType": "int16",
          "name": "",
          "type": "int16"
        }
      ],
      "stateMutability": "view",
      "type": "function",
      "constant": true
    },
    {
      "inputs": [],
      "name": "BRIDGE_UNPROCESSABLE_TX_VALIDATIONS_ERROR",
      "outputs": [
        {
          "internalType": "int16",
          "name": "",
          "type": "int16"
        }
      ],
      "stateMutability": "view",
      "type": "function",
      "constant": true
    },
    {
      "inputs": [],
      "name": "BRIDGE_UNPROCESSABLE_TX_VALUE_ZERO_ERROR",
      "outputs": [
        {
          "internalType": "int16",
          "name": "",
          "type": "int16"
        }
      ],
      "stateMutability": "view",
      "type": "function",
      "constant": true
    },
    {
      "inputs": [],
      "name": "CALL_DONE_CODE",
      "outputs": [
        {
          "internalType": "uint8",
          "name": "",
          "type": "uint8"
        }
      ],
      "stateMutability": "view",
      "type": "function",
      "constant": true
    },
    {
      "inputs": [],
      "name": "MAX_CALL_GAS_COST",
      "outputs": [
        {
          "internalType": "uint16",
          "name": "",
          "type": "uint16"
        }
      ],
      "stateMutability": "view",
      "type": "function",
      "constant": true
    },
    {
      "inputs": [],
      "name": "MAX_REFUND_GAS_LIMIT",
      "outputs": [
        {
          "internalType": "uint16",
          "name": "",
          "type": "uint16"
        }
      ],
      "stateMutability": "view",
      "type": "function",
      "constant": true
    },
    {
      "inputs": [],
      "name": "PAY_TO_ADDRESS_OUTPUT",
      "outputs": [
        {
          "internalType": "uint256",
          "name": "",
          "type": "uint256"
        }
      ],
      "stateMutability": "view",
      "type": "function",
      "constant": true
    },
    {
      "inputs": [],
      "name": "PROCESSED_QUOTE_CODE",
      "outputs": [
        {
          "internalType": "uint8",
          "name": "",
          "type": "uint8"
        }
      ],
      "stateMutability": "view",
      "type": "function",
      "constant": true
    },
    {
      "inputs": [],
      "name": "QUOTE_HASH_OUTPUT",
      "outputs": [
        {
          "internalType": "uint256",
          "name": "",
          "type": "uint256"
        }
      ],
      "stateMutability": "view",
      "type": "function",
      "constant": true
    },
    {
      "inputs": [],
      "name": "SAT_TO_WEI_CONVERSION",
      "outputs": [
        {
          "internalType": "uint256",
          "name": "",
          "type": "uint256"
        }
      ],
      "stateMutability": "view",
      "type": "function",
      "constant": true
    },
    {
      "inputs": [],
      "name": "UNPROCESSED_QUOTE_CODE",
      "outputs": [
        {
          "internalType": "uint8",
          "name": "",
          "type": "uint8"
        }
      ],
      "stateMutability": "view",
      "type": "function",
      "constant": true
    },
    {
      "inputs": [],
      "name": "bridge",
      "outputs": [
        {
          "internalType": "contract Bridge",
          "name": "",
          "type": "address"
        }
      ],
      "stateMutability": "view",
      "type": "function",
      "constant": true
    },
    {
      "inputs": [],
      "name": "daoFeeCollectorAddress",
      "outputs": [
        {
          "internalType": "address",
          "name": "",
          "type": "address"
        }
      ],
      "stateMutability": "view",
      "type": "function",
      "constant": true
    },
    {
      "inputs": [],
      "name": "owner",
      "outputs": [
        {
          "internalType": "address",
          "name": "",
          "type": "address"
        }
      ],
      "stateMutability": "view",
      "type": "function",
      "constant": true
    },
    {
      "inputs": [],
      "name": "productFeePercentage",
      "outputs": [
        {
          "internalType": "uint256",
          "name": "",
          "type": "uint256"
        }
      ],
      "stateMutability": "view",
      "type": "function",
      "constant": true
    },
    {
      "inputs": [],
      "name": "providerId",
      "outputs": [
        {
          "internalType": "uint256",
          "name": "",
          "type": "uint256"
        }
      ],
      "stateMutability": "view",
      "type": "function",
      "constant": true
    },
    {
      "inputs": [],
      "name": "renounceOwnership",
      "outputs": [],
      "stateMutability": "nonpayable",
      "type": "function"
    },
    {
      "inputs": [
        {
          "internalType": "address",
          "name": "newOwner",
          "type": "address"
        }
      ],
      "name": "transferOwnership",
      "outputs": [],
      "stateMutability": "nonpayable",
      "type": "function"
    },
    {
      "stateMutability": "payable",
      "type": "receive",
      "payable": true
    },
    {
      "inputs": [
        {
          "internalType": "uint256",
          "name": "_providerId",
          "type": "uint256"
        },
        {
          "internalType": "bool",
          "name": "status",
          "type": "bool"
        }
      ],
      "name": "setProviderStatus",
      "outputs": [],
      "stateMutability": "nonpayable",
      "type": "function"
    },
    {
      "inputs": [],
      "name": "version",
      "outputs": [
        {
          "internalType": "string",
          "name": "",
          "type": "string"
        }
      ],
      "stateMutability": "pure",
      "type": "function",
      "constant": true
    },
    {
      "inputs": [],
      "name": "getProviderIds",
      "outputs": [
        {
          "internalType": "uint256",
          "name": "",
          "type": "uint256"
        }
      ],
      "stateMutability": "view",
      "type": "function",
      "constant": true
    },
    {
      "inputs": [],
      "name": "getBridgeAddress",
      "outputs": [
        {
          "internalType": "address",
          "name": "",
          "type": "address"
        }
      ],
      "stateMutability": "view",
      "type": "function",
      "constant": true
    },
    {
      "inputs": [],
      "name": "getMinCollateral",
      "outputs": [
        {
          "internalType": "uint256",
          "name": "",
          "type": "uint256"
        }
      ],
      "stateMutability": "view",
      "type": "function",
      "constant": true
    },
    {
      "inputs": [],
      "name": "getMinPegIn",
      "outputs": [
        {
          "internalType": "uint256",
          "name": "",
          "type": "uint256"
        }
      ],
      "stateMutability": "view",
      "type": "function",
      "constant": true
    },
    {
      "inputs": [],
      "name": "getRewardPercentage",
      "outputs": [
        {
          "internalType": "uint256",
          "name": "",
          "type": "uint256"
        }
      ],
      "stateMutability": "view",
      "type": "function",
      "constant": true
    },
    {
      "inputs": [],
      "name": "getResignDelayBlocks",
      "outputs": [
        {
          "internalType": "uint256",
          "name": "",
          "type": "uint256"
        }
      ],
      "stateMutability": "view",
      "type": "function",
      "constant": true
    },
    {
      "inputs": [],
      "name": "getDustThreshold",
      "outputs": [
        {
          "internalType": "uint256",
          "name": "",
          "type": "uint256"
        }
      ],
      "stateMutability": "view",
      "type": "function",
      "constant": true
    },
    {
      "inputs": [
        {
          "internalType": "bytes32",
          "name": "quoteHash",
          "type": "bytes32"
        }
      ],
      "name": "isPegOutQuoteCompleted",
      "outputs": [
        {
          "internalType": "bool",
          "name": "",
          "type": "bool"
        }
      ],
      "stateMutability": "view",
      "type": "function",
      "constant": true
    },
    {
      "inputs": [
        {
          "internalType": "address",
          "name": "addr",
          "type": "address"
        }
      ],
      "name": "isOperational",
      "outputs": [
        {
          "internalType": "bool",
          "name": "",
          "type": "bool"
        }
      ],
      "stateMutability": "view",
      "type": "function",
      "constant": true
    },
    {
      "inputs": [
        {
          "internalType": "address",
          "name": "addr",
          "type": "address"
        }
      ],
      "name": "isOperationalForPegout",
      "outputs": [
        {
          "internalType": "bool",
          "name": "",
          "type": "bool"
        }
      ],
      "stateMutability": "view",
      "type": "function",
      "constant": true
    },
    {
      "inputs": [
        {
          "internalType": "string",
          "name": "_name",
          "type": "string"
        },
        {
          "internalType": "string",
          "name": "_apiBaseUrl",
          "type": "string"
        },
        {
          "internalType": "bool",
          "name": "_status",
          "type": "bool"
        },
        {
          "internalType": "string",
          "name": "_providerType",
          "type": "string"
        }
      ],
      "name": "register",
      "outputs": [
        {
          "internalType": "uint256",
          "name": "",
          "type": "uint256"
        }
      ],
      "stateMutability": "payable",
      "type": "function",
      "payable": true
    },
    {
      "inputs": [
        {
          "internalType": "uint256[]",
          "name": "providerIds",
          "type": "uint256[]"
        }
      ],
      "name": "getProviders",
      "outputs": [
        {
          "components": [
            {
              "internalType": "uint256",
              "name": "id",
              "type": "uint256"
            },
            {
              "internalType": "address",
              "name": "provider",
              "type": "address"
            },
            {
              "internalType": "string",
              "name": "name",
              "type": "string"
            },
            {
              "internalType": "string",
              "name": "apiBaseUrl",
              "type": "string"
            },
            {
              "internalType": "bool",
              "name": "status",
              "type": "bool"
            },
            {
              "internalType": "string",
              "name": "providerType",
              "type": "string"
            }
          ],
          "internalType": "struct LiquidityBridgeContractV2.LiquidityProvider[]",
          "name": "",
          "type": "tuple[]"
        }
      ],
      "stateMutability": "view",
      "type": "function",
      "constant": true
    },
    {
      "inputs": [],
      "name": "addCollateral",
      "outputs": [],
      "stateMutability": "payable",
      "type": "function",
      "payable": true
    },
    {
      "inputs": [],
      "name": "addPegoutCollateral",
      "outputs": [],
      "stateMutability": "payable",
      "type": "function",
      "payable": true
    },
    {
      "inputs": [],
      "name": "deposit",
      "outputs": [],
      "stateMutability": "payable",
      "type": "function",
      "payable": true
    },
    {
      "inputs": [
        {
          "internalType": "uint256",
          "name": "amount",
          "type": "uint256"
        }
      ],
      "name": "withdraw",
      "outputs": [],
      "stateMutability": "nonpayable",
      "type": "function"
    },
    {
      "inputs": [],
      "name": "withdrawCollateral",
      "outputs": [],
      "stateMutability": "nonpayable",
      "type": "function"
    },
    {
      "inputs": [],
      "name": "resign",
      "outputs": [],
      "stateMutability": "nonpayable",
      "type": "function"
    },
    {
      "inputs": [
        {
          "internalType": "address",
          "name": "addr",
          "type": "address"
        }
      ],
      "name": "getCollateral",
      "outputs": [
        {
          "internalType": "uint256",
          "name": "",
          "type": "uint256"
        }
      ],
      "stateMutability": "view",
      "type": "function",
      "constant": true
    },
    {
      "inputs": [
        {
          "internalType": "address",
          "name": "addr",
          "type": "address"
        }
      ],
      "name": "getPegoutCollateral",
      "outputs": [
        {
          "internalType": "uint256",
          "name": "",
          "type": "uint256"
        }
      ],
      "stateMutability": "view",
      "type": "function",
      "constant": true
    },
    {
      "inputs": [
        {
          "internalType": "address",
          "name": "addr",
          "type": "address"
        }
      ],
      "name": "getBalance",
      "outputs": [
        {
          "internalType": "uint256",
          "name": "",
          "type": "uint256"
        }
      ],
      "stateMutability": "view",
      "type": "function",
      "constant": true
    },
    {
      "inputs": [
        {
          "components": [
            {
              "internalType": "bytes20",
              "name": "fedBtcAddress",
              "type": "bytes20"
            },
            {
              "internalType": "address",
              "name": "lbcAddress",
              "type": "address"
            },
            {
              "internalType": "address",
              "name": "liquidityProviderRskAddress",
              "type": "address"
            },
            {
              "internalType": "bytes",
              "name": "btcRefundAddress",
              "type": "bytes"
            },
            {
              "internalType": "address payable",
              "name": "rskRefundAddress",
              "type": "address"
            },
            {
              "internalType": "bytes",
              "name": "liquidityProviderBtcAddress",
              "type": "bytes"
            },
            {
              "internalType": "uint256",
              "name": "callFee",
              "type": "uint256"
            },
            {
              "internalType": "uint256",
              "name": "penaltyFee",
              "type": "uint256"
            },
            {
              "internalType": "address",
              "name": "contractAddress",
              "type": "address"
            },
            {
              "internalType": "bytes",
              "name": "data",
              "type": "bytes"
            },
            {
              "internalType": "uint32",
              "name": "gasLimit",
              "type": "uint32"
            },
            {
              "internalType": "int64",
              "name": "nonce",
              "type": "int64"
            },
            {
              "internalType": "uint256",
              "name": "value",
              "type": "uint256"
            },
            {
              "internalType": "uint32",
              "name": "agreementTimestamp",
              "type": "uint32"
            },
            {
              "internalType": "uint32",
              "name": "timeForDeposit",
              "type": "uint32"
            },
            {
              "internalType": "uint32",
              "name": "callTime",
              "type": "uint32"
            },
            {
              "internalType": "uint16",
              "name": "depositConfirmations",
              "type": "uint16"
            },
            {
              "internalType": "bool",
              "name": "callOnRegister",
              "type": "bool"
            },
            {
              "internalType": "uint256",
              "name": "productFeeAmount",
              "type": "uint256"
            },
            {
              "internalType": "uint256",
              "name": "gasFee",
              "type": "uint256"
            }
          ],
          "internalType": "struct QuotesV2.PeginQuote",
          "name": "quote",
          "type": "tuple"
        }
      ],
      "name": "callForUser",
      "outputs": [
        {
          "internalType": "bool",
          "name": "",
          "type": "bool"
        }
      ],
      "stateMutability": "payable",
      "type": "function",
      "payable": true
    },
    {
      "inputs": [
        {
          "components": [
            {
              "internalType": "bytes20",
              "name": "fedBtcAddress",
              "type": "bytes20"
            },
            {
              "internalType": "address",
              "name": "lbcAddress",
              "type": "address"
            },
            {
              "internalType": "address",
              "name": "liquidityProviderRskAddress",
              "type": "address"
            },
            {
              "internalType": "bytes",
              "name": "btcRefundAddress",
              "type": "bytes"
            },
            {
              "internalType": "address payable",
              "name": "rskRefundAddress",
              "type": "address"
            },
            {
              "internalType": "bytes",
              "name": "liquidityProviderBtcAddress",
              "type": "bytes"
            },
            {
              "internalType": "uint256",
              "name": "callFee",
              "type": "uint256"
            },
            {
              "internalType": "uint256",
              "name": "penaltyFee",
              "type": "uint256"
            },
            {
              "internalType": "address",
              "name": "contractAddress",
              "type": "address"
            },
            {
              "internalType": "bytes",
              "name": "data",
              "type": "bytes"
            },
            {
              "internalType": "uint32",
              "name": "gasLimit",
              "type": "uint32"
            },
            {
              "internalType": "int64",
              "name": "nonce",
              "type": "int64"
            },
            {
              "internalType": "uint256",
              "name": "value",
              "type": "uint256"
            },
            {
              "internalType": "uint32",
              "name": "agreementTimestamp",
              "type": "uint32"
            },
            {
              "internalType": "uint32",
              "name": "timeForDeposit",
              "type": "uint32"
            },
            {
              "internalType": "uint32",
              "name": "callTime",
              "type": "uint32"
            },
            {
              "internalType": "uint16",
              "name": "depositConfirmations",
              "type": "uint16"
            },
            {
              "internalType": "bool",
              "name": "callOnRegister",
              "type": "bool"
            },
            {
              "internalType": "uint256",
              "name": "productFeeAmount",
              "type": "uint256"
            },
            {
              "internalType": "uint256",
              "name": "gasFee",
              "type": "uint256"
            }
          ],
          "internalType": "struct QuotesV2.PeginQuote",
          "name": "quote",
          "type": "tuple"
        },
        {
          "internalType": "bytes",
          "name": "signature",
          "type": "bytes"
        },
        {
          "internalType": "bytes",
          "name": "btcRawTransaction",
          "type": "bytes"
        },
        {
          "internalType": "bytes",
          "name": "partialMerkleTree",
          "type": "bytes"
        },
        {
          "internalType": "uint256",
          "name": "height",
          "type": "uint256"
        }
      ],
      "name": "registerPegIn",
      "outputs": [
        {
          "internalType": "int256",
          "name": "",
          "type": "int256"
        }
      ],
      "stateMutability": "nonpayable",
      "type": "function"
    },
    {
      "inputs": [
        {
          "components": [
            {
              "internalType": "address",
              "name": "lbcAddress",
              "type": "address"
            },
            {
              "internalType": "address",
              "name": "lpRskAddress",
              "type": "address"
            },
            {
              "internalType": "bytes",
              "name": "btcRefundAddress",
              "type": "bytes"
            },
            {
              "internalType": "address",
              "name": "rskRefundAddress",
              "type": "address"
            },
            {
              "internalType": "bytes",
              "name": "lpBtcAddress",
              "type": "bytes"
            },
            {
              "internalType": "uint256",
              "name": "callFee",
              "type": "uint256"
            },
            {
              "internalType": "uint256",
              "name": "penaltyFee",
              "type": "uint256"
            },
            {
              "internalType": "int64",
              "name": "nonce",
              "type": "int64"
            },
            {
              "internalType": "bytes",
              "name": "deposityAddress",
              "type": "bytes"
            },
            {
              "internalType": "uint256",
              "name": "value",
              "type": "uint256"
            },
            {
              "internalType": "uint32",
              "name": "agreementTimestamp",
              "type": "uint32"
            },
            {
              "internalType": "uint32",
              "name": "depositDateLimit",
              "type": "uint32"
            },
            {
              "internalType": "uint16",
              "name": "depositConfirmations",
              "type": "uint16"
            },
            {
              "internalType": "uint16",
              "name": "transferConfirmations",
              "type": "uint16"
            },
            {
              "internalType": "uint32",
              "name": "transferTime",
              "type": "uint32"
            },
            {
              "internalType": "uint32",
              "name": "expireDate",
              "type": "uint32"
            },
            {
              "internalType": "uint32",
              "name": "expireBlock",
              "type": "uint32"
            },
            {
              "internalType": "uint256",
              "name": "productFeeAmount",
              "type": "uint256"
            },
            {
              "internalType": "uint256",
              "name": "gasFee",
              "type": "uint256"
            }
          ],
          "internalType": "struct QuotesV2.PegOutQuote",
          "name": "quote",
          "type": "tuple"
        },
        {
          "internalType": "bytes",
          "name": "signature",
          "type": "bytes"
        }
      ],
      "name": "depositPegout",
      "outputs": [],
      "stateMutability": "payable",
      "type": "function",
      "payable": true
    },
    {
      "inputs": [
        {
          "internalType": "bytes32",
          "name": "quoteHash",
          "type": "bytes32"
        }
      ],
      "name": "refundUserPegOut",
      "outputs": [],
      "stateMutability": "nonpayable",
      "type": "function"
    },
    {
      "inputs": [
        {
          "internalType": "bytes32",
          "name": "quoteHash",
          "type": "bytes32"
        },
        {
          "internalType": "bytes",
          "name": "btcTx",
          "type": "bytes"
        },
        {
          "internalType": "bytes32",
          "name": "btcBlockHeaderHash",
          "type": "bytes32"
        },
        {
          "internalType": "uint256",
          "name": "partialMerkleTree",
          "type": "uint256"
        },
        {
          "internalType": "bytes32[]",
          "name": "merkleBranchHashes",
          "type": "bytes32[]"
        }
      ],
      "name": "refundPegOut",
      "outputs": [],
      "stateMutability": "nonpayable",
      "type": "function"
    },
    {
      "inputs": [
        {
          "components": [
            {
              "internalType": "bytes20",
              "name": "fedBtcAddress",
              "type": "bytes20"
            },
            {
              "internalType": "address",
              "name": "lbcAddress",
              "type": "address"
            },
            {
              "internalType": "address",
              "name": "liquidityProviderRskAddress",
              "type": "address"
            },
            {
              "internalType": "bytes",
              "name": "btcRefundAddress",
              "type": "bytes"
            },
            {
              "internalType": "address payable",
              "name": "rskRefundAddress",
              "type": "address"
            },
            {
              "internalType": "bytes",
              "name": "liquidityProviderBtcAddress",
              "type": "bytes"
            },
            {
              "internalType": "uint256",
              "name": "callFee",
              "type": "uint256"
            },
            {
              "internalType": "uint256",
              "name": "penaltyFee",
              "type": "uint256"
            },
            {
              "internalType": "address",
              "name": "contractAddress",
              "type": "address"
            },
            {
              "internalType": "bytes",
              "name": "data",
              "type": "bytes"
            },
            {
              "internalType": "uint32",
              "name": "gasLimit",
              "type": "uint32"
            },
            {
              "internalType": "int64",
              "name": "nonce",
              "type": "int64"
            },
            {
              "internalType": "uint256",
              "name": "value",
              "type": "uint256"
            },
            {
              "internalType": "uint32",
              "name": "agreementTimestamp",
              "type": "uint32"
            },
            {
              "internalType": "uint32",
              "name": "timeForDeposit",
              "type": "uint32"
            },
            {
              "internalType": "uint32",
              "name": "callTime",
              "type": "uint32"
            },
            {
              "internalType": "uint16",
              "name": "depositConfirmations",
              "type": "uint16"
            },
            {
              "internalType": "bool",
              "name": "callOnRegister",
              "type": "bool"
            },
            {
              "internalType": "uint256",
              "name": "productFeeAmount",
              "type": "uint256"
            },
            {
              "internalType": "uint256",
              "name": "gasFee",
              "type": "uint256"
            }
          ],
          "internalType": "struct QuotesV2.PeginQuote",
          "name": "quote",
          "type": "tuple"
        },
        {
          "internalType": "bytes",
          "name": "depositAddress",
          "type": "bytes"
        }
      ],
      "name": "validatePeginDepositAddress",
      "outputs": [
        {
          "internalType": "bool",
          "name": "",
          "type": "bool"
        }
      ],
      "stateMutability": "view",
      "type": "function",
      "constant": true
    },
    {
      "inputs": [
        {
          "components": [
            {
              "internalType": "bytes20",
              "name": "fedBtcAddress",
              "type": "bytes20"
            },
            {
              "internalType": "address",
              "name": "lbcAddress",
              "type": "address"
            },
            {
              "internalType": "address",
              "name": "liquidityProviderRskAddress",
              "type": "address"
            },
            {
              "internalType": "bytes",
              "name": "btcRefundAddress",
              "type": "bytes"
            },
            {
              "internalType": "address payable",
              "name": "rskRefundAddress",
              "type": "address"
            },
            {
              "internalType": "bytes",
              "name": "liquidityProviderBtcAddress",
              "type": "bytes"
            },
            {
              "internalType": "uint256",
              "name": "callFee",
              "type": "uint256"
            },
            {
              "internalType": "uint256",
              "name": "penaltyFee",
              "type": "uint256"
            },
            {
              "internalType": "address",
              "name": "contractAddress",
              "type": "address"
            },
            {
              "internalType": "bytes",
              "name": "data",
              "type": "bytes"
            },
            {
              "internalType": "uint32",
              "name": "gasLimit",
              "type": "uint32"
            },
            {
              "internalType": "int64",
              "name": "nonce",
              "type": "int64"
            },
            {
              "internalType": "uint256",
              "name": "value",
              "type": "uint256"
            },
            {
              "internalType": "uint32",
              "name": "agreementTimestamp",
              "type": "uint32"
            },
            {
              "internalType": "uint32",
              "name": "timeForDeposit",
              "type": "uint32"
            },
            {
              "internalType": "uint32",
              "name": "callTime",
              "type": "uint32"
            },
            {
              "internalType": "uint16",
              "name": "depositConfirmations",
              "type": "uint16"
            },
            {
              "internalType": "bool",
              "name": "callOnRegister",
              "type": "bool"
            },
            {
              "internalType": "uint256",
              "name": "productFeeAmount",
              "type": "uint256"
            },
            {
              "internalType": "uint256",
              "name": "gasFee",
              "type": "uint256"
            }
          ],
          "internalType": "struct QuotesV2.PeginQuote",
          "name": "quote",
          "type": "tuple"
        }
      ],
      "name": "hashQuote",
      "outputs": [
        {
          "internalType": "bytes32",
          "name": "",
          "type": "bytes32"
        }
      ],
      "stateMutability": "view",
      "type": "function",
      "constant": true
    },
    {
      "inputs": [
        {
          "components": [
            {
              "internalType": "address",
              "name": "lbcAddress",
              "type": "address"
            },
            {
              "internalType": "address",
              "name": "lpRskAddress",
              "type": "address"
            },
            {
              "internalType": "bytes",
              "name": "btcRefundAddress",
              "type": "bytes"
            },
            {
              "internalType": "address",
              "name": "rskRefundAddress",
              "type": "address"
            },
            {
              "internalType": "bytes",
              "name": "lpBtcAddress",
              "type": "bytes"
            },
            {
              "internalType": "uint256",
              "name": "callFee",
              "type": "uint256"
            },
            {
              "internalType": "uint256",
              "name": "penaltyFee",
              "type": "uint256"
            },
            {
              "internalType": "int64",
              "name": "nonce",
              "type": "int64"
            },
            {
              "internalType": "bytes",
              "name": "deposityAddress",
              "type": "bytes"
            },
            {
              "internalType": "uint256",
              "name": "value",
              "type": "uint256"
            },
            {
              "internalType": "uint32",
              "name": "agreementTimestamp",
              "type": "uint32"
            },
            {
              "internalType": "uint32",
              "name": "depositDateLimit",
              "type": "uint32"
            },
            {
              "internalType": "uint16",
              "name": "depositConfirmations",
              "type": "uint16"
            },
            {
              "internalType": "uint16",
              "name": "transferConfirmations",
              "type": "uint16"
            },
            {
              "internalType": "uint32",
              "name": "transferTime",
              "type": "uint32"
            },
            {
              "internalType": "uint32",
              "name": "expireDate",
              "type": "uint32"
            },
            {
              "internalType": "uint32",
              "name": "expireBlock",
              "type": "uint32"
            },
            {
              "internalType": "uint256",
              "name": "productFeeAmount",
              "type": "uint256"
            },
            {
              "internalType": "uint256",
              "name": "gasFee",
              "type": "uint256"
            }
          ],
          "internalType": "struct QuotesV2.PegOutQuote",
          "name": "quote",
          "type": "tuple"
        }
      ],
      "name": "hashPegoutQuote",
      "outputs": [
        {
          "internalType": "bytes32",
          "name": "",
          "type": "bytes32"
        }
      ],
      "stateMutability": "view",
      "type": "function",
      "constant": true
    },
    {
      "inputs": [
        {
          "internalType": "string",
          "name": "_name",
          "type": "string"
        },
        {
          "internalType": "string",
          "name": "_url",
          "type": "string"
        }
      ],
      "name": "updateProvider",
      "outputs": [],
      "stateMutability": "nonpayable",
      "type": "function"
    }
  ],
  "bytecode": "0x608060405234801561001057600080fd5b50615cf780620000216000396000f3fe60806040526004361061027f5760003560e01c80630220f41d146102d357806304ade855146102f35780630a7bf57a1461031f5780630a9cb4a71461033457806322140009146103535780632d67952c146103735780632e1a7d4d1461039357806333f07ad3146103b357806341705518146103c8578063418663a2146103db5780634198687e14610405578063457385f21461040d5780634d0ec9711461043d57806354015ee01461045d57806354fd4d501461049057806359c153be146104c457806363c67135146104d9578063668dbd83146104ef57806369652fcf1461051c578063710738b114610531578063715018a61461055e57806372cbf4e81461057357806379b9550b146105935780637aefa8c2146105b35780638490a8df146105c65780638beb537a146105dc5780638d597939146105ef5780638da5cb5b146106065780638f91797d1461061b5780639b56d6c91461063b5780639cd6557f146106715780639d79b59b146106865780639e816999146106af578063a4a5ba50146106b7578063a93bb247146106cc578063ae76ce86146106e3578063ae93b67b146106fa578063b3a849aa14610711578063b5ecfc0614610731578063bd519eff1461074a578063bd5798c314610780578063be6de4eb146107a2578063c525cdd8146107b7578063c7213163146107ce578063cfb92f0a146107e9578063d0e30db014610800578063d6c70de814610808578063e1de16c614610828578063e30e6ea31461083e578063e78cea9214610854578063e830b69014610874578063e8fcce7114610889578063f2fde38b1461089f578063f8b2cb4f146108bf578063fa88dcde146108f5578063fb32c5081461090a57600080fd5b366102ce576097546001600160a01b031633146102cc5760405162461bcd60e51b81526020600482015260066024820152654c424330303760d01b60448201526064015b60405180910390fd5b005b600080fd5b3480156102df57600080fd5b506102cc6102ee366004614680565b610928565b3480156102ff57600080fd5b50610308600181565b60405160ff90911681526020015b60405180910390f35b34801561032b57600080fd5b50610308600281565b34801561034057600080fd5b5060a2545b604051908152602001610316565b34801561035f57600080fd5b5061034561036e3660046148cb565b610a3a565b34801561037f57600080fd5b5061034561038e366004614ad3565b610a4b565b34801561039f57600080fd5b506102cc6103ae366004614b87565b61125d565b3480156103bf57600080fd5b5060a154610345565b6103456103d6366004614ba0565b611355565b3480156103e757600080fd5b506103f26101301981565b60405160019190910b8152602001610316565b6102cc611887565b34801561041957600080fd5b5061042d610428366004614c3c565b61190c565b6040519015158152602001610316565b34801561044957600080fd5b5061042d610458366004614c3c565b611942565b34801561046957600080fd5b5061042d610478366004614b87565b600090815260a7602052604090206001015460ff1690565b34801561049c57600080fd5b506040805180820182526005815264312e322e3160d81b602082015290516103169190614ca9565b3480156104d057600080fd5b506102cc611978565b3480156104e557600080fd5b5061034560a85481565b3480156104fb57600080fd5b5061050f61050a366004614cdf565b611b23565b6040516103169190614d7c565b34801561052857600080fd5b506102cc611ea4565b34801561053d57600080fd5b5060a954610551906001600160a01b031681565b6040516103169190614e4b565b34801561056a57600080fd5b506102cc611f4f565b34801561057f57600080fd5b506102cc61058e366004614e5f565b611f61565b34801561059f57600080fd5b5061042d6105ae366004614e8f565b611ffb565b61042d6105c1366004614ec5565b612167565b3480156105d257600080fd5b5061034560a25481565b6102cc6105ea366004614ef9565b612479565b3480156105fb57600080fd5b506103f261012c1981565b34801561061257600080fd5b50610551612932565b34801561062757600080fd5b506102cc610636366004614b87565b612941565b34801561064757600080fd5b50610345610656366004614c3c565b6001600160a01b031660009081526099602052604090205490565b34801561067d57600080fd5b50610308600081565b34801561069257600080fd5b5061069c6188b881565b60405161ffff9091168152602001610316565b6102cc612c6e565b3480156106c357600080fd5b50610345600181565b3480156106d857600080fd5b506103f261012d1981565b3480156106ef57600080fd5b506103f261012b1981565b34801561070657600080fd5b506103f26103831981565b34801561071d57600080fd5b5061034561072c366004614ec5565b612ce9565b34801561073d57600080fd5b506103456402540be40081565b34801561075657600080fd5b50610345610765366004614c3c565b6001600160a01b03166000908152609a602052604090205490565b34801561078c57600080fd5b5060a054600160201b900463ffffffff16610345565b3480156107ae57600080fd5b50610345600081565b3480156107c357600080fd5b506103f261012e1981565b3480156107da57600080fd5b5060a05463ffffffff16610345565b3480156107f557600080fd5b506103f261012f1981565b6102cc612cf4565b34801561081457600080fd5b506102cc610823366004614f2f565b612d23565b34801561083457600080fd5b5061069c6108fc81565b34801561084a57600080fd5b506103f260c71981565b34801561086057600080fd5b50609754610551906001600160a01b031681565b34801561088057600080fd5b50609e54610345565b34801561089557600080fd5b506103f260631981565b3480156108ab57600080fd5b506102cc6108ba366004614c3c565b613871565b3480156108cb57600080fd5b506103456108da366004614c3c565b6001600160a01b031660009081526098602052604090205490565b34801561090157600080fd5b50609f54610345565b34801561091657600080fd5b506097546001600160a01b0316610551565b6000825111801561093a575060008151115b61096f5760405162461bcd60e51b8152602060048201526006602482015265262121981b9b60d11b60448201526064016102c3565b600060015b60a2548111610a21576000818152609b6020526040902060018101549092506001600160a01b03163303610a0f57600282016109b0858261508e565b50600382016109bf848261508e565b50336001600160a01b03167fc15f90eb34a098bb02f2641dff62935246fb005d8f06e13d5cc6be0bddcce8e38360020184600301604051610a019291906151ca565b60405180910390a250505050565b80610a1981615205565b915050610974565b5060405162461bcd60e51b81526004016102c39061521e565b6000610a45826138e7565b92915050565b6000610a556139b6565b6000610a6087613a0f565b600081815260a56020526040902054909150600160ff9091161115610a975760405162461bcd60e51b81526004016102c39061523e565b60408088015190516301a86b5560e41b815273__SignatureValidator____________________91631a86b55091610ad6919085908b9060040161525e565b602060405180830381865af4158015610af3573d6000803e3d6000fd5b505050506040513d601f19601f82011682018060405250810190610b179190615285565b610b335760405162461bcd60e51b81526004016102c3906152a2565b637fffffff8310610b6f5760405162461bcd60e51b815260206004820152600660248201526504c42433033360d41b60448201526064016102c3565b6000610b7e8887878786613c42565b905061012f8101610bba5760405162461bcd60e51b81526020600482015260066024820152654c424330333160d01b60448201526064016102c3565b61012e8101610bf45760405162461bcd60e51b815260206004820152600660248201526526212198199960d11b60448201526064016102c3565b6101308101610c2e5760405162461bcd60e51b81526020600482015260066024820152654c424330333360d01b60448201526064016102c3565b6101318101610c685760405162461bcd60e51b8152602060048201526006602482015265131090cc0ccd60d21b60448201526064016102c3565b6103848101610ca25760405162461bcd60e51b81526020600482015260066024820152654c424330333560d01b60448201526064016102c3565b6000811380610cb2575060c71981145b80610cbe575060631981145b610cf35760405162461bcd60e51b815260206004820152600660248201526526212198199b60d11b60448201526064016102c3565b6000828152609c6020526040902054610d16908990839063ffffffff1687613d14565b15610de75760e08801516040808a01516001600160a01b031660009081526099602052908120549091610d4891614075565b905080609960008b604001516001600160a01b03166001600160a01b031681526020019081526020016000206000828254610d8391906152c2565b90915550506040808a01519051600080516020615c8283398151915291610dad91849087906152d5565b60405180910390a160a054600090606490610dce9063ffffffff16846152f6565b610dd89190615323565b9050610de4338261408d565b50505b60c719811480610df8575060631981145b15610e6c57600082815260a560209081526040808320805460ff19166002179055609c825291829020805464ffffffffff1916905581518481529081018390527ffb209329d5ab5b7bcb2e92f45f4534814b6e68fa5ad1f171dabc1d17d26f0ebe910160405180910390a1915061124a9050565b60405163fa6ea3e760e01b8152819073__QuotesV2______________________________9063fa6ea3e790610ea7908c9085906004016154a3565b60006040518083038186803b158015610ebf57600080fd5b505af4158015610ed3573d6000803e3d6000fd5b5050506000848152609c602052604090205463ffffffff1615905061103e576000838152609c6020526040812054600160201b900460ff1615610f4557610f3e828b61026001518c60c001518d6101800151610f2f91906154c5565b610f3991906154c5565b614075565b9050610f61565b610f5e828b61026001518c60c00151610f3991906154c5565b90505b610f6f8a604001518261408d565b6000610f7b82846152c2565b9050610f8c8b6102400151866140ec565b60a1548111156110375760808b01516040516000916001600160a01b0316906108fc90849084818181858888f193505050503d8060008114610fea576040519150601f19603f3d011682016040523d82523d6000602084013e610fef565b606091505b50509050600080516020615c628339815191528c6080015183838960405161101a94939291906154d8565b60405180910390a180611035576110358c604001518361408d565b505b50506111e3565b6102208901518190801561105757508961018001518110155b156111495760008a61010001516001600160a01b03168b610140015163ffffffff168c61018001518d61012001516040516110929190615500565b600060405180830381858888f193505050503d80600081146110d0576040519150601f19603f3d011682016040523d82523d6000602084013e6110d5565b606091505b505090508a61010001516001600160a01b0316336001600160a01b0316600080516020615ca28339815191528d61014001518e61018001518f6101200151868b60405161112695949392919061551c565b60405180910390a38015611147576101808b015161114490836152c2565b91505b505b60a1548111156111e15760808a01516040516000916001600160a01b0316906108fc90849084818181858888f193505050503d80600081146111a7576040519150601f19603f3d011682016040523d82523d6000602084013e6111ac565b606091505b50509050600080516020615c628339815191528b608001518383886040516111d794939291906154d8565b60405180910390a1505b505b600083815260a560209081526040808320805460ff19166002179055609c825291829020805464ffffffffff19169055905183815284917f0629ae9d1dc61501b0ca90670a9a9b88daaf7504b54537b53e1219de794c63d2910160405180910390a2509150505b6112546001606555565b95945050505050565b3360009081526098602052604090205481111561128c5760405162461bcd60e51b81526004016102c390615555565b33600090815260986020526040812080548392906112ab9084906152c2565b9091555050604051600090339083908381818185875af1925050503d80600081146112f2576040519150601f19603f3d011682016040523d82523d6000602084013e6112f7565b606091505b50509050806113185760405162461bcd60e51b81526004016102c390615575565b7f7fcf532c15f0a6db0bd6d0e038bea71d30d808c7d98cb3bf7268a95bf5081b653383604051611349929190615595565b60405180910390a15050565b600032331461138f5760405162461bcd60e51b81526020600482015260066024820152654c424330303360d01b60448201526064016102c3565b60008551116113c95760405162461bcd60e51b815260206004820152600660248201526504c42433031360d41b60448201526064016102c3565b60008451116114035760405162461bcd60e51b81526020600482015260066024820152654c424330313760d01b60448201526064016102c3565b604051602001611412906155ae565b60405160208183030381529060405280519060200120826040516020016114399190615500565b6040516020818303038152906040528051906020012014806114a45750604051602001611465906155bf565b604051602081830303815290604052805190602001208260405160200161148c9190615500565b60405160208183030381529060405280519060200120145b806114fc5750604051630c4dee8d60e31b602082015260240160405160208183030381529060405280519060200120826040516020016114e49190615500565b60405160208183030381529060405280519060200120145b6115315760405162461bcd60e51b815260206004820152600660248201526509884866062760d31b60448201526064016102c3565b3360009081526099602052604090205415801561155b5750336000908152609a6020526040902054155b6115905760405162461bcd60e51b815260206004820152600660248201526504c42433037360d41b60448201526064016102c3565b336000908152609d6020526040902054156115d65760405162461bcd60e51b81526020600482015260066024820152654c424330303960d01b60448201526064016102c3565b6040516020016115e5906155ae565b604051602081830303815290604052805190602001208260405160200161160c9190615500565b604051602081830303815290604052805190602001200361166057609e543410156116495760405162461bcd60e51b81526004016102c3906155d1565b336000908152609960205260409020349055611765565b60405160200161166f906155bf565b60405160208183030381529060405280519060200120826040516020016116969190615500565b60405160208183030381529060405280519060200120036116ea57609e543410156116d35760405162461bcd60e51b81526004016102c3906155d1565b336000908152609a60205260409020349055611765565b609e546116f89060026152f6565b3410156117175760405162461bcd60e51b81526004016102c3906155d1565b6000611724600234615323565b90506117316002346155f1565b15611746576117418160016154c5565b611748565b805b33600090815260996020908152604080832093909355609a905220555b60a2805490600061177583615205565b90915550506040805160c08101825260a2548082523360208084019182528385018a8152606085018a9052881515608086015260a085018890526000938452609b909152939091208251815590516001820180546001600160a01b0319166001600160a01b03909216919091179055915190919060028201906117f8908261508e565b506060820151600382019061180d908261508e565b50608082015160048201805460ff191691151591909117905560a0820151600582019061183a908261508e565b505060a254604080519182523460208301523392507fa9d44d6e13bb3fee938c3f66d1103e91f8dc6b12d4405a55eea558e8f275aa6e910160405180910390a25060a2545b949350505050565b611890336141be565b6118ac5760405162461bcd60e51b81526004016102c39061521e565b336000908152609a6020526040812080543492906118cb9084906154c5565b90915550506040517f873d5a2949567203ad4f0cceef41c2813c87b9a397ee777d87a8acdaec2c6fa9906119029033903490615595565b60405180910390a1565b6000611917826141fd565b8015610a455750609e546001600160a01b038316600090815260996020526040902054101592915050565b600061194d826141be565b8015610a455750609e546001600160a01b0383166000908152609a6020526040902054101592915050565b6119806139b6565b336000908152609d60205260409020546119c55760405162461bcd60e51b81526020600482015260066024820152654c424330323160d01b60448201526064016102c3565b60a054336000908152609d6020526040902054600160201b90910463ffffffff16906119f190436152c2565b1015611a285760405162461bcd60e51b815260206004820152600660248201526526212198191960d11b60448201526064016102c3565b336000908152609a60209081526040808320546099909252822054611a4d91906154c5565b336000818152609a6020908152604080832083905560998252808320839055609d909152808220829055519293509183908381818185875af1925050503d8060008114611ab6576040519150601f19603f3d011682016040523d82523d6000602084013e611abb565b606091505b5050905080611adc5760405162461bcd60e51b81526004016102c390615575565b7fa8e76b822fc682be77f3b1c822ea81f6bda5aed92ba82e6873bfd889f328d1d23383604051611b0d929190615595565b60405180910390a15050611b216001606555565b565b6060600082516001600160401b03811115611b4057611b4061454f565b604051908082528060200260200182016040528015611bb557816020015b611ba26040518060c001604052806000815260200160006001600160a01b031681526020016060815260200160608152602001600015158152602001606081525090565b815260200190600190039081611b5e5790505b5090506000805b8451811015611e9b576000858281518110611bd957611bd9615605565b6020908102919091018101516000818152609b909252604090912060010154909150611c0d906001600160a01b03166141fd565b80611c3757506000818152609b6020526040902060010154611c37906001600160a01b03166141be565b8015611c5457506000818152609b602052604090206004015460ff165b15611e88576000818152609b6020908152604091829020825160c0810184528154815260018201546001600160a01b0316928101929092526002810180549293919291840191611ca390615005565b80601f0160208091040260200160405190810160405280929190818152602001828054611ccf90615005565b8015611d1c5780601f10611cf157610100808354040283529160200191611d1c565b820191906000526020600020905b815481529060010190602001808311611cff57829003601f168201915b50505050508152602001600382018054611d3590615005565b80601f0160208091040260200160405190810160405280929190818152602001828054611d6190615005565b8015611dae5780601f10611d8357610100808354040283529160200191611dae565b820191906000526020600020905b815481529060010190602001808311611d9157829003601f168201915b5050509183525050600482015460ff1615156020820152600582018054604090920191611dda90615005565b80601f0160208091040260200160405190810160405280929190818152602001828054611e0690615005565b8015611e535780601f10611e2857610100808354040283529160200191611e53565b820191906000526020600020905b815481529060010190602001808311611e3657829003601f168201915b505050505081525050848481518110611e6e57611e6e615605565b60200260200101819052508280611e8490615205565b9350505b5080611e9381615205565b915050611bbc565b50909392505050565b611ead336141fd565b611ec95760405162461bcd60e51b81526004016102c39061521e565b336000908152609d602052604090205415611f0f5760405162461bcd60e51b81526020600482015260066024820152654c424330323360d01b60448201526064016102c3565b336000818152609d602052604090819020439055517fa6674aa33cd1b7435474751667707bf05fde99e537d67043ec5f907782577d869161190291614e4b565b611f5761423c565b611b21600061429b565b81611f6a612932565b6001600160a01b0316336001600160a01b03161480611fa257506000818152609b60205260409020600101546001600160a01b031633145b611fd75760405162461bcd60e51b81526020600482015260066024820152654c424330303560d01b60448201526064016102c3565b506000918252609b6020526040909120600401805460ff1916911515919091179055565b60008061200784612ce9565b8460600151856020015160601b8660a0015160405160200161202c949392919061561b565b604051602081830303815290604052805190602001209050600081609760009054906101000a90046001600160a01b03166001600160a01b0316631d73d5dd6040518163ffffffff1660e01b8152600401600060405180830381865afa15801561209a573d6000803e3d6000fd5b505050506040513d6000823e601f3d908101601f191682016040526120c291908101906156ad565b6040516020016120d39291906156e1565b60408051601f198184030181529082905260a454639b02794b60e01b835290925073__BtcUtils______________________________91639b02794b91612126918891869160ff9091169060040161571b565b602060405180830381865af4158015612143573d6000803e3d6000fd5b505050506040513d601f19601f820116820180604052508101906112549190615285565b6000612172336141fd565b61218e5760405162461bcd60e51b81526004016102c39061521e565b6121966139b6565b81604001516001600160a01b0316336001600160a01b0316146121e45760405162461bcd60e51b8152602060048201526006602482015265131090cc0c8d60d21b60448201526064016102c3565b6101808201516040808401516001600160a01b03166000908152609860205220546122109034906154c5565b101561222e5760405162461bcd60e51b81526004016102c390615555565b600061223983613a0f565b600081815260a5602052604090205490915060ff16156122845760405162461bcd60e51b81526020600482015260066024820152654c424330323560d01b60448201526064016102c3565b61229283604001513461408d565b6101408301516122a5906188b890615753565b63ffffffff165a10156122e35760405162461bcd60e51b815260206004820152600660248201526526212198191b60d11b60448201526064016102c3565b60008361010001516001600160a01b031684610140015163ffffffff168561018001518661012001516040516123199190615500565b600060405180830381858888f193505050503d8060008114612357576040519150601f19603f3d011682016040523d82523d6000602084013e61235c565b606091505b509091505063ffffffff42111561239e5760405162461bcd60e51b81526020600482015260066024820152654c424330323760d01b60448201526064016102c3565b6000828152609c60205260409020805463ffffffff19164263ffffffff1617905580156123f9576000828152609c602052604090819020805460ff60201b1916600160201b1790558401516101808501516123f991906142ed565b8361010001516001600160a01b0316336001600160a01b0316600080516020615ca2833981519152866101400151876101800151886101200151868860405161244695949392919061551c565b60405180910390a3600091825260a56020526040909120805460ff1916600117905590506124746001606555565b919050565b61248682602001516141be565b6124bb5760405162461bcd60e51b81526020600482015260066024820152654c424330333760d01b60448201526064016102c3565b348261024001518361022001518460a001518561012001516124dd91906154c5565b6124e791906154c5565b6124f191906154c5565b11156125285760405162461bcd60e51b81526020600482015260066024820152654c424330363360d01b60448201526064016102c3565b81610160015163ffffffff1642111561256c5760405162461bcd60e51b81526020600482015260066024820152654c424330363560d01b60448201526064016102c3565b816101e0015163ffffffff164211156125b05760405162461bcd60e51b8152602060048201526006602482015265262121981a1b60d11b60448201526064016102c3565b81610200015163ffffffff164311156125f45760405162461bcd60e51b81526020600482015260066024820152654c424330343760d01b60448201526064016102c3565b60006125ff83610a3a565b60208401516040516301a86b5560e41b815291925073__SignatureValidator____________________91631a86b55091612640918590879060040161525e565b602060405180830381865af415801561265d573d6000803e3d6000fd5b505050506040513d601f19601f820116820180604052508101906126819190615285565b61269d5760405162461bcd60e51b81526004016102c3906152a2565b600081815260a66020908152604080832060a79092529091206001015460ff16156126da5760405162461bcd60e51b81526004016102c390615777565b80546001600160a01b0316156127025760405162461bcd60e51b81526004016102c39061523e565b600082815260a66020908152604091829020865181546001600160a01b03199081166001600160a01b039283161783559288015160018301805490941691161790915590850151859190600282019061275b908261508e565b5060608201516003820180546001600160a01b0319166001600160a01b0390921691909117905560808201516004820190612796908261508e565b5060a0820151600582015560c0820151600682015560e08201516007820180546001600160401b0319166001600160401b0390921691909117905561010082015160088201906127e6908261508e565b506101208201516009820155610140820151600a820180546101608501516101808601516101a08701516101c08801516101e08901516102008a015163ffffffff9889166001600160401b031990971696909617600160201b958916959095029490941763ffffffff60401b1916600160401b61ffff9485160261ffff60501b191617600160501b939092169290920217600160601b600160a01b031916600160601b9186169190910263ffffffff60801b191617600160801b918516919091021763ffffffff60a01b1916600160a01b9390911692909202919091179055610220820151600b82015561024090910151600c90910155600082815260a760209081526040918290204290819055825134815291820152339184917fb1bc7bfc0dab19777eb03aa0a5643378fc9f186c8fc5a36620d21136fbea570f910160405180910390a350505050565b6033546001600160a01b031690565b6129496139b6565b600081815260a66020526040902080546001600160a01b031661297e5760405162461bcd60e51b81526004016102c390615797565b600a810154600160801b900463ffffffff16421180156129ae5750600a810154600160a01b900463ffffffff1643115b6129e35760405162461bcd60e51b81526020600482015260066024820152654c424330343160d01b60448201526064016102c3565b600081600c015482600b015483600501548460090154612a0391906154c5565b612a0d91906154c5565b612a1791906154c5565b6003830154600684015460018501546001600160a01b039081166000908152609a6020526040812054949550921692612a509190614075565b60018501546001600160a01b03166000908152609a6020526040812080549293508392909190612a819084906152c2565b90915550506001840154604051600080516020615c8283398151915291612ab7916001600160a01b0390911690849089906152d5565b60405180910390a16003840154604080518581526001600160a01b03909216602083015286917f9ccbeffc442024e2a6ade18ff0978af9a4c4d6562ae38adb51ccf8256cf42b41910160405180910390a2600085815260a66020526040812080546001600160a01b03199081168255600182018054909116905590612b3f6002830182614501565b6003820180546001600160a01b0319169055612b5f600483016000614501565b600060058301819055600683018190556007830180546001600160401b0319169055612b8f906008840190614501565b50600060098201819055600a820180546001600160c01b0319169055600b8201819055600c90910181905585815260a760205260408082206001908101805460ff19169091179055516001600160a01b0384169085908381818185875af1925050503d8060008114612c1d576040519150601f19603f3d011682016040523d82523d6000602084013e612c22565b606091505b5050905080612c5c5760405162461bcd60e51b8152602060048201526006602482015265131090cc0d0d60d21b60448201526064016102c3565b5050505050612c6b6001606555565b50565b612c77336141fd565b612c935760405162461bcd60e51b81526004016102c39061521e565b3360009081526099602052604081208054349290612cb29084906154c5565b90915550506040517f456e0f4ea86ac283092c750200e8c877f6ad8901ae575f90e02081acd455af84906119029033903490615595565b6000610a4582613a0f565b612cfd336141fd565b612d195760405162461bcd60e51b81526004016102c39061521e565b611b21333461408d565b612d2b6139b6565b612d34336141be565b612d505760405162461bcd60e51b81526004016102c39061521e565b600085815260a7602052604090206001015460ff1615612d825760405162461bcd60e51b81526004016102c390615777565b600085815260a66020526040902080546001600160a01b0316612db75760405162461bcd60e51b81526004016102c390615797565b60405162f5b49160e01b815260009073__BtcUtils______________________________9062f5b49190612def908990600401614ca9565b600060405180830381865af4158015612e0c573d6000803e3d6000fd5b505050506040513d6000823e601f3d908101601f19168201604052612e3491908101906157b7565b9050600073__BtcUtils______________________________632d56f32383600181518110612e6557612e65615605565b6020026020010151602001516040518263ffffffff1660e01b8152600401612e8d9190614ca9565b600060405180830381865af4158015612eaa573d6000803e3d6000fd5b505050506040513d6000823e601f3d908101601f19168201604052612ed291908101906156ad565b905080516021148015612f0a575080600081518110612ef357612ef3615605565b6020910101516001600160f81b031916600160fd1b145b612f3f5760405162461bcd60e51b81526020600482015260066024820152654c424330373560d01b60448201526064016102c3565b60005b60018251612f5091906152c2565b8160ff161015612fc25781612f668260016158ca565b60ff1681518110612f7957612f79615605565b602001015160f81c60f81b828260ff1681518110612f9957612f99615605565b60200101906001600160f81b031916908160001a90535080612fba816158e3565b915050612f42565b50600081806020019051810190612fd99190615902565b90508089146130135760405162461bcd60e51b81526020600482015260066024820152654c424330363960d01b60448201526064016102c3565b60018401546001600160a01b031633146130585760405162461bcd60e51b815260206004820152600660248201526509884866068760d31b60448201526064016102c3565b600a84015460975460405163fea8ba6360e01b8152600160501b90920461ffff16916001600160a01b0390911690635b6445879073__BtcUtils______________________________9063fea8ba63906130b6908e90600401614ca9565b602060405180830381865af41580156130d3573d6000803e3d6000fd5b505050506040513d601f19601f820116820180604052508101906130f79190615902565b8a8a8a6040518563ffffffff1660e01b8152600401613119949392919061591b565b602060405180830381865afa158015613136573d6000803e3d6000fd5b505050506040513d601f19601f8201168201806040525081019061315a9190615902565b12156131915760405162461bcd60e51b81526020600482015260066024820152654c424330343960d01b60448201526064016102c3565b60098401546402540be400811180156131bd57506402540be40085600901546131ba91906155f1565b15155b156131e9576402540be40085600901546131d791906155f1565b85600901546131e691906152c2565b90505b60006402540be4008560008151811061320457613204615605565b6020026020010151600001516001600160401b031661322391906152f6565b90508082111561325e5760405162461bcd60e51b81526020600482015260066024820152654c424330363760d01b60448201526064016102c3565b600073__BtcUtils______________________________63c7ce85ac8760008151811061328d5761328d615605565b602090810291909101810151015160a4546040516001600160e01b031960e085901b1681526132c3929160ff1690600401615977565b600060405180830381865af41580156132e0573d6000803e3d6000fd5b505050506040513d6000823e601f3d908101601f1916820160405261330891908101906156ad565b9050808051906020012087600801604051613323919061599b565b6040518091039020146133615760405162461bcd60e51b81526020600482015260066024820152650988486606c760d31b60448201526064016102c3565b604080516102608101825288546001600160a01b03908116825260018a0154166020820152600289018054613612938b929084019161339f90615005565b80601f01602080910402602001604051908101604052809291908181526020018280546133cb90615005565b80156134185780601f106133ed57610100808354040283529160200191613418565b820191906000526020600020905b8154815290600101906020018083116133fb57829003601f168201915b505050918352505060038201546001600160a01b0316602082015260048201805460409092019161344890615005565b80601f016020809104026020016040519081016040528092919081815260200182805461347490615005565b80156134c15780601f10613496576101008083540402835291602001916134c1565b820191906000526020600020905b8154815290600101906020018083116134a457829003601f168201915b50505091835250506005820154602082015260068201546040820152600780830154900b60608201526008820180546080909201916134ff90615005565b80601f016020809104026020016040519081016040528092919081815260200182805461352b90615005565b80156135785780601f1061354d57610100808354040283529160200191613578565b820191906000526020600020905b81548152906001019060200180831161355b57829003601f168201915b505050918352505060098201546020820152600a82015463ffffffff8082166040840152600160201b82048116606084015261ffff600160401b830481166080850152600160501b83041660a0840152600160601b8204811660c0840152600160801b8204811660e0840152600160a01b90910416610100820152600b820154610120820152600c9091015461014090910152858c61434c565b156136b557600687015460018801546001600160a01b03166000908152609a6020526040812054909161364491614075565b60018901546001600160a01b03166000908152609a60205260408120805492935083929091906136759084906152c2565b90915550506001880154604051600080516020615c82833981519152916136ab916001600160a01b0390911690849089906152d5565b60405180910390a1505b6001870154600588015460098901546000926001600160a01b0316916136da916154c5565b604051600081818185875af1925050503d8060008114613716576040519150601f19603f3d011682016040523d82523d6000602084013e61371b565b606091505b50509050806137555760405162461bcd60e51b815260206004820152600660248201526504c42433035360d41b60448201526064016102c3565b61376388600b01548e6140ec565b600085815260a66020526040812080546001600160a01b0319908116825560018201805490911690559061379a6002830182614501565b6003820180546001600160a01b03191690556137ba600483016000614501565b600060058301819055600683018190556007830180546001600160401b03191690556137ea906008840190614501565b50600060098201819055600a820180546001600160c01b0319169055600b8201819055600c90910181905585815260a760205260408082206001908101805460ff191690911790555186917fb781856ec73fd0dc39351043d1634ea22cd3277b0866ab93e7ec1801766bb38491a2505050505050505061386a6001606555565b5050505050565b61387961423c565b6001600160a01b0381166138de5760405162461bcd60e51b815260206004820152602660248201527f4f776e61626c653a206e6577206f776e657220697320746865207a65726f206160448201526564647265737360d01b60648201526084016102c3565b612c6b8161429b565b80516000906001600160a01b0316301461392c5760405162461bcd60e51b8152602060048201526006602482015265262121981a9b60d11b60448201526064016102c3565b60405163025018e760e31b815273__QuotesV2______________________________90631280c73890613963908590600401615a11565b600060405180830381865af4158015613980573d6000803e3d6000fd5b505050506040513d6000823e601f3d908101601f191682016040526139a891908101906156ad565b805190602001209050919050565b600260655403613a085760405162461bcd60e51b815260206004820152601f60248201527f5265656e7472616e637947756172643a207265656e7472616e742063616c6c0060448201526064016102c3565b6002606555565b600081602001516001600160a01b0316306001600160a01b031614613a5f5760405162461bcd60e51b81526020600482015260066024820152654c424330353160d01b60448201526064016102c3565b6101008201516097546001600160a01b03918216911603613aab5760405162461bcd60e51b8152602060048201526006602482015265262121981a9960d11b60448201526064016102c3565b81606001515160151480613ac457508160600151516021145b613af95760405162461bcd60e51b81526020600482015260066024820152654c424330353360d01b60448201526064016102c3565b8160a0015151601514613b375760405162461bcd60e51b8152602060048201526006602482015265131090cc0d4d60d21b60448201526064016102c3565b609f548261026001518361024001518460c00151856101800151613b5b91906154c5565b613b6591906154c5565b613b6f91906154c5565b1015613ba65760405162461bcd60e51b81526020600482015260066024820152654c424330353560d01b60448201526064016102c3565b816101c0015163ffffffff16826101a0015163ffffffff16613bc89190615bab565b6001600160401b031663ffffffff1015613c0d5760405162461bcd60e51b81526020600482015260066024820152654c424330373160d01b60448201526064016102c3565b60405162773b7960e01b815273__QuotesV2______________________________9062773b7990613963908590600401615bcb565b609754606086015160a08701516000848152609c602052604081205490936001600160a01b031692636adc013392899288928a92899230919063ffffffff1615801590613ca4575060008b8152609c6020526040902054600160201b900460ff165b6040518963ffffffff1660e01b8152600401613cc7989796959493929190615bde565b6020604051808303816000875af1158015613ce6573d6000803e3d6000fd5b505050506040513d601f19601f82011682018060405250810190613d0a9190615902565b9695505050505050565b60008084138015613d5857508461026001518561024001518660c00151876101800151613d4191906154c5565b613d4b91906154c5565b613d5591906154c5565b84105b15613d655750600061187f565b60975460405163bd0c1fff60e01b8152600481018490526000916001600160a01b03169063bd0c1fff90602401600060405180830381865afa158015613daf573d6000803e3d6000fd5b505050506040513d6000823e601f3d908101601f19168201604052613dd791908101906156ad565b90506000815111613e215760405162461bcd60e51b8152602060048201526014602482015273125b9d985b1a5908189b1bd8dac81a195a59da1d60621b60448201526064016102c3565b6040516328335c3f60e21b815260009073__BtcUtils______________________________9063a0cd70fc90613e5b908590600401614ca9565b602060405180830381865af4158015613e78573d6000803e3d6000fd5b505050506040513d601f19601f82011682018060405250810190613e9c9190615902565b90506000876101c00151886101a00151613eb69190615753565b63ffffffff16905080821115613ed2576000935050505061187f565b85600003613ee6576001935050505061187f565b6097546102008901516000916001600160a01b03169063bd0c1fff90600190613f139061ffff168a6154c5565b613f1d91906152c2565b6040518263ffffffff1660e01b8152600401613f3b91815260200190565b600060405180830381865afa158015613f58573d6000803e3d6000fd5b505050506040513d6000823e601f3d908101601f19168201604052613f8091908101906156ad565b90506000815111613fbc5760405162461bcd60e51b81526020600482015260066024820152650988486606a760d31b60448201526064016102c3565b6040516328335c3f60e21b815260009073__BtcUtils______________________________9063a0cd70fc90613ff6908590600401614ca9565b602060405180830381865af4158015614013573d6000803e3d6000fd5b505050506040513d601f19601f820116820180604052508101906140379190615902565b9050896101e0015163ffffffff168161405091906154c5565b8811156140655760019550505050505061187f565b5060009998505050505050505050565b60008183106140845781614086565b825b9392505050565b6001600160a01b038216600090815260986020526040812080548392906140b59084906154c5565b90915550506040517f42cfb81a915ac5a674852db250bf722637bee705a267633b68cab3a2dde06f53906113499084908490615595565b81156141ba5760a9546040516000916001600160a01b03169084908381818185875af1925050503d806000811461413f576040519150601f19603f3d011682016040523d82523d6000602084013e614144565b606091505b505090508061417e5760405162461bcd60e51b8152602060048201526006602482015265131090cc0dcd60d21b60448201526064016102c3565b817f58e13ac0d5c8d27d14009841e72ac8b1858e2709c2c99af2075d9bb5f340ecfc846040516141b091815260200190565b60405180910390a2505b5050565b6001600160a01b0381166000908152609a602052604081205415801590610a455750506001600160a01b03166000908152609d60205260409020541590565b6001600160a01b03811660009081526099602052604081205415801590610a455750506001600160a01b03166000908152609d60205260409020541590565b33614245612932565b6001600160a01b031614611b215760405162461bcd60e51b815260206004820181905260248201527f4f776e61626c653a2063616c6c6572206973206e6f7420746865206f776e657260448201526064016102c3565b603380546001600160a01b038381166001600160a01b0319831681179093556040519116919082907f8be0079c531659141344cd1fd0a4f28419497f9722a3daafe3b4186f6b6457e090600090a35050565b6001600160a01b038216600090815260986020526040812080548392906143159084906152c2565b90915550506040517f8e51a4493a6f66c76e13fd9e3b754eafbfe21343c04508deb61be8ccc0064587906113499084908490615595565b6097546040516339cf1b2560e11b81526004810183905260009182916001600160a01b039091169063739e364a90602401600060405180830381865afa15801561439a573d6000803e3d6000fd5b505050506040513d6000823e601f3d908101601f191682016040526143c291908101906156ad565b905060008151116143fe5760405162461bcd60e51b81526020600482015260066024820152654c424330353960d01b60448201526064016102c3565b6040516328335c3f60e21b815260009073__BtcUtils______________________________9063a0cd70fc90614438908590600401614ca9565b602060405180830381865af4158015614455573d6000803e3d6000fd5b505050506040513d601f19601f820116820180604052508101906144799190615902565b60a3546101c0880151600088815260a7602052604090205492935090916144a69163ffffffff16906154c5565b6144b091906154c5565b8111156144c257600192505050614086565b856101e0015163ffffffff164211806144e5575085610200015163ffffffff1643115b156144f557600192505050614086565b50600095945050505050565b50805461450d90615005565b6000825580601f1061451d575050565b601f016020900490600052602060002090810190612c6b91905b8082111561454b5760008155600101614537565b5090565b634e487b7160e01b600052604160045260246000fd5b60405161026081016001600160401b03811182821017156145885761458861454f565b60405290565b60405161028081016001600160401b03811182821017156145885761458861454f565b604051608081016001600160401b03811182821017156145885761458861454f565b604051601f8201601f191681016001600160401b03811182821017156145fb576145fb61454f565b604052919050565b60006001600160401b0382111561461c5761461c61454f565b50601f01601f191660200190565b600082601f83011261463b57600080fd5b813561464e61464982614603565b6145d3565b81815284602083860101111561466357600080fd5b816020850160208301376000918101602001919091529392505050565b6000806040838503121561469357600080fd5b82356001600160401b03808211156146aa57600080fd5b6146b68683870161462a565b935060208501359150808211156146cc57600080fd5b506146d98582860161462a565b9150509250929050565b6001600160a01b0381168114612c6b57600080fd5b8035612474816146e3565b8035600781900b811461247457600080fd5b803563ffffffff8116811461247457600080fd5b803561ffff8116811461247457600080fd5b6000610260828403121561474e57600080fd5b614756614565565b9050614761826146f8565b815261476f602083016146f8565b602082015260408201356001600160401b038082111561478e57600080fd5b61479a8583860161462a565b60408401526147ab606085016146f8565b606084015260808401359150808211156147c457600080fd5b6147d08583860161462a565b608084015260a084013560a084015260c084013560c08401526147f560e08501614703565b60e08401526101009150818401358181111561481057600080fd5b61481c8682870161462a565b8385015250505061012080830135818301525061014061483d818401614715565b9082015261016061484f838201614715565b90820152610180614861838201614729565b908201526101a0614873838201614729565b908201526101c0614885838201614715565b908201526101e0614897838201614715565b908201526102006148a9838201614715565b9082015261022082810135908201526102409182013591810191909152919050565b6000602082840312156148dd57600080fd5b81356001600160401b038111156148f357600080fd5b61187f8482850161473b565b80356001600160601b03198116811461247457600080fd5b8015158114612c6b57600080fd5b803561247481614917565b6000610280828403121561494357600080fd5b61494b61458e565b9050614956826148ff565b8152614964602083016146f8565b6020820152614975604083016146f8565b604082015260608201356001600160401b038082111561499457600080fd5b6149a08583860161462a565b60608401526149b1608085016146f8565b608084015260a08401359150808211156149ca57600080fd5b6149d68583860161462a565b60a084015260c084013560c084015260e084013560e084015261010091506149ff8285016146f8565b8284015261012091508184013581811115614a1957600080fd5b614a258682870161462a565b83850152505050610140614a3a818401614715565b90820152610160614a4c838201614703565b9082015261018082810135908201526101a0614a69818401614715565b908201526101c0614a7b838201614715565b908201526101e0614a8d838201614715565b90820152610200614a9f838201614729565b90820152610220614ab1838201614925565b9082015261024082810135908201526102609182013591810191909152919050565b600080600080600060a08688031215614aeb57600080fd5b85356001600160401b0380821115614b0257600080fd5b614b0e89838a01614930565b96506020880135915080821115614b2457600080fd5b614b3089838a0161462a565b95506040880135915080821115614b4657600080fd5b614b5289838a0161462a565b94506060880135915080821115614b6857600080fd5b50614b758882890161462a565b95989497509295608001359392505050565b600060208284031215614b9957600080fd5b5035919050565b60008060008060808587031215614bb657600080fd5b84356001600160401b0380821115614bcd57600080fd5b614bd98883890161462a565b95506020870135915080821115614bef57600080fd5b614bfb8883890161462a565b945060408701359150614c0d82614917565b90925060608601359080821115614c2357600080fd5b50614c308782880161462a565b91505092959194509250565b600060208284031215614c4e57600080fd5b8135614086816146e3565b60005b83811015614c74578181015183820152602001614c5c565b50506000910152565b60008151808452614c95816020860160208601614c59565b601f01601f19169290920160200192915050565b6020815260006140866020830184614c7d565b60006001600160401b03821115614cd557614cd561454f565b5060051b60200190565b60006020808385031215614cf257600080fd5b82356001600160401b03811115614d0857600080fd5b8301601f81018513614d1957600080fd5b8035614d2761464982614cbc565b81815260059190911b82018301908381019087831115614d4657600080fd5b928401925b82841015614d6457833582529284019290840190614d4b565b979650505050505050565b6001600160a01b03169052565b60006020808301818452808551808352604092508286019150828160051b87010184880160005b83811015614e3d57888303603f19018552815180518452878101516001600160a01b0316888501528681015160c088860181905290614de482870182614c7d565b91505060608083015186830382880152614dfe8382614c7d565b925050506080808301511515818701525060a08083015192508582038187015250614e298183614c7d565b968901969450505090860190600101614da3565b509098975050505050505050565b6001600160a01b0391909116815260200190565b60008060408385031215614e7257600080fd5b823591506020830135614e8481614917565b809150509250929050565b60008060408385031215614ea257600080fd5b82356001600160401b0380821115614eb957600080fd5b6146b686838701614930565b600060208284031215614ed757600080fd5b81356001600160401b03811115614eed57600080fd5b61187f84828501614930565b60008060408385031215614f0c57600080fd5b82356001600160401b0380821115614f2357600080fd5b6146b68683870161473b565b600080600080600060a08688031215614f4757600080fd5b853594506020808701356001600160401b0380821115614f6657600080fd5b614f728a838b0161462a565b965060408901359550606089013594506080890135915080821115614f9657600080fd5b508701601f81018913614fa857600080fd5b8035614fb661464982614cbc565b81815260059190911b8201830190838101908b831115614fd557600080fd5b928401925b82841015614ff357833582529284019290840190614fda565b80955050505050509295509295909350565b600181811c9082168061501957607f821691505b60208210810361503957634e487b7160e01b600052602260045260246000fd5b50919050565b601f82111561508957600081815260208120601f850160051c810160208610156150665750805b601f850160051c820191505b8181101561508557828155600101615072565b5050505b505050565b81516001600160401b038111156150a7576150a761454f565b6150bb816150b58454615005565b8461503f565b602080601f8311600181146150f057600084156150d85750858301515b600019600386901b1c1916600185901b178555615085565b600085815260208120601f198616915b8281101561511f57888601518255948401946001909101908401615100565b508582101561513d5787850151600019600388901b60f8161c191681555b5050505050600190811b01905550565b6000815461515a81615005565b8085526020600183811680156151775760018114615191576151bf565b60ff1985168884015283151560051b8801830195506151bf565b866000528260002060005b858110156151b75781548a820186015290830190840161519c565b890184019650505b505050505092915050565b6040815260006151dd604083018561514d565b8281036020840152611254818561514d565b634e487b7160e01b600052601160045260246000fd5b600060018201615217576152176151ef565b5060010190565b6020808252600690820152654c424330303160d01b604082015260600190565b60208082526006908201526509884866064760d31b604082015260600190565b60018060a01b03841681528260208201526060604082015260006112546060830184614c7d565b60006020828403121561529757600080fd5b815161408681614917565b6020808252600690820152654c424330323960d01b604082015260600190565b81810381811115610a4557610a456151ef565b6001600160a01b039390931683526020830191909152604082015260600190565b8082028115828204841417610a4557610a456151ef565b634e487b7160e01b600052601260045260246000fd5b6000826153325761533261530d565b500490565b80516001600160601b03191682526000610280602083015161535c6020860182614d6f565b50604083015161536f6040860182614d6f565b50606083015181606086015261538782860182614c7d565b915050608083015161539c6080860182614d6f565b5060a083015184820360a08601526153b48282614c7d565b91505060c083015160c085015260e083015160e0850152610100808401516153de82870182614d6f565b505061012080840151858303828701526153f88382614c7d565b92505050610140808401516154148287018263ffffffff169052565b50506101608084015161542b8287018260070b9052565b505061018083810151908501526101a08084015163ffffffff908116918601919091526101c0808501518216908601526101e080850151909116908501526102008084015161ffff16908501526102208084015115159085015261024080840151908501526102609283015192909301919091525090565b6040815260006154b66040830185615337565b90508260208301529392505050565b80820180821115610a4557610a456151ef565b6001600160a01b03949094168452602084019290925215156040830152606082015260800190565b60008251615512818460208701614c59565b9190910192915050565b63ffffffff8616815284602082015260a06040820152600061554160a0830186614c7d565b931515606083015250608001529392505050565b6020808252600690820152654c424330313960d01b604082015260600190565b60208082526006908201526504c42433032360d41b604082015260600190565b6001600160a01b03929092168252602082015260400190565b643832b3b4b760d91b815260050190565b651c1959dbdd5d60d21b815260060190565b60208082526006908201526509884866060760d31b604082015260600190565b6000826156005761560061530d565b500690565b634e487b7160e01b600052603260045260246000fd5b84815260008451615633816020850160208901614c59565b808301905060018060601b031985166020820152835161565a816034840160208801614c59565b016034019695505050505050565b600082601f83011261567957600080fd5b815161568761464982614603565b81815284602083860101111561569c57600080fd5b61187f826020830160208701614c59565b6000602082840312156156bf57600080fd5b81516001600160401b038111156156d557600080fd5b61187f84828501615668565b600160fd1b8152826001820152607560f81b60218201526000825161570d816022850160208701614c59565b919091016022019392505050565b60608152600061572e6060830186614c7d565b82810360208401526157408186614c7d565b9150508215156040830152949350505050565b63ffffffff818116838216019080821115615770576157706151ef565b5092915050565b602080825260069082015265131090cc0d8d60d21b604082015260600190565b602080825260069082015265262121981a1960d11b604082015260600190565b600060208083850312156157ca57600080fd5b82516001600160401b03808211156157e157600080fd5b818501915085601f8301126157f557600080fd5b815161580361464982614cbc565b81815260059190911b8301840190848101908883111561582257600080fd5b8585015b838110156158bd5780518581111561583e5760008081fd5b86016080818c03601f19018113156158565760008081fd5b61585e6145b1565b8983015188811681146158715760008081fd5b8152604083810151898111156158875760008081fd5b6158958f8d83880101615668565b838d015250606084810151918301919091529190920151908201528352918601918601615826565b5098975050505050505050565b60ff8181168382160190811115610a4557610a456151ef565b600060ff821660ff81036158f9576158f96151ef565b60010192915050565b60006020828403121561591457600080fd5b5051919050565b600060808201868352602086818501528560408501526080606085015281855180845260a086019150828701935060005b818110156159685784518352938301939183019160010161594c565b50909998505050505050505050565b60408152600061598a6040830185614c7d565b905082151560208301529392505050565b60008083546159a981615005565b600182811680156159c157600181146159d657615a05565b60ff1984168752821515830287019450615a05565b8760005260208060002060005b858110156159fc5781548a8201529084019082016159e3565b50505082870194505b50929695505050505050565b60208152615a23602082018351614d6f565b60006020830151615a376040840182614d6f565b506040830151610260806060850152615a54610280850183614c7d565b91506060850151615a686080860182614d6f565b506080850151601f19808685030160a0870152615a858483614c7d565b935060a087015160c087015260c087015160e087015260e08701519150610100615ab38188018460070b9052565b80880151925050610120818786030181880152615ad08584614c7d565b908801516101408881019190915288015190945091506101609050615afc8187018363ffffffff169052565b8601519050610180615b158682018363ffffffff169052565b86015190506101a0615b2c8682018361ffff169052565b86015190506101c0615b438682018361ffff169052565b86015190506101e0615b5c8682018363ffffffff169052565b8601519050610200615b758682018363ffffffff169052565b8601519050610220615b8e8682018363ffffffff169052565b860151610240868101919091529095015193019290925250919050565b6001600160401b03818116838216019080821115615770576157706151ef565b6020815260006140866020830184615337565b6000610100808352615bf28184018c614c7d565b90508960208401528281036040840152615c0c818a614c7d565b90508760608401528281036080840152615c268188614c7d565b6001600160a01b03871660a085015283810360c08501529050615c498186614c7d565b91505082151560e0830152999850505050505050505056fe3052ea2f7e0d74fdc1c1e1f858ff1ae3d91ab1609717c3efedb95db603b255f69685484093cc596fdaeab51abf645b1753dbb7d869bfd2eb21e2c646e47a36f4bfc7404e6fe464f0646fe2c6ab942b92d56be722bb39f8c6bc4830d2d32fb80da2646970667358221220ffd8f6feaa609d19299aadc7328337cde8509c6cafe6e7e4543b5adece4727c564736f6c63430008120033",
  "immutableReferences": {},
  "source": "// SPDX-License-Identifier: MIT\npragma solidity ^0.8.18;\npragma experimental ABIEncoderV2;\n\nimport \"./Bridge.sol\";\nimport \"./QuotesV2.sol\";\nimport \"./SignatureValidator.sol\";\nimport \"@rsksmart/btc-transaction-solidity-helper/contracts/BtcUtils.sol\";\nimport \"@openzeppelin/contracts-upgradeable/access/OwnableUpgradeable.sol\";\nimport \"@openzeppelin/contracts-upgradeable/security/ReentrancyGuardUpgradeable.sol\";\n\n/**\n    @title Contract that assists with the Flyover protocol\n */\n\ncontract LiquidityBridgeContractV2 is Initializable, OwnableUpgradeable, ReentrancyGuardUpgradeable {\n    uint16 constant public MAX_CALL_GAS_COST = 35000;\n    uint16 constant public MAX_REFUND_GAS_LIMIT = 2300;\n\n    uint8 constant public UNPROCESSED_QUOTE_CODE = 0;\n    uint8 constant public CALL_DONE_CODE = 1;\n    uint8 constant public PROCESSED_QUOTE_CODE = 2;\n\n    int16 constant public BRIDGE_REFUNDED_USER_ERROR_CODE = - 100;\n    int16 constant public BRIDGE_REFUNDED_LP_ERROR_CODE = - 200;\n    int16 constant public BRIDGE_UNPROCESSABLE_TX_NOT_CONTRACT_ERROR_CODE = - 300;\n    int16 constant public BRIDGE_UNPROCESSABLE_TX_INVALID_SENDER_ERROR_CODE = - 301;\n    int16 constant public BRIDGE_UNPROCESSABLE_TX_ALREADY_PROCESSED_ERROR_CODE = - 302;\n    int16 constant public BRIDGE_UNPROCESSABLE_TX_VALIDATIONS_ERROR = - 303;\n    int16 constant public BRIDGE_UNPROCESSABLE_TX_VALUE_ZERO_ERROR = - 304;\n    int16 constant public BRIDGE_UNPROCESSABLE_TX_UTXO_AMOUNT_SENT_BELOW_MINIMUM_ERROR =\n    - 305;\n    int16 constant public BRIDGE_GENERIC_ERROR = - 900;\n    uint constant public PAY_TO_ADDRESS_OUTPUT = 0;\n    uint constant public QUOTE_HASH_OUTPUT = 1;\n    uint constant public SAT_TO_WEI_CONVERSION = 10**10;\n\n    struct Registry {\n        uint32 timestamp;\n        bool success;\n    }\n\n    struct PegoutRecord {\n        uint256 depositTimestamp;\n        bool completed;\n    }\n\n    struct LiquidityProvider {\n        uint id;\n        address provider;\n        string name;\n        string apiBaseUrl;\n        bool status;\n        string providerType;\n    }\n\n    event Register(uint id, address indexed from, uint256 amount);\n    event CollateralIncrease(address from, uint256 amount);\n    event PegoutCollateralIncrease(address from, uint256 amount);\n    event Withdrawal(address from, uint256 amount);\n    event WithdrawCollateral(address from, uint256 amount);\n    event Resigned(address from);\n    event CallForUser(\n        address indexed from,\n        address indexed dest,\n        uint gasLimit,\n        uint value,\n        bytes data,\n        bool success,\n        bytes32 quoteHash\n    );\n    event PegInRegistered(bytes32 indexed quoteHash, int256 transferredAmount);\n    event Penalized(address liquidityProvider, uint penalty, bytes32 quoteHash);\n    event BridgeCapExceeded(bytes32 quoteHash, int256 errorCode);\n    event BalanceIncrease(address dest, uint amount);\n    event BalanceDecrease(address dest, uint amount);\n    event Refund(address dest, uint amount, bool success, bytes32 quoteHash);\n    event PegOutRefunded(bytes32 indexed quoteHash);\n    event PegOutDeposit(\n        bytes32 indexed quoteHash,\n        address indexed sender,\n        uint256 amount,\n        uint256 timestamp\n    );\n    event PegOutUserRefunded(\n        bytes32 indexed quoteHash,\n        uint256 value,\n        address userAddress\n    );\n    event DaoFeeSent(bytes32 indexed quoteHash, uint256 amount);\n    event ProviderUpdate(address indexed providerAddress, string name, string url);\n\n    Bridge public bridge;\n    mapping(address => uint256) private balances;\n    mapping(address => uint256) private collateral;\n    mapping(address => uint256) private pegoutCollateral;\n    mapping(uint => LiquidityProvider) private liquidityProviders;\n    mapping(bytes32 => Registry) private callRegistry;\n    mapping(address => uint256) private resignationBlockNum;\n\n    uint256 private minCollateral;\n    uint256 private minPegIn;\n\n    uint32 private rewardP;\n    uint32 private resignDelayInBlocks;\n    uint private dust;\n    uint public providerId;\n\n    uint private btcBlockTime;\n    bool private mainnet;\n\n    mapping(bytes32 => uint8) private processedQuotes;\n    mapping(bytes32 => QuotesV2.PegOutQuote) private registeredPegoutQuotes;\n    mapping(bytes32 => PegoutRecord) private pegoutRegistry;\n\n    uint256 public productFeePercentage;\n    address public daoFeeCollectorAddress;\n\n    modifier onlyRegistered() {\n        require(isRegistered(msg.sender), \"LBC001\");\n        _;\n    }\n\n    modifier onlyRegisteredForPegout() {\n        require(isRegisteredForPegout(msg.sender), \"LBC001\");\n        _;\n    }\n\n    modifier onlyOwnerAndProvider(uint _providerId) {\n        require(\n            msg.sender == owner() ||\n            msg.sender == liquidityProviders[_providerId].provider,\n            \"LBC005\"\n        );\n        _;\n    }\n\n    function setProviderStatus(\n        uint _providerId,\n        bool status\n    ) external onlyOwnerAndProvider(_providerId) {\n        liquidityProviders[_providerId].status = status;\n    }\n\n    receive() external payable {\n        require(msg.sender == address(bridge), \"LBC007\");\n    }\n\n    function version() external pure returns (string memory) {\n        return \"1.2.1\";\n    }\n\n    function getProviderIds() external view returns (uint) {\n        return providerId;\n    }\n\n    function getBridgeAddress() external view returns (address) {\n        return address(bridge);\n    }\n\n    function getMinCollateral() public view returns (uint) {\n        return minCollateral;\n    }\n\n    function getMinPegIn() external view returns (uint) {\n        return minPegIn;\n    }\n\n    function getRewardPercentage() external view returns (uint) {\n        return rewardP;\n    }\n\n    function getResignDelayBlocks() external view returns (uint) {\n        return resignDelayInBlocks;\n    }\n\n    function getDustThreshold() external view returns (uint) {\n        return dust;\n    }\n\n    function isPegOutQuoteCompleted(bytes32 quoteHash) external view returns (bool) {\n        return pegoutRegistry[quoteHash].completed;\n    }\n\n    /**\n        @dev Checks whether a liquidity provider can deliver a pegin service\n        @return Whether the liquidity provider is registered and has enough locked collateral\n     */\n    function isOperational(address addr) external view returns (bool) {\n        return isRegistered(addr) && collateral[addr] >= minCollateral;\n    }\n\n    /**\n        @dev Checks whether a liquidity provider can deliver a pegout service\n        @return Whether the liquidity provider is registered and has enough locked collateral\n     */\n    function isOperationalForPegout(address addr) external view returns (bool) {\n        return\n            isRegisteredForPegout(addr) &&\n            pegoutCollateral[addr] >= minCollateral;\n    }\n\n    /**\n        @dev Registers msg.sender as a liquidity provider with msg.value as collateral\n     */\n    function register(\n        string memory _name,\n        string memory _apiBaseUrl,\n        bool _status,\n        string memory _providerType\n    ) external payable returns (uint) {\n        require(tx.origin == msg.sender, \"LBC003\");\n        //require(collateral[msg.sender] == 0, \"Already registered\");\n        require(bytes(_name).length > 0, \"LBC010\");\n        require(\n            bytes(_apiBaseUrl).length > 0,\n            \"LBC017\"\n        );\n\n        // Check if _providerType is one of the valid strings\n        require(\n            keccak256(abi.encodePacked(_providerType)) ==\n            keccak256(abi.encodePacked(\"pegin\")) ||\n            keccak256(abi.encodePacked(_providerType)) ==\n            keccak256(abi.encodePacked(\"pegout\")) ||\n            keccak256(abi.encodePacked(_providerType)) ==\n            keccak256(abi.encodePacked(\"both\")),\n            \"LBC018\"\n        );\n\n        require(collateral[msg.sender] == 0 && pegoutCollateral[msg.sender] == 0, \"LBC070\");\n        require(\n            resignationBlockNum[msg.sender] == 0,\n            \"LBC009\"\n        );\n\n        if (keccak256(abi.encodePacked(_providerType)) == keccak256(abi.encodePacked(\"pegin\"))) {\n            require(msg.value >= minCollateral, \"LBC008\");\n            collateral[msg.sender] = msg.value;\n        } else if (keccak256(abi.encodePacked(_providerType)) == keccak256(abi.encodePacked(\"pegout\"))) {\n            require(msg.value >= minCollateral, \"LBC008\");\n            pegoutCollateral[msg.sender] = msg.value;\n        } else {\n            require(msg.value >= minCollateral * 2, \"LBC008\");\n            uint halfMsgValue = msg.value / 2;\n            collateral[msg.sender] = msg.value % 2 == 0 ? halfMsgValue : halfMsgValue + 1;\n            pegoutCollateral[msg.sender] = halfMsgValue;\n        }\n\n        providerId++;\n        liquidityProviders[providerId] = LiquidityProvider({\n            id: providerId,\n            provider: msg.sender,\n            name: _name,\n            apiBaseUrl: _apiBaseUrl,\n            status: _status,\n            providerType: _providerType\n        });\n        emit Register(providerId, msg.sender, msg.value);\n        return (providerId);\n    }\n\n    function getProviders(\n        uint[] memory providerIds\n    ) external view returns (LiquidityProvider[] memory) {\n        LiquidityProvider[] memory providersToReturn = new LiquidityProvider[](\n            providerIds.length\n        );\n        uint count = 0;\n\n        for (uint i = 0; i < providerIds.length; i++) {\n            uint id = providerIds[i];\n            if (\n                (isRegistered(liquidityProviders[id].provider) ||\n                    isRegisteredForPegout(liquidityProviders[id].provider)) &&\n                liquidityProviders[id].status\n            ) {\n                providersToReturn[count] = liquidityProviders[id];\n                count++;\n            }\n        }\n        return providersToReturn;\n    }\n\n    /**\n        @dev Increases the amount of collateral of the sender\n     */\n    function addCollateral() external payable onlyRegistered {\n        collateral[msg.sender] += msg.value;\n        emit CollateralIncrease(msg.sender, msg.value);\n    }\n\n    function addPegoutCollateral() external payable onlyRegisteredForPegout {\n        pegoutCollateral[msg.sender] += msg.value;\n        emit PegoutCollateralIncrease(msg.sender, msg.value);\n    }\n\n    /**\n        @dev Increases the balance of the sender\n     */\n    function deposit() external payable onlyRegistered {\n        increaseBalance(msg.sender, msg.value);\n    }\n\n    /**\n        @dev Used to withdraw funds\n        @param amount The amount to withdraw\n     */\n    function withdraw(uint256 amount) external {\n        require(balances[msg.sender] >= amount, \"LBC019\");\n        balances[msg.sender] -= amount;\n        (bool success,) = msg.sender.call{value: amount}(\"\");\n        require(success, \"LBC020\");\n        emit Withdrawal(msg.sender, amount);\n    }\n\n    /**\n        @dev Used to withdraw the locked collateral\n     */\n    function withdrawCollateral() external nonReentrant {\n        require(resignationBlockNum[msg.sender] > 0, \"LBC021\");\n        require(\n            block.number - resignationBlockNum[msg.sender] >=\n            resignDelayInBlocks,\n            \"LBC022\"\n        );\n        uint amount = collateral[msg.sender] + pegoutCollateral[msg.sender];\n        pegoutCollateral[msg.sender] = 0;\n        collateral[msg.sender] = 0;\n        resignationBlockNum[msg.sender] = 0;\n        (bool success,) = msg.sender.call{value: amount}(\"\");\n        require(success, \"LBC020\");\n        emit WithdrawCollateral(msg.sender, amount);\n    }\n\n    /**\n        @dev Used to resign as a liquidity provider\n     */\n    function resign() external onlyRegistered {\n        require(resignationBlockNum[msg.sender] == 0, \"LBC023\");\n        resignationBlockNum[msg.sender] = block.number;\n        emit Resigned(msg.sender);\n    }\n\n    /**\n        @dev Returns the amount of collateral of a liquidity provider\n        @param addr The address of the liquidity provider\n        @return The amount of locked collateral\n     */\n    function getCollateral(address addr) external view returns (uint256) {\n        return collateral[addr];\n    }\n\n    function getPegoutCollateral(address addr) external view returns (uint256) {\n        return pegoutCollateral[addr];\n    }\n\n    /**\n        @dev Returns the amount of funds of a liquidity provider\n        @param addr The address of the liquidity provider\n        @return The balance of the liquidity provider\n     */\n    function getBalance(address addr) external view returns (uint256) {\n        return balances[addr];\n    }\n\n    /**\n        @dev Performs a call on behalf of a user\n        @param quote The quote that identifies the service\n        @return Boolean indicating whether the call was successful\n     */\n    function callForUser(\n        QuotesV2.PeginQuote memory quote\n    ) external payable onlyRegistered nonReentrant returns (bool) {\n        require(\n            msg.sender == quote.liquidityProviderRskAddress,\n            \"LBC024\"\n        );\n        require(\n            balances[quote.liquidityProviderRskAddress] + msg.value >=\n            quote.value,\n            \"LBC019\"\n        );\n\n        bytes32 quoteHash = validateAndHashQuote(quote);\n        require(\n            processedQuotes[quoteHash] == UNPROCESSED_QUOTE_CODE,\n            \"LBC025\"\n        );\n\n        increaseBalance(quote.liquidityProviderRskAddress, msg.value);\n\n        // This check ensures that the call cannot be performed with less gas than the agreed amount\n        require(\n            gasleft() >= quote.gasLimit + MAX_CALL_GAS_COST,\n            \"LBC026\"\n        );\n        (bool success,) = quote.contractAddress.call{\n                gas: quote.gasLimit,\n                value: quote.value\n            }(quote.data);\n\n        require(block.timestamp <= type(uint32).max, \"LBC027\");\n        callRegistry[quoteHash].timestamp = uint32(block.timestamp);\n\n        if (success) {\n            callRegistry[quoteHash].success = true;\n            decreaseBalance(quote.liquidityProviderRskAddress, quote.value);\n        }\n        emit CallForUser(\n            msg.sender,\n            quote.contractAddress,\n            quote.gasLimit,\n            quote.value,\n            quote.data,\n            success,\n            quoteHash\n        );\n        processedQuotes[quoteHash] = CALL_DONE_CODE;\n        return success;\n    }\n\n    /**\n        @dev Registers a peg-in transaction with the bridge and pays to the involved parties\n        @param quote The quote of the service\n        @param signature The signature of the quote\n        @param btcRawTransaction The peg-in transaction\n        @param partialMerkleTree The merkle tree path that proves transaction inclusion\n        @param height The block that contains the peg-in transaction\n        @return The total peg-in amount received from the bridge contract or an error code\n     */\n    function registerPegIn(\n        QuotesV2.PeginQuote memory quote,\n        bytes memory signature,\n        bytes memory btcRawTransaction,\n        bytes memory partialMerkleTree,\n        uint256 height\n    ) external nonReentrant returns (int256) {\n        bytes32 quoteHash = validateAndHashQuote(quote);\n\n        // TODO: allow multiple registerPegIns for the same quote with different transactions\n        require(\n            processedQuotes[quoteHash] <= CALL_DONE_CODE,\n            \"LBC028\"\n        );\n        require(\n            SignatureValidator.verify(\n                quote.liquidityProviderRskAddress,\n                quoteHash,\n                signature\n            ),\n            \"LBC029\"\n        );\n        require(height < uint256(int256(type(int32).max)), \"LBC030\");\n\n        int256 transferredAmountOrErrorCode = registerBridge(\n            quote,\n            btcRawTransaction,\n            partialMerkleTree,\n            height,\n            quoteHash\n        );\n\n        require(\n            transferredAmountOrErrorCode !=\n            BRIDGE_UNPROCESSABLE_TX_VALIDATIONS_ERROR,\n            \"LBC031\"\n        );\n        require(\n            transferredAmountOrErrorCode !=\n            BRIDGE_UNPROCESSABLE_TX_ALREADY_PROCESSED_ERROR_CODE,\n            \"LBC032\"\n        );\n        require(\n            transferredAmountOrErrorCode !=\n            BRIDGE_UNPROCESSABLE_TX_VALUE_ZERO_ERROR,\n            \"LBC033\"\n        );\n        require(\n            transferredAmountOrErrorCode !=\n            BRIDGE_UNPROCESSABLE_TX_UTXO_AMOUNT_SENT_BELOW_MINIMUM_ERROR,\n            \"LBC034\"\n        );\n        require(\n            transferredAmountOrErrorCode != BRIDGE_GENERIC_ERROR,\n            \"LBC035\"\n        );\n        require(\n            transferredAmountOrErrorCode > 0 ||\n            transferredAmountOrErrorCode == BRIDGE_REFUNDED_LP_ERROR_CODE ||\n            transferredAmountOrErrorCode == BRIDGE_REFUNDED_USER_ERROR_CODE,\n            \"LBC036\"\n        );\n\n        if (\n            shouldPenalizeLP(\n            quote,\n            transferredAmountOrErrorCode,\n            callRegistry[quoteHash].timestamp,\n            height\n        )\n        ) {\n            uint penalizationAmount = min(\n                quote.penaltyFee,\n                collateral[quote.liquidityProviderRskAddress]\n            ); // prevent underflow when collateral is less than penalty fee.\n            collateral[quote.liquidityProviderRskAddress] -= penalizationAmount;\n            emit Penalized(\n                quote.liquidityProviderRskAddress,\n                penalizationAmount,\n                quoteHash\n            );\n\n            // pay reward to sender\n            uint256 punisherReward = (penalizationAmount * rewardP) / 100;\n            increaseBalance(msg.sender, punisherReward);\n        }\n\n        if (\n            transferredAmountOrErrorCode == BRIDGE_REFUNDED_LP_ERROR_CODE ||\n            transferredAmountOrErrorCode == BRIDGE_REFUNDED_USER_ERROR_CODE\n        ) {\n            // Bridge cap exceeded\n            processedQuotes[quoteHash] = PROCESSED_QUOTE_CODE;\n            delete callRegistry[quoteHash];\n            emit BridgeCapExceeded(quoteHash, transferredAmountOrErrorCode);\n            return transferredAmountOrErrorCode;\n        }\n\n        // the amount is safely assumed positive because it's already been\n        // validated in lines 287/298 there's no (negative) error code being returned by the bridge.\n        uint transferredAmount = uint(transferredAmountOrErrorCode);\n\n        QuotesV2.checkAgreedAmount(quote, transferredAmount);\n\n        if (callRegistry[quoteHash].timestamp > 0) {\n            uint refundAmount;\n\n            if (callRegistry[quoteHash].success) {\n                refundAmount = min(\n                    transferredAmount,\n                    quote.value + quote.callFee + quote.gasFee\n                );\n            } else {\n                refundAmount = min(transferredAmount, quote.callFee + quote.gasFee);\n            }\n            increaseBalance(quote.liquidityProviderRskAddress, refundAmount);\n\n            uint remainingAmount = transferredAmount - refundAmount;\n            payToFeeCollector(quote.productFeeAmount, quoteHash);\n\n            if (remainingAmount > dust) {\n                // refund rskRefundAddress, if remaining amount greater than dust\n                (bool success,) = quote.rskRefundAddress.call{\n                        gas: MAX_REFUND_GAS_LIMIT,\n                        value: remainingAmount\n                    }(\"\");\n                emit Refund(\n                    quote.rskRefundAddress,\n                    remainingAmount,\n                    success,\n                    quoteHash\n                );\n\n                if (!success) {\n                    // transfer funds to LP instead, if for some reason transfer to rskRefundAddress was unsuccessful\n                    increaseBalance(\n                        quote.liquidityProviderRskAddress,\n                        remainingAmount\n                    );\n                }\n            }\n        } else {\n            uint refundAmount = transferredAmount;\n\n            if (quote.callOnRegister && refundAmount >= quote.value) {\n                (bool callSuccess,) = quote.contractAddress.call{\n                        gas: quote.gasLimit,\n                        value: quote.value\n                    }(quote.data);\n                emit CallForUser(\n                    msg.sender,\n                    quote.contractAddress,\n                    quote.gasLimit,\n                    quote.value,\n                    quote.data,\n                    callSuccess,\n                    quoteHash\n                );\n\n                if (callSuccess) {\n                    refundAmount -= quote.value;\n                }\n            }\n            if (refundAmount > dust) {\n                // refund rskRefundAddress, if refund amount greater than dust\n                (bool success,) = quote.rskRefundAddress.call{\n                        gas: MAX_REFUND_GAS_LIMIT,\n                        value: refundAmount\n                    }(\"\");\n                emit Refund(\n                    quote.rskRefundAddress,\n                    refundAmount,\n                    success,\n                    quoteHash\n                );\n            }\n        }\n        processedQuotes[quoteHash] = PROCESSED_QUOTE_CODE;\n        delete callRegistry[quoteHash];\n        emit PegInRegistered(quoteHash, transferredAmountOrErrorCode);\n        return transferredAmountOrErrorCode;\n    }\n\n    function depositPegout( // TODO convert to calldata when contract size issues are fixed\n        QuotesV2.PegOutQuote memory quote,\n        bytes memory signature\n    ) external payable {\n        require(isRegisteredForPegout(quote.lpRskAddress), \"LBC037\");\n        require(quote.value + quote.callFee + quote.productFeeAmount + quote.gasFee <= msg.value, \"LBC063\");\n        require(block.timestamp <= quote.depositDateLimit, \"LBC065\");\n        require(block.timestamp <= quote.expireDate, \"LBC046\");\n        require(block.number <= quote.expireBlock, \"LBC047\");\n        bytes32 quoteHash = hashPegoutQuote(quote);\n        require(\n            SignatureValidator.verify(quote.lpRskAddress, quoteHash, signature),\n            \"LBC029\"\n        );\n\n        QuotesV2.PegOutQuote storage registeredQuote = registeredPegoutQuotes[quoteHash];\n\n        require(pegoutRegistry[quoteHash].completed == false, \"LBC064\");\n        require(registeredQuote.lbcAddress == address(0), \"LBC028\");\n        registeredPegoutQuotes[quoteHash] = quote;\n        pegoutRegistry[quoteHash].depositTimestamp = block.timestamp;\n        emit PegOutDeposit(quoteHash, msg.sender, msg.value, block.timestamp);\n    }\n\n    function refundUserPegOut(\n        bytes32 quoteHash\n    ) external nonReentrant {\n        QuotesV2.PegOutQuote storage quote = registeredPegoutQuotes[quoteHash];\n\n        require(quote.lbcAddress != address(0), \"LBC042\");\n        require(\n            block.timestamp > quote.expireDate &&\n            block.number > quote.expireBlock,\n            \"LBC041\"\n        );\n\n        uint valueToTransfer = quote.value + quote.callFee + quote.productFeeAmount + quote.gasFee;\n        address addressToTransfer = quote.rskRefundAddress;\n\n        uint penalty = min(quote.penaltyFee, pegoutCollateral[quote.lpRskAddress]);\n        pegoutCollateral[quote.lpRskAddress] -= penalty;\n\n        emit Penalized(quote.lpRskAddress, penalty, quoteHash);\n        emit PegOutUserRefunded(\n            quoteHash,\n            valueToTransfer,\n            quote.rskRefundAddress\n        );\n\n        delete registeredPegoutQuotes[quoteHash];\n        pegoutRegistry[quoteHash].completed = true;\n\n        (bool sent,) = addressToTransfer.call{value: valueToTransfer}(\"\");\n        require(sent, \"LBC044\");\n    }\n\n    function refundPegOut(\n        bytes32 quoteHash,\n        bytes memory btcTx,\n        bytes32 btcBlockHeaderHash,\n        uint256 partialMerkleTree,\n        bytes32[] memory merkleBranchHashes\n    ) external nonReentrant onlyRegisteredForPegout {\n        require(pegoutRegistry[quoteHash].completed == false, \"LBC064\");\n        QuotesV2.PegOutQuote storage quote = registeredPegoutQuotes[quoteHash];\n        require(quote.lbcAddress != address(0), \"LBC042\");\n        BtcUtils.TxRawOutput[] memory outputs = BtcUtils.getOutputs(btcTx);\n        bytes memory scriptContent = BtcUtils.parseNullDataScript(outputs[QUOTE_HASH_OUTPUT].pkScript);\n        require(scriptContent.length == 33 && scriptContent[0] == 0x20, \"LBC075\");\n        // shift the array to remove the first byte (the size)\n        for (uint8 i = 0 ; i < scriptContent.length - 1; i++) {\n            scriptContent[i] = scriptContent[i + 1];\n        }\n        bytes32 txQuoteHash = abi.decode(scriptContent, (bytes32));\n        require(quoteHash == txQuoteHash, \"LBC069\");\n        require(msg.sender == quote.lpRskAddress, \"LBC048\");\n        require(\n            bridge.getBtcTransactionConfirmations(\n                BtcUtils.hashBtcTx(btcTx),\n                btcBlockHeaderHash,\n                partialMerkleTree,\n                merkleBranchHashes\n            ) >= int(uint256(quote.transferConfirmations)),\n            \"LBC049\"\n        );\n        uint requiredAmount = quote.value;\n        if (quote.value > SAT_TO_WEI_CONVERSION && (quote.value % SAT_TO_WEI_CONVERSION) != 0) {\n            requiredAmount = quote.value - (quote.value % SAT_TO_WEI_CONVERSION);\n        }\n        uint paidAmount = outputs[PAY_TO_ADDRESS_OUTPUT].value * SAT_TO_WEI_CONVERSION;\n        require(requiredAmount <= paidAmount, \"LBC067\");\n        bytes memory btcTxDestination = BtcUtils.outputScriptToAddress(\n            outputs[PAY_TO_ADDRESS_OUTPUT].pkScript,\n            mainnet\n        );\n        require(keccak256(quote.deposityAddress) == keccak256(btcTxDestination), \"LBC068\");\n\n        if (\n            shouldPenalizePegOutLP(\n            quote,\n            txQuoteHash,\n            btcBlockHeaderHash\n        )\n        ) {\n            uint penalty = min(\n                quote.penaltyFee,\n                pegoutCollateral[quote.lpRskAddress]\n            );\n            pegoutCollateral[quote.lpRskAddress] -= penalty;\n            emit Penalized(quote.lpRskAddress, penalty, txQuoteHash);\n        }\n\n        (bool sent,) = quote.lpRskAddress.call{\n                value: quote.value + quote.callFee\n            }(\"\");\n        require(sent, \"LBC050\");\n\n        payToFeeCollector(quote.productFeeAmount, quoteHash);\n\n        delete registeredPegoutQuotes[txQuoteHash];\n        pegoutRegistry[txQuoteHash].completed = true;\n        emit PegOutRefunded(txQuoteHash);\n    }\n\n    function validatePeginDepositAddress(\n        QuotesV2.PeginQuote memory quote,\n        bytes memory depositAddress\n    ) external view returns (bool) {\n        bytes32 derivationValue = keccak256(\n            bytes.concat(\n                hashQuote(quote),\n                quote.btcRefundAddress,\n                bytes20(quote.lbcAddress),\n                quote.liquidityProviderBtcAddress\n            )\n        );\n        bytes memory flyoverRedeemScript = bytes.concat(\n            hex\"20\",\n            derivationValue,\n            hex\"75\",\n            bridge.getActivePowpegRedeemScript()\n        );\n        return BtcUtils.validateP2SHAdress(depositAddress, flyoverRedeemScript, mainnet);\n    }\n\n    /**\n        @dev Calculates hash of a quote. Note: besides calculation this function also validates the quote.\n        @param quote The quote of the service\n        @return The hash of a quote\n     */\n    function hashQuote(QuotesV2.PeginQuote memory quote) public view returns (bytes32) {\n        return validateAndHashQuote(quote);\n    }\n\n    function hashPegoutQuote(\n        QuotesV2.PegOutQuote memory quote\n    ) public view returns (bytes32) {\n        return validateAndHashPegOutQuote(quote);\n    }\n\n    function validateAndHashQuote(\n        QuotesV2.PeginQuote memory quote\n    ) private view returns (bytes32) {\n        require(address(this) == quote.lbcAddress, \"LBC051\");\n        require(\n            address(bridge) != quote.contractAddress,\n            \"LBC052\"\n        );\n        require(\n            quote.btcRefundAddress.length == 21 ||\n            quote.btcRefundAddress.length == 33,\n            \"LBC053\"\n        );\n        require(\n            quote.liquidityProviderBtcAddress.length == 21,\n            \"LBC054\"\n        );\n        require(\n            quote.value + quote.callFee + quote.productFeeAmount + quote.gasFee >= minPegIn,\n            \"LBC055\"\n        );\n        require(\n            type(uint32).max >= uint64(quote.agreementTimestamp) + uint64(quote.timeForDeposit),\n            \"LBC071\"\n        );\n\n        return keccak256(QuotesV2.encodeQuote(quote));\n    }\n\n    function validateAndHashPegOutQuote(\n        QuotesV2.PegOutQuote memory quote\n    ) private view returns (bytes32) {\n        require(address(this) == quote.lbcAddress, \"LBC056\");\n\n        return keccak256(QuotesV2.encodePegOutQuote(quote));\n    }\n\n    function min(uint a, uint b) private pure returns (uint) {\n        return a < b ? a : b;\n    }\n\n    // IMPORTANT: These methods should remain private at all costs\n    function increaseBalance(address dest, uint amount) private {\n        balances[dest] += amount;\n        emit BalanceIncrease(dest, amount);\n    }\n\n    function decreaseBalance(address dest, uint amount) private {\n        balances[dest] -= amount;\n        emit BalanceDecrease(dest, amount);\n    }\n\n    /**\n        @dev Checks if a liquidity provider is registered\n        @param addr The address of the liquidity provider\n        @return Boolean indicating whether the liquidity provider is registered\n     */\n    function isRegistered(address addr) private view returns (bool) {\n        return collateral[addr] > 0 && resignationBlockNum[addr] == 0;\n    }\n\n    function isRegisteredForPegout(address addr) private view returns (bool) {\n        return pegoutCollateral[addr] > 0 && resignationBlockNum[addr] == 0;\n    }\n\n    /**\n        @dev Registers a transaction with the bridge contract\n        @param quote The quote of the service\n        @param btcRawTransaction The peg-in transaction\n        @param partialMerkleTree The merkle tree path that proves transaction inclusion\n        @param height The block that contains the transaction\n        @return The total peg-in amount received from the bridge contract or an error code\n     */\n    function registerBridge(\n        QuotesV2.PeginQuote memory quote,\n        bytes memory btcRawTransaction,\n        bytes memory partialMerkleTree,\n        uint256 height,\n        bytes32 derivationHash\n    ) private returns (int256) {\n        return\n            bridge.registerFastBridgeBtcTransaction(\n            btcRawTransaction,\n            height,\n            partialMerkleTree,\n            derivationHash,\n            quote.btcRefundAddress,\n            payable(this),\n            quote.liquidityProviderBtcAddress,\n            callRegistry[derivationHash].timestamp > 0 && callRegistry[derivationHash].success\n        );\n    }\n\n    /**\n        @dev Checks if a liquidity provider should be penalized\n        @param quote The quote of the service\n        @param amount The transferred amount or an error code\n        @param callTimestamp The time that the liquidity provider called callForUser\n        @param height The block height where the peg-in transaction is included\n        @return Boolean indicating whether the penalty applies\n     */\n    function shouldPenalizeLP(\n        QuotesV2.PeginQuote memory quote,\n        int256 amount,\n        uint256 callTimestamp,\n        uint256 height\n    ) private view returns (bool) {\n        // do not penalize if deposit amount is insufficient\n        if (amount > 0 && uint256(amount) < quote.value + quote.callFee + quote.productFeeAmount + quote.gasFee) {\n            return false;\n        }\n\n        bytes memory firstConfirmationHeader = bridge\n            .getBtcBlockchainBlockHeaderByHeight(height);\n        require(firstConfirmationHeader.length > 0, \"Invalid block height\");\n\n        uint256 firstConfirmationTimestamp = BtcUtils.getBtcBlockTimestamp(\n            firstConfirmationHeader\n        );\n\n        // do not penalize if deposit was not made on time\n        // prevent overflow when collateral is less than penalty fee.\n        uint timeLimit = quote.agreementTimestamp + quote.timeForDeposit;\n        if (firstConfirmationTimestamp > timeLimit) {\n            return false;\n        }\n\n        // penalize if call was not made\n        if (callTimestamp == 0) {\n            return true;\n        }\n\n        bytes memory nConfirmationsHeader = bridge\n            .getBtcBlockchainBlockHeaderByHeight(\n            height + quote.depositConfirmations - 1\n        );\n        require(nConfirmationsHeader.length > 0, \"LBC058\");\n\n        uint256 nConfirmationsTimestamp = BtcUtils.getBtcBlockTimestamp(\n            nConfirmationsHeader\n        );\n\n        // penalize if the call was not made on time\n        if (callTimestamp > nConfirmationsTimestamp + quote.callTime) {\n            return true;\n        }\n        return false;\n    }\n\n    function shouldPenalizePegOutLP(\n        QuotesV2.PegOutQuote memory quote,\n        bytes32 quoteHash,\n        bytes32 blockHash\n    ) private view returns (bool) {\n        bytes memory firstConfirmationHeader = bridge.getBtcBlockchainBlockHeaderByHash(blockHash);\n        require(firstConfirmationHeader.length > 0, \"LBC059\");\n\n        uint256 firstConfirmationTimestamp = BtcUtils.getBtcBlockTimestamp(firstConfirmationHeader);\n\n        // penalize if the transfer was not made on time\n        if (firstConfirmationTimestamp > pegoutRegistry[quoteHash].depositTimestamp +\n        quote.transferTime + btcBlockTime) {\n            return true;\n        }\n\n        // penalize if LP is refunding after expiration\n        if (block.timestamp > quote.expireDate || block.number > quote.expireBlock) {\n            return true;\n        }\n\n        return false;\n    }\n\n    function payToFeeCollector(uint amount, bytes32 quoteHash) private {\n        if (amount > 0) {\n            (bool daoSuccess,) = payable(daoFeeCollectorAddress).call{value: amount}(\"\");\n            require(daoSuccess, \"LBC074\");\n            emit DaoFeeSent(quoteHash, amount);\n        }\n    }\n\n    function updateProvider(string memory _name, string memory _url) external {\n        require(bytes(_name).length > 0 && bytes(_url).length > 0, \"LBC076\");\n        LiquidityProvider storage lp;\n        for (uint i = 1; i <= providerId; i++) {\n            lp = liquidityProviders[i];\n            if (msg.sender == lp.provider) {\n                lp.name = _name;\n                lp.apiBaseUrl = _url;\n                emit ProviderUpdate(msg.sender, lp.name, lp.apiBaseUrl);\n                return;\n            }\n        }\n        revert(\"LBC001\");\n    }\n}\n",
  "sourcePath": "/Users/luischavez/iov/liquidity-bridge-contract/contracts/LiquidityBridgeContractV2.sol",
  "compiler": {
    "name": "solc",
    "version": "0.8.18+commit.87f61d96.Emscripten.clang"
  },
  "schemaVersion": "3.4.13",
  "updatedAt": "2024-11-27T16:13:03.185Z",
  "networkType": "ethereum",
  "devdoc": {
    "events": {
      "Initialized(uint8)": {
        "details": "Triggered when the contract has been initialized or reinitialized."
      }
    },
    "kind": "dev",
    "methods": {
      "addCollateral()": {
        "details": "Increases the amount of collateral of the sender"
      },
      "callForUser((bytes20,address,address,bytes,address,bytes,uint256,uint256,address,bytes,uint32,int64,uint256,uint32,uint32,uint32,uint16,bool,uint256,uint256))": {
        "details": "Performs a call on behalf of a user",
        "params": {
          "quote": "The quote that identifies the service"
        },
        "returns": {
          "_0": "Boolean indicating whether the call was successful"
        }
      },
      "deposit()": {
        "details": "Increases the balance of the sender"
      },
      "getBalance(address)": {
        "details": "Returns the amount of funds of a liquidity provider",
        "params": {
          "addr": "The address of the liquidity provider"
        },
        "returns": {
          "_0": "The balance of the liquidity provider"
        }
      },
      "getCollateral(address)": {
        "details": "Returns the amount of collateral of a liquidity provider",
        "params": {
          "addr": "The address of the liquidity provider"
        },
        "returns": {
          "_0": "The amount of locked collateral"
        }
      },
      "hashQuote((bytes20,address,address,bytes,address,bytes,uint256,uint256,address,bytes,uint32,int64,uint256,uint32,uint32,uint32,uint16,bool,uint256,uint256))": {
        "details": "Calculates hash of a quote. Note: besides calculation this function also validates the quote.",
        "params": {
          "quote": "The quote of the service"
        },
        "returns": {
          "_0": "The hash of a quote"
        }
      },
      "isOperational(address)": {
        "details": "Checks whether a liquidity provider can deliver a pegin service",
        "returns": {
          "_0": "Whether the liquidity provider is registered and has enough locked collateral"
        }
      },
      "isOperationalForPegout(address)": {
        "details": "Checks whether a liquidity provider can deliver a pegout service",
        "returns": {
          "_0": "Whether the liquidity provider is registered and has enough locked collateral"
        }
      },
      "owner()": {
        "details": "Returns the address of the current owner."
      },
      "register(string,string,bool,string)": {
        "details": "Registers msg.sender as a liquidity provider with msg.value as collateral"
      },
      "registerPegIn((bytes20,address,address,bytes,address,bytes,uint256,uint256,address,bytes,uint32,int64,uint256,uint32,uint32,uint32,uint16,bool,uint256,uint256),bytes,bytes,bytes,uint256)": {
        "details": "Registers a peg-in transaction with the bridge and pays to the involved parties",
        "params": {
          "btcRawTransaction": "The peg-in transaction",
          "height": "The block that contains the peg-in transaction",
          "partialMerkleTree": "The merkle tree path that proves transaction inclusion",
          "quote": "The quote of the service",
          "signature": "The signature of the quote"
        },
        "returns": {
          "_0": "The total peg-in amount received from the bridge contract or an error code"
        }
      },
      "renounceOwnership()": {
        "details": "Leaves the contract without owner. It will not be possible to call `onlyOwner` functions. Can only be called by the current owner. NOTE: Renouncing ownership will leave the contract without an owner, thereby disabling any functionality that is only available to the owner."
      },
      "resign()": {
        "details": "Used to resign as a liquidity provider"
      },
      "transferOwnership(address)": {
        "details": "Transfers ownership of the contract to a new account (`newOwner`). Can only be called by the current owner."
      },
      "withdraw(uint256)": {
        "details": "Used to withdraw funds",
        "params": {
          "amount": "The amount to withdraw"
        }
      },
      "withdrawCollateral()": {
        "details": "Used to withdraw the locked collateral"
      }
    },
    "title": "Contract that assists with the Flyover protocol",
    "version": 1
  },
  "userdoc": {
    "kind": "user",
    "methods": {},
    "version": 1
  }
}