{
  "contractName": "LiquidityBridgeContractV2",
  "abi": [
    {
      "anonymous": false,
      "inputs": [
        {
          "indexed": false,
          "internalType": "address",
          "name": "dest",
          "type": "address"
        },
        {
          "indexed": false,
          "internalType": "uint256",
          "name": "amount",
          "type": "uint256"
        }
      ],
      "name": "BalanceDecrease",
      "type": "event"
    },
    {
      "anonymous": false,
      "inputs": [
        {
          "indexed": false,
          "internalType": "address",
          "name": "dest",
          "type": "address"
        },
        {
          "indexed": false,
          "internalType": "uint256",
          "name": "amount",
          "type": "uint256"
        }
      ],
      "name": "BalanceIncrease",
      "type": "event"
    },
    {
      "anonymous": false,
      "inputs": [
        {
          "indexed": false,
          "internalType": "bytes32",
          "name": "quoteHash",
          "type": "bytes32"
        },
        {
          "indexed": false,
          "internalType": "int256",
          "name": "errorCode",
          "type": "int256"
        }
      ],
      "name": "BridgeCapExceeded",
      "type": "event"
    },
    {
      "anonymous": false,
      "inputs": [
        {
          "indexed": true,
          "internalType": "address",
          "name": "from",
          "type": "address"
        },
        {
          "indexed": true,
          "internalType": "address",
          "name": "dest",
          "type": "address"
        },
        {
          "indexed": false,
          "internalType": "uint256",
          "name": "gasLimit",
          "type": "uint256"
        },
        {
          "indexed": false,
          "internalType": "uint256",
          "name": "value",
          "type": "uint256"
        },
        {
          "indexed": false,
          "internalType": "bytes",
          "name": "data",
          "type": "bytes"
        },
        {
          "indexed": false,
          "internalType": "bool",
          "name": "success",
          "type": "bool"
        },
        {
          "indexed": false,
          "internalType": "bytes32",
          "name": "quoteHash",
          "type": "bytes32"
        }
      ],
      "name": "CallForUser",
      "type": "event"
    },
    {
      "anonymous": false,
      "inputs": [
        {
          "indexed": false,
          "internalType": "address",
          "name": "from",
          "type": "address"
        },
        {
          "indexed": false,
          "internalType": "uint256",
          "name": "amount",
          "type": "uint256"
        }
      ],
      "name": "CollateralIncrease",
      "type": "event"
    },
    {
      "anonymous": false,
      "inputs": [
        {
          "indexed": true,
          "internalType": "bytes32",
          "name": "quoteHash",
          "type": "bytes32"
        },
        {
          "indexed": false,
          "internalType": "uint256",
          "name": "amount",
          "type": "uint256"
        }
      ],
      "name": "DaoFeeSent",
      "type": "event"
    },
    {
      "anonymous": false,
      "inputs": [
        {
          "indexed": false,
          "internalType": "uint8",
          "name": "version",
          "type": "uint8"
        }
      ],
      "name": "Initialized",
      "type": "event"
    },
    {
      "anonymous": false,
      "inputs": [
        {
          "indexed": true,
          "internalType": "address",
          "name": "previousOwner",
          "type": "address"
        },
        {
          "indexed": true,
          "internalType": "address",
          "name": "newOwner",
          "type": "address"
        }
      ],
      "name": "OwnershipTransferred",
      "type": "event"
    },
    {
      "anonymous": false,
      "inputs": [
        {
          "indexed": true,
          "internalType": "bytes32",
          "name": "quoteHash",
          "type": "bytes32"
        },
        {
          "indexed": false,
          "internalType": "int256",
          "name": "transferredAmount",
          "type": "int256"
        }
      ],
      "name": "PegInRegistered",
      "type": "event"
    },
    {
      "anonymous": false,
      "inputs": [
        {
          "indexed": true,
          "internalType": "bytes32",
          "name": "quoteHash",
          "type": "bytes32"
        },
        {
          "indexed": true,
          "internalType": "address",
          "name": "sender",
          "type": "address"
        },
        {
          "indexed": false,
          "internalType": "uint256",
          "name": "amount",
          "type": "uint256"
        },
        {
          "indexed": false,
          "internalType": "uint256",
          "name": "timestamp",
          "type": "uint256"
        }
      ],
      "name": "PegOutDeposit",
      "type": "event"
    },
    {
      "anonymous": false,
      "inputs": [
        {
          "indexed": true,
          "internalType": "bytes32",
          "name": "quoteHash",
          "type": "bytes32"
        }
      ],
      "name": "PegOutRefunded",
      "type": "event"
    },
    {
      "anonymous": false,
      "inputs": [
        {
          "indexed": true,
          "internalType": "bytes32",
          "name": "quoteHash",
          "type": "bytes32"
        },
        {
          "indexed": false,
          "internalType": "uint256",
          "name": "value",
          "type": "uint256"
        },
        {
          "indexed": false,
          "internalType": "address",
          "name": "userAddress",
          "type": "address"
        }
      ],
      "name": "PegOutUserRefunded",
      "type": "event"
    },
    {
      "anonymous": false,
      "inputs": [
        {
          "indexed": false,
          "internalType": "address",
          "name": "from",
          "type": "address"
        },
        {
          "indexed": false,
          "internalType": "uint256",
          "name": "amount",
          "type": "uint256"
        }
      ],
      "name": "PegoutCollateralIncrease",
      "type": "event"
    },
    {
      "anonymous": false,
      "inputs": [
        {
          "indexed": false,
          "internalType": "address",
          "name": "liquidityProvider",
          "type": "address"
        },
        {
          "indexed": false,
          "internalType": "uint256",
          "name": "penalty",
          "type": "uint256"
        },
        {
          "indexed": false,
          "internalType": "bytes32",
          "name": "quoteHash",
          "type": "bytes32"
        }
      ],
      "name": "Penalized",
      "type": "event"
    },
    {
      "anonymous": false,
      "inputs": [
        {
          "indexed": true,
          "internalType": "address",
          "name": "providerAddress",
          "type": "address"
        },
        {
          "indexed": false,
          "internalType": "string",
          "name": "name",
          "type": "string"
        },
        {
          "indexed": false,
          "internalType": "string",
          "name": "url",
          "type": "string"
        }
      ],
      "name": "ProviderUpdate",
      "type": "event"
    },
    {
      "anonymous": false,
      "inputs": [
        {
          "indexed": false,
          "internalType": "address",
          "name": "dest",
          "type": "address"
        },
        {
          "indexed": false,
          "internalType": "uint256",
          "name": "amount",
          "type": "uint256"
        },
        {
          "indexed": false,
          "internalType": "bool",
          "name": "success",
          "type": "bool"
        },
        {
          "indexed": false,
          "internalType": "bytes32",
          "name": "quoteHash",
          "type": "bytes32"
        }
      ],
      "name": "Refund",
      "type": "event"
    },
    {
      "anonymous": false,
      "inputs": [
        {
          "indexed": false,
          "internalType": "uint256",
          "name": "id",
          "type": "uint256"
        },
        {
          "indexed": true,
          "internalType": "address",
          "name": "from",
          "type": "address"
        },
        {
          "indexed": false,
          "internalType": "uint256",
          "name": "amount",
          "type": "uint256"
        }
      ],
      "name": "Register",
      "type": "event"
    },
    {
      "anonymous": false,
      "inputs": [
        {
          "indexed": false,
          "internalType": "address",
          "name": "from",
          "type": "address"
        }
      ],
      "name": "Resigned",
      "type": "event"
    },
    {
      "anonymous": false,
      "inputs": [
        {
          "indexed": false,
          "internalType": "address",
          "name": "from",
          "type": "address"
        },
        {
          "indexed": false,
          "internalType": "uint256",
          "name": "amount",
          "type": "uint256"
        }
      ],
      "name": "WithdrawCollateral",
      "type": "event"
    },
    {
      "anonymous": false,
      "inputs": [
        {
          "indexed": false,
          "internalType": "address",
          "name": "from",
          "type": "address"
        },
        {
          "indexed": false,
          "internalType": "uint256",
          "name": "amount",
          "type": "uint256"
        }
      ],
      "name": "Withdrawal",
      "type": "event"
    },
    {
      "inputs": [],
      "name": "BRIDGE_GENERIC_ERROR",
      "outputs": [
        {
          "internalType": "int16",
          "name": "",
          "type": "int16"
        }
      ],
      "stateMutability": "view",
      "type": "function",
      "constant": true
    },
    {
      "inputs": [],
      "name": "BRIDGE_REFUNDED_LP_ERROR_CODE",
      "outputs": [
        {
          "internalType": "int16",
          "name": "",
          "type": "int16"
        }
      ],
      "stateMutability": "view",
      "type": "function",
      "constant": true
    },
    {
      "inputs": [],
      "name": "BRIDGE_REFUNDED_USER_ERROR_CODE",
      "outputs": [
        {
          "internalType": "int16",
          "name": "",
          "type": "int16"
        }
      ],
      "stateMutability": "view",
      "type": "function",
      "constant": true
    },
    {
      "inputs": [],
      "name": "BRIDGE_UNPROCESSABLE_TX_ALREADY_PROCESSED_ERROR_CODE",
      "outputs": [
        {
          "internalType": "int16",
          "name": "",
          "type": "int16"
        }
      ],
      "stateMutability": "view",
      "type": "function",
      "constant": true
    },
    {
      "inputs": [],
      "name": "BRIDGE_UNPROCESSABLE_TX_INVALID_SENDER_ERROR_CODE",
      "outputs": [
        {
          "internalType": "int16",
          "name": "",
          "type": "int16"
        }
      ],
      "stateMutability": "view",
      "type": "function",
      "constant": true
    },
    {
      "inputs": [],
      "name": "BRIDGE_UNPROCESSABLE_TX_NOT_CONTRACT_ERROR_CODE",
      "outputs": [
        {
          "internalType": "int16",
          "name": "",
          "type": "int16"
        }
      ],
      "stateMutability": "view",
      "type": "function",
      "constant": true
    },
    {
      "inputs": [],
      "name": "BRIDGE_UNPROCESSABLE_TX_UTXO_AMOUNT_SENT_BELOW_MINIMUM_ERROR",
      "outputs": [
        {
          "internalType": "int16",
          "name": "",
          "type": "int16"
        }
      ],
      "stateMutability": "view",
      "type": "function",
      "constant": true
    },
    {
      "inputs": [],
      "name": "BRIDGE_UNPROCESSABLE_TX_VALIDATIONS_ERROR",
      "outputs": [
        {
          "internalType": "int16",
          "name": "",
          "type": "int16"
        }
      ],
      "stateMutability": "view",
      "type": "function",
      "constant": true
    },
    {
      "inputs": [],
      "name": "BRIDGE_UNPROCESSABLE_TX_VALUE_ZERO_ERROR",
      "outputs": [
        {
          "internalType": "int16",
          "name": "",
          "type": "int16"
        }
      ],
      "stateMutability": "view",
      "type": "function",
      "constant": true
    },
    {
      "inputs": [],
      "name": "CALL_DONE_CODE",
      "outputs": [
        {
          "internalType": "uint8",
          "name": "",
          "type": "uint8"
        }
      ],
      "stateMutability": "view",
      "type": "function",
      "constant": true
    },
    {
      "inputs": [],
      "name": "MAX_CALL_GAS_COST",
      "outputs": [
        {
          "internalType": "uint16",
          "name": "",
          "type": "uint16"
        }
      ],
      "stateMutability": "view",
      "type": "function",
      "constant": true
    },
    {
      "inputs": [],
      "name": "MAX_REFUND_GAS_LIMIT",
      "outputs": [
        {
          "internalType": "uint16",
          "name": "",
          "type": "uint16"
        }
      ],
      "stateMutability": "view",
      "type": "function",
      "constant": true
    },
    {
      "inputs": [],
      "name": "PAY_TO_ADDRESS_OUTPUT",
      "outputs": [
        {
          "internalType": "uint256",
          "name": "",
          "type": "uint256"
        }
      ],
      "stateMutability": "view",
      "type": "function",
      "constant": true
    },
    {
      "inputs": [],
      "name": "PROCESSED_QUOTE_CODE",
      "outputs": [
        {
          "internalType": "uint8",
          "name": "",
          "type": "uint8"
        }
      ],
      "stateMutability": "view",
      "type": "function",
      "constant": true
    },
    {
      "inputs": [],
      "name": "QUOTE_HASH_OUTPUT",
      "outputs": [
        {
          "internalType": "uint256",
          "name": "",
          "type": "uint256"
        }
      ],
      "stateMutability": "view",
      "type": "function",
      "constant": true
    },
    {
      "inputs": [],
      "name": "UNPROCESSED_QUOTE_CODE",
      "outputs": [
        {
          "internalType": "uint8",
          "name": "",
          "type": "uint8"
        }
      ],
      "stateMutability": "view",
      "type": "function",
      "constant": true
    },
    {
      "inputs": [],
      "name": "bridge",
      "outputs": [
        {
          "internalType": "contract Bridge",
          "name": "",
          "type": "address"
        }
      ],
      "stateMutability": "view",
      "type": "function",
      "constant": true
    },
    {
      "inputs": [],
      "name": "daoFeeCollectorAddress",
      "outputs": [
        {
          "internalType": "address",
          "name": "",
          "type": "address"
        }
      ],
      "stateMutability": "view",
      "type": "function",
      "constant": true
    },
    {
      "inputs": [],
      "name": "owner",
      "outputs": [
        {
          "internalType": "address",
          "name": "",
          "type": "address"
        }
      ],
      "stateMutability": "view",
      "type": "function",
      "constant": true
    },
    {
      "inputs": [],
      "name": "productFeePercentage",
      "outputs": [
        {
          "internalType": "uint256",
          "name": "",
          "type": "uint256"
        }
      ],
      "stateMutability": "view",
      "type": "function",
      "constant": true
    },
    {
      "inputs": [],
      "name": "providerId",
      "outputs": [
        {
          "internalType": "uint256",
          "name": "",
          "type": "uint256"
        }
      ],
      "stateMutability": "view",
      "type": "function",
      "constant": true
    },
    {
      "inputs": [],
      "name": "renounceOwnership",
      "outputs": [],
      "stateMutability": "nonpayable",
      "type": "function"
    },
    {
      "inputs": [
        {
          "internalType": "address",
          "name": "newOwner",
          "type": "address"
        }
      ],
      "name": "transferOwnership",
      "outputs": [],
      "stateMutability": "nonpayable",
      "type": "function"
    },
    {
      "stateMutability": "payable",
      "type": "receive",
      "payable": true
    },
    {
      "inputs": [
        {
          "internalType": "uint256",
          "name": "_providerId",
          "type": "uint256"
        },
        {
          "internalType": "bool",
          "name": "status",
          "type": "bool"
        }
      ],
      "name": "setProviderStatus",
      "outputs": [],
      "stateMutability": "nonpayable",
      "type": "function"
    },
    {
      "inputs": [],
      "name": "version",
      "outputs": [
        {
          "internalType": "string",
          "name": "",
          "type": "string"
        }
      ],
      "stateMutability": "pure",
      "type": "function",
      "constant": true
    },
    {
      "inputs": [],
      "name": "getProviderIds",
      "outputs": [
        {
          "internalType": "uint256",
          "name": "",
          "type": "uint256"
        }
      ],
      "stateMutability": "view",
      "type": "function",
      "constant": true
    },
    {
      "inputs": [],
      "name": "getBridgeAddress",
      "outputs": [
        {
          "internalType": "address",
          "name": "",
          "type": "address"
        }
      ],
      "stateMutability": "view",
      "type": "function",
      "constant": true
    },
    {
      "inputs": [],
      "name": "getMinCollateral",
      "outputs": [
        {
          "internalType": "uint256",
          "name": "",
          "type": "uint256"
        }
      ],
      "stateMutability": "view",
      "type": "function",
      "constant": true
    },
    {
      "inputs": [],
      "name": "getMinPegIn",
      "outputs": [
        {
          "internalType": "uint256",
          "name": "",
          "type": "uint256"
        }
      ],
      "stateMutability": "view",
      "type": "function",
      "constant": true
    },
    {
      "inputs": [],
      "name": "getRewardPercentage",
      "outputs": [
        {
          "internalType": "uint256",
          "name": "",
          "type": "uint256"
        }
      ],
      "stateMutability": "view",
      "type": "function",
      "constant": true
    },
    {
      "inputs": [],
      "name": "getResignDelayBlocks",
      "outputs": [
        {
          "internalType": "uint256",
          "name": "",
          "type": "uint256"
        }
      ],
      "stateMutability": "view",
      "type": "function",
      "constant": true
    },
    {
      "inputs": [],
      "name": "getDustThreshold",
      "outputs": [
        {
          "internalType": "uint256",
          "name": "",
          "type": "uint256"
        }
      ],
      "stateMutability": "view",
      "type": "function",
      "constant": true
    },
    {
      "inputs": [
        {
          "internalType": "bytes32",
          "name": "quoteHash",
          "type": "bytes32"
        }
      ],
      "name": "isPegOutQuoteCompleted",
      "outputs": [
        {
          "internalType": "bool",
          "name": "",
          "type": "bool"
        }
      ],
      "stateMutability": "view",
      "type": "function",
      "constant": true
    },
    {
      "inputs": [
        {
          "internalType": "address",
          "name": "addr",
          "type": "address"
        }
      ],
      "name": "isOperational",
      "outputs": [
        {
          "internalType": "bool",
          "name": "",
          "type": "bool"
        }
      ],
      "stateMutability": "view",
      "type": "function",
      "constant": true
    },
    {
      "inputs": [
        {
          "internalType": "address",
          "name": "addr",
          "type": "address"
        }
      ],
      "name": "isOperationalForPegout",
      "outputs": [
        {
          "internalType": "bool",
          "name": "",
          "type": "bool"
        }
      ],
      "stateMutability": "view",
      "type": "function",
      "constant": true
    },
    {
      "inputs": [
        {
          "internalType": "string",
          "name": "_name",
          "type": "string"
        },
        {
          "internalType": "string",
          "name": "_apiBaseUrl",
          "type": "string"
        },
        {
          "internalType": "bool",
          "name": "_status",
          "type": "bool"
        },
        {
          "internalType": "string",
          "name": "_providerType",
          "type": "string"
        }
      ],
      "name": "register",
      "outputs": [
        {
          "internalType": "uint256",
          "name": "",
          "type": "uint256"
        }
      ],
      "stateMutability": "payable",
      "type": "function",
      "payable": true
    },
    {
      "inputs": [],
      "name": "getProviders",
      "outputs": [
        {
          "components": [
            {
              "internalType": "uint256",
              "name": "id",
              "type": "uint256"
            },
            {
              "internalType": "address",
              "name": "provider",
              "type": "address"
            },
            {
              "internalType": "string",
              "name": "name",
              "type": "string"
            },
            {
              "internalType": "string",
              "name": "apiBaseUrl",
              "type": "string"
            },
            {
              "internalType": "bool",
              "name": "status",
              "type": "bool"
            },
            {
              "internalType": "string",
              "name": "providerType",
              "type": "string"
            }
          ],
          "internalType": "struct LiquidityBridgeContractV2.LiquidityProvider[]",
          "name": "",
          "type": "tuple[]"
        }
      ],
      "stateMutability": "view",
      "type": "function",
      "constant": true
    },
    {
      "inputs": [
        {
          "internalType": "address",
          "name": "providerAddress",
          "type": "address"
        }
      ],
      "name": "getProvider",
      "outputs": [
        {
          "components": [
            {
              "internalType": "uint256",
              "name": "id",
              "type": "uint256"
            },
            {
              "internalType": "address",
              "name": "provider",
              "type": "address"
            },
            {
              "internalType": "string",
              "name": "name",
              "type": "string"
            },
            {
              "internalType": "string",
              "name": "apiBaseUrl",
              "type": "string"
            },
            {
              "internalType": "bool",
              "name": "status",
              "type": "bool"
            },
            {
              "internalType": "string",
              "name": "providerType",
              "type": "string"
            }
          ],
          "internalType": "struct LiquidityBridgeContractV2.LiquidityProvider",
          "name": "",
          "type": "tuple"
        }
      ],
      "stateMutability": "view",
      "type": "function",
      "constant": true
    },
    {
      "inputs": [],
      "name": "addCollateral",
      "outputs": [],
      "stateMutability": "payable",
      "type": "function",
      "payable": true
    },
    {
      "inputs": [],
      "name": "addPegoutCollateral",
      "outputs": [],
      "stateMutability": "payable",
      "type": "function",
      "payable": true
    },
    {
      "inputs": [],
      "name": "deposit",
      "outputs": [],
      "stateMutability": "payable",
      "type": "function",
      "payable": true
    },
    {
      "inputs": [
        {
          "internalType": "uint256",
          "name": "amount",
          "type": "uint256"
        }
      ],
      "name": "withdraw",
      "outputs": [],
      "stateMutability": "nonpayable",
      "type": "function"
    },
    {
      "inputs": [],
      "name": "withdrawCollateral",
      "outputs": [],
      "stateMutability": "nonpayable",
      "type": "function"
    },
    {
      "inputs": [],
      "name": "resign",
      "outputs": [],
      "stateMutability": "nonpayable",
      "type": "function"
    },
    {
      "inputs": [
        {
          "internalType": "address",
          "name": "addr",
          "type": "address"
        }
      ],
      "name": "getCollateral",
      "outputs": [
        {
          "internalType": "uint256",
          "name": "",
          "type": "uint256"
        }
      ],
      "stateMutability": "view",
      "type": "function",
      "constant": true
    },
    {
      "inputs": [
        {
          "internalType": "address",
          "name": "addr",
          "type": "address"
        }
      ],
      "name": "getPegoutCollateral",
      "outputs": [
        {
          "internalType": "uint256",
          "name": "",
          "type": "uint256"
        }
      ],
      "stateMutability": "view",
      "type": "function",
      "constant": true
    },
    {
      "inputs": [
        {
          "internalType": "address",
          "name": "addr",
          "type": "address"
        }
      ],
      "name": "getBalance",
      "outputs": [
        {
          "internalType": "uint256",
          "name": "",
          "type": "uint256"
        }
      ],
      "stateMutability": "view",
      "type": "function",
      "constant": true
    },
    {
      "inputs": [
        {
          "components": [
            {
              "internalType": "bytes20",
              "name": "fedBtcAddress",
              "type": "bytes20"
            },
            {
              "internalType": "address",
              "name": "lbcAddress",
              "type": "address"
            },
            {
              "internalType": "address",
              "name": "liquidityProviderRskAddress",
              "type": "address"
            },
            {
              "internalType": "bytes",
              "name": "btcRefundAddress",
              "type": "bytes"
            },
            {
              "internalType": "address payable",
              "name": "rskRefundAddress",
              "type": "address"
            },
            {
              "internalType": "bytes",
              "name": "liquidityProviderBtcAddress",
              "type": "bytes"
            },
            {
              "internalType": "uint256",
              "name": "callFee",
              "type": "uint256"
            },
            {
              "internalType": "uint256",
              "name": "penaltyFee",
              "type": "uint256"
            },
            {
              "internalType": "address",
              "name": "contractAddress",
              "type": "address"
            },
            {
              "internalType": "bytes",
              "name": "data",
              "type": "bytes"
            },
            {
              "internalType": "uint32",
              "name": "gasLimit",
              "type": "uint32"
            },
            {
              "internalType": "int64",
              "name": "nonce",
              "type": "int64"
            },
            {
              "internalType": "uint256",
              "name": "value",
              "type": "uint256"
            },
            {
              "internalType": "uint32",
              "name": "agreementTimestamp",
              "type": "uint32"
            },
            {
              "internalType": "uint32",
              "name": "timeForDeposit",
              "type": "uint32"
            },
            {
              "internalType": "uint32",
              "name": "callTime",
              "type": "uint32"
            },
            {
              "internalType": "uint16",
              "name": "depositConfirmations",
              "type": "uint16"
            },
            {
              "internalType": "bool",
              "name": "callOnRegister",
              "type": "bool"
            },
            {
              "internalType": "uint256",
              "name": "productFeeAmount",
              "type": "uint256"
            },
            {
              "internalType": "uint256",
              "name": "gasFee",
              "type": "uint256"
            }
          ],
          "internalType": "struct QuotesV2.PeginQuote",
          "name": "quote",
          "type": "tuple"
        }
      ],
      "name": "callForUser",
      "outputs": [
        {
          "internalType": "bool",
          "name": "",
          "type": "bool"
        }
      ],
      "stateMutability": "payable",
      "type": "function",
      "payable": true
    },
    {
      "inputs": [
        {
          "components": [
            {
              "internalType": "bytes20",
              "name": "fedBtcAddress",
              "type": "bytes20"
            },
            {
              "internalType": "address",
              "name": "lbcAddress",
              "type": "address"
            },
            {
              "internalType": "address",
              "name": "liquidityProviderRskAddress",
              "type": "address"
            },
            {
              "internalType": "bytes",
              "name": "btcRefundAddress",
              "type": "bytes"
            },
            {
              "internalType": "address payable",
              "name": "rskRefundAddress",
              "type": "address"
            },
            {
              "internalType": "bytes",
              "name": "liquidityProviderBtcAddress",
              "type": "bytes"
            },
            {
              "internalType": "uint256",
              "name": "callFee",
              "type": "uint256"
            },
            {
              "internalType": "uint256",
              "name": "penaltyFee",
              "type": "uint256"
            },
            {
              "internalType": "address",
              "name": "contractAddress",
              "type": "address"
            },
            {
              "internalType": "bytes",
              "name": "data",
              "type": "bytes"
            },
            {
              "internalType": "uint32",
              "name": "gasLimit",
              "type": "uint32"
            },
            {
              "internalType": "int64",
              "name": "nonce",
              "type": "int64"
            },
            {
              "internalType": "uint256",
              "name": "value",
              "type": "uint256"
            },
            {
              "internalType": "uint32",
              "name": "agreementTimestamp",
              "type": "uint32"
            },
            {
              "internalType": "uint32",
              "name": "timeForDeposit",
              "type": "uint32"
            },
            {
              "internalType": "uint32",
              "name": "callTime",
              "type": "uint32"
            },
            {
              "internalType": "uint16",
              "name": "depositConfirmations",
              "type": "uint16"
            },
            {
              "internalType": "bool",
              "name": "callOnRegister",
              "type": "bool"
            },
            {
              "internalType": "uint256",
              "name": "productFeeAmount",
              "type": "uint256"
            },
            {
              "internalType": "uint256",
              "name": "gasFee",
              "type": "uint256"
            }
          ],
          "internalType": "struct QuotesV2.PeginQuote",
          "name": "quote",
          "type": "tuple"
        },
        {
          "internalType": "bytes",
          "name": "signature",
          "type": "bytes"
        },
        {
          "internalType": "bytes",
          "name": "btcRawTransaction",
          "type": "bytes"
        },
        {
          "internalType": "bytes",
          "name": "partialMerkleTree",
          "type": "bytes"
        },
        {
          "internalType": "uint256",
          "name": "height",
          "type": "uint256"
        }
      ],
      "name": "registerPegIn",
      "outputs": [
        {
          "internalType": "int256",
          "name": "",
          "type": "int256"
        }
      ],
      "stateMutability": "nonpayable",
      "type": "function"
    },
    {
      "inputs": [
        {
          "components": [
            {
              "internalType": "address",
              "name": "lbcAddress",
              "type": "address"
            },
            {
              "internalType": "address",
              "name": "lpRskAddress",
              "type": "address"
            },
            {
              "internalType": "bytes",
              "name": "btcRefundAddress",
              "type": "bytes"
            },
            {
              "internalType": "address",
              "name": "rskRefundAddress",
              "type": "address"
            },
            {
              "internalType": "bytes",
              "name": "lpBtcAddress",
              "type": "bytes"
            },
            {
              "internalType": "uint256",
              "name": "callFee",
              "type": "uint256"
            },
            {
              "internalType": "uint256",
              "name": "penaltyFee",
              "type": "uint256"
            },
            {
              "internalType": "int64",
              "name": "nonce",
              "type": "int64"
            },
            {
              "internalType": "bytes",
              "name": "deposityAddress",
              "type": "bytes"
            },
            {
              "internalType": "uint256",
              "name": "value",
              "type": "uint256"
            },
            {
              "internalType": "uint32",
              "name": "agreementTimestamp",
              "type": "uint32"
            },
            {
              "internalType": "uint32",
              "name": "depositDateLimit",
              "type": "uint32"
            },
            {
              "internalType": "uint16",
              "name": "depositConfirmations",
              "type": "uint16"
            },
            {
              "internalType": "uint16",
              "name": "transferConfirmations",
              "type": "uint16"
            },
            {
              "internalType": "uint32",
              "name": "transferTime",
              "type": "uint32"
            },
            {
              "internalType": "uint32",
              "name": "expireDate",
              "type": "uint32"
            },
            {
              "internalType": "uint32",
              "name": "expireBlock",
              "type": "uint32"
            },
            {
              "internalType": "uint256",
              "name": "productFeeAmount",
              "type": "uint256"
            },
            {
              "internalType": "uint256",
              "name": "gasFee",
              "type": "uint256"
            }
          ],
          "internalType": "struct QuotesV2.PegOutQuote",
          "name": "quote",
          "type": "tuple"
        },
        {
          "internalType": "bytes",
          "name": "signature",
          "type": "bytes"
        }
      ],
      "name": "depositPegout",
      "outputs": [],
      "stateMutability": "payable",
      "type": "function",
      "payable": true
    },
    {
      "inputs": [
        {
          "internalType": "bytes32",
          "name": "quoteHash",
          "type": "bytes32"
        }
      ],
      "name": "refundUserPegOut",
      "outputs": [],
      "stateMutability": "nonpayable",
      "type": "function"
    },
    {
      "inputs": [
        {
          "internalType": "bytes32",
          "name": "quoteHash",
          "type": "bytes32"
        },
        {
          "internalType": "bytes",
          "name": "btcTx",
          "type": "bytes"
        },
        {
          "internalType": "bytes32",
          "name": "btcBlockHeaderHash",
          "type": "bytes32"
        },
        {
          "internalType": "uint256",
          "name": "partialMerkleTree",
          "type": "uint256"
        },
        {
          "internalType": "bytes32[]",
          "name": "merkleBranchHashes",
          "type": "bytes32[]"
        }
      ],
      "name": "refundPegOut",
      "outputs": [],
      "stateMutability": "nonpayable",
      "type": "function"
    },
    {
      "inputs": [
        {
          "components": [
            {
              "internalType": "bytes20",
              "name": "fedBtcAddress",
              "type": "bytes20"
            },
            {
              "internalType": "address",
              "name": "lbcAddress",
              "type": "address"
            },
            {
              "internalType": "address",
              "name": "liquidityProviderRskAddress",
              "type": "address"
            },
            {
              "internalType": "bytes",
              "name": "btcRefundAddress",
              "type": "bytes"
            },
            {
              "internalType": "address payable",
              "name": "rskRefundAddress",
              "type": "address"
            },
            {
              "internalType": "bytes",
              "name": "liquidityProviderBtcAddress",
              "type": "bytes"
            },
            {
              "internalType": "uint256",
              "name": "callFee",
              "type": "uint256"
            },
            {
              "internalType": "uint256",
              "name": "penaltyFee",
              "type": "uint256"
            },
            {
              "internalType": "address",
              "name": "contractAddress",
              "type": "address"
            },
            {
              "internalType": "bytes",
              "name": "data",
              "type": "bytes"
            },
            {
              "internalType": "uint32",
              "name": "gasLimit",
              "type": "uint32"
            },
            {
              "internalType": "int64",
              "name": "nonce",
              "type": "int64"
            },
            {
              "internalType": "uint256",
              "name": "value",
              "type": "uint256"
            },
            {
              "internalType": "uint32",
              "name": "agreementTimestamp",
              "type": "uint32"
            },
            {
              "internalType": "uint32",
              "name": "timeForDeposit",
              "type": "uint32"
            },
            {
              "internalType": "uint32",
              "name": "callTime",
              "type": "uint32"
            },
            {
              "internalType": "uint16",
              "name": "depositConfirmations",
              "type": "uint16"
            },
            {
              "internalType": "bool",
              "name": "callOnRegister",
              "type": "bool"
            },
            {
              "internalType": "uint256",
              "name": "productFeeAmount",
              "type": "uint256"
            },
            {
              "internalType": "uint256",
              "name": "gasFee",
              "type": "uint256"
            }
          ],
          "internalType": "struct QuotesV2.PeginQuote",
          "name": "quote",
          "type": "tuple"
        },
        {
          "internalType": "bytes",
          "name": "depositAddress",
          "type": "bytes"
        }
      ],
      "name": "validatePeginDepositAddress",
      "outputs": [
        {
          "internalType": "bool",
          "name": "",
          "type": "bool"
        }
      ],
      "stateMutability": "view",
      "type": "function",
      "constant": true
    },
    {
      "inputs": [
        {
          "components": [
            {
              "internalType": "bytes20",
              "name": "fedBtcAddress",
              "type": "bytes20"
            },
            {
              "internalType": "address",
              "name": "lbcAddress",
              "type": "address"
            },
            {
              "internalType": "address",
              "name": "liquidityProviderRskAddress",
              "type": "address"
            },
            {
              "internalType": "bytes",
              "name": "btcRefundAddress",
              "type": "bytes"
            },
            {
              "internalType": "address payable",
              "name": "rskRefundAddress",
              "type": "address"
            },
            {
              "internalType": "bytes",
              "name": "liquidityProviderBtcAddress",
              "type": "bytes"
            },
            {
              "internalType": "uint256",
              "name": "callFee",
              "type": "uint256"
            },
            {
              "internalType": "uint256",
              "name": "penaltyFee",
              "type": "uint256"
            },
            {
              "internalType": "address",
              "name": "contractAddress",
              "type": "address"
            },
            {
              "internalType": "bytes",
              "name": "data",
              "type": "bytes"
            },
            {
              "internalType": "uint32",
              "name": "gasLimit",
              "type": "uint32"
            },
            {
              "internalType": "int64",
              "name": "nonce",
              "type": "int64"
            },
            {
              "internalType": "uint256",
              "name": "value",
              "type": "uint256"
            },
            {
              "internalType": "uint32",
              "name": "agreementTimestamp",
              "type": "uint32"
            },
            {
              "internalType": "uint32",
              "name": "timeForDeposit",
              "type": "uint32"
            },
            {
              "internalType": "uint32",
              "name": "callTime",
              "type": "uint32"
            },
            {
              "internalType": "uint16",
              "name": "depositConfirmations",
              "type": "uint16"
            },
            {
              "internalType": "bool",
              "name": "callOnRegister",
              "type": "bool"
            },
            {
              "internalType": "uint256",
              "name": "productFeeAmount",
              "type": "uint256"
            },
            {
              "internalType": "uint256",
              "name": "gasFee",
              "type": "uint256"
            }
          ],
          "internalType": "struct QuotesV2.PeginQuote",
          "name": "quote",
          "type": "tuple"
        }
      ],
      "name": "hashQuote",
      "outputs": [
        {
          "internalType": "bytes32",
          "name": "",
          "type": "bytes32"
        }
      ],
      "stateMutability": "view",
      "type": "function",
      "constant": true
    },
    {
      "inputs": [
        {
          "components": [
            {
              "internalType": "address",
              "name": "lbcAddress",
              "type": "address"
            },
            {
              "internalType": "address",
              "name": "lpRskAddress",
              "type": "address"
            },
            {
              "internalType": "bytes",
              "name": "btcRefundAddress",
              "type": "bytes"
            },
            {
              "internalType": "address",
              "name": "rskRefundAddress",
              "type": "address"
            },
            {
              "internalType": "bytes",
              "name": "lpBtcAddress",
              "type": "bytes"
            },
            {
              "internalType": "uint256",
              "name": "callFee",
              "type": "uint256"
            },
            {
              "internalType": "uint256",
              "name": "penaltyFee",
              "type": "uint256"
            },
            {
              "internalType": "int64",
              "name": "nonce",
              "type": "int64"
            },
            {
              "internalType": "bytes",
              "name": "deposityAddress",
              "type": "bytes"
            },
            {
              "internalType": "uint256",
              "name": "value",
              "type": "uint256"
            },
            {
              "internalType": "uint32",
              "name": "agreementTimestamp",
              "type": "uint32"
            },
            {
              "internalType": "uint32",
              "name": "depositDateLimit",
              "type": "uint32"
            },
            {
              "internalType": "uint16",
              "name": "depositConfirmations",
              "type": "uint16"
            },
            {
              "internalType": "uint16",
              "name": "transferConfirmations",
              "type": "uint16"
            },
            {
              "internalType": "uint32",
              "name": "transferTime",
              "type": "uint32"
            },
            {
              "internalType": "uint32",
              "name": "expireDate",
              "type": "uint32"
            },
            {
              "internalType": "uint32",
              "name": "expireBlock",
              "type": "uint32"
            },
            {
              "internalType": "uint256",
              "name": "productFeeAmount",
              "type": "uint256"
            },
            {
              "internalType": "uint256",
              "name": "gasFee",
              "type": "uint256"
            }
          ],
          "internalType": "struct QuotesV2.PegOutQuote",
          "name": "quote",
          "type": "tuple"
        }
      ],
      "name": "hashPegoutQuote",
      "outputs": [
        {
          "internalType": "bytes32",
          "name": "",
          "type": "bytes32"
        }
      ],
      "stateMutability": "view",
      "type": "function",
      "constant": true
    },
    {
      "inputs": [
        {
          "internalType": "string",
          "name": "_name",
          "type": "string"
        },
        {
          "internalType": "string",
          "name": "_url",
          "type": "string"
        }
      ],
      "name": "updateProvider",
      "outputs": [],
      "stateMutability": "nonpayable",
      "type": "function"
    }
  ],
  "bytecode": "0x608060405234801561001057600080fd5b50615ece80620000216000396000f3fe60806040526004361061027f5760003560e01c80630220f41d146102d357806304ade855146102f35780630a7bf57a1461031f5780630a9cb4a71461033457806322140009146103535780632d67952c146103735780632e1a7d4d1461039357806333f07ad3146103b357806341705518146103c8578063418663a2146103db5780634198687e14610405578063457385f21461040d5780634d0ec9711461043d57806354015ee01461045d57806354fd4d501461049057806355f21eb7146104c457806359c153be146104f157806363c671351461050657806369652fcf1461051c578063710738b114610531578063715018a61461055e57806372cbf4e81461057357806379b9550b146105935780637aefa8c2146105b35780638490a8df146105c65780638beb537a146105dc5780638d597939146105ef5780638da5cb5b146106065780638f91797d1461061b5780639b56d6c91461063b5780639cd6557f146106715780639d79b59b146106865780639e816999146106af578063a4a5ba50146106b7578063a93bb247146106cc578063ae76ce86146106e3578063ae93b67b146106fa578063b3a849aa14610711578063bd519eff14610731578063bd5798c314610767578063be6de4eb14610789578063c525cdd81461079e578063c7213163146107b5578063cfb92f0a146107d0578063d0e30db0146107e7578063d6c70de8146107ef578063e1de16c61461080f578063e30e6ea314610825578063e78cea921461083b578063e830b6901461085b578063e8fcce7114610870578063edc922a914610886578063f2fde38b146108a8578063f8b2cb4f146108c8578063fa88dcde146108fe578063fb32c5081461091357600080fd5b366102ce576097546001600160a01b031633146102cc5760405162461bcd60e51b81526020600482015260066024820152654c424330303760d01b60448201526064015b60405180910390fd5b005b600080fd5b3480156102df57600080fd5b506102cc6102ee3660046148a6565b610931565b3480156102ff57600080fd5b50610308600181565b60405160ff90911681526020015b60405180910390f35b34801561032b57600080fd5b50610308600281565b34801561034057600080fd5b5060a2545b604051908152602001610316565b34801561035f57600080fd5b5061034561036e366004614af1565b610a43565b34801561037f57600080fd5b5061034561038e366004614cf9565b610a54565b34801561039f57600080fd5b506102cc6103ae366004614dad565b611266565b3480156103bf57600080fd5b5060a154610345565b6103456103d6366004614dc6565b61135e565b3480156103e757600080fd5b506103f26101301981565b60405160019190910b8152602001610316565b6102cc611890565b34801561041957600080fd5b5061042d610428366004614e62565b611915565b6040519015158152602001610316565b34801561044957600080fd5b5061042d610458366004614e62565b61194b565b34801561046957600080fd5b5061042d610478366004614dad565b600090815260a7602052604090206001015460ff1690565b34801561049c57600080fd5b5060408051808201825260058152640312e332e360dc1b602082015290516103169190614ecf565b3480156104d057600080fd5b506104e46104df366004614e62565b611981565b6040516103169190614f5f565b3480156104fd57600080fd5b506102cc611bd6565b34801561051257600080fd5b5061034560a85481565b34801561052857600080fd5b506102cc611d81565b34801561053d57600080fd5b5060a954610551906001600160a01b031681565b6040516103169190614f72565b34801561056a57600080fd5b506102cc611e2c565b34801561057f57600080fd5b506102cc61058e366004614f86565b611e3e565b34801561059f57600080fd5b5061042d6105ae366004614fb6565b611ed8565b61042d6105c1366004614fec565b612044565b3480156105d257600080fd5b5061034560a25481565b6102cc6105ea366004615020565b612356565b3480156105fb57600080fd5b506103f261012c1981565b34801561061257600080fd5b5061055161280f565b34801561062757600080fd5b506102cc610636366004614dad565b61281e565b34801561064757600080fd5b50610345610656366004614e62565b6001600160a01b031660009081526099602052604090205490565b34801561067d57600080fd5b50610308600081565b34801561069257600080fd5b5061069c6188b881565b60405161ffff9091168152602001610316565b6102cc612b4b565b3480156106c357600080fd5b50610345600181565b3480156106d857600080fd5b506103f261012d1981565b3480156106ef57600080fd5b506103f261012b1981565b34801561070657600080fd5b506103f26103831981565b34801561071d57600080fd5b5061034561072c366004614fec565b612bc6565b34801561073d57600080fd5b5061034561074c366004614e62565b6001600160a01b03166000908152609a602052604090205490565b34801561077357600080fd5b5060a054600160201b900463ffffffff16610345565b34801561079557600080fd5b50610345600081565b3480156107aa57600080fd5b506103f261012e1981565b3480156107c157600080fd5b5060a05463ffffffff16610345565b3480156107dc57600080fd5b506103f261012f1981565b6102cc612bd1565b3480156107fb57600080fd5b506102cc61080a366004615079565b612c00565b34801561081b57600080fd5b5061069c6108fc81565b34801561083157600080fd5b506103f260c71981565b34801561084757600080fd5b50609754610551906001600160a01b031681565b34801561086757600080fd5b50609e54610345565b34801561087c57600080fd5b506103f260631981565b34801561089257600080fd5b5061089b613703565b604051610316919061514f565b3480156108b457600080fd5b506102cc6108c3366004614e62565b613a0d565b3480156108d457600080fd5b506103456108e3366004614e62565b6001600160a01b031660009081526098602052604090205490565b34801561090a57600080fd5b50609f54610345565b34801561091f57600080fd5b506097546001600160a01b0316610551565b60008251118015610943575060008151115b6109785760405162461bcd60e51b8152602060048201526006602482015265262121981b9b60d11b60448201526064016102c3565b600060015b60a2548111610a2a576000818152609b6020526040902060018101549092506001600160a01b03163303610a1857600282016109b9858261523a565b50600382016109c8848261523a565b50336001600160a01b03167fc15f90eb34a098bb02f2641dff62935246fb005d8f06e13d5cc6be0bddcce8e38360020184600301604051610a0a929190615376565b60405180910390a250505050565b80610a22816153b1565b91505061097d565b5060405162461bcd60e51b81526004016102c3906153ca565b6000610a4e82613a83565b92915050565b6000610a5e613b52565b6000610a6987613bab565b600081815260a56020526040902054909150600160ff9091161115610aa05760405162461bcd60e51b81526004016102c3906153ea565b60408088015190516301a86b5560e41b815273__SignatureValidator____________________91631a86b55091610adf919085908b9060040161540a565b602060405180830381865af4158015610afc573d6000803e3d6000fd5b505050506040513d601f19601f82011682018060405250810190610b209190615431565b610b3c5760405162461bcd60e51b81526004016102c39061544e565b637fffffff8310610b785760405162461bcd60e51b815260206004820152600660248201526504c42433033360d41b60448201526064016102c3565b6000610b878887878786613dde565b905061012f8101610bc35760405162461bcd60e51b81526020600482015260066024820152654c424330333160d01b60448201526064016102c3565b61012e8101610bfd5760405162461bcd60e51b815260206004820152600660248201526526212198199960d11b60448201526064016102c3565b6101308101610c375760405162461bcd60e51b81526020600482015260066024820152654c424330333360d01b60448201526064016102c3565b6101318101610c715760405162461bcd60e51b8152602060048201526006602482015265131090cc0ccd60d21b60448201526064016102c3565b6103848101610cab5760405162461bcd60e51b81526020600482015260066024820152654c424330333560d01b60448201526064016102c3565b6000811380610cbb575060c71981145b80610cc7575060631981145b610cfc5760405162461bcd60e51b815260206004820152600660248201526526212198199b60d11b60448201526064016102c3565b6000828152609c6020526040902054610d1f908990839063ffffffff1687613eb0565b15610df05760e08801516040808a01516001600160a01b031660009081526099602052908120549091610d5191614211565b905080609960008b604001516001600160a01b03166001600160a01b031681526020019081526020016000206000828254610d8c919061546e565b90915550506040808a01519051600080516020615e5983398151915291610db69184908790615481565b60405180910390a160a054600090606490610dd79063ffffffff16846154a2565b610de191906154cf565b9050610ded3382614229565b50505b60c719811480610e01575060631981145b15610e7557600082815260a560209081526040808320805460ff19166002179055609c825291829020805464ffffffffff1916905581518481529081018390527ffb209329d5ab5b7bcb2e92f45f4534814b6e68fa5ad1f171dabc1d17d26f0ebe910160405180910390a191506112539050565b60405163fa6ea3e760e01b8152819073__QuotesV2______________________________9063fa6ea3e790610eb0908c90859060040161564f565b60006040518083038186803b158015610ec857600080fd5b505af4158015610edc573d6000803e3d6000fd5b5050506000848152609c602052604090205463ffffffff16159050611047576000838152609c6020526040812054600160201b900460ff1615610f4e57610f47828b61026001518c60c001518d6101800151610f389190615671565b610f429190615671565b614211565b9050610f6a565b610f67828b61026001518c60c00151610f429190615671565b90505b610f788a6040015182614229565b6000610f84828461546e565b9050610f958b610240015186614288565b60a1548111156110405760808b01516040516000916001600160a01b0316906108fc90849084818181858888f193505050503d8060008114610ff3576040519150601f19603f3d011682016040523d82523d6000602084013e610ff8565b606091505b50509050600080516020615e398339815191528c608001518383896040516110239493929190615684565b60405180910390a18061103e5761103e8c6040015183614229565b505b50506111ec565b6102208901518190801561106057508961018001518110155b156111525760008a61010001516001600160a01b03168b610140015163ffffffff168c61018001518d610120015160405161109b91906156ac565b600060405180830381858888f193505050503d80600081146110d9576040519150601f19603f3d011682016040523d82523d6000602084013e6110de565b606091505b505090508a61010001516001600160a01b0316336001600160a01b0316600080516020615e798339815191528d61014001518e61018001518f6101200151868b60405161112f9594939291906156c8565b60405180910390a38015611150576101808b015161114d908361546e565b91505b505b60a1548111156111ea5760808a01516040516000916001600160a01b0316906108fc90849084818181858888f193505050503d80600081146111b0576040519150601f19603f3d011682016040523d82523d6000602084013e6111b5565b606091505b50509050600080516020615e398339815191528b608001518383886040516111e09493929190615684565b60405180910390a1505b505b600083815260a560209081526040808320805460ff19166002179055609c825291829020805464ffffffffff19169055905183815284917f0629ae9d1dc61501b0ca90670a9a9b88daaf7504b54537b53e1219de794c63d2910160405180910390a2509150505b61125d6001606555565b95945050505050565b336000908152609860205260409020548111156112955760405162461bcd60e51b81526004016102c390615701565b33600090815260986020526040812080548392906112b490849061546e565b9091555050604051600090339083908381818185875af1925050503d80600081146112fb576040519150601f19603f3d011682016040523d82523d6000602084013e611300565b606091505b50509050806113215760405162461bcd60e51b81526004016102c390615721565b7f7fcf532c15f0a6db0bd6d0e038bea71d30d808c7d98cb3bf7268a95bf5081b653383604051611352929190615741565b60405180910390a15050565b60003233146113985760405162461bcd60e51b81526020600482015260066024820152654c424330303360d01b60448201526064016102c3565b60008551116113d25760405162461bcd60e51b815260206004820152600660248201526504c42433031360d41b60448201526064016102c3565b600084511161140c5760405162461bcd60e51b81526020600482015260066024820152654c424330313760d01b60448201526064016102c3565b60405160200161141b9061575a565b604051602081830303815290604052805190602001208260405160200161144291906156ac565b6040516020818303038152906040528051906020012014806114ad575060405160200161146e9061576b565b604051602081830303815290604052805190602001208260405160200161149591906156ac565b60405160208183030381529060405280519060200120145b806115055750604051630c4dee8d60e31b602082015260240160405160208183030381529060405280519060200120826040516020016114ed91906156ac565b60405160208183030381529060405280519060200120145b61153a5760405162461bcd60e51b815260206004820152600660248201526509884866062760d31b60448201526064016102c3565b336000908152609960205260409020541580156115645750336000908152609a6020526040902054155b6115995760405162461bcd60e51b815260206004820152600660248201526504c42433037360d41b60448201526064016102c3565b336000908152609d6020526040902054156115df5760405162461bcd60e51b81526020600482015260066024820152654c424330303960d01b60448201526064016102c3565b6040516020016115ee9061575a565b604051602081830303815290604052805190602001208260405160200161161591906156ac565b604051602081830303815290604052805190602001200361166957609e543410156116525760405162461bcd60e51b81526004016102c39061577d565b33600090815260996020526040902034905561176e565b6040516020016116789061576b565b604051602081830303815290604052805190602001208260405160200161169f91906156ac565b60405160208183030381529060405280519060200120036116f357609e543410156116dc5760405162461bcd60e51b81526004016102c39061577d565b336000908152609a6020526040902034905561176e565b609e546117019060026154a2565b3410156117205760405162461bcd60e51b81526004016102c39061577d565b600061172d6002346154cf565b905061173a60023461579d565b1561174f5761174a816001615671565b611751565b805b33600090815260996020908152604080832093909355609a905220555b60a2805490600061177e836153b1565b90915550506040805160c08101825260a2548082523360208084019182528385018a8152606085018a9052881515608086015260a085018890526000938452609b909152939091208251815590516001820180546001600160a01b0319166001600160a01b0390921691909117905591519091906002820190611801908261523a565b5060608201516003820190611816908261523a565b50608082015160048201805460ff191691151591909117905560a08201516005820190611843908261523a565b505060a254604080519182523460208301523392507fa9d44d6e13bb3fee938c3f66d1103e91f8dc6b12d4405a55eea558e8f275aa6e910160405180910390a25060a2545b949350505050565b6118993361435a565b6118b55760405162461bcd60e51b81526004016102c3906153ca565b336000908152609a6020526040812080543492906118d4908490615671565b90915550506040517f873d5a2949567203ad4f0cceef41c2813c87b9a397ee777d87a8acdaec2c6fa99061190b9033903490615741565b60405180910390a1565b600061192082614399565b8015610a4e5750609e546001600160a01b038316600090815260996020526040902054101592915050565b60006119568261435a565b8015610a4e5750609e546001600160a01b0383166000908152609a6020526040902054101592915050565b6119896146e6565b60015b60a2548111610a2a576000818152609b60205260409020600101546001600160a01b03808516911603611bc4576000818152609b6020908152604091829020825160c0810184528154815260018201546001600160a01b0316928101929092526002810180549293919291840191611a03906151b1565b80601f0160208091040260200160405190810160405280929190818152602001828054611a2f906151b1565b8015611a7c5780601f10611a5157610100808354040283529160200191611a7c565b820191906000526020600020905b815481529060010190602001808311611a5f57829003601f168201915b50505050508152602001600382018054611a95906151b1565b80601f0160208091040260200160405190810160405280929190818152602001828054611ac1906151b1565b8015611b0e5780601f10611ae357610100808354040283529160200191611b0e565b820191906000526020600020905b815481529060010190602001808311611af157829003601f168201915b5050509183525050600482015460ff1615156020820152600582018054604090920191611b3a906151b1565b80601f0160208091040260200160405190810160405280929190818152602001828054611b66906151b1565b8015611bb35780601f10611b8857610100808354040283529160200191611bb3565b820191906000526020600020905b815481529060010190602001808311611b9657829003601f168201915b505050505081525050915050919050565b80611bce816153b1565b91505061198c565b611bde613b52565b336000908152609d6020526040902054611c235760405162461bcd60e51b81526020600482015260066024820152654c424330323160d01b60448201526064016102c3565b60a054336000908152609d6020526040902054600160201b90910463ffffffff1690611c4f904361546e565b1015611c865760405162461bcd60e51b815260206004820152600660248201526526212198191960d11b60448201526064016102c3565b336000908152609a60209081526040808320546099909252822054611cab9190615671565b336000818152609a6020908152604080832083905560998252808320839055609d909152808220829055519293509183908381818185875af1925050503d8060008114611d14576040519150601f19603f3d011682016040523d82523d6000602084013e611d19565b606091505b5050905080611d3a5760405162461bcd60e51b81526004016102c390615721565b7fa8e76b822fc682be77f3b1c822ea81f6bda5aed92ba82e6873bfd889f328d1d23383604051611d6b929190615741565b60405180910390a15050611d7f6001606555565b565b611d8a33614399565b611da65760405162461bcd60e51b81526004016102c3906153ca565b336000908152609d602052604090205415611dec5760405162461bcd60e51b81526020600482015260066024820152654c424330323360d01b60448201526064016102c3565b336000818152609d602052604090819020439055517fa6674aa33cd1b7435474751667707bf05fde99e537d67043ec5f907782577d869161190b91614f72565b611e346143d8565b611d7f6000614437565b81611e4761280f565b6001600160a01b0316336001600160a01b03161480611e7f57506000818152609b60205260409020600101546001600160a01b031633145b611eb45760405162461bcd60e51b81526020600482015260066024820152654c424330303560d01b60448201526064016102c3565b506000918252609b6020526040909120600401805460ff1916911515919091179055565b600080611ee484612bc6565b8460600151856020015160601b8660a00151604051602001611f0994939291906157b1565b604051602081830303815290604052805190602001209050600081609760009054906101000a90046001600160a01b03166001600160a01b0316631d73d5dd6040518163ffffffff1660e01b8152600401600060405180830381865afa158015611f77573d6000803e3d6000fd5b505050506040513d6000823e601f3d908101601f19168201604052611f9f9190810190615843565b604051602001611fb0929190615877565b60408051601f198184030181529082905260a454639b02794b60e01b835290925073__BtcUtils______________________________91639b02794b91612003918891869160ff909116906004016158b1565b602060405180830381865af4158015612020573d6000803e3d6000fd5b505050506040513d601f19601f8201168201806040525081019061125d9190615431565b600061204f33614399565b61206b5760405162461bcd60e51b81526004016102c3906153ca565b612073613b52565b81604001516001600160a01b0316336001600160a01b0316146120c15760405162461bcd60e51b8152602060048201526006602482015265131090cc0c8d60d21b60448201526064016102c3565b6101808201516040808401516001600160a01b03166000908152609860205220546120ed903490615671565b101561210b5760405162461bcd60e51b81526004016102c390615701565b600061211683613bab565b600081815260a5602052604090205490915060ff16156121615760405162461bcd60e51b81526020600482015260066024820152654c424330323560d01b60448201526064016102c3565b61216f836040015134614229565b610140830151612182906188b8906158e9565b63ffffffff165a10156121c05760405162461bcd60e51b815260206004820152600660248201526526212198191b60d11b60448201526064016102c3565b60008361010001516001600160a01b031684610140015163ffffffff168561018001518661012001516040516121f691906156ac565b600060405180830381858888f193505050503d8060008114612234576040519150601f19603f3d011682016040523d82523d6000602084013e612239565b606091505b509091505063ffffffff42111561227b5760405162461bcd60e51b81526020600482015260066024820152654c424330323760d01b60448201526064016102c3565b6000828152609c60205260409020805463ffffffff19164263ffffffff1617905580156122d6576000828152609c602052604090819020805460ff60201b1916600160201b1790558401516101808501516122d69190614489565b8361010001516001600160a01b0316336001600160a01b0316600080516020615e7983398151915286610140015187610180015188610120015186886040516123239594939291906156c8565b60405180910390a3600091825260a56020526040909120805460ff1916600117905590506123516001606555565b919050565b612363826020015161435a565b6123985760405162461bcd60e51b81526020600482015260066024820152654c424330333760d01b60448201526064016102c3565b348261024001518361022001518460a001518561012001516123ba9190615671565b6123c49190615671565b6123ce9190615671565b11156124055760405162461bcd60e51b81526020600482015260066024820152654c424330363360d01b60448201526064016102c3565b81610160015163ffffffff164211156124495760405162461bcd60e51b81526020600482015260066024820152654c424330363560d01b60448201526064016102c3565b816101e0015163ffffffff1642111561248d5760405162461bcd60e51b8152602060048201526006602482015265262121981a1b60d11b60448201526064016102c3565b81610200015163ffffffff164311156124d15760405162461bcd60e51b81526020600482015260066024820152654c424330343760d01b60448201526064016102c3565b60006124dc83610a43565b60208401516040516301a86b5560e41b815291925073__SignatureValidator____________________91631a86b5509161251d918590879060040161540a565b602060405180830381865af415801561253a573d6000803e3d6000fd5b505050506040513d601f19601f8201168201806040525081019061255e9190615431565b61257a5760405162461bcd60e51b81526004016102c39061544e565b600081815260a66020908152604080832060a79092529091206001015460ff16156125b75760405162461bcd60e51b81526004016102c39061590d565b80546001600160a01b0316156125df5760405162461bcd60e51b81526004016102c3906153ea565b600082815260a66020908152604091829020865181546001600160a01b03199081166001600160a01b0392831617835592880151600183018054909416911617909155908501518591906002820190612638908261523a565b5060608201516003820180546001600160a01b0319166001600160a01b0390921691909117905560808201516004820190612673908261523a565b5060a0820151600582015560c0820151600682015560e08201516007820180546001600160401b0319166001600160401b0390921691909117905561010082015160088201906126c3908261523a565b506101208201516009820155610140820151600a820180546101608501516101808601516101a08701516101c08801516101e08901516102008a015163ffffffff9889166001600160401b031990971696909617600160201b958916959095029490941763ffffffff60401b1916600160401b61ffff9485160261ffff60501b191617600160501b939092169290920217600160601b600160a01b031916600160601b9186169190910263ffffffff60801b191617600160801b918516919091021763ffffffff60a01b1916600160a01b9390911692909202919091179055610220820151600b82015561024090910151600c90910155600082815260a760209081526040918290204290819055825134815291820152339184917fb1bc7bfc0dab19777eb03aa0a5643378fc9f186c8fc5a36620d21136fbea570f910160405180910390a350505050565b6033546001600160a01b031690565b612826613b52565b600081815260a66020526040902080546001600160a01b031661285b5760405162461bcd60e51b81526004016102c39061592d565b600a810154600160801b900463ffffffff164211801561288b5750600a810154600160a01b900463ffffffff1643115b6128c05760405162461bcd60e51b81526020600482015260066024820152654c424330343160d01b60448201526064016102c3565b600081600c015482600b0154836005015484600901546128e09190615671565b6128ea9190615671565b6128f49190615671565b6003830154600684015460018501546001600160a01b039081166000908152609a602052604081205494955092169261292d9190614211565b60018501546001600160a01b03166000908152609a602052604081208054929350839290919061295e90849061546e565b90915550506001840154604051600080516020615e5983398151915291612994916001600160a01b039091169084908990615481565b60405180910390a16003840154604080518581526001600160a01b03909216602083015286917f9ccbeffc442024e2a6ade18ff0978af9a4c4d6562ae38adb51ccf8256cf42b41910160405180910390a2600085815260a66020526040812080546001600160a01b03199081168255600182018054909116905590612a1c6002830182614727565b6003820180546001600160a01b0319169055612a3c600483016000614727565b600060058301819055600683018190556007830180546001600160401b0319169055612a6c906008840190614727565b50600060098201819055600a820180546001600160c01b0319169055600b8201819055600c90910181905585815260a760205260408082206001908101805460ff19169091179055516001600160a01b0384169085908381818185875af1925050503d8060008114612afa576040519150601f19603f3d011682016040523d82523d6000602084013e612aff565b606091505b5050905080612b395760405162461bcd60e51b8152602060048201526006602482015265131090cc0d0d60d21b60448201526064016102c3565b5050505050612b486001606555565b50565b612b5433614399565b612b705760405162461bcd60e51b81526004016102c3906153ca565b3360009081526099602052604081208054349290612b8f908490615671565b90915550506040517f456e0f4ea86ac283092c750200e8c877f6ad8901ae575f90e02081acd455af849061190b9033903490615741565b6000610a4e82613bab565b612bda33614399565b612bf65760405162461bcd60e51b81526004016102c3906153ca565b611d7f3334614229565b612c08613b52565b612c113361435a565b612c2d5760405162461bcd60e51b81526004016102c3906153ca565b600085815260a7602052604090206001015460ff1615612c5f5760405162461bcd60e51b81526004016102c39061590d565b600085815260a66020526040902080546001600160a01b0316612c945760405162461bcd60e51b81526004016102c39061592d565b60405162f5b49160e01b815260009073__BtcUtils______________________________9062f5b49190612ccc908990600401614ecf565b600060405180830381865af4158015612ce9573d6000803e3d6000fd5b505050506040513d6000823e601f3d908101601f19168201604052612d11919081019061594d565b9050600073__BtcUtils______________________________632d56f32383600181518110612d4257612d42615a60565b6020026020010151602001516040518263ffffffff1660e01b8152600401612d6a9190614ecf565b600060405180830381865af4158015612d87573d6000803e3d6000fd5b505050506040513d6000823e601f3d908101601f19168201604052612daf9190810190615843565b905080516021148015612de7575080600081518110612dd057612dd0615a60565b6020910101516001600160f81b031916600160fd1b145b612e1c5760405162461bcd60e51b81526020600482015260066024820152654c424330373560d01b60448201526064016102c3565b60005b60018251612e2d919061546e565b8160ff161015612e9f5781612e43826001615a76565b60ff1681518110612e5657612e56615a60565b602001015160f81c60f81b828260ff1681518110612e7657612e76615a60565b60200101906001600160f81b031916908160001a90535080612e9781615a8f565b915050612e1f565b50600081806020019051810190612eb69190615aae565b9050808914612ef05760405162461bcd60e51b81526020600482015260066024820152654c424330363960d01b60448201526064016102c3565b60018401546001600160a01b03163314612f355760405162461bcd60e51b815260206004820152600660248201526509884866068760d31b60448201526064016102c3565b600a84015460975460405163fea8ba6360e01b8152600160501b90920461ffff16916001600160a01b0390911690635b6445879073__BtcUtils______________________________9063fea8ba6390612f93908e90600401614ecf565b602060405180830381865af4158015612fb0573d6000803e3d6000fd5b505050506040513d601f19601f82011682018060405250810190612fd49190615aae565b8a8a8a6040518563ffffffff1660e01b8152600401612ff69493929190615ac7565b602060405180830381865afa158015613013573d6000803e3d6000fd5b505050506040513d601f19601f820116820180604052508101906130379190615aae565b121561306e5760405162461bcd60e51b81526020600482015260066024820152654c424330343960d01b60448201526064016102c3565b8260008151811061308157613081615a60565b6020026020010151600001516402540be40061309d9190615b23565b6001600160401b0316846009015411156130e25760405162461bcd60e51b81526020600482015260066024820152654c424330363760d01b60448201526064016102c3565b600073__BtcUtils______________________________63c7ce85ac8560008151811061311157613111615a60565b602090810291909101810151015160a4546040516001600160e01b031960e085901b168152613147929160ff1690600401615b4e565b600060405180830381865af4158015613164573d6000803e3d6000fd5b505050506040513d6000823e601f3d908101601f1916820160405261318c9190810190615843565b90508080519060200120856008016040516131a79190615b72565b6040518091039020146131e55760405162461bcd60e51b81526020600482015260066024820152650988486606c760d31b60448201526064016102c3565b604080516102608101825286546001600160a01b039081168252600188015416602082015260028701805461349693899290840191613223906151b1565b80601f016020809104026020016040519081016040528092919081815260200182805461324f906151b1565b801561329c5780601f106132715761010080835404028352916020019161329c565b820191906000526020600020905b81548152906001019060200180831161327f57829003601f168201915b505050918352505060038201546001600160a01b031660208201526004820180546040909201916132cc906151b1565b80601f01602080910402602001604051908101604052809291908181526020018280546132f8906151b1565b80156133455780601f1061331a57610100808354040283529160200191613345565b820191906000526020600020905b81548152906001019060200180831161332857829003601f168201915b50505091835250506005820154602082015260068201546040820152600780830154900b6060820152600882018054608090920191613383906151b1565b80601f01602080910402602001604051908101604052809291908181526020018280546133af906151b1565b80156133fc5780601f106133d1576101008083540402835291602001916133fc565b820191906000526020600020905b8154815290600101906020018083116133df57829003601f168201915b505050918352505060098201546020820152600a82015463ffffffff8082166040840152600160201b82048116606084015261ffff600160401b830481166080850152600160501b83041660a0840152600160601b8204811660c0840152600160801b8204811660e0840152600160a01b90910416610100820152600b820154610120820152600c9091015461014090910152838a6144e8565b1561353957600685015460018601546001600160a01b03166000908152609a602052604081205490916134c891614211565b60018701546001600160a01b03166000908152609a60205260408120805492935083929091906134f990849061546e565b90915550506001860154604051600080516020615e598339815191529161352f916001600160a01b039091169084908790615481565b60405180910390a1505b6001850154600c860154600587015460098801546000936001600160a01b0316929161356491615671565b61356e9190615671565b604051600081818185875af1925050503d80600081146135aa576040519150601f19603f3d011682016040523d82523d6000602084013e6135af565b606091505b50509050806135e95760405162461bcd60e51b815260206004820152600660248201526504c42433035360d41b60448201526064016102c3565b6135f786600b01548c614288565b600083815260a66020526040812080546001600160a01b0319908116825560018201805490911690559061362e6002830182614727565b6003820180546001600160a01b031916905561364e600483016000614727565b600060058301819055600683018190556007830180546001600160401b031916905561367e906008840190614727565b50600060098201819055600a820180546001600160c01b0319169055600b8201819055600c90910181905583815260a760205260408082206001908101805460ff191690911790555184917fb781856ec73fd0dc39351043d1634ea22cd3277b0866ab93e7ec1801766bb38491a25050505050506136fc6001606555565b5050505050565b606060008060015b60a2548111613750576000818152609b6020526040902061372b9061469d565b1561373e578261373a816153b1565b9350505b80613748816153b1565b91505061370b565b506000826001600160401b0381111561376b5761376b614775565b6040519080825280602002602001820160405280156137a457816020015b6137916146e6565b8152602001906001900390816137895790505b5060009350905060015b60a2548111613a05576000818152609b6020526040902092506137d08361469d565b156139f3576040805160c0810182528454815260018501546001600160a01b0316602082015260028501805491928692908401919061380e906151b1565b80601f016020809104026020016040519081016040528092919081815260200182805461383a906151b1565b80156138875780601f1061385c57610100808354040283529160200191613887565b820191906000526020600020905b81548152906001019060200180831161386a57829003601f168201915b505050505081526020016003820180546138a0906151b1565b80601f01602080910402602001604051908101604052809291908181526020018280546138cc906151b1565b80156139195780601f106138ee57610100808354040283529160200191613919565b820191906000526020600020905b8154815290600101906020018083116138fc57829003601f168201915b5050509183525050600482015460ff1615156020820152600582018054604090920191613945906151b1565b80601f0160208091040260200160405190810160405280929190818152602001828054613971906151b1565b80156139be5780601f10613993576101008083540402835291602001916139be565b820191906000526020600020905b8154815290600101906020018083116139a157829003601f168201915b5050505050815250508285815181106139d9576139d9615a60565b602002602001018190525083806139ef906153b1565b9450505b806139fd816153b1565b9150506137ae565b509392505050565b613a156143d8565b6001600160a01b038116613a7a5760405162461bcd60e51b815260206004820152602660248201527f4f776e61626c653a206e6577206f776e657220697320746865207a65726f206160448201526564647265737360d01b60648201526084016102c3565b612b4881614437565b80516000906001600160a01b03163014613ac85760405162461bcd60e51b8152602060048201526006602482015265262121981a9b60d11b60448201526064016102c3565b60405163025018e760e31b815273__QuotesV2______________________________90631280c73890613aff908590600401615be8565b600060405180830381865af4158015613b1c573d6000803e3d6000fd5b505050506040513d6000823e601f3d908101601f19168201604052613b449190810190615843565b805190602001209050919050565b600260655403613ba45760405162461bcd60e51b815260206004820152601f60248201527f5265656e7472616e637947756172643a207265656e7472616e742063616c6c0060448201526064016102c3565b6002606555565b600081602001516001600160a01b0316306001600160a01b031614613bfb5760405162461bcd60e51b81526020600482015260066024820152654c424330353160d01b60448201526064016102c3565b6101008201516097546001600160a01b03918216911603613c475760405162461bcd60e51b8152602060048201526006602482015265262121981a9960d11b60448201526064016102c3565b81606001515160151480613c6057508160600151516021145b613c955760405162461bcd60e51b81526020600482015260066024820152654c424330353360d01b60448201526064016102c3565b8160a0015151601514613cd35760405162461bcd60e51b8152602060048201526006602482015265131090cc0d4d60d21b60448201526064016102c3565b609f548261026001518361024001518460c00151856101800151613cf79190615671565b613d019190615671565b613d0b9190615671565b1015613d425760405162461bcd60e51b81526020600482015260066024820152654c424330353560d01b60448201526064016102c3565b816101c0015163ffffffff16826101a0015163ffffffff16613d649190615d82565b6001600160401b031663ffffffff1015613da95760405162461bcd60e51b81526020600482015260066024820152654c424330373160d01b60448201526064016102c3565b60405162773b7960e01b815273__QuotesV2______________________________9062773b7990613aff908590600401615da2565b609754606086015160a08701516000848152609c602052604081205490936001600160a01b031692636adc013392899288928a92899230919063ffffffff1615801590613e40575060008b8152609c6020526040902054600160201b900460ff165b6040518963ffffffff1660e01b8152600401613e63989796959493929190615db5565b6020604051808303816000875af1158015613e82573d6000803e3d6000fd5b505050506040513d601f19601f82011682018060405250810190613ea69190615aae565b9695505050505050565b60008084138015613ef457508461026001518561024001518660c00151876101800151613edd9190615671565b613ee79190615671565b613ef19190615671565b84105b15613f0157506000611888565b60975460405163bd0c1fff60e01b8152600481018490526000916001600160a01b03169063bd0c1fff90602401600060405180830381865afa158015613f4b573d6000803e3d6000fd5b505050506040513d6000823e601f3d908101601f19168201604052613f739190810190615843565b90506000815111613fbd5760405162461bcd60e51b8152602060048201526014602482015273125b9d985b1a5908189b1bd8dac81a195a59da1d60621b60448201526064016102c3565b6040516328335c3f60e21b815260009073__BtcUtils______________________________9063a0cd70fc90613ff7908590600401614ecf565b602060405180830381865af4158015614014573d6000803e3d6000fd5b505050506040513d601f19601f820116820180604052508101906140389190615aae565b90506000876101c00151886101a0015161405291906158e9565b63ffffffff1690508082111561406e5760009350505050611888565b856000036140825760019350505050611888565b6097546102008901516000916001600160a01b03169063bd0c1fff906001906140af9061ffff168a615671565b6140b9919061546e565b6040518263ffffffff1660e01b81526004016140d791815260200190565b600060405180830381865afa1580156140f4573d6000803e3d6000fd5b505050506040513d6000823e601f3d908101601f1916820160405261411c9190810190615843565b905060008151116141585760405162461bcd60e51b81526020600482015260066024820152650988486606a760d31b60448201526064016102c3565b6040516328335c3f60e21b815260009073__BtcUtils______________________________9063a0cd70fc90614192908590600401614ecf565b602060405180830381865af41580156141af573d6000803e3d6000fd5b505050506040513d601f19601f820116820180604052508101906141d39190615aae565b9050896101e0015163ffffffff16816141ec9190615671565b88111561420157600195505050505050611888565b5060009998505050505050505050565b60008183106142205781614222565b825b9392505050565b6001600160a01b03821660009081526098602052604081208054839290614251908490615671565b90915550506040517f42cfb81a915ac5a674852db250bf722637bee705a267633b68cab3a2dde06f53906113529084908490615741565b81156143565760a9546040516000916001600160a01b03169084908381818185875af1925050503d80600081146142db576040519150601f19603f3d011682016040523d82523d6000602084013e6142e0565b606091505b505090508061431a5760405162461bcd60e51b8152602060048201526006602482015265131090cc0dcd60d21b60448201526064016102c3565b817f58e13ac0d5c8d27d14009841e72ac8b1858e2709c2c99af2075d9bb5f340ecfc8460405161434c91815260200190565b60405180910390a2505b5050565b6001600160a01b0381166000908152609a602052604081205415801590610a4e5750506001600160a01b03166000908152609d60205260409020541590565b6001600160a01b03811660009081526099602052604081205415801590610a4e5750506001600160a01b03166000908152609d60205260409020541590565b336143e161280f565b6001600160a01b031614611d7f5760405162461bcd60e51b815260206004820181905260248201527f4f776e61626c653a2063616c6c6572206973206e6f7420746865206f776e657260448201526064016102c3565b603380546001600160a01b038381166001600160a01b0319831681179093556040519116919082907f8be0079c531659141344cd1fd0a4f28419497f9722a3daafe3b4186f6b6457e090600090a35050565b6001600160a01b038216600090815260986020526040812080548392906144b190849061546e565b90915550506040517f8e51a4493a6f66c76e13fd9e3b754eafbfe21343c04508deb61be8ccc0064587906113529084908490615741565b6097546040516339cf1b2560e11b81526004810183905260009182916001600160a01b039091169063739e364a90602401600060405180830381865afa158015614536573d6000803e3d6000fd5b505050506040513d6000823e601f3d908101601f1916820160405261455e9190810190615843565b9050600081511161459a5760405162461bcd60e51b81526020600482015260066024820152654c424330353960d01b60448201526064016102c3565b6040516328335c3f60e21b815260009073__BtcUtils______________________________9063a0cd70fc906145d4908590600401614ecf565b602060405180830381865af41580156145f1573d6000803e3d6000fd5b505050506040513d601f19601f820116820180604052508101906146159190615aae565b60a3546101c0880151600088815260a7602052604090205492935090916146429163ffffffff1690615671565b61464c9190615671565b81111561465e57600192505050614222565b856101e0015163ffffffff16421180614681575085610200015163ffffffff1643115b1561469157600192505050614222565b50600095945050505050565b60018101546000906146b7906001600160a01b0316614399565b806146d4575060018201546146d4906001600160a01b031661435a565b8015610a4e5750506004015460ff1690565b6040518060c001604052806000815260200160006001600160a01b031681526020016060815260200160608152602001600015158152602001606081525090565b508054614733906151b1565b6000825580601f10614743575050565b601f016020900490600052602060002090810190612b4891905b80821115614771576000815560010161475d565b5090565b634e487b7160e01b600052604160045260246000fd5b60405161026081016001600160401b03811182821017156147ae576147ae614775565b60405290565b60405161028081016001600160401b03811182821017156147ae576147ae614775565b604051608081016001600160401b03811182821017156147ae576147ae614775565b604051601f8201601f191681016001600160401b038111828210171561482157614821614775565b604052919050565b60006001600160401b0382111561484257614842614775565b50601f01601f191660200190565b600082601f83011261486157600080fd5b813561487461486f82614829565b6147f9565b81815284602083860101111561488957600080fd5b816020850160208301376000918101602001919091529392505050565b600080604083850312156148b957600080fd5b82356001600160401b03808211156148d057600080fd5b6148dc86838701614850565b935060208501359150808211156148f257600080fd5b506148ff85828601614850565b9150509250929050565b6001600160a01b0381168114612b4857600080fd5b803561235181614909565b8035600781900b811461235157600080fd5b803563ffffffff8116811461235157600080fd5b803561ffff8116811461235157600080fd5b6000610260828403121561497457600080fd5b61497c61478b565b90506149878261491e565b81526149956020830161491e565b602082015260408201356001600160401b03808211156149b457600080fd5b6149c085838601614850565b60408401526149d16060850161491e565b606084015260808401359150808211156149ea57600080fd5b6149f685838601614850565b608084015260a084013560a084015260c084013560c0840152614a1b60e08501614929565b60e084015261010091508184013581811115614a3657600080fd5b614a4286828701614850565b83850152505050610120808301358183015250610140614a6381840161493b565b90820152610160614a7583820161493b565b90820152610180614a8783820161494f565b908201526101a0614a9983820161494f565b908201526101c0614aab83820161493b565b908201526101e0614abd83820161493b565b90820152610200614acf83820161493b565b9082015261022082810135908201526102409182013591810191909152919050565b600060208284031215614b0357600080fd5b81356001600160401b03811115614b1957600080fd5b61188884828501614961565b80356001600160601b03198116811461235157600080fd5b8015158114612b4857600080fd5b803561235181614b3d565b60006102808284031215614b6957600080fd5b614b716147b4565b9050614b7c82614b25565b8152614b8a6020830161491e565b6020820152614b9b6040830161491e565b604082015260608201356001600160401b0380821115614bba57600080fd5b614bc685838601614850565b6060840152614bd76080850161491e565b608084015260a0840135915080821115614bf057600080fd5b614bfc85838601614850565b60a084015260c084013560c084015260e084013560e08401526101009150614c2582850161491e565b8284015261012091508184013581811115614c3f57600080fd5b614c4b86828701614850565b83850152505050610140614c6081840161493b565b90820152610160614c72838201614929565b9082015261018082810135908201526101a0614c8f81840161493b565b908201526101c0614ca183820161493b565b908201526101e0614cb383820161493b565b90820152610200614cc583820161494f565b90820152610220614cd7838201614b4b565b9082015261024082810135908201526102609182013591810191909152919050565b600080600080600060a08688031215614d1157600080fd5b85356001600160401b0380821115614d2857600080fd5b614d3489838a01614b56565b96506020880135915080821115614d4a57600080fd5b614d5689838a01614850565b95506040880135915080821115614d6c57600080fd5b614d7889838a01614850565b94506060880135915080821115614d8e57600080fd5b50614d9b88828901614850565b95989497509295608001359392505050565b600060208284031215614dbf57600080fd5b5035919050565b60008060008060808587031215614ddc57600080fd5b84356001600160401b0380821115614df357600080fd5b614dff88838901614850565b95506020870135915080821115614e1557600080fd5b614e2188838901614850565b945060408701359150614e3382614b3d565b90925060608601359080821115614e4957600080fd5b50614e5687828801614850565b91505092959194509250565b600060208284031215614e7457600080fd5b813561422281614909565b60005b83811015614e9a578181015183820152602001614e82565b50506000910152565b60008151808452614ebb816020860160208601614e7f565b601f01601f19169290920160200192915050565b6020815260006142226020830184614ea3565b6001600160a01b03169052565b8051825260018060a01b0360208201511660208301526000604082015160c06040850152614f2060c0850182614ea3565b905060608301518482036060860152614f398282614ea3565b91505060808301511515608085015260a083015184820360a086015261125d8282614ea3565b6020815260006142226020830184614eef565b6001600160a01b0391909116815260200190565b60008060408385031215614f9957600080fd5b823591506020830135614fab81614b3d565b809150509250929050565b60008060408385031215614fc957600080fd5b82356001600160401b0380821115614fe057600080fd5b6148dc86838701614b56565b600060208284031215614ffe57600080fd5b81356001600160401b0381111561501457600080fd5b61188884828501614b56565b6000806040838503121561503357600080fd5b82356001600160401b038082111561504a57600080fd5b6148dc86838701614961565b60006001600160401b0382111561506f5761506f614775565b5060051b60200190565b600080600080600060a0868803121561509157600080fd5b853594506020808701356001600160401b03808211156150b057600080fd5b6150bc8a838b01614850565b9650604089013595506060890135945060808901359150808211156150e057600080fd5b508701601f810189136150f257600080fd5b803561510061486f82615056565b81815260059190911b8201830190838101908b83111561511f57600080fd5b928401925b8284101561513d57833582529284019290840190615124565b80955050505050509295509295909350565b6000602080830181845280855180835260408601915060408160051b870101925083870160005b828110156151a457603f19888603018452615192858351614eef565b94509285019290850190600101615176565b5092979650505050505050565b600181811c908216806151c557607f821691505b6020821081036151e557634e487b7160e01b600052602260045260246000fd5b50919050565b601f82111561523557600081815260208120601f850160051c810160208610156152125750805b601f850160051c820191505b818110156152315782815560010161521e565b5050505b505050565b81516001600160401b0381111561525357615253614775565b6152678161526184546151b1565b846151eb565b602080601f83116001811461529c57600084156152845750858301515b600019600386901b1c1916600185901b178555615231565b600085815260208120601f198616915b828110156152cb578886015182559484019460019091019084016152ac565b50858210156152e95787850151600019600388901b60f8161c191681555b5050505050600190811b01905550565b60008154615306816151b1565b808552602060018381168015615323576001811461533d5761536b565b60ff1985168884015283151560051b88018301955061536b565b866000528260002060005b858110156153635781548a8201860152908301908401615348565b890184019650505b505050505092915050565b60408152600061538960408301856152f9565b828103602084015261125d81856152f9565b634e487b7160e01b600052601160045260246000fd5b6000600182016153c3576153c361539b565b5060010190565b6020808252600690820152654c424330303160d01b604082015260600190565b60208082526006908201526509884866064760d31b604082015260600190565b60018060a01b038416815282602082015260606040820152600061125d6060830184614ea3565b60006020828403121561544357600080fd5b815161422281614b3d565b6020808252600690820152654c424330323960d01b604082015260600190565b81810381811115610a4e57610a4e61539b565b6001600160a01b039390931683526020830191909152604082015260600190565b8082028115828204841417610a4e57610a4e61539b565b634e487b7160e01b600052601260045260246000fd5b6000826154de576154de6154b9565b500490565b80516001600160601b0319168252600061028060208301516155086020860182614ee2565b50604083015161551b6040860182614ee2565b50606083015181606086015261553382860182614ea3565b91505060808301516155486080860182614ee2565b5060a083015184820360a08601526155608282614ea3565b91505060c083015160c085015260e083015160e08501526101008084015161558a82870182614ee2565b505061012080840151858303828701526155a48382614ea3565b92505050610140808401516155c08287018263ffffffff169052565b5050610160808401516155d78287018260070b9052565b505061018083810151908501526101a08084015163ffffffff908116918601919091526101c0808501518216908601526101e080850151909116908501526102008084015161ffff16908501526102208084015115159085015261024080840151908501526102609283015192909301919091525090565b60408152600061566260408301856154e3565b90508260208301529392505050565b80820180821115610a4e57610a4e61539b565b6001600160a01b03949094168452602084019290925215156040830152606082015260800190565b600082516156be818460208701614e7f565b9190910192915050565b63ffffffff8616815284602082015260a0604082015260006156ed60a0830186614ea3565b931515606083015250608001529392505050565b6020808252600690820152654c424330313960d01b604082015260600190565b60208082526006908201526504c42433032360d41b604082015260600190565b6001600160a01b03929092168252602082015260400190565b643832b3b4b760d91b815260050190565b651c1959dbdd5d60d21b815260060190565b60208082526006908201526509884866060760d31b604082015260600190565b6000826157ac576157ac6154b9565b500690565b848152600084516157c9816020850160208901614e7f565b808301905060018060601b03198516602082015283516157f0816034840160208801614e7f565b016034019695505050505050565b600082601f83011261580f57600080fd5b815161581d61486f82614829565b81815284602083860101111561583257600080fd5b611888826020830160208701614e7f565b60006020828403121561585557600080fd5b81516001600160401b0381111561586b57600080fd5b611888848285016157fe565b600160fd1b8152826001820152607560f81b6021820152600082516158a3816022850160208701614e7f565b919091016022019392505050565b6060815260006158c46060830186614ea3565b82810360208401526158d68186614ea3565b9150508215156040830152949350505050565b63ffffffff8181168382160190808211156159065761590661539b565b5092915050565b602080825260069082015265131090cc0d8d60d21b604082015260600190565b602080825260069082015265262121981a1960d11b604082015260600190565b6000602080838503121561596057600080fd5b82516001600160401b038082111561597757600080fd5b818501915085601f83011261598b57600080fd5b815161599961486f82615056565b81815260059190911b830184019084810190888311156159b857600080fd5b8585015b83811015615a53578051858111156159d45760008081fd5b86016080818c03601f19018113156159ec5760008081fd5b6159f46147d7565b898301518881168114615a075760008081fd5b815260408381015189811115615a1d5760008081fd5b615a2b8f8d838801016157fe565b838d0152506060848101519183019190915291909201519082015283529186019186016159bc565b5098975050505050505050565b634e487b7160e01b600052603260045260246000fd5b60ff8181168382160190811115610a4e57610a4e61539b565b600060ff821660ff8103615aa557615aa561539b565b60010192915050565b600060208284031215615ac057600080fd5b5051919050565b600060808201868352602086818501528560408501526080606085015281855180845260a086019150828701935060005b81811015615b1457845183529383019391830191600101615af8565b50909998505050505050505050565b6001600160401b03818116838216028082169190828114615b4657615b4661539b565b505092915050565b604081526000615b616040830185614ea3565b905082151560208301529392505050565b6000808354615b80816151b1565b60018281168015615b985760018114615bad57615bdc565b60ff1984168752821515830287019450615bdc565b8760005260208060002060005b85811015615bd35781548a820152908401908201615bba565b50505082870194505b50929695505050505050565b60208152615bfa602082018351614ee2565b60006020830151615c0e6040840182614ee2565b506040830151610260806060850152615c2b610280850183614ea3565b91506060850151615c3f6080860182614ee2565b506080850151601f19808685030160a0870152615c5c8483614ea3565b935060a087015160c087015260c087015160e087015260e08701519150610100615c8a8188018460070b9052565b80880151925050610120818786030181880152615ca78584614ea3565b908801516101408881019190915288015190945091506101609050615cd38187018363ffffffff169052565b8601519050610180615cec8682018363ffffffff169052565b86015190506101a0615d038682018361ffff169052565b86015190506101c0615d1a8682018361ffff169052565b86015190506101e0615d338682018363ffffffff169052565b8601519050610200615d4c8682018363ffffffff169052565b8601519050610220615d658682018363ffffffff169052565b860151610240868101919091529095015193019290925250919050565b6001600160401b038181168382160190808211156159065761590661539b565b60208152600061422260208301846154e3565b6000610100808352615dc98184018c614ea3565b90508960208401528281036040840152615de3818a614ea3565b90508760608401528281036080840152615dfd8188614ea3565b6001600160a01b03871660a085015283810360c08501529050615e208186614ea3565b91505082151560e0830152999850505050505050505056fe3052ea2f7e0d74fdc1c1e1f858ff1ae3d91ab1609717c3efedb95db603b255f69685484093cc596fdaeab51abf645b1753dbb7d869bfd2eb21e2c646e47a36f4bfc7404e6fe464f0646fe2c6ab942b92d56be722bb39f8c6bc4830d2d32fb80da264697066735822122045895a3be285bd045fddc296f643d09a259fc5b4f735729bb8dabb849f69249a64736f6c63430008120033",
  "immutableReferences": {},
  "source": "// SPDX-License-Identifier: MIT\npragma solidity ^0.8.18;\npragma experimental ABIEncoderV2;\n\nimport \"./Bridge.sol\";\nimport \"./QuotesV2.sol\";\nimport \"./SignatureValidator.sol\";\nimport \"@rsksmart/btc-transaction-solidity-helper/contracts/BtcUtils.sol\";\nimport \"@openzeppelin/contracts-upgradeable/access/OwnableUpgradeable.sol\";\nimport \"@openzeppelin/contracts-upgradeable/security/ReentrancyGuardUpgradeable.sol\";\n\n/**\n    @title Contract that assists with the Flyover protocol\n */\n\ncontract LiquidityBridgeContractV2 is Initializable, OwnableUpgradeable, ReentrancyGuardUpgradeable {\n    uint16 constant public MAX_CALL_GAS_COST = 35000;\n    uint16 constant public MAX_REFUND_GAS_LIMIT = 2300;\n\n    uint8 constant public UNPROCESSED_QUOTE_CODE = 0;\n    uint8 constant public CALL_DONE_CODE = 1;\n    uint8 constant public PROCESSED_QUOTE_CODE = 2;\n\n    int16 constant public BRIDGE_REFUNDED_USER_ERROR_CODE = - 100;\n    int16 constant public BRIDGE_REFUNDED_LP_ERROR_CODE = - 200;\n    int16 constant public BRIDGE_UNPROCESSABLE_TX_NOT_CONTRACT_ERROR_CODE = - 300;\n    int16 constant public BRIDGE_UNPROCESSABLE_TX_INVALID_SENDER_ERROR_CODE = - 301;\n    int16 constant public BRIDGE_UNPROCESSABLE_TX_ALREADY_PROCESSED_ERROR_CODE = - 302;\n    int16 constant public BRIDGE_UNPROCESSABLE_TX_VALIDATIONS_ERROR = - 303;\n    int16 constant public BRIDGE_UNPROCESSABLE_TX_VALUE_ZERO_ERROR = - 304;\n    int16 constant public BRIDGE_UNPROCESSABLE_TX_UTXO_AMOUNT_SENT_BELOW_MINIMUM_ERROR =\n    - 305;\n    int16 constant public BRIDGE_GENERIC_ERROR = - 900;\n    uint constant public PAY_TO_ADDRESS_OUTPUT = 0;\n    uint constant public QUOTE_HASH_OUTPUT = 1;\n\n    struct Registry {\n        uint32 timestamp;\n        bool success;\n    }\n\n    struct PegoutRecord {\n        uint256 depositTimestamp;\n        bool completed;\n    }\n\n    struct LiquidityProvider {\n        uint id;\n        address provider;\n        string name;\n        string apiBaseUrl;\n        bool status;\n        string providerType;\n    }\n\n    event Register(uint id, address indexed from, uint256 amount);\n    event CollateralIncrease(address from, uint256 amount);\n    event PegoutCollateralIncrease(address from, uint256 amount);\n    event Withdrawal(address from, uint256 amount);\n    event WithdrawCollateral(address from, uint256 amount);\n    event Resigned(address from);\n    event CallForUser(\n        address indexed from,\n        address indexed dest,\n        uint gasLimit,\n        uint value,\n        bytes data,\n        bool success,\n        bytes32 quoteHash\n    );\n    event PegInRegistered(bytes32 indexed quoteHash, int256 transferredAmount);\n    event Penalized(address liquidityProvider, uint penalty, bytes32 quoteHash);\n    event BridgeCapExceeded(bytes32 quoteHash, int256 errorCode);\n    event BalanceIncrease(address dest, uint amount);\n    event BalanceDecrease(address dest, uint amount);\n    event Refund(address dest, uint amount, bool success, bytes32 quoteHash);\n    event PegOutRefunded(bytes32 indexed quoteHash);\n    event PegOutDeposit(\n        bytes32 indexed quoteHash,\n        address indexed sender,\n        uint256 amount,\n        uint256 timestamp\n    );\n    event PegOutUserRefunded(\n        bytes32 indexed quoteHash,\n        uint256 value,\n        address userAddress\n    );\n    event DaoFeeSent(bytes32 indexed quoteHash, uint256 amount);\n    event ProviderUpdate(address indexed providerAddress, string name, string url);\n\n    Bridge public bridge;\n    mapping(address => uint256) private balances;\n    mapping(address => uint256) private collateral;\n    mapping(address => uint256) private pegoutCollateral;\n    mapping(uint => LiquidityProvider) private liquidityProviders;\n    mapping(bytes32 => Registry) private callRegistry;\n    mapping(address => uint256) private resignationBlockNum;\n\n    uint256 private minCollateral;\n    uint256 private minPegIn;\n\n    uint32 private rewardP;\n    uint32 private resignDelayInBlocks;\n    uint private dust;\n    uint public providerId;\n\n    uint private btcBlockTime;\n    bool private mainnet;\n\n    mapping(bytes32 => uint8) private processedQuotes;\n    mapping(bytes32 => QuotesV2.PegOutQuote) private registeredPegoutQuotes;\n    mapping(bytes32 => PegoutRecord) private pegoutRegistry;\n\n    uint256 public productFeePercentage;\n    address public daoFeeCollectorAddress;\n\n    modifier onlyRegistered() {\n        require(isRegistered(msg.sender), \"LBC001\");\n        _;\n    }\n\n    modifier onlyRegisteredForPegout() {\n        require(isRegisteredForPegout(msg.sender), \"LBC001\");\n        _;\n    }\n\n    modifier onlyOwnerAndProvider(uint _providerId) {\n        require(\n            msg.sender == owner() ||\n            msg.sender == liquidityProviders[_providerId].provider,\n            \"LBC005\"\n        );\n        _;\n    }\n\n    function setProviderStatus(\n        uint _providerId,\n        bool status\n    ) external onlyOwnerAndProvider(_providerId) {\n        liquidityProviders[_providerId].status = status;\n    }\n\n    receive() external payable {\n        require(msg.sender == address(bridge), \"LBC007\");\n    }\n\n    function version() external pure returns (string memory) {\n        return \"1.3.0\";\n    }\n\n    function getProviderIds() external view returns (uint) {\n        return providerId;\n    }\n\n    function getBridgeAddress() external view returns (address) {\n        return address(bridge);\n    }\n\n    function getMinCollateral() public view returns (uint) {\n        return minCollateral;\n    }\n\n    function getMinPegIn() external view returns (uint) {\n        return minPegIn;\n    }\n\n    function getRewardPercentage() external view returns (uint) {\n        return rewardP;\n    }\n\n    function getResignDelayBlocks() external view returns (uint) {\n        return resignDelayInBlocks;\n    }\n\n    function getDustThreshold() external view returns (uint) {\n        return dust;\n    }\n\n    function isPegOutQuoteCompleted(bytes32 quoteHash) external view returns (bool) {\n        return pegoutRegistry[quoteHash].completed;\n    }\n\n    /**\n        @dev Checks whether a liquidity provider can deliver a pegin service\n        @return Whether the liquidity provider is registered and has enough locked collateral\n     */\n    function isOperational(address addr) external view returns (bool) {\n        return isRegistered(addr) && collateral[addr] >= minCollateral;\n    }\n\n    /**\n        @dev Checks whether a liquidity provider can deliver a pegout service\n        @return Whether the liquidity provider is registered and has enough locked collateral\n     */\n    function isOperationalForPegout(address addr) external view returns (bool) {\n        return\n            isRegisteredForPegout(addr) &&\n            pegoutCollateral[addr] >= minCollateral;\n    }\n\n    /**\n        @dev Registers msg.sender as a liquidity provider with msg.value as collateral\n     */\n    function register(\n        string memory _name,\n        string memory _apiBaseUrl,\n        bool _status,\n        string memory _providerType\n    ) external payable returns (uint) {\n        require(tx.origin == msg.sender, \"LBC003\");\n        //require(collateral[msg.sender] == 0, \"Already registered\");\n        require(bytes(_name).length > 0, \"LBC010\");\n        require(\n            bytes(_apiBaseUrl).length > 0,\n            \"LBC017\"\n        );\n\n        // Check if _providerType is one of the valid strings\n        require(\n            keccak256(abi.encodePacked(_providerType)) ==\n            keccak256(abi.encodePacked(\"pegin\")) ||\n            keccak256(abi.encodePacked(_providerType)) ==\n            keccak256(abi.encodePacked(\"pegout\")) ||\n            keccak256(abi.encodePacked(_providerType)) ==\n            keccak256(abi.encodePacked(\"both\")),\n            \"LBC018\"\n        );\n\n        require(collateral[msg.sender] == 0 && pegoutCollateral[msg.sender] == 0, \"LBC070\");\n        require(\n            resignationBlockNum[msg.sender] == 0,\n            \"LBC009\"\n        );\n\n        if (keccak256(abi.encodePacked(_providerType)) == keccak256(abi.encodePacked(\"pegin\"))) {\n            require(msg.value >= minCollateral, \"LBC008\");\n            collateral[msg.sender] = msg.value;\n        } else if (keccak256(abi.encodePacked(_providerType)) == keccak256(abi.encodePacked(\"pegout\"))) {\n            require(msg.value >= minCollateral, \"LBC008\");\n            pegoutCollateral[msg.sender] = msg.value;\n        } else {\n            require(msg.value >= minCollateral * 2, \"LBC008\");\n            uint halfMsgValue = msg.value / 2;\n            collateral[msg.sender] = msg.value % 2 == 0 ? halfMsgValue : halfMsgValue + 1;\n            pegoutCollateral[msg.sender] = halfMsgValue;\n        }\n\n        providerId++;\n        liquidityProviders[providerId] = LiquidityProvider({\n            id: providerId,\n            provider: msg.sender,\n            name: _name,\n            apiBaseUrl: _apiBaseUrl,\n            status: _status,\n            providerType: _providerType\n        });\n        emit Register(providerId, msg.sender, msg.value);\n        return (providerId);\n    }\n\n    function getProviders() external view returns (LiquidityProvider[] memory) {\n        uint count = 0;\n        LiquidityProvider storage lp;\n        for (uint i = 1; i <= providerId; i++) {\n            if (shouldBeListed(liquidityProviders[i])) {\n                count++;\n            }\n        }\n        LiquidityProvider[] memory providersToReturn = new LiquidityProvider[](count);\n        count = 0;\n        for (uint i = 1; i <= providerId; i++) {\n            lp = liquidityProviders[i];\n            if (shouldBeListed(lp)) {\n                providersToReturn[count] = lp;\n                count++;\n            }\n        }\n        return providersToReturn;\n    }\n\n    function getProvider(address providerAddress) public view returns (LiquidityProvider memory) {\n        for (uint i = 1; i <= providerId; i++) {\n            if (liquidityProviders[i].provider == providerAddress) {\n                return liquidityProviders[i];\n            }\n        }\n        revert(\"LBC001\");\n    }\n\n    function shouldBeListed(LiquidityProvider storage lp) private view returns(bool){\n        return (isRegistered(lp.provider) || isRegisteredForPegout(lp.provider)) && lp.status;\n    }\n\n    /**\n        @dev Increases the amount of collateral of the sender\n     */\n    function addCollateral() external payable onlyRegistered {\n        collateral[msg.sender] += msg.value;\n        emit CollateralIncrease(msg.sender, msg.value);\n    }\n\n    function addPegoutCollateral() external payable onlyRegisteredForPegout {\n        pegoutCollateral[msg.sender] += msg.value;\n        emit PegoutCollateralIncrease(msg.sender, msg.value);\n    }\n\n    /**\n        @dev Increases the balance of the sender\n     */\n    function deposit() external payable onlyRegistered {\n        increaseBalance(msg.sender, msg.value);\n    }\n\n    /**\n        @dev Used to withdraw funds\n        @param amount The amount to withdraw\n     */\n    function withdraw(uint256 amount) external {\n        require(balances[msg.sender] >= amount, \"LBC019\");\n        balances[msg.sender] -= amount;\n        (bool success,) = msg.sender.call{value: amount}(\"\");\n        require(success, \"LBC020\");\n        emit Withdrawal(msg.sender, amount);\n    }\n\n    /**\n        @dev Used to withdraw the locked collateral\n     */\n    function withdrawCollateral() external nonReentrant {\n        require(resignationBlockNum[msg.sender] > 0, \"LBC021\");\n        require(\n            block.number - resignationBlockNum[msg.sender] >=\n            resignDelayInBlocks,\n            \"LBC022\"\n        );\n        uint amount = collateral[msg.sender] + pegoutCollateral[msg.sender];\n        pegoutCollateral[msg.sender] = 0;\n        collateral[msg.sender] = 0;\n        resignationBlockNum[msg.sender] = 0;\n        (bool success,) = msg.sender.call{value: amount}(\"\");\n        require(success, \"LBC020\");\n        emit WithdrawCollateral(msg.sender, amount);\n    }\n\n    /**\n        @dev Used to resign as a liquidity provider\n     */\n    function resign() external onlyRegistered {\n        require(resignationBlockNum[msg.sender] == 0, \"LBC023\");\n        resignationBlockNum[msg.sender] = block.number;\n        emit Resigned(msg.sender);\n    }\n\n    /**\n        @dev Returns the amount of collateral of a liquidity provider\n        @param addr The address of the liquidity provider\n        @return The amount of locked collateral\n     */\n    function getCollateral(address addr) external view returns (uint256) {\n        return collateral[addr];\n    }\n\n    function getPegoutCollateral(address addr) external view returns (uint256) {\n        return pegoutCollateral[addr];\n    }\n\n    /**\n        @dev Returns the amount of funds of a liquidity provider\n        @param addr The address of the liquidity provider\n        @return The balance of the liquidity provider\n     */\n    function getBalance(address addr) external view returns (uint256) {\n        return balances[addr];\n    }\n\n    /**\n        @dev Performs a call on behalf of a user\n        @param quote The quote that identifies the service\n        @return Boolean indicating whether the call was successful\n     */\n    function callForUser(\n        QuotesV2.PeginQuote memory quote\n    ) external payable onlyRegistered nonReentrant returns (bool) {\n        require(\n            msg.sender == quote.liquidityProviderRskAddress,\n            \"LBC024\"\n        );\n        require(\n            balances[quote.liquidityProviderRskAddress] + msg.value >=\n            quote.value,\n            \"LBC019\"\n        );\n\n        bytes32 quoteHash = validateAndHashQuote(quote);\n        require(\n            processedQuotes[quoteHash] == UNPROCESSED_QUOTE_CODE,\n            \"LBC025\"\n        );\n\n        increaseBalance(quote.liquidityProviderRskAddress, msg.value);\n\n        // This check ensures that the call cannot be performed with less gas than the agreed amount\n        require(\n            gasleft() >= quote.gasLimit + MAX_CALL_GAS_COST,\n            \"LBC026\"\n        );\n        (bool success,) = quote.contractAddress.call{\n                gas: quote.gasLimit,\n                value: quote.value\n            }(quote.data);\n\n        require(block.timestamp <= type(uint32).max, \"LBC027\");\n        callRegistry[quoteHash].timestamp = uint32(block.timestamp);\n\n        if (success) {\n            callRegistry[quoteHash].success = true;\n            decreaseBalance(quote.liquidityProviderRskAddress, quote.value);\n        }\n        emit CallForUser(\n            msg.sender,\n            quote.contractAddress,\n            quote.gasLimit,\n            quote.value,\n            quote.data,\n            success,\n            quoteHash\n        );\n        processedQuotes[quoteHash] = CALL_DONE_CODE;\n        return success;\n    }\n\n    /**\n        @dev Registers a peg-in transaction with the bridge and pays to the involved parties\n        @param quote The quote of the service\n        @param signature The signature of the quote\n        @param btcRawTransaction The peg-in transaction\n        @param partialMerkleTree The merkle tree path that proves transaction inclusion\n        @param height The block that contains the peg-in transaction\n        @return The total peg-in amount received from the bridge contract or an error code\n     */\n    function registerPegIn(\n        QuotesV2.PeginQuote memory quote,\n        bytes memory signature,\n        bytes memory btcRawTransaction,\n        bytes memory partialMerkleTree,\n        uint256 height\n    ) external nonReentrant returns (int256) {\n        bytes32 quoteHash = validateAndHashQuote(quote);\n\n        // TODO: allow multiple registerPegIns for the same quote with different transactions\n        require(\n            processedQuotes[quoteHash] <= CALL_DONE_CODE,\n            \"LBC028\"\n        );\n        require(\n            SignatureValidator.verify(\n                quote.liquidityProviderRskAddress,\n                quoteHash,\n                signature\n            ),\n            \"LBC029\"\n        );\n        require(height < uint256(int256(type(int32).max)), \"LBC030\");\n\n        int256 transferredAmountOrErrorCode = registerBridge(\n            quote,\n            btcRawTransaction,\n            partialMerkleTree,\n            height,\n            quoteHash\n        );\n\n        require(\n            transferredAmountOrErrorCode !=\n            BRIDGE_UNPROCESSABLE_TX_VALIDATIONS_ERROR,\n            \"LBC031\"\n        );\n        require(\n            transferredAmountOrErrorCode !=\n            BRIDGE_UNPROCESSABLE_TX_ALREADY_PROCESSED_ERROR_CODE,\n            \"LBC032\"\n        );\n        require(\n            transferredAmountOrErrorCode !=\n            BRIDGE_UNPROCESSABLE_TX_VALUE_ZERO_ERROR,\n            \"LBC033\"\n        );\n        require(\n            transferredAmountOrErrorCode !=\n            BRIDGE_UNPROCESSABLE_TX_UTXO_AMOUNT_SENT_BELOW_MINIMUM_ERROR,\n            \"LBC034\"\n        );\n        require(\n            transferredAmountOrErrorCode != BRIDGE_GENERIC_ERROR,\n            \"LBC035\"\n        );\n        require(\n            transferredAmountOrErrorCode > 0 ||\n            transferredAmountOrErrorCode == BRIDGE_REFUNDED_LP_ERROR_CODE ||\n            transferredAmountOrErrorCode == BRIDGE_REFUNDED_USER_ERROR_CODE,\n            \"LBC036\"\n        );\n\n        if (\n            shouldPenalizeLP(\n            quote,\n            transferredAmountOrErrorCode,\n            callRegistry[quoteHash].timestamp,\n            height\n        )\n        ) {\n            uint penalizationAmount = min(\n                quote.penaltyFee,\n                collateral[quote.liquidityProviderRskAddress]\n            ); // prevent underflow when collateral is less than penalty fee.\n            collateral[quote.liquidityProviderRskAddress] -= penalizationAmount;\n            emit Penalized(\n                quote.liquidityProviderRskAddress,\n                penalizationAmount,\n                quoteHash\n            );\n\n            // pay reward to sender\n            uint256 punisherReward = (penalizationAmount * rewardP) / 100;\n            increaseBalance(msg.sender, punisherReward);\n        }\n\n        if (\n            transferredAmountOrErrorCode == BRIDGE_REFUNDED_LP_ERROR_CODE ||\n            transferredAmountOrErrorCode == BRIDGE_REFUNDED_USER_ERROR_CODE\n        ) {\n            // Bridge cap exceeded\n            processedQuotes[quoteHash] = PROCESSED_QUOTE_CODE;\n            delete callRegistry[quoteHash];\n            emit BridgeCapExceeded(quoteHash, transferredAmountOrErrorCode);\n            return transferredAmountOrErrorCode;\n        }\n\n        // the amount is safely assumed positive because it's already been\n        // validated in lines 287/298 there's no (negative) error code being returned by the bridge.\n        uint transferredAmount = uint(transferredAmountOrErrorCode);\n\n        QuotesV2.checkAgreedAmount(quote, transferredAmount);\n\n        if (callRegistry[quoteHash].timestamp > 0) {\n            uint refundAmount;\n\n            if (callRegistry[quoteHash].success) {\n                refundAmount = min(\n                    transferredAmount,\n                    quote.value + quote.callFee + quote.gasFee\n                );\n            } else {\n                refundAmount = min(transferredAmount, quote.callFee + quote.gasFee);\n            }\n            increaseBalance(quote.liquidityProviderRskAddress, refundAmount);\n\n            uint remainingAmount = transferredAmount - refundAmount;\n            payToFeeCollector(quote.productFeeAmount, quoteHash);\n\n            if (remainingAmount > dust) {\n                // refund rskRefundAddress, if remaining amount greater than dust\n                (bool success,) = quote.rskRefundAddress.call{\n                        gas: MAX_REFUND_GAS_LIMIT,\n                        value: remainingAmount\n                    }(\"\");\n                emit Refund(\n                    quote.rskRefundAddress,\n                    remainingAmount,\n                    success,\n                    quoteHash\n                );\n\n                if (!success) {\n                    // transfer funds to LP instead, if for some reason transfer to rskRefundAddress was unsuccessful\n                    increaseBalance(\n                        quote.liquidityProviderRskAddress,\n                        remainingAmount\n                    );\n                }\n            }\n        } else {\n            uint refundAmount = transferredAmount;\n\n            if (quote.callOnRegister && refundAmount >= quote.value) {\n                (bool callSuccess,) = quote.contractAddress.call{\n                        gas: quote.gasLimit,\n                        value: quote.value\n                    }(quote.data);\n                emit CallForUser(\n                    msg.sender,\n                    quote.contractAddress,\n                    quote.gasLimit,\n                    quote.value,\n                    quote.data,\n                    callSuccess,\n                    quoteHash\n                );\n\n                if (callSuccess) {\n                    refundAmount -= quote.value;\n                }\n            }\n            if (refundAmount > dust) {\n                // refund rskRefundAddress, if refund amount greater than dust\n                (bool success,) = quote.rskRefundAddress.call{\n                        gas: MAX_REFUND_GAS_LIMIT,\n                        value: refundAmount\n                    }(\"\");\n                emit Refund(\n                    quote.rskRefundAddress,\n                    refundAmount,\n                    success,\n                    quoteHash\n                );\n            }\n        }\n        processedQuotes[quoteHash] = PROCESSED_QUOTE_CODE;\n        delete callRegistry[quoteHash];\n        emit PegInRegistered(quoteHash, transferredAmountOrErrorCode);\n        return transferredAmountOrErrorCode;\n    }\n\n    function depositPegout( // TODO convert to calldata when contract size issues are fixed\n        QuotesV2.PegOutQuote memory quote,\n        bytes memory signature\n    ) external payable {\n        require(isRegisteredForPegout(quote.lpRskAddress), \"LBC037\");\n        require(quote.value + quote.callFee + quote.productFeeAmount + quote.gasFee <= msg.value, \"LBC063\");\n        require(block.timestamp <= quote.depositDateLimit, \"LBC065\");\n        require(block.timestamp <= quote.expireDate, \"LBC046\");\n        require(block.number <= quote.expireBlock, \"LBC047\");\n        bytes32 quoteHash = hashPegoutQuote(quote);\n        require(\n            SignatureValidator.verify(quote.lpRskAddress, quoteHash, signature),\n            \"LBC029\"\n        );\n\n        QuotesV2.PegOutQuote storage registeredQuote = registeredPegoutQuotes[quoteHash];\n\n        require(pegoutRegistry[quoteHash].completed == false, \"LBC064\");\n        require(registeredQuote.lbcAddress == address(0), \"LBC028\");\n        registeredPegoutQuotes[quoteHash] = quote;\n        pegoutRegistry[quoteHash].depositTimestamp = block.timestamp;\n        emit PegOutDeposit(quoteHash, msg.sender, msg.value, block.timestamp);\n    }\n\n    function refundUserPegOut(\n        bytes32 quoteHash\n    ) external nonReentrant {\n        QuotesV2.PegOutQuote storage quote = registeredPegoutQuotes[quoteHash];\n\n        require(quote.lbcAddress != address(0), \"LBC042\");\n        require(\n            block.timestamp > quote.expireDate &&\n            block.number > quote.expireBlock,\n            \"LBC041\"\n        );\n\n        uint valueToTransfer = quote.value + quote.callFee + quote.productFeeAmount + quote.gasFee;\n        address addressToTransfer = quote.rskRefundAddress;\n\n        uint penalty = min(quote.penaltyFee, pegoutCollateral[quote.lpRskAddress]);\n        pegoutCollateral[quote.lpRskAddress] -= penalty;\n\n        emit Penalized(quote.lpRskAddress, penalty, quoteHash);\n        emit PegOutUserRefunded(\n            quoteHash,\n            valueToTransfer,\n            quote.rskRefundAddress\n        );\n\n        delete registeredPegoutQuotes[quoteHash];\n        pegoutRegistry[quoteHash].completed = true;\n\n        (bool sent,) = addressToTransfer.call{value: valueToTransfer}(\"\");\n        require(sent, \"LBC044\");\n    }\n\n    function refundPegOut(\n        bytes32 quoteHash,\n        bytes memory btcTx,\n        bytes32 btcBlockHeaderHash,\n        uint256 partialMerkleTree,\n        bytes32[] memory merkleBranchHashes\n    ) external nonReentrant onlyRegisteredForPegout {\n        require(pegoutRegistry[quoteHash].completed == false, \"LBC064\");\n        QuotesV2.PegOutQuote storage quote = registeredPegoutQuotes[quoteHash];\n        require(quote.lbcAddress != address(0), \"LBC042\");\n        BtcUtils.TxRawOutput[] memory outputs = BtcUtils.getOutputs(btcTx);\n        bytes memory scriptContent = BtcUtils.parseNullDataScript(outputs[QUOTE_HASH_OUTPUT].pkScript);\n        require(scriptContent.length == 33 && scriptContent[0] == 0x20, \"LBC075\");\n        // shift the array to remove the first byte (the size)\n        for (uint8 i = 0 ; i < scriptContent.length - 1; i++) {\n            scriptContent[i] = scriptContent[i + 1];\n        }\n        bytes32 txQuoteHash = abi.decode(scriptContent, (bytes32));\n        require(quoteHash == txQuoteHash, \"LBC069\");\n        require(msg.sender == quote.lpRskAddress, \"LBC048\");\n        require(\n            bridge.getBtcTransactionConfirmations(\n                BtcUtils.hashBtcTx(btcTx),\n                btcBlockHeaderHash,\n                partialMerkleTree,\n                merkleBranchHashes\n            ) >= int(uint256(quote.transferConfirmations)),\n            \"LBC049\"\n        );\n        require(quote.value <= outputs[PAY_TO_ADDRESS_OUTPUT].value * (10**10), \"LBC067\"); // satoshi to wei\n        bytes memory btcTxDestination = BtcUtils.outputScriptToAddress(\n            outputs[PAY_TO_ADDRESS_OUTPUT].pkScript,\n            mainnet\n        );\n        require(keccak256(quote.deposityAddress) == keccak256(btcTxDestination), \"LBC068\");\n\n        if (\n            shouldPenalizePegOutLP(\n            quote,\n            txQuoteHash,\n            btcBlockHeaderHash\n        )\n        ) {\n            uint penalty = min(\n                quote.penaltyFee,\n                pegoutCollateral[quote.lpRskAddress]\n            );\n            pegoutCollateral[quote.lpRskAddress] -= penalty;\n            emit Penalized(quote.lpRskAddress, penalty, txQuoteHash);\n        }\n\n        (bool sent,) = quote.lpRskAddress.call{\n                value: quote.value + quote.callFee + quote.gasFee\n            }(\"\");\n        require(sent, \"LBC050\");\n\n        payToFeeCollector(quote.productFeeAmount, quoteHash);\n\n        delete registeredPegoutQuotes[txQuoteHash];\n        pegoutRegistry[txQuoteHash].completed = true;\n        emit PegOutRefunded(txQuoteHash);\n    }\n\n    function validatePeginDepositAddress(\n        QuotesV2.PeginQuote memory quote,\n        bytes memory depositAddress\n    ) external view returns (bool) {\n        bytes32 derivationValue = keccak256(\n            bytes.concat(\n                hashQuote(quote),\n                quote.btcRefundAddress,\n                bytes20(quote.lbcAddress),\n                quote.liquidityProviderBtcAddress\n            )\n        );\n        bytes memory flyoverRedeemScript = bytes.concat(\n            hex\"20\",\n            derivationValue,\n            hex\"75\",\n            bridge.getActivePowpegRedeemScript()\n        );\n        return BtcUtils.validateP2SHAdress(depositAddress, flyoverRedeemScript, mainnet);\n    }\n\n    /**\n        @dev Calculates hash of a quote. Note: besides calculation this function also validates the quote.\n        @param quote The quote of the service\n        @return The hash of a quote\n     */\n    function hashQuote(QuotesV2.PeginQuote memory quote) public view returns (bytes32) {\n        return validateAndHashQuote(quote);\n    }\n\n    function hashPegoutQuote(\n        QuotesV2.PegOutQuote memory quote\n    ) public view returns (bytes32) {\n        return validateAndHashPegOutQuote(quote);\n    }\n\n    function validateAndHashQuote(\n        QuotesV2.PeginQuote memory quote\n    ) private view returns (bytes32) {\n        require(address(this) == quote.lbcAddress, \"LBC051\");\n        require(\n            address(bridge) != quote.contractAddress,\n            \"LBC052\"\n        );\n        require(\n            quote.btcRefundAddress.length == 21 ||\n            quote.btcRefundAddress.length == 33,\n            \"LBC053\"\n        );\n        require(\n            quote.liquidityProviderBtcAddress.length == 21,\n            \"LBC054\"\n        );\n        require(\n            quote.value + quote.callFee + quote.productFeeAmount + quote.gasFee >= minPegIn,\n            \"LBC055\"\n        );\n        require(\n            type(uint32).max >= uint64(quote.agreementTimestamp) + uint64(quote.timeForDeposit),\n            \"LBC071\"\n        );\n\n        return keccak256(QuotesV2.encodeQuote(quote));\n    }\n\n    function validateAndHashPegOutQuote(\n        QuotesV2.PegOutQuote memory quote\n    ) private view returns (bytes32) {\n        require(address(this) == quote.lbcAddress, \"LBC056\");\n\n        return keccak256(QuotesV2.encodePegOutQuote(quote));\n    }\n\n    function min(uint a, uint b) private pure returns (uint) {\n        return a < b ? a : b;\n    }\n\n    // IMPORTANT: These methods should remain private at all costs\n    function increaseBalance(address dest, uint amount) private {\n        balances[dest] += amount;\n        emit BalanceIncrease(dest, amount);\n    }\n\n    function decreaseBalance(address dest, uint amount) private {\n        balances[dest] -= amount;\n        emit BalanceDecrease(dest, amount);\n    }\n\n    /**\n        @dev Checks if a liquidity provider is registered\n        @param addr The address of the liquidity provider\n        @return Boolean indicating whether the liquidity provider is registered\n     */\n    function isRegistered(address addr) private view returns (bool) {\n        return collateral[addr] > 0 && resignationBlockNum[addr] == 0;\n    }\n\n    function isRegisteredForPegout(address addr) private view returns (bool) {\n        return pegoutCollateral[addr] > 0 && resignationBlockNum[addr] == 0;\n    }\n\n    /**\n        @dev Registers a transaction with the bridge contract\n        @param quote The quote of the service\n        @param btcRawTransaction The peg-in transaction\n        @param partialMerkleTree The merkle tree path that proves transaction inclusion\n        @param height The block that contains the transaction\n        @return The total peg-in amount received from the bridge contract or an error code\n     */\n    function registerBridge(\n        QuotesV2.PeginQuote memory quote,\n        bytes memory btcRawTransaction,\n        bytes memory partialMerkleTree,\n        uint256 height,\n        bytes32 derivationHash\n    ) private returns (int256) {\n        return\n            bridge.registerFastBridgeBtcTransaction(\n            btcRawTransaction,\n            height,\n            partialMerkleTree,\n            derivationHash,\n            quote.btcRefundAddress,\n            payable(this),\n            quote.liquidityProviderBtcAddress,\n            callRegistry[derivationHash].timestamp > 0 && callRegistry[derivationHash].success\n        );\n    }\n\n    /**\n        @dev Checks if a liquidity provider should be penalized\n        @param quote The quote of the service\n        @param amount The transferred amount or an error code\n        @param callTimestamp The time that the liquidity provider called callForUser\n        @param height The block height where the peg-in transaction is included\n        @return Boolean indicating whether the penalty applies\n     */\n    function shouldPenalizeLP(\n        QuotesV2.PeginQuote memory quote,\n        int256 amount,\n        uint256 callTimestamp,\n        uint256 height\n    ) private view returns (bool) {\n        // do not penalize if deposit amount is insufficient\n        if (amount > 0 && uint256(amount) < quote.value + quote.callFee + quote.productFeeAmount + quote.gasFee) {\n            return false;\n        }\n\n        bytes memory firstConfirmationHeader = bridge\n            .getBtcBlockchainBlockHeaderByHeight(height);\n        require(firstConfirmationHeader.length > 0, \"Invalid block height\");\n\n        uint256 firstConfirmationTimestamp = BtcUtils.getBtcBlockTimestamp(\n            firstConfirmationHeader\n        );\n\n        // do not penalize if deposit was not made on time\n        // prevent overflow when collateral is less than penalty fee.\n        uint timeLimit = quote.agreementTimestamp + quote.timeForDeposit;\n        if (firstConfirmationTimestamp > timeLimit) {\n            return false;\n        }\n\n        // penalize if call was not made\n        if (callTimestamp == 0) {\n            return true;\n        }\n\n        bytes memory nConfirmationsHeader = bridge\n            .getBtcBlockchainBlockHeaderByHeight(\n            height + quote.depositConfirmations - 1\n        );\n        require(nConfirmationsHeader.length > 0, \"LBC058\");\n\n        uint256 nConfirmationsTimestamp = BtcUtils.getBtcBlockTimestamp(\n            nConfirmationsHeader\n        );\n\n        // penalize if the call was not made on time\n        if (callTimestamp > nConfirmationsTimestamp + quote.callTime) {\n            return true;\n        }\n        return false;\n    }\n\n    function shouldPenalizePegOutLP(\n        QuotesV2.PegOutQuote memory quote,\n        bytes32 quoteHash,\n        bytes32 blockHash\n    ) private view returns (bool) {\n        bytes memory firstConfirmationHeader = bridge.getBtcBlockchainBlockHeaderByHash(blockHash);\n        require(firstConfirmationHeader.length > 0, \"LBC059\");\n\n        uint256 firstConfirmationTimestamp = BtcUtils.getBtcBlockTimestamp(firstConfirmationHeader);\n\n        // penalize if the transfer was not made on time\n        if (firstConfirmationTimestamp > pegoutRegistry[quoteHash].depositTimestamp +\n        quote.transferTime + btcBlockTime) {\n            return true;\n        }\n\n        // penalize if LP is refunding after expiration\n        if (block.timestamp > quote.expireDate || block.number > quote.expireBlock) {\n            return true;\n        }\n\n        return false;\n    }\n\n    function payToFeeCollector(uint amount, bytes32 quoteHash) private {\n        if (amount > 0) {\n            (bool daoSuccess,) = payable(daoFeeCollectorAddress).call{value: amount}(\"\");\n            require(daoSuccess, \"LBC074\");\n            emit DaoFeeSent(quoteHash, amount);\n        }\n    }\n\n    function updateProvider(string memory _name, string memory _url) external {\n        require(bytes(_name).length > 0 && bytes(_url).length > 0, \"LBC076\");\n        LiquidityProvider storage lp;\n        for (uint i = 1; i <= providerId; i++) {\n            lp = liquidityProviders[i];\n            if (msg.sender == lp.provider) {\n                lp.name = _name;\n                lp.apiBaseUrl = _url;\n                emit ProviderUpdate(msg.sender, lp.name, lp.apiBaseUrl);\n                return;\n            }\n        }\n        revert(\"LBC001\");\n    }\n}\n",
  "sourcePath": "/Users/luischavez/iov/liquidity-bridge-contract/contracts/LiquidityBridgeContractV2.sol",
  "compiler": {
    "name": "solc",
    "version": "0.8.18+commit.87f61d96.Emscripten.clang"
  },
  "schemaVersion": "3.4.13",
  "updatedAt": "2024-11-14T11:13:33.086Z",
  "networkType": "ethereum",
  "devdoc": {
    "events": {
      "Initialized(uint8)": {
        "details": "Triggered when the contract has been initialized or reinitialized."
      }
    },
    "kind": "dev",
    "methods": {
      "addCollateral()": {
        "details": "Increases the amount of collateral of the sender"
      },
      "callForUser((bytes20,address,address,bytes,address,bytes,uint256,uint256,address,bytes,uint32,int64,uint256,uint32,uint32,uint32,uint16,bool,uint256,uint256))": {
        "details": "Performs a call on behalf of a user",
        "params": {
          "quote": "The quote that identifies the service"
        },
        "returns": {
          "_0": "Boolean indicating whether the call was successful"
        }
      },
      "deposit()": {
        "details": "Increases the balance of the sender"
      },
      "getBalance(address)": {
        "details": "Returns the amount of funds of a liquidity provider",
        "params": {
          "addr": "The address of the liquidity provider"
        },
        "returns": {
          "_0": "The balance of the liquidity provider"
        }
      },
      "getCollateral(address)": {
        "details": "Returns the amount of collateral of a liquidity provider",
        "params": {
          "addr": "The address of the liquidity provider"
        },
        "returns": {
          "_0": "The amount of locked collateral"
        }
      },
      "hashQuote((bytes20,address,address,bytes,address,bytes,uint256,uint256,address,bytes,uint32,int64,uint256,uint32,uint32,uint32,uint16,bool,uint256,uint256))": {
        "details": "Calculates hash of a quote. Note: besides calculation this function also validates the quote.",
        "params": {
          "quote": "The quote of the service"
        },
        "returns": {
          "_0": "The hash of a quote"
        }
      },
      "isOperational(address)": {
        "details": "Checks whether a liquidity provider can deliver a pegin service",
        "returns": {
          "_0": "Whether the liquidity provider is registered and has enough locked collateral"
        }
      },
      "isOperationalForPegout(address)": {
        "details": "Checks whether a liquidity provider can deliver a pegout service",
        "returns": {
          "_0": "Whether the liquidity provider is registered and has enough locked collateral"
        }
      },
      "owner()": {
        "details": "Returns the address of the current owner."
      },
      "register(string,string,bool,string)": {
        "details": "Registers msg.sender as a liquidity provider with msg.value as collateral"
      },
      "registerPegIn((bytes20,address,address,bytes,address,bytes,uint256,uint256,address,bytes,uint32,int64,uint256,uint32,uint32,uint32,uint16,bool,uint256,uint256),bytes,bytes,bytes,uint256)": {
        "details": "Registers a peg-in transaction with the bridge and pays to the involved parties",
        "params": {
          "btcRawTransaction": "The peg-in transaction",
          "height": "The block that contains the peg-in transaction",
          "partialMerkleTree": "The merkle tree path that proves transaction inclusion",
          "quote": "The quote of the service",
          "signature": "The signature of the quote"
        },
        "returns": {
          "_0": "The total peg-in amount received from the bridge contract or an error code"
        }
      },
      "renounceOwnership()": {
        "details": "Leaves the contract without owner. It will not be possible to call `onlyOwner` functions. Can only be called by the current owner. NOTE: Renouncing ownership will leave the contract without an owner, thereby disabling any functionality that is only available to the owner."
      },
      "resign()": {
        "details": "Used to resign as a liquidity provider"
      },
      "transferOwnership(address)": {
        "details": "Transfers ownership of the contract to a new account (`newOwner`). Can only be called by the current owner."
      },
      "withdraw(uint256)": {
        "details": "Used to withdraw funds",
        "params": {
          "amount": "The amount to withdraw"
        }
      },
      "withdrawCollateral()": {
        "details": "Used to withdraw the locked collateral"
      }
    },
    "title": "Contract that assists with the Flyover protocol",
    "version": 1
  },
  "userdoc": {
    "kind": "user",
    "methods": {},
    "version": 1
  }
}