{
  "contractName": "Mock",
  "abi": [
    {
      "inputs": [],
      "name": "balance",
      "outputs": [
        {
          "internalType": "uint256",
          "name": "",
          "type": "uint256"
        }
      ],
      "stateMutability": "view",
      "type": "function"
    },
    {
      "inputs": [
        {
          "internalType": "int256",
          "name": "s",
          "type": "int256"
        }
      ],
      "name": "set",
      "outputs": [],
      "stateMutability": "payable",
      "type": "function"
    },
    {
      "inputs": [],
      "name": "check",
      "outputs": [
        {
          "internalType": "int256",
          "name": "",
          "type": "int256"
        }
      ],
      "stateMutability": "view",
      "type": "function"
    },
    {
      "inputs": [],
      "name": "fail",
      "outputs": [],
      "stateMutability": "pure",
      "type": "function"
    },
    {
      "inputs": [
        {
          "internalType": "address payable",
          "name": "lbcAddress",
          "type": "address"
        }
      ],
      "name": "callRegister",
      "outputs": [],
      "stateMutability": "payable",
      "type": "function"
    }
  ],
  "bytecode": "0x608060405234801561001057600080fd5b50610276806100206000396000f3fe60806040526004361061004a5760003560e01c80631192fe621461004f578063919840ad14610064578063a9cc471814610087578063b69ef8a81461009c578063e5c19b2d146100b2575b600080fd5b61006261005d3660046101de565b6100c5565b005b34801561007057600080fd5b506000545b60405190815260200160405180910390f35b34801561009357600080fd5b506100626101aa565b3480156100a857600080fd5b5061007560015481565b6100626100c036600461020e565b600055565b60405163082e0aa360e31b81526080600480830191909152600e60848301526d119a5c9cdd0818dbdb9d1c9858dd60921b60a483015260c06024830152601460c483015273687474703a2f2f6c6f63616c686f73742f61706960601b60e4830152600160448301526101006064830152610104820152630c4dee8d60e31b61012482015281906001600160a01b0382169063417055189034906101440160206040518083038185885af1158015610180573d6000803e3d6000fd5b50505050506040513d601f19601f820116820180604052508101906101a59190610227565b505050565b60405162461bcd60e51b815260206004820152600560248201526432b93937b960d91b604482015260640160405180910390fd5b6000602082840312156101f057600080fd5b81356001600160a01b038116811461020757600080fd5b9392505050565b60006020828403121561022057600080fd5b5035919050565b60006020828403121561023957600080fd5b505191905056fea264697066735822122061f78a51a037cbb55ee585c7d3f79951af247aa2114f997ba68b8f04fc206d5c64736f6c63430008120033",
  "immutableReferences": {},
  "source": "// SPDX-License-Identifier: MIT\npragma solidity ^0.8.18;\n\nimport \"./LiquidityBridgeContract.sol\";\n\ncontract Mock {\n    int private status;\n    uint256 public balance;\n\n    function set(int s) external payable {\n        status = s;\n    }\n\n    function check() external view returns (int) {\n        return status;\n    }\n\n    function fail() external pure {\n        require(false, \"error\");\n    }\n\n    function callRegister(address payable lbcAddress) external payable {\n        LiquidityBridgeContract lbc = LiquidityBridgeContract(lbcAddress);\n        lbc.register{value: msg.value}(\n            \"First contract\",\n            \"http://localhost/api\",\n            true,\n            \"both\"\n        );\n    }\n}\n",
  "sourcePath": "/Users/luischavez/iov/liquidity-bridge-contract/contracts/Mock.sol",
  "compiler": {
    "name": "solc",
    "version": "0.8.18+commit.87f61d96.Emscripten.clang"
  },
  "schemaVersion": "3.4.13",
  "updatedAt": "2024-02-27T21:36:42.706Z",
  "devdoc": {
    "kind": "dev",
    "methods": {},
    "version": 1
  },
  "userdoc": {
    "kind": "user",
    "methods": {},
    "version": 1
  }
}