{
  "contractName": "OpCodes",
  "abi": [
    {
      "inputs": [],
      "name": "OP_CHECKSIG",
      "outputs": [
        {
          "internalType": "bytes1",
          "name": "",
          "type": "bytes1"
        }
      ],
      "stateMutability": "view",
      "type": "function"
    },
    {
      "inputs": [],
      "name": "OP_DUP",
      "outputs": [
        {
          "internalType": "bytes1",
          "name": "",
          "type": "bytes1"
        }
      ],
      "stateMutability": "view",
      "type": "function"
    },
    {
      "inputs": [],
      "name": "OP_EQUAL",
      "outputs": [
        {
          "internalType": "bytes1",
          "name": "",
          "type": "bytes1"
        }
      ],
      "stateMutability": "view",
      "type": "function"
    },
    {
      "inputs": [],
      "name": "OP_EQUALVERIFY",
      "outputs": [
        {
          "internalType": "bytes1",
          "name": "",
          "type": "bytes1"
        }
      ],
      "stateMutability": "view",
      "type": "function"
    },
    {
      "inputs": [],
      "name": "OP_HASH160",
      "outputs": [
        {
          "internalType": "bytes1",
          "name": "",
          "type": "bytes1"
        }
      ],
      "stateMutability": "view",
      "type": "function"
    },
    {
      "inputs": [],
      "name": "OP_RETURN",
      "outputs": [
        {
          "internalType": "bytes1",
          "name": "",
          "type": "bytes1"
        }
      ],
      "stateMutability": "view",
      "type": "function"
    }
  ],
  "bytecode": "0x60f9610039600b82828239805160001a60731461002c57634e487b7160e01b600052600060045260246000fd5b30600052607381538281f3fe730000000000000000000000000000000000000000301460806040526004361060655760003560e01c806325468e0614606a5780635b9aeed01460915780637944baea14609b5780637984beeb1460a5578063ad4039671460af578063f3c9009a1460b9575b600080fd5b607460a960f81b81565b6040516001600160f81b0319909116815260200160405180910390f35b6074603560f91b81565b6074602b60fa1b81565b6074603b60f91b81565b6074601160fb1b81565b6074608760f81b8156fea2646970667358221220c6be11daa1f348828cc107d170d0054fb23c5bebfafdaf50727ee35746ee2ce564736f6c63430008120033",
  "immutableReferences": {},
  "source": "// SPDX-License-Identifier: MIT\npragma solidity ^0.8.18;\n\n\nlibrary OpCodes {\n    bytes1 public constant OP_DUP = 0x76;\n    bytes1 public constant OP_HASH160 = 0xa9;\n    bytes1 public constant OP_EQUALVERIFY = 0x88;\n    bytes1 public constant OP_CHECKSIG = 0xac;\n    bytes1 public constant OP_RETURN = 0x6a;\n    bytes1 public constant OP_EQUAL = 0x87;\n}\n",
  "sourcePath": "@rsksmart/btc-transaction-solidity-helper/contracts/OpCodes.sol",
  "compiler": {
    "name": "solc",
    "version": "0.8.18+commit.87f61d96.Emscripten.clang"
  },
  "schemaVersion": "3.4.13",
  "updatedAt": "2024-05-21T13:44:30.728Z",
  "devdoc": {
    "kind": "dev",
    "methods": {},
    "version": 1
  },
  "userdoc": {
    "kind": "user",
    "methods": {},
    "version": 1
  }
}