{
  "contractName": "OpCodes",
  "abi": [
    {
      "inputs": [],
      "name": "OP_0",
      "outputs": [
        {
          "internalType": "bytes1",
          "name": "",
          "type": "bytes1"
        }
      ],
      "stateMutability": "view",
      "type": "function"
    },
    {
      "inputs": [],
      "name": "OP_1",
      "outputs": [
        {
          "internalType": "bytes1",
          "name": "",
          "type": "bytes1"
        }
      ],
      "stateMutability": "view",
      "type": "function"
    },
    {
      "inputs": [],
      "name": "OP_CHECKSIG",
      "outputs": [
        {
          "internalType": "bytes1",
          "name": "",
          "type": "bytes1"
        }
      ],
      "stateMutability": "view",
      "type": "function"
    },
    {
      "inputs": [],
      "name": "OP_DUP",
      "outputs": [
        {
          "internalType": "bytes1",
          "name": "",
          "type": "bytes1"
        }
      ],
      "stateMutability": "view",
      "type": "function"
    },
    {
      "inputs": [],
      "name": "OP_EQUAL",
      "outputs": [
        {
          "internalType": "bytes1",
          "name": "",
          "type": "bytes1"
        }
      ],
      "stateMutability": "view",
      "type": "function"
    },
    {
      "inputs": [],
      "name": "OP_EQUALVERIFY",
      "outputs": [
        {
          "internalType": "bytes1",
          "name": "",
          "type": "bytes1"
        }
      ],
      "stateMutability": "view",
      "type": "function"
    },
    {
      "inputs": [],
      "name": "OP_HASH160",
      "outputs": [
        {
          "internalType": "bytes1",
          "name": "",
          "type": "bytes1"
        }
      ],
      "stateMutability": "view",
      "type": "function"
    },
    {
      "inputs": [],
      "name": "OP_RETURN",
      "outputs": [
        {
          "internalType": "bytes1",
          "name": "",
          "type": "bytes1"
        }
      ],
      "stateMutability": "view",
      "type": "function"
    }
  ],
  "bytecode": "0x61011e61003a600b82828239805160001a60731461002d57634e487b7160e01b600052600060045260246000fd5b30600052607381538281f3fe730000000000000000000000000000000000000000301460806040526004361060795760003560e01c806325468e0614607e5780635b9aeed01460a55780637944baea1460af5780637984beeb1460b9578063ad4039671460c3578063b0354dd91460cd578063f3c9009a1460d7578063fffbdf231460e1575b600080fd5b608860a960f81b81565b6040516001600160f81b0319909116815260200160405180910390f35b6088603560f91b81565b6088602b60fa1b81565b6088603b60f91b81565b6088601160fb1b81565b6088605160f81b81565b6088608760f81b81565b608860008156fea2646970667358221220e220644e75a9f6e22bc18d939db14c631bc2401556ac1b24353c9f22c910c01064736f6c63430008120033",
  "immutableReferences": {},
  "source": "// SPDX-License-Identifier: MIT\npragma solidity ^0.8.18;\n\n\nlibrary OpCodes {\n    bytes1 public constant OP_DUP = 0x76;\n    bytes1 public constant OP_HASH160 = 0xa9;\n    bytes1 public constant OP_EQUALVERIFY = 0x88;\n    bytes1 public constant OP_CHECKSIG = 0xac;\n    bytes1 public constant OP_RETURN = 0x6a;\n    bytes1 public constant OP_EQUAL = 0x87;\n\n    bytes1 public constant OP_0 = 0x00;\n    bytes1 public constant OP_1 = 0x51;\n}\n",
  "sourcePath": "@rsksmart/btc-transaction-solidity-helper/contracts/OpCodes.sol",
  "compiler": {
    "name": "solc",
    "version": "0.8.18+commit.87f61d96.Emscripten.clang"
  },
  "schemaVersion": "3.4.13",
  "updatedAt": "2024-11-14T11:10:14.056Z",
  "devdoc": {
    "kind": "dev",
    "methods": {},
    "version": 1
  },
  "userdoc": {
    "kind": "user",
    "methods": {},
    "version": 1
  }
}