{
  "contractName": "QuotesV2",
  "abi": [
    {
      "inputs": [
        {
          "components": [
            {
              "internalType": "bytes20",
              "name": "fedBtcAddress",
              "type": "bytes20"
            },
            {
              "internalType": "address",
              "name": "lbcAddress",
              "type": "address"
            },
            {
              "internalType": "address",
              "name": "liquidityProviderRskAddress",
              "type": "address"
            },
            {
              "internalType": "bytes",
              "name": "btcRefundAddress",
              "type": "bytes"
            },
            {
              "internalType": "address payable",
              "name": "rskRefundAddress",
              "type": "address"
            },
            {
              "internalType": "bytes",
              "name": "liquidityProviderBtcAddress",
              "type": "bytes"
            },
            {
              "internalType": "uint256",
              "name": "callFee",
              "type": "uint256"
            },
            {
              "internalType": "uint256",
              "name": "penaltyFee",
              "type": "uint256"
            },
            {
              "internalType": "address",
              "name": "contractAddress",
              "type": "address"
            },
            {
              "internalType": "bytes",
              "name": "data",
              "type": "bytes"
            },
            {
              "internalType": "uint32",
              "name": "gasLimit",
              "type": "uint32"
            },
            {
              "internalType": "int64",
              "name": "nonce",
              "type": "int64"
            },
            {
              "internalType": "uint256",
              "name": "value",
              "type": "uint256"
            },
            {
              "internalType": "uint32",
              "name": "agreementTimestamp",
              "type": "uint32"
            },
            {
              "internalType": "uint32",
              "name": "timeForDeposit",
              "type": "uint32"
            },
            {
              "internalType": "uint32",
              "name": "callTime",
              "type": "uint32"
            },
            {
              "internalType": "uint16",
              "name": "depositConfirmations",
              "type": "uint16"
            },
            {
              "internalType": "bool",
              "name": "callOnRegister",
              "type": "bool"
            },
            {
              "internalType": "uint256",
              "name": "productFeeAmount",
              "type": "uint256"
            },
            {
              "internalType": "uint256",
              "name": "gasFee",
              "type": "uint256"
            }
          ],
          "internalType": "struct QuotesV2.PeginQuote",
          "name": "quote",
          "type": "tuple"
        }
      ],
      "name": "encodeQuote",
      "outputs": [
        {
          "internalType": "bytes",
          "name": "",
          "type": "bytes"
        }
      ],
      "stateMutability": "pure",
      "type": "function",
      "constant": true
    },
    {
      "inputs": [
        {
          "components": [
            {
              "internalType": "address",
              "name": "lbcAddress",
              "type": "address"
            },
            {
              "internalType": "address",
              "name": "lpRskAddress",
              "type": "address"
            },
            {
              "internalType": "bytes",
              "name": "btcRefundAddress",
              "type": "bytes"
            },
            {
              "internalType": "address",
              "name": "rskRefundAddress",
              "type": "address"
            },
            {
              "internalType": "bytes",
              "name": "lpBtcAddress",
              "type": "bytes"
            },
            {
              "internalType": "uint256",
              "name": "callFee",
              "type": "uint256"
            },
            {
              "internalType": "uint256",
              "name": "penaltyFee",
              "type": "uint256"
            },
            {
              "internalType": "int64",
              "name": "nonce",
              "type": "int64"
            },
            {
              "internalType": "bytes",
              "name": "deposityAddress",
              "type": "bytes"
            },
            {
              "internalType": "uint256",
              "name": "value",
              "type": "uint256"
            },
            {
              "internalType": "uint32",
              "name": "agreementTimestamp",
              "type": "uint32"
            },
            {
              "internalType": "uint32",
              "name": "depositDateLimit",
              "type": "uint32"
            },
            {
              "internalType": "uint16",
              "name": "depositConfirmations",
              "type": "uint16"
            },
            {
              "internalType": "uint16",
              "name": "transferConfirmations",
              "type": "uint16"
            },
            {
              "internalType": "uint32",
              "name": "transferTime",
              "type": "uint32"
            },
            {
              "internalType": "uint32",
              "name": "expireDate",
              "type": "uint32"
            },
            {
              "internalType": "uint32",
              "name": "expireBlock",
              "type": "uint32"
            },
            {
              "internalType": "uint256",
              "name": "productFeeAmount",
              "type": "uint256"
            },
            {
              "internalType": "uint256",
              "name": "gasFee",
              "type": "uint256"
            }
          ],
          "internalType": "struct QuotesV2.PegOutQuote",
          "name": "quote",
          "type": "tuple"
        }
      ],
      "name": "encodePegOutQuote",
      "outputs": [
        {
          "internalType": "bytes",
          "name": "",
          "type": "bytes"
        }
      ],
      "stateMutability": "pure",
      "type": "function",
      "constant": true
    },
    {
      "inputs": [
        {
          "components": [
            {
              "internalType": "bytes20",
              "name": "fedBtcAddress",
              "type": "bytes20"
            },
            {
              "internalType": "address",
              "name": "lbcAddress",
              "type": "address"
            },
            {
              "internalType": "address",
              "name": "liquidityProviderRskAddress",
              "type": "address"
            },
            {
              "internalType": "bytes",
              "name": "btcRefundAddress",
              "type": "bytes"
            },
            {
              "internalType": "address payable",
              "name": "rskRefundAddress",
              "type": "address"
            },
            {
              "internalType": "bytes",
              "name": "liquidityProviderBtcAddress",
              "type": "bytes"
            },
            {
              "internalType": "uint256",
              "name": "callFee",
              "type": "uint256"
            },
            {
              "internalType": "uint256",
              "name": "penaltyFee",
              "type": "uint256"
            },
            {
              "internalType": "address",
              "name": "contractAddress",
              "type": "address"
            },
            {
              "internalType": "bytes",
              "name": "data",
              "type": "bytes"
            },
            {
              "internalType": "uint32",
              "name": "gasLimit",
              "type": "uint32"
            },
            {
              "internalType": "int64",
              "name": "nonce",
              "type": "int64"
            },
            {
              "internalType": "uint256",
              "name": "value",
              "type": "uint256"
            },
            {
              "internalType": "uint32",
              "name": "agreementTimestamp",
              "type": "uint32"
            },
            {
              "internalType": "uint32",
              "name": "timeForDeposit",
              "type": "uint32"
            },
            {
              "internalType": "uint32",
              "name": "callTime",
              "type": "uint32"
            },
            {
              "internalType": "uint16",
              "name": "depositConfirmations",
              "type": "uint16"
            },
            {
              "internalType": "bool",
              "name": "callOnRegister",
              "type": "bool"
            },
            {
              "internalType": "uint256",
              "name": "productFeeAmount",
              "type": "uint256"
            },
            {
              "internalType": "uint256",
              "name": "gasFee",
              "type": "uint256"
            }
          ],
          "internalType": "struct QuotesV2.PeginQuote",
          "name": "quote",
          "type": "tuple"
        },
        {
          "internalType": "uint256",
          "name": "transferredAmount",
          "type": "uint256"
        }
      ],
      "name": "checkAgreedAmount",
      "outputs": [],
      "stateMutability": "pure",
      "type": "function",
      "constant": true
    }
  ],
  "bytecode": "0x610b0661003a600b82828239805160001a60731461002d57634e487b7160e01b600052600060045260246000fd5b30600052607381538281f3fe730000000000000000000000000000000000000000301460806040526004361061004a5760003560e01c8062773b791461004f5780631280c73814610078578063fa6ea3e71461008b575b600080fd5b61006261005d366004610620565b6100a0565b60405161006f91906106a2565b60405180910390f35b6100626100863660046106bc565b6100db565b61009e61009936600461087e565b6100ef565b005b60606100ab82610184565b6100b4836101cc565b6040516020016100c59291906108c2565b6040516020818303038152906040529050919050565b60606100e68261022a565b6100b483610272565b60008261026001518361024001518460c001518561018001516101129190610906565b61011c9190610906565b6101269190610906565b905060006101366127108361091f565b90506101428183610941565b83101561017e5760405162461bcd60e51b81526020600482015260066024820152654c424330353760d01b604482015260640160405180910390fd5b50505050565b6060816000015182602001518360400151846060015185608001518660a001518760c001518860e001518961010001516040516020016100c599989796959493929190610954565b6060816101200151826101400151836101600151846101800151856101a00151866101c00151876101e001518861020001518961022001518a61024001518b61026001516040516020016100c59b9a999897969594939291906109d3565b6060816000015182602001518360400151846060015185608001518660a001518760c001518860e001518961010001516040516020016100c599989796959493929190610a4c565b6101208082015161014080840151610160808601516101808701516101a08801516101c08901516101e08a01516102008b01516102208c01516102408d015160408051602081019d909d5263ffffffff9a8b16908d015296891660608c81019190915261ffff96871660808d01529590941660a08b015291871660c08a0152861660e0890152949094166101008701529585019290925291830152016100c5565b634e487b7160e01b600052604160045260246000fd5b60405161028081016001600160401b038111828210171561034c5761034c610313565b60405290565b60405161026081016001600160401b038111828210171561034c5761034c610313565b80356001600160601b03198116811461038d57600080fd5b919050565b80356001600160a01b038116811461038d57600080fd5b600082601f8301126103ba57600080fd5b81356001600160401b03808211156103d4576103d4610313565b604051601f8301601f19908116603f011681019082821181831017156103fc576103fc610313565b8160405283815286602085880101111561041557600080fd5b836020870160208301376000602085830101528094505050505092915050565b803563ffffffff8116811461038d57600080fd5b8035600781900b811461038d57600080fd5b803561ffff8116811461038d57600080fd5b8035801515811461038d57600080fd5b6000610280828403121561049057600080fd5b610498610329565b90506104a382610375565b81526104b160208301610392565b60208201526104c260408301610392565b604082015260608201356001600160401b03808211156104e157600080fd5b6104ed858386016103a9565b60608401526104fe60808501610392565b608084015260a084013591508082111561051757600080fd5b610523858386016103a9565b60a084015260c084013560c084015260e084013560e0840152610100915061054c828501610392565b828401526101209150818401358181111561056657600080fd5b610572868287016103a9565b83850152505050610140610587818401610435565b90820152610160610599838201610449565b9082015261018082810135908201526101a06105b6818401610435565b908201526101c06105c8838201610435565b908201526101e06105da838201610435565b908201526102006105ec83820161045b565b908201526102206105fe83820161046d565b9082015261024082810135908201526102609182013591810191909152919050565b60006020828403121561063257600080fd5b81356001600160401b0381111561064857600080fd5b6106548482850161047d565b949350505050565b6000815180845260005b8181101561068257602081850181015186830182015201610666565b506000602082860101526020601f19601f83011685010191505092915050565b6020815260006106b5602083018461065c565b9392505050565b6000602082840312156106ce57600080fd5b81356001600160401b03808211156106e557600080fd5b9083019061026082860312156106fa57600080fd5b610702610352565b61070b83610392565b815261071960208401610392565b602082015260408301358281111561073057600080fd5b61073c878286016103a9565b60408301525061074e60608401610392565b606082015260808301358281111561076557600080fd5b610771878286016103a9565b60808301525060a083013560a082015260c083013560c082015261079760e08401610449565b60e082015261010080840135838111156107b057600080fd5b6107bc888287016103a9565b8284015250506101209150818301358282015261014091506107df828401610435565b8282015261016091506107f3828401610435565b82820152610180915061080782840161045b565b828201526101a0915061081b82840161045b565b828201526101c0915061082f828401610435565b828201526101e09150610843828401610435565b828201526102009150610857828401610435565b91810191909152610220828101359082015261024091820135918101919091529392505050565b6000806040838503121561089157600080fd5b82356001600160401b038111156108a757600080fd5b6108b38582860161047d565b95602094909401359450505050565b6040815260006108d5604083018561065c565b82810360208401526108e7818561065c565b95945050505050565b634e487b7160e01b600052601160045260246000fd5b80820180821115610919576109196108f0565b92915050565b60008261093c57634e487b7160e01b600052601260045260246000fd5b500490565b81810381811115610919576109196108f0565b6001600160601b03198a1681526001600160a01b0389811660208301528881166040830152610120606083018190526000916109928483018b61065c565b9150808916608085015283820360a08501526109ae828961065c565b60c085019790975260e084019590955250509116610100909101529695505050505050565b60006101608083526109e78184018f61065c565b63ffffffff9d8e16602085015260079c909c0b604084015250506060810198909852958916608088015293881660a08701529190961660c085015261ffff90951660e08401529315156101008301526101208201939093526101400191909152919050565b6001600160a01b038a81168252898116602083015261012060408301819052600091610a7a8483018c61065c565b908a16606085015283810360808501529050610a96818961065c565b90508660a08401528560c08401528460070b60e0840152828103610100840152610ac0818561065c565b9c9b50505050505050505050505056fea2646970667358221220e38a59a1f3773a883d7a22896f663f27f410c865d9addabfd56a0a26ca7916e064736f6c63430008120033",
  "immutableReferences": {},
  "source": "// SPDX-License-Identifier: MIT\npragma solidity ^0.8.18;\n\nlibrary QuotesV2 {\n    struct PeginQuote {\n        bytes20 fedBtcAddress;\n        address lbcAddress;\n        address liquidityProviderRskAddress;\n        bytes btcRefundAddress;\n        address payable rskRefundAddress;\n        bytes liquidityProviderBtcAddress;\n        uint256 callFee;\n        uint256 penaltyFee;\n        address contractAddress;\n        bytes data;\n        uint32 gasLimit;\n        int64 nonce;\n        uint256 value;\n        uint32 agreementTimestamp;\n        uint32 timeForDeposit;\n        uint32 callTime;\n        uint16 depositConfirmations;\n        bool callOnRegister;\n        uint256 productFeeAmount;\n        uint256 gasFee;\n    }\n\n    struct PegOutQuote {\n        address lbcAddress;\n        address lpRskAddress;\n        bytes btcRefundAddress;\n        address rskRefundAddress;\n        bytes lpBtcAddress;\n        uint256 callFee;\n        uint256 penaltyFee;\n        int64 nonce;\n        bytes deposityAddress;\n        uint256 value;\n        uint32 agreementTimestamp;\n        uint32 depositDateLimit;\n        uint16 depositConfirmations;\n        uint16 transferConfirmations;\n        uint32 transferTime;\n        uint32 expireDate;\n        uint32 expireBlock;\n        uint256 productFeeAmount;\n        uint256 gasFee;\n    }\n\n    function encodeQuote(\n        PeginQuote memory quote\n    ) external pure returns (bytes memory) {\n        // Encode in two parts because abi.encode cannot take more than 12 parameters due to stack depth limits.\n        return abi.encode(encodePart1(quote), encodePart2(quote));\n    }\n\n    function encodePegOutQuote(\n        PegOutQuote memory quote\n    ) external pure returns (bytes memory) {\n        // Encode in two parts because abi.encode cannot take more than 12 parameters due to stack depth limits.\n        return abi.encode(encodePegOutPart1(quote), encodePegOutPart2(quote));\n    }\n\n    function encodePart1(\n        PeginQuote memory quote\n    ) private pure returns (bytes memory) {\n        return\n            abi.encode(\n                quote.fedBtcAddress,\n                quote.lbcAddress,\n                quote.liquidityProviderRskAddress,\n                quote.btcRefundAddress,\n                quote.rskRefundAddress,\n                quote.liquidityProviderBtcAddress,\n                quote.callFee,\n                quote.penaltyFee,\n                quote.contractAddress\n            );\n    }\n\n    function encodePart2(\n        PeginQuote memory quote\n    ) private pure returns (bytes memory) {\n        return\n            abi.encode(\n                quote.data,\n                quote.gasLimit,\n                quote.nonce,\n                quote.value,\n                quote.agreementTimestamp,\n                quote.timeForDeposit,\n                quote.callTime,\n                quote.depositConfirmations,\n                quote.callOnRegister,\n                quote.productFeeAmount,\n                quote.gasFee\n            );\n    }\n\n    function encodePegOutPart1(\n        PegOutQuote memory quote\n    ) private pure returns (bytes memory) {\n        return\n            abi.encode(\n                quote.lbcAddress,\n                quote.lpRskAddress,\n                quote.btcRefundAddress,\n                quote.rskRefundAddress,\n                quote.lpBtcAddress,\n                quote.callFee,\n                quote.penaltyFee,\n                quote.nonce,\n                quote.deposityAddress\n            );\n    }\n\n    function encodePegOutPart2(\n        PegOutQuote memory quote\n    ) private pure returns (bytes memory) {\n        return\n            abi.encode(\n                quote.value,\n                quote.agreementTimestamp,\n                quote.depositDateLimit,\n                quote.depositConfirmations,\n                quote.transferConfirmations,\n                quote.transferTime,\n                quote.expireDate,\n                quote.expireBlock,\n                quote.productFeeAmount,\n                quote.gasFee\n            );\n    }\n\n    function checkAgreedAmount(\n        PeginQuote memory quote,\n        uint transferredAmount\n    ) external pure {\n        uint agreedAmount = 0;\n        agreedAmount = quote.value + quote.callFee + quote.productFeeAmount + quote.gasFee;\n\n\n        uint delta = agreedAmount / 10000;\n        // transferred amount should not be lower than (agreed amount - delta),\n        // where delta is intended to tackle rounding problems\n        require(\n            transferredAmount >= agreedAmount - delta,\n            \"LBC057\"\n        );\n    }\n\n}",
  "sourcePath": "/Users/luischavez/iov/liquidity-bridge-contract/contracts/QuotesV2.sol",
  "compiler": {
    "name": "solc",
    "version": "0.8.18+commit.87f61d96.Emscripten.clang"
  },
  "schemaVersion": "3.4.13",
  "updatedAt": "2024-11-27T16:13:03.168Z",
  "networkType": "ethereum",
  "devdoc": {
    "kind": "dev",
    "methods": {},
    "version": 1
  },
  "userdoc": {
    "kind": "user",
    "methods": {},
    "version": 1
  }
}