{
  "contractName": "Quotes",
  "abi": [
    {
      "inputs": [
        {
          "components": [
            {
              "internalType": "bytes20",
              "name": "fedBtcAddress",
              "type": "bytes20"
            },
            {
              "internalType": "address",
              "name": "lbcAddress",
              "type": "address"
            },
            {
              "internalType": "address",
              "name": "liquidityProviderRskAddress",
              "type": "address"
            },
            {
              "internalType": "bytes",
              "name": "btcRefundAddress",
              "type": "bytes"
            },
            {
              "internalType": "address payable",
              "name": "rskRefundAddress",
              "type": "address"
            },
            {
              "internalType": "bytes",
              "name": "liquidityProviderBtcAddress",
              "type": "bytes"
            },
            {
              "internalType": "uint256",
              "name": "callFee",
              "type": "uint256"
            },
            {
              "internalType": "uint256",
              "name": "penaltyFee",
              "type": "uint256"
            },
            {
              "internalType": "address",
              "name": "contractAddress",
              "type": "address"
            },
            {
              "internalType": "bytes",
              "name": "data",
              "type": "bytes"
            },
            {
              "internalType": "uint32",
              "name": "gasLimit",
              "type": "uint32"
            },
            {
              "internalType": "int64",
              "name": "nonce",
              "type": "int64"
            },
            {
              "internalType": "uint256",
              "name": "value",
              "type": "uint256"
            },
            {
              "internalType": "uint32",
              "name": "agreementTimestamp",
              "type": "uint32"
            },
            {
              "internalType": "uint32",
              "name": "timeForDeposit",
              "type": "uint32"
            },
            {
              "internalType": "uint32",
              "name": "callTime",
              "type": "uint32"
            },
            {
              "internalType": "uint16",
              "name": "depositConfirmations",
              "type": "uint16"
            },
            {
              "internalType": "bool",
              "name": "callOnRegister",
              "type": "bool"
            }
          ],
          "internalType": "struct Quotes.PeginQuote",
          "name": "quote",
          "type": "tuple"
        }
      ],
      "name": "encodeQuote",
      "outputs": [
        {
          "internalType": "bytes",
          "name": "",
          "type": "bytes"
        }
      ],
      "stateMutability": "pure",
      "type": "function"
    },
    {
      "inputs": [
        {
          "components": [
            {
              "internalType": "address",
              "name": "lbcAddress",
              "type": "address"
            },
            {
              "internalType": "address",
              "name": "lpRskAddress",
              "type": "address"
            },
            {
              "internalType": "bytes",
              "name": "btcRefundAddress",
              "type": "bytes"
            },
            {
              "internalType": "address",
              "name": "rskRefundAddress",
              "type": "address"
            },
            {
              "internalType": "bytes",
              "name": "lpBtcAddress",
              "type": "bytes"
            },
            {
              "internalType": "uint256",
              "name": "callFee",
              "type": "uint256"
            },
            {
              "internalType": "uint256",
              "name": "penaltyFee",
              "type": "uint256"
            },
            {
              "internalType": "int64",
              "name": "nonce",
              "type": "int64"
            },
            {
              "internalType": "bytes",
              "name": "deposityAddress",
              "type": "bytes"
            },
            {
              "internalType": "uint256",
              "name": "value",
              "type": "uint256"
            },
            {
              "internalType": "uint32",
              "name": "agreementTimestamp",
              "type": "uint32"
            },
            {
              "internalType": "uint32",
              "name": "depositDateLimit",
              "type": "uint32"
            },
            {
              "internalType": "uint16",
              "name": "depositConfirmations",
              "type": "uint16"
            },
            {
              "internalType": "uint16",
              "name": "transferConfirmations",
              "type": "uint16"
            },
            {
              "internalType": "uint32",
              "name": "transferTime",
              "type": "uint32"
            },
            {
              "internalType": "uint32",
              "name": "expireDate",
              "type": "uint32"
            },
            {
              "internalType": "uint32",
              "name": "expireBlock",
              "type": "uint32"
            }
          ],
          "internalType": "struct Quotes.PegOutQuote",
          "name": "quote",
          "type": "tuple"
        }
      ],
      "name": "encodePegOutQuote",
      "outputs": [
        {
          "internalType": "bytes",
          "name": "",
          "type": "bytes"
        }
      ],
      "stateMutability": "pure",
      "type": "function"
    },
    {
      "inputs": [
        {
          "components": [
            {
              "internalType": "bytes20",
              "name": "fedBtcAddress",
              "type": "bytes20"
            },
            {
              "internalType": "address",
              "name": "lbcAddress",
              "type": "address"
            },
            {
              "internalType": "address",
              "name": "liquidityProviderRskAddress",
              "type": "address"
            },
            {
              "internalType": "bytes",
              "name": "btcRefundAddress",
              "type": "bytes"
            },
            {
              "internalType": "address payable",
              "name": "rskRefundAddress",
              "type": "address"
            },
            {
              "internalType": "bytes",
              "name": "liquidityProviderBtcAddress",
              "type": "bytes"
            },
            {
              "internalType": "uint256",
              "name": "callFee",
              "type": "uint256"
            },
            {
              "internalType": "uint256",
              "name": "penaltyFee",
              "type": "uint256"
            },
            {
              "internalType": "address",
              "name": "contractAddress",
              "type": "address"
            },
            {
              "internalType": "bytes",
              "name": "data",
              "type": "bytes"
            },
            {
              "internalType": "uint32",
              "name": "gasLimit",
              "type": "uint32"
            },
            {
              "internalType": "int64",
              "name": "nonce",
              "type": "int64"
            },
            {
              "internalType": "uint256",
              "name": "value",
              "type": "uint256"
            },
            {
              "internalType": "uint32",
              "name": "agreementTimestamp",
              "type": "uint32"
            },
            {
              "internalType": "uint32",
              "name": "timeForDeposit",
              "type": "uint32"
            },
            {
              "internalType": "uint32",
              "name": "callTime",
              "type": "uint32"
            },
            {
              "internalType": "uint16",
              "name": "depositConfirmations",
              "type": "uint16"
            },
            {
              "internalType": "bool",
              "name": "callOnRegister",
              "type": "bool"
            }
          ],
          "internalType": "struct Quotes.PeginQuote",
          "name": "quote",
          "type": "tuple"
        },
        {
          "internalType": "uint256",
          "name": "transferredAmount",
          "type": "uint256"
        }
      ],
      "name": "checkAgreedAmount",
      "outputs": [],
      "stateMutability": "pure",
      "type": "function"
    }
  ],
  "bytecode": "0x610a8061003a600b82828239805160001a60731461002d57634e487b7160e01b600052600060045260246000fd5b30600052607381538281f3fe730000000000000000000000000000000000000000301460806040526004361061004b5760003560e01c8063039e8de4146100505780633f7acc2c14610065578063fb19b88b1461008e575b600080fd5b61006361005e3660046105c0565b6100a1565b005b610078610073366004610604565b610116565b6040516100859190610686565b60405180910390f35b61007861009c3660046106a0565b610151565b60008260c001518361018001516100b89190610860565b905060006100c861271083610879565b90506100d4818361089b565b8310156101105760405162461bcd60e51b81526020600482015260066024820152654c424330353760d01b604482015260640160405180910390fd5b50505050565b606061012182610165565b61012a836101ad565b60405160200161013b9291906108ae565b6040516020818303038152906040529050919050565b606061015c826101fd565b61012a83610245565b6060816000015182602001518360400151846060015185608001518660a001518760c001518860e0015189610100015160405160200161013b999897969594939291906108dc565b6060816101200151826101400151836101600151846101800151856101a00151866101c00151876101e0015188610200015189610220015160405160200161013b9998979695949392919061095b565b6060816000015182602001518360400151846060015185608001518660a001518760c001518860e0015189610100015160405160200161013b999897969594939291906109c6565b610120808201516101408301516101608401516101808501516101a08601516101c08701516101e088015161020089015160408051602081019990995263ffffffff9788169089015294861660608881019190915261ffff94851660808901529390921660a0870152841660c0860152831660e08501529116610100830152910161013b565b634e487b7160e01b600052604160045260246000fd5b60405161024081016001600160401b0381118282101715610304576103046102cb565b60405290565b60405161022081016001600160401b0381118282101715610304576103046102cb565b80356001600160601b03198116811461034557600080fd5b919050565b80356001600160a01b038116811461034557600080fd5b600082601f83011261037257600080fd5b81356001600160401b038082111561038c5761038c6102cb565b604051601f8301601f19908116603f011681019082821181831017156103b4576103b46102cb565b816040528381528660208588010111156103cd57600080fd5b836020870160208301376000602085830101528094505050505092915050565b803563ffffffff8116811461034557600080fd5b8035600781900b811461034557600080fd5b803561ffff8116811461034557600080fd5b8035801515811461034557600080fd5b6000610240828403121561044857600080fd5b6104506102e1565b905061045b8261032d565b81526104696020830161034a565b602082015261047a6040830161034a565b604082015260608201356001600160401b038082111561049957600080fd5b6104a585838601610361565b60608401526104b66080850161034a565b608084015260a08401359150808211156104cf57600080fd5b6104db85838601610361565b60a084015260c084013560c084015260e084013560e0840152610100915061050482850161034a565b828401526101209150818401358181111561051e57600080fd5b61052a86828701610361565b8385015250505061014061053f8184016103ed565b90820152610160610551838201610401565b9082015261018082810135908201526101a061056e8184016103ed565b908201526101c06105808382016103ed565b908201526101e06105928382016103ed565b908201526102006105a4838201610413565b908201526102206105b6838201610425565b9082015292915050565b600080604083850312156105d357600080fd5b82356001600160401b038111156105e957600080fd5b6105f585828601610435565b95602094909401359450505050565b60006020828403121561061657600080fd5b81356001600160401b0381111561062c57600080fd5b61063884828501610435565b949350505050565b6000815180845260005b818110156106665760208185018101518683018201520161064a565b506000602082860101526020601f19601f83011685010191505092915050565b6020815260006106996020830184610640565b9392505050565b6000602082840312156106b257600080fd5b81356001600160401b03808211156106c957600080fd5b9083019061022082860312156106de57600080fd5b6106e661030a565b6106ef8361034a565b81526106fd6020840161034a565b602082015260408301358281111561071457600080fd5b61072087828601610361565b6040830152506107326060840161034a565b606082015260808301358281111561074957600080fd5b61075587828601610361565b60808301525060a083013560a082015260c083013560c082015261077b60e08401610401565b60e0820152610100808401358381111561079457600080fd5b6107a088828701610361565b8284015250506101209150818301358282015261014091506107c38284016103ed565b8282015261016091506107d78284016103ed565b8282015261018091506107eb828401610413565b828201526101a091506107ff828401610413565b828201526101c091506108138284016103ed565b828201526101e091506108278284016103ed565b82820152610200915061083b8284016103ed565b91810191909152949350505050565b634e487b7160e01b600052601160045260246000fd5b808201808211156108735761087361084a565b92915050565b60008261089657634e487b7160e01b600052601260045260246000fd5b500490565b818103818111156108735761087361084a565b6040815260006108c16040830185610640565b82810360208401526108d38185610640565b95945050505050565b6001600160601b03198a1681526001600160a01b03898116602083015288811660408301526101206060830181905260009161091a8483018b610640565b9150808916608085015283820360a08501526109368289610640565b60c085019790975260e084019590955250509116610100909101529695505050505050565b600061012080835261096f8184018d610640565b63ffffffff9b8c16602085015260079a909a0b604084015250506060810196909652938716608086015291861660a085015290941660c083015261ffff90931660e082015291151561010090920191909152919050565b6001600160a01b038a811682528981166020830152610120604083018190526000916109f48483018c610640565b908a16606085015283810360808501529050610a108189610640565b90508660a08401528560c08401528460070b60e0840152828103610100840152610a3a8185610640565b9c9b50505050505050505050505056fea26469706673582212204f35982d754fe0b23702bdfe98d665512a50e47ef72afc3853cb2d0e9eb43c5f64736f6c63430008120033",
  "immutableReferences": {},
  "source": "// SPDX-License-Identifier: MIT\npragma solidity ^0.8.18;\n\nlibrary Quotes {\n    struct PeginQuote {\n        bytes20 fedBtcAddress;\n        address lbcAddress;\n        address liquidityProviderRskAddress;\n        bytes btcRefundAddress;\n        address payable rskRefundAddress;\n        bytes liquidityProviderBtcAddress;\n        uint256 callFee;\n        uint256 penaltyFee;\n        address contractAddress;\n        bytes data;\n        uint32 gasLimit;\n        int64 nonce;\n        uint256 value;\n        uint32 agreementTimestamp;\n        uint32 timeForDeposit;\n        uint32 callTime;\n        uint16 depositConfirmations;\n        bool callOnRegister;\n    }\n\n    struct PegOutQuote {\n        address lbcAddress;\n        address lpRskAddress;\n        bytes btcRefundAddress;\n        address rskRefundAddress;\n        bytes lpBtcAddress;\n        uint256 callFee;\n        uint256 penaltyFee;\n        int64 nonce;\n        bytes deposityAddress;\n        uint256 value;\n        uint32 agreementTimestamp;\n        uint32 depositDateLimit;\n        uint16 depositConfirmations;\n        uint16 transferConfirmations;\n        uint32 transferTime;\n        uint32 expireDate;\n        uint32 expireBlock;\n    }\n\n    function encodeQuote(\n        PeginQuote memory quote\n    ) external pure returns (bytes memory) {\n        // Encode in two parts because abi.encode cannot take more than 12 parameters due to stack depth limits.\n        return abi.encode(encodePart1(quote), encodePart2(quote));\n    }\n\n    function encodePegOutQuote(\n        PegOutQuote memory quote\n    ) external pure returns (bytes memory) {\n        // Encode in two parts because abi.encode cannot take more than 12 parameters due to stack depth limits.\n        return abi.encode(encodePegOutPart1(quote), encodePegOutPart2(quote));\n    }\n\n    function encodePart1(\n        PeginQuote memory quote\n    ) private pure returns (bytes memory) {\n        return\n            abi.encode(\n                quote.fedBtcAddress,\n                quote.lbcAddress,\n                quote.liquidityProviderRskAddress,\n                quote.btcRefundAddress,\n                quote.rskRefundAddress,\n                quote.liquidityProviderBtcAddress,\n                quote.callFee,\n                quote.penaltyFee,\n                quote.contractAddress\n            );\n    }\n\n    function encodePart2(\n        PeginQuote memory quote\n    ) private pure returns (bytes memory) {\n        return\n            abi.encode(\n                quote.data,\n                quote.gasLimit,\n                quote.nonce,\n                quote.value,\n                quote.agreementTimestamp,\n                quote.timeForDeposit,\n                quote.callTime,\n                quote.depositConfirmations,\n                quote.callOnRegister\n            );\n    }\n\n    function encodePegOutPart1(\n        PegOutQuote memory quote\n    ) private pure returns (bytes memory) {\n        return\n            abi.encode(\n                quote.lbcAddress,\n                quote.lpRskAddress,\n                quote.btcRefundAddress,\n                quote.rskRefundAddress,\n                quote.lpBtcAddress,\n                quote.callFee,\n                quote.penaltyFee,\n                quote.nonce,\n                quote.deposityAddress\n            );\n    }\n\n    function encodePegOutPart2(\n        PegOutQuote memory quote\n    ) private pure returns (bytes memory) {\n        return\n            abi.encode(\n                quote.value,\n                quote.agreementTimestamp,\n                quote.depositDateLimit,\n                quote.depositConfirmations,\n                quote.transferConfirmations,\n                quote.transferTime,\n                quote.expireDate,\n                quote.expireBlock\n            );\n    }\n\n    function checkAgreedAmount(\n        PeginQuote memory quote,\n        uint transferredAmount\n    ) external pure {\n        uint agreedAmount = quote.value + quote.callFee;\n        uint delta = agreedAmount / 10000;\n        // transferred amount should not be lower than (agreed amount - delta),\n        // where delta is intended to tackle rounding problems\n        require(\n            transferredAmount >= agreedAmount - delta,\n            \"LBC057\"\n        );\n    }\n\n}",
  "sourcePath": "/Users/luischavez/iov/liquidity-bridge-contract/contracts/Quotes.sol",
  "compiler": {
    "name": "solc",
    "version": "0.8.18+commit.87f61d96.Emscripten.clang"
  },
  "schemaVersion": "3.4.13",
  "updatedAt": "2024-02-27T21:36:42.710Z",
  "devdoc": {
    "kind": "dev",
    "methods": {},
    "version": 1
  },
  "userdoc": {
    "kind": "user",
    "methods": {},
    "version": 1
  }
}