{
  "contractName": "SignatureValidator",
  "abi": [
    {
      "inputs": [
        {
          "internalType": "address",
          "name": "addr",
          "type": "address"
        },
        {
          "internalType": "bytes32",
          "name": "quoteHash",
          "type": "bytes32"
        },
        {
          "internalType": "bytes",
          "name": "signature",
          "type": "bytes"
        }
      ],
      "name": "verify",
      "outputs": [
        {
          "internalType": "bool",
          "name": "",
          "type": "bool"
        }
      ],
      "stateMutability": "pure",
      "type": "function",
      "constant": true
    }
  ],
  "bytecode": "0x6102a761003a600b82828239805160001a60731461002d57634e487b7160e01b600052600060045260246000fd5b30600052607381538281f3fe73000000000000000000000000000000000000000030146080604052600436106100355760003560e01c80631a86b5501461003a575b600080fd5b61004d610048366004610167565b610061565b604051901515815260200160405180910390f35b602081810151604080840151606085015182518084018452601c81527b0ca2ba3432b932bab69029b4b3b732b21026b2b9b9b0b3b29d05199960211b818701529251600095929391861a9286916100bc9184918b910161023f565b60408051601f1981840301815282825280516020918201206000845290830180835281905260ff861691830191909152606082018790526080820186905291506001600160a01b038a169060019060a0016020604051602081039080840390855afa15801561012f573d6000803e3d6000fd5b505050602060405103516001600160a01b031614955050505050509392505050565b634e487b7160e01b600052604160045260246000fd5b60008060006060848603121561017c57600080fd5b83356001600160a01b038116811461019357600080fd5b92506020840135915060408401356001600160401b03808211156101b657600080fd5b818601915086601f8301126101ca57600080fd5b8135818111156101dc576101dc610151565b604051601f8201601f19908116603f0116810190838211818310171561020457610204610151565b8160405282815289602084870101111561021d57600080fd5b8260208601602083013760006020848301015280955050505050509250925092565b6000835160005b818110156102605760208187018101518583015201610246565b50919091019182525060200191905056fea2646970667358221220bd792db21283d5ed4492d5be672e9a8834e6b553884e74f28cebb69a03b1527e64736f6c63430008120033",
  "immutableReferences": {},
  "source": "// SPDX-License-Identifier: MIT\npragma solidity ^0.8.18;\n\nlibrary SignatureValidator {\n    /**\n        @dev Verfies signature against address\n        @param addr The signing address\n        @param quoteHash The hash of the signed data\n        @param signature The signature containing v, r and s\n        @return True if the signature is valid, false otherwise.\n     */\n    function verify(address addr, bytes32 quoteHash, bytes memory signature) public pure returns (bool) {\n        bytes32 r;\n        bytes32 s;\n        uint8 v;\n     \n        assembly {\n            r := mload(add(signature, 0x20))\n            s := mload(add(signature, 0x40))\n            v := byte(0, mload(add(signature, 0x60)))\n        }\n        // TODO use EIP712 compatible format instead\n        bytes memory prefix = \"\\x19Ethereum Signed Message:\\n32\";\n        bytes32 prefixedHash = keccak256(abi.encodePacked(prefix, quoteHash));\n        return ecrecover(prefixedHash, v, r, s) == addr;\n    }\n}\n",
  "sourcePath": "/Users/luischavez/iov/liquidity-bridge-contract/contracts/SignatureValidator.sol",
  "compiler": {
    "name": "solc",
    "version": "0.8.18+commit.87f61d96.Emscripten.clang"
  },
  "schemaVersion": "3.4.13",
  "updatedAt": "2024-03-08T19:52:46.680Z",
  "networkType": "ethereum",
  "devdoc": {
    "kind": "dev",
    "methods": {
      "verify(address,bytes32,bytes)": {
        "details": "Verfies signature against address",
        "params": {
          "addr": "The signing address",
          "quoteHash": "The hash of the signed data",
          "signature": "The signature containing v, r and s"
        },
        "returns": {
          "_0": "True if the signature is valid, false otherwise."
        }
      }
    },
    "version": 1
  },
  "userdoc": {
    "kind": "user",
    "methods": {},
    "version": 1
  }
}