{
  "contractName": "SignatureValidatorMock",
  "abi": [
    {
      "inputs": [
        {
          "internalType": "address",
          "name": "",
          "type": "address"
        },
        {
          "internalType": "bytes32",
          "name": "",
          "type": "bytes32"
        },
        {
          "internalType": "bytes",
          "name": "",
          "type": "bytes"
        }
      ],
      "name": "verify",
      "outputs": [
        {
          "internalType": "bool",
          "name": "",
          "type": "bool"
        }
      ],
      "stateMutability": "pure",
      "type": "function"
    }
  ],
  "bytecode": "0x61018961003a600b82828239805160001a60731461002d57634e487b7160e01b600052600060045260246000fd5b30600052607381538281f3fe73000000000000000000000000000000000000000030146080604052600436106100355760003560e01c80631a86b5501461003a575b600080fd5b61005161004836600461007b565b60019392505050565b604051901515815260200160405180910390f35b634e487b7160e01b600052604160045260246000fd5b60008060006060848603121561009057600080fd5b83356001600160a01b03811681146100a757600080fd5b92506020840135915060408401356001600160401b03808211156100ca57600080fd5b818601915086601f8301126100de57600080fd5b8135818111156100f0576100f0610065565b604051601f8201601f19908116603f0116810190838211818310171561011857610118610065565b8160405282815289602084870101111561013157600080fd5b826020860160208301376000602084830101528095505050505050925092509256fea2646970667358221220c7f239fba0fa301a5066a08440683e23556f9a2cb825a3deae8bbe3d6180752d64736f6c63430008120033",
  "immutableReferences": {},
  "source": "// SPDX-License-Identifier: MIT\npragma solidity ^0.8.18;\n\nlibrary SignatureValidatorMock {\n    function verify(address , bytes32 , bytes memory) public pure returns (bool) {\n        // This is mocked due to an issue with truffle evm that makes the\n        // ecrecover function to return address 0x000...0 as the signer\n        // when executing against RSK the issue doesn't happen, so the actual implementation\n        // uses the class and not this mock\n        return true;\n    }\n}\n",
  "sourcePath": "/Users/luischavez/iov/liquidity-bridge-contract/contracts/SignatureValidatorMock.sol",
  "compiler": {
    "name": "solc",
    "version": "0.8.18+commit.87f61d96.Emscripten.clang"
  },
  "schemaVersion": "3.4.13",
  "updatedAt": "2024-08-13T18:14:01.695Z",
  "networkType": "ethereum",
  "devdoc": {
    "kind": "dev",
    "methods": {},
    "version": 1
  },
  "userdoc": {
    "kind": "user",
    "methods": {},
    "version": 1
  }
}