{
  "contractName": "WalletMock",
  "abi": [
    {
      "stateMutability": "payable",
      "type": "receive"
    },
    {
      "inputs": [
        {
          "internalType": "bool",
          "name": "val",
          "type": "bool"
        }
      ],
      "name": "setRejectFunds",
      "outputs": [],
      "stateMutability": "nonpayable",
      "type": "function"
    }
  ],
  "bytecode": "0x608060405234801561001057600080fd5b5060f38061001f6000396000f3fe60806040526004361060205760003560e01c80633eb9f75314606c57600080fd5b3660675760005460ff161560655760405162461bcd60e51b81526020600482015260086024820152671c995a9958dd195960c21b604482015260640160405180910390fd5b005b600080fd5b348015607757600080fd5b50606560833660046096565b6000805460ff1916911515919091179055565b60006020828403121560a757600080fd5b8135801515811460b657600080fd5b939250505056fea2646970667358221220452fad9c49b69bc0150bf3f6ec99aae045bd177597615fde00db38246c5b0ad364736f6c63430008120033",
  "immutableReferences": {},
  "source": "// SPDX-License-Identifier: MIT\npragma solidity ^0.8.18;\n\ncontract WalletMock {\n\n    bool private rejectFunds;\n\n    function setRejectFunds(bool val) external {\n        rejectFunds = val;\n    }\n\n    receive() external payable {\n        require(!rejectFunds, \"rejected\");\n    }\n}\n",
  "sourcePath": "/Users/luischavez/iov/liquidity-bridge-contract/contracts/WalletMock.sol",
  "compiler": {
    "name": "solc",
    "version": "0.8.18+commit.87f61d96.Emscripten.clang"
  },
  "schemaVersion": "3.4.13",
  "updatedAt": "2024-05-21T23:47:25.305Z",
  "devdoc": {
    "kind": "dev",
    "methods": {},
    "version": 1
  },
  "userdoc": {
    "kind": "user",
    "methods": {},
    "version": 1
  }
}